:1000000000180020C10000000D0D0000D90C0000F8
:10001000D90C0000D90C0000D90C0000D90C00004C
:10002000D90C0000D90C0000D90C00000D0D000007
:100030000D0D0000D90C00000D0D0000C90C0000D2
:100040000D0D00000D0D00000D0D00000D0D000048
:100050000D0D00000D0D00000D0D00000D0D000038
:100060000D0D00000D0D00000D0D00000D0D000028
:10007000E91300003D180000911C00000D0D000068
:100080000D0D00000D0D00000D0D00000D0D000008
:100090000D0D00000D0D0000492100000D0D0000A8
:1000A0000D0D00000D0D00000D0D00000D0D0000E8
:1000B0000D0D0000551D00000D0D00000D0D000080
:1000C00038B500F027FE454A454B1A60454A464B75
:1000D0001A60464A464B1A60464B0822197811426C
:1000E00002D019780A431A70434B2A221A7000234F
:1000F000424A43499A188A4204D24249C9580433B1
:100100001160F5E7404B41491A1F181D00238A4230
:1001100002D21360031CF6E73D493E4A5958101CB1
:1001200099500433C02BF7D100239A083A49920022
:10013000521803211940C9001568FF248C40A543BB
:100140002C1C80258D40291C214301331160202B5C
:10015000EBD1324B8A221860314B1A70314B24227A
:100160005A70A0221A709A799107FCD59A79D5060F
:10017000FCD498790C212B4A01400829F9D103219C
:100180001171402151719A799106FCD59A795506E1
:10019000FCD5254AC02189051160224A2021117011
:1001A00099790C220A400C2AFAD1204A204B1A6075
:1001B000204A214B1A60214B00221A60204B072253
:1001C0001A60204A204B1A6062B600F0A5FE03F0C8
:1001D000B3F900F0A5FD00F027FDFEE7300004F0C4
:1001E00034800440823F0000388004400100000F4A
:1001F0003C80044002D0074000E0074000F9FF1FA8
:1002000058020020684B00005C020020E805002036
:100210000000000000F8FF1F00E400E008ED00E02F
:10022000005006400040064044800440C0000505E0
:1002300004800440BF5D000014E000E018E000E02E
:1002400010E000E00000202020ED00E0FFFFFFFFB5
:10025000FFFFFFFFFFFFFFFFFFFFFFFFFFFFFFFFAE
:10026000FFFFFFFFFFFFFFFFFFFFFFFFFFFFFFFF9E
:10027000FFFFFFFFFFFFFFFFFFFFFFFFFFFFFFFF8E
:10028000FFFFFFFFFFFFFFFFFFFFFFFFFFFFFFFF7E
:10029000FFFFFFFFFFFFFFFFFFFFFFFFFFFFFFFF6E
:1002A000FFFFFFFFFFFFFFFFFFFFFFFFFFFFFFFF5E
:1002B000FFFFFFFFFFFFFFFFFFFFFFFFFFFFFFFF4E
:1002C000FFFFFFFFFFFFFFFFFFFFFFFFFFFFFFFF3E
:1002D000FFFFFFFFFFFFFFFFFFFFFFFFFFFFFFFF2E
:1002E000FFFFFFFFFFFFFFFFFFFFFFFFFFFFFFFF1E
:1002F000FFFFFFFFFFFFFFFFFFFFFFFFFFFFFFFF0E
:10030000FFFFFFFFFFFFFFFFFFFFFFFFFFFFFFFFFD
:10031000FFFFFFFFFFFFFFFFFFFFFFFFFFFFFFFFED
:10032000FFFFFFFFFFFFFFFFFFFFFFFFFFFFFFFFDD
:10033000FFFFFFFFFFFFFFFFFFFFFFFFFFFFFFFFCD
:10034000FFFFFFFFFFFFFFFFFFFFFFFFFFFFFFFFBD
:10035000FFFFFFFFFFFFFFFFFFFFFFFFFFFFFFFFAD
:10036000FFFFFFFFFFFFFFFFFFFFFFFFFFFFFFFF9D
:10037000FFFFFFFFFFFFFFFFFFFFFFFFFFFFFFFF8D
:10038000FFFFFFFFFFFFFFFFFFFFFFFFFFFFFFFF7D
:10039000FFFFFFFFFFFFFFFFFFFFFFFFFFFFFFFF6D
:1003A000FFFFFFFFFFFFFFFFFFFFFFFFFFFFFFFF5D
:1003B000FFFFFFFFFFFFFFFFFFFFFFFFFFFFFFFF4D
:1003C000FFFFFFFFFFFFFFFFFFFFFFFFFFFFFFFF3D
:1003D000FFFFFFFFFFFFFFFFFFFFFFFFFFFFFFFF2D
:1003E000FFFFFFFFFFFFFFFFFFFFFFFFFFFFFFFF1D
:1003F000FFFFFFFFFFFFFFFFFFFFFFFFFFFFFFFF0D
:10040000FFFFFFFFFFFFFFFFFFFFFFFFFEFFFFFFFD
:1004100010B5064C2378002B07D1054B002B02D0DA
:10042000044800E000BF0123237010BD58020020E3
:1004300000000000684B000008B5084B002B03D0FB
:100440000748084900E000BF07480368002B03D0B5
:10045000064B002B00D0984708BDC04600000000A6
:10046000684B00005C0200205802002000000000E1
:100470009378012B15D1D378022B07D11179124B28
:10048000997051799279D9701A7117E0032B15D1AF
:100490000D4B5978042911D01179D97152791A72FA
:1004A0000CE0082B0AD1084B5978042906D0D178E2
:1004B000127909020A435A71120A9A71034B1A6897
:1004C000034B1A607047C046A8020020F4020020C7
:1004D000A4020020014B01221A707047A0020020E4
:1004E000014B00221A707047A0020020014B00222D
:1004F0001A707047A0020020014B01221A70704749
:10050000A0020020F7B5041C019100F0E9FE061CD2
:10051000122000F091FC0B4F051E01D1A6420ADA11
:100520000123094A3B70094B341C1A80084B1A6896
:1005300001321A6004E00198211C00F0B9FE3D7000
:10054000201CFEBD970200200083FFFF98020020C0
:1005500008F9FF1F38B500F041FB0021122000F020
:100560007DFC1A2000F03CFD002000F07FFD1320F0
:1005700000F000FE1B4A1C4BA1211A601B4A1C4BB9
:1005800000241A601B4A1C4B1C4D1A601C4A1D4B50
:10059000281C1A601C4A1D4B1A601D4A1D4B1A600C
:1005A0001D4B9F221A7021225A7099701B4B211CDF
:1005B0001C701B4B1C7003F011FBA5232B70194BF7
:1005C00019481C70194B1C70194B197801F0C2FEA8
:1005D00000F064FC174B1860174B1A68174B1A6031
:1005E00038BDC0460505000030050020710400003C
:1005F00070050020D50400005C050020A802002042
:10060000E104000000050020F90400005805002066
:10061000ED040000F004002074020020C902002054
:10062000970200209A0200208C460000A0020020C1
:1006300004F9FF1F9C020020F4020020A402002005
:100640000138C0B210B5242856D82C4B1F280ED91B
:10065000203801248440DA79201C002902D010437C
:10066000D87102E0111CA143D971DB793FE0172852
:100670000ED91838012484409A79201C002902D010
:100680001043987102E0111CA14399719B792EE0EF
:100690000F280ED91038012484405A79201C0029D3
:1006A00002D01043587102E0111CA14359715B79CB
:1006B0001DE007280ED90838012484401A79201C2F
:1006C000002902D01043187102E0111CA1431971D6
:1006D0001B790CE001248440DA78201C002902D028
:1006E0001043D87002E0111CA143D970DB7893420B
:1006F00002D0034B01221A7010BDC04674020020C4
:10070000C9020020044BC0B21A7A1872824202D089
:10071000024B01221A70704774020020C9020020A7
:10072000044BC0B25A7A5872824202D0024B012264
:100730001A70704774020020C9020020044BC0B236
:100740009A7A9872824202D0024B01221A70704744
:1007500074020020C9020020064BC0B25870064B3C
:100760000133DA7FD877824202D0044B01221A701B
:100770007047C046A802002074020020C902002071
:1007800008B5012000F0AEFB08BDFFFFAE4B70B511
:100790001B78002B00D13FE1AC4CAD48211C21223D
:1007A00000F0C4F92378A52B00D012E16078FFF7A0
:1007B000D3FF0523E3568020C01AFFF7A3FF0620CE
:1007C000205601257F30FFF7ABFFA1780120C90932
:1007D000FFF736FFA178022089092940FFF730FF93
:1007E000A178032049092940FFF72AFFA1780420B6
:1007F00009092940FFF724FFE1780520C909FFF71F
:100800001FFFE178062089092940FFF719FFE178E9
:10081000072049092940FFF713FFE178082009095B
:100820002940FFF70DFFE178092089082940FFF7EB
:1008300007FFE1780A20E9402940FFF701FF21790D
:100840000B20C9082940FFF7FBFE21790C208908FD
:100850002940FFF7F5FE21790D20E9402940FFF7F7
:10086000EFFE21790E2049092940FFF7E9FEE178E2
:100870000F20C9082940FFF7E3FEE1781020294046
:10088000FFF7DEFE6378042B6DD1217A1320C908AF
:100890002940FFF7D5FE217A142009092940FFF7E6
:1008A000CFFE217A152049092940FFF7C9FEA17A18
:1008B00016202940FFF7C4FEA17A1720E9402940FD
:1008C000FFF7BEFEA17A182089082940FFF7B8FE7D
:1008D000A17A1920C9082940FFF7B2FEA17A1A208F
:1008E00009092940FFF7ACFEA17A1B2049092940DC
:1008F000FFF7A6FEA17A1C2089092940FFF7A0FE78
:10090000A17A1D20C909FFF79BFEE17A1E2029402C
:10091000FFF796FEE17A1F20E9402940FFF790FE9D
:10092000E17A202089082940FFF78AFEE17A212018
:10093000C9082940FFF784FEE17A222009092940ED
:10094000FFF77EFEE17A232049092940FFF778FE70
:10095000E17A242089092940FFF772FEE17A2520F7
:10096000C909FFF76DFE3B4D2B785A1E312A01D87D
:10097000013302E0322B01D900232B702B78002B9E
:100980001AD1354EE1791120317049B201314B4213
:100990005941C9B2FFF754FE0021715612200139A6
:1009A0004B425941C9B2FFF74BFE0023F356002BCF
:1009B00002D02B7801332B70A2780F231340013B18
:1009C000DBB2FF20072B01D8244AD05C00B2FFF72E
:1009D000B5FE00F063FA224B224D1A681E1C801AE5
:1009E000214A224C1268904205D82B78002B10D057
:1009F0001F4B98420DD91F4B232118781E4B1F4ABD
:100A00001B7801F015FD00F049FA002330602380C7
:100A10002B7023880133238000F084FC82B2184BB2
:100A2000FF2A08D81A78002A05D1134BC0B21978CA
:100A300001F0E0FDF0E71A78002A01D000221A70D8
:100A4000FFF79EFE70BDC046A0020020CA02002033
:100A5000A8020020A2020020A1020020844600007B
:100A60009C020020C902002008F9FF1F9802002004
:100A7000102700000CF9FF1F04F9FF1F740200206B
:100A80009A020020F7B50E1C051C5421580700D40B
:100A900050210820034200D00143002A01D1012344
:100AA000194329700024124F12483A5D6300C15A5D
:100AB0001148019202F0CCFC0E4F864203D3019AFA
:100AC00000246A7006E001341E2CECD1F7E70134F3
:100AD0001E2C09D0064B09481B5D01936300F95A8F
:100AE00002F0B6FC8642F2D30198A870F7BDC0466A
:100AF000084A0000CC49000000366E01006CDC02A0
:100B000010B5041CFFF7BEFF201C10BD031CFF2006
:100B1000002907D01A7801395040034A0133105C8C
:100B2000C9B2F5E77047C0460DF9FF1FF7B5561E6D
:100B30000C1CF1B2171C051CFFF7E8FF6B1CD877E3
:100B400000210A2000F058F91E4B18785B780090BD
:100B500001931D4B1A68002A08D072B61B4A186808
:100B6000116801401A480160116062B6009A194983
:100B7000CA70019800224870BA420ADAA85C8871EB
:100B8000087840B20028FBDA12488079A05401327C
:100B9000F2E71B68002B03D00D4B1A680E4B1A604E
:100BA0000A20012100F028F9231C1A1BB24207DA9F
:100BB00019785A784900D2090A431A700133F4E7C8
:100BC000F7BDC046EC020020A805002080E100E04F
:100BD000AC0500200060074000E100E013B50A20EA
:100BE000012100F03BF901AC0A20012100F004F9D9
:100BF00002F0A2FB201C044901220023FFF780FF22
:100C00006278024B5A7013BD00093D000060074036
:100C100008B50348034901220023FFF771FF08BD0F
:100C2000EC020020001BB70008B5FFF793FCFFF7AC
:100C3000ADFD01F065FBFAE71B4B1C4A19781C4B14
:100C4000082901D1002102E00A2903D138211160CD
:100C5000132206E00C2901D1342100E03C2111606F
:100C600012221A60134B1A78134B002A01D000226B
:100C700000E001221A60114B1A78114B012A01D8A9
:100C800080220CE0042A01D8842208E0082A01D836
:100C9000852204E0102A01D8862200E087221A600B
:100CA000084B01221A7070470DFAFF1F08B003406D
:100CB0000CB00340F002002020B003400EFAFF1FEA
:100CC00024B00340EF020020024B1A6801321A6080
:100CD0007047C046F402002010B50B4C23685A033D
:100CE00001D500F013F823685A0501D500F07CFB0C
:100CF00023681A0501D500F0A1FD2368DA04ECD5BC
:100D000000F0C6FFE9E7C0463480044008B5FFF7AD
:100D1000E3FFFFFF014B00221A607047008104408F
:100D20007047FFFF024A136818181060181C7047BC
:100D300010FAFF1FEFF31380002821D1EFF3108288
:100D4000002A1FD1EFF30583002B0FD0101C0F2BAF
:100D50000ED91A1C103A92080B4903209200034046
:100D6000521883401068D840C0B201E08020400093
:100D7000EFF31182002A05D0824203D2101C01E059
:100D8000012040427047C04600E400E0F8B5061C70
:100D90000D1C171C0024301C391C02F04FFB0929C4
:100DA00001D8303100E03731C9B22955301C391C27
:100DB00002F000FB061E01D00134ECE72B1958703D
:100DC0002B1C5A1BA24206DA1A78295D19702A5583
:100DD0000133013CF5E7281CF8BD10B50C1C0028B8
:100DE00002DBFFF7D3FF06E02D230B7040420131F9
:100DF000FFF7CCFF201C10BD10B51A2818D80C2303
:100E000058430C4A835810181C7D027A224205D0A0
:100E1000002901D01A710BE01A7209E043681A68C0
:100E2000002902D003210A4301E002218A431A600B
:100E300010BDC0469446000000231A280AD80C238F
:100E40005843054A81581018027A0B7C13405A1EE9
:100E50009341DBB2181C70479446000010B51A2865
:100E600018D80C2358430C4A141863688258247A03
:100E7000012904D1117D0C431475A22205E0107DD7
:100E8000A0431075002902D18022520001E0042203
:100E9000FF321A6010BDC0469446000072B60C4B7B
:100EA0000C491A680C4B1B68096862B6480104D5E6
:100EB00032219142894149425B18FA208000434324
:100EC0000648821A06484243920D98187047C04659
:100ED00018E000E004ED00E0F4020020BF5D000037
:100EE000ABAA020038B5041CFFF7D8FF051C002C84
:100EF0000ED0FFF7D3FF074B401B984205D9013CAA
:100F0000002C05D0FA239B00ED1801F0F9F9F0E769
:100F100038BDC046E70300001C4B8022D20510B547
:100F20001A60802212061A60194B002018601949B5
:100F3000194B1A4A196028231360194A194C136077
:100F4000194A1360194A1360194A1360194A136049
:100F500009222260184C2060184C2160184C236034
:100F6000184C2360184C2260184C2060184801600F
:100F700018490B6018490B60184B1A60FFF75CFEAC
:100F8000FA20FFF7AFFF00F0E3FE10BD00E100E044
:100F900004800340FFBF0000088003400C80034032
:100FA00014800340008003401C80034024800340E1
:100FB0002C80034034800340049003400890034099
:100FC0000C900340149003400090034004A00340A1
:100FD00008A003400CA0034014A0034000A003405D
:100FE000164B80221968D2000A431A60144A002363
:100FF0001370144A14491370144A1370144A13706E
:10100000144A1370144A1160144AD12189001160E6
:10101000134AC104C90EC0B21170507093702C23D2
:10102000D370104BFF22196891430A1C40210A43D8
:101030001A600D4B802252011A60704734800440C0
:1010400080030020FD02002013030000880300201D
:1010500081030020FC02002040A0044044A0044082
:1010600000A006400CE400E000E100E010B5124BE7
:10107000132299789143032202400A43410701D584
:1010800010210A439A700F220B490240042A03D10F
:101090008A79402422438A715A7910218A4308426E
:1010A00000D00A435A719A7910218A43840600D5E8
:1010B0000A439A7110BDC04600A0064008B5124B05
:1010C0001B685A051ED5114B1B78DBB2002B02D0D2
:1010D00001F016F9F7E70E4A8021490111600D4A27
:1010E0000D49D3700422FF320A600C490A600C4A91
:1010F00013700C4A13700C4B1B68002B02D00B4A68
:1011000012781A7108BDC04634800440FC020020E9
:1011100080E100E000A0064040A0044044A004405C
:1011200080030020FD020020F80200203E03002082
:1011300038B5041C0B4B1D78EDB2002DFAD1201CE4
:101140000121FFF78BFE291C201CFFF755FE0C2206
:101150005443054B054AE1581C191160044B227A8F
:101160001A7038BDFC020020944600008403002061
:101170007F03002038B50E4B1A680023510514D5A3
:101180000C4C1A2810D80C2343430B4A0B4D99588A
:10119000D3181B7A216001212B70FFF75FFE2368B3
:1011A0002A781A72012300E02360181C38BDC0465B
:1011B00034800440F8020020944600003E030020E2
:1011C0000C4B021C1B680020590512D50A4B122A31
:1011D00002D10A490A4A03E0142A06D10749094AFA
:1011E00011605A7B0120024302E05A7B01218A43AD
:1011F0005A7370473480044000A006400203000088
:101200000CA0044014C00440F8B5214B071C1B6817
:101210005A053BD51F4B1B68002B02D01E4A127883
:101220001A711E4E002334783F220134A2425B41E2
:101230005B421C401A4D2B78A3421CD1FFF77AFD6C
:10124000402813DC174A13795BB2002BF2DA2B78B3
:10125000002101333F209842494149420B40124945
:10126000C95CDBB2C9B2D1712B70E3E7FF28E1DDC5
:1012700001F046F8DEE70C4BFFB21F550B4B012285
:101280001A70084BE4B2AC223470DA70F8BDC04674
:1012900034800440840300207F0300208803002062
:1012A0008103002000A00640FE020020FC02002076
:1012B00038B5041C4518AC4204D02078FFF7A4FFD1
:1012C0000134F8E738BDFFFF08B5044B1B78002B4D
:1012D00002D001F015F8F8E708BDC046FC02002076
:1012E000064B074A1B781078DBB2C0B2834201D3A9
:1012F0003F3000E00138C01A7047C0468803002024
:1013000081030020054B1878054BC0B21B78DBB277
:10131000984200D24030C01A7047C0468003002077
:10132000FD02002010B5124B12491A780B78D2B288
:10133000DBB29A4219D001333F2400209C42404145
:10134000404203400C48DCB2C05C0C700B49C0B298
:10135000096800290BD09A4200D24032D31A1A2BC6
:1013600005DC074B1B780B7201E00120404210BDE9
:1013700080030020FD0200203F030020F80200202F
:101380003E0300200A4B1A780A4B1B78DBB29A42C4
:101390000AD0013300223F21994252415242134068
:1013A000054AD05CC0B201E0012040427047C0460F
:1013B00080030020FD0200203F030020064B1A7826
:1013C000064BD2B21A70064B1B68002B02D0054A9E
:1013D00012781A727047C046FD0200208003002078
:1013E000F80200203E03002030B5254A1379990603
:1013F00012D52449D4790B78002001333F259D4232
:101400004041404203402048E4B20078834203D088
:101410001E48C454DBB20B70D178194CC9B24BB220
:10142000002B1ADA23795BB2002B16DA184B194815
:101430001D780378DBB29D4202D16C23E3700CE08F
:10144000013300243F259D42644164422340124CF5
:10145000E45CDBB2E4B2D4710370402319420ED0D5
:10146000117919420BD00D4B002119700C4B1B68E0
:101470008B4202D00B49097819722C23D37030BDEE
:1014800000A0064080030020FD0200203F03002052
:101490008803002081030020FE020020FC020020BF
:1014A000840300207F030020164B8022196812015C
:1014B0000A431A60144A00231370144A1449137023
:1014C000144A1370144A1370144A1370144A1160AA
:1014D000144AD12189001160134AC104C90EC0B257
:1014E0001170507093702C23D370104B104A1968F0
:1014F0000A408021C9010A431A600E4B80229201E2
:101500001A60704734800440F40300208A030020EE
:1015100013030000FC030020F503002089030020D2
:101520000CB0044010B0044000B006400CE400E0F1
:10153000FF00FFFF00E100E010B5124B1322997885
:101540009143032202400A43410701D510210A4377
:101550009A700F220B490240042A03D18A79402451
:1015600022438A715A7910218A43084200D00A43E3
:101570005A719A7910218A43840600D50A439A71D8
:1015800010BDC04600B0064008B50E4B1B681A05DA
:1015900017D50D4B1B78DBB2002B02D000F0B0FE4C
:1015A000F7E70A4A802189011160094A0949D37085
:1015B0000422FF320A6008490A60084A1370084A88
:1015C000137008BD348004408903002080E100E0EE
:1015D00000B006400CB0044010B00440F4030020FA
:1015E0008A03002038B5041C0B4B1D78EDB2002D8A
:1015F000FAD1201C0121FFF731FC291C201CFFF728
:10160000FBFB0C225443054B054AE1581C191160A1
:10161000044B227A1A7038BD8903002094460000DA
:10162000F8030020F30300200B4B00221B68190570
:1016300010D50A4B162809D1094AC021890011602A
:101640005A7B08210A435A73012203E0597B082080
:1016500081435973101C70473480044000B0064029
:1016600004B004400A4B021C1B68002019050ED56B
:10167000084B172A07D1084AC021890011605A7BFC
:101680000120024302E05A7B01218A435A737047CA
:101690003480044000B0064008B00440F8B5214B47
:1016A000071C1B681A053BD51F4B1B68002B02D07B
:1016B0001E4A12781A711E4E0023347827220134F4
:1016C000A2425B415B421C401A4D2B78A3421CD1C5
:1016D000FFF730FB402813DC174A13795BB2002B6D
:1016E000F2DA2B7800210133272098424941494200
:1016F0000B401249C95CDBB2C9B2D1712B70E3E770
:10170000FF28E1DD00F0FCFDDEE70C4BFFB21F55CA
:101710000B4B01221A70084BE4B2AC223470DA7021
:10172000F8BDC04634800440F8030020F3030020D5
:10173000FC030020F503002000B006408B030020CE
:101740008903002038B5041C4518AC4204D0207829
:10175000FFF7A4FF0134F8E738BDFFFF08B5044BDD
:101760001B78002B02D000F0CBFDF8E708BDC04687
:1017700089030020064B074A1B781078DBB2C0B201
:10178000834201D3273000E00138C01A7047C046B9
:10179000FC030020F5030020054B1878054BC0B270
:1017A0001B78DBB2984200D24030C01A7047C04666
:1017B000F40300208A0300200A4B0B4A197813789F
:1017C000DBB299420BD001333F20002198424941BE
:1017D00049420B400549C85CDBB2137001E00120AF
:1017E00040427047F40300208A030020B303002026
:1017F0000A4B1A780A4B1B78DBB29A420AD00133A3
:1018000000223F219942524152421340054AD05C86
:10181000C0B201E0012040427047C046F4030020FE
:101820008A030020B3030020024B1A78024BD2B285
:101830001A7070478A030020F403002030B5254A4F
:101840001379990612D52449D4790B7800200133F5
:101850003F259D424041404203402048E4B2007889
:10186000834203D01E48C454DBB20B70D178194CAC
:10187000C9B24BB2002B1ADA23795BB2002B16DA0D
:10188000184B19481D780378DBB29D4202D16C23B6
:10189000E3700CE00133002427259D42644164423B
:1018A0002340124CE45CDBB2E4B2D47103704023F9
:1018B00019420ED0117919420BD00D4B002119702D
:1018C0000C4B1B688B4202D00B49097819722C23F0
:1018D000D37030BD00B00640F40300208A0300201E
:1018E000B3030020FC030020F50300208B0300203D
:1018F00089030020F8030020F3030020164B802208
:10190000196852010A431A60144A00231370144ADA
:1019100014491370144A1370144A1370144A137044
:10192000144A1160144AD12189001160134AC1047C
:10193000C90EC0B21170507093702C23D370104B2D
:10194000104A19680A408021C9030A431A600E4BE5
:101950008022D2011A60704734800440680400205D
:10196000FE0300201303000070040020690400201F
:10197000FD03002008C004400CC0044000C0064025
:101980000CE400E0FFFF00FF00E100E010B5124BA7
:10199000132299789143032202400A43410701D55B
:1019A00010210A439A700F220B490240042A03D1E6
:1019B0008A79402422438A715A7910218A43084245
:1019C00000D00A435A719A7910218A43840600D5BF
:1019D0000A439A7110BDC04600C0064008B50E4BC0
:1019E0001B68DA0417D50D4B1B78DBB2002B02D035
:1019F00000F086FCF7E70A4A8021C9011160094A14
:101A00000949D3700422FF320A6008490A60084A73
:101A10001370084A137008BD34800440FD03002091
:101A200080E100E000C0064008C004400CC0044053
:101A300068040020FE03002038B5041C0B4B1D7801
:101A4000EDB2002DFAD1201C0121FFF707FA291C65
:101A5000201CFFF7D1F90C225443054B054AE158ED
:101A60001C191160044B227A1A7038BDFD03002046
:101A7000944600006C040020670400200B4B0022F9
:101A80001B68D90410D50A4B022809D1094AC02184
:101A9000890011605A7B08210A435A73012203E02E
:101AA000597B082081435973101C704734800440CF
:101AB00000C0064000C004400A4B021C1B68002006
:101AC000D9040ED5084B0E2A07D1084AC021890037
:101AD00011605A7B0120024302E05A7B01218A43B4
:101AE0005A7370473480044000C0064004C004406C
:101AF000F8B5214B071C1B68DA043BD51F4B1B684C
:101B0000002B02D01E4A12781A711E4E0023347820
:101B100027220134A2425B415B421C401A4D2B78C4
:101B2000A3421CD1FFF706F9402813DC174A1379AA
:101B30005BB2002BF2DA2B78002101332720984288
:101B4000494149420B401249C95CDBB2C9B2D1716B
:101B50002B70E3E7FF28E1DD00F0D2FBDEE70C4B62
:101B6000FFB21F550B4B01221A70084BE4B2AC2296
:101B70003470DA70F8BDC046348004406C04002034
:101B800067040020700400206904002000C00640A3
:101B9000FF030020FD03002038B5041C4518AC42AB
:101BA00004D02078FFF7A4FF0134F8E738BDFFFF29
:101BB00008B5044B1B78002B02D000F0A1FBF8E71E
:101BC00008BDC046FD030020064B074A1B7810786D
:101BD000DBB2C0B2834201D3273000E00138C01A23
:101BE0007047C0467004002069040020054B187837
:101BF000054BC0B21B78DBB2984200D24030C01A0D
:101C00007047C04668040020FE0300200A4B0B4AC0
:101C100019781378DBB299420BD001333F200021B1
:101C20009842494149420B400549C85CDBB21370F8
:101C300001E001204042704768040020FE030020BC
:101C4000270400200A4B1A780A4B1B78DBB29A4211
:101C50000AD0013300223F2199425241524213409F
:101C6000054AD05CC0B201E0012040427047C04646
:101C700068040020FE03002027040020024B1A788D
:101C8000024BD2B21A707047FE0300206804002095
:101C900030B5254A1379990612D52449D4790B78A1
:101CA000002001333F259D424041404203402048EF
:101CB000E4B20078834203D01E48C454DBB20B70F8
:101CC000D178194CC9B24BB2002B1ADA23795BB226
:101CD000002B16DA184B19481D780378DBB29D42A9
:101CE00002D16C23E3700CE00133002427259D42D0
:101CF000644164422340124CE45CDBB2E4B2D47130
:101D00000370402319420ED0117919420BD00D4BAC
:101D1000002119700C4B1B688B4202D00B490978CB
:101D200019722C23D37030BD00C006406804002017
:101D3000FE03002027040020700400206904002016
:101D4000FF030020FD0300206C0400206704002036
:101D50007047FFFFF8B5184B8022196852040A43F8
:101D60001A60164B01211A68154D0A431A60154B6B
:101D70002E681C68002C12D0237A002B0DD023680B
:101D8000201C1B682F6898472A68E188D21B12091B
:101D900093B2A3808A4200D9E3806469EAE72968A4
:101DA000094B891B09098AB21A80084B188881429D
:101DB00000D91A80F8BDC046FCED00E0001000E03C
:101DC000041000E0740400207A040020780400204D
:101DD00008B50368C9B21B68984708BD08B5036811
:101DE000C9B21B68984708BD08B50368C9B21B682B
:101DF000984708BD08B50368C9B21B68984708BD75
:101E000008B5044B4808C01801F0D4FAFFF7E8F809
:101E100008BDC046C0C62D0010B5064B4808C01806
:101E2000141C01F0C7FAFFF7DBF8201CFFF71EF9BE
:101E300010BDC046C0C62D0008B5FFF73FF908BD6C
:101E400008B5081CFFF774F908BD08B5081CFFF7B2
:101E500091F9431E9841C0B208BD08B5081CFFF7B0
:101E6000AFF9431E9841C0B208BD08B5FFF74AFA62
:101E700008BD08B5FFF786FA08BD08B5FFF752FAA6
:101E800008BD08B5FFF720FA08BD08B5FFF796FAB8
:101E900008BD08B5FFF724FA08BD08B5081CFFF710
:101EA000B3F9012008BD08B5081CFFF7ADF9012002
:101EB00008BD10B5081C141C111CFFF7F9F9201CF3
:101EC00010BD38B5081C0D1C02F014F9041C211CAF
:101ED000281CFFF7EDF9201C38BDFFFF044B002242
:101EE0001A711A73FA21034A890099601A607047BF
:101EF00080040020E047000008B50368C9B21B68F1
:101F0000984708BD08B50368C9B21B68984708BD63
:101F100008B50368C9B21B68984708BD08B50368CF
:101F2000C9B21B68984708BD08B5044B4808C018DB
:101F300001F040FAFFF7B8FA08BDC04660E31600AA
:101F400010B5064B4808C018141C01F033FAFFF70F
:101F5000ABFA201CFFF7F0FA10BDC046C0C62D003A
:101F600008B5FFF711FB08BD08B5081CFFF73AFBE1
:101F700008BD08B5081CFFF757FB431E9841C0B2C7
:101F800008BD08B5081CFFF76DFB431E9841C0B2A1
:101F900008BD08B5FFF700FC08BD08B5FFF728FC31
:101FA00008BD08B5FFF708FC08BD08B5FFF7D6FB6C
:101FB00008BD08B5FFF738FC08BD08B5FFF7DAFB28
:101FC00008BD08B5081CFFF769FB012008BD08B56E
:101FD000081CFFF763FB012008BD10B5081C141C8A
:101FE000111CFFF7AFFB201C10BD38B5081C0D1CE1
:101FF00002F080F8041C211C281CFFF7A3FB201C06
:1020000038BDFFFF044B00221A711A73FA21034AEC
:10201000890099601A6070479004002038480000D9
:1020200008B50368C9B21B68984708BD08B50368BE
:10203000C9B21B68984708BD08B50368C9B21B68D8
:10204000984708BD08B50368C9B21B68984708BD22
:1020500008B5044B4808C01801F0ACF9FFF74EFC76
:1020600008BDC04660E3160010B5064B4808C0180E
:10207000141C01F09FF9FFF741FC201CFFF786FCC0
:1020800010BDC04660E3160008B5FFF7A7FC08BD09
:1020900008B5081CFFF7D0FC08BD08B5081CFFF701
:1020A000EDFC431E9841C0B208BD08B5081CFFF7FF
:1020B00003FD431E9841C0B208BD08B5FFF796FD69
:1020C00008BD08B5FFF7BEFD08BD08B5FFF79EFDCA
:1020D00008BD08B5FFF76CFD08BD08B5FFF7CEFDDC
:1020E00008BD08B5FFF770FD08BD08B5081CFFF76F
:1020F000FFFC012008BD08B5081CFFF7F9FC012012
:1021000008BD10B5081C141C111CFFF745FD201C50
:1021100010BD38B5081C0D1C01F0ECFF041C211C7F
:10212000281CFFF739FD201C38BDFFFF044B00229F
:102130001A711A73FA21034A890099601A6070476C
:10214000A00400209048000008B50B4B1A68002A34
:1021500004D001221A60094B1B689847084B1B7872
:10216000002B08D0074B1A68002A04D001221A60FD
:10217000024B5B68984708BD0C710340B404002013
:10218000B20400201C710340054B01221A60054B6C
:10219000054A19680A401A60044B00221A707047F9
:1021A000007003403C800440FFFF7FFFB20400202A
:1021B00008B5836800221A608021074BC9031960A3
:1021C0004178064B5A541A78002A04D15B78002BC8
:1021D00001D1FFF7D9FF08BD80E100E0B004002085
:1021E000037810B5041C002B01D0FFF7E1FF00239A
:1021F000237010BD70B5061C0D1C0024331919790D
:10220000281C0022013400F017F8042C05D02B689C
:10221000281C1B682E219847F0E7201C70BDFFFF8B
:10222000034A044B08321A6000225A607047C046C5
:10223000E0480000BC040020F0B585B06B460E33CA
:102240008EB2144C0D0C013666436C43A5B2370CAC
:10225000AE19F619250C2C19360CA5196D080A268D
:102260006E43891B30311C1C1970013B002D01D0BD
:10227000291CE5E7211C002A03D01C1C2D224B1E23
:102280001A70036804A9E24352185B68211C98473E
:1022900005B0F0BD3333000010B5041CFFF7A0FFFC
:1022A000201C10BD08B50548002303700449802395
:1022B000044A437301F02EF908BDC046C40400204F
:1022C0009922000000F9FF1F0020704701204042C2
:1022D0007047012040427047704701207047101C32
:1022E0007047FFFF044B00221A711A73FA21034A48
:1022F000890099601A607047D8040020F8480000EF
:10230000024B1A78002A00D11A707047E8040020A6
:10231000F7B54E1D071C301C089D0C1C0192009344
:1023200001F02EF9009ABF232860168047700370D1
:102330002A68A3059B0F93702B68221CDC70286809
:102340000199043001F0B6FB2B6800201C19FB43F7
:102350002371FEBDF0B52D4D85B02B68041C0F1CFC
:10236000002B4ED02A4B1B68002B04D0294A127830
:10237000002A00D19847201C2749052201F0C2FEFF
:10238000002801D1254B0BE0224B201C1A78244950
:1023900001321A70042201F0B5FE002803D1214B4E
:1023A0001A7801321A70204B1E68002E05D0201CAE
:1023B00001F0A0FE211C80B2B047201C032F15D1D4
:1023C00001F098FE6E4603AB0A3681B20093221CE0
:1023D000FF20331CFFF79CFF041E13D130882B68AD
:1023E00003999847039801F0D5F80BE001F082FEBD
:1023F000211C2B6898472B6802200C499847002421
:1024000000E0FF24201C05B0F0BDC04630050020D0
:1024100060050020F8040020104900004805002055
:1024200016490000240500208C0500201B490000EF
:10243000F0B5174E87B003933368071C0D1C141CAE
:10244000002B20D0134B1B68002B00D09847039B18
:10245000032B12D105AB0093221C381C291C023B14
:10246000FFF756FF041E0FD16B46588A0599336853
:102470009847059801F08EF806E0211C3368281C67
:102480009847002400E0FF24201C07B0F0BDC046A0
:102490003005002080050020F8B508AC2778079D9E
:1024A0000224042827D90E78BF2E24D108184E788C
:1024B00001380078F4438446E0B2032484451AD1FD
:1024C00016708A780E1D92101A708B781C40CB788B
:1024D00024021C43069B1C80002F0AD024B2201C1F
:1024E00001F04EF8221C2860311C01F0E3FA0024B0
:1024F00001E02E603C1C201CF8BDF7B500283DD043
:10250000002A3AD0051C00262F1A01979F422EDA86
:102510002C7861277F423F19192F02D82027BC430E
:1025200001E03A2C21D030277F423F19092F0AD9E8
:1025300041277F423F19192F03D900291AD00D6076
:1025400018E0073CE4B2303C01947708F40707D563
:10255000D7190097019C3F783C43009F3C7002E0F4
:10256000019C2401D4550136B6B20135CCE7002BCD
:10257000CED0E2E7019BD8B200E0101CFEBDFFFF09
:1025800007B5002201AB5A70024A18701268181C75
:1025900090470EBDEC040020F7B5061C0A2100117F
:1025A000071C00F055FF0725684330373F180F2000
:1025B00001AC0A2130402770061C00F049FF45435A
:1025C0000023A3703036034B761966701B68201CFD
:1025D0009847FEBDEC0400201FB50A2201A9FEF7B2
:1025E000FCFB034B01A81B68984705B000BDC04623
:1025F000EC040020F0B5C74C9BB0C74B0AAF228853
:10260000F96119880132051C8A4218DBC34E002982
:102610000ED0103189B23068198001F031FBC04B07
:102620001860002802D1012000F054FE306006E05E
:102630004020188000F0A4FF30600028F3D0F96932
:10264000B84E032907D13378002B04D1BF2D02D017
:10265000002000F03FFE2288B04B511C21801968F9
:102660008D5401223270FA69032A08D12088042887
:10267000EED91968CB7805339842E9D102E00A2DEA
:10268000E6D114E0A84B00250093A54B02950193D9
:10269000A64AA74BFFF700FFA84218D02580A34CFD
:1026A00035702570A24C0220257000F013FE9E4A62
:1026B0002188FD6911801A68994B1A609C4B002291
:1026C0001A709A4BFF22012D00D0FE221A70994CED
:1026D0002368002B3DD098489847944D2878FFF701
:1026E0005BFF2168954888478F4E00253088FFF7AB
:1026F00073FF9348226890478B4A1388AB4225D9D1
:10270000874E3368585D031C203B5E2B02D8FFF7D1
:1027100037FF18E0092803D121688A48884712E06A
:102720000A2803D12268884890470CE00D2803D17D
:1027300023688648984706E08548216888473368BB
:10274000585DFFF729FF0135ADB2D5E72368814811
:102750009847764C2378FF2B01D000F07BFD7E4B11
:102760006F4D1B68002B03D06F4A2968108898476B
:102770002C687A49201C032201F0C4FC00281ED1D9
:10278000774B1A78002A01D0013A1A70754A1178ED
:10279000002901D0013911701B78734C002B05D131
:1027A000724B1B68002B01D020789847704B1B6838
:1027B000002B00D098470023237000F05BFD201C05
:1027C0006C49082201F09EFC002814D1637C412B47
:1027D00008D1694D2968002901D100F04BFD201C6A
:1027E0001430BDE2654D2A68002A01D100F042FD97
:1027F000201C1330B4E2201C6149052201F082FC48
:10280000002806D15F4D2B68002B00D0A7E200F016
:1028100031FD201C5C49042201F074FCF8610028A1
:1028200047D15A4E3168002901D100F023FD201C08
:10283000391C0A2208302831B86201F071FDBC6AE7
:10284000C0B20134B8612021201CBC6201F0E6FB5B
:10285000FA69B8620270B86A391C01301022283156
:10286000B86201F05DFD80B27861B86A2B68013012
:102870002D4A1B1A113312889BB2B8629A4211D9A1
:10288000391C3A1C28313032FB69FFF736FEBB6A2F
:1028900035680133BB623B1CB869211C7A6930334F
:1028A00000F093FC3568B869211C7A69FB6900F077
:1028B0008CFC201C3649082201F024FC00286BD136
:1028C000344D2B68002B01D100F0D4FC6A46201C4B
:1028D000391CFA61083030311022386301F020FDD4
:1028E000C6B2C0B20730C008C0006B463A6B1B1AB4
:1028F0009D4601320AAC7300391C3A63DBB2101CEE
:102900003031221CFFF7F9FD2B68301C211C984741
:10291000A4E1C046FA0400203C0500201005002078
:102920004C0500206C05002074050020490500209E
:1029300008050020EC0400201E4900002549000085
:10294000284900002B4900002E49000031490000B1
:10295000344900001B4900002005002037490000D1
:10296000F80400202405002084050020280500200C
:102970002C0500203B490000500500201C050020CC
:1029800044490000680500204A49000088050020ED
:102990004F49000038050020201CD449042201F0D2
:1029A000B1FB002856D123793F2B53D8391C201D69
:1029B00030310A22386301F0B3FCC6B2386B431CD5
:1029C0003B6343784F2B3DD1C94B1A68002A01D194
:1029D00000F050FC391C08306C4630311022BC61CC
:1029E000386301F09DFC3B6BC5B201333B63002DA6
:1029F00001D1C04B1D78EB1DDB086946DB00C91A0D
:102A00008D460AACFC610024AC4203DA386B0378D3
:102A10000D2B07D1B64DE1B22B68301CFA699847EF
:102A2000BC691CE10A2BF5D0202B06D0391C3031B3
:102A3000102201F075FCF96908553B6B0134013334
:102A40003B63E1E7AC4B1B68002B01D100F012FCAB
:102A5000301C8DE1201CA949042201F053FBF861D0
:102A6000002807D1A64E3268002A01D100F002FCEE
:102A7000201D0EE0201CA349072201F043FBF86152
:102A8000002823D1A04E3168002901D100F0F2FBCB
:102A9000E01D391C0A223031386301F041FC3C6BE7
:102AA000B86101342021201C3C6301F0B7FA914B3E
:102AB000421C3A6329681B88FD69CB18023B1D70D4
:102AC000BD693368E8B2211C00F002FC201C8F496C
:102AD000062201F017FB061E40D1A379452B3DD0FD
:102AE0008B4D2968002900D1C4E30634201C3A210B
:102AF0003C6301F093FA38630670386B391C01307F
:102B000030311022386301F00BFC7861386B391CCE
:102B1000013030311022386301F002FC3A6B386129
:102B20000132101C2021FA613A6301F077FA386310
:102B300006703B6B22210233181CBB613B6301F022
:102B40006DFA7A693B6991B29AB2BB6938630670D3
:102B500000932D68201CFB69A8478BE3201C6D495E
:102B6000082201F0CFFAF861002807D16A4E3168D7
:102B7000002900D17EE3201C0C3002E2201C6749B2
:102B8000082201F0BFFA061E34D15A4B1B880C2BC9
:102B900005D8634D2968002900D0E0E06AE3614B65
:102BA0001B68002B00D165E3201C391C3A1C331C28
:102BB000083028313032B862FFF79FFCB86A391C00
:102BC000013028311022B86201F0AAFB041CB86A57
:102BD0000378202B06D1391C013028310A2201F05C
:102BE0009FFBC6B2504B381C72B21B683030211CA0
:102BF00098473FE3201C4D49092201F083FA061E45
:102C00002FD14B4D2A68002A00D133E36946F96180
:102C1000201C391C3A1C103028313032331CB86269
:102C2000FFF76BFC334BB86A1B880530273BDA0F84
:102C3000D3185B100733DB08DB006A46D21A9546CF
:102C40000AAC311C221C331CB862FFF756FC410849
:102C5000381CC9B22B683030221C9847FC69A54645
:102C600008E3201C3349092201F04CFA061E65D105
:102C7000314D2968002900D1FCE2201C391C3A1C86
:102C8000331C103028313032B862FFF736FCB86A96
:102C9000391C013028311022B86201F041FBBC6AB6
:102CA000F861631CBB626178222916D10234201CB2
:102CB000BC6201F0B3F9B8620670B86A391C013021
:102CC00028310A22B86201F02BFB43B2381C2D6870
:102CD0003030F969221CA847CCE2381C2C6830300F
:102CE000F969321C331CA047C4E2C04658490000B1
:102CF0007005002074050020000500205D490000DB
:102D0000FC040020624900000C0500206A49000014
:102D1000A405002071490000040500207A49000044
:102D2000A005002058050020180500208349000058
:102D3000440500208D49000098050020201CD5493D
:102D4000052201F0DFF9061E00D0E4E0D24B1B881B
:102D5000092B0FD8D14D2A68002A00D18AE2601DC4
:102D6000391C30310A22386301F0DAFA2B68C0B21C
:102D700098477FE2CA4B1B68002B00D17AE2391CCE
:102D80000A22601D2831B86201F0CAFABB6AC0B2DB
:102D90000B3378612021181CBB61BB6201F03EF946
:102DA000B8620670B86A391C013028310A22B8624C
:102DB00001F0B6FA80B23861B86A391C01302831A6
:102DC0000A22B86201F0ACFAB86A391C0130283125
:102DD0000A22B86201F0A4FAB86A391C013028311D
:102DE0000A22B86201F09CFAF860B86A391C013016
:102DF00028311022B86201F093FA80B2B860B86A44
:102E0000391C013028311022B86201F089FA80B2F1
:102E10007860B86A391C3A1C331C013028313032D2
:102E2000B862FFF76AFBB86A391C013010222831FA
:102E3000B86201F075FABB6A80B25A1CBA625A785D
:102E400038604F2A04D10A330124BB62FC6106E0DA
:102E5000FE61492A03D10A330225BB62FD61BB6AC8
:102E60001A78412A03D10733BB62012411E0532AA7
:102E700003D10633BB6203240BE0482A03D1053398
:102E8000BB62022405E00024502A02D10533BB6254
:102E90000424BB6A1A784D2A03D10733BB6201268A
:102EA00005E00026532A02D10633BB620226BB6A24
:102EB0001A78502A03D10633BB62012505E00025AC
:102EC000452A02D10A33BB620225391CB86A28316F
:102ED0000A2201F025FABB6AB9685A1CBA6200914D
:102EE0007A6880B201923A1C3032029239680391BA
:102EF000FA69059404920696079508905B78453B1D
:102F00005A4253410993664B78691C68B9693A691A
:102F1000FB68A047AEE1201C6249042201F0F2F8F0
:102F2000061E1FD1E3793A2B1CD15F4D2B68002B75
:102F300000D19FE1391C3A1C331C601D303228310E
:102F4000B862FFF7DAFABC6A22210234201CBC62A4
:102F500001F064F8B8620670381C2B683030211C10
:102F6000984787E1201C5149072201F0CBF8F8610E
:102F7000002833D14E4E3168002900D17AE1201C5F
:102F80000B30391C28311022B86201F0C9F984B223
:102F9000B86A391C3A1C013028313032FB69B862FA
:102FA000FFF7ABFAB96A3C4B0131B9622A681B885A
:102FB000511A033189B2994209D2D318FD69023BF3
:102FC0001D70391C3368201C3031BA6A04E0391C8A
:102FD0003368FA69201C303198474BE1201C354991
:102FE000052201F08FF8F861002825D1324E3168B2
:102FF000002900D13EE1201C391C0B3030310A225F
:10300000386301F08DF9041C386B391C07303031FE
:103010001022386301F084F93B6B2A6801333B636B
:103020001D4BFD691B88E4B2D318023B1D7081B2B1
:103030003368201C3A6B1CE1201C2049022201F05D
:1030400061F8002801D11E4BE9E0201C1D49042233
:1030500001F058F8031E61D10F4A12881F2A35D893
:10306000194D2968002900D104E1391C3A1C601D62
:1030700028313032B862FFF740FABB6A381C5A1C5C
:10308000BA62597830304F394B1E9941C9B22B681A
:103090009847EFE097490000740500209005002054
:1030A000580500209D49000034050020A249000079
:1030B00078050020AA490000F0040020B049000073
:1030C00054050020B34900009C050020834D2A6868
:1030D000002A00D1CEE0391C3A1C601D2431283270
:1030E0007862FFF70AFA786A391C0130243110221D
:1030F000786201F015F9041C786A391C3A1C013019
:103100002431303220237862FFF7F7F9381C3A1C5B
:10311000E1B22B68283030329847ABE0201C704970
:10312000052200F0EFFF002808D16E4B1A78002A24
:1031300002D018706C4B18706C4B70E0201C6C49FE
:10314000042200F0DFFF061E41D16A4D2B68002BE0
:1031500000D18FE0391C601D28310A22B86201F0CD
:10316000DFF8C0B2F861B86A391C3A1C0130331C70
:1031700028313032B862FFF7C0F9BB6A5C1CBC6210
:103180005B78201C532B0AD1202100F047FF391C0B
:10319000B86206702D68F8693031321C14E0391CB1
:1031A0001022283101F0BCF8BC6AB861013420213A
:1031B000201CBC6200F032FFB969B86206708AB2A6
:1031C0002D68391CF8693031231CA84752E0201CB7
:1031D0004949042200F096FF002815D1474B1A6890
:1031E000002A47D02379422B02D1E51D01265FE05A
:1031F000432B03D1251C0C35022659E0502B39D125
:10320000251C0C35032653E0201C3D49032200F009
:1032100079FF002808D13B4B01221A703A4B1B68FA
:10322000002B27D0984725E0384B1B78002B21D066
:10323000374B19681A1C00291CD0364B19886418A2
:10324000023C0021217018882968023880B2136876
:1032500098470FE0304B1A68002A0BD02F4A2D49AF
:103260001568088800242C542D4C09882078126891
:103270001B6898472B4B00241C80294B1C702A4B41
:103280001C702A4B1C702A4B1A88402A01D8FFF761
:10329000DFF9284D40212868198000F0F1FC1F4B10
:1032A0001860A04201D1FFF7BEF92860FFF7D0F9FE
:1032B000184B20211B88281CE418A31E00241C7016
:1032C00000F0ACFE04700D4C421C2368301C291C1D
:1032D0009847CFE7BD4611B0F0BDC0469405002029
:1032E000B849000048050020F804002040050020EF
:1032F000BE4900005C050020C349000064050020B1
:10330000C849000084050020F404002024050020A2
:1033100014050020740500207C0500204C050020C9
:1033200049050020FA040020080500206C05002053
:103330003C05002010050020154B80221968D2039F
:103340000A431A60134B5022DA7000229A701B78DD
:10335000114B1B78D90703D4902189000F4A02E052
:1033600080210F4A8900116080229200990701D4C0
:103370000C4900E00C490A605A0703D490229200DD
:103380000A4B02E080220A4B92001A607047C04646
:1033900034800440006007407C04002018B00440E2
:1033A00008C004401CB004400CC0044014B00440E9
:1033B00004C00440002934D00123002210B4884204
:1033C0002CD301242407A14204D2814202D2090154
:1033D0001B01F8E7E400A14204D2814202D2490075
:1033E0005B00F8E7884201D3401A1A434C08A04218
:1033F00002D3001B5C0822438C08A04202D3001BAE
:103400009C082243CC08A04202D3001BDC082243C4
:10341000002803D01B0901D00909E3E7101C10BCE8
:103420007047002801D00020C04307B4024802A121
:103430004018029003BDC046D90000000029F0D01A
:1034400003B5FFF7B9FF0EBC4243891A1847C046BF
:10345000002941D010B4041C4C40A4460123002292
:10346000002900D54942002800D5404288422CD38B
:1034700001242407A14204D2814202D209011B0186
:10348000F8E7E400A14204D2814202D249005B0085
:10349000F8E7884201D3401A1A434C08A04202D3ED
:1034A000001B5C0822438C08A04202D3001B9C082E
:1034B0002243CC08A04202D3001BDC082243002890
:1034C00003D01B0901D00909E3E7101C6446002C56
:1034D00000D5404210BC7047002806D003DB002016
:1034E000C043400801E08020000607B4024802A162
:1034F0004018029003BDC046190000000029EBD01F
:1035000003B5FFF7A7FF0EBC4243891A1847C04610
:103510007047C04608B5031C081C191C00F002F8CF
:1035200008BDC04638B5051C0C1C131C291C221CE8
:10353000022000F003FF38BD70B50D4E0D4D002484
:10354000AD1BAD1005D0A300F35801349847A54238
:10355000F9D101F0EFFA084E084D0024AD1BAD1073
:1035600005D0A300F35801349847A542F9D170BDA6
:10357000404B0000404B0000404B0000644B0000FB
:1035800008B5034B011C186800F00EF808BDC046D2
:1035900040FEFF1F08B5034B011C186800F0AAFF8E
:1035A00008BDC04640FEFF1FF0B5564644465F4684
:1035B0004D46F0B40C1C0B3483B0061C162C2BD9D2
:1035C00007239C432BD4A14229D8301C00F054FB84
:1035D000F823FF339C4226D8E208CA4DD300EB18EB
:1035E000DF689F4200D1BBE178680323FA68B968BD
:1035F00098433B18CA609160596801220A43301C05
:103600005A6000F03BFB381C083003B03CBC9046CD
:103610009946A246AB46F0BD1024A142D5D90C2351
:1036200033600020F1E7630A00D18EE0042B00D95B
:103630003DE1A30938339C465900B24D8900691811
:10364000CF68B94215D07A6803239A43101B0F281C
:1036500000DD8DE000287CDA032007E07A688243F1
:10366000131B0F2B00DD83E0002B72DAFF68B942D9
:10367000F4D1012294442B1C2F6908339F4200D1BE
:1036800063E1786803229043021C011B0F2900DDCF
:103690004AE16B612B6100295FDA9B4B984200D9AC
:1036A0000FE1C3089A100121DB00EB189140686814
:1036B0000A1C99680243FB60B9606A609F60CF6032
:1036C00061468B1001219940914255D811420DD18C
:1036D000032360469843031C043349009C4611426F
:1036E00004D1042349009C441142FAD003208046AF
:1036F0006246D3005B199A46181CE146C768B84277
:1037000007D124E1002B00DB33E1FF68B84200D190
:103710001DE17A6843469A43131B0F2BF2DD01210A
:103720003A190C437C60F868BC680835E0601943BE
:103730008460EA60AA60301CD56095605160D35007
:1037400000F09CFA381C08305FE73F227E21944647
:1037500073E7FB68B968CB609960BA1851680123B8
:103760000B43301C536000F089FA381C08304CE7DA
:103770000120404284447CE7AF6803237868984383
:103780008146A04203D3031B0F2B00DD81E05F4A7B
:103790005F4B49461B68106879180191E3189346FE
:1037A000013000D147E15B495B181B0B1B03009301
:1037B000301C009900F020FC021C804601325DD0D4
:1037C000019B834200D9EBE053480099026882468E
:1037D0008B1801990360414500D135E15A461268C2
:1037E000013200D143E1019841460A1A9B18514623
:1037F0000B6007234246134000D104E1D21A08327D
:103800009046464AD31A0098021C42441205120DF3
:103810009A1A111C301C934600F0EEFB411C00D19B
:1038200021E14246801A5844012318435246116848
:103830000B1C5B444146A96013604860AF4213D043
:103840004A460F2A00D8E9E04A46786807210C3A30
:103850008A4301210140114379600520B91848606D
:1038600088600F2A00D906E12D4A1068834200D9EA
:1038700013602C4A11688B4200D91360AF68032390
:103880007A689A43131B944200D9AEE00F2B00DCF8
:10389000ABE00122211C11433C1913437960301C19
:1038A000AC60636000F0EAF9381C0830ADE6142B18
:1038B0006ED9542B00D99DE0230B6E339C465900E2
:1038C000BBE6430A042B67D9142B00D9B6E0191CB8
:1038D0005B3148008000401983688146834200D1F3
:1038E00094E0032188465968404681438A4202D2C7
:1038F0009B689945F7D1D9686A68F960BB608F60A9
:10390000DF60DDE644FEFF1FFF01000050020020E3
:10391000B80500200F100000BC05002008100000B2
:10392000B4050020B005002001203A1904430843E3
:103930007C606A612A615060D3609360301C515092
:1039400000F09CF9381C08305FE66A68B8E601228E
:10395000914443464A460830134200D0CEE62CE05C
:103960003B1C7F69023208339446BB4200D182E699
:103970003AE6BA185068012303435360FB68BA68FB
:10398000301CD3609A6000F079F9381C08303CE6AE
:103990005B339C46590050E681093831480099E76D
:1039A000AF4200D06AE70FE753461868012252423F
:1039B000083B94448246984277D14346604603428E
:1039C000F2D16B688B436B604900994200D9D3E612
:1039D000002900D1D0E6CC46194200D088E6042266
:1039E000490094441942FAD082E6301C00F046F9AE
:1039F00000200AE6AA225200934214D8E30B773340
:103A00009C46590019E680235B01FCE68910686832
:103A100001228A4002436A60191C6EE701234B6051
:103A2000474600222EE7224A934218D8A30C7C3343
:103A30009C46590001E610330093B9E6542B22D876
:103A4000010B6E31480045E70A0500D0C6E6009933
:103A5000AA68081C484401210143516004E77E2301
:103A6000FC219C46E9E5002301209B46DEE6434617
:103A700058460360BDE6391C0831301C00F03AFDA1
:103A800051460B68F0E6AA2149008B4203D8C10BCE
:103A9000773148001EE706498B4203D8810C7C3100
:103AA000480017E7FC207E2114E76B688CE7C046CE
:103AB00054050000F0B50F2A35D9031C0B439C07B1
:103AC00035D1161C103E36093501451910350C1C30
:103AD000031C27681F6067685F60A7689F60E768CE
:103AE0001034DF601033AB42F3D1731C1B01C518D7
:103AF000C9180F231340032B1BD91C1FA408013422
:103B0000A4000023CE58EE500433A342FAD1ED189E
:103B1000C91803231A4005D00023CC5CEC540133B0
:103B20009342FAD1F0BD051C002AF5D1FAE7051C35
:103B3000F2E71A1CF8E7C046F0B588420ED98D1896
:103B4000A8420BD28618531E5142002A05D06A188B
:103B5000D45C7218D454013BF9D2F0BD0F2A09D8B5
:103B6000051C002AF9D00023CC5CEC5401339342AD
:103B7000FAD1F2E7031C0B439C072AD1171C103F14
:103B80003F093E01861910360C1C031C25681D6078
:103B900065685D60A5689D60E5681034DD60103380
:103BA000B342F3D17D1C2D010F2349191340451950
:103BB000032B10D91E1FB6080136B6000023CC58BF
:103BC000EC500433B342FAD10324ED18C918224053
:103BD000C7E7051CC7E71A1CC3E7C046F0B5830753
:103BE00046D0541E002A42D0CEB2031C032503E067
:103BF000621E002C3BD0141C01335A1E16702B423F
:103C0000F6D1032C2BD9FF250D402A0215432A0497
:103C100015430F2C15D9271C103F3F091E1C3A01D4
:103C20001036B6181A1C156055609560D5601032B4
:103C3000B242F8D101373F010F22DB191440032CA7
:103C40000DD9271FBF08BA001E1DB6181A1C20C2A6
:103C5000B242FCD10137BF000322DB191440002C13
:103C600005D01C19C9B219700133A342FBD1F0BDB4
:103C7000141C031CC5E7C0467047C0467047C046C9
:103C800008B50A1C0349031C0868191C00F004F855
:103C900008BDC04640FEFF1FF0B54D4644465F4696
:103CA0005646F0B4804685B00D1C914600D1DDE04B
:103CB0002E1C083EFFF7E0FF73684F4603221C1CD2
:103CC0000B37B3469443162F00D976E010200190AD
:103CD0001027B94500D975E0019A944256DAC548D3
:103CE000321980680390904200D1C3E05168081CEB
:103CF0008A460121884384469444614648680121EC
:103D0000084264D000200022D90700D586E033683D
:103D10000321F31A8C4659689A46634699438C46A8
:103D2000002A00D1DFE003998A4200D1DEE061463B
:103D30000B190199C018039088426ADBD368926816
:103D4000D3609A605246D36892685646D3609A60B0
:103D5000221F0836242A00D9BBE0331C132A0AD9B3
:103D60002B68504683606968C1601B2A00D905E151
:103D70005346103308352A6851461A606868039C18
:103D80005860AD68D3469D604B68351CE21B0F2A16
:103D90002CD8012213402343584643605C44616899
:103DA0000A4362604046FFF769FF281C05B03CBC2F
:103DB00090469946A246AB46F0BD0722974301972D
:103DC00000D486E70C2341460B600020EEE7032079
:103DD00051468143081C09198C4601998C4593DB97
:103DE000D16892686446D1608A60CFE75846C119AD
:103DF000012003401F435B465F60131C03438A1886
:103E00004B605368083118435060404600F072FB25
:103E1000C8E7039303980199884293DA49464046DC
:103E2000FFF7C2FB8146002800D1D5E07368021C71
:103E30000121181C8843083A3618B24200D198E094
:103E4000221F242A40D8132A22D84B462A1C106845
:103E500018605168596092689A604046291C00F0C9
:103E600049FB4046FFF70AFF48469FE7111CFFF752
:103E70009BFB9BE7039A52680292029803229043AD
:103E80003A1C011910328C4691420CDA039A3BE736
:103E900029684B461960686858601B2A5ED82A1C3E
:103EA00008330832D3E7534BF21960469A60C11BBE
:103EB000012319435160716840460B401F437760EE
:103EC000FFF7DCFE281C71E74846291CFFF734FE8B
:103ED000C3E7291C301CFFF72FFE52465368351CE0
:103EE000039CD34652E70B19039393E762461319D9
:103EF0003A1CC0181032039090428ADB5046826808
:103F0000C3685646D3609A60221F0836242A53D8C5
:103F1000331C132A08D9296881606B68C3601B2A87
:103F20004FD85346103308352868186069685960BF
:103F3000AD689D605346DA19039B2E48D91B0123B7
:103F400019438260516050464068514603401F4308
:103F500040464F60FFF792FE301C27E7A9684B46AA
:103F60009960E868D860242A13D02A1C10331032D4
:103F70006DE7526803218A43A41807E7AB685046EF
:103F80000361E9684161242A0DD053461833103586
:103F9000F1E629692A1C196168694B4649461833BC
:103FA0001832486153E72A6953468261686951466D
:103FB0002033C8611835DEE6301C291CFFF7BCFD34
:103FC000B8E7A86851460861EB684B61242A08D01D
:103FD000534618331035A7E74046FFF74FFE002041
:103FE000E4E62869514688616A6953462033CA610C
:103FF000183599E744FEFF1F38B5074C0023051C10
:10400000081C2360FCF78EFE431C00D038BD2368DB
:10401000002BFBD02B60F9E7E4050020CAB2F0B515
:10402000002A3DD083070ED00378002B5BD09A4244
:1040300035D0032404E00378002B54D09A422ED0CC
:1040400001302042F7D1FF2319400B0219430B0422
:1040500019430368254E1C1C4C40A519A5432C1C74
:104060009D199D432B1C224E234333420DD1043016
:1040700003681E4F0C1C5C40E519A5432C1CDD1980
:104080009D432B1C23433342F1D00378002B04D1F2
:1040900029E001300378002B25D09A42F9D1F0BDF8
:1040A00084070AD00378002BF9D0032202E00378BA
:1040B000002BF4D001301042F9D103680B4E0C49AB
:1040C0009A199A430A4206D104300368074FDA1955
:1040D0009A430A42F8D00378002BE0D001300378ED
:1040E000002BFBD1DBE70020D9E7C046FFFEFEFE38
:1040F000808080800023C25C0133002AFBD1581EDF
:104100007047C04670B5051C0020002A2CD02B1C1F
:104110000B439C0729D1032A27D92C680E68B44287
:1041200023D1131F002B1FD0224EA219224EA243CF
:1041300032420ED018E06A6849688A422ED1043BA8
:10414000002B10D01B4D5119914331420BD1211C32
:10415000051C281D0C1D032BEDD85A1E002B21D049
:10416000211C051C02E0002070BD013A2C78087863
:1041700084421BD1002AF6D0002CF4D06B1C0131F4
:10418000AD1805E0AB42EED0002CECD0013301318C
:104190001C780A789442F5D0A01AE5E75A1E211C33
:1041A000051CE3E72C790A79A01ADDE7021CA01AA6
:1041B000DAE7C046FFFEFEFE80808080F0B55646FE
:1041C00044465F464D46F0B49846544B87B0049140
:1041D0001E6805900B1C9246082100E02B1C1C78E1
:1041E0005D1C321952781142F8D12D2C00D178E0A3
:1041F000002202922B2C00D178E0102341469943F3
:10420000C14609D1302C00D173E04146002900D0CD
:1042100081E00A2291469046029980274B424B4109
:104220003F06FF1A381C4946FFF708F9381C03916E
:104230004946FFF7BFF8032104238B464146021C81
:10424000002700209C4601910EE0019B303CA342D8
:104250001BDD791C06D090422ED82AD0494648430F
:10426000012720182C78013533195B7861461942F3
:10427000EBD159460B4008D057218846012B1ED060
:10428000019B4146641AA342E3DC02997A1C19D0CF
:10429000002924D15246002A04D0002F1DD1049DAC
:1042A00053461D6007B03CBC90469946A246AB46BB
:1042B000F0BD039B9C42D1DD01277F42D2E737232B
:1042C0009846DDE780204B424B410006059AC01A14
:1042D000222313605346002BE4D0013DE0E7404227
:1042E000D8E701219D1C5C78029186E79D1C5C78D3
:1042F00083E72B7820229343582B06D04146002990
:1043000009D108218946884686E710226C789146B3
:104310000235904680E7C1467EE7C0465402002041
:1043200038B5131C044A051C0C1C1068291C221CDF
:10433000FFF744FF38BDC04640FEFF1FF0B54F46B3
:104340004646C0B498462B4BA4251B686D005C59AB
:1043500083B0061C0F1C91460193002C44D0656865
:104360001F2D1ADD244B002B02D1012040421CE0FE
:10437000C8204000FFF704F9041EF6D00025456070
:10438000A42301985B00C05801992060CC50C4233D
:104390005B00E550C6235B00E550002E0AD16B1C84
:1043A0000235AD00636000202F5103B00CBC904675
:1043B0009946F0BDAB00E318882248469850C420C7
:1043C0004000221810680121A9400843106084228F
:1043D000520040469850022EE1D1C6225200A31846
:1043E000186801431960DAE71C1C4D34FF345C5136
:1043F000B5E7C0462C4A00008135000008B5034BE4
:10440000002B02D0024800F005F808BD00000000B3
:104410002544000008B5011C002200200023FFF7FE
:104420008DFF08BD38B5094B094DED1AAD1009D007
:10443000013DAC00E41800E0013D23689847043CCE
:10444000002DF9D100F08EFB38BDC0460000000001
:1044500000000000F8B50F1C041CFFF70DFC204DF8
:10446000204AAB685E6803239E43F71BBF183F0BCF
:104470001D4B013F3F039F4207DD201C0021FFF73A
:10448000BBFDAA689319984204D0201CFFF7F6FBE5
:104490000020F8BD7942201CFFF7AEFD01300DD0A1
:1044A000AB68F61B012216435E60104B201C1A6895
:1044B000D71B1F60FFF7E2FB0120EAE7201C002169
:1044C000FFF79AFDAB68C21A0F2ADEDD08490968BA
:1044D000401A0649086001210A435A60D5E7C046E0
:1044E00044FEFF1FEF0F0000FF0F0000BC0500207F
:1044F00050020020F0B5474680B4051C0C1E55D074
:10450000FFF7BAFB211C083948680127031CBB438D
:10451000CA185468804603208443201C534CA66864
:10452000964260D00026B4464646506037420AD1D3
:104530000E68271C891B9B198E680837BE426BD0FA
:10454000CF68F760BE601618766801273E4207D133
:104550001B18604600282CD09068D268C26090601A
:104560000122181C104366464860CB50002E1AD119
:104570003F48834229D95A0A042A50D89E0938361E
:10458000700080002018826882424ED00326546852
:10459000B443A34202D292689042F8D1D368CB6070
:1045A0008A609960D160281CFFF768FB04BC9046C4
:1045B000F0BD90682F4EB042CFD11F43C1608160E3
:1045C000C86088604F60CB50EDE7DB0898108240F0
:1045D0006068DB0002436260E418A368CC608B6013
:1045E000A160D960DFE7C3184046074206D10A68D8
:1045F000891A88689B18CA68C260906001221A43B1
:104600004A601D4AA16012689342CCD31B4B281C00
:104610001968FFF71FFFC6E70126B44693E7142A7F
:104620000CD8161C5B367000ABE7B6100123B34004
:104630001E1C63681E436660131CB0E7542A03D82F
:104640001E0B6E3670009CE7AA204000824203D801
:10465000DE0B7736700094E70948824203D89E0C3F
:104660007C3670008DE7FC207E268AE744FEFF1F23
:10467000FF0100004CFEFF1F4C020020B805002087
:10468000540500000006FF02FFFFFF044C4953548D
:1046900000FFFFFF420000F840A0044001000000BE
:1046A000420000F844A0044002000000C00000F8EE
:1046B00000C0044001000000000000F80490044025
:1046C00002000000000000F8089004400400000010
:1046D000C00000F81CC0044080000000C00000F8CA
:1046E00010C0044010000000C00000F808C00440E2
:1046F00004000000C00000F80CC0044008000000E6
:10470000800000F80CB0044008000000800000F8B1
:1047100010B0044010000000800000F818B0044001
:1047200040000000800000F81CB004408000000041
:10473000800000F814B0044020000000C00000F821
:1047400004C0044002000000800000F800B00440F3
:1047500001000000400000F800A00440010000003B
:10476000400000F804A0044002000000400000F8EF
:104770000CA0044008000000400000F808A004401D
:1047800004000000C00000F814C004402000000035
:10479000C00000F818C0044040000000800000F88D
:1047A00004B0044002000000800000F808B004409B
:1047B00004000000020100F850D004401000000086
:1047C000020100F854D0044020000000030100F86A
:1047D00078D004404000000000000000000000000D
:1047E0009B1E0000B31E00006B1E00007B1E00001D
:1047F000731E0000831E0000011E0000191E000031
:10480000391E0000411E00004B1E00005B1E000010
:104810008B1E0000931E0000D11D0000DD1D000056
:10482000E91D0000F51D0000C31E0000A71E0000CA
:104830000000000000000000C31F0000DB1F00009C
:10484000931F0000A31F00009B1F0000AB1F000070
:10485000291F0000411F0000611F0000691F0000A8
:10486000731F0000831F0000B31F0000BB1F000068
:10487000F91E0000051F0000111F00001D1F000091
:10488000EB1F0000CF1F0000000000000000000030
:10489000EB20000003210000BB200000CB20000023
:1048A000C3200000D3200000512000006920000038
:1048B00089200000912000009B200000AB20000018
:1048C000DB200000E3200000212000002D2000005C
:1048D000392000004520000013210000F7200000CF
:1048E0000000000000000000F521000000000000B2
:1048F0000000000000000000DB220000DF220000BA
:10490000C9220000CD220000D3220000D9220000DD
:10491000524553455400494E464F000D0A003C3D58
:1049200020525820002C20003A09005C74005C6E74
:10493000005C72005C78004F4B2E004132445020E6
:104940005354520043414C4C2000434F4E4E0048BC
:1049500049442047455420004849442000484650D7
:1049600020004846502D414720004944454E5420E0
:10497000004944454E5420455200494E5155495234
:10498000592000494E51554952595F4500494E51F1
:10499000554952595F50004C49535420004E414DE7
:1049A00045004E414D45204552004E4F20434100A9
:1049B0004F4B005041495200524541445900524921
:1049C0004E4700534554200053594E000200040046
:1049D000060008000A000C000E0010001400180069
:1049E0001C0020002800300038004000500060000B
:1049F00070008000A000C000E000000140018001C4
:104A0000C00100028002000300102030405060709E
:104A100041516171425262724353637344546474EE
:104A2000455565754656FFFF4300000018FAFF1F05
:104A3000002020202020202020202828282828206E
:104A40002020202020202020202020202020202066
:104A500020881010101010101010101010101010CE
:104A600010040404040404040404041010101010BE
:104A70001010414141414141010101010101010188
:104A800001010101010101010101010110101010DA
:104A9000101042424242424202020202020202025A
:104AA00002020202020202020202020210101010AE
:104AB00020000000000000000000000000000000D6
:104AC00000000000000000000000000000000000E6
:104AD00000000000000000000000000000000000D6
:104AE00000000000000000000000000000000000C6
:104AF00000000000000000000000000000000000B6
:104B000000000000000000000000000000000000A5
:104B10000000000000000000000000000000000095
:104B20000000000000000000000000000000000085
:104B300000000000F8B5C046F8BC08BC9E467047AF
:104B4000FD43000039040000110C0000DD1E0000D0
:104B5000052000002D21000021220000A5220000D8
:044B6000E52200004A
:044B6400F8B5C0469A
:104B68000000000003000000F049020001005EBCE4
:104B7800E2613FDD83C29C7E20A3FD1F419DC321CE
:104B88007FFCA2401E5F01E3BD3E6082DC237D9F67
:104B9800C1421CFEA0E1BF5D0380DE3C62BEE002B4
:104BA8005CDF81633D7C22C09E1D43A1FF4618FA4D
:104BB800A427799BC584DA3866E5BB5907DB856786
:104BC80039BAE406581947A5FB7826C49A653BD933
:104BD80087045AB8E6A7F91B45C6987A24F8A6446C
:104BE8001A99C7257B3A6486D85B05E7B98CD23019
:104BF8006EEDB3510F4E10F2AC2F7193CD114FAD36
:104C0800F3702ECC92D38D6F31B2EC0E50AFF113FE
:104C18004DCE90722C6D33D18F0C52B0EE326C8E1B
:104C2800D0530DEFB1F0AE4C1291CF2D73CA9476DC
:104C380028ABF517490856B4EA6937D58B5709EBFD
:104C4800B536688AD495CB2977F4AA4816E9B755BA
:104C58000B88D6346A2B7597C94A14F6A8742AC8E3
:104C680096154BA9F7B6E80A54D7896B350A04009C
:104C7800E8050020000000000000000004FDFF1F00
:104C88006CFDFF1FD4FDFF1F0000000000000000A6
:104C9800000000000000000000000000000000000C
:104CA800000000000000000000000000284A00008A
:104CB80000000000000000000000000000000000EC
:104CC80000000000000000000000000000000000DC
:104CD80000000000000000000000000000000000CC
:104CE80000000000000000000000000000000000BC
:104CF80000000000000000000000000000000000AC
:104D0800000000000000000000000000000000009B
:104D1800000000000000000000000000000000008B
:104D280001000000000000000E33CDAB34126DE628
:104D3800ECDE05000B000000000000000000000091
:104D4800000000000000000000000000000000005B
:104D5800000000000000000000000000000000004B
:104D6800000000000000000000000000000000003B
:104D7800000000000000000000000000000000002B
:1050A80018FAFF1F000000000000000044FEFF1F68
:1050B80044FEFF1F4CFEFF1F4CFEFF1F54FEFF1F48
:1050C80054FEFF1F5CFEFF1F5CFEFF1F64FEFF1FF8
:1050D80064FEFF1F6CFEFF1F6CFEFF1F74FEFF1FA8
:1050E80074FEFF1F7CFEFF1F7CFEFF1F84FEFF1F58
:1050F80084FEFF1F8CFEFF1F8CFEFF1F94FEFF1F08
:1051080094FEFF1F9CFEFF1F9CFEFF1FA4FEFF1FB7
:10511800A4FEFF1FACFEFF1FACFEFF1FB4FEFF1F67
:10512800B4FEFF1FBCFEFF1FBCFEFF1FC4FEFF1F17
:10513800C4FEFF1FCCFEFF1FCCFEFF1FD4FEFF1FC7
:10514800D4FEFF1FDCFEFF1FDCFEFF1FE4FEFF1F77
:10515800E4FEFF1FECFEFF1FECFEFF1FF4FEFF1F27
:10516800F4FEFF1FFCFEFF1FFCFEFF1F04FFFF1FD6
:1051780004FFFF1F0CFFFF1F0CFFFF1F14FFFF1F83
:1051880014FFFF1F1CFFFF1F1CFFFF1F24FFFF1F33
:1051980024FFFF1F2CFFFF1F2CFFFF1F34FFFF1FE3
:1051A80034FFFF1F3CFFFF1F3CFFFF1F44FFFF1F93
:1051B80044FFFF1F4CFFFF1F4CFFFF1F54FFFF1F43
:1051C80054FFFF1F5CFFFF1F5CFFFF1F64FFFF1FF3
:1051D80064FFFF1F6CFFFF1F6CFFFF1F74FFFF1FA3
:1051E80074FFFF1F7CFFFF1F7CFFFF1F84FFFF1F53
:1051F80084FFFF1F8CFFFF1F8CFFFF1F94FFFF1F03
:1052080094FFFF1F9CFFFF1F9CFFFF1FA4FFFF1FB2
:10521800A4FFFF1FACFFFF1FACFFFF1FB4FFFF1F62
:10522800B4FFFF1FBCFFFF1FBCFFFF1FC4FFFF1F12
:10523800C4FFFF1FCCFFFF1FCCFFFF1FD4FFFF1FC2
:10524800D4FFFF1FDCFFFF1FDCFFFF1FE4FFFF1F72
:10525800E4FFFF1FECFFFF1FECFFFF1FF4FFFF1F22
:10526800F4FFFF1FFCFFFF1FFCFFFF1F04000020CF
:10527800040000200C0000200C0000201400002076
:10528800140000201C0000201C0000202400002026
:10529800240000202C0000202C00002034000020D6
:1052A800340000203C0000203C0000204400002086
:1052B800440000204C0000204C0000205400002036
:1052C800540000205C0000205C00002064000020E6
:1052D800640000206C0000206C0000207400002096
:1052E800740000207C0000207C0000208400002046
:1052F800840000208C0000208C00002094000020F6
:10530800940000209C0000209C000020A4000020A5
:10531800A4000020AC000020AC000020B400002055
:10532800B4000020BC000020BC000020C400002005
:10533800C4000020CC000020CC000020D4000020B5
:10534800D4000020DC000020DC000020E400002065
:10535800E4000020EC000020EC000020F400002015
:10536800F4000020FC000020FC00002004010020C4
:10537800040100200C0100200C0100201401002071
:10538800140100201C0100201C0100202401002021
:10539800240100202C0100202C01002034010020D1
:1053A800340100203C0100203C0100204401002081
:1053B800440100204C0100204C0100205401002031
:1053C800540100205C0100205C01002064010020E1
:1053D800640100206C0100206C0100207401002091
:1053E800740100207C0100207C0100208401002041
:1053F800840100208C0100208C01002094010020F1
:10540800940100209C0100209C010020A4010020A0
:10541800A4010020AC010020AC010020B401002050
:10542800B4010020BC010020BC010020C401002000
:10543800C4010020CC010020CC010020D4010020B0
:10544800D4010020DC010020DC010020E401002060
:10545800E4010020EC010020EC010020F401002010
:10546800F4010020FC010020FC01002004020020BF
:10547800040200200C0200200C020020140200206C
:10548800140200201C0200201C020020240200201C
:10549800240200202C0200202C02002034020020CC
:1054A800340200203C0200203C02002000000200E0
:0854B800FFFFFFFF304A000076
:00000001FF
