:1000000000180020C10000001D390000E938000080
:10001000E9380000E9380000E9380000E93800005C
:10002000E9380000E9380000E93800001D39000017
:100030001D390000E93800001D390000D9380000E2
:100040001D3900001D3900001D3900001D39000058
:100050001D3900001D3900001D3900001D39000048
:100060001D3900001D3900001D3900001D39000038
:100070000D300000BD350000712300001D39000067
:100080001D3900001D3900001D3900001D39000018
:100090001D3900001D390000153B00001D3900000E
:1000A000C52500001D3900001D3900001D39000064
:1000B0001D390000F13C00001D3900001D39000011
:1000C00038B503F02FFC454A454B1A60454A464B6C
:1000D0001A60464A464B1A60464B0822197811426C
:1000E00002D019780A431A70434B2A221A7000234F
:1000F000424A43499A188A4204D24249C9580433B1
:100100001160F5E7404B41491A1F181D00238A4230
:1001100002D21360031CF6E73D493E4A5958101CB1
:1001200099500433C02BF7D100239A083A49920022
:10013000521803211940C9001568FF248C40A543BB
:100140002C1C80258D40291C214301331160202B5C
:10015000EBD1324B8A221860314B1A70314B24227A
:100160005A70A0221A709A799107FCD59A79D5060F
:10017000FCD498790C212B4A01400829F9D103219C
:100180001171402151719A799106FCD59A795506E1
:10019000FCD5254AC02189051160224A2021117011
:1001A00099790C220A400C2AFAD1204A204B1A6075
:1001B000204A214B1A60214B00221A60204B072253
:1001C0001A60204A204B1A6062B603F0E7FA04F086
:1001D0002FF803F0ADFB01F0DFFEFEE7300004F086
:1001E00034800440823F0000388004400100000F4A
:1001F0003C80044002D0074000E00740C0000020DF
:10020000540B0020C84F0000580B00203C0F00206A
:100210000000000000F9FF1F00E400E008ED00E02E
:10022000005006400040064044800440C0000505E0
:1002300004800440BF5D000014E000E018E000E02E
:1002400010E000E00000202020ED00E0FFFFFFFFB5
:10025000FFFFFFFFFFFFFFFFFFFFFFFFFFFFFFFFAE
:10026000FFFFFFFFFFFFFFFFFFFFFFFFFFFFFFFF9E
:10027000FFFFFFFFFFFFFFFFFFFFFFFFFFFFFFFF8E
:10028000FFFFFFFFFFFFFFFFFFFFFFFFFFFFFFFF7E
:10029000FFFFFFFFFFFFFFFFFFFFFFFFFFFFFFFF6E
:1002A000FFFFFFFFFFFFFFFFFFFFFFFFFFFFFFFF5E
:1002B000FFFFFFFFFFFFFFFFFFFFFFFFFFFFFFFF4E
:1002C000FFFFFFFFFFFFFFFFFFFFFFFFFFFFFFFF3E
:1002D000FFFFFFFFFFFFFFFFFFFFFFFFFFFFFFFF2E
:1002E000FFFFFFFFFFFFFFFFFFFFFFFFFFFFFFFF1E
:1002F000FFFFFFFFFFFFFFFFFFFFFFFFFFFFFFFF0E
:10030000FFFFFFFFFFFFFFFFFFFFFFFFFFFFFFFFFD
:10031000FFFFFFFFFFFFFFFFFFFFFFFFFFFFFFFFED
:10032000FFFFFFFFFFFFFFFFFFFFFFFFFFFFFFFFDD
:10033000FFFFFFFFFFFFFFFFFFFFFFFFFFFFFFFFCD
:10034000FFFFFFFFFFFFFFFFFFFFFFFFFFFFFFFFBD
:10035000FFFFFFFFFFFFFFFFFFFFFFFFFFFFFFFFAD
:10036000FFFFFFFFFFFFFFFFFFFFFFFFFFFFFFFF9D
:10037000FFFFFFFFFFFFFFFFFFFFFFFFFFFFFFFF8D
:10038000FFFFFFFFFFFFFFFFFFFFFFFFFFFFFFFF7D
:10039000FFFFFFFFFFFFFFFFFFFFFFFFFFFFFFFF6D
:1003A000FFFFFFFFFFFFFFFFFFFFFFFFFFFFFFFF5D
:1003B000FFFFFFFFFFFFFFFFFFFFFFFFFFFFFFFF4D
:1003C000FFFFFFFFFFFFFFFFFFFFFFFFFFFFFFFF3D
:1003D000FFFFFFFFFFFFFFFFFFFFFFFFFFFFFFFF2D
:1003E000FFFFFFFFFFFFFFFFFFFFFFFFFFFFFFFF1D
:1003F000FFFFFFFFFFFFFFFFFFFFFFFFFFFFFFFF0D
:10040000FFFFFFFFFFFFFFFFFFFFFFFFFEFFFFFFFD
:1004100010B5064C2378002B07D1054B002B02D0DA
:10042000044800E000BF0123237010BD540B0020DE
:1004300000000000C84F000008B5084B002B03D097
:100440000748084900E000BF07480368002B03D0B5
:10045000064B002B00D0984708BDC04600000000A6
:10046000C84F0000580B0020540B00200000000073
:100470000139C9B208B5572900D9AAE0554B4F290F
:100480000DD9503901208840011C002A03D09A7AE6
:100490001143997297E09A7A82439A7293E001200D
:1004A00047290CD948398840011C002A03D05A7AC0
:1004B0001143597287E05A7A82435A7283E03F2986
:1004C0000CD940398840011C002A03D01A7A114304
:1004D000197278E01A7A82431A7274E037290CD9BB
:1004E00038398840011C002A03D0DA791143D971C8
:1004F00069E0DA798243DA7165E02F290CD9303965
:100500008840011C002A03D09A79114399715AE05E
:100510009A7982439A7156E027290CD92839884064
:10052000011C002A03D05A79114359714BE05A79C2
:1005300082435A7147E01F290CD920398840011C99
:10054000002A03D01A79114319713CE01A798243C9
:100550001A7138E017290CD918398840011C002A73
:1005600003D0DA781143D9702DE0DA788243DA705B
:1005700029E00F290CD910398840011C002A03D02A
:100580009A78114399701EE09A7882439A701AE023
:1005900007290DD9083901208840011C002A03D001
:1005A0005A78114359700EE05A7882435A700AE023
:1005B0008840011C002A03D01A781143197002E008
:1005C0001A7882431A70044B1B78002B01D102F079
:1005D000C5FD08BD180F0020880E0020084A10B580
:1005E000C300041C1068C01801F0E6FC021C501E79
:1005F0008241D2B20348211CFFF73AFF10BDC0462A
:10060000A00B0020890E002070B58023181A094B1A
:100610000D1C094A19787F35D072161C1C1C002944
:1006200001D102F09BFD23783573002B01D102F03C
:1006300095FD70BD880E0020180F002070B5094B85
:10064000094A0D1C19785073161C1C1C002901D175
:1006500002F084FD2378B573002B01D102F07EFDFA
:1006600070BDC046880E0020180F002008B58142DA
:1006700000D2011C044B5973044B1B78002B01D191
:1006800002F06CFD08BDC046180F0020880E002047
:1006900010B50C1CC1B20E4801F08EFC002C05D028
:1006A0000238C0B20E2808D80A4B04E00138C0B2A4
:1006B000072802D8084B1B5601E001235B42074A7A
:1006C000D373074B1B78002B01D102F047FD10BDFF
:1006D000E80B00203C4C00004B4C0000180F0020A1
:1006E000880E002008B5064BC0B25870054B5877ED
:1006F000054B1B78002B01D102F030FD08BDC04630
:10070000A50B0020180F0020880E002010B5002037
:10071000FFF7E8FF0020011CFFF776FF0020011C17
:10072000FFF7B6FF0020011CFFF788FF0124E0B2AD
:1007300000210134FFF752FF262CF8D1014BFF2294
:100740001A7010BDC4000020F8B501F0F5FB0224BA
:10075000E0B20221013402F0C3FF0A2CF8D11A489A
:10076000322101F027FC194C1E2120680125883018
:1007700001F020FC20681E21903001F01BFC144B7E
:1007800000241D70FFF7C2FF124F0021381C2122E8
:1007900004F044F8104E114B301C1C705C70211C8E
:1007A000212204F03BF8A5233B7033700C4B1C70E6
:1007B0000C4B1D7002F0B4FF0B4B18600B4B1A680A
:1007C0000B4B1A60F8BDC046E80B0020A00B0020C0
:1007D000880E0020A50B0020C70B0020F00B002086
:1007E000950B0020C60B0020700B0020680E002027
:1007F000F40B002038B59378141C012B32D1D37838
:10080000022B20D101F082FA032801D1204D04E00F
:10081000204B214D5B78092B0ED111236B70207971
:1008200001F04FFBA870607901F04BFBE870A079F4
:1008300001F047FB287126E02379AB706379EB70F8
:10084000A3792B711FE0032B1DD1134B5A78042A77
:1008500019D0104A5278092A15D02279DA716279B2
:100860001A7210E0082B0ED10B4B5A78042A0AD0CA
:10087000084A5278092A06D0E278217912020A43FE
:100880005A71120A9A71054B1A68054B1A6038BDE5
:10089000C70B0020740B0020A50B0020680E002061
:1008A000F40B0020E84BF7B51B78002B01D101F0C9
:1008B00036F9E64C0021201C02F088FC81B20029A8
:1008C00003D00120221CFFF795FF01F01FFA041E40
:1008D000022C01D100F0B5FC032801D100F050FD3D
:1008E000012801D001F002F9D94DDA4821220F2662
:1008F000291C467201F024FA6878FFF7F3FE687944
:10090000A979FFF781FEA978201CC909FFF766FEC7
:10091000A978022089092140FFF760FEA978032009
:1009200049092140FFF75AFEA9780420090921400E
:10093000FFF754FEE9780520C909FFF74FFEE97873
:10094000062089092140FFF749FEE9780720490977
:100950002140FFF743FEE978092089082140FFF78D
:100960003DFE29790B20C9082140FFF737FE297980
:100970000C2089082140FFF731FEE978301CC908B6
:100980002140FFF72BFEE97810202140FFF726FEDB
:10099000EB79B14E33706B78092B29D0E9780820B8
:1009A00009092140FFF71AFEE9780A204908214089
:1009B000FFF714FE29790D2049082140FFF70EFEAC
:1009C00029790E2049092140FFF708FE00217156C0
:1009D000112001314B425941C9B2FFF7FFFD0021FF
:1009E0007156122001394B425941C9B2FFF7F6FD49
:1009F0006B7802229343042B6ED1297A0124C90813
:100A000021401320FFF7EAFD297A1420090921402B
:100A1000FFF7E4FD297A152049092140FFF7DEFDA3
:100A2000A97A16202140FFF7D9FDA97A1720E140C5
:100A30002140FFF7D3FDA97A182089082140FFF74C
:100A4000CDFDA97A1920C9082140FFF7C7FDA97A71
:100A50001A2009092140FFF7C1FDA97A1B20490985
:100A60002140FFF7BBFDA97A1C2089092140FFF72F
:100A7000B5FDA97A1D20C909FFF7B0FDE97A1E204E
:100A80002140FFF7ABFDE97A1F20E1402140FFF74D
:100A9000A5FDE97A202089082140FFF79FFDE97A2A
:100AA0002120C9082140FFF799FDE97A2220090990
:100AB0002140FFF793FDE97A232049092140FFF700
:100AC0008DFDE97A242089092140FFF787FDE97A25
:100AD0002520C909FFF782FD6B78062B05D1697ABD
:100AE00026200907C90FFFF779FDA8780F242040B9
:100AF0000021FFF7CDFD6B78092B00D09EE3EB784A
:100B00000021DA0605D5E97BA14310394B42594152
:100B1000C9B20820FFF762FD2B7900217F2B06D98F
:100B2000E97B0F23994310394B425941C9B2132035
:100B3000FFF754FDEB7800219A0706D5E97B0F23D8
:100B4000994310394B425941C9B20A20FFF746FD7B
:100B50002B7900215A0606D5E97B0F2399431039DA
:100B60004B425941C9B21420FFF738FDEB78002100
:100B7000DA0606D5E97B0F23994320394B425941C8
:100B8000C9B22120FFF72AFD2B7900217F2B06D93E
:100B9000E97B0F23994320394B425941C9B22220A6
:100BA000FFF71CFDEB7800219A0706D5E97B0F23A0
:100BB000994320394B425941C9B22320FFF70EFD1A
:100BC0002B7900215A0606D5E97B0F23994320395A
:100BD0004B425941C9B22420FFF700FDEB780021B8
:100BE000DA0606D5E97B0F23994330394B42594148
:100BF000C9B22520FFF7F2FC2B7900217F2B06D903
:100C0000E97B0F23994330394B425941C9B2262021
:100C1000FFF7E4FCEB7800219A0706D5E97B0F2368
:100C2000994330394B425941C9B22720FFF7D6FCCE
:100C30002B7900215A0611D5E97B0F2399433039CE
:100C40004B425941C9B209E0C60B0020960B002067
:100C5000740B0020A50B0020A40B00202820FFF718
:100C6000BDFCEB780021DA0606D5E97B0F2399431A
:100C700040394B425941C9B22920FFF7AFFC2B79CB
:100C800000217F2B06D9E97B0F23994340394B4242
:100C90005941C9B22A20FFF7A1FCEB7800219A073D
:100CA00006D5E97B0F23994340394B425941C9B2DC
:100CB0002B20FFF793FC2B7900215A0606D5E97B00
:100CC0000F23994340394B425941C9B22C20FFF7B9
:100CD00085FCEB780021DA0606D5E97B0F239943E2
:100CE00050394B425941C9B22D20FFF777FC2B797F
:100CF00000217F2B06D9E97B0F23994350394B42C2
:100D00005941C9B22E20FFF769FCEB7800219A0700
:100D100006D5E97B0F23994350394B425941C9B25B
:100D20002F20FFF75BFC2B7900215A0606D5E97BC3
:100D30000F23994350394B425941C9B23020FFF734
:100D40004DFCEB780021DA0606D5E97B0F239943A9
:100D500060394B425941C9B23120FFF73FFC2B7932
:100D600000217F2B06D9E97B0F23994360394B4241
:100D70005941C9B23220FFF731FCEB7800219A07C4
:100D800006D5E97B0F23994360394B425941C9B2DB
:100D90003320FFF723FC2B7900215A0606D5E97B87
:100DA0000F23994360394B425941C9B23420FFF7B0
:100DB00015FCEB780021DA0606D5E97B0F23994371
:100DC00070394B425941C9B23520FFF707FC2B79E6
:100DD00000217F2B06D9E97B0F23994370394B42C1
:100DE0005941C9B23620FFF7F9FBEB7800219A0789
:100DF00006D5E97B0F23994370394B425941C9B25B
:100E00003720FFF7EBFBB74C002123795A0606D5B4
:100E1000E17B0F23994370394B425941C9B23820C5
:100E2000FFF7DCFBE3780021DA0606D5E17B0F2330
:100E3000994380394B425941C9B23920FFF7CEFB63
:100E4000237900217F2B06D9E17B0F239943803939
:100E50004B425941C9B23A20FFF7C0FBE378002169
:100E60009A0706D5E17B0F23994380394B425941BC
:100E7000C9B23B20FFF7B2FB237900215A0606D501
:100E8000E17B0F23994380394B425941C9B23C2041
:100E9000FFF7A4FBE3780021DA0606D5E17B0F23F8
:100EA000994390394B425941C9B23D20FFF796FB17
:100EB000237900217F2B06D9E17B0F2399439039B9
:100EC0004B425941C9B23E20FFF788FBE37800212D
:100ED0009A0706D5E17B0F23994390394B4259413C
:100EE000C9B23F20FFF77AFB237900215A0606D5C5
:100EF000E17B0F23994390394B425941C9B24020BD
:100F0000FFF76CFBE3780021DA0606D5E17B0F23BF
:100F10009943A0394B425941C9B24120FFF75EFBCA
:100F2000237900217F2B06D9E17B0F239943A03938
:100F30004B425941C9B24220FFF750FBE3780021F0
:100F40009A0706D5E17B0F239943A0394B425941BB
:100F5000C9B24320FFF742FB237900215A0606D588
:100F6000E17B0F239943A0394B425941C9B2442038
:100F7000FFF734FBE3780021DA0606D5E17B0F2387
:100F80009943B0394B425941C9B24520FFF726FB7E
:100F9000237900217F2B06D9E17B0F239943B039B8
:100FA0004B425941C9B24620FFF718FBE3780021B4
:100FB0009A0706D5E17B0F239943B0394B4259413B
:100FC000C9B24720FFF70AFB237900215A0606D54C
:100FD000E17B0F239943B0394B425941C9B24820B4
:100FE000FFF7FCFAE3780021DA0606D5E17B0F2350
:100FF0009943C0394B425941C9B24920FFF7EEFA33
:10100000237900217F2B06D9E17B0F239943C03937
:101010004B425941C9B24A20FFF7E0FAE378002178
:101020009A0706D5E17B0F239943C0394B425941BA
:10103000C9B24B20FFF7D2FA237900215A0606D510
:10104000E17B0F239943C0394B425941C9B24C202F
:10105000FFF7C4FA21790E208907C90FFFF7BEFAFE
:10106000A27B0F231340204D022B0FD16379002B5D
:101070000CD11E4A00231178EB56CB18FF2B00DD54
:10108000FF23D943C9170B4013700CE029781120B6
:10109000C909FFF7A3FA0023EB561220D917CB1A80
:1010A000D90FFFF79BFAA27B0F2313406079012B26
:1010B00011D0022B1CD1FF252B1C8343181C0B4B7A
:1010C00000211B782A1C00930B1C02F0E7FCA3797B
:1010D000291C994302E0A179C043C943FFF7C6FA2E
:1010E0000BE0C046740B0020A40B0020C4000020BD
:1010F000A179C043C943FFF7A1FAE27B0F23134054
:101100000021012B03D12279191C5209914315208A
:10111000FFF764FAE27B0F2313400021022B03D177
:10112000237901215B0999431620FFF757FAE27BE7
:101130000F2313400021032B03D1237901215B09E5
:1011400099431720FFF74AFAE27B0F23134000214F
:10115000042B03D1237901215B0999431820FFF760
:101160003DFAE27B0F2313400021052B03D12379A5
:1011700001215B0999431920FFF730FAE27B0F2325
:1011800013400021062B03D1237901215B099943E8
:101190001A20FFF723FAE27B0F2313400021072BCD
:1011A00003D1237901215B0999431B20FFF716FA2C
:1011B000E27B0F2313400021082B03D12379012167
:1011C0005B0999431C20FFF709FA694CE27B0F2366
:1011D00013400021092B03D1237901215B09994395
:1011E0001D20FFF7FBF9E27B0F23134000210A2BA0
:1011F00003D1237901215B0999431E20FFF7EEF902
:10120000E27B0F23134000210B2B03D12379012113
:101210005B0999431F20FFF7E1F9E27B0F2313409D
:1012200000210C2B03D1237901215B099943202054
:10123000FFF7D4F90020011CFFF7E6F9022400F0C3
:101240005CFC4C4D4C4F291C0023221C381C00F028
:10125000A5FD0720FFF746FA484A0126907800F0DE
:1012600005FE221C3870291C381C412300F096FD15
:1012700028781E2318400121FFF70AFA29780D204B
:101280003140FFF7ABF93D4BD87800F0EFFD231C60
:10129000221C3870291C381C00F080FD29780B2096
:1012A0003140FFF79BF92978052089083140FFF785
:1012B00095F929780E20C9083140FFF78FF9297870
:1012C000062009093140FFF789F92C4A107900F00E
:1012D000CDFD221C44233870291C381C00F05EFD13
:1012E00029780F203140FFF779F929780920F1405A
:1012F0003140FFF773F929780A2089083140FFF758
:101300006DF929780820C9083140FFF767F9297875
:10131000072009093140FFF761F9184A907953799C
:101320000002184300F0B6FD221C08233870291C67
:10133000381C00F033FD297810203140FFF74EF9BA
:101340002978301CF1403140FFF748F92978201CFA
:1013500089083140FFF742F929780320C908314054
:10136000FFF73CF9297804200909314060E7C046BD
:10137000740B0020F80B0020F00B0020A50B0020C0
:10138000DB4DDC482122291C0F26467200F040FD6F
:101390006878FFF7A7F9A87800213040FFF778F9BF
:1013A000A9780120C909FFF719F9A9780127890946
:1013B00039400220FFF712F9A978201C4909394069
:1013C000FFF70CF9A978042009093940FFF706F95D
:1013D000E9780520C909FFF701F9E97806208909AC
:1013E0003940FFF7FBF8E978072049093940FFF752
:1013F000F5F8E978092089083940FFF7EFF8EB782C
:101400002C1C0021DA0605D5E97BB14310394B428B
:101410005941C9B20820FFF7E1F8237900217F2B59
:1014200006D9E17B0F23994310394B425941C9B288
:101430001320FFF7D3F8E37800219A0706D5E17B64
:101440000F23994310394B425941C9B20A20FFF783
:10145000C5F8237900215A0606D5E17B0F2399436D
:1014600010394B425941C9B21420FFF7B7F8E3785D
:101470000021DA0606D5E17B0F23994320394B4240
:101480005941C9B22120FFF7A9F8237900217F2B08
:1014900006D9E17B0F23994320394B425941C9B208
:1014A0002220FFF79BF8E37800219A0706D5E17B1D
:1014B0000F23994320394B425941C9B22320FFF7EA
:1014C0008DF8237900215A0606D5E17B0F23994335
:1014D00020394B425941C9B22420FFF77FF8E37805
:1014E0000021DA0606D5E17B0F23994330394B42C0
:1014F0005941C9B22520FFF771F8237900217F2BCC
:1015000006D9E17B0F23994330394B425941C9B287
:101510002620FFF763F8E37800219A0706D5E17BE0
:101520000F23994330394B425941C9B22720FFF765
:1015300055F8237900215A0606D5E17B0F239943FC
:1015400030394B425941C9B22820FFF747F8E378B8
:101550000021DA0606D5E17B0F23994340394B423F
:101560005941C9B22920FFF739F8237900217F2B8F
:1015700006D9E17B0F23994340394B425941C9B207
:101580002A20FFF72BF8E37800219A0706D5E17BA4
:101590000F23994340394B425941C9B22B20FFF7E1
:1015A0001DF8237900215A0606D5E17B0F239943C4
:1015B00040394B425941C9B22C20FFF70FF8E3786C
:1015C0000021DA0606D5E17B0F23994350394B42BF
:1015D0005941C9B22D20FFF701F8237900217F2B53
:1015E00006D9E17B0F23994350394B425941C9B287
:1015F0002E20FEF7F3FFE37800219A0706D5E17B62
:101600000F23994350394B425941C9B22F20FEF75D
:10161000E5FF237900215A0606D5E17B0F23994384
:1016200050394B425941C9B23020FEF7D7FFE37819
:101630000021DA0606D5E17B0F23994360394B423E
:101640005941C9B23120FEF7C9FF237900217F2B10
:1016500006D9E17B0F23994360394B425941C9B206
:101660003220FEF7BBFFE37800219A0706D5E17B25
:101670000F23994360394B425941C9B23320FEF7D9
:10168000ADFF237900215A0606D5E17B0F2399434C
:1016900060394B425941C9B23420FEF79FFFE378CD
:1016A0000021DA0606D5E17B0F23994370394B42BE
:1016B0005941C9B23520FEF791FF237900217F2BD4
:1016C00006D9E17B0F23994370394B425941C9B286
:1016D0003620FEF783FFE37800219A070CD5E17BE3
:1016E0000F23994370394B425941C9B204E0C046B7
:1016F000FA0B0020C70B00203720FEF76FFF23797D
:1017000000215A0606D5E17B0F23994370394B42DD
:101710005941C9B23820FEF761FFE3780021DA06AB
:1017200006D5E17B0F23994380394B425941C9B219
:101730003920FEF753FF237900217F2B06D9E17B67
:101740000F23994380394B425941C9B23A20FEF7E1
:1017500045FFE37800219A0706D5E17B0F239943E3
:1017600080394B425941C9B23B20FEF737FFDC4C70
:10177000002123795A0606D5E17B0F23994380394E
:101780004B425941C9B23C20FEF728FFE3780021C3
:10179000DA0606D5E17B0F23994390394B42594134
:1017A000C9B23D20FEF71AFF237900217F2B06D90D
:1017B000E17B0F23994390394B425941C9B23E20F6
:1017C000FEF70CFFE37800219A0706D5E17B0F2393
:1017D000994390394B425941C9B23F20FEF7FEFE72
:1017E000237900215A0606D5E17B0F2399439039CE
:1017F0004B425941C9B24020FEF7F0FEE378002188
:10180000DA0606D5E17B0F239943A0394B425941B3
:10181000C9B24120FEF7E2FE237900217F2B06D9D1
:10182000E17B0F239943A0394B425941C9B2422071
:10183000FEF7D4FEE37800219A0706D5E17B0F235B
:101840009943A0394B425941C9B24320FEF7C6FE25
:10185000237900215A0606D5E17B0F239943A0394D
:101860004B425941C9B24420FEF7B8FEE37800214B
:10187000DA0606D5E17B0F239943B0394B42594133
:10188000C9B24520FEF7AAFE237900217F2B06D995
:10189000E17B0F239943B0394B425941C9B24620ED
:1018A000FEF79CFEE37800219A0706D5E17B0F2323
:1018B0009943B0394B425941C9B24720FEF78EFED9
:1018C000237900215A0606D5E17B0F239943B039CD
:1018D0004B425941C9B24820FEF780FEE37800210F
:1018E000DA0606D5E17B0F239943C0394B425941B3
:1018F000C9B24920FEF772FE237900217F2B06D959
:10190000E17B0F239943C0394B425941C9B24A2068
:10191000FEF764FEE37800219A0706D5E17B0F23EA
:101920009943C0394B425941C9B24B20FEF756FE8C
:10193000237900215A0606D5E17B0F239943C0394C
:101940004B425941C9B24C20FEF748FE217901258E
:10195000890829400C20FEF741FE21790E20E9403C
:101960002940FEF73BFEE1780F20C9082940FEF729
:1019700035FEE17810202940FEF730FE594AE37920
:101980000F211370A07B151C014002290ED1627932
:10199000002A0BD1544A5BB21178C918FF2900DD27
:1019A000FF21CB43DB17194011700BE0D90911203F
:1019B000FEF714FE0023EB561220D917CB1AD90FCD
:1019C000FEF70CFEA27B0F2313406079012B11D090
:1019D000022B15D1FF252B1C8343181C424B0021E1
:1019E0001B782A1C00930B1C02F058F8A379291CC1
:1019F000994302E0A179C043C943FEF737FE04E0F2
:101A0000A179C043C943FEF719FEE27B0F231340BF
:101A10000021012B03D12279191C52099143152071
:101A2000FEF7DCFDE27B0F2313400021022B03D1E4
:101A3000237901215B0999431620FEF7CFFDE27B54
:101A40000F2313400021032B03D1237901215B09CC
:101A500099431720FEF7C2FDE27B0F2313400021BC
:101A6000042B03D1237901215B0999431820FEF748
:101A7000B5FDE27B0F2313400021052B03D1237911
:101A800001215B0999431920FEF7A8FDE27B0F2392
:101A900013400021062B03D1237901215B099943CF
:101AA0001A20FEF79BFDE27B0F2313400021072B3A
:101AB00003D1237901215B0999431B20FEF78EFD99
:101AC000E27B0F2313400021082B03D1237901214E
:101AD0005B0999431C20FEF781FDFFF777FBC046A9
:101AE000FA0B0020A40B0020C4000020FEF70EFE1D
:101AF0000A2001F039FEFFF7A1FB201C01F0DEFDFA
:101B0000231C4B33DBB2414241410134C9B2181CA2
:101B1000E4B2FEF763FD0A2CEFD101F01FFBF7BD25
:101B2000B22070B5800002F0DFF8B2239B00051CE4
:101B3000041CC618201C083400F036FAB442F9D14F
:101B4000024B03481D6000F02FFA70BDA00B00206F
:101B5000E80B002010B5084C2368002B08D072B6A3
:101B6000064B24681A682240054C22601A6062B64F
:101B7000044BD870597010BDD80E002080E100E0F1
:101B8000DC0E002000600740F7B50E1C051C542138
:101B9000580700D450210820034200D00143002AF6
:101BA00001D10123194329700024124F12483A5DD4
:101BB0006300C15A1148019202F0A8FA0E4F864202
:101BC00003D3019A00246A7006E001341E2CECD184
:101BD000F7E701341E2C09D0064B09481B5D019321
:101BE0006300F95A02F092FA8642F2D30198A87083
:101BF000F7BDC0466C4F0000304F000000366E014C
:101C0000006CDC0210B5041CFFF7BEFF201C10BDE9
:101C1000044B98711A7852B2002AFBDA014B98797A
:101C2000C0B2704700600740044B1B68002B03D014
:101C3000034B1A68034B1A607047C046D80E002049
:101C4000DC0E002000E100E0031CFF20002907D08B
:101C50001A7801395040034A0133105CC9B2F5E7E4
:101C60007047C046C5000020F8B50226254B1878FD
:101C70005978FFF76FFF0A20002101F0FFFC224B8B
:101C80001B68DB0001D0013BFDD10020FFF7C0FF46
:101C9000041E522C07D120250020013DFFF7B8FF7C
:101CA000002DF9D120E0E0281ED000281CD02327E9
:101CB00000250020FFF7ACFFA52D03D109280ED188
:101CC0001F2404E0522D0AD1842808D1F8E700200F
:101CD000013CFFF79DFF002CF9D12C1C04E0013FD3
:101CE000002F01D0051CE4E70A20012101F0C6FC09
:101CF000FFF79AFF5023013BFDD1013E002EB5D1E5
:101D0000201CF8BD1C0C0020D001002038B50B4C65
:101D10002578002D0FD1FFF7A7FFA52808D0E028D0
:101D200003D00123522805D100E00223237002E0F2
:101D30000323FBE72570207838BDC0461B0C00202C
:101D4000F8B50E1C511EC9B2171C051CFFF77CFF0D
:101D50006B1CD8770F4B002418785978FFF7FAFEE0
:101D60000A20002101F08AFCBC4205DA285DFFF759
:101D70004FFF30550134F7E70A20012101F07EFCC6
:101D8000FFF752FF3378A52B02D0034B00221A70C5
:101D9000F8BDC0461F0C00201B0C0020F7B5061C28
:101DA0000F1C019243700225164B18785978FFF7E3
:101DB000D1FE0A20002101F061FC134B1B68DB00FF
:101DC00001D1002402E0013BFDD1FAE7019B9C42D6
:101DD00005DA305DFFF71CFF38550134F6E70A20BD
:101DE0000121013D01F04AFCFFF71EFF002DDBD170
:101DF0007378002B04D13B78E02B01D0034B1D708E
:101E0000F7BDC0461C0C0020D00100201B0C002098
:101E1000F8B50E1C511EC9B2171C051CFFF714FFA4
:101E20006B1CD8770F4B002418785978FFF792FE77
:101E30000A20002101F022FCBC4205DA285DFFF7F0
:101E4000E7FE30550134F7E70A20012101F016FCC6
:101E5000FFF7EAFE3378A52B02D0034B00221A705D
:101E6000F8BDC0461C0C00201B0C002010B5002340
:101E70001A1CC143194101242140054C1C5D01334A
:101E8000A1400A43D2B2082BF3D1101C10BDC046AA
:101E9000C5010020C0225200EF23104200D1FF23D1
:101EA0006022104200D0AF231822104200D0BF237E
:101EB0000622104200D0FE23C20700D5AE23181C14
:101EC0007047031E502B31D0502812D80F2831D024
:101ED00006D80120062B2ED0072083422BD027E0E6
:101EE0003F281BD003204F2B25D02820392B1FD172
:101EF00021E06D2816D008D85B2811D00420662B6D
:101F000019D04E20542B13D115E07D280CD0082079
:101F10007F2B10D009206F2B0AD10CE000200AE0A3
:101F2000022008E0052006E0062004E0522002E03E
:101F30000A2000E02920704713B50A20012101F092
:101F4000CFFB01AC0A20012101F098FB02F03EF822
:101F5000201C044901220023FFF754FE6278024B43
:101F60005A7013BD00093D000060074010B5074CD2
:101F70000122211C00230648FFF744FE211C0122F8
:101F800004230448FFF73EFE10BDC046001BB70007
:101F90001C0C00201F0C002008B5FEF7D5FBFEF737
:101FA00081FC01F0E3FEFAE7002332220360828025
:101FB000837170478180704710B583798B4209D057
:101FC000054B02681C68A41A8288944202D31B68DD
:101FD00081710360807910BD680E0020164B80224D
:101FE000196852010A431A60144A00231370144AF4
:101FF00014491370144A1370144A1370144A13705E
:10200000144A1160144AD12189001160134AC10495
:10201000C90EC0B21170507093702C23D370104B46
:10202000104A19680A408021C9030A431A600E4BFE
:102030008022D2011A607047348004408D0C002049
:10204000230C002013030000940C00208E0C0020B1
:10205000220C002008C004400CC0044000C0064010
:102060000CE400E0FFFF00FF00E100E010B5124BC0
:10207000132299789143032202400A43410701D574
:1020800010210A439A700F220B490240042A03D1FF
:102090008A79402422438A715A7910218A4308425E
:1020A00000D00A435A719A7910218A43840600D5D8
:1020B0000A439A7110BDC04600C0064008B50E4BD9
:1020C0001B68DA0417D50D4B1B78DBB2002B02D04E
:1020D00001F04CFEF7E70A4A8021C9011160094A64
:1020E0000949D3700422FF320A6008490A60084A8D
:1020F0001370084A137008BD34800440220C00207D
:1021000080E100E000C0064008C004400CC004406C
:102110008D0C0020230C002038B5041C0B4B1D78BF
:10212000EDB2002DFAD1201C012101F0D9FA291CB1
:10213000201C01F0A3FA0C225443054B054AE15838
:102140001C191160044B227A1A7038BD220C002031
:10215000544C0000900C00208C0C00200B4B0022F3
:102160001B68D90410D50A4B022809D1094AC0219D
:10217000890011605A7B08210A435A73012203E047
:10218000597B082081435973101C704734800440E8
:1021900000C0064000C004400A4B021C1B6800201F
:1021A000D9040ED5084B0E2A07D1084AC021890050
:1021B00011605A7B0120024302E05A7B01218A43CD
:1021C0005A7370473480044000C0064004C0044085
:1021D000F8B5214B071C1B68DA043BD51F4B1B6865
:1021E000002B02D01E4A12781A711E4E002334783A
:1021F00027220134A2425B415B421C401A4D2B78DE
:10220000A3421CD101F09EFB402813DC174A13792E
:102210005BB2002BF2DA2B780021013327209842A1
:10222000494149420B401249C95CDBB2C9B2D17184
:102230002B70E3E7FF28E1DD01F098FDDEE70C4BB2
:10224000FFB21F550B4B01221A70084BE4B2AC22AF
:102250003470DA70F8BDC04634800440900C002021
:102260008C0C0020940C00208E0C002000C0064036
:10227000240C0020220C002038B5041C4518AC4268
:1022800004D02078FFF7A4FF0134F8E738BDFFFF42
:1022900008B5044B1B78002B02D001F067FDF8E76E
:1022A00008BDC046220C0020064B074A1B78107858
:1022B000DBB2C0B2834201D3273000E00138C01A3C
:1022C0007047C046940C00208E0C0020054B1878F7
:1022D000054BC0B21B78DBB2984200D24030C01A26
:1022E0007047C0468D0C0020230C00200A4B0B4A7F
:1022F00019781378DBB299420BD001333F200021CB
:102300009842494149420B400549C85CDBB2137011
:1023100001E00120404270478D0C0020230C00207A
:102320004C0C00200A4B1A780A4B1B78DBB29A42FD
:102330000AD0013300223F219942524152421340B8
:10234000054AD05CC0B201E0012040427047C0465F
:102350008D0C0020230C00204C0C0020024B1A781E
:10236000024BD2B21A707047230C00208D0C002053
:1023700030B5254A1379990612D52449D4790B78BA
:10238000002001333F259D42404140420340204808
:10239000E4B20078834203D01E48C454DBB20B7011
:1023A000D178194CC9B24BB2002B1ADA23795BB23F
:1023B000002B16DA184B19481D780378DBB29D42C2
:1023C00002D16C23E3700CE00133002427259D42E9
:1023D000644164422340124CE45CDBB2E4B2D47149
:1023E0000370402319420ED0117919420BD00D4BC6
:1023F000002119700C4B1B688B4202D00B490978E5
:1024000019722C23D37030BD00C006408D0C002003
:10241000230C00204C0C0020940C00208E0C00207B
:10242000240C0020220C0020900C00208C0C00209A
:10243000F0B50B4F02223B780A4E1A43D2000A4DE8
:10244000B418606028788824002800D0C8240904C3
:102450000C43B45001225040534028703B70F0BDF3
:10246000F00C002000F8FF1F580D0020431E10B58F
:10247000012B0FD872B6084A99008858002807D057
:1024800044685B008C50054A01889C5A611A995235
:1024900062B600E0002010BDE80C0020140F002000
:1024A000431E0020012B09D872B6054A9B009B5899
:1024B000002B02D001305B68FAE762B67047C04675
:1024C000340D002010B572B61A4B1A78191C1A4B2D
:1024D000140706D5194A146A002C13D0926A002AF0
:1024E00018D04A7808210A4206D0144A146C002CED
:1024F00009D0926C002A0FD062B600221A7001F047
:102500006BFA15E004210D4AC900083054186060C8
:102510000B4808E0052100E00921084AC9000830FD
:1025200054186060074888501A78013A1A7062B6E9
:1025300010BDC046984D00004E0D002000F8FF1F52
:1025400088004000C8004000421E10B5012A30D863
:10255000022380001843174BC0001B1872B6164C9C
:10256000A05C032809D801F06FFD1402160508339A
:10257000022011E0083304200EE0104892001458A5
:102580000F4B002C01D1115001E098584160995037
:102590000EE0032000E00520A0540A1C08325A6017
:1025A0008822180700D5C822098809040A431A603E
:1025B00062B610BD00F8FF1FA40C0020340D0020EF
:1025C0003C0D0020F7B5B9480378011CDBB25A076F
:1025D00011D5B74A1278002A0AD0B6480278D2B28A
:1025E000002A05D0013AD2B20270002A00D100BE02
:1025F000AE4D04222A7008251A1C2A4000D11FE281
:10260000AD4BAE4C1B78DBB29A081E09D200002EEF
:1026100000D0A8E1A21817685168B806000F013869
:102620000C2800D99CE101F019FD750175019B0191
:102630009B019B019B019B019B0178019B019B01DD
:102640009B010D000B689E4D49689E4869609E493C
:102650009E4F1160012200262B6002709BB2A020C9
:102660003E602661A661C000834200D1F4E015D827
:10267000822B00D1A9E007D8802B00D0E8E0944C51
:10268000267066700226E8E081225200934200D153
:10269000ABE0904A934200D1B7E0D9E0882109012C
:1026A0008B4200D18BE009D88B481B18012B00D935
:1026B000CEE0834D894B6A88A988BBE09022120145
:1026C000934200D0C4E07E4D794BAA781A70A319CA
:1026D0001F6A3F0603D5586A083801F07DF90836AD
:1026E000402EF4D100252E1C7D4FE859002805D03E
:1026F0004168019101F070F90198F7E77851794B41
:10270000794FE850E859002805D04268019201F05D
:1027100063F90198F7E7754B754AE8507300D0529A
:10272000744B7851F05C0238032807D801F08CFC18
:1027300002040204002200E001229A550136043509
:10274000022ED1D16C4F00233B7001256B4BEA1850
:102750006B4B9200EB18013B1B781370180720D5C8
:1027600001F01CF96B01002805D0E2180830506018
:10277000644AE25003E0E0503B7801333B7001F0E3
:102780000DF90122AB001343DB00002805D04E49B0
:10279000E21808305060E15003E0E0503B7801332C
:1027A0003B70AB0002221A43D2000026A65003223F
:1027B000134393400135E6509542C7D14CE03C4B62
:1027C000434C1B78161C237047E03D4DAB88022B11
:1027D0003ED83F4C4C4F9B0026706670DB191B782F
:1027E0000226334239D0227037E0354D7F23AA8844
:1027F0001340022B2CDC6E88002E29D1424F9B0007
:10280000DB191A7802218A430EE02D4D7F23AA8816
:102810001340022B1CDC6E88002E19D13A4F9B000E
:10282000DB191A7802210A431A7015E018889042C1
:1028300004D00C335C68002CF8D109E05888884239
:10284000F7D1120A032A01D1267806E01E8904E096
:102850002D4B0F221A7025E0341C194FFB889E4225
:1028600000D91E1C371E402F00D94027201C391CC0
:10287000FFF7DEFDE419F61B03D1351C402F04D011
:1028800010E04025B54200D9351C201C291CFFF75B
:10289000CFFD6419761B01D1402D03D10B4D1B4B8D
:1028A0002C601E8001221A4B59E0C0468020074050
:1028B000570D0020F10C00209020074000F8FF1F6A
:1028C000440D0020580D0020C8004000980C002046
:1028D0004F0D00200203000080F9FFFF9C4D000017
:1028E000E80C00209C0C0020340D00203C0D002042
:1028F000140F0020A40C00204E0D002030C8011041
:10290000984D000088004000C02007404C0D00207A
:1029100094200740664B136022E0664F3D68002D0F
:1029200013D065480688341E402C00D94024211C51
:10293000281CFFF77DFD361B5F49B6B20E80002EC6
:1029400001D1402C00D12E193E605C4BA022198889
:10295000D200914204D100225A709A78584B1A70D2
:102960000122584B60E0A4186068013E0838F6B2B6
:102970002B4036D001F030F85349B0004258534B49
:10298000002A1BD055684550111C985D08316160C4
:1029900003280BD801F058FB02040608032104E0C9
:1029A000022102E0052100E0042199558823270730
:1029B00000D5C8231288120413433CE0985D032815
:1029C00008D801F041FB39390204002200E001225D
:1029D0009A5531E02C40624262410324A41A9C556E
:1029E0002AE062880280002A20D0394D438043606B
:1029F000B3005F593749002F01D1585101E0CD583C
:102A00006860C850344B7600F15A5218F25200F008
:102A1000C5FF002804D00830606020070AD507E011
:102A20002E4B20601A7801321A7005E02C4201D03A
:102A30001F4B00E02A4B23602A4908230B70C2E594
:102A4000012423421ED01F4802230370264B244D2D
:102A50001A70264B264E1D609D60264D1A61DD6062
:102A60009A615E60244B0D251D70244DFF232B7051
:102A70000B7013490A70224A1370224B9F221A705E
:102A8000047013E05AB2002A04DA1B4A0D201070B9
:102A900080220A700222134204D018480478E4B25B
:102AA00004700A701022134200D00A70F7BDC046AD
:102AB000C8004000980C00204C0D0020440D002060
:102AC0009820074094200740340D0020A40C0020DB
:102AD000E80C00209C0C0020140F00204E0D00205C
:102AE0008800400080200740F00C002000F8FF1F05
:102AF000A80C0020F40C0020C020074088200740CC
:102B00008C2007408420074010B500F0ABFE1B4B23
:102B100000221B491A609A601A610C688020C0026A
:102B200020435A60DA605A610860180A1549C0B239
:102B30000870180C1449C0B2087014491B0E0B70B1
:102B40001349FF230B70134913480B7013490B7083
:102B50000121017012480270124A1170124A116864
:102B600099430B1C70210B431360104B80225204BD
:102B70001A600F4B10221A7010BDC04600F8FF1FDC
:102B8000348004409C200740B0200740B420074018
:102B900080200740882007409420074010200740ED
:102BA000002107408420074018E400E000E100E035
:102BB00008210740F8B5061C0D1C171C0024301C0A
:102BC000391C01F099FA092901D8303100E0373178
:102BD000C9B22955301C391C01F04AFA061E01D031
:102BE0000134ECE72B1958702B1C5A1BA24206DA51
:102BF0001A78295D19702A550133013CF5E7281C24
:102C0000F8BDFFFF164B80221968D2000A431A60F4
:102C1000144A00231370144A14491370144A137091
:102C2000144A1370144A1370144A1160144AD121C3
:102C300089001160134AC104C90EC0B211705070EE
:102C400093702C23D370104BFF22196891430A1CF8
:102C500040210A431A600D4B802252011A607047CE
:102C600034800440E40D0020610D002013030000B7
:102C7000EC0D0020E50D0020600D002040A0044078
:102C800044A0044000A006400CE400E000E100E0A5
:102C900010B5124B132299789143032202400A4344
:102CA000410701D510210A439A700F220B490240B7
:102CB000042A03D18A79402422438A715A79102147
:102CC0008A43084200D00A435A719A7910218A43F4
:102CD000840600D50A439A7110BDC04600A0064084
:102CE00008B5124B1B685A051ED5114B1B78DBB279
:102CF000002B02D001F03AF8F7E70E4A8021490193
:102D000011600D4A0D49D3700422FF320A600C494C
:102D10000A600C4A13700C4A13700C4B1B68002B92
:102D200002D00B4A12781A7108BDC04634800440A4
:102D3000600D002080E100E000A0064040A00440BB
:102D400044A00440E40D0020610D00205C0D002033
:102D5000A20D002038B5041C0B4B1D78EDB2002DE0
:102D6000FAD1201C012100F0BBFC291C201C00F022
:102D700085FC0C225443054B054AE1581C1911608F
:102D8000044B227A1A7038BD600D0020544C0000AC
:102D9000E80D0020E30D002038B50E4B1A68002323
:102DA000510514D50C4C1A2810D80C2343430B4A58
:102DB0000B4D9958D3181B7A216001212B7000F01C
:102DC0008FFC23682A781A72012300E02360181C04
:102DD00038BDC046348004405C0D0020544C0000D7
:102DE000A20D00200C4B021C1B680020590512D5B7
:102DF0000A4B122A02D10A490A4A03E0142A06D1D0
:102E00000749094A11605A7B0120024302E05A7BBC
:102E100001218A435A7370473480044000A0064061
:102E2000020300000CA0044014C00440F8B5214B7C
:102E3000071C1B685A053BD51F4B1B68002B02D093
:102E40001E4A12781A711E4E002334783F22013434
:102E5000A2425B415B421C401A4D2B78A3421CD11D
:102E600000F070FD402813DC174A13795BB2002B89
:102E7000F2DA2B78002101333F2098424941494240
:102E80000B401249C95CDBB2C9B2D1712B70E3E7C8
:102E9000FF28E1DD00F06AFFDEE70C4BFFB21F55B3
:102EA0000B4B01221A70084BE4B2AC223470DA707A
:102EB000F8BDC04634800440E80D0020E30D00203A
:102EC000EC0D0020E50D002000A00640620D002062
:102ED000600D002038B5041C4518AC4204D02078A1
:102EE000FFF7A4FF0134F8E738BDFFFF08B5044B36
:102EF0001B78002B02D000F039FFF8E708BDC04670
:102F0000600D0020064B074A1B781078DBB2C0B278
:102F1000834201D33F3000E00138C01A7047C046F9
:102F2000EC0D0020E50D0020054B1878054BC0B2D4
:102F30001B78DBB2984200D24030C01A7047C046BE
:102F4000E40D0020610D002010B5124B12491A78D3
:102F50000B78D2B2DBB29A4219D001333F24002061
:102F60009C424041404203400C48DCB2C05C0C70C3
:102F70000B49C0B2096800290BD09A4200D24032F6
:102F8000D31A1A2B05DC074B1B780B7201E00120CA
:102F9000404210BDE40D0020610D0020A30D002073
:102FA0005C0D0020A20D00200A4B1A780A4B1B78FA
:102FB000DBB29A420AD0013300223F2199425241AA
:102FC00052421340054AD05CC0B201E001204042A9
:102FD0007047C046E40D0020610D0020A30D0020C5
:102FE000064B1A78064BD2B21A70064B1B68002BA0
:102FF00002D0054A12781A727047C046610D00204F
:10300000E40D00205C0D0020A20D002030B5254A03
:103010001379990612D52449D4790B78002001330D
:103020003F259D424041404203402048E4B20078A1
:10303000834203D01E48C454DBB20B70D178194CC4
:10304000C9B24BB2002B1ADA23795BB2002B16DA25
:10305000184B19481D780378DBB29D4202D16C23CE
:10306000E3700CE0013300243F259D42644164423B
:103070002340124CE45CDBB2E4B2D4710370402311
:1030800019420ED0117919420BD00D4B0021197045
:103090000C4B1B688B4202D00B49097819722C2308
:1030A000D37030BD00A00640E40D0020610D00206B
:1030B000A30D0020EC0D0020E50D0020620D002086
:1030C000600D0020E80D0020E30D00201B4B1C4A82
:1030D00019781C4B082901D1002102E00A2903D1EB
:1030E00038211160132206E00C2901D1342100E0BF
:1030F0003C21116012221A60134B1A78134B002ADC
:1031000001D0002200E001221A60114B1A78114B05
:10311000012A01D880220CE0042A01D8842208E088
:10312000082A01D8852204E0102A01D8862200E06E
:1031300087221A60084B01221A707047D4010020C0
:1031400008B003400CB00340EE0D002020B0034057
:10315000D501002024B00340ED0D002070B5174EBE
:10316000174B01201B78002B25D0FFF799F9154D3F
:10317000022803D9013E002E13D115E000F00EFC09
:10318000041EF7D000262E7020250F492A1C083077
:1031900001F002FB01202580211CFFF7D5F9301C2E
:1031A0000AE02B78002B03D001232B70181C02E0BF
:1031B00000F0DCFDD4E7404270BDC046B51E000003
:1031C000570D0020EF0D0020180F0020F7B5144F09
:1031D000061C3A680D1C0192124B01201B78002B33
:1031E00018D0FFF743F9041E09D13B68019A9B1AD6
:1031F000AB4211D8002D10D000F0B8FDECE7011C57
:1032000008310822301C01F0C7FA201C00F0E4FB52
:10321000082003E0404201E000E0281CFEBDC0465B
:10322000680E0020570D0020164B802219681201ED
:103230000A431A60144A00231370144A1449137085
:10324000144A1370144A1370144A1370144A11600C
:10325000144AD12189001160134AC104C90EC0B2B9
:103260001170507093702C23D370104B104A196852
:103270000A408021C9010A431A600E4B8022920144
:103280001A607047348004405B0E0020F10D00206E
:1032900013030000640E00205C0E0020F00D0020DF
:1032A0000CB0044010B0044000B006400CE400E054
:1032B000FF00FFFF00E100E010B5124B13229978E8
:1032C0009143032202400A43410701D510210A43DA
:1032D0009A700F220B490240042A03D18A794024B4
:1032E00022438A715A7910218A43084200D00A4346
:1032F0005A719A7910218A43840600D50A439A713B
:1033000010BDC04600B0064008B50E4B1B681A053C
:1033100017D50D4B1B78DBB2002B02D000F026FD39
:10332000F7E70A4A802189011160094A0949D370E7
:103330000422FF320A6008490A60084A1370084AEA
:10334000137008BD34800440F00D002080E100E0DF
:1033500000B006400CB0044010B004405B0E0020EA
:10336000F10D002038B5041C0B4B1D78EDB2002D7B
:10337000FAD1201C012100F0B3F9291C201C00F017
:103380007DF90C225443054B054AE1581C19116084
:10339000044B227A1A7038BDF00D0020544C000006
:1033A000600E00205A0E00200B4B00221B681905EE
:1033B00010D50A4B162809D1094AC021890011608D
:1033C0005A7B08210A435A73012203E0597B0820E3
:1033D00081435973101C70473480044000B006408C
:1033E00004B004400A4B021C1B68002019050ED5CE
:1033F000084B172A07D1084AC021890011605A7B5F
:103400000120024302E05A7B01218A435A7370472C
:103410003480044000B0064008B00440F8B5214BA9
:10342000071C1B681A053BD51F4B1B68002B02D0DD
:103430001E4A12781A711E4E002334782722013456
:10344000A2425B415B421C401A4D2B78A3421CD127
:1034500000F078FA402813DC174A13795BB2002B8E
:10346000F2DA2B7800210133272098424941494262
:103470000B401249C95CDBB2C9B2D1712B70E3E7D2
:10348000FF28E1DD00F072FCDEE70C4BFFB21F55B8
:103490000B4B01221A70084BE4B2AC223470DA7084
:1034A000F8BDC04634800440600E00205A0E002053
:1034B000640E00205C0E002000B00640F20D0020DB
:1034C000F00D002038B5041C4518AC4204D020781B
:1034D000FFF7A4FF0134F8E738BDFFFF08B5044B40
:1034E0001B78002B02D000F041FCF8E708BDC04675
:1034F000F00D0020064B074A1B781078DBB2C0B2F3
:10350000834201D3273000E00138C01A7047C0461B
:10351000640E00205C0E0020054B1878054BC0B2ED
:103520001B78DBB2984200D24030C01A7047C046C8
:103530005B0E0020F10D00200A4B0B4A197813781E
:10354000DBB299420BD001333F2000219842494120
:1035500049420B400549C85CDBB2137001E0012011
:10356000404270475B0E0020F10D00201A0E002033
:103570000A4B1A780A4B1B78DBB29A420AD0013305
:1035800000223F219942524152421340054AD05CE9
:10359000C0B201E0012040427047C0465B0E0020EF
:1035A000F10D00201A0E0020024B1A78024BD2B205
:1035B0001A707047F10D00205B0E002030B5254ACF
:1035C0001379990612D52449D4790B780020013358
:1035D0003F259D424041404203402048E4B20078EC
:1035E000834203D01E48C454DBB20B70D178194C0F
:1035F000C9B24BB2002B1ADA23795BB2002B16DA70
:10360000184B19481D780378DBB29D4202D16C2318
:10361000E3700CE00133002427259D42644164429D
:103620002340124CE45CDBB2E4B2D471037040235B
:1036300019420ED0117919420BD00D4B002119708F
:103640000C4B1B688B4202D00B49097819722C2352
:10365000D37030BD00B006405B0E0020F10D00209D
:103660001A0E0020640E00205C0E0020F20D0020D7
:10367000F00D0020600E00205A0E002010B51A2810
:1036800018D80C2358430C4A835810181C7D027A12
:10369000224205D0002901D01A710BE01A7209E00C
:1036A00043681A68002902D003210A4301E002217D
:1036B0008A431A6010BDC046544C000000231A28EB
:1036C0000AD80C235843054A81581018027A0B7CFB
:1036D00013405A1E9341DBB2181C7047544C000033
:1036E00010B51A2818D80C2358430C4A14186368CC
:1036F0008258247A012904D1117D0C431475A22229
:1037000005E0107DA0431075002902D180225200EF
:1037100001E00422FF321A6010BDC046544C000084
:1037200072B60C4B0C491A680C4B1B68096862B6E0
:10373000480104D532219142894149425B18FA205F
:10374000800043430648821A06484243920D981867
:103750007047C04618E000E004ED00E0680E00206D
:10376000BF5D0000ABAA020038B5041CFFF7D8FF0C
:10377000051C002C0ED0FFF7D3FF074B401B9842CF
:1037800005D9013C002C05D0FA239B00ED1800F070
:10379000EDFAF0E738BDC046E70300001C4B80227D
:1037A000D20510B51A60802212061A60194B00204B
:1037B00018601949194B1A4A196028231360194ACD
:1037C000194C1360194A1360194A1360194A13609F
:1037D000194A136009222260184C2060184C21609D
:1037E000184C2360184C2360184C2260184C206041
:1037F0001848016018490B6018490B60184B1A6093
:10380000FFF764FCFA20FFF7AFFFFFF77DF910BD6B
:1038100000E100E004800340FFBF00000880034097
:103820000C80034014800340008003401C80034050
:10383000248003402C8003403480034004900340E4
:10384000089003400C900340149003400090034004
:1038500004A0034008A003400CA0034014A00340B0
:1038600000A003401FB572B6154B70221A70154A9E
:1038700041211170144A0F21117080221A701A7898
:1038800052B2002AFBDA114B186862B6104B98420C
:1038900001D80A23584301AC211C0A22FFF78AF9F8
:1038A0000023E15C0B4A002905D0580010180133B1
:1038B00041800A2BF5D101335B0013701FBDC04658
:1038C00000000240070002400600024008000240DB
:1038D0007F969800F4020020024B1A6801321A60A9
:1038E0007047C046680E002010B50B4C23685A0381
:1038F00001D5FEF767FE23685A0501D5FFF786FB61
:1039000023681A0501D5FFF759FE2368DA04ECD5C0
:10391000FEF72EFDE9E7C0463480044008B5FFF706
:10392000E3FFFFFF014B00221A6070470081044053
:103930007047FFFF024A136818181060181C704780
:103940000C030020EFF31380002821D1EFF3108245
:10395000002A1FD1EFF30583002B0FD0101C0F2B73
:103960000ED91A1C103A92080B490320920003400A
:10397000521883401068D840C0B201E08020400057
:10398000EFF31182002A05D0824203D2101C01E01D
:10399000012040427047C04600E400E038B572B6EE
:1039A0000B4C2568281C00F013FC172802D962B6BE
:1039B00000200CE080231B06C3409D43256062B6B7
:1039C00048235843034B181800230360436038BD55
:1039D0001003002000FAFF1F10B5041C0E484821F8
:1039E000201A00F045FB172815D80C4B1B78002B2C
:1039F00007D00B4B1B78002B03D0201CFEF762FD79
:103A000009E072B68022074B1206C240101C1A68E9
:103A10001043186062B610BD00FAFF1F4E0D002063
:103A2000570D00201003002070B5061C0D1C00244B
:103A300033191979281C0022013400F03BF8042CBA
:103A400005D02B68281C1B682E219847F0E7201C06
:103A500070BDFFFF034A044B08321A6000225A600F
:103A60007047C046184E00006C0E002010B5041CB4
:103A700000F09CF8201C10BD08B505480023037019
:103A800004498023044A437300F0C0FB08BDC046CC
:103A9000740E00206D3A0000C000002038B5049D6F
:103AA0001C1C401AEB1A5843511A00F02FFB001946
:103AB00038BDFFFFF0B585B06B460E338EB2144CA7
:103AC0000D0C013666436C43A5B2370CAE19F619DE
:103AD000250C2C19360CA5196D080A266E43891B76
:103AE00030311C1C1970013B002D01D0291CE5E769
:103AF000211C002A03D01C1C2D224B1E1A700368A7
:103B000004A9E24352185B68211C984705B0F0BD38
:103B10003333000008B50B4B1A68002A04D0012289
:103B20001A60094B1B689847084B1B78002B08D07C
:103B3000074B1A68002A04D001221A60024B5B6806
:103B4000984708BD0C710340900E00208C0E002099
:103B50001C710340054B01221A60054B054A196888
:103B60000A401A60044B00221A707047007003402C
:103B70003C800440FFFF7FFF8C0E002008B5836867
:103B800000221A608021074BC90319604178064B57
:103B90005A541A78002A04D15B78002B01D1FFF720
:103BA000D9FF08BD80E100E08A0E0020037810B53F
:103BB000041C002B01D0FFF7E1FF0023237010BD90
:103BC00008B50368C9B21B68984708BD08B5036803
:103BD000C9B21B68984708BD08B50368C9B21B681D
:103BE000984708BD08B50368C9B21B68984708BD67
:103BF00008B5044B4808C01800F03AFAFFF702F87D
:103C000008BDC046C0C62D0010B5064B4808C018F8
:103C1000141C00F02DFAFEF7F5FF201CFFF738F812
:103C200010BDC046C0C62D0008B5FFF759F808BD45
:103C300008B5081CFFF78EF808BD08B5081CFFF78B
:103C4000ABF8431E9841C0B208BD08B5081CFFF789
:103C5000C9F8431E9841C0B208BD08B5FFF764F922
:103C600008BD08B5FFF7A0F908BD08B5FFF76CF966
:103C700008BD08B5FFF73AF908BD08B5FFF7B0F978
:103C800008BD08B5FFF73EF908BD08B5081CFFF7E9
:103C9000CDF8012008BD08B5081CFFF7C7F80120C2
:103CA00008BD10B5081C141C111CFFF713F9201CCB
:103CB00010BD38B5081C0D1C00F014FE041C211C9E
:103CC000281CFFF707F9201C38BDFFFF044B00221A
:103CD0001A711A73FA21034A890099601A607047B1
:103CE000980E0020304E000008B500F0C5FA08BD5F
:103CF000F8B5184B8022196852040A431A60164B13
:103D000001211A68154D0A431A60154B2E681C686C
:103D1000002C12D0237A002B0DD02368201C1B68A6
:103D20002F6898472A68E188D21B120993B2A380B2
:103D30008A4200D9E3806469EAE72968094B891B54
:103D400009098AB21A80084B1888814200D91A8062
:103D5000F8BDC046FCED00E0001000E0041000E0FB
:103D6000AC0E0020B20E0020B00E0020024B1A78DC
:103D7000002A00D11A707047B40E002008B50368FD
:103D8000C9B21B68984708BD08B50368C9B21B686B
:103D9000984708BD08B50368C9B21B68984708BDB5
:103DA00008B50368C9B21B68984708BD08B5044B3D
:103DB0004808C01800F05CF9FFF736FA08BDC046A5
:103DC00060E3160010B5064B4808C018141C00F03C
:103DD0004FF9FFF729FA201CFFF76EFA10BDC04615
:103DE000C0C62D0008B5FFF78FFA08BD08B5081C3E
:103DF000FFF7B8FA08BD08B5081CFFF7D5FA431E4F
:103E00009841C0B208BD08B5081CFFF7EBFA431E85
:103E10009841C0B208BD08B5FFF77EFB08BD08B5E4
:103E2000FFF7A6FB08BD08B5FFF786FB08BD08B580
:103E3000FFF754FB08BD08B5FFF7B6FB08BD08B592
:103E4000FFF758FB08BD08B5081CFFF7E7FA01208B
:103E500008BD08B5081CFFF7E1FA012008BD10B540
:103E6000081C141C111CFFF72DFB201C10BD38B5BD
:103E7000081C0D1C00F036FD041C211C281CFFF73B
:103E800021FB201C38BDFFFF044B00221A711A735E
:103E9000FA21034A890099601A607047B80E002021
:103EA000884E000008B50368C9B21B68984708BD72
:103EB00008B50368C9B21B68984708BD08B5036810
:103EC000C9B21B68984708BD08B50368C9B21B682A
:103ED000984708BD08B5044B4808C01800F0C8F85A
:103EE000FEF77CF808BDC04660E3160010B5064B2F
:103EF0004808C018141C00F0BBF8FEF76FF8201C2F
:103F0000FEF7B4F810BDC04660E3160008B5FEF732
:103F1000D5F808BD08B5081CFEF7FEF808BD08B5C1
:103F2000081CFEF71BF9431E9841C0B208BD08B536
:103F3000081CFEF731F9431E9841C0B208BD08B510
:103F4000FEF7C4F908BD08B5FEF7ECF908BD08B5E1
:103F5000FEF7CCF908BD08B5FEF79AF908BD08B51B
:103F6000FEF7FCF908BD08B5FEF79EF908BD08B5D7
:103F7000081CFEF72DF9012008BD08B5081CFEF746
:103F800027F9012008BD10B5081C141C111CFEF7F0
:103F900073F9201C10BD38B5081C0D1C00F0A2FCE4
:103FA000041C211C281CFEF767F9201C38BDFFFFEC
:103FB000044B00221A711A73FA21034A890099608E
:103FC0001A607047C80E0020E04E0000154B80229A
:103FD0001968D2030A431A60134B5022DA70002288
:103FE0009A701B78114B1B78D90703D49021890054
:103FF0000F4A02E080210F4A89001160802292005E
:10400000990701D40C4900E00C490A605A0703D40F
:10401000902292000A4B02E080220A4B92001A6022
:104020007047C0463480044000600740A80E00205E
:1040300018B0044008C004401CB004400CC0044048
:1040400014B0044004C0044002B471464908490059
:10405000095C49008E4402BC7047C04603B47146F7
:10406000490840004900095A49008E4403BC704782
:10407000002934D00123002210B488422CD301241B
:104080002407A14204D2814202D209011B01F8E7B0
:10409000E400A14204D2814202D249005B00F8E769
:1040A000884201D3401A1A434C08A04202D3001B95
:1040B0005C0822438C08A04202D3001B9C082243C8
:1040C000CC08A04202D3001BDC082243002803D006
:1040D0001B0901D00909E3E7101C10BC7047002838
:1040E00001D00020C04307B4024802A1401802904A
:1040F00003BDC046D90000000029F0D003B5FFF78A
:10410000B9FF0EBC4243891A1847C046002941D066
:1041100010B4041C4C40A44601230022002900D501
:104120004942002800D5404288422CD3012424076C
:10413000A14204D2814202D209011B01F8E7E40046
:10414000A14204D2814202D249005B00F8E78842D2
:1041500001D3401A1A434C08A04202D3001B5C084A
:1041600022438C08A04202D3001B9C082243CC08A7
:10417000A04202D3001BDC082243002803D01B0905
:1041800001D00909E3E7101C6446002C00D5404229
:1041900010BC7047002806D003DB0020C043400855
:1041A00001E08020000607B4024802A140180290F6
:1041B00003BDC046190000000029EBD003B5FFF78E
:1041C000A7FF0EBC4243891A1847C0467047C04635
:1041D0001C2101231B04984201D3000C10391B0A37
:1041E000984201D3000A08391B09984201D30009FB
:1041F000043902A2105C40187047C0460403020252
:1042000001010101000000000000000008B5031CCE
:10421000081C191C00F002F808BDC04638B5051C82
:104220000C1C131C291C221C022000F063FB38BD4F
:1042300070B50D4E0D4D0024AD1BAD1005D0A30083
:10424000F35801349847A542F9D100F0A3FE084E77
:10425000084D0024AD1BAD1005D0A300F358013468
:104260009847A542F9D170BDA04F0000A04F0000B3
:10427000A04F0000C44F000008B5034B011C186894
:1042800000F004F808BDC04640070020F0B55646CF
:1042900044465F464D46F0B40C1C0B3483B0061CFC
:1042A000162C2BD907239C432BD4A14229D8301C90
:1042B00000F002FBF823FF339C4226D8E208CA4DE7
:1042C000D300EB18DF689F4200D1BBE1786803237D
:1042D000FA68B96898433B18CA609160596801222E
:1042E0000A43301C5A6000F0E9FA381C083003B069
:1042F0003CBC90469946A246AB46F0BD1024A14274
:10430000D5D90C2333600020F1E7630A00D18EE099
:10431000042B00D93DE1A30938339C465900B24D26
:1043200089006918CF68B94215D07A6803239A4387
:10433000101B0F2800DD8DE000287CDA032007E049
:104340007A688243131B0F2B00DD83E0002B72DAA7
:10435000FF68B942F4D1012294442B1C2F69083321
:104360009F4200D163E1786803229043021C011B45
:104370000F2900DD4AE16B612B6100295FDA9B4B5D
:10438000984200D90FE1C3089A100121DB00EB1815
:10439000914068680A1C99680243FB60B9606A60D2
:1043A0009F60CF6061468B1001219940914255D8A2
:1043B00011420DD1032360469843031C0433490086
:1043C0009C46114204D1042349009C441142FAD076
:1043D000032080466246D3005B199A46181CE146CA
:1043E000C768B84207D124E1002B00DB33E1FF6846
:1043F000B84200D11DE17A6843469A43131B0F2B44
:10440000F2DD01213A190C437C60F868BC6808357C
:10441000E06019438460EA60AA60301CD560956052
:104420005160D35000F04AFA381C08305FE73F2251
:104430007E21944673E7FB68B968CB609960BA182F
:10444000516801230B43301C536000F037FA381CCD
:1044500008304CE70120404284447CE7AF680323E6
:10446000786898438146A04203D3031B0F2B00DDDD
:1044700081E05F4A5F4B49461B68106879180191DB
:10448000E3189346013000D147E15B495B181B0BF1
:104490001B030093301C009900F012FA021C8046A6
:1044A00001325DD0019B834200D9EBE05348009973
:1044B000026882468B1801990360414500D135E1BD
:1044C0005A461268013200D143E1019841460A1A66
:1044D0009B1851460B6007234246134000D104E16C
:1044E000D21A08329046464AD31A0098021C424417
:1044F0001205120D9A1A111C301C934600F0E0F9B7
:10450000411C00D121E14246801A5844012318433E
:10451000524611680B1C5B444146A9601360486019
:10452000AF4213D04A460F2A00D8E9E04A467868DD
:1045300007210C3A8A43012101401143796005208B
:10454000B918486088600F2A00D906E12D4A106822
:10455000834200D913602C4A11688B4200D9136042
:10456000AF6803237A689A43131B944200D9AEE0E4
:104570000F2B00DCABE00122211C11433C1913433B
:104580007960301CAC60636000F098F9381C08302A
:10459000ADE6142B6ED9542B00D99DE0230B6E335E
:1045A0009C465900BBE6430A042B67D9142B00D95B
:1045B000B6E0191C5B3148008000401983688146D1
:1045C000834200D194E003218846596840468143E4
:1045D0008A4202D29B689945F7D1D9686A68F96026
:1045E000BB608F60DF60DDE644070020FF01000054
:1045F000500B0020E80E00200F100000EC0E0020F1
:1046000008100000E40E0020E00E002001203A19FE
:10461000044308437C606A612A615060D360936000
:10462000301C515000F04AF9381C08305FE66A68C7
:10463000B8E60122914443464A460830134200D06E
:10464000CEE62CE03B1C7F69023208339446BB4225
:1046500000D182E63AE6BA1850680123034353605A
:10466000FB68BA68301CD3609A6000F027F9381CE8
:1046700008303CE65B339C46590050E681093831EE
:10468000480099E7AF4200D06AE70FE75346186841
:1046900001225242083B94448246984277D14346D5
:1046A00060460342F2D16B688B436B6049009942CC
:1046B00000D9D3E6002900D1D0E6CC46194200D07B
:1046C00088E60422490094441942FAD082E6301C5C
:1046D00000F0F4F800200AE6AA225200934214D80F
:1046E000E30B77339C46590019E680235B01FCE617
:1046F0008910686801228A4002436A60191C6EE7CB
:1047000001234B60474600222EE7224A934218D8E5
:10471000A30C7C339C46590001E610330093B9E6A4
:10472000542B22D8010B6E31480045E70A0500D012
:10473000C6E60099AA68081C48440121014351605B
:1047400004E77E23FC219C46E9E5002301209B46EB
:10475000DEE6434658460360BDE6391C0831301C8E
:1047600000F0A4F951460B68F0E6AA2149008B42FB
:1047700003D8C10B773148001EE706498B4203D8A6
:10478000810C7C31480017E7FC207E2114E76B6820
:104790008CE7C04654050000F0B50F2A35D9031C3C
:1047A0000B439C0735D1161C103E360935014519BF
:1047B00010350C1C031C27681F6067685F60A768C2
:1047C0009F60E7681034DF601033AB42F3D1731C95
:1047D0001B01C518C9180F231340032B1BD91C1F1D
:1047E000A4080134A4000023CE58EE500433A342A1
:1047F000FAD1ED18C91803231A4005D00023CC5C68
:10480000EC5401339342FAD1F0BD051C002AF5D1D6
:10481000FAE7051CF2E71A1CF8E7C046F0B5830773
:1048200046D0541E002A42D0CEB2031C032503E01A
:10483000621E002C3BD0141C01335A1E16702B42F2
:10484000F6D1032C2BD9FF250D402A0215432A044B
:1048500015430F2C15D9271C103F3F091E1C3A0188
:104860001036B6181A1C156055609560D560103268
:10487000B242F8D101373F010F22DB191440032C5B
:104880000DD9271FBF08BA001E1DB6181A1C20C25A
:10489000B242FCD10137BF000322DB191440002CC7
:1048A00005D01C19C9B219700133A342FBD1F0BD68
:1048B000141C031CC5E7C0467047C0467047C0467D
:1048C00038B5074C0023051C081C2360FFF732F89D
:1048D000431C00D038BD2368002BFBD02B60F9E7C8
:1048E000380F00200023C25C0133002AFBD1581E80
:1048F0007047C046F0B54F464646C0B498462B4B6D
:10490000A4251B686D005C5983B0061C0F1C9146E2
:104910000193002C44D065681F2D1ADD244B002B19
:1049200002D1012040421CE0C8204000FFF7A4FC57
:10493000041EF6D000254560A42301985B00C058F2
:1049400001992060CC50C4235B00E550C6235B0076
:10495000E550002E0AD16B1C0235AD0063600020CB
:104960002F5103B00CBC90469946F0BDAB00E31844
:10497000882248469850C42040002218106801211F
:10498000A940084310608422520040469850022EED
:10499000E1D1C6225200A318186801431960DAE772
:1049A0001C1C4D34FF345C51B5E7C046904F0000ED
:1049B0007942000008B5034B002B02D0024800F0FA
:1049C00005F808BD00000000DD49000008B5011C25
:1049D000002200200023FFF78DFF08BD38B5094BEA
:1049E000094DED1AAD1009D0013DAC00E41800E00E
:1049F000013D23689847043C002DF9D100F0E2FA0C
:104A000038BDC0460000000000000000F8B50F1CD3
:104A1000041CFFF751FF204D204AAB685E6803235A
:104A20009E43F71BBF183F0B1D4B013F3F039F42A7
:104A300007DD201C0021FFF743FFAA689319984265
:104A400004D0201CFFF73AFF0020F8BD7942201C5B
:104A5000FFF736FF01300DD0AB68F61B012216437D
:104A60005E60104B201C1A68D71B1F60FFF726FFE3
:104A70000120EAE7201C0021FFF722FFAB68C21AE1
:104A80000F2ADEDD08490968401A0649086001213D
:104A90000A435A60D5E7C04644070020EF0F0000E4
:104AA000FF0F0000EC0E0020500B0020F0B5474631
:104AB00080B4051C0C1E55D0FFF7FEFE211C0839E2
:104AC00048680127031CBB43CA185468804603206A
:104AD0008443201C534CA668964260D00026B446FE
:104AE0004646506037420AD10E68271C891B9B1925
:104AF0008E680837BE426BD0CF68F760BE6016186C
:104B0000766801273E4207D11B18604600282CD04A
:104B10009068D268C26090600122181C10436646FB
:104B20004860CB50002E1AD13F48834229D95A0AF7
:104B3000042A50D89E0938367000800020188268F8
:104B400082424ED003265468B443A34202D29268F4
:104B50009042F8D1D368CB608A609960D160281CFC
:104B6000FFF7ACFE04BC9046F0BD90682F4EB042FB
:104B7000CFD11F43C1608160C86088604F60CB5057
:104B8000EDE7DB08981082406068DB00024362605A
:104B9000E418A368CC608B60A160D960DFE7C3181C
:104BA0004046074206D10A68891A88689B18CA6875
:104BB000C260906001221A434A601D4AA1601268D7
:104BC0009342CCD31B4B281C1968FFF71FFFC6E785
:104BD0000126B44693E7142A0CD8161C5B367000E5
:104BE000ABE7B6100123B3401E1C63681E4366602A
:104BF000131CB0E7542A03D81E0B6E3670009CE7D6
:104C0000AA204000824203D8DE0B7736700094E77A
:104C10000948824203D89E0C7C3670008DE7FC2048
:104C20007E268AE744070020FF0100004C07002091
:104C30004C0B0020E80E00205405000002FF00FF8E
:104C4000FFFF04FFFFFFFFFFFFFF060006FF02FF5D
:104C5000FFFF04FF420000F840A0044001000000F4
:104C6000420000F844A0044002000000C00000F828
:104C700000C0044001000000000000F8049004405F
:104C800002000000000000F808900440040000004A
:104C9000C00000F81CC0044080000000C00000F804
:104CA00010C0044010000000C00000F808C004401C
:104CB00004000000C00000F80CC004400800000020
:104CC000800000F80CB0044008000000800000F8EC
:104CD00010B0044010000000800000F818B004403C
:104CE00040000000800000F81CB00440800000007C
:104CF000800000F814B0044020000000C00000F85C
:104D000004C0044002000000800000F800B004402D
:104D100001000000400000F800A004400100000075
:104D2000400000F804A0044002000000400000F829
:104D30000CA0044008000000400000F808A0044057
:104D400004000000C00000F814C00440200000006F
:104D5000C00000F818C0044040000000800000F8C7
:104D600004B0044002000000800000F808B00440D5
:104D700004000000020100F850D0044010000000C0
:104D8000020100F854D0044020000000030100F8A4
:104D900078D00440400000001D15FFFF0001000016
:104DA000D6010020120000000002000018020020BE
:104DB0002900000000220000410200208F000000B6
:104DC000002100002A02002009000000000300006A
:104DD000F002002000000000010309040802002086
:104DE0000000000002030904D002002000000000BF
:104DF00003030904F4020020000000000403090476
:104E0000E801002000000000000000000000000099
:104E100000000000FFFFFFFF000000000000000096
:104E2000293A00000000000000000000000000001F
:104E30008B3C0000A33C00005B3C00006B3C00008E
:104E4000633C0000733C0000F13B0000093C0000A3
:104E5000293C0000313C00003B3C00004B3C000082
:104E60007B3C0000833C0000C13B0000CD3B0000C8
:104E7000D93B0000E53B0000B33C0000973C00003C
:104E80000000000000000000473E00005F3E000000
:104E9000173E0000273E00001F3E00002F3E00008E
:104EA000AD3D0000C53D0000E53D0000ED3D0000CA
:104EB000F73D0000073E0000373E00003F3E000087
:104EC0007D3D0000893D0000953D0000A13D0000B2
:104ED0006F3E0000533E0000000000000000000094
:104EE0006F3F0000873F00003F3F00004F3F000042
:104EF000473F0000573F0000D53E0000ED3E000058
:104F00000D3F0000153F00001F3F00002F3F000035
:104F10005F3F0000673F0000A53E0000B13E00007B
:104F2000BD3E0000C93E0000973F00007B3F0000EF
:104F300002000400060008000A000C000E00100029
:104F4000140018001C002000280030003800400029
:104F50005000600070008000A000C000E000000170
:104F600040018001C00100028002000300102030D7
:104F70004050607041516171425262724353637399
:104F800044546474455565754656FFFF4300000060
:104F900018030020F8B5C046F8BC08BC9E46704710
:104FA000B549000039040000211B00006D1F0000FE
:104FB000553A0000793A0000CD3C0000893E0000DF
:044FC000B13F0000FD
:044FC400F8B5C04636
:104FC80000000000FF005EBCE2613FDD83C29C7E02
:104FD80020A3FD1F419DC3217FFCA2401E5F01E36A
:104FE800BD3E6082DC237D9FC1421CFEA0E1BF5D07
:104FF8000380DE3C62BEE0025CDF81633D7C22C050
:105008009E1D43A1FF4618FAA427799BC584DA3868
:1050180066E5BB5907DB856739BAE406581947A521
:10502800FB7826C49A653BD987045AB8E6A7F91BCA
:1050380045C6987A24F8A6441A99C7257B3A648607
:10504800D85B05E7B98CD2306EEDB3510F4E10F234
:10505800AC2F7193CD114FADF3702ECC92D38D6FD1
:1050680031B2EC0E50AFF1134DCE90722C6D33D19E
:105078008F0C52B0EE326C8ED0530DEFB1F0AE4CB7
:105088001291CF2D73CA947628ABF517490856B4F8
:10509800EA6937D58B5709EBB536688AD495CB2999
:1050A80077F4AA4816E9B7550B88D6346A2B759752
:1050B800C94A14F6A8742AC896154BA9F7B6E80A7F
:1050C80054D7896B35060400020507010300000068
:1050D800050000000A041201000200000040B70E9B
:1050E8008E03070101020301200343006C007500D1
:1050F8006200530070006F007200740020005700B7
:105108006800650065006C001003640061007200AF
:105118006B006E0061006F0009022900010100C0E8
:1051280032090400000203000004092111010001F2
:10513800228F0007058103200002070501030800EC
:105148001005010904A101050919012958150025AF
:1051580001750195588102050109300931093309A2
:1051680034150026FF0075089504810205010939E8
:10517800150025073500463B016514750495018126
:1051880042952175048101050A090115002501A12F
:10519800020508094B750195019102C00902A10297
:1051A8000508094B750195019102C00903A1020583
:1051B80008094B750195019102C00904A10205086F
:1051C800094B750195019102C0950D75049101C0B7
:1051D800200343006C0075006200530070006F00EC
:1051E80072007400200057006800650065006C00BC
:1051F800040309040C030000000000000000000084
:105208000000000000000000000000003C0F00202B
:10521800FFFFFFFF00000000000000000406002060
:105228006C060020D40600200000000000000000EA
:105238000000000000000000000000000000000066
:105248000000000000000000000000008C4F00007B
:105258000000000000000000000000000000000046
:105268000000000000000000000000000000000036
:105278000000000000000000000000000000000026
:105288000000000000000000000000000000000016
:105298000000000000000000000000000000000006
:1052A80000000000000000000000000000000000F6
:1052B80000000000000000000000000000000000E6
:1052C80001000000000000000E33CDAB34126DE683
:1052D800ECDE05000B0000000000000000000000EC
:1052E80000000000000000000000000000000000B6
:1052F80000000000000000000000000000000000A6
:105308000000000000000000000000000000000095
:105318000000000000000000000000000000000085
:1056480018030020000000000000000044070020AC
:10565800440700204C0700204C0700205407002076
:10566800540700205C0700205C0700206407002026
:10567800640700206C0700206C07002074070020D6
:10568800740700207C0700207C0700208407002086
:10569800840700208C0700208C0700209407002036
:1056A800940700209C0700209C070020A4070020E6
:1056B800A4070020AC070020AC070020B407002096
:1056C800B4070020BC070020BC070020C407002046
:1056D800C4070020CC070020CC070020D4070020F6
:1056E800D4070020DC070020DC070020E4070020A6
:1056F800E4070020EC070020EC070020F407002056
:10570800F4070020FC070020FC0700200408002004
:10571800040800200C0800200C08002014080020B1
:10572800140800201C0800201C0800202408002061
:10573800240800202C0800202C0800203408002011
:10574800340800203C0800203C08002044080020C1
:10575800440800204C0800204C0800205408002071
:10576800540800205C0800205C0800206408002021
:10577800640800206C0800206C08002074080020D1
:10578800740800207C0800207C0800208408002081
:10579800840800208C0800208C0800209408002031
:1057A800940800209C0800209C080020A4080020E1
:1057B800A4080020AC080020AC080020B408002091
:1057C800B4080020BC080020BC080020C408002041
:1057D800C4080020CC080020CC080020D4080020F1
:1057E800D4080020DC080020DC080020E4080020A1
:1057F800E4080020EC080020EC080020F408002051
:10580800F4080020FC080020FC08002004090020FF
:10581800040900200C0900200C09002014090020AC
:10582800140900201C0900201C090020240900205C
:10583800240900202C0900202C090020340900200C
:10584800340900203C0900203C09002044090020BC
:10585800440900204C0900204C090020540900206C
:10586800540900205C0900205C090020640900201C
:10587800640900206C0900206C09002074090020CC
:10588800740900207C0900207C090020840900207C
:10589800840900208C0900208C090020940900202C
:1058A800940900209C0900209C090020A4090020DC
:1058B800A4090020AC090020AC090020B40900208C
:1058C800B4090020BC090020BC090020C40900203C
:1058D800C4090020CC090020CC090020D4090020EC
:1058E800D4090020DC090020DC090020E40900209C
:1058F800E4090020EC090020EC090020F40900204C
:10590800F4090020FC090020FC090020040A0020FA
:10591800040A00200C0A00200C0A0020140A0020A7
:10592800140A00201C0A00201C0A0020240A002057
:10593800240A00202C0A00202C0A0020340A002007
:10594800340A00203C0A00203C0A0020440A0020B7
:10595800440A00204C0A00204C0A0020540A002067
:10596800540A00205C0A00205C0A0020640A002017
:10597800640A00206C0A00206C0A0020740A0020C7
:10598800740A00207C0A00207C0A0020840A002077
:10599800840A00208C0A00208C0A0020940A002027
:1059A800940A00209C0A00209C0A0020A40A0020D7
:1059B800A40A0020AC0A0020AC0A0020B40A002087
:1059C800B40A0020BC0A0020BC0A0020C40A002037
:1059D800C40A0020CC0A0020CC0A0020D40A0020E7
:1059E800D40A0020DC0A0020DC0A0020E40A002097
:1059F800E40A0020EC0A0020EC0A0020F40A002047
:105A0800F40A0020FC0A0020FC0A0020040B0020F5
:105A1800040B00200C0B00200C0B0020140B0020A2
:105A2800140B00201C0B00201C0B0020240B002052
:105A3800240B00202C0B00202C0B0020340B002002
:105A4800340B00203C0B00203C0B0020000002001F
:045A5800FFFFFFFF4E
:00000001FF
