:1000000000800020BD010000BD0B0000890B000036
:10001000890B0000890B0000890B0000890B000090
:10002000890B0000890B0000890B0000BD0B00004C
:10003000BD0B0000890B0000BD0B0000790B000018
:10004000BD0B0000BD0B0000BD0B0000BD0B000090
:10005000BD0B0000BD0B0000BD0B0000BD0B000080
:10006000BD0B0000BD0B0000BD0B0000BD0B000070
:10007000BD0B0000BD0B0000BD0B0000BD0B000060
:10008000BD0B0000BD0B0000BD0B0000BD0B000050
:10009000BD0B0000BD0B0000BD0B0000BD0B000040
:1000A000BD0B0000BD0B0000BD0B0000BD0B000030
:1000B000BD0B0000BD0B0000BD0B0000BD0B000020
:1000C000BD0B0000BD0B0000BD0B0000BD0B000010
:1000D000BD0B0000BD0B0000BD0B0000BD0B000000
:1000E000BD0B0000BD0B0000BD0B0000BD0B0000F0
:1000F000BD0B000079120000BD0B0000B11700001D
:10010000BD0B0000F51B0000BD0B0000BD0B000087
:10011000BD0B0000BD0B0000BD0B0000BD0B0000BF
:10012000BD0B0000BD0B0000BD0B0000BD0B0000AF
:10013000BD0B0000BD0B0000BD0B0000BD0B00009F
:10014000BD0B0000BD0B0000BD0B0000BD0B00008F
:100150005D290000752900008D290000A5290000F7
:10016000BD0B0000B11E0000BD0B0000BD0B000068
:10017000BD0B0000BD0B0000BD0B0000BD0B00005F
:10018000BD0B0000BD0B0000BD0B0000BD0B00004F
:10019000BD0B0000BD0B0000BD0B0000BD0B00003F
:1001A000BD0B0000BD0B0000BD0B0000BD0B00002F
:1001B000BD0B0000BD0B0000E9250000564B4CF2C2
:1001C000205210B51A804DF628121A8000BF00BFC9
:1001D00000F0F8FC514B4FF010621A60504A9A60E0
:1001E000504ADA60A3F53043203B1A6812F480725B
:1001F00004D14D490A604FF4A8521A604B4B1A784B
:10020000110703D51A7842F008021A70484B2A22C7
:100210001A700023474A48499818884204D247492F
:10022000595899500433F5E7454A464B9A424FF0E6
:10023000000302D242F8043BF7E74349434A5958C6
:1002400099500433B3F5DE7FF7D1414B802103F899
:10025000011B40498B42F9D13F4B1A603F4B0A22A8
:100260001A70A3F5805324225A70A0221A709A792A
:100270009207FCD59A79D406FCD4394B9A7902F0CE
:100280000C02082AF9D103221A7140225A719A7974
:100290009006FCD5324B9A795106FBD5314A32494A
:1002A00011600221516020221A702D4B9B7903F0BE
:1002B0000C030C2BF9D12D4B2D4A1A602D4B45F612
:1002C000BF521A6000225A60072243F8042C2A4ABF
:1002D000C3F80C2D62B600F03FFD134B1B68DA0724
:1002E00005D5264800F0BAFC254B264A1A60264B55
:1002F0001B785B0609D5224C224A2368934204D11D
:100300001E4800F0ABFC0023236002F08FFC00F0DD
:100310005FFC00F0CDFBFEE70E200540308004407E
:10032000823F04000100002B14D0034002D007409C
:1003300000E00740C08AFF1F4495FF1F843900007A
:100340004495FF1FF098FF1F000000000082FF1F70
:1003500000E400E05FE400E008ED00E0005006404B
:100360000040064044800440000003330480044001
:10037000C010050014E000E00000202027E4A4568F
:100380001CE00340A5C3945A00F00740FFFFFFFFA5
:10039000FFFFFFFFFFFFFFFFFFFFFFFFFFFFFFFF6D
:1003A000FFFFFFFFFFFFFFFFFFFFFFFFFFFFFFFF5D
:1003B000FFFFFFFFFFFFFFFFFFFFFFFFFFFFFFFF4D
:1003C000FFFFFFFFFFFFFFFFFFFFFFFFFFFFFFFF3D
:1003D000FFFFFFFFFFFFFFFFFFFFFFFFFFFFFFFF2D
:1003E000FFFFFFFFFFFFFFFFFFFFFFFFFFFFFFFF1D
:1003F000FFFFFFFFFFFFFFFFFFFFFFFFFFFFFFFF0D
:10040000FFFFFFFFFFFFFFFFFFFFFFFFFEFFFFFFFD
:1004100010B5054C237833B9044B13B10448AFF33E
:1004200000800123237010BD4495FF1F00000000D1
:100430008439000008B5064B1BB106480649AFF3E6
:1004400000800648036813B1054B03B1984708BD07
:1004500000000000843900004895FF1F4495FF1FED
:10046000000000000139C9B224294AD81F29254BB0
:100470000CD92039012000FA01F112B11A79114387
:1004800002E01A7922EA0101197135E017294FF0CB
:1004900001000BD9183900FA01F112B1DA781143D1
:1004A00002E0DA7822EA0101D97025E00F290BD9A0
:1004B000103900FA01F112B19A78114302E09A78EA
:1004C00022EA0101997017E007290BD9083900FACF
:1004D00001F112B15A78114302E05A7822EA01017F
:1004E000597009E000FA01F112B11A78114302E0E3
:1004F0001A7822EA01011970034B1B780BB901F03D
:10050000CFBF7047CC98FF1F7498FF1F38B50D4DB3
:1005100000F0A8FA0C4B01240021212228461C706F
:1005200002F050FEA5232B70084B00221A70084BD6
:100530001C7000F0DFFB074B1860074B1A68074B75
:100540001A6038BD7695FF1F7498FF1F6495FF1FD2
:100550006E95FF1F6095FF1FC495FF1F6895FF1FD5
:1005600008B503460A4602481946FFF77BFF08BD57
:100570007598FF1F054BC0B25870054B5877054B57
:100580001B780BB901F08CBF704700BF7695FF1F39
:10059000CC98FF1F7498FF1F9378012B15D1D37847
:1005A000022B07D1114B1179997051799279D97039
:1005B0001A7116E0032B14D10C4B5978042910D072
:1005C0001179D97152791A720BE0082B09D1074BB6
:1005D0005978042905D0D178127942EA0122A3F88A
:1005E0000520034B1A68034B1A6070477695FF1F6E
:1005F000C495FF1F6895FF1FA14B1B782DE9F041A3
:10060000002B00F03A819F489F49212200F0D2F947
:1006100000219E4801F07EFF81B219B101209B4A62
:10062000FFF7BAFF984C2378A52B40F02281607821
:10063000974F984EFFF79EFF94F90530C3F1800362
:100640007B7133780BB901F02BFF94F906307F33BF
:10065000BB7133780BB901F023FFA1788A4D0120DB
:10066000C909FFF77DFFA1780220C1F38011FFF7D0
:1006700077FFA1780320C1F34011FFF771FFA17844
:100680000420C1F30011FFF76BFFE1780520C909D1
:10069000FFF766FFE1780620C1F38011FFF760FFE6
:1006A000E1780720C1F34011FFF75AFFE1780820F5
:1006B000C1F30011FFF754FFE1780920C1F3800175
:1006C000FFF74EFFE1780A20C1F34001FFF748FF32
:1006D00021790B20C1F3C001FFF742FF21790C20E3
:1006E000C1F38001FFF73CFF21790D20C1F34001E8
:1006F000FFF736FF21790E20C1F34011FFF730FFDD
:10070000E1780F20C1F3C001FFF72AFFE178102044
:1007100001F00101FFF724FF6378042B6FD1297AE0
:100720001320C1F3C001FFF71BFF297A1420C1F386
:100730000011FFF715FF297A1520C1F34011FFF7CB
:100740000FFFA97A162001F00101FFF709FFA97A2E
:100750001720C1F34001FFF703FFA97A1820C1F366
:100760008001FFF7FDFEA97A1920C1F3C001FFF750
:10077000F7FEA97A1A20C1F30011FFF7F1FEA97A5A
:100780001B20C1F34011FFF7EBFEA97A1C20C1F337
:100790008011FFF7E5FEA97A1D20C909FFF7E0FEE9
:1007A000E97A1E2001F00101FFF7DAFEE97A1F2045
:1007B000C1F34001FFF7D4FEE97A2020C1F38001A4
:1007C000FFF7CEFEE97A2120C1F3C001FFF7C8FE92
:1007D000E97A2220C1F30011FFF7C2FEE97A232053
:1007E000C1F34011FFF7BCFEE97A2420C1F3801168
:1007F000FFF7B6FEE97A2520C909FFF7B1FE264BBF
:100800001A78511E312901D8013202E0322A01D969
:1008100000221A701B78DFF88080DBB9E1791F4D68
:10082000297049B2B1F1FF33594259411120FFF704
:1008300097FE95F900104A1E51424FF012005141A7
:10084000FFF78EFE95F9003023B198F800300133A0
:1008500088F80030A37803F00F03013BDBB2072BCD
:1008600096BF0F4AFF23D35CFB7133780BB901F0BD
:1008700017FEBDE8F04101F013BEBDE8F08100BFF6
:100880006E95FF1F7695FF1F9795FF1F6F95FF1FB2
:10089000CC98FF1F7498FF1F6D95FF1F6C95FF1F6D
:1008A00014360000002AF0B50CBF4FF064524FF030
:1008B000605200240F4E104FA65B104D97FBF6F6CA
:1008C000B14255F8145004D3190706D542F080629E
:1008D00003E002342E2CEDD1F6E75B0707D525F4B3
:1008E000704305F4704542F0007243EA15152A433F
:1008F0000260F0BDC038000000366E01F038000024
:1009000010B50446FFF7CEFF204610BD10B5184BBA
:100910001A7802B372B61B78D90707D5154A16495B
:10092000146809682140154C216011609A0707D5A9
:10093000134A1149146849682140104C61601160E4
:100940005B0707D50F4B0C4A196892680A400B49A0
:100950008A601A6062B60C4BDA68824207D00B4A92
:100960001A60D8600A4A40F0804018611A6010BDD1
:100970009098FF1F80E100E07898FF1F8498FF1F88
:1009800084E100E088E100E000C0024001401F0077
:1009900000001F8010B50023FF22DCB2A14205D069
:1009A000C45C6240024C0133A25CF6E7104610BD05
:1009B000C48AFF1FF8B5551E0C46E9B21746064615
:1009C000FFF7E8FF002186F820000A2000F056F922
:1009D0001D4B1868FFF79AFF0023BB420DDA1B4935
:1009E000F25C4FF00040C8624A63CA6A002AFCDA2F
:1009F000164A926BE2540133EFE7154B1B788BB12B
:100A0000D90703D5134A1168134A11609A0703D511
:100A1000104A5168114A11605B0703D50D4B9A6863
:100A20000F4B1A600A20012100F028F923461A1BF7
:100A3000AA4207DA5A781978D20942EA410203F841
:100A4000012BF4E7F8BD00BFBC95FF1F00C00240BA
:100A50009098FF1F8498FF1F00E100E004E100E090
:100A600008E100E007B50A20012100F027F90A207B
:100A7000012100F003F902F06BF80649012200237E
:100A800001A8FFF73DFF019802F0A8F803B05DF858
:100A900004FB00BF00093D0008B5034903480122DB
:100AA0000023FFF72DFF08BD001BB700BC95FF1FFB
:100AB00008B5FFF72BFDFFF79FFD02F029F8FAE7D5
:100AC00010B5204B2048214960221A70E1225A704B
:100AD0001F4B204A1C78204B082C01D1002402E037
:100AE0000A2C03D138240460132005E00C2C0CBF21
:100AF00034243C2404601220086014601860174BF2
:100B000017491B78174A03B101230B601360164B7A
:100B1000164A1978164B012901D880210BE00429C7
:100B200001D8842107E0082901D8852103E0102994
:100B300094BF86218721116019600E4B01221A7023
:100B400010BD00BF0040074008B003400CB0034098
:100B5000C48BFF1F08B00B400CB00B40C195FF1FAA
:100B600020B0034020B00B40C58BFF1F24B00340D2
:100B700024B00B40C095FF1F024B1A6801321A6067
:100B8000704700BFC495FF1F08B50B4C236858037E
:100B900001D501F08DF92368590501D500F06CFBF2
:100BA00023681A0501D500F003FE2368DB04ECD5A9
:100BB00001F020F8E9E700BF3480044008B5FFF7F2
:100BC000E3FFFFFF014B10221A8070470020054011
:100BD0007047FFFF024A13681844106018467047B8
:100BE000C88BFF1FEFF313839BB9EFF3108098B905
:100BF000EFF3058323B10F2B04D9084A985C01E079
:100C00004FF48070EFF311833BB1834238BF184635
:100C100070474FF0FF30704718467047F0E300E030
:100C200010B50023B0FBF2F402FB1400092894BFB6
:100C300030303730C0B2C85420460CB10133F1E730
:100C4000CA18547022469A4206DA885CCC5C8C54EE
:100C5000C8540132013BF6E7084610BD044B054974
:100C600000221A600A60044A106010221A6070475D
:100C700014D0034004D0034000D00340212810B515
:100C800018D80D4A52F8303093F880423CB1012216
:100C900011B183F8802010BD83F8002110BD02EB54
:100CA000C00043681A6811B142F0030201E022F06B
:100CB00002021A6010BD00BF1C360000212816D8A1
:100CC0000B4A02EBC00301295B6852F8302004D1C3
:100CD00082F880124FF4A27208E0002082F88002AD
:100CE00011B94FF4807201E040F203121A607047AC
:100CF0001C36000072B60B4B0B491A680B4B1B6875
:100D0000096862B6490102D5322A88BF0133C2F5AB
:100D1000BB4218213F32B2FBF1F24FF47A7000FB74
:100D20000320704718E000E004ED00E0C495FF1FC9
:100D300038B50446FFF7DEFF054664B1FFF7DAFF7A
:100D4000401BB0F57A7F03D3013C04D005F57A75DA
:100D500001F0DEFEF2E738BD1F4B4FF4000210B584
:100D60001A604FF080721A604FF000721A604FF0F4
:100D700080621A604FF000621A60184B184A194CD2
:100D800000204BF6FF7118605960282313609360B0
:100D90001361936113629362136393630822226069
:100DA00004F58054043420606160A360236144F83A
:100DB000042C04F5FE2420600B4801600B490B60F5
:100DC0008B600B4B1A60FFF77BFEFA20FFF7B0FF3A
:100DD000BDE8104001F022BB08E100E004800340C0
:100DE0000C8003400080034008800B400C800B40C7
:100DF00000800B40194B1A6842F480621A60184A4E
:100E000000231370174A1370174A1370174A137090
:100E1000174A1370174B40F213321A604FF4517295
:100E20005A60154BC0F344321A70C0F347125A701F
:100E30000221042200F01F0098729A70D9745A752A
:100E400088221A743C22DA700C4B40226FF44A71EB
:100E50001A700B444FF400521A60704734800440FB
:100E60004E96FF1FCD95FF1F5496FF1F4F96FF1FF5
:100E7000CC95FF1F40A0044000A006402DE400E0F8
:100E8000134A937800F0030103F0EC030B4341078E
:100E900048BF43F01003937000F00F03042B0C497C
:100EA00003D18B7943F040038B715379C20603F071
:100EB000EF03074A48BF43F010035371937981064B
:100EC00003F0EF0348BF43F010039371704700BF76
:100ED00000A0064008B5114B1B685B0500D408BD97
:100EE0000F4B1A7802F0FF0312B101F011FEF7E781
:100EF0000C4A4FF4005111600B4A0C49D37040F278
:100F000003120A604A600A4A13700A4A13700A4BB5
:100F10001B680BB101221A7008BD00BF3480044069
:100F2000CC95FF1F84E100E000A0064040A00440F3
:100F30004E96FF1FCD95FF1FC895FF1F38B504467D
:100F4000094B1B7803F0FF05002BF9D12046012146
:100F5000FFF7B4FE20462946FFF790FE034B53F8F7
:100F60003420034B1A6038BDCC95FF1F1C3600009F
:100F70005096FF1F0D4A38B5146814F480624FF084
:100F8000000410D021280A4D0AD80A4A012152F83B
:100F900030302B60FFF792FE2B681C70012038BDAB
:100FA0002C60204638BD104638BD00BF3480044058
:100FB000C895FF1F1C3600000E4B1B6813F480639E
:100FC00016D012280C4B03D140F202310B4A04E038
:100FD000142809D10A4A40F2023111605A7B42F0CA
:100FE00001025A73012070475A7B02F0FE025A73C5
:100FF000002070473480044000A006400CA004404C
:1010000014C00440F8B51D4B1B685A05064633D57D
:101010001B4B1B680BB101221A701A4B1C78013450
:10102000402C1F4628BF0024174D2B78A34218D10F
:10103000FFF7D8FD40280FDC144A13791B06F3D5BF
:101040002B7813490133402B28BF0023C95CDBB246
:10105000C9B2D1712B70E7E7FF28E5DD01F058FD3B
:10106000E2E70B4BF6B21E550A4B01221A70074BF2
:10107000E4B2BC223C70DA70F8BD00BF348004409A
:101080005096FF1F5496FF1F4F96FF1F00A006406B
:10109000CE95FF1FCC95FF1F274B1B685A052DE9E6
:1010A000F04707468A4644D5244B1B680BB1012202
:1010B0001A703D4607EB0A039D4237D2DFF8908055
:1010C0001F4E98F8004096F800900134402C28BF3D
:1010D00000245FFA89F9A1451DD11A4BBC22DA70B0
:1010E000FFF780FD40280FDC164A13791B060FD549
:1010F000337815490133402B28BF0023C95CDBB28C
:10110000C9B2D171337003E0FF2801DD01F000FDA9
:1011100033784B45E4D00C4B15F8012B1A550B4B8B
:101120000122E4B21A7088F80040C3E7054BBC22E4
:10113000DA70BDE8F08700BF348004405096FF1F8E
:101140004F96FF1F00A00640CE95FF1FCC95FF1FB6
:101150005496FF1F08B5034B1B7813B101F0D8FC60
:10116000F9E708BDCC95FF1F064A074B1B7810789E
:10117000DBB2C0B283422CBF3F3000F1FF30C01A57
:10118000704700BF4F96FF1F5496FF1F054B1878FE
:10119000054B1B78C0B2DBB2984238BF4030C01A52
:1011A000704700BF4E96FF1FCD95FF1F10B5104B27
:1011B00010491A780B78D2B2DBB29A4214D00133BC
:1011C000402B28BF00230C48DCB2C05C0C700B49DC
:1011D0000968C0B251B19A4238BF4032D31A1A2BB3
:1011E00004DC00230B7010BD4FF0FF3010BD00BFBA
:1011F0004E96FF1FCD95FF1F0E96FF1FC895FF1F30
:10120000084B1A78084B1B78DBB29A4207D001339F
:10121000402B28BF0023054AD05CC0B270474FF076
:10122000FF3070474E96FF1FCD95FF1F0E96FF1F94
:101230000C4B1B685B0514D50B4BDA7802F0CB0224
:10124000DA7040225A74DA7842F03402DA70074BCE
:101250001A78074BD2B21A70064B1B680BB10022EA
:101260001A7070473480044000A00640CD95FF1FDF
:101270004E96FF1FC895FF1F30B5374B1A7912F0F5
:10128000300F31D072B69A7D02F0FF0022B9DA79C0
:1012900040225A7462B627E062B6304A3049137869
:1012A0000978DBB2C9B214462B4AD5795A1C402AB8
:1012B00028BF00228A42EDB202D02A4B9D54134629
:1012C000421E12F0FF00EFD1DAB22270264A1268F5
:1012D00052B18B4236BFC1F14001C1EB03035B1831
:1012E000272BC4BF012313701B4BD978C9B20C063E
:1012F00020D51B7918061DD51C4B1D4A1D78137867
:10130000EDB2DBB21046AB420CD0134A0133402B96
:101310001479184C28BF0023E45CE4B2D471127D28
:10132000072AF0D9DBB203700B4B1A79120644BFBF
:101330007C22DA704B060ED5074B1A7912F0400F5B
:10134000194608D00C4B00221A700C4B1B6803B1D5
:101350001A703C23CB7030BD00A006404E96FF1F94
:10136000CD95FF1F0E96FF1FC895FF1F5496FF1FB8
:101370004F96FF1FCE95FF1FCC95FF1F5096FF1F66
:10138000194B1A6842F400621A60184A002313705D
:10139000174A1370174A1370174A1370174A1370BD
:1013A000174B40F213321A604FF451725A60154BCA
:1013B000C0F344321A70C0F347125A7000F01F0095
:1013C0000422022198729A70D9745A7588221A746C
:1013D0003C22DA700C4B40221A70A3F22B334FF4EC
:1013E00000421A60704700BF34800440BF96FF1F60
:1013F0005696FF1FC896FF1FC096FF1F5596FF1FEA
:101400000CB0044000B006402FE400E0134A93788B
:1014100000F0030103F0EC030B43410748BF43F026
:101420001003937000F00F03042B0C4903D18B7948
:1014300043F040038B715379C20603F0EF03074A70
:1014400048BF43F0100353719379810603F0EF0313
:1014500048BF43F010039371704700BF00B00640CF
:1014600008B50E4B1B681B0500D408BD0C4B1A7841
:1014700002F0FF0312B101F04BFBF7E7094A4FF40A
:1014800000411160084A0949D37040F203120A6012
:101490004A60074A1370074A137008BD348004403D
:1014A0005596FF1F84E100E000B006400CB00440F8
:1014B000BF96FF1F5696FF1F38B50446094B1B7891
:1014C00003F0FF05002BF9D120460121FFF7F6FBC1
:1014D00020462946FFF7D2FB034B53F83420034B39
:1014E0001A6038BD5596FF1F1C360000C496FF1FBA
:1014F0000B4B1B6813F4006310D01628094B09D15D
:10150000094A4FF4407111605A7B42F008025A7345
:10151000012070475A7B02F0F7025A73002070478F
:101520003480044000B0064004B004400B4B1B68FC
:1015300013F4006310D01728094B09D1094A4FF45E
:10154000407111605A7B42F001025A7301207047CA
:101550005A7B02F0FE025A73002070473480044028
:1015600000B0064008B00440F8B51D4B1B681A05D2
:10157000064633D51B4B1B680BB101221A701A4B60
:101580001C780134282C1F4628BF0024174D2B78C7
:10159000A34218D1FFF726FB40280FDC144A137929
:1015A0001B06F3D52B7813490133282B28BF0023C2
:1015B000C95CDBB2C9B2D1712B70E7E7FF28E5DD6A
:1015C00001F0A6FAE2E70B4BF6B21E550A4B0122D8
:1015D0001A70074BE4B2BC223C70DA70F8BD00BF51
:1015E00034800440C496FF1FC896FF1FC096FF1F9B
:1015F00000B006405796FF1F5596FF1F274B1B68EC
:101600001A052DE9F04707468A4644D5244B1B6846
:101610000BB101221A703D4607EB0A039D4237D2F7
:10162000DFF890801F4E98F8004096F80090013443
:10163000282C28BF00245FFA89F9A1451DD11A4B37
:10164000BC22DA70FFF7CEFA40280FDC164A137975
:101650001B060FD5337815490133282B28BF0023EB
:10166000C95CDBB2C9B2D171337003E0FF2801DD80
:1016700001F04EFA33784B45E4D00C4B15F8012BB2
:101680001A550B4B0122E4B21A7088F80040C3E7E8
:10169000054BBC22DA70BDE8F08700BF34800440FF
:1016A000C496FF1FC096FF1F00B006405796FF1F4D
:1016B0005596FF1FC896FF1F08B5034B1B7813B143
:1016C00001F026FAF9E708BD5596FF1F064A074BB9
:1016D0001B781078DBB2C0B283422CBF273000F1F8
:1016E000FF30C01A704700BFC096FF1FC896FF1F8B
:1016F000054B1878054B1B78C0B2DBB2984238BF57
:101700004030C01A704700BFBF96FF1F5696FF1F9C
:10171000094B0A4A19781378DBB2994208D0013391
:10172000402B28BF00230649C85CDBB2137070470A
:101730004FF0FF30704700BFBF96FF1F5696FF1F48
:101740007F96FF1F084B1A78084B1B78DBB29A4232
:1017500007D00133402B28BF0023054AD05CC0B21C
:1017600070474FF0FF307047BF96FF1F5696FF1F20
:101770007F96FF1F0A4B1B681B050FD5094BDA78B4
:1017800002F0CB02DA7040225A74DA7842F0340266
:10179000DA70054B1A78054BD2B21A70704700BF49
:1017A0003480044000B006405696FF1FBF96FF1FCE
:1017B00030B5304B1A7912F0300F23D072B69A7DC3
:1017C00002F0FF0122B9DA7940225A7462B619E0B8
:1017D00062B6294B29481A780478D2B2E4B2184686
:1017E000244BDD79531C402B28BF0023A342EDB2CC
:1017F00002D0234AD5541A464B1E13F0FF01EFD1F5
:10180000D2B202701B4BD978C9B20C0620D51B7915
:1018100018061DD51B4B1C4A1D781378EDB2DBB2A0
:101820001046AB420CD0134A0133282B1479174CC5
:1018300028BF0023E45CE4B2D471127D072AF0D9FA
:10184000DBB203700B4B1A79120644BF7C22DA70AC
:101850004B060ED5074B1A7912F0400F194608D0E7
:101860000B4B00221A700B4B1B6803B11A703C2300
:10187000CB7030BD00B00640BF96FF1F5696FF1FCD
:101880007F96FF1FC896FF1FC096FF1F5796FF1F2A
:101890005596FF1FC496FF1F174B1A6842F48052DB
:1018A0001A60164A00231370154A1370154A1370F4
:1018B000154A1370154A1370154A40F2133111601E
:1018C0004FF451715160134AC0F344311170C0F3A9
:1018D000471100F01F0051709072937013742C2305
:1018E000D3700D4B40226FF44B711A700B444FF4C0
:1018F00000321A60704700BF348004403397FF1FE6
:10190000CA96FF1F3C97FF1F3497FF1FC996FF1F02
:1019100008C0044000C0064031E400E0134A937858
:1019200000F0030103F0EC030B43410748BF43F011
:101930001003937000F00F03042B0C4903D18B7933
:1019400043F040038B715379C20603F0EF03074A5B
:1019500048BF43F0100353719379810603F0EF03FE
:1019600048BF43F010039371704700BF00C00640AA
:1019700008B50E4B1B68DB0400D408BD0C4B1A786D
:1019800002F0FF0312B101F0C3F8F7E7094A4FF480
:1019900000311160084A0949D37040F203120A600D
:1019A0004A60074A1370074A137008BD3480044028
:1019B000C996FF1F84E100E000C0064008C0044053
:1019C0003397FF1FCA96FF1F38B50446094B1B7893
:1019D00003F0FF05002BF9D120460121FFF76EF936
:1019E00020462946FFF74AF9034B53F83420034BAE
:1019F0001A6038BDC996FF1F1C3600003897FF1FBC
:101A00000B4B1B6813F4805310D00228094B09D1EB
:101A1000094A4FF4407111605A7B42F008025A7330
:101A2000012070475A7B02F0F7025A73002070477A
:101A30003480044000C0064000C004400B4B1B68CB
:101A400013F4805310D00E28094B09D1094A4FF4E2
:101A5000407111605A7B42F001025A7301207047B5
:101A60005A7B02F0FE025A73002070473480044013
:101A700000C0064004C00440F8B51D4B1B68DA04E2
:101A8000064633D51B4B1B680BB101221A701A4B4B
:101A90001C780134282C1F4628BF0024174D2B78B2
:101AA000A34218D1FFF79EF840280FDC144A13799F
:101AB0001B06F3D52B7813490133282B28BF0023AD
:101AC000C95CDBB2C9B2D1712B70E7E7FF28E5DD55
:101AD00001F01EF8E2E70B4BF6B21E550A4B01224D
:101AE0001A70074BE4B2AC223C70DA70F8BD00BF4C
:101AF000348004403897FF1F3C97FF1F3497FF1F27
:101B000000C00640CB96FF1FC996FF1F38B504469C
:101B10004518AC4204D014F8010BFFF7ADFFF8E70D
:101B200038BDFFFF08B5034B1B7813B100F0F0FF81
:101B3000F9E708BDC996FF1F064A074B1B781078C6
:101B4000DBB2C0B283422CBF273000F1FF30C01A95
:101B5000704700BF3497FF1F3C97FF1F054B187855
:101B6000054B1B78C0B2DBB2984238BF4030C01A78
:101B7000704700BF3397FF1FCA96FF1F094B0A4AE1
:101B800019781378DBB2994208D00133402B28BF73
:101B900000230649C85CDBB2137070474FF0FF307A
:101BA000704700BF3397FF1FCA96FF1FF396FF1FB2
:101BB000084B1A78084B1B78DBB29A4207D00133E6
:101BC000402B28BF0023054AD05CC0B270474FF0BD
:101BD000FF3070473397FF1FCA96FF1FF396FF1F12
:101BE000024B1A78024BD2B21A707047CA96FF1F86
:101BF0003397FF1F10B5214B1A7992060FD5204A53
:101C0000D87913781F490133402B097828BF002366
:101C10008B42C0B203D01C49C854DBB21370174AC0
:101C2000D178C9B20C0616D51379180613D5174BFF
:101C300017481C780378DBB29C4202D16C23D37026
:101C400009E00133282B28BF0023124CE45CDBB2EF
:101C5000E4B2D47103704B060ED5084B1A7912F01A
:101C6000400F194608D00C4B00221A700B4B1B6812
:101C700003B11A702C23CB7010BD00BF00C006400A
:101C80003397FF1FCA96FF1FF396FF1F3C97FF1F56
:101C90003497FF1FCB96FF1FC996FF1F3897FF1F72
:101CA0001FB572B6154B70221A70154A412111707A
:101CB0000F2102F8011C80221A701A781206FCD536
:101CC000104B186862B6104B984298BF0A2301ACBB
:101CD00098BF584321460A22FEF7A2FF0023E15C89
:101CE0000A4A29B102EB430001330A2B4180F6D1A5
:101CF00001335B00137004B010BD00BF0000024050
:101D000007000240080002407F969800EC8CFF1FFD
:101D1000F0B50C4B0C4C1A7842F0020504EBC506EA
:101D200082F00102706009481A700678002E0CBF1C
:101D30008827C82786F0010647EA0141067044F863
:101D40003510F0BD9897FF1F0080FF1F0098FF1F00
:101D5000431E012B10B510D872B6094A52F8230061
:101D600048B1416842F82310064A018832F813400E
:101D7000611A22F8131062B610BD002010BD00BF1A
:101D80009097FF1FC898FF1F013801280AD872B624
:101D9000054B53F82030002013B101305B68FBE79E
:101DA00062B6704700207047DC97FF1F10B572B60F
:101DB0001A4B1A7812F0080F1C46194B04D0194A16
:101DC000116A81B1926AC2B16278120704D5154ACC
:101DD000116C51B1926C92B162B600221A70BDE8DA
:101DE000104000F0DFBB042200E008220D4901EBA7
:101DF000C204083060600C4808E0052200E00922B7
:101E0000084901EBC20408306060084841F832001C
:101E10001A78013A1A7062B610BD00BF2C37000064
:101E2000F697FF1F0080FF1F88004000C800400099
:101E3000431E012B30B532D8194A400140F0100042
:101E4000104472B6174CE25C032A09D8DFE802F0AE
:101E5000160218050830022213E00830042210E0B0
:101E60001148124A50F8234014B940F8231002E0F8
:101E700052F82300416042F823100FE0032200E0F3
:101E80000522E25410F0080F01F108030A884360AC
:101E90000CBF8823C82343EA0243036062B630BD07
:101EA0000080FF1F4C97FF1FDC97FF1FE497FF1F69
:101EB0002DE9F84FAB4F3B78DBB213F0040F3A46F5
:101EC0000ED0A949097849B1A848047804F0FF0167
:101ED00024B10139C9B2017001B900BE04213970C1
:101EE00003F0080000F0FF01002800F03682A04B4C
:101EF000A04C1A78D2B215094FEA920840F0B3818B
:101F000054F8382004EBC803C2F38302013A5B683B
:101F10000C2A00F2A581DFE812F07B017B01A3010E
:101F2000A301A301A301A301A3017F01A301A301B5
:101F3000A3010D00904D1A685B686B608F4B44F8ED
:101F400038302A60DFF868828D4892B20023012180
:101F5000B2F5A06FC8F800302361A361017000F0F2
:101F60002D8114D8822A00F0B88006D8802A40F04B
:101F7000F480844C2370637022E1B2F5817F00F01D
:101F8000B98040F202339A4200F0C280E5E0B2F537
:101F9000086F00F09C8008D8A2F5D062012A00F2F8
:101FA000DC806A88A988784BC6E0B2F5106F40F0F3
:101FB000D4806D4B6F4EAA781A7006F14009336ACF
:101FC0001B0603D5706A083800F0ECFA08364E4557
:101FD000F5D10026B146DFF8DCA156F80A0028B199
:101FE000D0F804B000F0DEFA5846F8E74AF80600E8
:101FF000664BDFF8C4A1F05056F80A0028B1D0F8BB
:1020000004B000F0CFFA5846F8E7614B4AF80600F2
:10201000F050604B23F819005F4B19F80320023A87
:10202000032A08D8DFE802F002040204002200E0DC
:10203000012203F8092009F10109B9F1020F06F1A3
:102040000406C8D1554B00221A7001269A46544AFC
:10205000544B3244334412F8012C9B0012F0080F09
:102060001A704FEA860925D000F07EFA38B104EBE9
:102070004613083058604C4B44F8393006E09AF863
:10208000003044F8390001338AF8003000F06CFA6F
:1020900049F0010338B104EBC30208305060374AFD
:1020A00044F8332006E044F833009AF80030013356
:1020B0008AF8003049F00202013649F00309002392
:1020C000032E44F8323044F83930C0D176E0264B44
:1020D0002C4C1B7823700B4673E0AA88022A3CD84C
:1020E000284C920023706370304B9B5C9E0767D531
:1020F000217065E0AA8802F07F02022A2DDC6B883D
:102100005BBB9100294A0A44117821F002010CE0DE
:10211000AA8802F07F02022A1FDC6B88EBB99100CB
:10212000224A0A44117841F00201117046E033F866
:102130000C6C964207D00C3353F8084CA3F10C00FA
:10214000002CF4D109E033F80A6C8E42F3D1120A64
:10215000032A0CBF2378038933E0144B0F221A7033
:1021600053E000BF80200740FF97FF1F9997FF1F94
:10217000902007400080FF1FEC97FF1FC800400021
:102180000098FF1FF797FF1F3C3700004497FF1F81
:10219000E497FF1FC898FF1F4C97FF1FF697FF1F7C
:1021A0002C37000030C8011088004000C0200740D4
:1021B0004097FF1F9097FF1FDC97FF1F1C4600E012
:1021C0000223EE88B34238BF1E46402E34BF354648
:1021D000402520462946FFF79BFD761B2C4403D162
:1021E000402D12D1354603E0402E34BF3546402500
:1021F00020462946FFF78CFD761B2C4401D1402D4B
:1022000003D1724AC8F8004016800122704B26E0C4
:10221000704B44F8383023E06F4E3568B5B1DFF8C5
:10222000AC81B8F80090B9F1400F34BF4C4640245F
:1022300028462146FFF76CFDC4EB09039BB2A8F8C2
:1022400000300BB9402C00D12B193360634B1A8836
:10225000B2F5A06F04D100225A709A78604B1A70C0
:1022600001225B4B6CE004EBC806013D736802F091
:102270000802A3F10800EDB202F0FF01002A36D0F7
:1022800000F090F95748584B50F82520EAB15168B2
:1022900040F8251002F108017160595D03290BD83F
:1022A000DFE801F002040608032104E0022102E055
:1022B000052100E00421595516F0080F12880CBFC3
:1022C0008823C82343EA024342E05A5D032A07D821
:1022D000DFE802F040400204002206E0012204E0B0
:1022E00016F0080F0CBF022203225A5532E054F8B0
:1022F0003820120C23F8082C22B3DFF81CE123F855
:10230000061C43F8041C5EF82530384913B94EF812
:10231000250002E051F825305860354B41F8250082
:1023200033F815100A4423F8152000F01DF910B1F8
:102330000830706006E02F4B44F838001A780132FC
:102340001A7007E0234B2C4A16F0080F08BF1346FB
:1023500044F8383008233B70ACE5DC0720D51C4836
:10236000254C264D02230370254B1970254B1C600C
:102370009C60254CDC605D6019619961234B0D24E4
:102380001C70234CFF2323701370154A117002F840
:102390000C3C204B9F221A7001230370BDE8F88F7C
:1023A000180604D519490D2008708021117099076D
:1023B00005D517490878C0B2087002211170DB06F4
:1023C00044BF10231370BDE8F88F00BFF497FF1FC0
:1023D00094200740C80040004097FF1FEC97FF1F64
:1023E00098200740DC97FF1F4C97FF1F4497FF1F63
:1023F000C898FF1FF697FF1F880040005097FF1FE7
:102400009897FF1F0080FF1F9C97FF1FC020074069
:1024100088200740842007409097FF1F08B5FFF7EA
:102420003FFC1B4B1B4900221A609A601A61086826
:102430005A6040F48020DA605A61086001F5283162
:102440006831C3F307200870C3F307401B0E0875FB
:102450000B76FF2301F81C3C01F8143C01F88C3C7E
:10246000012301F8083C81F864200B4A13700B4BE0
:1024700070226FF450711A700B444FF400721A609E
:1024800003F1C04303F5C82310221A7008BD00BF32
:102490000080FF1F348004408420074049E400E0AE
:1024A00038B541F6B564184B1B7853B30120FFF7DC
:1024B0006BFC0228154D02D9013C0DD10EE000F055
:1024C00053F801460028F7D000232B70104B00F181
:1024D000080203F1200007E02B7813B101232B70D1
:1024E0000FE000F015FBDEE753F8044B42F8044B15
:1024F0008342F9D120230B800120FFF799FC0020B3
:1025000038BD4FF0FF3038BDFF97FF1F0198FF1F08
:10251000CC98FF1FF8B5124B1E6805460C461F46A7
:10252000104B1B78ABB10120FFF712FC024638B903
:102530003B689B1BA3420FD87CB100F0E9FAEFE7A0
:1025400052F8083F2B6053686B6000F02BF80820AE
:10255000F8BD4FF0FF30F8BDF8BD2046F8BD00BF14
:10256000C495FF1FFF97FF1F72B60C4A1168B1FA9E
:1025700081F3172B02D962B6002070474FF000405C
:10258000D84021EA0001116062B605494822534350
:10259000C8180022CA504260704700BF048DFF1F58
:1025A0000084FF1F0C4B4822C31AB3FBF2F3172B16
:1025B00011D80A4A127822B1094A12780AB1FFF7F3
:1025C000F5BB72B6074A4FF0004121FA03F31168D8
:1025D0001943116062B670470084FF1FF697FF1F12
:1025E000FF97FF1F048DFF1FF8B5164B164D1A6895
:1025F00042F080721A60154B1A6842F001021A60AC
:10260000134B2E681C688CB1237A6BB123682F683A
:102610001B68204698472A68E188D21B120993B2AA
:102620008A42A38088BFE3806469ECE72968094B8C
:10263000891B09098AB21A80074B1888814288BF12
:102640001A80F8BDFCED00E0041000E0001000E08E
:102650000498FF1F0A98FF1F0898FF1F08B503681A
:10266000C9B21B68984708BD08B50368C9B21B68A2
:10267000984708BD08B50368C9B21B68984708BDEC
:1026800008B50368C9B21B68984708BD4B0803F139
:10269000377000F5D840B0FBF1F0FEF7ABBB10B5DA
:1026A0004B0803F1377000F5D8401446B0FBF1F049
:1026B000FEF7A0FB2046BDE81040FEF7E1BBFEF7A9
:1026C00009BC0846FEF73ABC08B50846FEF752FCBE
:1026D000003018BF012008BD08B50846FEF76CFCA5
:1026E000003018BF012008BDFEF750BDFEF788BDC1
:1026F000FEF75CBDFEF72EBDFEF79ABDFEF734BDBA
:1027000008B50846FEF77EFC012008BD08B508465E
:10271000FEF778FC012008BD10B5084614461146A6
:10272000FEF7BAFC204610BD38B508460D4600F04D
:10273000A9FD044621462846FEF7AEFC204638BDDA
:10274000044B00221A714FF47A711A73024A99608D
:102750001A6070471098FF1FB037000008B5036873
:10276000C9B21B68984708BD08B50368C9B21B68A1
:10277000984708BD08B50368C9B21B68984708BDEB
:1027800008B50368C9B21B68984708BD4B0803F138
:10279000377000F5D840B0FBF1F0FEF7F1BD10B591
:1027A0004B0803F1377000F5D8401446B0FBF1F048
:1027B000FEF7E6FD2046BDE81040FEF727BEFEF717
:1027C0004FBE0846FEF778BE08B50846FEF790FEF5
:1027D000003018BF012008BD08B50846FEF7A6FE68
:1027E000003018BF012008BDFEF782BFFEF7AABF68
:1027F000FEF78EBFFEF760BFFEF7BCBFFEF766BFF9
:1028000008B50846FEF7B0FE012008BD08B5084629
:10281000FEF7AAFE012008BD10B508461446114671
:10282000FEF7ECFE204610BD38B508460D4600F018
:1028300029FD044621462846FEF7E0FE204638BD25
:10284000044B00221A714FF47A711A73024A99608C
:102850001A6070472098FF1F0838000008B5036809
:10286000C9B21B68984708BD08B50368C9B21B68A0
:10287000984708BD08B50368C9B21B68984708BDEA
:1028800008B50368C9B21B68984708BD4B0803F137
:10289000377000F5D840B0FBF1F0FEF7FDBF10B582
:1028A0004B0803F1377000F5D8401446B0FBF1F047
:1028B000FEF7F2FF2046BDE81040FFF72FB8FFF704
:1028C00057B80846FFF780B808B50846FFF798F8EC
:1028D000003018BF012008BD08B50846FFF7AEF864
:1028E000003018BF012008BDFFF738B9FFF760B905
:1028F000FFF744B9FFF716B9FFF772B9FFF71CB934
:1029000008B50846FFF7B8F8012008BD08B5084625
:10291000FFF7B2F8012008BD10B50846144611466D
:10292000FFF7F4F8204610BD38B508460D4600F014
:10293000A9FC044621462846FFF7E8F8204638BDA2
:10294000044B00221A714FF47A711A73024A99608B
:102950001A6070473098FF1F6038000008B5034BBD
:1029600001221A60024B1B68984708BD0C71034096
:102970004898FF1F08B5034B01221A60024B5B68A1
:10298000984708BD1C7103404898FF1F08B5034BCA
:1029900001221A60024B9B68984708BD2C710340C6
:1029A0004898FF1F08B5034B01221A60024BDB68F1
:1029B000984708BD3C7103404898FF1F064B012211
:1029C0001A6003F588333C331A6822F400021A6057
:1029D000024B00221A707047007003404498FF1F9A
:1029E0008268002310B51360027B0121541102F0AC
:1029F0001F0201FA02F2084941F82420074A4178EF
:102A00005354D15C31B90133042BFAD1BDE81040E5
:102A1000FFF7D4BF10BD00BF80E100E04098FF1F6A
:102A2000037810B504460BB1FFF7DAFF00232370DB
:102A300010BD70B506460D46002433192846197995
:102A40000A220023013400F015F8042C05D02B686D
:102A500028461B682E219847EFE7204670BDFFFFF0
:102A6000024B034A1A6000225A6070475898FF1FB1
:102A7000B838000070B505468AB022B90368C9B2FB
:102A80001B6898472CE0012A08BF0A2221B930228E
:102A90008DF82520212413E02124B1FBF2F002FB64
:102AA0001011C9B209290AAE94BF3031373126441A
:102AB000C9B206F8241C014610B1013CE4B2ECE7AF
:102AC00033B1013CE4B20AAB23442D2203F8242C99
:102AD0002B6801A95B6828462144C4F1220298476B
:102AE0000AB070BD10B50446FFF79AFF204610BD2E
:102AF00004480549054A002303708023437300F00E
:102B000085B800BF6098FF1FE52A0000C08AFF1F3C
:102B1000024B1A7802B91A70704700BF7698FF1FEF
:102B2000094BDA68824210B50DD01A6812F4804F52
:102B300040F0804102D0D860196110BD034C1C6088
:102B4000D86019611A6010BD00C0024001401F002A
:102B5000164B1A6842F480521A60154B154A1A60D7
:102B6000154ADA6002F180421A61144A1A60144B65
:102B70001B78DA0755BF134A134A4FF410714FF40C
:102B8000007113F0020F11600CBF104910495B0770
:102B90004FF4007254BF0F4B0F4B0A6054BF4FF4F9
:102BA00010724FF400721A60704700BF3C800440FE
:102BB00000C0024001401F000110003800001F80CB
:102BC0000C98FF1F18B0044008C004401CB004401B
:102BD0000CC0044014B0044004C00440094B1A68FF
:102BE00042F480521A60084BDB6803F0E0629B01FC
:102BF00005D520F4704300F4704043EA10101043F0
:102C0000FFF78EBF3C80044000C0024003460846E8
:102C1000194600F001B800BF10B40C461346014637
:102C2000224602205DF8044B00F05CBB70B50F4EED
:102C30000F4D761BB61007D0043D0024013455F823
:102C4000043F9847A642F9D10A4E0B4D761B00F07F
:102C500081FEB61008D0043D0024013455F8043F2D
:102C60009847A642F9D170BD70BD00BF6039000021
:102C7000603900008039000060390000024B0146D5
:102C8000186800F003B800BF3091FF1F2DE9F04F26
:102C900001F10B05162D83B0064627D935F007053F
:102CA00027D4A94225D8304600F0D6FAB5F5FC7FE6
:102CB00026D2C14F4FEAD50C07EBCC03DC689C420F
:102CC00000F0D2816368E268A16823F00303234423
:102CD00030465D68CA6045F0010591605D6000F0B6
:102CE000BDFA0834204603B0BDE8F08F1025A94294
:102CF000D9D900240C232046336003B0BDE8F08FFF
:102D00005FEA552C00F08A80BCF1040F00F260816C
:102D10004FEA951C0CF1380C4FEA4C01A64F07EB1B
:102D20008101CC68A14205D10CE0002B7ADAE4687D
:102D3000A14207D0626822F00302531B0F2BF4DD7F
:102D40000CF1FF3C0CF1010C9B4B3C6903F1080EAC
:102D5000744500F07E81616821F003014A1B0F2A4F
:102D600000F36481002AC3F814E0C3F810E06ADAC3
:102D7000B1F5007F80F03A81C90803EBC1004FEA4A
:102D8000A1085A688168A1604FF0010909FA08F8A2
:102D900048EA0202E0605A608460CC604FEAAC030B
:102DA0000120984090425BD8024206D12CF0030CDF
:102DB000400002420CF1040CFAD007EBCC08444668
:102DC000E146E3689C4207D145E1002A80F2568142
:102DD000DB689C4200F03F81596821F003014A1BE7
:102DE0000F2AF2DD1C46D3F80CC054F8088F59198D
:102DF00045F0010942F00105C3F804903046C8F8D7
:102E00000CC0CCF8088079613961C1F80CE0C1F8D8
:102E100008E04D608A5000F021FA63E77E214FF010
:102E20003F0C7BE72244E3685068A16840F001054D
:102E3000CB6030469960556000F010FA08342046A7
:102E400003B0BDE8F08F214430464B6843F00103E6
:102E50004B6000F003FA0834204603B0BDE8F08F61
:102E6000BC68636823F00309A94504D3C5EB0903D3
:102E70000F2B00F39180514B514A196813680133AD
:102E800005EB010A04EB090B00F061810AF5805A99
:102E90000AF10F0A2AF47F6A2AF00F0A30465146D7
:102EA000019200F0DDF9B0F1FF3F8046019A00F099
:102EB0000081834500F2FA80DFF810C1DCF80030B1
:102EC000C3455344CCF8003000F04A8112683C49B5
:102ED00001321BBFCBEB080B5B44C1F80080CCF880
:102EE000003018F0070300F01381C3F10802C3F5A6
:102EF000805390440833C244CAF30B0ACAEB030A56
:102F000051463046CDF804C000F0AAF9431CDDF864
:102F100004C000F03581C8EB0002524442F00102C7
:102F2000DCF80030C7F808805344BC42C8F80420DD
:102F3000CCF80030DFF894A015D0B9F10F0F40F2B3
:102F4000EA806168A9F10C0222F0070201F0010E8B
:102F5000A118052042EA0E0E0F2AC4F804E04860CA
:102F6000886000F21181174ABC6811688B4288BFE3
:102F70001360154A11688B4288BF1360626822F0A3
:102F800003029542C5EB020301D80F2B04DC304647
:102F900000F064F90024A5E6621943F0010345F04E
:102FA000010565603046BA60536000F057F9083497
:102FB000204603B0BDE8F08F3491FF1F9C98FF1F9F
:102FC0004095FF1F9898FF1F9498FF1FA098FF1F20
:102FD000BCF1140F61D9BCF1540F00F28F804FEA9D
:102FE000153C0CF16E0C4FEA4C0197E64B0A042B92
:102FF00058D9142B00F2AE8003F15B02500007EBAE
:103000008000DFF8BC818368834200F08A805A68C0
:1030100022F00302914202D29B689842F7D1D9680C
:103020007A68E160A3608C60DC60B7E6611942F009
:10303000010745F001056560304659611961C1F825
:103040000CE0C1F808E04F608A50083400F006F93F
:1030500048E65A68A2E609F1010919F0030F04F1E4
:1030600008047FF4AEAE2DE004F108036469A342C6
:1030700008BF0CF1020C3FF467AE23E619441C466E
:103080004868DB6854F8082F40F001054D60304671
:10309000D3609A6000F0E2F824E60CF15B0C4FEA92
:1030A0004C013BE68A0938325000A8E7BC423FF4A5
:1030B00003AFBC68626822F0030262E7D8F80080C0
:1030C00098457BD11CF0030FA8F108030CF1FF3CDD
:1030D000F4D17B6823EA00037B60400098423FF60E
:1030E000BFAE00283FF4BCAE0342CC467FF465AED1
:1030F000400003420CF1040CFAD05EE6BCF5AA7F56
:103100001AD84FEAD53C0CF1770C4FEA4C0105E692
:103110004FF48053EFE60123C8F804304446002200
:103120002FE791100120D8F8042000FA01F10A439A
:10313000C8F80420194674E740F254539C451BD844
:103140004FEA954C0CF17C0C4FEA4C01E6E50AF194
:10315000100AA3E6542B1FD80A0B6E3250004EE71C
:10316000CBF30B0100297FF4B1AE0AEB0901BA6879
:1031700041F001015160F6E6FC214FF07E0CCDE5F7
:1031800001224FF0000ACBE604F10801304600F0BE
:1031900073F9DAF80030E6E6B3F5AA7F03D8CA0B74
:1031A000773250002BE740F25452934203D88A0CF6
:1031B0007C32500023E7FC207E2220E77B688CE7EE
:1031C0003491FF1FF0B4840743D0541E002A3ED030
:1031D000CDB2034603E0621E002C38D0144603F83B
:1031E000015B9A07F7D1032C2AD9CDB245EA052510
:1031F0000F2C45EA054515D9A4F110073F0903F145
:10320000100606EB07161A46156055609560D560E6
:103210001032B242F8D104F00F040137032C03EB53
:1032200007130DD91E462246043A032A46F8045BCA
:10323000FAD8221F22F003020432134404F00304DC
:103240002CB1C9B21C4403F8011BA342FBD1F0BC52
:10325000704714460346C6E7704700BF704700BF7B
:1032600038B5074C0023054608462360FDF7B2FC3D
:10327000431C00D038BD2368002BFBD02B6038BD29
:10328000EC98FF1F20F0030110F00300C0F10000D4
:1032900051F8043B00F1040C4FEACC0C6FF0000233
:1032A0001CBF22FA0CF213434FF0010C4CEA0C2C19
:1032B0004CEA0C4CA3EB0C0222EA030212EACC12F9
:1032C00004BF51F8043B0430F4D013F0FF0F1FBFCC
:1032D000013013F47F4F013013F47F0F18BF01301A
:1032E000704700BFF0B5274C2668D6F8484185B036
:1032F0000746002C41D065681F2D1EDD224818B9F5
:103300004FF0FF3005B0F0BD4FF4C870039102924A
:103310000193FFF7B3FC0399029A019B044600282E
:10332000EED0D6F848512560002060600546C6F80A
:103330004841C4F88801C4F88C013FB9AB1C002097
:103340000135656044F8231005B0F0BD04EB85003D
:103350004FF0010CC0F88820D4F888610CFA05F20F
:103360001643022FC4F88861C0F80831E6D1D4F8BA
:103370008C311A43C4F88C21E0E706F5A674C6F830
:103380004841B8E7503900007D2C0000024B13B1D2
:10339000024800F005B8704700000000AD3300009F
:1033A0000146002002460346FFF79CBF38B5094D91
:1033B000094C641BA41018BF05EB840505D0013C23
:1033C00055F8043D9847002CF9D1BDE8384000F08D
:1033D000D7BA00BF0000000000000000F8B5234D80
:1033E0000F460446FFF738FFAB685E6826F0030619
:1033F000F11B01F6EF7121F47F6121F00F01A1F5BE
:103400008057B7F5805F07DB20460021FFF728FFD4
:10341000AB683344984204D02046FFF71FFF0020DA
:10342000F8BD20467942FFF71BFF01300DD0104B4D
:10343000AA681968F61B46F001062046C91B5660AB
:103440001960FFF70BFF0120F8BD20460021FFF7B0
:1034500007FFAB68C21A0F2ADEDD064D04492D684E
:1034600042F00102401B5A600860D5E73491FF1F0B
:10347000A098FF1F4095FF1F2DE9F0410D4606461D
:10348000002955D0FFF7E8FE55F8041CDFF874C199
:1034900021F00103A5F10804E218DCF808005768E0
:1034A000904227F0030769D011F00101576032D034
:1034B0000021D0194068C00706D43B449068002919
:1034C0004ED0D268C260906043F001026260E35067
:1034D000E1B9B3F5007F2DD35A0A042A6AD89809B6
:1034E000383041000CEB810C4649DCF8082062457D
:1034F00066D0516821F003018B4202D29268944554
:10350000F7D1D368E360A2609C60D4603046BDE828
:10351000F041FFF7A3BE55F8085C641B0CF10808E6
:10352000A06840452B4443D0E568C560A860C0E76B
:10353000BDE8F081DB080CEBC3020125DCF80400D8
:103540009168A1609B1005FA03F31843E260CCF880
:10355000040094603046CC60BDE8F041FFF77EBEC9
:10356000294DA842ADD143F00102CCF81440CCF86B
:103570001040E060A0606260E350C7E71F44CB07E3
:1035800007D455F8083CE41A1F44A268E368D360E6
:103590009A601E4B1B6847F001029F426260CCF8A4
:1035A0000840B3D31A4B30461968FFF717FFADE751
:1035B00001217EE7142A0CD802F15B00410091E75B
:1035C0004B688010012505FA00F003434B60134659
:1035D00098E7542A03D8180B6E30410082E7B2F501
:1035E000AA7F03D8D80B773041007BE740F25451D3
:1035F0008A4203D8980C7C30410073E7FC217E207E
:1036000070E700BF3491FF1F3C91FF1F3C95FF1FE7
:103610009C98FF1F0006FF02FFFFFF044008FE43C7
:1036200040A004404408FE4344A004400018FE4368
:1036300000C004403000FE43309004403400FE439C
:10364000349004401C18FE431CC004401018FE4374
:1036500010C004400818FE4308C004400C18FE4384
:103660000CC004400C10FE430CB004401010FE438C
:1036700010B004401810FE4318B004401C10FE4364
:103680001CB004401410FE4314B004400418FE4360
:1036900004C004400010FE4300B004400008FE4394
:1036A00000A004400408FE4304A004400C08FE43AC
:1036B0000CA004400808FE4308A004401418FE4370
:1036C00014C004401818FE4318C004400410FE4300
:1036D00004B004400810FE4308B004401400FE4348
:1036E000149004404C08FE434CA004400420FE43C8
:1036F00004D004402410FE4324B004402010FE43B4
:1037000020B004402810FE4328B004402C10FE4393
:103710002CB004400020FE4300D004404808FE4383
:1037200048A004401000FE43109004401D15FFFF08
:1037300000010000CC8BFF1F1200000000020000FF
:103740000E8CFF1F2900000000220000378CFF1F95
:103750009100000000210000208CFF1F09000000E4
:1037600000030000E88CFF1F0000000001030904B3
:10377000FE8BFF1F0000000002030904C88CFF1F1E
:103780000000000003030904EC8CFF1F0000000090
:1037900004030904DE8BFF1F00000000000000008E
:1037A0000000000000000000000000000000000019
:1037B0000127000019270000E9260000F12600007B
:1037C000ED260000F52600008D2600009F26000053
:1037D000BF260000C3260000C9260000D92600002D
:1037E000F9260000FD2600005D2600006926000085
:1037F0007526000081260000292700000D27000003
:10380000000000000000000001280000192800004E
:10381000E9270000F1270000ED270000F527000050
:103820008D2700009F270000BF270000C32700004E
:10383000C9270000D9270000F9270000FD27000054
:103840005D27000069270000752700008127000020
:10385000292800000D2800000000000000000000E2
:103860000129000019290000E9280000F1280000C2
:10387000ED280000F52800008D2800009F2800009A
:10388000BF280000C3280000C9280000D928000074
:10389000F9280000FD2800005D28000069280000CC
:1038A0007528000081280000292900000D2900004A
:1038B0000000000000000000332A000000000000AB
:1038C0000200030004000500060008000A000C00C6
:1038D000100014001800200028003800400060008C
:1038E0008000C00000018001000280020003FFFF91
:1038F0000000008000000180000000000000028045
:103900000000010001100000000002000110010091
:103910000320000001000200032001000430000029
:1039200003200200032003000540000005400100C1
:10393000065000000650010007600000076001000B
:1039400008700000076002000870010043000000DA
:10395000088DFF1FF8B500BFF8BC08BC9E46704735
:103960008D33000035040000990A00004127000053
:103970004128000041290000612A0000F12A0000CE
:04398000F8B500BFD7
:1039840000000000005EBCE2613FDD83C29C7E203B
:10399400A3FD1F419DC3217FFCA2401E5F01E3BD27
:1039A4003E6082DC237D9FC1421CFEA0E1BF5D031B
:1039B40080DE3C62BEE0025CDF81633D7C22C09E0F
:1039C4001D43A1FF4618FAA427799BC584DA3866FB
:1039D400E5BB5907DB856739BAE406581947A5FBE7
:1039E4007826C49A653BD987045AB8E6A7F91B45DB
:1039F400C6987A24F8A6441A99C7257B3A6486D8CF
:103A04005B05E7B98CD2306EEDB3510F4E10F2ACBA
:103A14002F7193CD114FADF3702ECC92D38D6F31A6
:103A2400B2EC0E50AFF1134DCE90722C6D33D18F9A
:103A34000C52B0EE326C8ED0530DEFB1F0AE4C128E
:103A440091CF2D73CA947628ABF517490856B4EA7A
:103A54006937D58B5709EBB536688AD495CB297766
:103A6400F4AA4816E9B7550B88D6346A2B7597C95A
:103A74004A14F6A8742AC896154BA9F7B6E80A544E
:103A8400D7896B350A040000F098FF1F1201000269
:103A940000000040B70E8E0302010102030120035F
:103AA40043006C0075006200530070006F007200E8
:103AB4007400200057006800650065006C00100366
:103AC4006400610072006B006E0061006F00090207
:103AD4002900010100C032090400000203000004AF
:103AE4000921110100012291000705810320000230
:103AF4000705010308001005010904A101050919BE
:103B04000129251500250175019525810295017569
:103B1400038101050109300931150026FF007508EC
:103B24009502810205010939150025073500463B38
:103B3400016514750495018142953175048101056F
:103B44000A090115002501A1020508094B75019513
:103B5400019102C00902A1020508094B75019501F2
:103B64009102C00903A1020508094B750195019151
:103B740002C00904A1020508094B750195019102CF
:103B8400C0950D75049101C0200343006C007500BD
:103B94006200530070006F00720074002000570030
:103BA4006800650065006C00040309040C03000050
:103BB4000000000000000000000000000000000001
:103BC40000000000FFFFFFFF00000000F48FFF1F54
:103BD4005C90FF1FC490FF1F000000000000000065
:103BE40000000000000000000000000000000000D1
:103BF4000000000000000000000000004C3900003C
:103C040000000000000000000000000000000000B0
:103C140000000000000000000000000000000000A0
:103C24000000000000000000000000000000000090
:103C34000000000000000000000000000000000080
:103C44000000000000000000000000000000000070
:103C54000000000000000000000000000000000060
:103C64000000000000000000000000000000000050
:103C740001000000000000000E33CDAB34126DE6ED
:103C8400ECDE05000B000000000000000000000056
:103C94000000000000000000000000000000000020
:103CA4000000000000000000000000000000000010
:103CB4000000000000000000000000000000000000
:103CC40000000000000000000000000000000000F0
:103FF400088DFF1F00000000000000003491FF1F27
:104004003491FF1F3C91FF1F3C91FF1F4491FF1F00
:104014004491FF1F4C91FF1F4C91FF1F5491FF1FB0
:104024005491FF1F5C91FF1F5C91FF1F6491FF1F60
:104034006491FF1F6C91FF1F6C91FF1F7491FF1F10
:104044007491FF1F7C91FF1F7C91FF1F8491FF1FC0
:104054008491FF1F8C91FF1F8C91FF1F9491FF1F70
:104064009491FF1F9C91FF1F9C91FF1FA491FF1F20
:10407400A491FF1FAC91FF1FAC91FF1FB491FF1FD0
:10408400B491FF1FBC91FF1FBC91FF1FC491FF1F80
:10409400C491FF1FCC91FF1FCC91FF1FD491FF1F30
:1040A400D491FF1FDC91FF1FDC91FF1FE491FF1FE0
:1040B400E491FF1FEC91FF1FEC91FF1FF491FF1F90
:1040C400F491FF1FFC91FF1FFC91FF1F0492FF1F3F
:1040D4000492FF1F0C92FF1F0C92FF1F1492FF1FEC
:1040E4001492FF1F1C92FF1F1C92FF1F2492FF1F9C
:1040F4002492FF1F2C92FF1F2C92FF1F3492FF1F4C
:104104003492FF1F3C92FF1F3C92FF1F4492FF1FFB
:104114004492FF1F4C92FF1F4C92FF1F5492FF1FAB
:104124005492FF1F5C92FF1F5C92FF1F6492FF1F5B
:104134006492FF1F6C92FF1F6C92FF1F7492FF1F0B
:104144007492FF1F7C92FF1F7C92FF1F8492FF1FBB
:104154008492FF1F8C92FF1F8C92FF1F9492FF1F6B
:104164009492FF1F9C92FF1F9C92FF1FA492FF1F1B
:10417400A492FF1FAC92FF1FAC92FF1FB492FF1FCB
:10418400B492FF1FBC92FF1FBC92FF1FC492FF1F7B
:10419400C492FF1FCC92FF1FCC92FF1FD492FF1F2B
:1041A400D492FF1FDC92FF1FDC92FF1FE492FF1FDB
:1041B400E492FF1FEC92FF1FEC92FF1FF492FF1F8B
:1041C400F492FF1FFC92FF1FFC92FF1F0493FF1F3A
:1041D4000493FF1F0C93FF1F0C93FF1F1493FF1FE7
:1041E4001493FF1F1C93FF1F1C93FF1F2493FF1F97
:1041F4002493FF1F2C93FF1F2C93FF1F3493FF1F47
:104204003493FF1F3C93FF1F3C93FF1F4493FF1FF6
:104214004493FF1F4C93FF1F4C93FF1F5493FF1FA6
:104224005493FF1F5C93FF1F5C93FF1F6493FF1F56
:104234006493FF1F6C93FF1F6C93FF1F7493FF1F06
:104244007493FF1F7C93FF1F7C93FF1F8493FF1FB6
:104254008493FF1F8C93FF1F8C93FF1F9493FF1F66
:104264009493FF1F9C93FF1F9C93FF1FA493FF1F16
:10427400A493FF1FAC93FF1FAC93FF1FB493FF1FC6
:10428400B493FF1FBC93FF1FBC93FF1FC493FF1F76
:10429400C493FF1FCC93FF1FCC93FF1FD493FF1F26
:1042A400D493FF1FDC93FF1FDC93FF1FE493FF1FD6
:1042B400E493FF1FEC93FF1FEC93FF1FF493FF1F86
:1042C400F493FF1FFC93FF1FFC93FF1F0494FF1F35
:1042D4000494FF1F0C94FF1F0C94FF1F1494FF1FE2
:1042E4001494FF1F1C94FF1F1C94FF1F2494FF1F92
:1042F4002494FF1F2C94FF1F2C94FF1F3494FF1F42
:104304003494FF1F3C94FF1F3C94FF1F4494FF1FF1
:104314004494FF1F4C94FF1F4C94FF1F5494FF1FA1
:104324005494FF1F5C94FF1F5C94FF1F6494FF1F51
:104334006494FF1F6C94FF1F6C94FF1F7494FF1F01
:104344007494FF1F7C94FF1F7C94FF1F8494FF1FB1
:104354008494FF1F8C94FF1F8C94FF1F9494FF1F61
:104364009494FF1F9C94FF1F9C94FF1FA494FF1F11
:10437400A494FF1FAC94FF1FAC94FF1FB494FF1FC1
:10438400B494FF1FBC94FF1FBC94FF1FC494FF1F71
:10439400C494FF1FCC94FF1FCC94FF1FD494FF1F21
:1043A400D494FF1FDC94FF1FDC94FF1FE494FF1FD1
:1043B400E494FF1FEC94FF1FEC94FF1FF494FF1F81
:1043C400F494FF1FFC94FF1FFC94FF1F0495FF1F30
:1043D4000495FF1F0C95FF1F0C95FF1F1495FF1FDD
:1043E4001495FF1F1C95FF1F1C95FF1F2495FF1F8D
:1043F4002495FF1F2C95FF1F2C95FF1F0000020022
:04440400FFFFFFFFB8
:00000001FF
