:1000000000180020C1000000B5120000811200009D
:100010008112000081120000811200008112000094
:10002000811200008112000081120000B512000050
:10003000B512000081120000B5120000711200001C
:10004000B5120000B5120000B5120000B512000094
:10005000B5120000B5120000B5120000B512000084
:10006000B5120000B5120000B5120000B512000074
:1000700091190000E51D000039220000B5120000B2
:10008000B5120000B5120000B5120000B512000054
:10009000B5120000B512000021320000B5120000B8
:1000A000F1240000B5120000B5120000B5120000E6
:1000B000B51200002D2E0000B5120000B512000090
:1000C00038B501F0FBF8454A454B1A60454A464BA6
:1000D0001A60464A464B1A60464B0822197811426C
:1000E00002D019780A431A70434B2A221A7000234F
:1000F000424A43499A188A4204D24249C9580433B1
:100100001160F5E7404B41491A1F181D00238A4230
:1001100002D21360031CF6E73D493E4A5958101CB1
:1001200099500433C02BF7D100239A083A49920022
:10013000521803211940C9001568FF248C40A543BB
:100140002C1C80258D40291C214301331160202B5C
:10015000EBD1324B8A221860314B1A70314B24227A
:100160005A70A0221A709A799107FCD59A79D5060F
:10017000FCD498790C212B4A01400829F9D103219C
:100180001171402151719A799106FCD59A795506E1
:10019000FCD5254AC02189051160224A2021117011
:1001A00099790C220A400C2AFAD1204A204B1A6075
:1001B000204A214B1A60214B00221A60204B072253
:1001C0001A60204A204B1A6062B601F079F904F0F7
:1001D000B9FB01F079F800F0FBFFFEE7300004F016
:1001E00034800440823F0000388004400100000F4A
:1001F0003C80044002D0074000E00740C0000020DF
:10020000C00A0020E0610000C40A0020500F002056
:100210000000000000F9FF1F00E400E008ED00E02E
:10022000005006400040064044800440C0000505E0
:1002300004800440BF5D000014E000E018E000E02E
:1002400010E000E00000202020ED00E0FFFFFFFFB5
:10025000FFFFFFFFFFFFFFFFFFFFFFFFFFFFFFFFAE
:10026000FFFFFFFFFFFFFFFFFFFFFFFFFFFFFFFF9E
:10027000FFFFFFFFFFFFFFFFFFFFFFFFFFFFFFFF8E
:10028000FFFFFFFFFFFFFFFFFFFFFFFFFFFFFFFF7E
:10029000FFFFFFFFFFFFFFFFFFFFFFFFFFFFFFFF6E
:1002A000FFFFFFFFFFFFFFFFFFFFFFFFFFFFFFFF5E
:1002B000FFFFFFFFFFFFFFFFFFFFFFFFFFFFFFFF4E
:1002C000FFFFFFFFFFFFFFFFFFFFFFFFFFFFFFFF3E
:1002D000FFFFFFFFFFFFFFFFFFFFFFFFFFFFFFFF2E
:1002E000FFFFFFFFFFFFFFFFFFFFFFFFFFFFFFFF1E
:1002F000FFFFFFFFFFFFFFFFFFFFFFFFFFFFFFFF0E
:10030000FFFFFFFFFFFFFFFFFFFFFFFFFFFFFFFFFD
:10031000FFFFFFFFFFFFFFFFFFFFFFFFFFFFFFFFED
:10032000FFFFFFFFFFFFFFFFFFFFFFFFFFFFFFFFDD
:10033000FFFFFFFFFFFFFFFFFFFFFFFFFFFFFFFFCD
:10034000FFFFFFFFFFFFFFFFFFFFFFFFFFFFFFFFBD
:10035000FFFFFFFFFFFFFFFFFFFFFFFFFFFFFFFFAD
:10036000FFFFFFFFFFFFFFFFFFFFFFFFFFFFFFFF9D
:10037000FFFFFFFFFFFFFFFFFFFFFFFFFFFFFFFF8D
:10038000FFFFFFFFFFFFFFFFFFFFFFFFFFFFFFFF7D
:10039000FFFFFFFFFFFFFFFFFFFFFFFFFFFFFFFF6D
:1003A000FFFFFFFFFFFFFFFFFFFFFFFFFFFFFFFF5D
:1003B000FFFFFFFFFFFFFFFFFFFFFFFFFFFFFFFF4D
:1003C000FFFFFFFFFFFFFFFFFFFFFFFFFFFFFFFF3D
:1003D000FFFFFFFFFFFFFFFFFFFFFFFFFFFFFFFF2D
:1003E000FFFFFFFFFFFFFFFFFFFFFFFFFFFFFFFF1D
:1003F000FFFFFFFFFFFFFFFFFFFFFFFFFFFFFFFF0D
:10040000FFFFFFFFFFFFFFFFFFFFFFFFFEFFFFFFFD
:1004100010B5064C2378002B07D1054B002B02D0DA
:10042000044800E000BF0123237010BDC00A002073
:1004300000000000E061000008B5084B002B03D06D
:100440000748084900E000BF07480368002B03D0B5
:10045000064B002B00D0984708BDC04600000000A6
:10046000E0610000C40A0020C00A00200000000073
:1004700038B5051C081C0C1C05F04AF82B68021C3A
:100480005B68281C211C984738BD38B5041C02F055
:100490003FFF051C201C02F05DFF401938BDFFFF27
:1004A000F0B58BB00191051C01F0EEF9041C12208F
:1004B00000F096FF184F061E01D1AC4222DA01234C
:1004C000164902A83B7003F025F802A906A803F01C
:1004D0003EF8134D06A8296803F0A9F8114903F066
:1004E0008CF8011C1048FFF7D0FF06A802F0CEFFE1
:1004F00002A802F0CBFF0D4B0D4A1A802B68013386
:100500002B6005E00198291C01F0A6F92C1C3E7017
:10051000201C0BB0F0BDC046E00A0020145B0000B8
:10052000C8000020255B0000300E00202E0B0020AC
:100530000083FFFFF0B5634D141C634A0F1C136862
:10054000296889B05B1A061C2B60232B18D85F49D9
:10055000684602F0DFFF694604A802F0F8FF296848
:1005600004A803F064F85A4903F047F8011C5948FD
:10057000FFF78BFF04A802F089FF684602F086FFB0
:10058000A378544D012B48D1E378022B1ED1524E53
:1005900023795249B37063796846F370A379337154
:1005A00002F0B8FF694604A802F0D1FFB17804A8B0
:1005B00003F031F84A4C211C03F01FF8F17803F0E6
:1005C0002AF8211C03F019F8317919E0032B41D1E5
:1005D000414E7378042B03D02379F371637933721E
:1005E0004049684602F096FF694604A802F0AFFF52
:1005F000F17904A803F00FF8394902F0FEFF317ACF
:1006000003F009F8011C281CFFF73FFF04A802F0C3
:100610003DFF684602F03AFF4DE0082B1AD12E4EFE
:100620007378042B06D0E37822791B02134373718D
:100630001B0AB37168462C4902F06CFF694604A896
:1006400002F085FFB17973790902194304A802F019
:10065000E8FFD7E72549684602F05CFF694604A831
:1006600002F075FF311C04A802F0D5FF204902F00A
:10067000C4FF391C02F0D5FF1E4902F0BEFF154E23
:10068000011C301C02F044FE04A802F0FFFE684684
:1006900002F0FCFE251C2B1BBB4209DA2978301C1A
:1006A00002F09AFE301C0E49FFF7E2FE0135F2E738
:1006B000301C02F04FFE044B1A68024B1A6009B05E
:1006C000F0BDC046DC0A0020580B0020275B00006C
:1006D000385B0000300E0020E10A00203C5B000087
:1006E000365B00004A5B0000585B0000665B000060
:1006F0007C5B0000845B000010B588B0041C0D49D1
:10070000684602F007FF694604A802F020FF211C9A
:1007100004A802F080FF011C0748FFF7B6FE04A8FA
:1007200002F0B4FE684602F0B1FE044B01221A70DA
:1007300008B010BD895B0000300E0020080B0020BF
:1007400010B588B0041C0D49684602F0E3FE694606
:1007500004A802F0FCFE211C04A802F05CFF011CAE
:100760000748FFF792FE04A802F090FE684602F0E8
:100770008DFE044B00221A7008B010BD9A5B000079
:10078000300E0020080B002010B588B0041C0D4965
:10079000684602F0BFFE694604A802F0D8FE211C9C
:1007A00004A802F038FF011C0748FFF76EFE04A8FA
:1007B00002F06CFE684602F069FE044B00221A70DB
:1007C00008B010BD9A5B0000300E0020080B00201E
:1007D00010B588B0041C0D49684602F09BFE6946BE
:1007E00004A802F0B4FE211C04A802F014FF011CAE
:1007F0000748FFF74AFE04A802F048FE684602F0E8
:1008000045FE044B01221A7008B010BDAE5B00001B
:10081000300E0020080B002038B5041CFFF728FE1E
:10082000051C201C02F096FD281838BD38B500F0D4
:10083000A9FC0021122000F0E5FD1A2000F0A4FE22
:10084000002000F0E7FE132000F068FF214A224B51
:10085000A1211A60214A224B00241A60214A224B0E
:10086000224D1A60224A234B281C1A60224A234B2D
:100870001A60234A234B1A60234B9F221A702122AD
:100880005A709970214B211C1C70214B1C7004F074
:10089000ABFBA5232B701F4D1F4B281C1F491C7041
:1008A000FFF7BAFF1E4800F0F1FD281C1D49FFF7B5
:1008B000B3FF1D4B1D481C701D4B197802F01EFF25
:1008C00000F0C0FD1B4B18601B4B1A681B4B1A60D5
:1008D00038BDC046A1040000880E00203505000088
:1008E000C80E0020F9060000B40E0020E10A002026
:1008F00041070000580E0020D1070000B00E002074
:1009000089070000480E00200A0B0020300B002051
:10091000E00A0020300E0020020B0020C45B000023
:1009200088130000CE5B0000080B0020ED5B000088
:10093000C4000020040B0020580B0020DC0A00201B
:1009400030B50138C0B289B0242800D9C8E0654C60
:100950001F2824D9203801228240E579101C002963
:1009600002D02843E07102E02B1C9343E371E3794A
:10097000AB4200D1B4E05C4B01225C4968461A707E
:1009800002F0C8FD694604A802F0E1FD291C04A894
:1009900002F041FE564902F030FEE17994E017285A
:1009A00024D9183801228240A579101C002902D0D0
:1009B0002843A07102E02B1C9343A371A379AB429F
:1009C00000D18DE0484B0122484968461A7002F078
:1009D000A1FD694604A802F0BAFD291C04A802F092
:1009E0001AFE434902F009FEA1796DE00F2823D9D0
:1009F0001038012282406579101C002902D028435A
:100A0000607102E02B1C934363716379AB4267D042
:100A1000354B0122354968461A7002F07BFD694664
:100A200004A802F094FD291C04A802F0F4FD30494A
:100A300002F0E3FD617947E0072823D90838012255
:100A400082402579101C002902D02843207102E041
:100A50002B1C934323712379AB4241D0224B0122BB
:100A6000224968461A7002F055FD694604A802F052
:100A70006EFD291C04A802F0CEFD1D4902F0BDFD4B
:100A8000217921E001228240E578101C002902D062
:100A90002843E07002E02B1C9343E370E378AB4201
:100AA0001ED0114B0122114968461A7002F032FD26
:100AB000694604A802F04BFD291C04A802F0ABFD16
:100AC0000B4902F09AFDE17802F0A5FD011C0948EE
:100AD000FFF7DBFC04A802F0D9FC684602F0D6FC64
:100AE00009B030BD0A0B0020300B0020F25B000083
:100AF000095C0000300E002030B5144CC0B2257ADD
:100B000089B0207285421ED0114B012211496846DE
:100B10001A7002F0FFFC694604A802F018FD291CB7
:100B200004A802F078FD0C4902F067FD217A02F07A
:100B300072FD011C0948FFF7A8FC04A802F0A6FCFE
:100B4000684602F0A3FC09B030BDC0460A0B002085
:100B5000300B00200E5C0000095C0000300E00200D
:100B600030B5144CC0B2657A89B0607285421ED02F
:100B7000114B0122114968461A7002F0CBFC6946FC
:100B800004A802F0E4FC291C04A802F044FD0C496E
:100B900002F033FD617A02F03EFD011C0948FFF7C7
:100BA00074FC04A802F072FC684602F06FFC09B005
:100BB00030BDC0460A0B0020300B0020205C000036
:100BC000095C0000300E002030B5144CC0B2A57A8C
:100BD00089B0A07285421ED0114B0122114968468E
:100BE0001A7002F097FC694604A802F0B0FC291CB8
:100BF00004A802F010FD0C4902F0FFFCA17A02F0FB
:100C00000AFD011C0948FFF740FC04A802F03EFC65
:100C1000684602F03BFC09B030BDC0460A0B00201C
:100C2000300B0020325C0000095C0000300E002018
:100C300030B5154B154CC0B201345870E57F89B002
:100C4000E07785421ED0124B0122124968461A7085
:100C500002F060FC694604A802F079FC291C04A893
:100C600002F0D9FC0C4902F0C8FCE17F02F0D3FC91
:100C7000011C0A48FFF709FC04A802F007FC6846BB
:100C800002F004FC09B030BDE10A00200A0B00208C
:100C9000300B0020465C0000095C0000300E002094
:100CA00008B5012000F0F2FB08BDFFFF70B5CC4B8A
:100CB00088B01B78002B00D17AE1CA4CCA48211CAD
:100CC000212200F007FA2378A52B00D029E16078D3
:100CD000FFF7AEFF0523E3568020C01AFFF70CFF95
:100CE0000620205601257F30FFF73AFFA17801202A
:100CF000C909FFF725FEA178022089092940FFF7DD
:100D00001FFEA178032049092940FFF719FEA178A9
:100D1000042009092940FFF713FEE1780520C909DD
:100D2000FFF70EFEE178062089092940FFF708FE4B
:100D3000E178072049092940FFF702FEE178082001
:100D400009092940FFF7FCFDE178092089082940BD
:100D5000FFF7F6FDE1780A20E9402940FFF7F0FDB2
:100D600021790B20C9082940FFF7EAFD21790C20E1
:100D700089082940FFF7E4FD21790D20E940294049
:100D8000FFF7DEFD21790E2049092940FFF7D8FD44
:100D9000E1780F20C9082940FFF7D2FDE178102043
:100DA0002940FFF7CDFD6378042B6DD1217A132004
:100DB000C9082940FFF7C4FD217A142009092940F8
:100DC000FFF7BEFD217A152049092940FFF7B8FD3C
:100DD000A17A16202940FFF7B3FDA17A1720E94038
:100DE0002940FFF7ADFDA17A182089082940FFF7B7
:100DF000A7FDA17A1920C9082940FFF7A1FDA17A12
:100E00001A2009092940FFF79BFDA17A1B204909F7
:100E10002940FFF795FDA17A1C2089092940FFF799
:100E20008FFDA17A1D20C909FFF78AFDE17A1E20F6
:100E30002940FFF785FDE17A1F20E9402940FFF7AF
:100E40007FFDE17A202089082940FFF779FDE17ACA
:100E50002120C9082940FFF773FDE17A2220090902
:100E60002940FFF76DFDE17A232049092940FFF76A
:100E700067FDE17A242089092940FFF761FDE17AC5
:100E80002520C909FFF75CFD584D2B785A1E312AE1
:100E900001D8013302E0322B01D900232B702B78CB
:100EA000002B31D1524EE1791120317049B201311C
:100EB0004B425941C9B2FFF743FD00217156122040
:100EC00001394B425941C9B2FFF73AFD0023F356AD
:100ED000002B19D04749684602F01CFB694604A85C
:100EE00002F035FB0021715604A802F09AFB011CA8
:100EF0004148FFF7CAFA04A802F0C8FA684602F0AF
:100F0000C5FA2B7801332B70A2780F231340013BD5
:100F1000DBB2FF20072B01D8384AD05C00B2FFF7C4
:100F200053FE00F08FFA364B364D1A681E1C801A9D
:100F3000354A364C1268904205D82B78002B34D0B5
:100F4000334B984231D9334B23211878324B334AF3
:100F50001B7802F041FC00F075FA00232380234B3C
:100F600030601B78002B17D02D49684602F0D2FA6A
:100F7000694604A802F0EBFA1D4B0021595604A85B
:100F800002F04FFB011C1C48FFF77FFA04A802F097
:100F90007DFA684602F07AFA2B78002B03D01648C7
:100FA0002049FFF739FC00232B702388013323806D
:100FB00000F08CFC82B21C4BFF2A02D81A78002A5F
:100FC00008D01A78002A01D000221A70FFF768FEB4
:100FD00008B070BD104BC0B2197802F0DFFCE7E733
:100FE000080B0020310B0020E10A00202D0B00200F
:100FF000090B00205F5C0000300E0020A05C0000A8
:10100000040B0020300B0020C80000202E0B002015
:1010100010270000CC000020C40000200A0B002094
:101020007D5C0000955C0000020B0020F7B50E1CF3
:10103000051C5421580700D450210820034200D039
:101040000143002A01D10123194329700024124FC2
:1010500012483A5D6300C15A1148019203F0E0FB67
:101060000E4F864203D3019A00246A7006E00134D1
:101070001E2CECD1F7E701341E2C09D0064B094891
:101080001B5D01936300F95A03F0CAFB8642F2D359
:101090000198A870F7BDC046806000004460000061
:1010A00000366E01006CDC0210B5041CFFF7BEFFB9
:1010B000201C10BD031CFF20002907D01A7801391D
:1010C0005040034A0133105CC9B2F5E77047C0468F
:1010D000CD000020F7B5561E0C1CF1B2171C051CE4
:1010E000FFF7E8FF6B1CD87700210A2000F058F9C1
:1010F0001E4B18785B78009001931D4B1A68002AEC
:1011000008D072B61B4A1868116801401A4801607D
:10111000116062B6009A1949CA700198002248709D
:10112000BA420ADAA85C8871087840B20028FBDA73
:1011300012488079A0540132F2E71B68002B03D0DB
:101140000D4B1A680E4B1A600A20012100F028F995
:10115000231C1A1BB24207DA19785A784900D209BF
:101160000A431A700133F4E7F7BDC046530B002061
:10117000000F002080E100E0040F00200060074025
:1011800000E100E013B50A20012100F03BF901ACB9
:101190000A20012100F004F903F0A2FA201C0449FE
:1011A00001220023FFF780FF6278024B5A7013BDC3
:1011B00000093D000060074008B5034803490122CB
:1011C0000023FFF771FF08BD530B0020001BB70081
:1011D00008B5FFF72BFBFFF769FD02F049FAFAE7C4
:1011E0001B4B1C4A19781C4B082901D1002102E035
:1011F0000A2903D138211160132206E00C2901D1FC
:10120000342100E03C21116012221A60134B1A783D
:10121000134B002A01D0002200E001221A60114B7A
:101220001A78114B012A01D880220CE0042A01D837
:10123000842208E0082A01D8852204E0102A01D877
:10124000862200E087221A60084B01221A7070473C
:10125000CD01002008B003400CB00340570B002024
:1012600020B00340CE01002024B00340560B0020E4
:10127000024B1A6801321A607047C046580B0020B2
:1012800010B50B4C23685A0301D501F031F92368DE
:101290005A0501D500F07CFB23681A0501D500F042
:1012A000A1FD2368DA04ECD500F0C6FFE9E7C046EB
:1012B0003480044008B5FFF7E3FFFFFF014B002235
:1012C0001A607047008104407047FFFF024A1368AC
:1012D00018181060181C7047D0010020EFF313801D
:1012E000002821D1EFF31082002A1FD1EFF30583EC
:1012F000002B0FD0101C0F2B0ED91A1C103A92087D
:101300000B49032092000340521883401068D840D4
:10131000C0B201E080204000EFF31182002A05D026
:10132000824203D2101C01E0012040427047C046B7
:1013300000E400E0F8B5061C0D1C171C0024301C4E
:10134000391C03F063FA092901D8303100E0373144
:10135000C9B22955301C391C03F014FA061E01D0FD
:101360000134ECE72B1958702B1C5A1BA24206DAE9
:101370001A78295D19702A550133013CF5E7281CBC
:10138000F8BD10B50C1C002802DBFFF7D3FF06E008
:101390002D230B7040420131FFF7CCFF201C10BD04
:1013A00010B51A2818D80C2358430C4A8358101823
:1013B0001C7D027A224205D0002901D01A710BE06F
:1013C0001A7209E043681A68002902D003210A430F
:1013D00001E002218A431A6010BDC046A85C0000EB
:1013E00000231A280AD80C235843054A815810189C
:1013F000027A0B7C13405A1E9341DBB2181C7047D3
:10140000A85C000010B51A2818D80C2358430C4AC1
:10141000141863688258247A012904D1117D0C4381
:101420001475A22205E0107DA0431075002902D199
:101430008022520001E00422FF321A6010BDC04633
:10144000A85C000072B60C4B0C491A680C4B1B6868
:10145000096862B6480104D5322191428941494266
:101460005B18FA20800043430648821A064842432C
:10147000920D98187047C04618E000E004ED00E0B7
:10148000580B0020BF5D0000ABAA020038B5041C59
:10149000FFF7D8FF051C002C0ED0FFF7D3FF074B3A
:1014A000401B984205D9013C002C05D0FA239B0033
:1014B000ED1802F0DDF8F0E738BDC046E7030000A4
:1014C0001C4B8022D20510B51A60802212061A60C9
:1014D000194B002018601949194B1A4A1960282322
:1014E0001360194A194C1360194A1360194A1360A2
:1014F000194A1360194A136009222260184C2060AF
:10150000184C2160184C2360184C2360184C226042
:10151000184C20601848016018490B6018490B608E
:10152000184B1A60FFF75CFEFA20FFF7AFFF01F0DF
:10153000BFFA10BD00E100E004800340FFBF0000DF
:10154000088003400C800340148003400080034067
:101550001C800340248003402C80034034800340DF
:1015600004900340089003400C9003401490034003
:101570000090034004A0034008A003400CA00340D7
:1015800014A0034000A00340164B80221968D2002B
:101590000A431A60144A00231370144A1449137042
:1015A000144A1370144A1370144A1370144A1160C9
:1015B000144AD12189001160134AC104C90EC0B276
:1015C0001170507093702C23D370104BFF22196848
:1015D00091430A1C40210A431A600D4B802252019C
:1015E0001A60704734800440E40B0020610B002037
:1015F00013030000EC0B0020E50B0020600B002023
:1016000040A0044044A0044000A006400CE400E0D8
:1016100000E100E010B5124B1322997891430322A8
:1016200002400A43410701D510210A439A700F2254
:101630000B490240042A03D18A79402422438A714B
:101640005A7910218A43084200D00A435A719A7984
:1016500010218A43840600D50A439A7110BDC04602
:1016600000A0064008B5124B1B685A051ED5114B49
:101670001B78DBB2002B02D001F0FAFFF7E70E4A2D
:101680008021490111600D4A0D49D3700422FF32B7
:101690000A600C490A600C4A13700C4A13700C4B18
:1016A0001B68002B02D00B4A12781A7108BDC04685
:1016B00034800440600B002080E100E000A0064080
:1016C00040A0044044A00440E40B0020610B002033
:1016D0005C0B0020A20B002038B5041C0B4B1D78BE
:1016E000EDB2002DFAD1201C0121FFF78BFE291C41
:1016F000201CFFF755FE0C225443054B054AE158C8
:101700001C191160044B227A1A7038BD600B00203E
:10171000A85C0000E80B0020E30B002038B50E4B5E
:101720001A680023510514D50C4C1A2810D80C2324
:1017300043430B4A0B4D9958D3181B7A2160012162
:101740002B70FFF75FFE23682A781A72012300E0EE
:101750002360181C38BDC046348004405C0B002058
:10176000A85C0000A20B00200C4B021C1B68002090
:10177000590512D50A4B122A02D10A490A4A03E036
:10178000142A06D10749094A11605A7B01200243F5
:1017900002E05A7B01218A435A7370473480044027
:1017A00000A00640020300000CA0044014C0044046
:1017B000F8B5214B071C1B685A053BD51F4B1B680E
:1017C000002B02D01E4A12781A711E4E0023347864
:1017D0003F220134A2425B415B421C401A4D2B78F0
:1017E000A3421CD1FFF77AFD402813DC174A137976
:1017F0005BB2002BF2DA2B78002101333F209842B4
:10180000494149420B401249C95CDBB2C9B2D171AE
:101810002B70E3E7FF28E1DD01F02AFFDEE70C4B48
:10182000FFB21F550B4B01221A70084BE4B2AC22D9
:101830003470DA70F8BDC04634800440E80B0020F4
:10184000E30B0020EC0B0020E50B002000A006407D
:10185000620B0020600B002038B5041C4518AC4218
:1018600004D02078FFF7A4FF0134F8E738BDFFFF6C
:1018700008B5044B1B78002B02D001F0F9FEF8E705
:1018800008BDC046600B0020064B074A1B78107845
:10189000DBB2C0B2834201D33F3000E00138C01A4E
:1018A0007047C046EC0B0020E50B0020054B187874
:1018B000054BC0B21B78DBB2984200D24030C01A50
:1018C0007047C046E40B0020610B002010B5124B9E
:1018D00012491A780B78D2B2DBB29A4219D001338E
:1018E0003F2400209C424041404203400C48DCB26F
:1018F000C05C0C700B49C0B2096800290BD09A4239
:1019000000D24032D31A1A2B05DC074B1B780B721E
:1019100001E00120404210BDE40B0020610B0020DB
:10192000A30B00205C0B0020A20B00200A4B1A78AE
:101930000A4B1B78DBB29A420AD0013300223F21C6
:101940009942524152421340054AD05CC0B201E074
:10195000012040427047C046E40B0020610B00208C
:10196000A30B0020064B1A78064BD2B21A70064B16
:101970001B68002B02D0054A12781A727047C046C5
:10198000610B0020E40B00205C0B0020A20B002068
:1019900030B5254A1379990612D52449D4790B78A4
:1019A000002001333F259D424041404203402048F2
:1019B000E4B20078834203D01E48C454DBB20B70FB
:1019C000D178194CC9B24BB2002B1ADA23795BB229
:1019D000002B16DA184B19481D780378DBB29D42AC
:1019E00002D16C23E3700CE0013300243F259D42BB
:1019F000644164422340124CE45CDBB2E4B2D47133
:101A00000370402319420ED0117919420BD00D4BAF
:101A1000002119700C4B1B688B4202D00B490978CE
:101A200019722C23D37030BD00A00640E40B0020B7
:101A3000610B0020A30B0020EC0B0020E50B002025
:101A4000620B0020600B0020E80B0020E30B00205D
:101A5000164B8022196812010A431A60144A0023A7
:101A60001370144A14491370144A1370144A1370F3
:101A7000144A1370144A1160144AD121890011606C
:101A8000134AC104C90EC0B21170507093702C2358
:101A9000D370104B104A19680A408021C9010A43CB
:101AA0001A600E4B802292011A6070473480044005
:101AB000580C0020EE0B002013030000600C0020E7
:101AC000590C0020ED0B00200CB0044010B0044075
:101AD00000B006400CE400E0FF00FFFF00E100E082
:101AE00010B5124B132299789143032202400A4306
:101AF000410701D510210A439A700F220B49024079
:101B0000042A03D18A79402422438A715A79102108
:101B10008A43084200D00A435A719A7910218A43B5
:101B2000840600D50A439A7110BDC04600B0064035
:101B300008B50E4B1B681A0517D50D4B1B78DBB289
:101B4000002B02D001F094FDF7E70A4A80218901B9
:101B50001160094A0949D3700422FF320A6008491A
:101B60000A60084A1370084A137008BD34800440A4
:101B7000ED0B002080E100E000B006400CB0044016
:101B800010B00440580C0020EE0B002038B5041CA7
:101B90000B4B1D78EDB2002DFAD1201C0121FFF76F
:101BA00031FC291C201CFFF7FBFB0C225443054B86
:101BB000054AE1581C191160044B227A1A7038BD8D
:101BC000ED0B0020A85C00005C0C0020570C0020EE
:101BD0000B4B00221B68190510D50A4B162809D19A
:101BE000094AC021890011605A7B08210A435A73AF
:101BF000012203E0597B082081435973101C704770
:101C00003480044000B0064004B004400A4B021C7B
:101C10001B68002019050ED5084B172A07D1084A62
:101C2000C021890011605A7B0120024302E05A7BE7
:101C300001218A435A7370473480044000B0064043
:101C400008B00440F8B5214B071C1B681A053BD5AA
:101C50001F4B1B68002B02D01E4A12781A711E4EB1
:101C60000023347827220134A2425B415B421C40AE
:101C70001A4D2B78A3421CD1FFF730FB402813DC10
:101C8000174A13795BB2002BF2DA2B78002101336B
:101C900027209842494149420B401249C95CDBB2B6
:101CA000C9B2D1712B70E3E7FF28E1DD01F0E0FC60
:101CB000DEE70C4BFFB21F550B4B01221A70084B8D
:101CC000E4B2AC223470DA70F8BDC046348004400F
:101CD0005C0C0020570C0020600C0020590C0020E8
:101CE00000B00640EF0B0020ED0B002038B5041CBF
:101CF0004518AC4204D02078FFF7A4FF0134F8E780
:101D000038BDFFFF08B5044B1B78002B02D001F053
:101D1000AFFCF8E708BDC046ED0B0020064B074AB4
:101D20001B781078DBB2C0B2834201D3273000E0C9
:101D30000138C01A7047C046600C0020590C0020C2
:101D4000054B1878054BC0B21B78DBB2984200D225
:101D50004030C01A7047C046580C0020EE0B0020DF
:101D60000A4B0B4A19781378DBB299420BD0013336
:101D70003F2000219842494149420B400549C85C37
:101D8000DBB2137001E0012040427047580C002084
:101D9000EE0B0020170C00200A4B1A780A4B1B7818
:101DA000DBB29A420AD0013300223F2199425241CC
:101DB00052421340054AD05CC0B201E001204042CB
:101DC0007047C046580C0020EE0B0020170C002076
:101DD000024B1A78024BD2B21A707047EE0B0020F9
:101DE000580C002030B5254A1379990612D524499C
:101DF000D4790B78002001333F259D424041404279
:101E000003402048E4B20078834203D01E48C45403
:101E1000DBB20B70D178194CC9B24BB2002B1ADA75
:101E200023795BB2002B16DA184B19481D7803781A
:101E3000DBB29D4202D16C23E3700CE0013300243D
:101E400027259D42644164422340124CE45CDBB28E
:101E5000E4B2D4710370402319420ED011791942B3
:101E60000BD00D4B002119700C4B1B688B4202D01C
:101E70000B49097819722C23D37030BD00B006408D
:101E8000580C0020EE0B0020170C0020600C0020E6
:101E9000590C0020EF0B0020ED0B00205C0C002003
:101EA000570C0020164B8022196852010A431A6011
:101EB000144A00231370144A14491370144A1370FF
:101EC000144A1370144A1370144A1160144AD12131
:101ED00089001160134AC104C90EC0B2117050705C
:101EE00093702C23D370104B104A19680A4080213C
:101EF000C9030A431A600E4B8022D2011A60704750
:101F000034800440CC0C0020620C0020130300003D
:101F1000D40C0020CD0C0020610C002008C004402F
:101F20000CC0044000C006400CE400E0FFFF00FFCE
:101F300000E100E010B5124B13229978914303227F
:101F400002400A43410701D510210A439A700F222B
:101F50000B490240042A03D18A79402422438A7122
:101F60005A7910218A43084200D00A435A719A795B
:101F700010218A43840600D50A439A7110BDC046D9
:101F800000C0064008B50E4B1B68DA0417D50D4B90
:101F90001B78DBB2002B02D001F06AFBF7E70A4A9C
:101FA0008021C9011160094A0949D3700422FF3216
:101FB0000A6008490A60084A1370084A137008BD8D
:101FC00034800440610C002080E100E000C0064045
:101FD00008C004400CC00440CC0C0020620C00205F
:101FE00038B5041C0B4B1D78EDB2002DFAD1201C26
:101FF0000121FFF707FA291C201CFFF7D1F90C2259
:102000005443054B054AE1581C191160044B227AD0
:102010001A7038BD610C0020A85C0000D00C0020B4
:10202000CB0C00200B4B00221B68D90410D50A4BA7
:10203000022809D1094AC021890011605A7B082170
:102040000A435A73012203E0597B082081435973E4
:10205000101C70473480044000C0064000C004409B
:102060000A4B021C1B680020D9040ED5084B0E2A0F
:1020700007D1084AC021890011605A7B0120024320
:1020800002E05A7B01218A435A737047348004402E
:1020900000C0064004C00440F8B5214B071C1B6873
:1020A000DA043BD51F4B1B68002B02D01E4A127866
:1020B0001A711E4E0023347827220134A2425B415C
:1020C0005B421C401A4D2B78A3421CD1FFF706F946
:1020D000402813DC174A13795BB2002BF2DA2B7815
:1020E0000021013327209842494149420B401249BF
:1020F000C95CDBB2C9B2D1712B70E3E7FF28E1DD27
:1021000001F0B6FADEE70C4BFFB21F550B4B012274
:102110001A70084BE4B2AC223470DA70F8BDC046D5
:1021200034800440D00C0020CB0C0020D40C0020C4
:10213000CD0C002000C00640630C0020610C002084
:1021400038B5041C4518AC4204D02078FFF7A4FF32
:102150000134F8E738BDFFFF08B5044B1B78002BAE
:1021600002D001F085FAF8E708BDC046610C0020F6
:10217000064B074A1B781078DBB2C0B2834201D30A
:10218000273000E00138C01A7047C046D40C002048
:10219000CD0C0020054B1878054BC0B21B78DBB284
:1021A000984200D24030C01A7047C046CC0C002084
:1021B000620C00200A4B0B4A19781378DBB2994263
:1021C0000BD001333F2000219842494149420B4046
:1021D0000549C85CDBB2137001E001204042704742
:1021E000CC0C0020620C00208B0C00200A4B1A78CB
:1021F0000A4B1B78DBB29A420AD0013300223F21FE
:102200009942524152421340054AD05CC0B201E0AB
:10221000012040427047C046CC0C0020620C0020D8
:102220008B0C0020024B1A78024BD2B21A70704706
:10223000620C0020CC0C002030B5254A1379990699
:1022400012D52449D4790B78002001333F259D42D3
:102250004041404203402048E4B20078834203D02A
:102260001E48C454DBB20B70D178194CC9B24BB2C2
:10227000002B1ADA23795BB2002B16DA184B1948B7
:102280001D780378DBB29D4202D16C23E3700CE031
:102290000133002427259D42644164422340124CAF
:1022A000E45CDBB2E4B2D4710370402319420ED077
:1022B000117919420BD00D4B002119700C4B1B6882
:1022C0008B4202D00B49097819722C23D37030BD90
:1022D00000C00640CC0C0020620C00208B0C0020BB
:1022E000D40C0020CD0C0020630C0020610C0020D9
:1022F000D00C0020CB0C00201FB572B6154B7022FD
:102300001A70154A41211170144A0F211170802250
:102310001A701A7852B2002AFBDA114B186862B6AA
:10232000104B984201D80A23584301AC211C0A22C1
:10233000FFF700F80023E15C0B4A002905D05800A4
:102340001018013341800A2BF5D101335B00137063
:102350001FBDC046000002400700024006000240C8
:10236000080002407F96980066020020F0B50B4FEF
:1023700002223B780A4E1A43D2000A4DB41860601C
:1023800028788824002800D0C82409040C43B450BD
:1023900001225040534028703B70F0BD400D00209A
:1023A00000F8FF1FB80D0020431E10B5032B0FD8F7
:1023B00072B6084A99008858002807D044685B0024
:1023C0008C50054A01889C5A611A995262B600E005
:1023D000002010BD300D00203C0F0020431E0020C7
:1023E000032B09D872B6054A9B009B58002B02D0DC
:1023F00001305B68FAE762B67047C046840D002082
:1024000038B572B60123164A9A18013A12781107A4
:102410001CD5144A5C01A5589900002D05D113194B
:1024200008305860104BA3500AE001242143C90032
:102430008C58002C0AD15318083058600B4B8B5025
:102440000B4B1A78013A1A7062B608E00133052B7B
:10245000D9D162B6064B00221A7000F09DFB38BD40
:10246000EC5D000000F8FF1F88004000C80040003D
:10247000AE0D0020421E10B5032A30D80223800082
:102480001843174BC0001B1872B6164CA05C0328EB
:1024900009D802F063F9140216050833022011E08E
:1024A000083304200EE01048920014580F4B002C03
:1024B00001D1115001E09858416099500EE003207D
:1024C00000E00520A0540A1C08325A608822180730
:1024D00000D5C822098809040A431A6062B610BDF3
:1024E00000F8FF1FEC0C0020840D0020940D00204C
:1024F000F7B5B3490C780E1CE4B262071DD5B14B99
:102500001B78002B16D0B04A1378DBB2002B05D015
:10251000013BDBB21370002B00D100BEAB4A137835
:10252000DBB2002B06D0013BDBB21370002B01D1D4
:1025300000F058FCA24D04232B700825221C2A40D1
:1025400000D14CE2A24BA34C1B78DBB21E099A08C7
:10255000002E00D0D5E1D50065192F686A68B8064D
:10256000000F01380C2800D9C8E102F001F98B01F5
:102570008B01C701C701C701C701C701C701A4017A
:10258000C701C701C7010D0093491368934F5268F3
:1025900093482960934D944900263B607A609BB232
:1025A00001222E602661A66102708B4218D8D021CC
:1025B000C9008B4200D3E5E0812191408B4200D1DC
:1025C000C2E006D8802B00D1A9E0822B00D1ABE07D
:1025D000F1E0864A934200D1C5E0A022D20017E084
:1025E00083498B4200D14AE10DD8882109018B42F1
:1025F00000D18EE090221201934200D0DBE0BA7845
:10260000704B1A7009E07B4A934200D1CFE07A4ABE
:102610000026934200D10DE1CDE0A319196A090605
:1026200003D5586A083800F0B7FA0836802EF4D17E
:1026300000252E1C714AA858002805D04368019334
:1026400000F0AAFA0198F7E76C496D4B6D4A4851C2
:10265000E850A858002805D04368019300F09CFA80
:102660000198F7E7684B694AE8507300D052654912
:10267000674B4851F05C0238032807D802F06EF827
:1026800002040204002200E001229A5501360435BA
:10269000042ECFD15F4A002313700125161C5E4B18
:1026A000EA185E4B9200EB18013B1B781370190778
:1026B00020D500F053FA6B01002805D0E21808304D
:1026C0005060574AE25003E0E050337801333370F2
:1026D00000F044FA0122AB001343DB00002805D0D0
:1026E000E218083050603C4AE25003E0E050337892
:1026F00001333370AB0002221A43D2000021A150F3
:102700000322134393400135E150052DC7D10E1C20
:1027100090E02C4B434C1B78161C23708BE0414CF3
:1027200026706670022686E0BB88042B43D83D4C99
:102730003D4D9B00267066705B191B780226334264
:1027400000D178E0227076E0BA887F231340042B12
:1027500031DC7E88002E2ED133499B005B181A781D
:1027600002218A4325E0BA887F231340042B22DC10
:102770007E88002E1FD12C4A9B009B181A780221BC
:102780000A4316E07A88B988284B5C68002C12D07E
:102790001888904209D15888884206D1120A032A23
:1027A00001D1267847E01E8945E00C33EDE7BA7881
:1027B0001F4B1A703EE01C4B0F221A705FE0C046A0
:1027C00080200740B70D0020410D0020B90D0020EA
:1027D0009020074000F8FF1FC8004000A40D002013
:1027E000B80D0020D80C0020810600000203000074
:1027F000212000002122000021230000300D0020B4
:10280000DC0C0020840D0020940D00203C0F0020E3
:10281000EC0C0020AE0D002030C80110EC5D000073
:1028200088004000AF0D0020C0200740F05D000090
:10283000C80D0020341CFB889E4200D91E1C371E88
:10284000402F00D94027201C391CFFF78FFDE419C9
:10285000F61B03D1351C402F04D010E04025B542B3
:1028600000D9351C201C291CFFF780FD6419761B3C
:1028700001D1402D03D1754D754B2C601E80012276
:10288000744B3AE0744B1988744B994210D1002371
:10289000D05C7349C8540133072BF9D10B68862BE0
:1028A00002D1704B0F221A700020011CFFF75EFD51
:1028B0006D4B2B6022E0654F3D68002D13D06449BD
:1028C0000E88341E402C00D94024281C211CFFF700
:1028D0004DFD361B5E4AB6B21680002E01D1402C4B
:1028E00000D12E193E605C4BA0221988D200914283
:1028F00004D100225A709A785C4B1A700122554B11
:1029000061E0D200A4186068013E0838F6B22B409E
:1029100036D000F041F95649B0004258554B002AD4
:102920001BD055684550111C985D08316160032823
:102930000BD801F013FF02040608032104E0022172
:1029400002E0052100E0042199558823270700D5DE
:10295000C8231288120413433CE0985D032808D86A
:1029600001F0FCFE39390204002200E001229A55F0
:1029700031E02C40624262410324A41A9C552AE0B3
:1029800062880280002A20D03B4D43804360B30020
:102990005F593A49002F01D1585101E0CD58686084
:1029A000C850374B7600F15A5218F25200F0D6F860
:1029B000002804D00830606021070AD507E0314BB9
:1029C00020601A7801321A7005E02C4201D0264BA3
:1029D00000E02D4B23602D4A0823137089E5012068
:1029E00004421ED01B4902230B70294B264C1A703F
:1029F000284B294D1C609C60284C1A61DC609A6150
:102A00005D60274B0D241C70264CFF232370174C50
:102A100033702270244A1370244B9F221A7008705E
:102A200013E063B2002B04DA1D4B0D221A708023D1
:102A3000337002231C4204D01A4A1178C9B21170B3
:102A4000337010231C4200D03370F7BDD80C002027
:102A5000AC0D002094200740A40D00202120000090
:102A6000440F0020410D0020C8004000982007407E
:102A7000840D0020EC0C0020300D0020DC0C002028
:102A80003C0F0020AE0D0020880040008020074051
:102A9000400D002000F8FF1FF00C0020440D002026
:102AA000C0200740882007408C2007408420074032
:102AB00010B5FFF721FC00221A4B0021D1509818C5
:102AC00008324160882AF7D1174A80201468C00272
:102AD00020431060180A154AC0B21070180C144A2E
:102AE000C0B21070134A1B0E1370134AFF231370E9
:102AF000124A13481370134A1370012202701248CD
:102B0000017012490A70124A116899430B1C702116
:102B10000B4313600F4B802252041A600E4B10229D
:102B20001A7010BD00F8FF1F348004409C2007403D
:102B3000B0200740B420074080200740882007408D
:102B400094200740102007400021074084200740C0
:102B500018E400E000E100E00821074038B572B653
:102B60000B4C2568281C01F0BDFE172802D962B65F
:102B700000200CE080231B06C3409D43256062B605
:102B800048235843034B181800230360436038BDA3
:102B90007C02002000FAFF1F10B5041C0E484821DB
:102BA000201A01F0EFFD172815D80C4B1B78002BCD
:102BB00007D00B4B1B78002B03D0201CFFF720FC09
:102BC00009E072B68022074B1206C240101C1A6838
:102BD0001043186062B610BD00FAFF1FAE0D002052
:102BE000B70D00207C02002038B5114C2368002B63
:102BF0000CD020684288531C8218157A02889342B0
:102C000012D3FFF7C9FF002323600EE0094B1B78A6
:102C1000002B02D10120404208E00320FFF7C4FB53
:102C200020600028E5D1F5E74380281C38BDC04668
:102C3000C40D0020B70D002010B50D4C2368002BEB
:102C400003D02368002B0ED103E00A4B1B78002B26
:102C500002D10120404209E00320FFF7A5FB2060DC
:102C60000028EED1F5E75A889B18187A10BDC046A7
:102C7000C40D0020B70D0020054B9888054B1B683C
:102C8000002B03D01A885B88D31AC0187047C0463F
:102C90003C0F0020C40D0020F7B5304D0123071C68
:102CA0000C1C2B70002C56D02D4E3068002827D1DC
:102CB0002C4A01922C4B1B78DBB2002B03D12B70DA
:102CC0000120404249E00420FFF788FB072808D88C
:102CD00001232B70FFF742FF214B186000280FD112
:102CE00028700198214B01380190002802D01A78F1
:102CF000002A02D001221A70E2E700F0B9FCD9E7FD
:102D00001A4B002231681A704B884020C01A009478
:102D1000844200D90090181C009A08309B180818AB
:102D20004B800190A41A00230098834204D0F85CE1
:102D3000019AD0540133F7E7FF184B883F2B06D98F
:102D400040230B800420FFF795FB00233360084BE2
:102D500005221A70A6E72C70201CFEBDBA0D0020BB
:102D6000BC0D0020A5470000B70D0020C00D0020BD
:102D7000B90D002007B56B46D8710733181C012127
:102D8000FFF78AFF0EBDFFFFF8B5124B1B78002B33
:102D90001ED0114F114B3C6801261E70104D002CA7
:102DA00009D000262E70638804202380211CFFF7A1
:102DB00061FB3E6009E0FFF7D1FE011E04D0042054
:102DC0002C70FFF757FB00E02E70044A00231370AD
:102DD000F8BDC046B70D0020BC0D0020BA0D002084
:102DE000B90D002038B50E4B1D78EDB2002D15D170
:102DF0000C4C2168002906D04B8804200B80FFF77B
:102E000039FB25600AE0FFF7A9FE011E03D004206C
:102E1000FFF730FB02E0044B01221A7038BDC046B8
:102E2000BA0D0020BC0D0020B90D0020F8B5184BDC
:102E30008022196852040A431A60164B01211A684D
:102E4000154D0A431A60154B2E681C68002C12D0D1
:102E5000237A002B0DD02368201C1B682F6898470D
:102E60002A68E188D21B120993B2A3808A4200D952
:102E7000E3806469EAE72968094B891B09098AB27A
:102E80001A80084B1888814200D91A80F8BDC046C4
:102E9000FCED00E0001000E0041000E0CC0D00208C
:102EA000D20D0020D00D002008B50368C9B21B6800
:102EB000984708BD08B50368C9B21B68984708BDA4
:102EC00008B50368C9B21B68984708BD08B5036810
:102ED000C9B21B68984708BD08B5044B4808C0181C
:102EE00001F050FCFEF750FB08BDC046C0C62D00E7
:102EF00010B5064B4808C018141C01F043FCFEF73F
:102F000043FB201CFEF786FB10BDC046C0C62D004B
:102F100008B5FEF7A7FB08BD08B5081CFEF7DCFBEB
:102F200008BD08B5081CFEF7F9FB431E9841C0B266
:102F300008BD08B5081CFEF717FC431E9841C0B237
:102F400008BD08B5FEF7B2FC08BD08B5FEF7EEFCFB
:102F500008BD08B5FEF7BAFC08BD08B5FEF788FC49
:102F600008BD08B5FEF7FEFC08BD08B5FEF78CFCF1
:102F700008BD08B5081CFEF71BFC012008BD08B5FC
:102F8000081CFEF715FC012008BD10B5081C141C18
:102F9000111CFEF761FC201C10BD38B5081C0D1C6F
:102FA00002F0B6FA041C211C281CFEF755FC201C5C
:102FB00038BD7047044B00221A711A73FA21034A74
:102FC000890099601A607047D80D0020505E00009B
:102FD00008B50368C9B21B68984708BD08B50368FF
:102FE000C9B21B68984708BD08B50368C9B21B6819
:102FF000984708BD08B50368C9B21B68984708BD63
:1030000008B5044B4808C01801F0BCFBFEF720FDD2
:1030100008BDC04660E3160010B5064B4808C0184E
:10302000141C01F0AFFBFEF713FD201CFEF758FD4A
:1030300010BDC046C0C62D0008B5FEF779FD08BD1D
:1030400008B5081CFEF7A2FD08BD08B5081CFEF770
:10305000BFFD431E9841C0B208BD08B5081CFEF76D
:10306000D5FD431E9841C0B208BD08B5FEF768FE05
:1030700008BD08B5FEF790FE08BD08B5FEF770FE66
:1030800008BD08B5FEF73EFE08BD08B5FEF7A0FE78
:1030900008BD08B5FEF742FE08BD08B5081CFEF7DE
:1030A000D1FD012008BD08B5081CFEF7CBFD0120AD
:1030B00008BD10B5081C141C111CFEF717FE201CBF
:1030C00010BD38B5081C0D1C02F022FA041C211C8E
:1030D000281CFEF70BFE201C38BD7047044B002255
:1030E0001A711A73FA21034A890099601A607047AD
:1030F000E80D0020A85E000008B50368C9B21B688F
:10310000984708BD08B50368C9B21B68984708BD51
:1031100008B50368C9B21B68984708BD08B50368BD
:10312000C9B21B68984708BD08B5044B4808C018C9
:1031300001F028FBFEF7B6FE08BDC04660E31600AE
:1031400010B5064B4808C018141C01F01BFBFEF715
:10315000A9FE201CFEF7EEFE10BDC04660E316007F
:1031600008B5FEF70FFF08BD08B5081CFEF738FFCD
:1031700008BD08B5081CFEF755FF431E9841C0B2B4
:1031800008BD08B5081CFEF76BFF431E9841C0B28E
:1031900008BD08B5FEF7FEFF08BD08B5FFF726F825
:1031A00008BD08B5FFF706F808BD08B5FEF7D4FF5F
:1031B00008BD08B5FFF736F808BD08B5FEF7D8FF1B
:1031C00008BD08B5081CFEF767FF012008BD08B55B
:1031D000081CFEF761FF012008BD10B5081C141C77
:1031E000111CFEF7ADFF201C10BD38B5081C0D1CCE
:1031F00002F08EF9041C211C281CFEF7A1FF201CE4
:1032000038BD7047044B00221A711A73FA21034A21
:10321000890099601A607047F80D0020005F000077
:1032200008B50B4B1A68002A04D001221A60094B1A
:103230001B689847084B1B78002B08D0074B1A686F
:10324000002A04D001221A60024B5B68984708BD2F
:103250000C7103400C0E00200A0E00201C7103406C
:10326000054B01221A60054B054A19680A401A608D
:10327000044B00221A707047007003403C800440E9
:10328000FFFF7FFF0A0E002008B5836800221A6046
:103290008021074BC90319604178064B5A541A78AC
:1032A000002A04D15B78002B01D1FFF7D9FF08BDBC
:1032B00080E100E0080E0020037810B5041C002B0C
:1032C00001D0FFF7E1FF0023237010BD70B5061C8D
:1032D0000D1C002433191979281C0022013400F038
:1032E0004BF8042C05D02B68281C1B682E2198470E
:1032F000F0E7201C70BDFFFF034A044B08321A6040
:1033000000225A607047C046505F0000140E002033
:10331000F0B500258DB08C68061C0F1C0195002CA3
:1033200014D02122381C03A92B1C00F086F9221E80
:10333000202A00D920223368301C5B6803A9AD180D
:10334000A41A9847019B1B180193E8E701980DB058
:10335000F0BDFFFF37B50224051C221C01A805495A
:1033600001F0AEFD2B68281C5B6801A9221C984760
:103370003EBDC046605F0000F0B585B06B460E33C1
:103380008EB2144C0D0C013666436C43A5B2370C5B
:10339000AE19F619250C2C19360CA5196D080A263C
:1033A0006E43891B30311C1C1970013B002D01D06C
:1033B000291CE5E7211C002A03D01C1C2D224B1ED2
:1033C0001A70036804A9E24352185B68211C9847ED
:1033D00005B0F0BD3333000037B56A460B1C073229
:1033E0000F241C40251C111C3735092C00D8073D23
:1033F00015701B09013A002BF2D1036802AC621A66
:103400005B6898473EBD10B5041CFFF755FF201CB4
:1034100010BDFFFF08B50548002303700449802351
:10342000044A437301F07CFA08BDC0461C0E00201C
:1034300007340000C000002008B5FFF71DFC08BDE0
:1034400008B5FFF7D1FB08BD08B5FFF7F5FB08BDD0
:1034500008B5FFF799FC08BD08B5081CFFF78AFC02
:1034600008BD08B5081C111CFFF716FC08BD704705
:10347000044B00221A711A73FA21034A89009960D9
:103480001A607047300E0020705F000010B5041CF9
:10349000006801F085FA201C10BD38B5041C0D1C15
:1034A0000068013101F0F2FD002801D021C40120A3
:1034B00038BD436810B5041C8B4208D2FFF7EDFFFE
:1034C000002805D0A368002B01D1226813700120C9
:1034D00010BDF8B5041C0F1C151E05D10368002B88
:1034E00000D01A7000230DE0111CFFF7E2FF061C4C
:1034F0002068002E08D1002802D001F051FA266081
:1035000000236360A36003E0A560391C01F0F8FFAD
:10351000201CF8BD38B50023041C0D1C036043605B
:1035200083600373994207D0081C01F0F1FF291C46
:10353000021C201CFFF7CDFF201C38BD08B50B1C5A
:10354000884203D009689A68FFF7C3FF08BD10B529
:103550000023041C0360436083600373FFF7EEFFE6
:10356000201C10BD70B5041C0E1C8568002A0CD0F0
:103570005519291CFFF79DFF002806D02268A36873
:10358000311CD01801F0BCFFA560201C70BD1FB518
:10359000041C0A22081C01A9FDF7F3FE01A801F092
:1035A000B7FF01A9021C201CFFF7DCFF201C04B0A0
:1035B00010BD1FB5041C0A22081C01A9FDF7E1FE7D
:1035C00001A801F0A5FF01A9021C201CFFF7CAFFFA
:1035D000201C04B010BD1FB5041C0A22081C01A940
:1035E000FDF7A8FE01A801F093FF01A9021C201C11
:1035F000FFF7B8FF201C04B010BD38B5051C0C1E29
:1036000007D0081C01F084FF211C021C281CFFF7B6
:10361000A9FF281C38BD10B5041CFFF7B8FF201CFB
:1036200010BD10B5041CFFF7C4FF201C10BD10B561
:10363000041CFFF7D0FF201C10BD38B50D1C002A5C
:1036400014D0002912D081688B4202D300232B7042
:103650000CE0541EC91A8C4200D90C1C0168221CB3
:10366000C918281C01F0B8FF00232B5538BDFFFFF7
:1036700010B5104C2378002B1BD101232370FFF7CA
:10368000FBFA002801D0FFF7F2FEFEF70FF9002841
:1036900001D0FFF78EFCFEF753FB002801D0FFF7A7
:1036A0001CFDFEF777FD002801D0FFF7AAFD0023DF
:1036B000237010BD400E0020F7B54E1D071C301CB6
:1036C000089D0C1C0192009301F060F9009ABF2341
:1036D00028601680477003702A68A3059B0F9370BB
:1036E0002B68221CDC7028680199043001F0E8FB8B
:1036F0002B6800201C19FB432371FEBDF0B52D4D36
:1037000085B02B68041C0F1C002B4ED02A4B1B6865
:10371000002B04D0294A1278002A00D19847201C97
:103720002749052201F0FCFE002801D1254B0BE0C2
:10373000224B201C1A78244901321A70042201F00D
:10374000EFFE002803D1214B1A7801321A70204B6A
:103750001E68002E05D0201C01F0DAFE211C80B26C
:10376000B047201C032F15D101F0D2FE6E4603ABEB
:103770000A3681B20093221CFF20331CFFF79CFF06
:10378000041E13D130882B6803999847039801F0E1
:1037900007F90BE001F0BCFE211C2B6898472B6851
:1037A00002200C499847002400E0FF24201C05B0AB
:1037B000F0BDC046880E0020B80E0020500E00203C
:1037C000885F0000A00E00208E5F00007C0E0020AD
:1037D000E40E0020935F0000F0B5174E87B003930E
:1037E0003368071C0D1C141C002B20D0134B1B68C6
:1037F000002B00D09847039B032B12D105AB0093FD
:10380000221C381C291C023BFFF756FF041E0FD157
:103810006B46588A059933689847059801F0C0F8B7
:1038200006E0211C3368281C9847002400E0FF2490
:10383000201C07B0F0BDC046880E0020D80E002026
:10384000F8B508AC2778079D0224042827D90E78FC
:10385000BF2E24D108184E7801380078F4438446EE
:10386000E0B2032484451AD116708A780E1D921096
:103870001A708B781C40CB7824021C43069B1C805A
:10388000002F0AD024B2201C01F080F8221C2860EE
:10389000311C01F015FB002401E02E603C1C201CB3
:1038A000F8BDF7B500283DD0002A3AD0051C002607
:1038B0002F1A01979F422EDA2C7861277F423F19F9
:1038C000192F02D82027BC4301E03A2C21D0302701
:1038D0007F423F19092F0AD941277F423F19192FEB
:1038E00003D900291AD00D6018E0073CE4B2303C3F
:1038F00001947708F40707D5D7190097019C3F7802
:103900003C43009F3C7002E0019C2401D4550136E9
:10391000B6B20135CCE7002BCED0E2E7019BD8B29E
:1039200000E0101CFEBDFFFF07B5002201AB5A707E
:10393000024A18701268181C90470EBD440E0020F1
:10394000F7B5061C0A210011071C00F069FF0725C6
:10395000684330373F180F2001AC0A2130402770F0
:10396000061C00F05DFF45430023A3703036034B77
:10397000761966701B68201C9847FEBD440E002017
:103980001FB50A2201A9FDF7FCFC034B01A81B6827
:10399000984705B000BDC046440E0020F0B5C74CA6
:1039A0009BB0C74B0AAF2288F96119880132051C08
:1039B0008A4218DBC34E00290ED0103189B230681C
:1039C000198001F063FBC04B1860002802D1012070
:1039D00000F054FE306006E04020188000F0D6FF72
:1039E00030600028F3D0F969B84E032907D1337845
:1039F000002B04D1BF2D02D0002000F03FFE228812
:103A0000B04B511C218019688D5401223270FA6923
:103A1000032A08D120880428EED91968CB78053309
:103A20009842E9D102E00A2DE6D114E0A84B002526
:103A30000093A54B02950193A64AA74BFFF700FF01
:103A4000A84218D02580A34C35702570A24C0220C6
:103A5000257000F013FE9E4A2188FD6911801A68C6
:103A6000994B1A609C4B00221A709A4BFF22012D31
:103A700000D0FE221A70994C2368002B3DD0984844
:103A80009847944D2878FFF75BFF21689548884751
:103A90008F4E00253088FFF773FF934822689047C8
:103AA0008B4A1388AB4225D9874E3368585D031C77
:103AB000203B5E2B02D8FFF737FF18E0092803D11F
:103AC00021688A48884712E00A2803D1226888487A
:103AD00090470CE00D2803D123688648984706E0FC
:103AE0008548216888473368585DFFF729FF01350D
:103AF000ADB2D5E7236881489847764C2378FF2BF1
:103B000001D000F07BFD7E4B6F4D1B68002B03D076
:103B10006F4A2968108898472C687A49201C03222C
:103B200001F0FEFC00281ED1774B1A78002A01D044
:103B3000013A1A70754A1178002901D001391170C3
:103B40001B78734C002B05D1724B1B68002B01D0E6
:103B500020789847704B1B68002B00D098470023B3
:103B6000237000F05BFD201C6C49082201F0D8FC9A
:103B7000002814D1637C412B08D1694D29680029A4
:103B800001D100F04BFD201C1430BDE2654D2A68C8
:103B9000002A01D100F042FD201C1330B4E2201CA9
:103BA0006149052201F0BCFC002806D15F4D2B685D
:103BB000002B00D0A7E200F031FD201C5C4904225C
:103BC00001F0AEFCF861002847D15A4E3168002957
:103BD00001D100F023FD201C391C0A2208302831B5
:103BE000B86201F0E5FDBC6AC0B20134B8612021C1
:103BF000201CBC6201F018FCFA69B8620270B86A55
:103C0000391C013010222831B86201F0D1FD80B298
:103C10007861B86A2B6801302D4A1B1A113312885B
:103C20009BB2B8629A4211D9391C3A1C2831303201
:103C3000FB69FFF736FEBB6A35680133BB623B1C8C
:103C4000B869211C7A69303300F093FC3568B86993
:103C5000211C7A69FB6900F08CFC201C3649082283
:103C600001F05EFC00286BD1344D2B68002B01D194
:103C700000F0D4FC6A46201C391CFA61083030314F
:103C80001022386301F094FDC6B2C0B20730C008FC
:103C9000C0006B463A6B1B1A9D4601320AAC73009A
:103CA000391C3A63DBB2101C3031221CFFF7F9FDDE
:103CB0002B68301C211C9847A4E1C046520E0020FE
:103CC000940E0020680E0020A40E0020C40E0020D8
:103CD000CC0E0020A10E0020600E0020440E00201B
:103CE000965F00009D5F0000A05F0000A35F0000E2
:103CF000A65F0000A95F0000AC5F0000935F0000BA
:103D0000780E0020AF5F0000500E00207C0E0020D7
:103D1000DC0E0020800E0020840E0020B35F000027
:103D2000A80E0020740E0020BC5F0000C00E002012
:103D3000C25F0000E00E0020C75F0000900E002070
:103D4000201CD449042201F0EBFB002856D1237932
:103D50003F2B53D8391C201D30310A22386301F023
:103D600027FDC6B2386B431C3B6343784F2B3DD1D4
:103D7000C94B1A68002A01D100F050FC391C0830E8
:103D80006C4630311022BC61386301F011FD3B6B91
:103D9000C5B201333B63002D01D1C04B1D78EB1D33
:103DA000DB086946DB00C91A8D460AACFC610024B9
:103DB000AC4203DA386B03780D2B07D1B64DE1B274
:103DC0002B68301CFA699847BC691CE10A2BF5D0B6
:103DD000202B06D0391C3031102201F0E9FCF969A2
:103DE00008553B6B013401333B63E1E7AC4B1B6887
:103DF000002B01D100F012FC301C8DE1201CA949E0
:103E0000042201F08DFBF861002807D1A64E32682C
:103E1000002A01D100F002FC201D0EE0201CA34965
:103E2000072201F07DFBF861002823D1A04E316804
:103E3000002901D100F0F2FBE01D391C0A223031CB
:103E4000386301F0B5FC3C6BB86101342021201CC3
:103E50003C6301F0E9FA914B421C3A6329681B88E4
:103E6000FD69CB18023B1D70BD693368E8B2211CA7
:103E700000F002FC201C8F49062201F051FB061EB7
:103E800040D1A379452B3DD08B4D2968002900D125
:103E9000C4E30634201C3A213C6301F0C5FA3863C0
:103EA0000670386B391C013030311022386301F054
:103EB0007FFC7861386B391C013030311022386357
:103EC00001F076FC3A6B38610132101C2021FA6156
:103ED0003A6301F0A9FA386306703B6B2221023382
:103EE000181CBB613B6301F09FFA7A693B6991B290
:103EF0009AB2BB693863067000932D68201CFB6979
:103F0000A8478BE3201C6D49082201F009FBF861EA
:103F1000002807D16A4E3168002900D17EE3201CB9
:103F20000C3002E2201C6749082201F0F9FA061E53
:103F300034D15A4B1B880C2B05D8634D29680029B6
:103F400000D0E0E06AE3614B1B68002B00D165E321
:103F5000201C391C3A1C331C083028313032B8621E
:103F6000FFF79FFCB86A391C013028311022B86273
:103F700001F01EFC041CB86A0378202B06D1391C02
:103F8000013028310A2201F013FCC6B2504B381C14
:103F900072B21B683030211C98473FE3201C4D490A
:103FA000092201F0BDFA061E2FD14B4D2A68002AC6
:103FB00000D133E36946F961201C391C3A1C1030EA
:103FC00028313032331CB862FFF76BFC334BB86AD0
:103FD0001B880530273BDA0FD3185B100733DB084B
:103FE000DB006A46D21A95460AAC311C221C331CEF
:103FF000B862FFF756FC4108381CC9B22B68303054
:10400000221C9847FC69A54608E3201C3349092275
:1040100001F086FA061E65D1314D2968002900D1CC
:10402000FCE2201C391C3A1C331C10302831303281
:10403000B862FFF736FCB86A391C0130283110220B
:10404000B86201F0B5FBBC6AF861631CBB626178C1
:10405000222916D10234201CBC6201F0E5F9B862B5
:104060000670B86A391C013028310A22B86201F0A2
:104070009FFB43B2381C2D683030F969221CA847D9
:10408000CCE2381C2C683030F969321C331CA04754
:10409000C4E2C046D05F0000C80E0020CC0E002055
:1040A000580E0020D55F0000540E0020DA5F00009B
:1040B000640E0020E25F0000FC0E0020E95F0000BB
:1040C0005C0E0020F25F0000F80E0020B00E002011
:1040D000700E0020FB5F00009C0E002005600000B9
:1040E000F00E0020201CD549052201F019FA061E09
:1040F00000D0E4E0D24B1B88092B0FD8D14D2A68A1
:10410000002A00D18AE2601D391C30310A2238634E
:1041100001F04EFB2B68C0B298477FE2CA4B1B6888
:10412000002B00D17AE2391C0A22601D2831B862C6
:1041300001F03EFBBB6AC0B20B3378612021181C32
:10414000BB61BB6201F070F9B8620670B86A391CD5
:10415000013028310A22B86201F02AFB80B23861AE
:10416000B86A391C013028310A22B86201F020FBFC
:10417000B86A391C013028310A22B86201F018FBF4
:10418000B86A391C013028310A22B86201F010FBEC
:10419000F860B86A391C013028311022B86201F089
:1041A00007FB80B2B860B86A391C01302831102290
:1041B000B86201F0FDFA80B27860B86A391C3A1C26
:1041C000331C013028313032B862FFF76AFBB86A1D
:1041D000391C013010222831B86201F0E9FABB6ABB
:1041E00080B25A1CBA625A7838604F2A04D10A3316
:1041F0000124BB62FC6106E0FE61492A03D10A3357
:104200000225BB62FD61BB6A1A78412A03D10733DC
:10421000BB62012411E0532A03D10633BB6203249D
:104220000BE0482A03D10533BB62022405E00024D9
:10423000502A02D10533BB620424BB6A1A784D2A86
:1042400003D10733BB62012605E00026532A02D1C1
:104250000633BB620226BB6A1A78502A03D10633A2
:10426000BB62012505E00025452A02D10A33BB6265
:104270000225391CB86A28310A2201F099FABB6A72
:10428000B9685A1CBA6200917A6880B201923A1CED
:104290003032029239680391FA69059404920696C5
:1042A000079508905B78453B5A4253410993664B0A
:1042B00078691C68B9693A69FB68A047AEE1201CBF
:1042C0006249042201F02CF9061E1FD1E3793A2B32
:1042D0001CD15F4D2B68002B00D19FE1391C3A1C8B
:1042E000331C601D30322831B862FFF7DAFABC6A3D
:1042F00022210234201CBC6201F096F8B8620670DC
:10430000381C2B683030211C984787E1201C51490C
:10431000072201F005F9F861002833D14E4E3168CB
:10432000002900D17AE1201C0B30391C28311022E1
:10433000B86201F03DFA84B2B86A391C3A1C013007
:1043400028313032FB69B862FFF7ABFAB96A3C4BEF
:104350000131B9622A681B88511A033189B2994226
:1043600009D2D318FD69023B1D70391C3368201C2B
:104370003031BA6A04E0391C3368FA69201C3031E4
:1043800098474BE1201C3549052201F0C9F8F86136
:10439000002825D1324E3168002900D13EE1201C91
:1043A000391C0B3030310A22386301F001FA041C49
:1043B000386B391C073030311022386301F0F8F9BE
:1043C0003B6B2A6801333B631D4BFD691B88E4B2DC
:1043D000D318023B1D7081B23368201C3A6B1CE17C
:1043E000201C2049022201F09BF8002801D11E4B1D
:1043F000E9E0201C1D49042201F092F8031E61D15E
:104400000F4A12881F2A35D8194D2968002900D172
:1044100004E1391C3A1C601D28313032B862FFF7C4
:1044200040FABB6A381C5A1CBA62597830304F398E
:104430004B1E9941C9B22B689847EFE00F6000000E
:10444000CC0E0020E80E0020B00E00201560000009
:104450008C0E00201A600000D00E002022600000A8
:10446000480E002028600000AC0E00202B600000E9
:10447000F40E0020834D2A68002A00D1CEE0391CBA
:104480003A1C601D243128327862FFF70AFA786AF4
:10449000391C013024311022786201F089F9041CA2
:1044A000786A391C3A1C013024313032202378627A
:1044B000FFF7F7F9381C3A1CE1B22B68283030328C
:1044C0009847ABE0201C7049052201F029F800282C
:1044D00008D16E4B1A78002A02D018706C4B1870F5
:1044E0006C4B70E0201C6C49042201F019F8061E88
:1044F00041D16A4D2B68002B00D18FE0391C601D23
:1045000028310A22B86201F053F9C0B2F861B86AE2
:10451000391C3A1C0130331C28313032B862FFF7A5
:10452000C0F9BB6A5C1CBC625B78201C532B0AD1AF
:10453000202100F079FF391CB86206702D68F869F7
:104540003031321C14E0391C1022283101F030F9CE
:10455000BC6AB86101342021201CBC6200F064FFF9
:10456000B969B86206708AB22D68391CF8693031B1
:10457000231CA84752E0201C4949042200F0D0FF28
:10458000002815D1474B1A68002A47D02379422BBF
:1045900002D1E51D01265FE0432B03D1251C0C351C
:1045A000022659E0502B39D1251C0C35032653E047
:1045B000201C3D49032200F0B3FF002808D13B4BEB
:1045C00001221A703A4B1B68002B27D0984725E030
:1045D000384B1B78002B21D0374B19681A1C002947
:1045E0001CD0364B19886418023C002121701888B1
:1045F0002968023880B2136898470FE0304B1A6878
:10460000002A0BD02F4A2D491568088800242C5405
:104610002D4C0988207812681B6898472B4B002482
:104620001C80294B1C702A4B1C702A4B1C702A4B77
:104630001A88402A01D8FFF7DFF9284D4021286861
:10464000198000F023FD1F4B1860A04201D1FFF735
:10465000BEF92860FFF7D0F9184B20211B88281CD1
:10466000E418A31E00241C7000F0DEFE04700D4C44
:10467000421C2368301C291C9847CFE7BD4611B067
:10468000F0BDC046EC0E002030600000A00E0020FF
:10469000500E0020980E002036600000B40E00205E
:1046A0003B600000BC0E002040600000DC0E0020DB
:1046B0004C0E00207C0E00206C0E0020CC0E002042
:1046C000D40E0020A40E0020A10E0020520E0020C7
:1046D000600E0020C40E0020940E0020680E002002
:1046E000154B80221968D2030A431A60134B5022DB
:1046F000DA7000229A701B78114B1B78D90703D40B
:10470000902189000F4A02E080210F4A8900116040
:1047100080229200990701D40C4900E00C490A60FC
:104720005A0703D4902292000A4B02E080220A4BDF
:1047300092001A607047C046348004400060074011
:10474000D40D002018B0044008C004401CB0044040
:104750000CC0044014B0044004C0044002B47146CC
:1047600049084900095C49008E4402BC7047C046B4
:1047700003B47146490840004900095A49008E4473
:1047800003BC7047002934D00123002210B48842B2
:104790002CD301242407A14204D2814202D2090170
:1047A0001B01F8E7E400A14204D2814202D2490091
:1047B0005B00F8E7884201D3401A1A434C08A04234
:1047C00002D3001B5C0822438C08A04202D3001BCA
:1047D0009C082243CC08A04202D3001BDC082243E1
:1047E000002803D01B0901D00909E3E7101C10BC05
:1047F0007047002801D00020C04307B4024802A13E
:104800004018029003BDC046D90000000029F0D036
:1048100003B5FFF7B9FF0EBC4243891A1847C046DB
:10482000002941D010B4041C4C40A44601230022AE
:10483000002900D54942002800D5404288422CD3A7
:1048400001242407A14204D2814202D209011B01A2
:10485000F8E7E400A14204D2814202D249005B00A1
:10486000F8E7884201D3401A1A434C08A04202D309
:10487000001B5C0822438C08A04202D3001B9C084A
:104880002243CC08A04202D3001BDC0822430028AC
:1048900003D01B0901D00909E3E7101C6446002C72
:1048A00000D5404210BC7047002806D003DB002032
:1048B000C043400801E08020000607B4024802A17E
:1048C0004018029003BDC046190000000029EBD03B
:1048D00003B5FFF7A7FF0EBC4243891A1847C0462D
:1048E0007047C0461C2101231B04984201D3000CD1
:1048F00010391B0A984201D3000A08391B09984253
:1049000001D30009043902A2105C40187047C04668
:104910000403020201010101000000000000000088
:1049200008B5031C081C191C00F002F808BDC0469D
:1049300038B5051C0C1C131C291C221C022000F07D
:1049400045FF38BD70B50D4E0D4D0024AD1BAD10AB
:1049500005D0A300F35801349847A542F9D101F0DE
:1049600025FC084E084D0024AD1BAD1005D0A3005A
:10497000F35801349847A542F9D170BDB8610000E1
:10498000B8610000B8610000DC61000008B5034BAD
:10499000011C186800F00EF808BDC046A8060020EB
:1049A00008B5034B011C186800F0ECFF08BDC046B9
:1049B000A8060020F0B5564644465F464D46F0B482
:1049C0000C1C0B3483B0061C162C2BD907239C43DC
:1049D0002BD4A14229D8301C00F054FBF823FF331C
:1049E0009C4226D8E208CA4DD300EB18DF689F42EC
:1049F00000D1BBE178680323FA68B96898433B1893
:104A0000CA609160596801220A43301C5A6000F064
:104A10003BFB381C083003B03CBC90469946A2468C
:104A2000AB46F0BD1024A142D5D90C233360002041
:104A3000F1E7630A00D18EE0042B00D93DE1A30920
:104A400038339C465900B24D89006918CF68B94285
:104A500015D07A6803239A43101B0F2800DD8DE0E0
:104A600000287CDA032007E07A688243131B0F2BAF
:104A700000DD83E0002B72DAFF68B942F4D1012235
:104A800094442B1C2F6908339F4200D163E178685E
:104A900003229043021C011B0F2900DD4AE16B61D8
:104AA0002B6100295FDA9B4B984200D90FE1C308C4
:104AB0009A100121DB00EB18914068680A1C996884
:104AC0000243FB60B9606A609F60CF6061468B10F3
:104AD00001219940914255D811420DD103236046DE
:104AE0009843031C043349009C46114204D104231B
:104AF00049009C441142FAD0032080466246D3000C
:104B00005B199A46181CE146C768B84207D124E1F0
:104B1000002B00DB33E1FF68B84200D11DE17A6869
:104B200043469A43131B0F2BF2DD01213A190C4324
:104B30007C60F868BC680835E06019438460EA600E
:104B4000AA60301CD56095605160D35000F09CFA8B
:104B5000381C08305FE73F227E21944673E7FB68EC
:104B6000B968CB609960BA18516801230B43301CB7
:104B7000536000F089FA381C08304CE701204042AD
:104B800084447CE7AF680323786898438146A04259
:104B900003D3031B0F2B00DD81E05F4A5F4B4946C7
:104BA0001B68106879180191E3189346013000D111
:104BB00047E15B495B181B0B1B030093301C0099FA
:104BC00000F020FC021C804601325DD0019B834234
:104BD00000D9EBE053480099026882468B1801998E
:104BE0000360414500D135E15A461268013200D1D7
:104BF00043E1019841460A1A9B1851460B6007236E
:104C00004246134000D104E1D21A08329046464A87
:104C1000D31A0098021C42441205120D9A1A111C54
:104C2000301C934600F0EEFB411C00D121E14246CE
:104C3000801A584401231843524611680B1C5B44E8
:104C40004146A96013604860AF4213D04A460F2A1C
:104C500000D8E9E04A46786807210C3A8A430121E6
:104C60000140114379600520B918486088600F2A17
:104C700000D906E12D4A1068834200D913602C4AFE
:104C800011688B4200D91360AF6803237A689A4396
:104C9000131B944200D9AEE00F2B00DCABE00122E5
:104CA000211C11433C1913437960301CAC606360D4
:104CB00000F0EAF9381C0830ADE6142B6ED9542BFD
:104CC00000D99DE0230B6E339C465900BBE6430A96
:104CD000042B67D9142B00D9B6E0191C5B314800AE
:104CE0008000401983688146834200D194E003210B
:104CF00088465968404681438A4202D29B6899455A
:104D0000F7D1D9686A68F960BB608F60DF60DDE663
:104D1000AC060020FF010000B80A0020100F0020A0
:104D20000F100000140F0020081000000C0F0020CE
:104D3000080F002001203A19044308437C606A618F
:104D40002A615060D3609360301C515000F09CF990
:104D5000381C08305FE66A68B8E601229144434691
:104D60004A460830134200D0CEE62CE03B1C7F6957
:104D7000023208339446BB4200D182E63AE6BA18C2
:104D80005068012303435360FB68BA68301CD3604A
:104D90009A6000F079F9381C08303CE65B339C4699
:104DA000590050E681093831480099E7AF4200D0F8
:104DB0006AE70FE75346186801225242083B9444C1
:104DC0008246984277D1434660460342F2D16B68EF
:104DD0008B436B604900994200D9D3E6002900D18A
:104DE000D0E6CC46194200D088E60422490094441B
:104DF0001942FAD082E6301C00F046F900200AE69B
:104E0000AA225200934214D8E30B77339C465900F0
:104E100019E680235B01FCE68910686801228A405C
:104E200002436A60191C6EE701234B60474600226B
:104E30002EE7224A934218D8A30C7C339C46590093
:104E400001E610330093B9E6542B22D8010B6E31E2
:104E5000480045E70A0500D0C6E60099AA68081C84
:104E6000484401210143516004E77E23FC219C4614
:104E7000E9E5002301209B46DEE6434658460360F1
:104E8000BDE6391C0831301C00F07CFD51460B6832
:104E9000F0E6AA2149008B4203D8C10B77314800C4
:104EA0001EE706498B4203D8810C7C31480017E786
:104EB000FC207E2114E76B688CE7C0465405000097
:104EC000F0B50F2A35D9031C0B439C0735D1161CAE
:104ED000103E36093501451910350C1C031C276896
:104EE0001F6067685F60A7689F60E7681034DF60D5
:104EF0001033AB42F3D1731C1B01C518C9180F2323
:104F00001340032B1BD91C1FA4080134A400002349
:104F1000CE58EE500433A342FAD1ED18C91803233A
:104F20001A4005D00023CC5CEC5401339342FAD1F3
:104F3000F0BD051C002AF5D1FAE7051CF2E71A1CA2
:104F4000F8E7C046F0B588420ED98D18A8420BD2BA
:104F50008618531E5142002A05D06A18D45C721874
:104F6000D454013BF9D2F0BD0F2A09D8051C002A00
:104F7000F9D00023CC5CEC5401339342FAD1F2E730
:104F8000031C0B439C072AD1171C103F3F093E010D
:104F9000861910360C1C031C25681D6065685D6051
:104FA000A5689D60E5681034DD601033B342F3D12D
:104FB0007D1C2D010F23491913404519032B10D9CE
:104FC0001E1FB6080136B6000023CC58EC5004333F
:104FD000B342FAD10324ED18C9182240C7E7051CD3
:104FE000C7E71A1CC3E7C046F0B5830746D0541E76
:104FF000002A42D0CEB2031C032503E0621E002C1F
:105000003BD0141C01335A1E16702B42F6D1032CD0
:105010002BD9FF250D402A0215432A0415430F2CD6
:1050200015D9271C103F3F091E1C3A011036B6182F
:105030001A1C156055609560D5601032B242F8D1E7
:1050400001373F010F22DB191440032C0DD9271F14
:10505000BF08BA001E1DB6181A1C20C2B242FCD1ED
:105060000137BF000322DB191440002C05D01C19A6
:10507000C9B219700133A342FBD1F0BD141C031C4B
:10508000C5E7C0467047C0467047C04608B50A1C11
:105090000349031C0868191C00F004F808BDC04649
:1050A000A8060020F0B54D4644465F465646F0B48B
:1050B000804685B00D1C914600D1DDE02E1C083ED7
:1050C000FFF7E0FF73684F4603221C1C0B37B34603
:1050D0009443162F00D976E0102001901027B9458F
:1050E00000D975E0019A944256DAC54832198068B1
:1050F0000390904200D1C3E05168081C8A46012108
:10510000884384469444614648680121084264D03B
:1051100000200022D90700D586E033680321F31A66
:105120008C4659689A46634699438C46002A00D1BA
:10513000DFE003998A4200D1DEE061460B19019954
:10514000C018039088426ADBD3689268D3609A6083
:105150005246D36892685646D3609A60221F08363A
:10516000242A00D9BBE0331C132A0AD92B685046E5
:1051700083606968C1601B2A00D905E1534610337A
:1051800008352A6851461A606868039C5860AD6803
:10519000D3469D604B68351CE21B0F2A2CD8012298
:1051A00013402343584643605C4461680A4362608D
:1051B0004046FFF769FF281C05B03CBC9046994665
:1051C000A246AB46F0BD07229743019700D486E77D
:1051D0000C2341460B600020EEE70320514681433B
:1051E000081C09198C4601998C4593DBD16892689B
:1051F0006446D1608A60CFE75846C1190120034058
:105200001F435B465F60131C03438A184B6053685F
:10521000083118435060404600F0B4FBC8E70393E0
:1052200003980199884293DA49464046FFF7C2FB4A
:105230008146002800D1D5E07368021C0121181CAA
:105240008843083A3618B24200D198E0221F242A37
:1052500040D8132A22D84B462A1C1068186051687F
:10526000596092689A604046291C00F08BFB4046CA
:10527000FFF70AFF48469FE7111CFFF79BFB9BE7E0
:10528000039A526802920298032290433A1C011931
:1052900010328C4691420CDA039A3BE729684B4660
:1052A0001960686858601B2A5ED82A1C08330832C7
:1052B000D3E7534BF21960469A60C11B012319438F
:1052C0005160716840460B401F437760FFF7DCFE7A
:1052D000281C71E74846291CFFF734FEC3E7291C48
:1052E000301CFFF72FFE52465368351C039CD346F3
:1052F00052E70B19039393E7624613193A1CC0183F
:105300001032039090428ADB50468268C36856464A
:10531000D3609A60221F0836242A53D8331C132ADC
:1053200008D9296881606B68C3601B2A4FD853462F
:10533000103308352868186069685960AD689D6049
:105340005346DA19039B2E48D91B01231943826067
:10535000516050464068514603401F4340464F60ED
:10536000FFF792FE301C27E7A9684B469960E86872
:10537000D860242A13D02A1C103310326DE75268EB
:1053800003218A43A41807E7AB6850460361E96824
:105390004161242A0DD0534618331035F1E62969AE
:1053A0002A1C196168694B4649461833183248610E
:1053B00053E72A6953468261686951462033C861C0
:1053C0001835DEE6301C291CFFF7BCFDB8E7A868DD
:1053D00051460861EB684B61242A08D053461833C4
:1053E0001035A7E74046FFF74FFE0020E4E62869A6
:1053F000514688616A6953462033CA61183599E776
:10540000AC06002038B5074C0023051C081C23609F
:10541000FBF75CFF431C00D038BD2368002BFBD09A
:105420002B60F9E74C0F0020CAB2F0B5002A3DD03E
:1054300083070ED00378002B5BD09A4235D003242B
:1054400004E00378002B54D09A422ED00130204241
:10545000F7D1FF2319400B0219430B0419430368CA
:10546000254E1C1C4C40A519A5432C1C9D199D4381
:105470002B1C224E234333420DD1043003681E4FB0
:105480000C1C5C40E519A5432C1CDD199D432B1C0D
:1054900023433342F1D00378002B04D129E00130BB
:1054A0000378002B25D09A42F9D1F0BD84070AD0A9
:1054B0000378002BF9D0032202E00378002BF4D00C
:1054C00001301042F9D103680B4E0C499A199A43E6
:1054D0000A4206D104300368074FDA199A430A4298
:1054E000F8D00378002BE0D001300378002BFBD1FB
:1054F000DBE70020D9E7C046FFFEFEFE808080800B
:10550000031C0A7801311A700133002AF9D170475F
:105510000023C25C0133002AFBD1581E7047C046ED
:1055200070B5051C0020002A2CD02B1C0B439C07B7
:1055300029D1032A27D92C680E68B44223D1131F1E
:10554000002B1FD0224EA219224EA24332420ED06F
:1055500018E06A6849688A422ED1043B002B10D0BB
:105560001B4D5119914331420BD1211C051C281DA3
:105570000C1D032BEDD85A1E002B21D0211C051C1D
:1055800002E0002070BD013A2C78087884421BD1DB
:10559000002AF6D0002CF4D06B1C0131AD1805E0C8
:1055A000AB42EED0002CECD0013301311C780A78EC
:1055B0009442F5D0A01AE5E75A1E211C051CE3E72A
:1055C0002C790A79A01ADDE7021CA01ADAE7C04696
:1055D000FFFEFEFE80808080031C0B43F0B5041CA0
:1055E0009D0701D1032A15D8002A12D00D78013A5F
:1055F000631C4E1C2570002D1BD0311C07E00C785D
:1056000001335D1E013A2C700131002C11D0002AAB
:10561000F5D1F0BD0B4E0B680B4FDD199D433542A4
:10562000E2D10434251F043A04312B60032AF2D856
:10563000DAE79C180021002AEBD019700133A3424D
:10564000FBD1E6E780808080FFFEFEFEF0B5564687
:1056500044465F464D46F0B49846544B87B004919B
:105660001E6805900B1C9246082100E02B1C1C783C
:105670005D1C321952781142F8D12D2C00D178E0FE
:10568000002202922B2C00D178E01023414699434E
:10569000C14609D1302C00D173E04146002900D029
:1056A00081E00A2291469046029980274B424B4165
:1056B0003F06FF1A381C4946FFF7A8F8381C03912B
:1056C0004946FFF75FF8032104238B464146021C3D
:1056D000002700209C4601910EE0019B303CA34234
:1056E0001BDD791C06D090422ED82AD0494648436B
:1056F000012720182C78013533195B78614619424F
:10570000EBD159460B4008D057218846012B1ED0BB
:10571000019B4146641AA342E3DC02997A1C19D02A
:10572000002924D15246002A04D0002F1DD1049D07
:1057300053461D6007B03CBC90469946A246AB4616
:10574000F0BD039B9C42D1DD01277F42D2E7372386
:105750009846DDE780204B424B410006059AC01A6F
:10576000222313605346002BE4D0013DE0E7404282
:10577000D8E701219D1C5C78029186E79D1C5C782E
:1057800083E72B7820229343582B06D041460029EB
:1057900009D108218946884686E710226C7891460F
:1057A0000235904680E7C1467EE7C046BC0A00202D
:1057B00038B5131C044A051C0C1C1068291C221C3B
:1057C000FFF744FF38BDC046A8060020F0B54F469D
:1057D0004646C0B498462B4BA4251B686D005C5907
:1057E00083B0061C0F1C91460193002C44D06568C1
:1057F0001F2D1ADD244B002B02D1012040421CE05A
:10580000C8204000FFF7C2F8041EF6D0002545600E
:10581000A42301985B00C05801992060CC50C42398
:105820005B00E550C6235B00E550002E0AD16B1CDF
:105830000235AD00636000202F5103B00CBC9046D0
:105840009946F0BDAB00E318882248469850C42022
:105850004000221810680121A940084310608422EA
:10586000520040469850022EE1D1C6225200A318A1
:10587000186801431960DAE71C1C4D34FF345C5191
:10588000B5E7C046A46000008D49000008B5034B91
:10589000002B02D0024800F005F808BD000000000F
:1058A000B558000008B5011C002200200023FFF7B6
:1058B0008DFF08BD38B5094B094DED1AAD1009D063
:1058C000013DAC00E41800E0013D23689847043C2A
:1058D000002DF9D100F082FC38BDC0460000000068
:1058E00000000000F8B50F1C041CFFF7CBFB204D97
:1058F000204AAB685E6803239E43F71BBF183F0B2B
:105900001D4B013F3F039F4207DD201C0021FFF795
:1059100079FDAA689319984204D0201CFFF7B4FBC4
:105920000020F8BD7942201CFFF76CFD01300DD03E
:10593000AB68F61B012216435E60104B201C1A68F0
:10594000D71B1F60FFF7A0FB0120EAE7201C002106
:10595000FFF758FDAB68C21A0F2ADEDD0849096857
:10596000401A0649086001210A435A60D5E7C0463B
:10597000AC060020EF0F0000FF0F0000140F002006
:10598000B80A0020F0B5474680B4051C0C1E55D05F
:10599000FFF778FB211C083948680127031CBB432B
:1059A000CA185468804603208443201C534CA668C0
:1059B000964260D00026B4464646506037420AD12F
:1059C0000E68271C891B9B198E680837BE426BD056
:1059D000CF68F760BE601618766801273E4207D18F
:1059E0001B18604600282CD09068D268C260906076
:1059F0000122181C104366464860CB50002E1AD175
:105A00003F48834229D95A0A042A50D89E09383679
:105A1000700080002018826882424ED003265468AD
:105A2000B443A34202D292689042F8D1D368CB60CB
:105A30008A609960D160281CFFF726FB04BC904661
:105A4000F0BD90682F4EB042CFD11F43C16081603E
:105A5000C86088604F60CB50EDE7DB08981082404B
:105A60006068DB0002436260E418A368CC608B606E
:105A7000A160D960DFE7C3184046074206D10A6833
:105A8000891A88689B18CA68C260906001221A430C
:105A90004A601D4AA16012689342CCD31B4B281C5C
:105AA0001968FFF71FFFC6E70126B44693E7142ADB
:105AB0000CD8161C5B367000ABE7B6100123B34060
:105AC0001E1C63681E436660131CB0E7542A03D88B
:105AD0001E0B6E3670009CE7AA204000824203D85D
