:1000000000180020C1000000490B0000150B000083
:10001000150B0000150B0000150B0000150B000060
:10002000150B0000150B0000150B0000490B00001C
:10003000490B0000150B0000490B0000050B0000E8
:10004000490B0000490B0000490B0000490B000060
:10005000490B0000490B0000490B0000490B000050
:10006000490B0000490B0000490B0000490B000040
:10007000E5110000391600008D1A0000490B000040
:10008000490B0000490B0000490B0000490B000020
:10009000490B0000490B000091280000490B0000AB
:1000A000551D0000490B0000490B0000490B0000E2
:1000B000490B00009D240000490B0000490B000083
:1000C00038B500F045FD454A454B1A60454A464B58
:1000D0001A60464A464B1A60464B0822197811426C
:1000E00002D019780A431A70434B2A221A7000234F
:1000F000424A43499A188A4204D24249C9580433B1
:100100001160F5E7404B41491A1F181D00238A4230
:1001100002D21360031CF6E73D493E4A5958101CB1
:1001200099500433C02BF7D100239A083A49920022
:10013000521803211940C9001568FF248C40A543BB
:100140002C1C80258D40291C214301331160202B5C
:10015000EBD1324B8A221860314B1A70314B24227A
:100160005A70A0221A709A799107FCD59A79D5060F
:10017000FCD498790C212B4A01400829F9D103219C
:100180001171402151719A799106FCD59A795506E1
:10019000FCD5254AC02189051160224A2021117011
:1001A00099790C220A400C2AFAD1204A204B1A6075
:1001B000204A214B1A60214B00221A60204B072253
:1001C0001A60204A204B1A6062B600F0A3FD02F0CC
:1001D00059FD00F0C3FC00F045FCFEE7300004F0E0
:1001E00034800440823F0000388004400100000F4A
:1001F0003C80044002D0074000E00740C0000020DF
:10020000440B0020043A0000480B0020D00E0020D0
:100210000000000000F9FF1F00E400E008ED00E02E
:10022000005006400040064044800440C0000505E0
:1002300004800440BF5D000014E000E018E000E02E
:1002400010E000E00000202020ED00E0FFFFFFFFB5
:10025000FFFFFFFFFFFFFFFFFFFFFFFFFFFFFFFFAE
:10026000FFFFFFFFFFFFFFFFFFFFFFFFFFFFFFFF9E
:10027000FFFFFFFFFFFFFFFFFFFFFFFFFFFFFFFF8E
:10028000FFFFFFFFFFFFFFFFFFFFFFFFFFFFFFFF7E
:10029000FFFFFFFFFFFFFFFFFFFFFFFFFFFFFFFF6E
:1002A000FFFFFFFFFFFFFFFFFFFFFFFFFFFFFFFF5E
:1002B000FFFFFFFFFFFFFFFFFFFFFFFFFFFFFFFF4E
:1002C000FFFFFFFFFFFFFFFFFFFFFFFFFFFFFFFF3E
:1002D000FFFFFFFFFFFFFFFFFFFFFFFFFFFFFFFF2E
:1002E000FFFFFFFFFFFFFFFFFFFFFFFFFFFFFFFF1E
:1002F000FFFFFFFFFFFFFFFFFFFFFFFFFFFFFFFF0E
:10030000FFFFFFFFFFFFFFFFFFFFFFFFFFFFFFFFFD
:10031000FFFFFFFFFFFFFFFFFFFFFFFFFFFFFFFFED
:10032000FFFFFFFFFFFFFFFFFFFFFFFFFFFFFFFFDD
:10033000FFFFFFFFFFFFFFFFFFFFFFFFFFFFFFFFCD
:10034000FFFFFFFFFFFFFFFFFFFFFFFFFFFFFFFFBD
:10035000FFFFFFFFFFFFFFFFFFFFFFFFFFFFFFFFAD
:10036000FFFFFFFFFFFFFFFFFFFFFFFFFFFFFFFF9D
:10037000FFFFFFFFFFFFFFFFFFFFFFFFFFFFFFFF8D
:10038000FFFFFFFFFFFFFFFFFFFFFFFFFFFFFFFF7D
:10039000FFFFFFFFFFFFFFFFFFFFFFFFFFFFFFFF6D
:1003A000FFFFFFFFFFFFFFFFFFFFFFFFFFFFFFFF5D
:1003B000FFFFFFFFFFFFFFFFFFFFFFFFFFFFFFFF4D
:1003C000FFFFFFFFFFFFFFFFFFFFFFFFFFFFFFFF3D
:1003D000FFFFFFFFFFFFFFFFFFFFFFFFFFFFFFFF2D
:1003E000FFFFFFFFFFFFFFFFFFFFFFFFFFFFFFFF1D
:1003F000FFFFFFFFFFFFFFFFFFFFFFFFFFFFFFFF0D
:10040000FFFFFFFFFFFFFFFFFFFFFFFFFEFFFFFFFD
:1004100010B5064C2378002B07D1054B002B02D0DA
:10042000044800E000BF0123237010BD440B0020EE
:1004300000000000043A000008B5084B002B03D070
:100440000748084900E000BF07480368002B03D0B5
:10045000064B002B00D0984708BDC04600000000A6
:10046000043A0000480B0020440B0020000000006C
:100470000139C9B208B524294FD8284B1F290DD9F5
:10048000203901208840011C002A03D01A79114329
:1004900019713CE01A7982431A7138E0012017295A
:1004A0000CD918398840011C002A03D0DA7811438E
:1004B000D9702CE0DA788243DA7028E00F290CD961
:1004C00010398840011C002A03D09A781143997092
:1004D0001DE09A7882439A7019E007290CD90839EF
:1004E0008840011C002A03D05A78114359700EE04D
:1004F0005A7882435A700AE08840011C002A03D0CF
:100500001A781143197002E01A7882431A70044B6A
:100510001B78002B01D101F015FF08BDAC0E0020A7
:10052000680E002038B500F077FA0C4D0C4B012412
:10053000281C002121221C7002F09AFEA5232B709A
:10054000084B00221A70084B1C7000F0A5FB074BEB
:100550001860074B1A68074B1A6038BD760B0020ED
:10056000680E0020640B00206E0B0020600B002042
:10057000C00B0020680B002008B5031C0A1C0248B1
:10058000191CFFF775FF08BD690E002008B5064B62
:10059000C0B25870054B5877054B1B78002B01D122
:1005A00001F0D0FE08BDC046760B0020AC0E002046
:1005B000680E00209378012B15D1D378022B07D138
:1005C0001179124B997051799279D9701A7117E09B
:1005D000032B15D10D4B5978042911D01179D971FC
:1005E00052791A720CE0082B0AD1084B5978042969
:1005F00006D0D178127909020A435A71120A9A7107
:10060000034B1A68034B1A607047C046760B0020F4
:10061000C00B0020680B0020F8B5A04B1B78002B06
:1006200000D139E19E4C9F48211C212200F09CF909
:100630009D4D0021281C01F0BDFE81B2002903D090
:1006400001202A1CFFF7B6FF2378A52B00D021E15B
:100650006078FFF79BFF0523E3568022934FD31A60
:100660007B71934B1A78002A01D101F06BFE0623AF
:10067000E3568F4A7F33BB711378002B01D101F011
:1006800061FEA1780120C909FFF776FFA178012555
:10069000890929400220FFF76FFFA178032049094B
:1006A0002940FFF769FFA178042009092940FFF7D5
:1006B00063FFE1780520C909FFF75EFFE1780620B6
:1006C00089092940FFF758FFE178072049092940A7
:1006D000FFF752FFE178082009092940FFF74CFF96
:1006E000E178092089082940FFF746FFE1780A20D0
:1006F000E9402940FFF740FF21790B20C908294034
:10070000FFF73AFF21790C2089082940FFF734FFD1
:1007100021790D20E9402940FFF72EFF21790E2095
:1007200049092940FFF728FFE1780F20C90829402F
:10073000FFF722FFE17810202940FFF71DFF6378C3
:10074000042B6DD1217A1320C9082940FFF714FF2B
:10075000217A142009092940FFF70EFF217A15207C
:1007600049092940FFF708FFA17A16202940FFF721
:1007700003FFA17A1720E9402940FFF7FDFEA17A87
:10078000182089082940FFF7F7FEA17A1920C90827
:100790002940FFF7F1FEA17A1A2009092940FFF745
:1007A000EBFEA17A1B2049092940FFF7E5FEA17A5B
:1007B0001C2089092940FFF7DFFEA17A1D20C90905
:1007C000FFF7DAFEE17A1E202940FFF7D5FEE17A35
:1007D0001F20E9402940FFF7CFFEE17A2020890859
:1007E0002940FFF7C9FEE17A2120C9082940FFF717
:1007F000C3FEE17A222009092940FFF7BDFEE17A14
:10080000232049092940FFF7B7FEE17A242089090E
:100810002940FFF7B1FEE17A2520C909FFF7ACFEB8
:10082000244D2B785A1E312A01D8013302E0322B95
:1008300001D900232B702B78002B1AD11E4EE179A1
:100840001120317049B201314B425941C9B2FFF711
:1008500093FE00217156122001394B425941C9B211
:10086000FFF78AFE0023F356002B02D02B780133CA
:100870002B70A2780F231A40013AD2B2FF23072A25
:1008800001D80E4B9B5C0A4AFB711378002B01D1F7
:1008900001F058FD01F056FDF8BDC0466E0B00207A
:1008A000970B0020760B00206F0B0020AC0E002071
:1008B000680E00206D0B00206C0B002090360000AD
:1008C000F7B50E1C051C5421580700D450210820F0
:1008D000034200D00143002A01D1012319432970AA
:1008E0000024124F12483A5D6300C15A1148019228
:1008F00002F036F90E4F864203D3019A00246A7043
:1009000006E001341E2CECD1F7E701341E2C09D08F
:10091000064B09481B5D01936300F95A02F020F968
:100920008642F2D30198A870F7BDC046AC390000EA
:100930007039000000366E01006CDC0210B5041C3A
:10094000FFF7BEFF201C10BD031CFF20002907D0AD
:100950001A7801395040034A0133105CC9B2F5E7F7
:100960007047C046C4000020F7B5561E0C1CF1B2FB
:10097000171C051CFFF7E8FF6B1CD87700210A2025
:1009800000F04AF91E4B18785B78009001931D4BDC
:100990001A68002A08D072B61B4A1868116801400C
:1009A0001A480160116062B6009A1949CA7001982C
:1009B00000224870BA420ADAA85C8871087840B20E
:1009C0000028FBDA12488079A0540132F2E71B6854
:1009D000002B03D00D4B1A680E4B1A600A20012120
:1009E00000F01AF9231C1A1BB24207DA19785A7858
:1009F0004900D2090A431A700133F4E7F7BDC04633
:100A0000B90B00206C0E002080E100E0700E002089
:100A10000060074000E100E013B50A20012100F06A
:100A20001BF901AC0A20012100F0F6F801F0F8FFF3
:100A3000201C044901220023FFF780FF6278024B4B
:100A40005A7013BD00093D000060074008B5034817
:100A5000034901220023FFF771FF08BDB90B0020F5
:100A6000001BB70008B5FFF75DFDFFF7D5FD01F0EE
:100A7000CFFFFAE71B4B1C4A19781C4B082901D100
:100A8000002102E00A2903D138211160132206E077
:100A90000C2901D1342100E03C21116012221A609E
:100AA000134B1A78134B002A01D0002200E00122D8
:100AB0001A60114B1A78114B012A01D880220CE0E0
:100AC000042A01D8842208E0082A01D8852204E0FB
:100AD000102A01D8862200E087221A60084B0122E2
:100AE0001A707047C401002008B003400CB00340E6
:100AF000BD0B002020B00340C501002024B00340FE
:100B0000BC0B0020024B1A6801321A607047C046C5
:100B1000C00B002010B50B4C23685A0301D501F01F
:100B200019F923685A0501D500F05CFB23681A0502
:100B300001D500F081FD2368DA04ECD500F0A6FFB2
:100B4000E9E7C0463480044008B5FFF7E3FFFFFF44
:100B5000014B00221A607047008104407047FFFF7C
:100B6000024A136818181060181C7047C80100204A
:100B7000EFF31380002821D1EFF31082002A1FD158
:100B8000EFF30583002B0FD0101C0F2B0ED91A1C6E
:100B9000103A92080B4903209200034052188340F8
:100BA0001068D840C0B201E080204000EFF311820D
:100BB000002A05D0824203D2101C01E001204042ED
:100BC0007047C04600E400E0F8B5061C0D1C171C79
:100BD0000024301C391C01F0B9FF092901D830313B
:100BE00000E03731C9B22955301C391C01F06AFFC9
:100BF000061E01D00134ECE72B1958702B1C5A1B30
:100C0000A24206DA1A78295D19702A550133013C8F
:100C1000F5E7281CF8BDFFFF10B51A2818D80C23DB
:100C200058430C4A835810181C7D027A224205D082
:100C3000002901D01A710BE01A7209E043681A68A2
:100C4000002902D003210A4301E002218A431A60ED
:100C500010BDC0469836000010B51A2818D80C23CD
:100C600058430C4A141863688258247A012904D125
:100C7000117D0C431475A22205E0107DA043107570
:100C8000002902D18022520001E00422FF321A60C2
:100C900010BDC0469836000072B60C4B0C491A685D
:100CA0000C4B1B68096862B6480104D53221914299
:100CB000894149425B18FA20800043430648821A62
:100CC00006484243920D98187047C04618E000E06D
:100CD00004ED00E0C00B0020BF5D0000ABAA0200E5
:100CE00038B5041CFFF7D8FF051C002C0ED0FFF709
:100CF000D3FF074B401B984205D9013C002C05D07F
:100D0000FA239B00ED1801F083FEF0E738BDC046E2
:100D1000E70300001C4B8022D20510B51A60802228
:100D200012061A60194B002018601949194B1A4A0B
:100D3000196028231360194A194C1360194A13606B
:100D4000194A1360194A1360194A13600922226074
:100D5000184C2060184C2160184C2360184C2360FC
:100D6000184C2260184C20601848016018490B602C
:100D700018490B60184B1A60FFF77CFEFA20FFF74A
:100D8000AFFF01F089FA10BD00E100E004800340EC
:100D9000FFBF0000088003400C8003401480034024
:100DA000008003401C800340248003402C800340CB
:100DB0003480034004900340089003400C900340AB
:100DC000149003400090034004A0034008A0034097
:100DD0000CA0034014A0034000A00340164B802247
:100DE0001968D2000A431A60144A00231370144A87
:100DF00014491370144A1370144A1370144A137070
:100E0000144A1160144AD12189001160134AC104A7
:100E1000C90EC0B21170507093702C23D370104B58
:100E2000FF22196891430A1C40210A431A600D4BA6
:100E3000802252011A607047348004404C0C00201C
:100E4000C90B002013030000540C00204D0C00209F
:100E5000C80B002040A0044044A0044000A006406D
:100E60000CE400E000E100E010B5124B1322997889
:100E70009143032202400A43410701D510210A434E
:100E80009A700F220B490240042A03D18A79402428
:100E900022438A715A7910218A43084200D00A43BA
:100EA0005A719A7910218A43840600D50A439A71AF
:100EB00010BDC04600A0064008B5124B1B685A057D
:100EC0001ED5114B1B78DBB2002B02D001F0A0FD28
:100ED000F7E70E4A8021490111600D4A0D49D37090
:100EE0000422FF320A600C490A600C4A13700C4A53
:100EF00013700C4B1B68002B02D00B4A12781A712E
:100F000008BDC04634800440C80B002080E100E0EA
:100F100000A0064040A0044044A004404C0C002027
:100F2000C90B0020C40B00200A0C002038B5041C9B
:100F30000B4B1D78EDB2002DFAD1201C0121FFF7DB
:100F40008BFE291C201CFFF767FE0C225443054B27
:100F5000054AE1581C191160044B227A1A7038BDF9
:100F6000C80B002098360000500C00204B0C0020CD
:100F700038B50E4B1A680023510514D50C4C1A28AD
:100F800010D80C2343430B4A0B4D9958D3181B7AA6
:100F9000216001212B70FFF75FFE23682A781A7207
:100FA000012300E02360181C38BDC0463480044093
:100FB000C40B0020983600000A0C00200C4B021CC9
:100FC0001B680020590512D50A4B122A02D10A4982
:100FD0000A4A03E0142A06D10749094A11605A7BDC
:100FE0000120024302E05A7B01218A435A73704771
:100FF0003480044000A00640020300000CA004401E
:1010000014C00440F8B5214B071C1B685A053BD59A
:101010001F4B1B68002B02D01E4A12781A711E4EFD
:10102000002334783F220134A2425B415B421C40E2
:101030001A4D2B78A3421CD1FFF79AFD402813DCF0
:10104000174A13795BB2002BF2DA2B7800210133B7
:101050003F209842494149420B401249C95CDBB2EA
:10106000C9B2D1712B70E3E7FF28E1DD01F0D0FCBC
:10107000DEE70C4BFFB21F550B4B01221A70084BD9
:10108000E4B2AC223470DA70F8BDC046348004405B
:10109000500C00204B0C0020540C00204D0C002064
:1010A00000A00640CA0B0020C80B002038B5041C65
:1010B0004518AC4204D02078FFF7A4FF0134F8E7CC
:1010C00038BDFFFF08B5044B1B78002B02D001F0A0
:1010D0009FFCF8E708BDC046C80B0020064B074A36
:1010E0001B781078DBB2C0B2834201D33F3000E0FE
:1010F0000138C01A7047C046540C00204D0C002027
:10110000054B1878054BC0B21B78DBB2984200D271
:101110004030C01A7047C0464C0C0020C90B00205C
:1011200010B5124B12491A780B78D2B2DBB29A4240
:1011300019D001333F2400209C42404140420340EB
:101140000C48DCB2C05C0C700B49C0B209680029C5
:101150000BD09A4200D24032D31A1A2B05DC074B2F
:101160001B780B7201E00120404210BD4C0C0020A6
:10117000C90B00200B0C0020C40B00200A0C00201F
:101180000A4B1A780A4B1B78DBB29A420AD0013319
:1011900000223F219942524152421340054AD05CFD
:1011A000C0B201E0012040427047C0464C0C002014
:1011B000C90B00200B0C0020064B1A78064BD2B24C
:1011C0001A70064B1B68002B02D0054A12781A725F
:1011D0007047C046C90B00204C0C0020C40B0020F7
:1011E0000A0C002030B5254A1379990612D52449F6
:1011F000D4790B78002001333F259D424041404285
:1012000003402048E4B20078834203D01E48C4540F
:10121000DBB20B70D178194CC9B24BB2002B1ADA81
:1012200023795BB2002B16DA184B19481D78037826
:10123000DBB29D4202D16C23E3700CE00133002449
:101240003F259D42644164422340124CE45CDBB282
:10125000E4B2D4710370402319420ED011791942BF
:101260000BD00D4B002119700C4B1B688B4202D028
:101270000B49097819722C23D37030BD00A00640A9
:101280004C0C0020C90B00200B0C0020540C00203B
:101290004D0C0020CA0B0020C80B0020500C002071
:1012A0004B0C0020164B8022196812010A431A6069
:1012B000144A00231370144A14491370144A13700B
:1012C000144A1370144A1370144A1160144AD1213D
:1012D00089001160134AC104C90EC0B21170507068
:1012E00093702C23D370104B104A19680A40802148
:1012F000C9010A431A600E4B802292011A6070479E
:1013000034800440C00C0020560C00201303000061
:10131000C80C0020C10C0020550C00200CB004406B
:1013200010B0044000B006400CE400E0FF00FFFFF6
:1013300000E100E010B5124B13229978914303228B
:1013400002400A43410701D510210A439A700F2237
:101350000B490240042A03D18A79402422438A712E
:101360005A7910218A43084200D00A435A719A7967
:1013700010218A43840600D50A439A7110BDC046E5
:1013800000B0064008B50E4B1B681A0517D50D4B6B
:101390001B78DBB2002B02D001F03AFBF7E70A4AD8
:1013A000802189011160094A0949D3700422FF3262
:1013B0000A6008490A60084A1370084A137008BD99
:1013C00034800440550C002080E100E000B006406D
:1013D0000CB0044010B00440C00C0020560C00209B
:1013E00038B5041C0B4B1D78EDB2002DFAD1201C32
:1013F0000121FFF731FC291C201CFFF70DFC0C22FA
:101400005443054B054AE1581C191160044B227ADC
:101410001A7038BD550C002098360000C40C00200E
:10142000BF0C00200B4B00221B68190510D50A4B7E
:10143000162809D1094AC021890011605A7B082168
:101440000A435A73012203E0597B082081435973F0
:10145000101C70473480044000B0064004B00440C3
:101460000A4B021C1B68002019050ED5084B172AD1
:1014700007D1084AC021890011605A7B012002432C
:1014800002E05A7B01218A435A737047348004403A
:1014900000B0064008B00440F8B5214B071C1B689B
:1014A0001A053BD51F4B1B68002B02D01E4A127831
:1014B0001A711E4E0023347827220134A2425B4168
:1014C0005B421C401A4D2B78A3421CD1FFF750FB06
:1014D000402813DC174A13795BB2002BF2DA2B7821
:1014E0000021013327209842494149420B401249CB
:1014F000C95CDBB2C9B2D1712B70E3E7FF28E1DD33
:1015000001F086FADEE70C4BFFB21F550B4B0122B0
:101510001A70084BE4B2AC223470DA70F8BDC046E1
:1015200034800440C40C0020BF0C0020C80C0020F4
:10153000C10C002000B00640570C0020550C0020C4
:1015400038B5041C4518AC4204D02078FFF7A4FF3E
:101550000134F8E738BDFFFF08B5044B1B78002BBA
:1015600002D001F055FAF8E708BDC046550C00203E
:10157000064B074A1B781078DBB2C0B2834201D316
:10158000273000E00138C01A7047C046C80C002060
:10159000C10C0020054B1878054BC0B21B78DBB29C
:1015A000984200D24030C01A7047C046C00C00209C
:1015B000560C00200A4B0B4A19781378DBB299427B
:1015C0000BD001333F2000219842494149420B4052
:1015D0000549C85CDBB2137001E00120404270474E
:1015E000C00C0020560C00207F0C00200A4B1A78FB
:1015F0000A4B1B78DBB29A420AD0013300223F210A
:101600009942524152421340054AD05CC0B201E0B7
:10161000012040427047C046C00C0020560C0020FC
:101620007F0C0020024B1A78024BD2B21A7070471E
:10163000560C0020C00C002030B5254A13799906BD
:1016400012D52449D4790B78002001333F259D42DF
:101650004041404203402048E4B20078834203D036
:101660001E48C454DBB20B70D178194CC9B24BB2CE
:10167000002B1ADA23795BB2002B16DA184B1948C3
:101680001D780378DBB29D4202D16C23E3700CE03D
:101690000133002427259D42644164422340124CBB
:1016A000E45CDBB2E4B2D4710370402319420ED083
:1016B000117919420BD00D4B002119700C4B1B688E
:1016C0008B4202D00B49097819722C23D37030BD9C
:1016D00000B00640C00C0020560C00207F0C0020FB
:1016E000C80C0020C10C0020570C0020550C002015
:1016F000C40C0020BF0C0020164B80221968520138
:101700000A431A60144A00231370144A14491370D0
:10171000144A1370144A1370144A1370144A116057
:10172000144AD12189001160134AC104C90EC0B204
:101730001170507093702C23D370104B104A19689D
:101740000A408021C9030A431A600E4B8022D2014D
:101750001A60704734800440340D0020CA0C002009
:10176000130300003C0D0020350D0020C90C0020A3
:1017700008C004400CC0044000C006400CE400E077
:10178000FFFF00FF00E100E010B5124B1322997833
:101790009143032202400A43410701D510210A4325
:1017A0009A700F220B490240042A03D18A794024FF
:1017B00022438A715A7910218A43084200D00A4391
:1017C0005A719A7910218A43840600D50A439A7186
:1017D00010BDC04600C0064008B50E4B1B68DA04B9
:1017E00017D50D4B1B78DBB2002B02D001F010F99E
:1017F000F7E70A4A8021C9011160094A0949D370F3
:101800000422FF320A6008490A60084A1370084A35
:10181000137008BD34800440C90C002080E100E052
:1018200000C0064008C004400CC00440340D002035
:10183000CA0C002038B5041C0B4B1D78EDB2002DEE
:10184000FAD1201C0121FFF707FA291C201CFFF701
:10185000E3F90C225443054B054AE1581C19116069
:10186000044B227A1A7038BDC90C0020983600004B
:10187000380D0020330D00200B4B00221B68D904CB
:1018800010D50A4B022809D1094AC02189001160EC
:101890005A7B08210A435A73012203E0597B08202E
:1018A00081435973101C70473480044000C00640C7
:1018B00000C004400A4B021C1B680020D9040ED54E
:1018C000084B0E2A07D1084AC021890011605A7BB3
:1018D0000120024302E05A7B01218A435A73704778
:1018E0003480044000C0064004C00440F8B5214BD9
:1018F000071C1B68DA043BD51F4B1B68002B02D06A
:101900001E4A12781A711E4E0023347827220134A1
:10191000A2425B415B421C401A4D2B78A3421CD172
:10192000FFF726F9402813DC174A13795BB2002B26
:10193000F2DA2B78002101332720984249414942AD
:101940000B401249C95CDBB2C9B2D1712B70E3E71D
:10195000FF28E1DD01F05CF8DEE70C4BFFB21F551C
:101960000B4B01221A70084BE4B2AC223470DA70CF
:10197000F8BDC04634800440380D0020330D0020EF
:101980003C0D0020350D002000C00640CB0C00208F
:10199000C90C002038B5041C4518AC4204D020788E
:1019A000FFF7A4FF0134F8E738BDFFFF08B5044B8B
:1019B0001B78002B02D001F02BF8F8E708BDC046D9
:1019C000C90C0020064B074A1B781078DBB2C0B266
:1019D000834201D3273000E00138C01A7047C04667
:1019E0003C0D0020350D0020054B1878054BC0B28A
:1019F0001B78DBB2984200D24030C01A7047C04614
:101A0000340D0020CA0C00200A4B0B4A19781378B9
:101A1000DBB299420BD001333F200021984249416B
:101A200049420B400549C85CDBB2137001E001205C
:101A300040427047340D0020CA0C0020F30C0020F7
:101A40000A4B1A780A4B1B78DBB29A420AD0013350
:101A500000223F219942524152421340054AD05C34
:101A6000C0B201E0012040427047C046340D002062
:101A7000CA0C0020F30C0020024B1A78024BD2B2A1
:101A80001A707047CA0C0020340D002030B5254A6A
:101A90001379990612D52449D4790B7800200133A3
:101AA0003F259D424041404203402048E4B2007837
:101AB000834203D01E48C454DBB20B70D178194C5A
:101AC000C9B24BB2002B1ADA23795BB2002B16DABB
:101AD000184B19481D780378DBB29D4202D16C2364
:101AE000E3700CE00133002427259D4264416442E9
:101AF0002340124CE45CDBB2E4B2D47103704023A7
:101B000019420ED0117919420BD00D4B00211970DA
:101B10000C4B1B688B4202D00B49097819722C239D
:101B2000D37030BD00C00640340D0020CA0C002028
:101B3000F30C00203C0D0020350D0020CB0C0020C4
:101B4000C90C0020380D0020330D00201FB572B6DF
:101B5000154B70221A70154A41211170144A0F2139
:101B6000117080221A701A7852B2002AFBDA114BD7
:101B7000186862B6104B984201D80A23584301AC4A
:101B8000211C0A22FFF720F80023E15C0B4A002900
:101B900005D058001018013341800A2BF5D10133CC
:101BA0005B0013701FBDC0460000024007000240EA
:101BB00006000240080002407F969800EC020020D8
:101BC000F0B50B4F02223B780A4E1A43D2000A4D61
:101BD000B418606028788824002800D0C82409043C
:101BE0000C43B45001225040534028703B70F0BD6C
:101BF000980D002000F8FF1F000E0020431E10B5B6
:101C0000012B0FD872B6084A99008858002807D0CF
:101C100044685B008C50054A01889C5A611A9952AD
:101C200062B600E0002010BD900D0020A80E00203C
:101C3000431E0020012B09D872B6054A9B009B5811
:101C4000002B02D001305B68FAE762B67047C046ED
:101C5000DC0D002010B572B61A4B1A78191C1A4BFD
:101C6000140706D5194A146A002C13D0926A002A68
:101C700018D04A7808210A4206D0144A146C002C65
:101C800009D0926C002A0FD062B600221A7000F0C0
:101C9000DDFB15E004210D4AC900083054186060CE
:101CA0000B4808E0052100E00921084AC900083076
:101CB00054186060074888501A78013A1A7062B662
:101CC00010BDC046DC370000F60D002000F8FF1FF5
:101CD00088004000C8004000421E10B5012A30D8DC
:101CE000022380001843174BC0001B1872B6164C15
:101CF000A05C032809D800F0D1FE140216050833B1
:101D0000022011E0083304200EE01048920014581D
:101D10000F4B002C01D1115001E0985841609950AF
:101D20000EE0032000E00520A0540A1C08325A608F
:101D30008822180700D5C822098809040A431A60B6
:101D400062B610BD00F8FF1F4C0D0020DC0D002016
:101D5000E40D0020F7B5B9480378011CDBB25A073F
:101D600011D5B74A1278002A0AD0B6480278D2B202
:101D7000002A05D0013AD2B20270002A00D100BE7A
:101D8000AE4D04222A7008251A1C2A4000D11FE2F9
:101D9000AD4BAE4C1B78DBB29A081E09D200002E68
:101DA00000D0A8E1A21817685168B806000F0138E2
:101DB0000C2800D99CE100F07BFE750175019B01A8
:101DC0009B019B019B019B019B0178019B019B0156
:101DD0009B010D000B689E4D49689E4869609E49B5
:101DE0009E4F1160012200262B6002709BB2A02042
:101DF0003E602661A661C000834200D1F4E015D8A0
:101E0000822B00D1A9E007D8802B00D0E8E0944CC9
:101E1000267066700226E8E081225200934200D1CB
:101E2000ABE0904A934200D1B7E0D9E088210901A4
:101E30008B4200D18BE009D88B481B18012B00D9AD
:101E4000CEE0834D894B6A88A988BBE090221201BD
:101E5000934200D0C4E07E4D794BAA781A70A31942
:101E60001F6A3F0603D5586A083800F0EFFA0836B3
:101E7000402EF4D100252E1C7D4FE859002805D0B6
:101E80004168019100F0E2FA0198F7E77851794B47
:101E9000794FE850E859002805D04268019200F0D7
:101EA000D5FA0198F7E7754B754AE8507300D052A0
:101EB000744B7851F05C0238032807D800F0EEFD2F
:101EC00002040204002200E001229A550136043582
:101ED000022ED1D16C4F00233B7001256B4BEA18C9
:101EE0006B4B9200EB18013B1B781370180720D541
:101EF00000F08EFA6B01002805D0E218083050601F
:101F0000644AE25003E0E0503B7801333B7000F05C
:101F10007FFA0122AB001343DB00002805D04E49B5
:101F2000E21808305060E15003E0E0503B780133A4
:101F30003B70AB0002221A43D2000026A6500322B7
:101F4000134393400135E6509542C7D14CE03C4BDA
:101F5000434C1B78161C237047E03D4DAB88022B89
:101F60003ED83F4C4C4F9B0026706670DB191B78A7
:101F70000226334239D0227037E0354D7F23AA88BC
:101F80001340022B2CDC6E88002E29D1424F9B007F
:101F9000DB191A7802218A430EE02D4D7F23AA888F
:101FA0001340022B1CDC6E88002E19D13A4F9B0087
:101FB000DB191A7802210A431A7015E0188890423A
:101FC00004D00C335C68002CF8D109E058888842B2
:101FD000F7D1120A032A01D1267806E01E8904E00F
:101FE0002D4B0F221A7025E0341C194FFB889E429E
:101FF00000D91E1C371E402F00D94027201C391C39
:10200000FFF7DEFDE419F61B03D1351C402F04D089
:1020100010E04025B54200D9351C201C291CFFF7D3
:10202000CFFD6419761B01D1402D03D10B4D1B4B05
:102030002C601E8001221A4B59E0C04680200740C8
:10204000FF0D0020990D00209020074000F8FF1F91
:10205000EC0D0020000E0020C8004000400D0020C4
:10206000F70D00200203000080F9FFFFE0370000B9
:10207000900D0020440D0020DC0D0020E40D002018
:10208000A80E00204C0D0020F60D002030C80110D5
:10209000DC37000088004000C0200740F40D00201D
:1020A00094200740664B136022E0664F3D68002D88
:1020B00013D065480688341E402C00D94024211CCA
:1020C000281CFFF77DFD361B5F49B6B20E80002E3F
:1020D00001D1402C00D12E193E605C4BA022198802
:1020E000D200914204D100225A709A78584B1A704B
:1020F0000122584B60E0A4186068013E0838F6B22F
:102100002B4036D000F0A2F95349B0004258534B4F
:10211000002A1BD055684550111C985D083161603C
:1021200003280BD800F0BAFC02040608032104E0DF
:10213000022102E0052100E00421995588232707A8
:1021400000D5C8231288120413433CE0985D03288D
:1021500008D800F0A3FC39390204002200E0012273
:102160009A5531E02C40624262410324A41A9C55E6
:102170002AE062880280002A20D0394D43804360E3
:10218000B3005F593749002F01D1585101E0CD58B4
:102190006860C850344B7600F15A5218F25200F081
:1021A00037F9002804D00830606020070AD507E01E
:1021B0002E4B20601A7801321A7005E02C4201D0B3
:1021C0001F4B00E02A4B23602A4908230B70C2E50D
:1021D000012423421ED01F4802230370264B244DA6
:1021E0001A70264B264E1D609D60264D1A61DD60DB
:1021F0009A615E60244B0D251D70244DFF232B70CA
:102200000B7013490A70224A1370224B9F221A70D6
:10221000047013E05AB2002A04DA1B4A0D20107031
:1022200080220A700222134204D018480478E4B2D3
:1022300004700A701022134200D00A70F7BDC04625
:10224000C8004000400D0020F40D0020EC0D0020DF
:102250009820074094200740DC0D00204C0D002002
:10226000900D0020440D0020A80E0020F60D002047
:102270008800400080200740980D002000F8FF1FD4
:10228000500D00209C0D0020C020074088200740F2
:102290008C2007408420074010B5FFF757FC1B4BEC
:1022A00000221B491A609A601A610C688020C002E3
:1022B00020435A60DA605A610860180A1549C0B2B2
:1022C0000870180C1449C0B2087014491B0E0B702A
:1022D0001349FF230B70134913480B7013490B70FC
:1022E0000121017012480270124A1170124A1168DD
:1022F00099430B1C70210B431360104B8022520436
:102300001A600F4B10221A7010BDC04600F8FF1F54
:10231000348004409C200740B0200740B420074090
:102320008020074088200740942007401020074065
:10233000002107408420074018E400E000E100E0AD
:102340000821074070B5174E174B01201B78002B52
:1023500025D0FFF76DFC154D022803D9013E002E54
:1023600013D115E000F054F8041EF7D000262E70AB
:1023700020250F492A1C083000F038FF0120258055
:10238000211CFFF7A9FC301C0AE02B78002B03D09E
:1023900001232B70181C02E000F03AFBD4E7404206
:1023A00070BDC046B51E0000FF0D0020010E0020CC
:1023B000AC0E0020F7B5144F061C3A680D1C0192B4
:1023C000124B01201B78002B18D0FFF717FC041EBE
:1023D00009D13B68019A9B1AAB4211D8002D10D04D
:1023E00000F016FBECE7011C08310822301C00F05D
:1023F000FDFE201C00F02AF8082003E0404201E026
:1024000000E0281CFEBDC046C00B0020FF0D0020D0
:1024100038B572B60B4C2568281C00F003FC172851
:1024200002D962B600200CE080231B06C3409D4306
:10243000256062B648235843034B181800230360F5
:10244000436038BD0403002000FAFF1F10B5041CD0
:102450000E484821201A00F035FB172815D80C4BE0
:102460001B78002B07D00B4B1B78002B03D0201CB4
:10247000FFF7F0FB09E072B68022074B1206C2405C
:10248000101C1A681043186062B610BD00FAFF1FD6
:10249000F60D0020FF0D002004030020F8B5184BB6
:1024A0008022196852040A431A60164B01211A68E7
:1024B000154D0A431A60154B2E681C68002C12D06B
:1024C000237A002B0DD02368201C1B682F689847A7
:1024D0002A68E188D21B120993B2A3808A4200D9EC
:1024E000E3806469EAE72968094B891B09098AB214
:1024F0001A80084B1888814200D91A80F8BDC0465E
:10250000FCED00E0001000E0041000E0040E0020EC
:102510000A0E0020080E002008B50368C9B21B6827
:10252000984708BD08B50368C9B21B68984708BD3D
:1025300008B50368C9B21B68984708BD08B50368A9
:10254000C9B21B68984708BD08B5044B4808C018B5
:1025500000F0B8FAFEF742FC08BDC046C0C62D0028
:1025600010B5064B4808C018141C00F0ABFAFEF773
:1025700035FC201CFEF778FC10BDC046C0C62D00FF
:1025800008B5FEF799FC08BD08B5081CFEF7CEFC9F
:1025900008BD08B5081CFEF7EBFC431E9841C0B20D
:1025A00008BD08B5081CFEF709FD431E9841C0B2DE
:1025B00008BD08B5FEF7A4FD08BD08B5FEF7E0FDAF
:1025C00008BD08B5FEF7ACFD08BD08B5FEF77AFDFD
:1025D00008BD08B5FEF7F0FD08BD08B5FEF77EFDA5
:1025E00008BD08B5081CFEF70DFD012008BD08B5A3
:1025F000081CFEF707FD012008BD10B5081C141CBF
:10260000111CFEF753FD201C10BD38B5081C0D1C15
:1026100000F092FE041C211C281CFEF747FD201C24
:1026200038BDFFFF044B00221A711A73FA21034AC6
:10263000890099601A607047100E00206038000011
:1026400008B50368C9B21B68984708BD08B5036898
:10265000C9B21B68984708BD08B50368C9B21B68B2
:10266000984708BD08B50368C9B21B68984708BDFC
:1026700008B5044B4808C01800F024FAFEF712FE13
:1026800008BDC04660E3160010B5064B4808C018E8
:10269000141C00F017FAFEF705FE201CFEF74AFE98
:1026A00010BDC046C0C62D0008B5FEF76BFE08BDC4
:1026B00008B5081CFEF794FE08BD08B5081CFEF717
:1026C000B1FE431E9841C0B208BD08B5081CFEF714
:1026D000C7FE431E9841C0B208BD08B5FEF75AFFB9
:1026E00008BD08B5FEF782FF08BD08B5FEF762FF1A
:1026F00008BD08B5FEF730FF08BD08B5FEF792FF2C
:1027000008BD08B5FEF734FF08BD08B5081CFEF784
:10271000C3FE012008BD08B5081CFEF7BDFE012060
:1027200008BD10B5081C141C111CFEF709FF201C65
:1027300010BD38B5081C0D1C00F0FEFD041C211C4A
:10274000281CFEF7FDFE201C38BDFFFF044B0022B5
:102750001A711A73FA21034A890099601A60704746
:10276000200E0020B838000008B50368C9B21B6805
:10277000984708BD08B50368C9B21B68984708BDEB
:1027800008B50368C9B21B68984708BD08B5036857
:10279000C9B21B68984708BD08B5044B4808C01863
:1027A00000F090F9FEF7A8FF08BDC04660E31600F0
:1027B00010B5064B4808C018141C00F083F9FEF74A
:1027C0009BFF201CFEF7E0FF10BDC04660E3160033
:1027D00008B5FFF701F808BD08B5081CFFF72AF88F
:1027E00008BD08B5081CFFF747F8431E9841C0B262
:1027F00008BD08B5081CFFF75DF8431E9841C0B23C
:1028000008BD08B5FFF7F0F808BD08B5FFF718F9DF
:1028100008BD08B5FFF7F8F808BD08B5FFF7C6F81A
:1028200008BD08B5FFF728F908BD08B5FFF7CAF8D5
:1028300008BD08B5081CFFF759F8012008BD08B508
:10284000081CFFF753F8012008BD10B5081C141C24
:10285000111CFFF79FF8201C10BD38B5081C0D1C7B
:1028600000F06AFD041C211C281CFFF793F8201CB3
:1028700038BDFFFF044B00221A711A73FA21034A74
:10288000890099601A607047300E002010390000EE
:1028900008B50B4B1A68002A04D001221A60094BB4
:1028A0001B689847084B1B78002B08D0074B1A6809
:1028B000002A04D001221A60024B5B68984708BDC9
:1028C0000C710340440E0020420E00201C71034096
:1028D000054B01221A60054B054A19680A401A6027
:1028E000044B00221A707047007003403C80044083
:1028F000FFFF7FFF420E002008B5836800221A60A8
:102900008021074BC90319604178064B5A541A7845
:10291000002A04D15B78002B01D1FFF7D9FF08BD55
:1029200080E100E0400E0020037810B5041C002B6D
:1029300001D0FFF7E1FF0023237010BD70B5061C26
:102940000D1C002433191979281C0022013400F0D1
:1029500017F8042C05D02B68281C1B682E219847DB
:10296000F0E7201C70BDFFFF034A044B08321A60D9
:1029700000225A607047C046603900004C0E0020AB
:10298000F0B585B06B460E338EB2144C0D0C01368B
:1029900066436C43A5B2370CAE19F619250C2C19F9
:1029A000360CA5196D080A266E43891B30311C1C94
:1029B0001970013B002D01D0291CE5E7211C002ADC
:1029C00003D01C1C2D224B1E1A70036804A9E2437D
:1029D00052185B68211C984705B0F0BD33330000E6
:1029E00010B5041CFFF7A0FF201C10BD08B505485A
:1029F0000023037004498023044A437300F030F934
:102A000008BDC046540E0020E1290000C00000208F
:102A1000024B1A78002A00D11A7070476A0E002003
:102A2000154B80221968D2030A431A60134B5022B7
:102A3000DA7000229A701B78114B1B78D90703D4E7
:102A4000902189000F4A02E080210F4A890011601D
:102A500080229200990701D40C4900E00C490A60D9
:102A60005A0703D4902292000A4B02E080220A4BBC
:102A700092001A607047C0463480044000600740EE
:102A80000C0E002018B0044008C004401CB00440E4
:102A90000CC0044014B0044004C0044002B47146A9
:102AA00049084900095C49008E4402BC7047C04691
:102AB00003B47146490840004900095A49008E4450
:102AC00003BC7047002934D00123002210B488428F
:102AD0002CD301242407A14204D2814202D209014D
:102AE0001B01F8E7E400A14204D2814202D249006E
:102AF0005B00F8E7884201D3401A1A434C08A04211
:102B000002D3001B5C0822438C08A04202D3001BA6
:102B10009C082243CC08A04202D3001BDC082243BD
:102B2000002803D01B0901D00909E3E7101C10BCE1
:102B30007047002801D00020C04307B4024802A11A
:102B40004018029003BDC046D90000000029F0D013
:102B500003B5FFF7B9FF0EBC4243891A1847C046B8
:102B6000002941D010B4041C4C40A446012300228B
:102B7000002900D54942002800D5404288422CD384
:102B800001242407A14204D2814202D209011B017F
:102B9000F8E7E400A14204D2814202D249005B007E
:102BA000F8E7884201D3401A1A434C08A04202D3E6
:102BB000001B5C0822438C08A04202D3001B9C0827
:102BC0002243CC08A04202D3001BDC082243002889
:102BD00003D01B0901D00909E3E7101C6446002C4F
:102BE00000D5404210BC7047002806D003DB00200F
:102BF000C043400801E08020000607B4024802A15B
:102C00004018029003BDC046190000000029EBD017
:102C100003B5FFF7A7FF0EBC4243891A1847C04609
:102C20007047C0461C2101231B04984201D3000CAD
:102C300010391B0A984201D3000A08391B0998422F
:102C400001D30009043902A2105C40187047C04645
:102C50000403020201010101000000000000000065
:102C600008B5031C081C191C00F002F808BDC0467A
:102C700038B5051C0C1C131C291C221C022000F05A
:102C800063FB38BD70B50D4E0D4D0024AD1BAD106E
:102C900005D0A300F35801349847A542F9D100F0BC
:102CA00099FE084E084D0024AD1BAD1005D0A300C1
:102CB000F35801349847A542F9D170BDE0390000BE
:102CC000E0390000E0390000003A000008B5034B8D
:102CD000011C186800F004F808BDC0463007002049
:102CE000F0B5564644465F464D46F0B40C1C0B34D6
:102CF00083B0061C162C2BD907239C432BD4A1424E
:102D000029D8301C00F002FBF823FF339C4226D860
:102D1000E208CA4DD300EB18DF689F4200D1BBE147
:102D200078680323FA68B96898433B18CA609160D1
:102D3000596801220A43301C5A6000F0E9FA381C35
:102D4000083003B03CBC90469946A246AB46F0BD65
:102D50001024A142D5D90C2333600020F1E7630A87
:102D600000D18EE0042B00D93DE1A30938339C4605
:102D70005900B24D89006918CF68B94215D07A68F8
:102D800003239A43101B0F2800DD8DE000287CDA16
:102D9000032007E07A688243131B0F2B00DD83E0DA
:102DA000002B72DAFF68B942F4D1012294442B1C43
:102DB0002F6908339F4200D163E178680322904372
:102DC000021C011B0F2900DD4AE16B612B61002908
:102DD0005FDA9B4B984200D90FE1C3089A1001219A
:102DE000DB00EB18914068680A1C99680243FB609D
:102DF000B9606A609F60CF6061468B100121994085
:102E0000914255D811420DD1032360469843031CCB
:102E1000043349009C46114204D1042349009C44D8
:102E20001142FAD0032080466246D3005B199A46CD
:102E3000181CE146C768B84207D124E1002B00DB2B
:102E400033E1FF68B84200D11DE17A6843469A43F6
:102E5000131B0F2BF2DD01213A190C437C60F8683B
:102E6000BC680835E06019438460EA60AA60301CE1
:102E7000D56095605160D35000F04AFA381C083094
:102E80005FE73F227E21944673E7FB68B968CB6019
:102E90009960BA18516801230B43301C536000F04D
:102EA00037FA381C08304CE70120404284447CE764
:102EB000AF680323786898438146A04203D3031B7D
:102EC0000F2B00DD81E05F4A5F4B49461B681068AD
:102ED00079180191E3189346013000D147E15B492D
:102EE0005B181B0B1B030093301C009900F012FAB7
:102EF000021C804601325DD0019B834200D9EBE089
:102F000053480099026882468B1801990360414535
:102F100000D135E15A461268013200D143E10198EF
:102F200041460A1A9B1851460B600723424613403C
:102F300000D104E1D21A08329046464AD31A0098CA
:102F4000021C42441205120D9A1A111C301C9346A1
:102F500000F0E0F9411C00D121E14246801A5844BA
:102F600001231843524611680B1C5B444146A9607B
:102F700013604860AF4213D04A460F2A00D8E9E0F8
:102F80004A46786807210C3A8A43012101401143DF
:102F900079600520B918486088600F2A00D906E1D9
:102FA0002D4A1068834200D913602C4A11688B4265
:102FB00000D91360AF6803237A689A43131B9442C5
:102FC00000D9AEE00F2B00DCABE00122211C114345
:102FD0003C1913437960301CAC60636000F098F9D1
:102FE000381C0830ADE6142B6ED9542B00D99DE067
:102FF000230B6E339C465900BBE6430A042B67D96A
:10300000142B00D9B6E0191C5B3148008000401930
:1030100083688146834200D194E003218846596841
:10302000404681438A4202D29B689945F7D1D968CC
:103030006A68F960BB608F60DF60DDE634070020FE
:10304000FF010000400B00207C0E00200F1000004C
:10305000800E002008100000780E0020740E002062
:1030600001203A19044308437C606A612A61506078
:10307000D3609360301C515000F04AF9381C08307E
:103080005FE66A68B8E60122914443464A46083042
:10309000134200D0CEE62CE03B1C7F69023208339D
:1030A0009446BB4200D182E63AE6BA185068012342
:1030B00003435360FB68BA68301CD3609A6000F029
:1030C00027F9381C08303CE65B339C46590050E633
:1030D00081093831480099E7AF4200D06AE70FE72D
:1030E0005346186801225242083B94448246984253
:1030F00077D1434660460342F2D16B688B436B60E5
:103100004900994200D9D3E6002900D1D0E6CC4647
:10311000194200D088E60422490094441942FAD0AA
:1031200082E6301C00F0F4F800200AE6AA225200E1
:10313000934214D8E30B77339C46590019E6802359
:103140005B01FCE68910686801228A4002436A60DC
:10315000191C6EE701234B60474600222EE7224AE6
:10316000934218D8A30C7C339C46590001E61033D7
:103170000093B9E6542B22D8010B6E31480045E785
:103180000A0500D0C6E60099AA68081C4844012137
:103190000143516004E77E23FC219C46E9E50023BE
:1031A00001209B46DEE6434658460360BDE6391CD7
:1031B0000831301C00F0A4F951460B68F0E6AA2152
:1031C00049008B4203D8C10B773148001EE70649FE
:1031D0008B4203D8810C7C31480017E7FC207E210C
:1031E00014E76B688CE7C04654050000F0B50F2A61
:1031F00035D9031C0B439C0735D1161C103E3609EC
:103200003501451910350C1C031C27681F606768C1
:103210005F60A7689F60E7681034DF601033AB42DF
:10322000F3D1731C1B01C518C9180F231340032BBE
:103230001BD91C1FA4080134A4000023CE58EE5053
:103240000433A342FAD1ED18C91803231A4005D05C
:103250000023CC5CEC5401339342FAD1F0BD051C41
:10326000002AF5D1FAE7051CF2E71A1CF8E7C04678
:10327000F0B5830746D0541E002A42D0CEB2031CBC
:10328000032503E0621E002C3BD0141C01335A1EA0
:1032900016702B42F6D1032C2BD9FF250D402A02A4
:1032A00015432A0415430F2C15D9271C103F3F093D
:1032B0001E1C3A011036B6181A1C15605560956030
:1032C000D5601032B242F8D101373F010F22DB192D
:1032D0001440032C0DD9271FBF08BA001E1DB618B5
:1032E0001A1C20C2B242FCD10137BF000322DB19F5
:1032F0001440002C05D01C19C9B219700133A34227
:10330000FBD1F0BD141C031CC5E7C0467047C04686
:103310007047C04638B5074C0023051C081C2360C5
:10332000FDF71EFC431C00D038BD2368002BFBD0EA
:103330002B60F9E7CC0E00200023C25C0133002A89
:10334000FBD1581E7047C046F0B54F464646C0B444
:1033500098462B4BA4251B686D005C5983B0061C56
:103360000F1C91460193002C44D065681F2D1ADD77
:10337000244B002B02D1012040421CE0C820400019
:10338000FFF7A4FC041EF6D000254560A423019895
:103390005B00C05801992060CC50C4235B00E5500D
:1033A000C6235B00E550002E0AD16B1C0235AD0030
:1033B000636000202F5103B00CBC90469946F0BDCD
:1033C000AB00E318882248469850C42040002218D9
:1033D00010680121A9400843106084225200404631
:1033E0009850022EE1D1C6225200A318186801435A
:1033F0001960DAE71C1C4D34FF345C51B5E7C04658
:10340000D0390000CD2C000008B5034B002B02D0B2
:10341000024800F005F808BD00000000313400004B
:1034200008B5011C002200200023FFF78DFF08BD16
:1034300038B5094B094DED1AAD1009D0013DAC006E
:10344000E41800E0013D23689847043C002DF9D1C1
:1034500000F0D6FA38BDC0460000000000000000B1
:10346000F8B50F1C041CFFF751FF204D204AAB6834
:103470005E6803239E43F71BBF183F0B1D4B013FA4
:103480003F039F4207DD201C0021FFF743FFAA688E
:103490009319984204D0201CFFF73AFF0020F8BD92
:1034A0007942201CFFF736FF01300DD0AB68F61BC8
:1034B000012216435E60104B201C1A68D71B1F6048
:1034C000FFF726FF0120EAE7201C0021FFF722FF7B
:1034D000AB68C21A0F2ADEDD08490968401A06499E
:1034E000086001210A435A60D5E7C046340700202E
:1034F000EF0F0000FF0F0000800E0020400B0020A7
:10350000F0B5474680B4051C0C1E55D0FFF7FEFEF3
:10351000211C083948680127031CBB43CA1854689A
:10352000804603208443201C534CA668964260D0FA
:103530000026B4464646506037420AD10E68271C22
:10354000891B9B198E680837BE426BD0CF68F76025
:10355000BE601618766801273E4207D11B186046E8
:1035600000282CD09068D268C26090600122181C9C
:10357000104366464860CB50002E1AD13F48834224
:1035800029D95A0A042A50D89E093836700080007A
:103590002018826882424ED003265468B443A34266
:1035A00002D292689042F8D1D368CB608A60996069
:1035B000D160281CFFF7ACFE04BC9046F0BD9068BB
:1035C0002F4EB042CFD11F43C1608160C860886078
:1035D0004F60CB50EDE7DB08981082406068DB005D
:1035E00002436260E418A368CC608B60A160D9607C
:1035F000DFE7C3184046074206D10A68891A88687F
:103600009B18CA68C260906001221A434A601D4A32
:10361000A16012689342CCD31B4B281C1968FFF79A
:103620001FFFC6E70126B44693E7142A0CD8161CE0
:103630005B367000ABE7B6100123B3401E1C636815
:103640001E436660131CB0E7542A03D81E0B6E3667
:1036500070009CE7AA204000824203D8DE0B773638
:10366000700094E70948824203D89E0C7C367000B3
:103670008DE7FC207E268AE734070020FF0100004A
:103680003C0700203C0B00207C0E0020540500006D
:103690000006FF02FFFFFF04420000F840A00440C4
:1036A00001000000420000F844A0044002000000B5
:1036B000C00000F800C0044001000000000000F855
:1036C0000490044002000000000000F8089004404C
:1036D00004000000C00000F81CC00440800000008E
:1036E000C00000F810C0044010000000C00000F846
:1036F00008C0044004000000C00000F80CC00440F2
:1037000008000000800000F80CB004400800000031
:10371000800000F810B0044010000000800000F8A5
:1037200018B0044040000000800000F81CB00440C5
:1037300080000000800000F814B004402000000069
:10374000C00000F804C0044002000000800000F83F
:1037500000B0044001000000400000F800A0044058
:1037600001000000400000F804A004400200000036
:10377000400000F80CA0044008000000400000F8E1
:1037800008A0044004000000C00000F814C0044079
:1037900020000000C00000F818C0044040000000F5
:1037A000800000F804B0044002000000800000F82F
:1037B00008B0044004000000020100F850D00440AA
:1037C00010000000020100F854D004402000000066
:1037D000030100F878D00440400000001D15FFFFF1
:1037E00000010000CC0100201200000000020000D7
:1037F0000E020020290000000022000037020020F5
:1038000091000000002100002002002009000000BB
:1038100000030000E802002000000000010309048A
:10382000FE0100200000000002030904C80200207D
:103830000000000003030904EC0200200000000067
:1038400004030904DE010020000000000000000065
:103850000000000000000000000000000000000068
:10386000E3250000FB250000B3250000C325000070
:10387000BB250000CB250000492500006125000084
:10388000812500008925000093250000A325000064
:10389000D3250000DB2500001925000025250000A8
:1038A000312500003D2500000B260000EF2500001B
:1038B00000000000000000000B270000232700008C
:1038C000DB260000EB260000E3260000F3260000C4
:1038D0007126000089260000A9260000B1260000FC
:1038E000BB260000CB260000FB26000003270000BB
:1038F000412600004D2600005926000065260000E4
:10390000332700001727000000000000000000001F
:10391000332800004B280000032800001328000073
:103920000B2800001B28000099270000B127000089
:10393000D1270000D9270000E3270000F32700006B
:10394000232800002B2800006927000075270000AD
:10395000812700008D2700005B2800003F28000021
:1039600000000000000000003D29000000000000F1
:1039700002000400060008000A000C000E001000FF
:10398000140018001C0020002800300038004000FF
:103990005000600070008000A000C000E000000146
:1039A00040018001C00100028002000300102030AD
:1039B000405060704151617142526272435363736F
:1039C00044546474455565754656FFFF4300000036
:1039D00008030020F8B5C046F8BC08BC9E467047F6
:1039E00009340000390400004D0A000025260000BB
:1039F0004D2700007528000069290000ED2900000E
:043A0000F8B5C0460F
:103A040000000000005EBCE2613FDD83C29C7E20BA
:103A1400A3FD1F419DC3217FFCA2401E5F01E3BDA6
:103A24003E6082DC237D9FC1421CFEA0E1BF5D039A
:103A340080DE3C62BEE0025CDF81633D7C22C09E8E
:103A44001D43A1FF4618FAA427799BC584DA38667A
:103A5400E5BB5907DB856739BAE406581947A5FB66
:103A64007826C49A653BD987045AB8E6A7F91B455A
:103A7400C6987A24F8A6441A99C7257B3A6486D84E
:103A84005B05E7B98CD2306EEDB3510F4E10F2AC3A
:103A94002F7193CD114FADF3702ECC92D38D6F3126
:103AA400B2EC0E50AFF1134DCE90722C6D33D18F1A
:103AB4000C52B0EE326C8ED0530DEFB1F0AE4C120E
:103AC40091CF2D73CA947628ABF517490856B4EAFA
:103AD4006937D58B5709EBB536688AD495CB2977E6
:103AE400F4AA4816E9B7550B88D6346A2B7597C9DA
:103AF4004A14F6A8742AC896154BA9F7B6E80A54CE
:103B0400D7896B350A040000D00E00201201000290
:103B140000000040B70E8E030201010203012003DE
:103B240043006C0075006200530070006F00720067
:103B34007400200057006800650065006C001003E5
:103B44006400610072006B006E0061006F00090286
:103B54002900010100C0320904000002030000042E
:103B640009211101000122910007058103200002AF
:103B74000705010308001005010904A1010509193D
:103B840001292515002501750195258102950175E9
:103B9400038101050109300931150026FF0075086C
:103BA4009502810205010939150025073500463BB8
:103BB40001651475049501814295317504810105EF
:103BC4000A090115002501A1020508094B75019593
:103BD400019102C00902A1020508094B7501950172
:103BE4009102C00903A1020508094B7501950191D1
:103BF40002C00904A1020508094B7501950191024F
:103C0400C0950D75049101C0200343006C0075003C
:103C14006200530070006F007200740020005700AF
:103C24006800650065006C00040309040C030000CF
:103C34000000000000000000000000000000000080
:103C440000000000FFFFFFFF00000000F40500205B
:103C54005C060020C40600200000000000000000F4
:103C64000000000000000000000000000000000050
:103C7400000000000000000000000000CC3900003B
:103C84000000000000000000000000000000000030
:103C94000000000000000000000000000000000020
:103CA4000000000000000000000000000000000010
:103CB4000000000000000000000000000000000000
:103CC40000000000000000000000000000000000F0
:103CD40000000000000000000000000000000000E0
:103CE40000000000000000000000000000000000D0
:103CF40001000000000000000E33CDAB34126DE66D
:103D0400ECDE05000B0000000000000000000000D5
:103D1400000000000000000000000000000000009F
:103D2400000000000000000000000000000000008F
:103D3400000000000000000000000000000000007F
:103D4400000000000000000000000000000000006F
:1040740008030020000000000000000034070020B6
:10408400340700203C0700203C07002044070020A0
:10409400440700204C0700204C0700205407002050
:1040A400540700205C0700205C0700206407002000
:1040B400640700206C0700206C07002074070020B0
:1040C400740700207C0700207C0700208407002060
:1040D400840700208C0700208C0700209407002010
:1040E400940700209C0700209C070020A4070020C0
:1040F400A4070020AC070020AC070020B407002070
:10410400B4070020BC070020BC070020C40700201F
:10411400C4070020CC070020CC070020D4070020CF
:10412400D4070020DC070020DC070020E40700207F
:10413400E4070020EC070020EC070020F40700202F
:10414400F4070020FC070020FC07002004080020DE
:10415400040800200C0800200C080020140800208B
:10416400140800201C0800201C080020240800203B
:10417400240800202C0800202C08002034080020EB
:10418400340800203C0800203C080020440800209B
:10419400440800204C0800204C080020540800204B
:1041A400540800205C0800205C08002064080020FB
:1041B400640800206C0800206C08002074080020AB
:1041C400740800207C0800207C080020840800205B
:1041D400840800208C0800208C080020940800200B
:1041E400940800209C0800209C080020A4080020BB
:1041F400A4080020AC080020AC080020B40800206B
:10420400B4080020BC080020BC080020C40800201A
:10421400C4080020CC080020CC080020D4080020CA
:10422400D4080020DC080020DC080020E40800207A
:10423400E4080020EC080020EC080020F40800202A
:10424400F4080020FC080020FC08002004090020D9
:10425400040900200C0900200C0900201409002086
:10426400140900201C0900201C0900202409002036
:10427400240900202C0900202C09002034090020E6
:10428400340900203C0900203C0900204409002096
:10429400440900204C0900204C0900205409002046
:1042A400540900205C0900205C09002064090020F6
:1042B400640900206C0900206C09002074090020A6
:1042C400740900207C0900207C0900208409002056
:1042D400840900208C0900208C0900209409002006
:1042E400940900209C0900209C090020A4090020B6
:1042F400A4090020AC090020AC090020B409002066
:10430400B4090020BC090020BC090020C409002015
:10431400C4090020CC090020CC090020D4090020C5
:10432400D4090020DC090020DC090020E409002075
:10433400E4090020EC090020EC090020F409002025
:10434400F4090020FC090020FC090020040A0020D4
:10435400040A00200C0A00200C0A0020140A002081
:10436400140A00201C0A00201C0A0020240A002031
:10437400240A00202C0A00202C0A0020340A0020E1
:10438400340A00203C0A00203C0A0020440A002091
:10439400440A00204C0A00204C0A0020540A002041
:1043A400540A00205C0A00205C0A0020640A0020F1
:1043B400640A00206C0A00206C0A0020740A0020A1
:1043C400740A00207C0A00207C0A0020840A002051
:1043D400840A00208C0A00208C0A0020940A002001
:1043E400940A00209C0A00209C0A0020A40A0020B1
:1043F400A40A0020AC0A0020AC0A0020B40A002061
:10440400B40A0020BC0A0020BC0A0020C40A002010
:10441400C40A0020CC0A0020CC0A0020D40A0020C0
:10442400D40A0020DC0A0020DC0A0020E40A002070
:10443400E40A0020EC0A0020EC0A0020F40A002020
:10444400F40A0020FC0A0020FC0A0020040B0020CF
:10445400040B00200C0B00200C0B0020140B00207C
:10446400140B00201C0B00201C0B0020240B00202C
:10447400240B00202C0B00202C0B00200000020039
:04448400FFFFFFFF38
:00000001FF
