:1000000000800020BD010000D13D00009D3D0000AA
:100010009D3D00009D3D00009D3D00009D3D000078
:100020009D3D00009D3D00009D3D0000D13D000034
:10003000D13D00009D3D0000D13D00008D3D000000
:10004000D13D0000D13D0000D13D0000D13D000078
:10005000D13D0000D13D0000D13D0000D13D000068
:10006000D13D0000D13D0000D13D0000D13D000058
:10007000D13D0000D13D0000D13D0000D13D000048
:10008000D13D0000D13D0000D13D0000D13D000038
:10009000D13D0000D13D0000D13D0000D13D000028
:1000A000D13D0000D13D0000D13D0000D13D000018
:1000B000D13D0000D13D0000D13D0000D13D000008
:1000C000D13D0000D13D0000D13D0000D13D0000F8
:1000D000D13D0000D13D0000D13D0000D13D0000E8
:1000E000D13D0000D13D0000D13D0000D13D0000D8
:1000F000D13D0000C9330000D13D0000813A00002D
:10010000D13D0000CD260000D13D0000D13D0000D2
:10011000D13D0000D13D0000D13D0000D13D0000A7
:10012000D13D0000D13D0000D13D0000D13D000097
:10013000D13D0000D13D0000D13D0000D13D000087
:10014000D13D0000D13D0000D13D0000D13D000077
:10015000A53F0000BD3F0000D53F0000ED3F00007F
:10016000D13D000019290000D13D0000D13D000023
:10017000D13D0000D13D0000D13D0000D13D000047
:10018000D13D0000D13D0000D13D0000D13D000037
:10019000D13D0000D13D0000D13D0000D13D000027
:1001A000D13D0000D13D0000D13D0000D13D000017
:1001B000D13D0000D13D000081410000564B4CF282
:1001C000205210B51A804DF628121A8000BF00BFC9
:1001D00003F002FE514B4FF010621A60504A9A60D1
:1001E000504ADA60A3F53043203B1A6812F480725B
:1001F00004D14D490A604FF4A8521A604B4B1A784B
:10020000110703D51A7842F008021A70484B2A22C7
:100210001A700023474A48499818884204D247492F
:10022000595899500433F5E7454A464B9A424FF0E6
:10023000000302D242F8043BF7E74349434A5958C6
:1002400099500433B3F5DE7FF7D1414B802103F899
:10025000011B40498B42F9D13F4B1A603F4B0A22A8
:100260001A70A3F5805324225A70A0221A709A792A
:100270009207FCD59A79D406FCD4394B9A7902F0CE
:100280000C02082AF9D103221A7140225A719A7974
:100290009006FCD5324B9A795106FBD5314A32494A
:1002A00011600221516020221A702D4B9B7903F0BE
:1002B0000C030C2BF9D12D4B2D4A1A602D4B45F612
:1002C000BF521A6000225A60072243F8042C2A4ABF
:1002D000C3F80C2D62B603F0D3FC134B1B68DA078E
:1002E00005D5264803F040FC254B264A1A60264BCC
:1002F0001B785B0609D5224C224A2368934204D11D
:100300001E4803F031FC0023236004F001F903F0E0
:1003100069FD02F00BF8FEE70E2005403080044036
:10032000823F04000100002B14D0034002D007409C
:1003300000E00740C08AFF1F5495FF1F8052000055
:100340005495FF1F5099FF1F000000000082FF1FFF
:1003500000E400E05FE400E008ED00E0005006404B
:100360000040064044800440000003330480044001
:10037000C010050014E000E000002020A5EE0E5B98
:100380001CE00340A5C3945A00F00740FFFFFFFFA5
:10039000FFFFFFFFFFFFFFFFFFFFFFFFFFFFFFFF6D
:1003A000FFFFFFFFFFFFFFFFFFFFFFFFFFFFFFFF5D
:1003B000FFFFFFFFFFFFFFFFFFFFFFFFFFFFFFFF4D
:1003C000FFFFFFFFFFFFFFFFFFFFFFFFFFFFFFFF3D
:1003D000FFFFFFFFFFFFFFFFFFFFFFFFFFFFFFFF2D
:1003E000FFFFFFFFFFFFFFFFFFFFFFFFFFFFFFFF1D
:1003F000FFFFFFFFFFFFFFFFFFFFFFFFFFFFFFFF0D
:10040000FFFFFFFFFFFFFFFFFFFFFFFFFEFFFFFFFD
:1004100010B5054C237833B9044B13B10448AFF33E
:1004200000800123237010BD5495FF1F00000000C1
:100430008052000008B5064B1BB106480649AFF3D1
:1004400000800648036813B1054B03B1984708BD07
:1004500000000000805200005895FF1F5495FF1FB8
:10046000000000000139C9B2572900F29F804F29CE
:100470004F4B0CD95039012000FA01F112B19A7A90
:10048000114302E09A7A22EA0101997289E0472930
:100490004FF001000BD9483900FA01F112B15A7A34
:1004A000114302E05A7A22EA0101597279E03F29A8
:1004B0000BD9403900FA01F112B11A7A114302E066
:1004C0001A7A22EA010119726BE037290BD93839FF
:1004D00000FA01F112B1DA79114302E0DA7922EA85
:1004E0000101D9715DE02F290BD9303900FA01F1F2
:1004F00012B19A79114302E09A7922EA01019971C5
:100500004FE027290BD9283900FA01F112B15A79A5
:10051000114302E05A7922EA0101597141E01F2991
:100520000BD9203900FA01F112B11A79114302E016
:100530001A7922EA0101197133E017290BD9183908
:1005400000FA01F112B1DA78114302E0DA7822EA16
:100550000101D97025E00F290BD9103900FA01F1FA
:1005600012B19A78114302E09A7822EA0101997057
:1005700017E007290BD9083900FA01F112B15A78AE
:10058000114302E05A7822EA0101597009E000FAA9
:1005900001F112B11A78114302E01A7822EA01013E
:1005A0001970044B1B780BB902F0EEBF704700BF07
:1005B0002C99FF1F8098FF1F074B10B50446186841
:1005C00000EBC40001F0C2FE021C18BF0122034868
:1005D0002146FFF747FF10BDA095FF1F8198FF1F21
:1005E00070B50A4A0A4B01F17F061178C0F180000C
:1005F000D8721D46144609B902F0C6FF23782E733F
:100600001BB9BDE8704002F0BFBF70BD8098FF1FEE
:100610002C99FF1F70B5094A094B0E461178587383
:100620001D46144609B902F0AFFF2378AE731BB91B
:10063000BDE8704002F0A8BF70BD00BF8098FF1FEA
:100640002C99FF1F054B814238BF01465973044B5B
:100650001B780BB902F098BF704700BF2C99FF1FA1
:100660008098FF1F10B50C46C1B20E4801F06EFE17
:100670002CB10238C0B20E2808D80B4B04E0013868
:10068000C0B2072802D8094B1B5601E04FF0FF33D8
:10069000074AD373074B1B781BB9BDE8104002F023
:1006A00073BF10BDE895FF1FF84E0000074F000014
:1006B0002C99FF1F8098FF1F054BC0B25870054B47
:1006C0005877054B1B780BB902F05EBF704700BF2F
:1006D000A595FF1F2C99FF1F8098FF1F10B50020C4
:1006E000FFF7EAFF00200146FFF77AFF00200146EE
:1006F000FFF7B8FF00200146FFF78CFF0124E0B2AE
:1007000000210134FFF758FF262CF8D1014BFF22BE
:100710001A7010BDC48AFF1FF8B501F0D7FD02247E
:10072000E0B20221013403F05DFA0A2CF8D11A4C30
:100730001A481B4F1B4E322101F006FE20681E2175
:10074000883001F001FE20681E21903001F0FCFD90
:10075000154B01251D70FFF7C1FF002121223846EE
:1007600004F0A2F9114B002421221C705C70214678
:10077000304604F099F9A5233B7033700C4B1C7084
:100780000C4B1D7003F04AFA0B4B18600B4B1A68A8
:100790000B4B1A60F8BD00BFA095FF1FE895FF1F27
:1007A000A595FF1FC795FF1F8098FF1FF095FF1F9E
:1007B0009595FF1FC695FF1F7095FF1F6098FF1F3F
:1007C000F495FF1F38B59378012B144632D1D378B6
:1007D000022B20D101F06AFC032801D1204D04E056
:1007E000204B214D5B78092B0ED111236B702079A2
:1007F00001F02FFDA870607901F02BFDE870A07961
:1008000001F027FD287125E02379AB706379EB7047
:10081000A3792B711EE0032B1CD1134B5A78042AA9
:1008200018D0104A5278092A14D02279DA716279E4
:100830001A720FE0082B0DD10B4B5A78042A09D0FD
:10084000084A5278092A05D0E178227942EA012241
:10085000A3F80520054B1A68054B1A6038BD00BF88
:10086000C795FF1F7495FF1FA595FF1F6098FF1F79
:10087000F495FF1FA64B1B78F7B5002B01F0F18212
:100880000021A44802F0BAFE81B219B10120A14AA8
:10089000FFF798FF01F00AFC0228054600F07E856C
:1008A000032800F00F86012841F0BE829A4C9B4835
:1008B000212221460F26467201F010FC6078FFF7D6
:1008C000FBFE6079A179FFF78BFEA1782846C90964
:1008D000FFF772FEA178924D0220C1F38011FFF75D
:1008E0006BFEA1780320C1F34011FFF765FEA178EC
:1008F0000420C1F30011FFF75FFEE1780520C9096C
:10090000FFF75AFEE1780620C1F38011FFF754FE8D
:10091000E1780720C1F34011FFF74EFEE17809208E
:10092000C1F38001FFF748FE21790B20C1F3C0011C
:10093000FFF742FE21790C20C1F38001FFF73CFE56
:10094000E1783046C1F3C001FFF736FEE1781020B0
:1009500001F00101FFF730FEE3792B706378092B7A
:1009600029D0E1780820C1F30011FFF725FEE178D6
:100970000A20C1F34001FFF71FFE21790D20C1F3CA
:100980004001FFF719FE21790E20C1F34011FFF756
:1009900013FE95F90010B1F1FF335942594111206E
:1009A000FFF70AFE95F900104A1E51424FF012005F
:1009B0005141FFF701FE6378574D03F0FD03042B0F
:1009C0006FD1297A1320C1F3C001FFF7F5FD297A11
:1009D0001420C1F30011FFF7EFFD297A1520C1F3B0
:1009E0004011FFF7E9FDA97A162001F00101FFF798
:1009F000E3FDA97A1720C1F34001FFF7DDFDA97AD5
:100A00001820C1F38001FFF7D7FDA97A1920C1F39F
:100A1000C001FFF7D1FDA97A1A20C1F30011FFF739
:100A2000CBFDA97A1B20C1F34011FFF7C5FDA97AC0
:100A30001C20C1F38011FFF7BFFDA97A1D20C90951
:100A4000FFF7BAFDE97A1E2001F00101FFF7B4FDBE
:100A5000E97A1F20C1F34001FFF7AEFDE97A2020BB
:100A6000C1F38001FFF7A8FDE97A2120C1F3C0019D
:100A7000FFF7A2FDE97A2220C1F30011FFF79CFDE8
:100A8000E97A2320C1F34011FFF796FDE97A24208B
:100A9000C1F38011FFF790FDE97A2520C909FFF71E
:100AA0008BFD6378062B06D11B4B597A2620C1F3A8
:100AB000C001FFF781FDA078174D00F00F00002165
:100AC000FFF7D0FD6378092B40F05E84EB7803F0EC
:100AD000100303F0FF0143B1E97B01F0F001B1F134
:100AE000100CDCF1000151EB0C010820FFF764FD54
:100AF00094F90430002B15DA074BD97B01F0F00193
:100B0000B1F1100EDEF1000151EB0E010BE000BF60
:100B1000C695FF1F9695FF1F7495FF1FA595FF1F94
:100B2000A495FF1F00211320FFF746FDE37803F093
:100B3000020303F0FF013BB1A84BD97B01F0F001A8
:100B4000B1F11007794279410A20FFF735FD237989
:100B500003F0400303F0FF013BB1A04BD97B01F050
:100B6000F001B1F11006714271411420FFF724FD2C
:100B7000E37803F0100303F0FF013BB1974BD97BFF
:100B800001F0F001B1F12005694269412120FFF730
:100B900013FD94F90430002B08DA904BD97B01F057
:100BA000F001B1F120004142414100E0002122204A
:100BB000FFF702FDE37803F0020303F0FF013BB10E
:100BC000864BD97B01F0F001B1F120025142514135
:100BD0002320FFF7F1FC237903F0400303F0FF012A
:100BE0003BB17E4BD97B01F0F001B1F120035942BA
:100BF00059412420FFF7E0FCE37803F0100303F0F1
:100C0000FF014BB1754BD97B01F0F001B1F1300C14
:100C1000DCF1000151EB0C012520FFF7CDFC94F92C
:100C20000430002B0ADA6D4BD97B01F0F001B1F1F1
:100C3000300EDEF1000151EB0E0100E00021262014
:100C4000FFF7BAFCE37803F0020303F0FF013BB1C6
:100C5000624BD97B01F0F001B1F130077942794163
:100C60002720FFF7A9FC237903F0400303F0FF01DD
:100C70003BB15A4BD97B01F0F001B1F13006714222
:100C800071412820FFF798FCE37803F0100303F08C
:100C9000FF013BB1514BD97B01F0F001B1F14005AF
:100CA000694269412920FFF787FC94F90430002B41
:100CB00008DA4A4BD97B01F0F001B1F14000414222
:100CC000414100E000212A20FFF776FCE37803F0A1
:100CD000020303F0FF013BB1404BD97B01F0F0016F
:100CE000B1F14002514251412B20FFF765FC2379BD
:100CF00003F0400303F0FF013BB1384BD97B01F017
:100D0000F001B1F14003594259412C20FFF754FC46
:100D1000E37803F0100303F0FF014BB12F4BD97BB5
:100D200001F0F001B1F1500CDCF1000151EB0C01CC
:100D30002D20FFF741FC94F90430002B0ADA274BF1
:100D4000D97B01F0F001B1F1500EDEF1000151EB61
:100D50000E0100E000212E20FFF72EFCE37803F0C7
:100D6000020303F0FF013BB11C4BD97B01F0F00102
:100D7000B1F15007794279412F20FFF71DFC23790B
:100D800003F0400303F0FF013BB1144BD97B01F0AA
:100D9000F001B1F15006714271413020FFF70CFCB7
:100DA000E37803F0100303F0FF013BB10B4BD97B59
:100DB00001F0F001B1F16005694269413120FFF7AE
:100DC000FBFB94F90430002B0ADA044BD97B01F0C9
:100DD000F001B1F160004142414102E07495FF1F12
:100DE00000213220FFF7E8FBE37803F0020303F071
:100DF000FF013BB1AA4BD97B01F0F001B1F16002D8
:100E0000514251413320FFF7D7FB237903F04003D0
:100E100003F0FF013BB1A24BD97B01F0F001B1F12E
:100E20006003594259413420FFF7C6FBE37803F0D1
:100E3000100303F0FF014BB1994BD97B01F0F00196
:100E4000B1F1700CDCF1000151EB0C013520FFF722
:100E5000B3FB94F90430002B0ADA914BD97B01F0F3
:100E6000F001B1F1700EDEF1000151EB0E0100E076
:100E700000213620FFF7A0FBE37803F0020303F024
:100E8000FF013BB1864BD97B01F0F001B1F1700756
:100E900079427941824C3720FFF78EFB237903F0AA
:100EA000400303F0FF0133B1E17B01F0F001B1F148
:100EB0007006714271413820FFF77EFBE37803F042
:100EC000100303F0FF013BB1754BD97B01F0F0013A
:100ED000B1F18005694269413920FFF76DFB94F952
:100EE0000430002B08DA6E4BD97B01F0F001B1F130
:100EF00080004142414100E000213A20FFF75CFBC5
:100F0000E37803F0020303F0FF013BB1644BD97BAC
:100F100001F0F001B1F18002514251413B20FFF755
:100F20004BFB237903F0400303F0FF013BB15C4B23
:100F3000D97B01F0F001B1F18003594259413C20C5
:100F4000FFF73AFBE37803F0100303F0FF014BB126
:100F5000534BD97B01F0F001B1F1900CDCF10001B1
:100F600051EB0C013D20FFF727FB94F90430002BD7
:100F70000ADA4B4BD97B01F0F001B1F1900EDEF1B2
:100F8000000151EB0E0100E000213E20FFF714FBB1
:100F9000E37803F0020303F0FF013BB1404BD97B40
:100FA00001F0F001B1F19007794279413F20FFF75C
:100FB00003FB237903F0400303F0FF013BB1384BFF
:100FC000D97B01F0F001B1F19006714271414020EE
:100FD000FFF7F2FAE37803F0100303F0FF013BB1EF
:100FE0002F4BD97B01F0F001B1F1A00569426941B5
:100FF0004120FFF7E1FA94F90430002B08DA284B7E
:10100000D97B01F0F001B1F1A0004142414100E083
:1010100000214220FFF7D0FAE37803F0020303F047
:10102000FF013BB11E4BD97B01F0F001B1F1A002F1
:10103000514251414320FFF7BFFA237903F04003A7
:1010400003F0FF013BB1164BD97B01F0F001B1F188
:10105000A003594259414420FFF7AEFAE37803F068
:10106000100303F0FF014BB10D4BD97B01F0F001F0
:10107000B1F1B00CDCF1000151EB0C014520FFF7A0
:101080009BFA94F90430002B0CDA054BD97B01F064
:10109000F001B1F1B00EDEF1000151EB0E0102E002
:1010A0007495FF1F00214620FFF786FAE37803F0CE
:1010B000020303F0FF013BB1B54BD97B01F0F00116
:1010C000B1F1B007794279414720FFF775FA2379EA
:1010D00003F0400303F0FF013BB1AD4BD97B01F0BE
:1010E000F001B1F1B006714271414820FFF764FA96
:1010F000E37803F0100303F0FF013BB1A44BD97B6D
:1011000001F0F001B1F1C005694269414920FFF7E2
:1011100053FA94F90430002B08DA9D4BD97B01F087
:10112000F001B1F1C0004142414100E000214A20FC
:10113000FFF742FAE37803F0020303F0FF013BB14B
:10114000934BD97B01F0F001B1F1C0025142514102
:101150004B20FFF731FA237903F0400303F0FF013E
:101160003BB18B4BD97B01F0F001B1F1C003594287
:1011700059414C20FFF720FA2179864D0E20C1F30A
:101180004001FFF719FAA37B03F00F03022B0BD1E9
:101190007F4B5B7943B9804B95F9002019780A445D
:1011A00082F308021A700EE029781120C909FFF7AE
:1011B00003FA95F9001000294FF01200D4BF002166
:1011C0000121FFF7F9F9A37B714D607903F00F035B
:1011D000012B0FD0022B13D16F4B00211B780093F2
:1011E000C0430B46C0B2FF2202F09AFEA979C94360
:1011F000C9B202E0A979C043C943FFF723FA04E06A
:10120000A979C043C943FFF705FAE37B03F00F0355
:10121000012B06D15E4B197981F02001C1F34011F9
:1012200000E000211520FFF7C7F9E37B03F00F036F
:10123000022B06D1564B197981F02001C1F34011E0
:1012400000E000211620FFF7B7F9E37B03F00F035E
:10125000032B06D14E4B197981F02001C1F34011C7
:1012600000E000211720FFF7A7F9E37B03F00F034D
:10127000042B06D1464B197981F02001C1F34011AE
:1012800000E000211820FFF797F9E37B03F00F033C
:10129000052B06D13E4B197981F02001C1F3401195
:1012A00000E000211920FFF787F9E37B03F00F032B
:1012B000062B06D1364B197981F02001C1F340117C
:1012C00000E000211A20FFF777F9E37B03F00F031A
:1012D000072B06D12E4B197981F02001C1F3401163
:1012E00000E000211B20FFF767F9E37B03F00F0309
:1012F000082B06D1264B197981F02001C1F340114A
:1013000000E00021224C1C20FFF756F9E37B03F09C
:101310000F03092B03BF217981F02001C1F3401194
:1013200000211D20FFF748F9E37B03F00F030A2B90
:1013300006D1174B197981F02001C1F3401100E06B
:1013400000211E20FFF738F9E37B03F00F030B2B7E
:1013500006D10F4B197981F02001C1F3401100E053
:1013600000211F20FFF728F9E37B03F00F030C2B6C
:1013700002D1074B00F051BD00212020FFF71CF9DE
:1013800000200146FFF72CF9022400F054BD00BFF5
:101390007495FF1FA495FF1FC48AFF1FBF4CC04E4A
:1013A000C04F21462A460023304600F0C3FE0720E6
:1013B000FFF782F9B87800F021FF2A464123307008
:1013C0002146304600F0B6FE2078012100F01E00D4
:1013D000FFF748F921780D2001F00101FFF7ECF843
:1013E000F87800F00BFF2A462B4630702146304635
:1013F00000F0A0FE21780B2001F00101FFF7DCF8DE
:1014000021780520C1F38001FFF7D6F821780E205E
:10141000C1F3C001FFF7D0F821780620C1F3001115
:10142000FFF7CAF8387900F0E9FE2A464423307005
:101430002146304600F07EFE21780F2001F00101A8
:10144000FFF7BAF821780920C1F34001FFF7B4F89B
:1014500021780A20C1F38001FFF7AEF82178082037
:10146000C1F3C001FFF7A8F821780720C1F30011EC
:10147000FFF7A2F8B7F8050000F0D4FE2A460823CB
:1014800030702146304600F055FE2178102001F0E2
:101490000101FFF791F821780120C1F34001FFF726
:1014A0008BF821782846C1F38001FFF785F8217871
:1014B0000320C1F3C001FFF77FF821780420C1F3B6
:1014C00000115BE7784C79480F23212221464372B3
:1014D00000F068FE6078FFF7EFF8A078002100F0D8
:1014E0000F00FFF7BFF8A1780120C909FFF764F8E2
:1014F000A1780220C1F38011FFF75EF8A178284699
:10150000C1F34011FFF758F8A1780420C1F300118E
:10151000FFF752F8E1780520C909FFF74DF8E178A7
:101520000620C1F38011FFF747F8E1780720C1F3E7
:101530004011FFF741F8E1780920C1F38001FFF77E
:101540003BF8E37803F0100303F0FF0143B1E17BC4
:1015500001F0F001B1F1100CDCF1000151EB0C01D4
:101560000820FFF729F894F90430002B0ADA4E4BD3
:10157000D97B01F0F001B1F1100EDEF1000151EB69
:101580000E0100E000211320FFF716F8E37803F0C6
:10159000020303F0FF013BB1434BD97B01F0F001A3
:1015A000B1F11007794279410A20FFF705F8237954
:1015B00003F0400303F0FF013BB13B4BD97B01F04B
:1015C000F001B1F11006714271411420FEF7F4FFF1
:1015D000E37803F0100303F0FF013BB1324BD97BFA
:1015E00001F0F001B1F12005694269412120FEF7C7
:1015F000E3FF94F90430002B08DA2B4BD97B01F080
:10160000F001B1F120004142414100E000212220DF
:10161000FEF7D2FFE37803F0020303F0FF013BB1D2
:10162000214BD97B01F0F001B1F12002514251412F
:101630002320FEF7C1FF237903F0400303F0FF01ED
:101640003BB1194BD97B01F0F001B1F120035942B4
:1016500059412420FEF7B0FFE37803F0100303F0B4
:10166000FF014BB1104BD97B01F0F001B1F1300C0F
:10167000DCF1000151EB0C012520FEF79DFF94F9F0
:101680000430002B14DA084BD97B01F0F001B1F1E2
:10169000300EDEF1000151EB0E010AE0F895FF1F5C
:1016A000F095FF1FA595FF1FFA95FF1FC795FF1F18
:1016B00000212620FEF780FFE37803F0020303F009
:1016C000FF013BB1A84BD97B01F0F001B1F130072C
:1016D000794279412720FEF76FFF237903F0400319
:1016E00003F0FF013BB1A04BD97B01F0F001B1F158
:1016F0003006714271412820FEF75EFFE37803F067
:10170000100303F0FF013BB1974BD97B01F0F001CF
:10171000B1F14005694269412920FEF74DFF94F976
:101720000430002B08DA904BD97B01F0F001B1F1C5
:1017300040004142414100E000212A20FEF73CFFE9
:10174000E37803F0020303F0FF013BB1864BD97B42
:1017500001F0F001B1F14002514251412B20FEF75E
:101760002BFF237903F0400303F0FF013BB17E4BD5
:10177000D97B01F0F001B1F14003594259412C20CD
:10178000FEF71AFFE37803F0100303F0FF014BB1FB
:10179000754BD97B01F0F001B1F1500CDCF1000187
:1017A00051EB0C012D20FEF707FF94F90430002BBC
:1017B0000ADA6D4BD97B01F0F001B1F1500EDEF188
:1017C000000151EB0E0100E000212E20FEF7F4FE97
:1017D000E37803F0020303F0FF013BB1624BD97BD6
:1017E00001F0F001B1F15007794279412F20FEF765
:1017F000E3FE237903F0400303F0FF013BB15A4BB2
:10180000D97B01F0F001B1F15006714271413020F5
:10181000FEF7D2FEE37803F0100303F0FF013BB1C3
:10182000514BD97B01F0F001B1F16005694269418A
:101830003120FEF7C1FE94F90430002B08DA4A4B40
:10184000D97B01F0F001B1F160004142414100E07B
:1018500000213220FEF7B0FEE37803F0020303F02C
:10186000FF013BB1404BD97B01F0F001B1F16002C7
:10187000514251413320FEF79FFE237903F040038C
:1018800003F0FF013BB1384BD97B01F0F001B1F11E
:101890006003594259413420FEF78EFEE37803F08D
:1018A000100303F0FF014BB12F4BD97B01F0F00186
:1018B000B1F1700CDCF1000151EB0C013520FEF7A9
:1018C0007BFE94F90430002B0ADA274BD97B01F018
:1018D000F001B1F1700EDEF1000151EB0E0100E0FC
:1018E00000213620FEF768FEE37803F0020303F0E0
:1018F000FF013BB11C4BD97B01F0F001B1F1700746
:10190000794279413720FEF757FE237903F04003EF
:1019100003F0FF013BB1144BD97B01F0F001B1F1B1
:101920007006714271413820FEF746FEE37803F0FD
:10193000100303F0FF013BB10B4BD97B01F0F00129
:10194000B1F18005694269413920FEF735FE94F90D
:101950000430002B0ADA044BD97B01F0F001B1F11D
:1019600080004142414102E0FA95FF1F00213A20E8
:10197000FEF722FEE37803F0020303F0FF013BB120
:10198000AF4BD97B01F0F001B1F1800251425141DE
:10199000AB4C3B20FEF710FE237903F0400303F02D
:1019A000FF0133B1E17B01F0F001B1F18003594255
:1019B00059413C20FEF700FEE37803F0100303F0EA
:1019C000FF014BB19E4BD97B01F0F001B1F1900CBE
:1019D000DCF1000151EB0C013D20FEF7EDFD94F927
:1019E0000430002B0ADA964BD97B01F0F001B1F1FB
:1019F000900EDEF1000151EB0E0100E000213E20CF
:101A0000FEF7DAFDE37803F0020303F0FF013BB1D8
:101A10008B4BD97B01F0F001B1F19007794279410C
:101A20003F20FEF7C9FD237903F0400303F0FF01D7
:101A30003BB1834BD97B01F0F001B1F190067142CB
:101A400071414020FEF7B8FDE37803F0100303F086
:101A5000FF013BB17A4BD97B01F0F001B1F1A00558
:101A6000694269414120FEF7A7FD94F90430002B3B
:101A700008DA734BD97B01F0F001B1F1A0004142CB
:101A8000414100E000214220FEF796FDE37803F09B
:101A9000020303F0FF013BB1694BD97B01F0F00178
:101AA000B1F1A002514251414320FEF785FD237957
:101AB00003F0400303F0FF013BB1614BD97B01F020
:101AC000F001B1F1A003594259414420FEF774FDE1
:101AD000E37803F0100303F0FF014BB1584BD97BBF
:101AE00001F0F001B1F1B00CDCF1000151EB0C019F
:101AF0004520FEF761FD94F90430002B0ADA504BC3
:101B0000D97B01F0F001B1F1B00EDEF1000151EB33
:101B10000E0100E000214620FEF74EFDE37803F0C1
:101B2000020303F0FF013BB1454BD97B01F0F0010B
:101B3000B1F1B007794279414720FEF73DFD2379A5
:101B400003F0400303F0FF013BB13D4BD97B01F0B3
:101B5000F001B1F1B006714271414820FEF72CFD51
:101B6000E37803F0100303F0FF013BB1344BD97B62
:101B700001F0F001B1F1C005694269414920FEF769
:101B80001BFD94F90430002B08DA2D4BD97B01F0B2
:101B9000F001B1F1C0004142414100E000214A2082
:101BA000FEF70AFDE37803F0020303F0FF013BB107
:101BB000234BD97B01F0F001B1F1C00251425141F8
:101BC0004B20FEF7F9FC237903F0400303F0FF01FB
:101BD0003BB11B4BD97B01F0F001B1F1C00359427D
:101BE00059414C20FEF7E8FC21790C20C1F380011B
:101BF000FEF7E2FC21790E20C1F34001FEF7DCFC88
:101C0000E1780F20C1F3C001FEF7D6FCE178102087
:101C100001F00101FEF7D0FCA27B0A4BE1791970BB
:101C200002F00F02022A1D4610D1054B5B796BB9F9
:101C3000054B1A7842FA81F181F30801197013E01B
:101C4000FA95FF1FA495FF1FC48AFF1F1120C90921
:101C5000FEF7B2FC95F9001000294FF01200D4BF36
:101C600000210121FEF7A8FCA37B7F4D607903F0E2
:101C70000F03012B0FD0022B13D17C4B00211B78BB
:101C80000093C0430B46C0B2FF2202F049F9A97984
:101C9000C943C9B202E0A979C043C943FEF7D2FCE7
:101CA00004E0A979C043C943FEF7B4FCE37B03F029
:101CB0000F03012B06D16C4B197981F02001C1F380
:101CC000401100E000211520FEF776FCE37B03F0D5
:101CD0000F03022B06D1644B197981F02001C1F367
:101CE000401100E000211620FEF766FCE37B03F0C4
:101CF0000F03032B06D15C4B197981F02001C1F34E
:101D0000401100E000211720FEF756FCE37B03F0B2
:101D10000F03042B06D1544B197981F02001C1F334
:101D2000401100E000211820FEF746FCE37B03F0A1
:101D30000F03052B06D14C4B197981F02001C1F31B
:101D4000401100E000211920FEF736FCE37B03F090
:101D50000F03062B06D1444B197981F02001C1F302
:101D6000401100E000211A20FEF726FCE37B03F07F
:101D70000F03072B06D13C4B197981F02001C1F3E9
:101D8000401100E000211B20FEF716FCE37B03F06E
:101D90000F03082B06D1344B197981F02001C1F3D0
:101DA000401100E000211C20FEF706FCE37B03F05D
:101DB0000F03092B06D12C4B197981F02001C1F3B7
:101DC000401100E000211D20FEF7F6FBE37B03F04D
:101DD0000F030A2B06D1244B197981F02001C1F39E
:101DE000401100E000211E20FEF7E6FBE37B03F03C
:101DF0000F030B2B06D11C4B197981F02001C1F385
:101E0000401100E000211F20FEF7D6FBE37B03F02A
:101E10000F030C2B7FF4B0AA134B197981F020012A
:101E2000C1F34011FFF7A9BAFEF758FC0A2001F0F0
:101E300013FFFFF7A9BA204601F0C6FE04F14B03D9
:101E4000D0F1010104F1010438BF0021D8B2E4B29D
:101E5000FEF7B2FB0A2CEED103B0BDE8F04001F072
:101E600093BB03B0F0BD00BFFA95FF1FC48AFF1FEC
:101E700070B54FF4327002F081F90546044600F562
:101E800032762046083400F059FAB442F9D1034BB7
:101E900003481D60BDE8704000F050BAA095FF1FD8
:101EA000E895FF1F002AF0B50CBF4FF064524FF0C9
:101EB000605200240F4E104FA65B104D97FBF6F6B4
:101EC000B14255F8145004D3190706D542F0806288
:101ED00003E002342E2CEDD1F6E75B0707D525F49D
:101EE000704305F4704542F0007243EA15152A4329
:101EF0000260F0BDB851000000366E01E8510000EC
:101F000010B50446FFF7CEFF204610BD10B5184BA4
:101F10001A7802B372B61B78D90707D5154A164945
:101F2000146809682140154C216011609A0707D593
:101F3000134A1149146849682140104C61601160CE
:101F40005B0707D50F4B0C4A196892680A400B498A
:101F50008A601A6062B60C4BDA68824207D00B4A7C
:101F60001A60D8600A4A40F0804018611A6010BDBB
:101F7000F098FF1F80E100E0D898FF1FE498FF1F52
:101F800084E100E088E100E000C0024001401F0061
:101F900000001F80054B4FF00042DA625863DA6A96
:101FA000002AFCDA014B986BC0B2704700C00240B7
:101FB0000A4B1B788BB1D90703D5094A1168094A26
:101FC00011609A0703D5064A5168074A11605B07FA
:101FD00003D5034B9A68054B1A607047F098FF1FB2
:101FE000E498FF1F00E100E004E100E008E100E008
:101FF00010B50023FF22DCB2A14205D0C45C6240D0
:10200000024C0133A25CF6E7104610BDC58AFF1FE3
:10201000F8B50226234B1868FFF778FF0A20002145
:1020200001F0B2FD204B1B68DB0002D0013B7FF4C6
:10203000FDAF0020FFF7AEFF5228044606D1202551
:102040000020FFF7A7FF013DFAD11CE0E0281AD0DD
:10205000C8B1232700250020FFF79CFFA52D03D141
:1020600009280CD11F2403E0522D08D18428F8E759
:102070000020FFF78FFF013CFAD12C4603E0013F1F
:1020800001D00546E7E70A20012101F07DFDFFF7B9
:102090008FFF5023013B7FF4FDAF013EBAD12046B4
:1020A000F8BD00BF1C96FF1FD08BFF1F38B50A4C30
:1020B00025787DB9FFF7ACFFA52808D0E02803D02C
:1020C000522806D1012300E00223237002E00323FB
:1020D000FBE72570207838BD1B96FF1FF8B50D462D
:1020E000511EC9B216460746FFF782FF0F4B87F80D
:1020F00020001868FFF70AFF0A20002101F044FDC4
:102100000024B44205DA385DFFF744FF2855013456
:10211000F7E70A20012101F037FDFFF749FF2B788F
:10212000A52B02D0024B00221A70F8BD2096FF1F8B
:102130001B96FF1F2DE9F04106460F46904643705F
:102140000225154B1868FFF7E1FE0A20002101F077
:102150001BFD124B1B68DB0001D1002403E0013B97
:102160007FF4FDAFF9E7444505DA305DFFF712FF74
:1021700038550134F7E70A20012101F005FDFFF78A
:1021800017FF013DDDD1737823B93B78E02B1CBFED
:10219000034B1D70BDE8F0811C96FF1FD08BFF1F05
:1021A0001B96FF1FF8B50D46511EC9B216460746CD
:1021B000FFF71EFF0F4B87F820001868FFF7A6FEF9
:1021C0000A20002101F0E0FC0024B44205DA385D69
:1021D000FFF7E0FE28550134F7E70A20012101F05E
:1021E000D3FCFFF7E5FE2B78A52B02D0024B002293
:1021F0001A70F8BD1C96FF1F1B96FF1F10B5002319
:102200001A46074CC14319411C5D01F00101A14070
:1022100001330A43082BD2B2F3D1104610BD00BFE0
:10222000C58BFF1F10F4C07F14BFEF23FF2310F0F6
:10223000600F18BFAF2310F0180F18BFBF2310F0A6
:10224000060F18BFFE2310F0010F0CBF1846AE207A
:102250007047502833D00FD80F2834D004D8062820
:102260001FD0072830D02CE03F2818D04F281CD092
:10227000392826D1282070476D281AD007D85B2826
:1022800011D0662813D054281BD14E2070477D28CA
:1022900011D07F2811D06F2813D10920704700205A
:1022A00070470120704702207047032070470420C8
:1022B000704705207047062070470820704752205D
:1022C00070470A20704729207047FFFF07B50A2092
:1022D000012101F087FC0A20012101F055FC02F0E8
:1022E000A9F806490122002301A8FFF709FE019879
:1022F00002F0E6F803B05DF804FB00BF00093D0002
:1023000010B5074C0748214601220023FFF7F8FDCE
:102310002146012204230448FFF7F2FD10BD00BF4F
:10232000001BB7001C96FF1F2096FF1F08B5FEF785
:10233000F3F9FEF79FFA01F05DFFFAE70022322180
:1023400002608180827170478180704710B5837907
:102350008B4209D0054B02681C68A21A8488A242ED
:1023600002D31B6803608171807910BD6098FF1FE4
:10237000174B1A6842F480521A60164A00231370F1
:10238000154A1370154A1370154A1370154A1370C5
:10239000154A40F2133111604FF451715160134AE4
:1023A000C0F344311170C0F3471100F01F005170A9
:1023B0009072937013742C23D3700D4B40226FF4E2
:1023C0004B711A700B444FF400321A60704700BF13
:1023D000348004408E96FF1F2596FF1F9496FF1FA2
:1023E0008F96FF1F2496FF1F08C0044000C00640C0
:1023F00031E400E0134A937800F0030103F0EC03AA
:102400000B43410748BF43F01003937000F00F03E4
:10241000042B0C4903D18B7943F040038B71537922
:10242000C20603F0EF03074A48BF43F0100353719D
:102430009379810603F0EF0348BF43F010039371D3
:10244000704700BF00C0064008B50E4B1B68DB0498
:1024500000D408BD0C4B1A7802F0FF0312B101F052
:10246000C9FEF7E7094A4FF400311160084A0949EB
:10247000D37040F203120A604A60074A1370074A99
:10248000137008BD348004402496FF1F84E100E0EF
:1024900000C0064008C004408E96FF1F2596FF1F0F
:1024A00038B50446094B1B7803F0FF05002BF9D122
:1024B0002046012101F096FB2046294601F064FBED
:1024C000034B53F83420034B1A6038BD2496FF1F8A
:1024D000104F00009096FF1F0B4B1B6813F48053A6
:1024E00010D00228094B09D1094A4FF440711160FC
:1024F0005A7B42F008025A73012070475A7B02F05F
:10250000F7025A73002070473480044000C0064030
:1025100000C004400B4B1B6813F4805310D00E28EE
:10252000094B09D1094A4FF4407111605A7B42F0BE
:1025300001025A73012070475A7B02F0FE025A735F
:10254000002070473480044000C0064004C00440AE
:10255000F8B51D4B1B68DA04064633D51B4B1B68C8
:102560000BB101221A701A4B1C780134282C1F461B
:1025700028BF0024174D2B78A34218D101F03CFC52
:1025800040280FDC144A13791B06F3D52B78134926
:102590000133282B28BF0023C95CDBB2C9B2D1713B
:1025A0002B70E7E7FF28E5DD01F024FEE2E70B4BA7
:1025B000F6B21E550A4B01221A70074BE4B2AC2248
:1025C0003C70DA70F8BD00BF348004409096FF1F65
:1025D0009496FF1F8F96FF1F00C006402696FF1F90
:1025E0002496FF1F38B504464518AC4204D014F8B1
:1025F000010BFFF7ADFFF8E738BDFFFF08B5034B50
:102600001B7813B101F0F6FDF9E708BD2496FF1F12
:10261000064A074B1B781078DBB2C0B283422CBF4E
:10262000273000F1FF30C01A704700BF8F96FF1FA0
:102630009496FF1F054B1878054B1B78C0B2DBB290
:10264000984238BF4030C01A704700BF8E96FF1FB7
:102650002596FF1F094B0A4A19781378DBB2994275
:1026600008D00133402B28BF00230649C85CDBB2E9
:10267000137070474FF0FF30704700BF8E96FF1FFA
:102680002596FF1F4E96FF1F084B1A78084B1B78A4
:10269000DBB29A4207D00133402B28BF0023054A02
:1026A000D05CC0B270474FF0FF3070478E96FF1F6E
:1026B0002596FF1F4E96FF1F024B1A78024BD2B28F
:1026C0001A7070472596FF1F8E96FF1F10B5214B7D
:1026D0001A7992060FD5204AD87913781F49013309
:1026E000402B097828BF00238B42C0B203D01C497D
:1026F000C854DBB21370174AD178C9B20C0616D58C
:102700001379180613D5174B17481C780378DBB2DA
:102710009C4202D16C23D37009E00133282B28BFDF
:102720000023124CE45CDBB2E4B2D47103704B06BC
:102730000ED5084B1A7912F0400F194608D00C4BF1
:1027400000221A700B4B1B6803B11A702C23CB703C
:1027500010BD00BF00C006408E96FF1F2596FF1FCC
:102760004E96FF1F9496FF1F8F96FF1F2696FF1F02
:102770002496FF1F9096FF1FF0B50C4B0C4C1A7857
:1027800042F0020504EBC50682F0010270600948C0
:102790001A700678002E0CBF8827C82786F001061D
:1027A00047EA0141067044F83510F0BDF096FF1F6E
:1027B0000080FF1F5897FF1F431E012B10B510D834
:1027C00072B6094A52F8230048B1416842F8231012
:1027D000064A018832F81340611A22F8131062B6D3
:1027E00010BD002010BD00BFE896FF1F2899FF1FF5
:1027F000013801280AD872B6054B53F82030002062
:1028000013B101305B68FBE762B670470020704788
:102810003497FF1F10B572B61A4B1A7812F0080FD2
:102820001C46194B04D0194A116A81B1926AC2B18F
:102830006278120704D5154A116C51B1926C92B1AD
:1028400062B600221A70BDE8104001F011BB0422EC
:1028500000E008220D4901EBC204083060600C481A
:1028600008E0052200E00922084901EBC204083013
:102870006060084841F832001A78013A1A7062B66E
:1028800010BD00BF205000004E97FF1F0080FF1FAB
:1028900088004000C8004000431E012B30B532D8EC
:1028A000194A400140F01000104472B6174CE25C27
:1028B000032A09D8DFE802F01602180508300222C0
:1028C00013E00830042210E01148124A50F8234067
:1028D00014B940F8231002E052F82300416042F896
:1028E00023100FE0032200E00522E25410F0080F4D
:1028F00001F108030A8843600CBF8823C82343EA18
:102900000243036062B630BD0080FF1FA496FF1F24
:102910003497FF1F3C97FF1F2DE9F84FAB4F3B78D3
:10292000DBB213F0040F3A460ED0A949097849B139
:10293000A848047804F0FF0124B10139C9B201703C
:1029400001B900BE0421397003F0080000F0FF0156
:10295000002800F03682A04BA04C1A78D2B215099C
:102960004FEA920840F0B38154F8382004EBC803D2
:10297000C2F38302013A5B680C2A00F2A581DFE80A
:1029800012F07B017B01A301A301A301A301A30119
:10299000A3017F01A301A301A3010D00904D1A68BB
:1029A0005B686B608F4B44F838302A60DFF86882D0
:1029B0008D4892B200230121B2F5A06FC8F8003013
:1029C0002361A361017000F02D8114D8822A00F0E8
:1029D000B88006D8802A40F0F480844C237063705D
:1029E00022E1B2F5817F00F0B98040F202339A42D1
:1029F00000F0C280E5E0B2F5086F00F09C8008D8D6
:102A0000A2F5D062012A00F2DC806A88A988784B9E
:102A1000C6E0B2F5106F40F0D4806D4B6F4EAA78CF
:102A20001A7006F14009336A1B0603D5706A08382C
:102A300001F01EFA08364E45F5D10026B146DFF802
:102A4000DCA156F80A0028B1D0F804B001F010FA61
:102A50005846F8E74AF80600664BDFF8C4A1F05084
:102A600056F80A0028B1D0F804B001F001FA58462F
:102A7000F8E7614B4AF80600F050604B23F8190064
:102A80005F4B19F80320023A032A08D8DFE802F066
:102A900002040204002200E0012203F8092009F1E7
:102AA0000109B9F1020F06F10406C8D1554B002205
:102AB0001A7001269A46544A544B3244334412F851
:102AC000012C9B0012F0080F1A704FEA860925D0DE
:102AD00001F0B0F938B104EB4613083058604C4BA4
:102AE00044F8393006E09AF8003044F839000133F0
:102AF0008AF8003001F09EF949F0010338B104EB87
:102B0000C30208305060374A44F8332006E044F8E6
:102B100033009AF8003001338AF8003049F002029D
:102B2000013649F003090023032E44F8323044F8FB
:102B30003930C0D176E0264B2C4C1B7823700B46E5
:102B400073E0AA88022A3CD8284C92002370637054
:102B5000304B9B5C9E0767D5217065E0AA8802F028
:102B60007F02022A2DDC6B885BBB9100294A0A4454
:102B7000117821F002010CE0AA8802F07F02022AFB
:102B80001FDC6B88EBB99100224A0A44117841F0AE
:102B90000201117046E033F80C6C964207D00C33FA
:102BA00053F8084CA3F10C00002CF4D109E033F8E1
:102BB0000A6C8E42F3D1120A032A0CBF23780389D0
:102BC00033E0144B0F221A7053E000BF80200740FF
:102BD0005797FF1FF196FF1F902007400080FF1FAF
:102BE0004497FF1FC80040005897FF1F4F97FF1FD3
:102BF000305000009C96FF1F3C97FF1F2899FF1F35
:102C0000A496FF1F4E97FF1F2050000030C80110F0
:102C100088004000C02007409896FF1FE896FF1FDD
:102C20003497FF1F1C4600E00223EE88B34238BFF2
:102C30001E46402E34BF3546402520462946FFF724
:102C40009BFD761B2C4403D1402D12D1354603E069
:102C5000402E34BF3546402520462946FFF78CFDDF
:102C6000761B2C4401D1402D03D1724AC8F8004094
:102C700016800122704B26E0704B44F8383023E078
:102C80006F4E3568B5B1DFF8AC81B8F80090B9F196
:102C9000400F34BF4C46402428462146FFF76CFDC8
:102CA000C4EB09039BB2A8F800300BB9402C00D14B
:102CB0002B193360634B1A88B2F5A06F04D1002240
:102CC0005A709A78604B1A7001225B4B6CE004EBEF
:102CD000C806013D736802F00802A3F10800EDB2D6
:102CE00002F0FF01002A36D001F0C2F85748584BD5
:102CF00050F82520EAB1516840F8251002F108018A
:102D00007160595D03290BD8DFE801F00204060861
:102D1000032104E0022102E0052100E004215955CD
:102D200016F0080F12880CBF8823C82343EA024319
:102D300042E05A5D032A07D8DFE802F0404002046F
:102D4000002206E0012204E016F0080F0CBF022268
:102D500003225A5532E054F83820120C23F8082C7C
:102D600022B3DFF81CE123F8061C43F8041C5EF8CC
:102D70002530384913B94EF8250002E051F82530C6
:102D80005860354B41F8250033F815100A4423F8F4
:102D9000152001F04FF810B10830706006E02F4B9D
:102DA00044F838001A7801321A7007E0234B2C4A95
:102DB00016F0080F08BF134644F8383008233B705C
:102DC000ACE5DC0720D51C48254C264D02230370BA
:102DD000254B1970254B1C609C60254CDC605D60A8
:102DE00019619961234B0D241C70234CFF23237020
:102DF0001370154A117002F80C3C204B9F221A7078
:102E000001230370BDE8F88F180604D519490D2079
:102E1000087080211170990705D517490878C0B24C
:102E2000087002211170DB0644BF10231370BDE847
:102E3000F88F00BF4C97FF1F94200740C800400048
:102E40009896FF1F4497FF1F982007403497FF1F55
:102E5000A496FF1F9C96FF1F2899FF1F4E97FF1FE8
:102E600088004000A896FF1FF096FF1F0080FF1FFC
:102E7000F496FF1FC02007408820074084200740A9
:102E8000E896FF1F08B500F049FF1B4B1B490022C5
:102E90001A609A601A6108685A6040F48020DA600B
:102EA0005A61086001F528316831C3F307200870C2
:102EB000C3F307401B0E08750B76FF2301F81C3C7B
:102EC00001F8143C01F88C3C012301F8083C81F81E
:102ED00064200B4A13700B4B70226FF450711A7000
:102EE0000B444FF400721A6003F1C04303F5C8238A
:102EF00010221A7008BD00BF0080FF1F34800440FC
:102F00008420074049E400E010B50023B0FBF2F450
:102F100002FB1400092894BF30303730C0B2C854C7
:102F200020460CB10133F1E7CA18547022469A4288
:102F300006DA885CCC5C8C54C8540132013BF6E75D
:102F4000084610BD194B1A6842F480621A60184A8C
:102F500000231370174A1370174A1370174A13701F
:102F6000174A1370174B40F213321A604FF4517224
:102F70005A60154BC0F344321A70C0F347125A70AE
:102F80000221042200F01F0098729A70D9745A75B9
:102F900088221A743C22DA700C4B40226FF44A717A
:102FA0001A700B444FF400521A607047348004408A
:102FB000E297FF1F6197FF1FE897FF1FE397FF1F2F
:102FC0006097FF1F40A0044000A006402DE400E0F1
:102FD000134A937800F0030103F0EC030B4341071D
:102FE00048BF43F01003937000F00F03042B0C490B
:102FF00003D18B7943F040038B715379C20603F000
:10300000EF03074A48BF43F01003537193798106D9
:1030100003F0EF0348BF43F010039371704700BF04
:1030200000A0064008B5114B1B685B0500D408BD25
:103030000F4B1A7802F0FF0312B101F0DBF8F7E74B
:103040000C4A4FF4005111600B4A0C49D37040F206
:1030500003120A604A600A4A13700A4A13700A4B44
:103060001B680BB101221A7008BD00BF34800440F8
:103070006097FF1F84E100E000A0064040A00440EC
:10308000E297FF1F6197FF1F5C97FF1F38B504464B
:10309000094B1B7803F0FF05002BF9D120460121D5
:1030A00000F0A0FD2046294600F06EFD034B53F8CA
:1030B0003420034B1A6038BD6097FF1F104F00008B
:1030C000E497FF1F0D4A38B5146814F480624FF07E
:1030D000000410D021280A4D0AD80A4A012152F8CA
:1030E00030302B6000F07EFD2B681C70012038BD55
:1030F0002C60204638BD104638BD00BF34800440E7
:103100005C97FF1F104F00000E4B1B6813F4806389
:1031100016D012280C4B03D140F202310B4A04E0C6
:10312000142809D10A4A40F2023111605A7B42F058
:1031300001025A73012070475A7B02F0FE025A7353
:10314000002070473480044000A006400CA00440DA
:1031500014C00440F8B51D4B1B685A05064633D50C
:103160001B4B1B680BB101221A701A4B1C780134DF
:10317000402C1F4628BF0024174D2B78A34218D19E
:1031800000F03AFE40280FDC144A13791B06F3D5F1
:103190002B7813490133402B28BF0023C95CDBB2D5
:1031A000C9B2D1712B70E7E7FF28E5DD01F022F805
:1031B000E2E70B4BF6B21E550A4B01221A70074B81
:1031C000E4B2BC223C70DA70F8BD00BF3480044029
:1031D000E497FF1FE897FF1FE397FF1F00A006403B
:1031E0006297FF1F6097FF1F274B1B685A052DE949
:1031F000F04707468A4644D5244B1B680BB1012291
:103200001A703D4607EB0A039D4237D2DFF89080E3
:103210001F4E98F8004096F800900134402C28BFCB
:1032200000245FFA89F9A1451DD11A4BBC22DA703E
:1032300000F0E2FD40280FDC164A13791B060FD57B
:10324000337815490133402B28BF0023C95CDBB21A
:10325000C9B2D171337003E0FF2801DD00F0CAFF6D
:1032600033784B45E4D00C4B15F8012B1A550B4B1A
:103270000122E4B21A7088F80040C3E7054BBC2273
:10328000DA70BDE8F08700BF34800440E497FF1F88
:10329000E397FF1F00A006406297FF1F6097FF1F84
:1032A000E897FF1F08B5034B1B7813B100F0A2FF8E
:1032B000F9E708BD6097FF1F064A074B1B78107897
:1032C000DBB2C0B283422CBF3F3000F1FF30C01AE6
:1032D000704700BFE397FF1FE897FF1F054B187863
:1032E000054B1B78C0B2DBB2984238BF4030C01AE1
:1032F000704700BFE297FF1F6197FF1F10B5104B8B
:1033000010491A780B78D2B2DBB29A4214D001334A
:10331000402B28BF00230C48DCB2C05C0C700B496A
:103320000968C0B251B19A4238BF4032D31A1A2B41
:1033300004DC00230B7010BD4FF0FF3010BD00BF48
:10334000E297FF1F6197FF1FA297FF1F5C97FF1F68
:10335000084B1A78084B1B78DBB29A4207D001332E
:10336000402B28BF0023054AD05CC0B270474FF005
:10337000FF307047E297FF1F6197FF1FA297FF1F63
:103380000C4B1B685B0514D50B4BDA7802F0CB02B3
:10339000DA7040225A74DA7842F03402DA70074B5D
:1033A0001A78074BD2B21A70064B1B680BB1002279
:1033B0001A7070473480044000A006406197FF1FD8
:1033C000E297FF1F5C97FF1F30B5374B1A7912F059
:1033D000300F31D072B69A7D02F0FF0022B9DA794F
:1033E00040225A7462B627E062B6304A30491378F8
:1033F0000978DBB2C9B214462B4AD5795A1C402A47
:1034000028BF00228A42EDB202D02A4B9D541346B7
:10341000421E12F0FF00EFD1DAB22270264A126883
:1034200052B18B4236BFC1F14001C1EB03035B18BF
:10343000272BC4BF012313701B4BD978C9B20C06CC
:1034400020D51B7918061DD51C4B1D4A1D781378F5
:10345000EDB2DBB21046AB420CD0134A0133402B25
:103460001479184C28BF0023E45CE4B2D471127DB7
:10347000072AF0D9DBB203700B4B1A79120644BF4E
:103480007C22DA704B060ED5074B1A7912F0400FEA
:10349000194608D00C4B00221A700C4B1B6803B164
:1034A0001A703C23CB7030BD00A00640E297FF1F8E
:1034B0006197FF1FA297FF1F5C97FF1FE897FF1FF1
:1034C000E397FF1F6297FF1F6097FF1FE497FF1F9F
:1034D00010B5204B2048214960221A70E1225A7011
:1034E0001F4B204A1C78204B082C01D1002402E0FD
:1034F0000A2C03D138240460132005E00C2C0CBFE7
:1035000034243C2404601220086014601860174BB7
:1035100017491B78174A03B101230B601360164B40
:10352000164A1978164B012901D880210BE004298D
:1035300001D8842107E0082901D8852103E010295A
:1035400094BF86218721116019600E4B01221A70E9
:1035500010BD00BF0040074008B003400CB003405E
:10356000D48BFF1F08B00B400CB00B40EA97FF1F35
:1035700020B0034020B00B40D58BFF1F24B0034088
:1035800024B00B40E997FF1F38B541F6B564184BDE
:103590001B7853B30120FFF72BF90228154D02D9F0
:1035A000013C0DD10EE000F045FC01460028F7D0AB
:1035B00000232B70104B00F1080203F1200007E0FC
:1035C0002B7813B101232B700FE000F013FEDEE720
:1035D00053F8044B42F8044B8342F9D120230B806B
:1035E0000120FFF759F9002038BD4FF0FF3038BDFA
:1035F0005797FF1FEB97FF1F2C99FF1FF8B5124B32
:103600001E6805460C461F46104B1B78ABB10120C7
:10361000FFF7D2F8024638B93B689B1BA3420FD88C
:103620007CB100F0E7FDEFE752F8083F2B605368EC
:103630006B6000F01DFC0820F8BD4FF0FF30F8BDB6
:10364000F8BD2046F8BD00BF6098FF1F5797FF1FC9
:10365000194B1A6842F400621A60184A002313706A
:10366000174A1370174A1370174A1370174A1370CA
:10367000174B40F213321A604FF451725A60154BD7
:10368000C0F344321A70C0F347125A7000F01F00A2
:103690000422022198729A70D9745A7588221A7479
:1036A0003C22DA700C4B40221A70A3F22B334FF4F9
:1036B00000421A60704700BF348004405698FF1FD4
:1036C000ED97FF1F5C98FF1F5798FF1FEC97FF1F98
:1036D0000CB0044000B006402FE400E0134A937899
:1036E00000F0030103F0EC030B43410748BF43F034
:1036F0001003937000F00F03042B0C4903D18B7956
:1037000043F040038B715379C20603F0EF03074A7D
:1037100048BF43F0100353719379810603F0EF0320
:1037200048BF43F010039371704700BF00B00640DC
:1037300008B50E4B1B681B0500D408BD0C4B1A784E
:1037400002F0FF0312B100F055FDF7E7094A4FF40C
:1037500000411160084A0949D37040F203120A601F
:103760004A60074A1370074A137008BD348004404A
:10377000EC97FF1F84E100E000B006400CB004406D
:103780005698FF1FED97FF1F38B50446094B1B786D
:1037900003F0FF05002BF9D12046012100F022FAA9
:1037A0002046294600F0F0F9034B53F83420034B30
:1037B0001A6038BDEC97FF1F104F00005898FF1F8C
:1037C0000B4B1B6813F4006310D01628094B09D16A
:1037D000094A4FF4407111605A7B42F008025A7353
:1037E000012070475A7B02F0F7025A73002070479D
:1037F0003480044000B0064004B004400B4B1B680A
:1038000013F4006310D01728094B09D1094A4FF46B
:10381000407111605A7B42F001025A7301207047D7
:103820005A7B02F0FE025A73002070473480044035
:1038300000B0064008B00440F8B51D4B1B681A05DF
:10384000064633D51B4B1B680BB101221A701A4B6D
:103850001C780134282C1F4628BF0024174D2B78D4
:10386000A34218D100F0C8FA40280FDC144A13799B
:103870001B06F3D52B7813490133282B28BF0023CF
:10388000C95CDBB2C9B2D1712B70E7E7FF28E5DD77
:1038900000F0B0FCE2E70B4BF6B21E550A4B0122DA
:1038A0001A70074BE4B2BC223C70DA70F8BD00BF5E
:1038B000348004405898FF1F5C98FF1F5798FF1FE3
:1038C00000B00640EE97FF1FEC97FF1F274B1B68C9
:1038D0001A052DE9F04707468A4644D5244B1B6854
:1038E0000BB101221A703D4607EB0A039D4237D205
:1038F000DFF890801F4E98F8004096F80090013451
:10390000282C28BF00245FFA89F9A1451DD11A4B44
:10391000BC22DA7000F070FA40280FDC164A1379E6
:103920001B060FD5337815490133282B28BF0023F8
:10393000C95CDBB2C9B2D171337003E0FF2801DD8D
:1039400000F058FC33784B45E4D00C4B15F8012BB4
:103950001A550B4B0122E4B21A7088F80040C3E7F5
:10396000054BBC22DA70BDE8F08700BF348004400C
:103970005898FF1F5798FF1F00B00640EE97FF1F93
:10398000EC97FF1F5C98FF1F08B5034B1B7813B122
:1039900000F030FCF9E708BDEC97FF1F064A074B23
:1039A0001B781078DBB2C0B283422CBF273000F105
:1039B000FF30C01A704700BF5798FF1F5C98FF1F69
:1039C000054B1878054B1B78C0B2DBB2984238BF64
:1039D0004030C01A704700BF5698FF1FED97FF1F79
:1039E000094B0A4A19781378DBB2994208D001339F
:1039F000402B28BF00230649C85CDBB21370704718
:103A00004FF0FF30704700BF5698FF1FED97FF1F24
:103A10001698FF1F084B1A78084B1B78DBB29A42A6
:103A200007D00133402B28BF0023054AD05CC0B229
:103A300070474FF0FF3070475698FF1FED97FF1FFC
:103A40001698FF1F0A4B1B681B050FD5094BDA7828
:103A500002F0CB02DA7040225A74DA7842F0340273
:103A6000DA70054B1A78054BD2B21A70704700BF56
:103A70003480044000B00640ED97FF1F5698FF1FAA
:103A800030B5304B1A7912F0300F23D072B69A7DD0
:103A900002F0FF0122B9DA7940225A7462B619E0C5
:103AA00062B6294B29481A780478D2B2E4B2184693
:103AB000244BDD79531C402B28BF0023A342EDB2D9
:103AC00002D0234AD5541A464B1E13F0FF01EFD102
:103AD000D2B202701B4BD978C9B20C0620D51B7923
:103AE00018061DD51B4B1C4A1D781378EDB2DBB2AE
:103AF0001046AB420CD0134A0133282B1479174CD3
:103B000028BF0023E45CE4B2D471127D072AF0D907
:103B1000DBB203700B4B1A79120644BF7C22DA70B9
:103B20004B060ED5074B1A7912F0400F194608D0F4
:103B30000B4B00221A700B4B1B6803B11A703C230D
:103B4000CB7030BD00B006405698FF1FED97FF1FA9
:103B50001698FF1F5C98FF1F5798FF1FEE97FF1FD7
:103B6000EC97FF1F5898FF1F044B054900221A606D
:103B70000A60044A106010221A60704714D0034093
:103B800004D0034000D00340212810B518D80D4AB6
:103B900052F8303093F880423CB1012211B183F8E1
:103BA000802010BD83F8002110BD02EBC0004368E7
:103BB0001A6811B142F0030201E022F002021A6019
:103BC00010BD00BF104F0000212806D8044B53F849
:103BD000303093F80002C0B270470020704700BF39
:103BE000104F0000212816D80B4A02EBC003012910
:103BF0005B6852F8302004D182F880124FF4A27230
:103C000008E0002082F8800211B94FF4807201E0D0
:103C100040F203121A607047104F000072B60B4B4F
:103C20000B491A680B4B1B68096862B6490102D53B
:103C3000322A88BF0133C2F5BB4218213F32B2FBA2
:103C4000F1F24FF47A7000FB0320704718E000E0B7
:103C500004ED00E06098FF1F38B50446FFF7DEFF73
:103C6000054664B1FFF7DAFF401BB0F57A7F03D356
:103C7000013C04D005F57A7500F0BCFAF2E738BDD6
:103C80001F4B4FF4000210B51A604FF080721A609B
:103C90004FF000721A604FF080621A604FF00062BD
:103CA0001A60184B184A194C00204BF6FF71186027
:103CB00059602823136093601361936113629362C8
:103CC000136393630822226004F580540434206057
:103CD0006160A360236144F8042C04F5FE24206095
:103CE0000B4801600B490B608B600B4B1A60FFF7B0
:103CF000EFFBFA20FFF7B0FFBDE81040FFF7C2B8B6
:103D000008E100E0048003400C8003400080034091
:103D100008800B400C800B4000800B401FB572B632
:103D2000154B70221A70154A412111700F2102F8AB
:103D3000011C80221A701A781206FCD5104B1868E4
:103D400062B6104B984298BF0A2301AC98BF584303
:103D500021460A22FFF7D8F80023E15C0A4A29B17C
:103D600002EB430001330A2B4180F6D101335B00A3
:103D7000137004B010BD00BF0000024007000240F5
:103D8000080002407F969800F48CFF1F024B1A68CF
:103D900001321A60704700BF6098FF1F08B50B4CD6
:103DA0002368580301D5FEF7B7FD2368590501D5EF
:103DB000FFF70AFB23681A0501D5FFF761FE2368A8
:103DC000DB04ECD5FEF782FCE9E700BF3480044059
:103DD00008B5FFF7E3FFFFFF014B10221A80704781
:103DE000002005407047FFFF024A13681844106026
:103DF000184670470C8DFF1FEFF313839BB9EFF349
:103E0000108098B9EFF3058323B10F2B04D9084A2A
:103E1000985C01E04FF48070EFF311833BB1834273
:103E200038BF184670474FF0FF307047184670474C
:103E3000F0E300E072B60C4A1168B1FA81F3172B77
:103E400002D962B6002070474FF00040D84021EA06
:103E50000001116062B6054948225343C818002288
:103E6000CA504260704700BF108DFF1F0084FF1FC3
:103E70000C4B4822C31AB3FBF2F3172B11D80A4A92
:103E8000127822B1094A12780AB1FEF7C3BC72B6A1
:103E9000074A4FF0004121FA03F3116819431160FA
:103EA00062B670470084FF1F4E97FF1F5797FF1F92
:103EB000108DFF1F70B506460D46002433192846A5
:103EC00019790A220023013400F034F8042C05D0BB
:103ED0002B6828461B682E219847EFE7204670BDC7
:103EE000024B034A1A6000225A6070476498FF1F11
:103EF000A850000010B5044600F0B6F8204610BDEA
:103F000004480549054A002303708023437300F0E9
:103F1000EFBA00BF6C98FF1FF53E0000C08AFF1F7C
:103F200010B5029C401AE41A4443521A94FBF2F072
:103F3000184410BD70B505468AB022B90368C9B2ED
:103F40001B6898472CE0012A08BF0A2221B93022B9
:103F50008DF82520212413E02124B1FBF2F002FB8F
:103F60001011C9B209290AAE94BF30313731264445
:103F7000C9B206F8241C014610B1013CE4B2ECE7DA
:103F800033B1013CE4B20AAB23442D2203F8242CC4
:103F90002B6801A95B6828462144C4F12202984796
:103FA0000AB070BD08B5034B01221A60024B1B68B2
:103FB000984708BD0C7103408898FF1F08B5034B54
:103FC00001221A60024B5B68984708BD1C710340D0
:103FD0008898FF1F08B5034B01221A60024B9B68AB
:103FE000984708BD2C7103408898FF1F08B5034B04
:103FF00001221A60024BDB68984708BD3C71034000
:104000008898FF1F064B01221A6003F588333C3362
:104010001A6822F400021A60024B00221A707047DC
:10402000007003408698FF1F8268002310B513605C
:10403000027B0121541102F01F0201FA02F2084929
:1040400041F82420074A41785354D15C31B90133F7
:10405000042BFAD1BDE81040FFF7D4BF10BD00BF5C
:1040600080E100E08298FF1F037810B504460BB191
:10407000FFF7DAFF0023237010BD08B50368C9B24B
:104080001B68984708BD08B50368C9B21B68984704
:1040900008BD08B50368C9B21B68984708BD08B5D4
:1040A0000368C9B21B68984708BD4B0803F1377015
:1040B00000F5D840B0FBF1F0FEF744BF10B54B0857
:1040C00003F1377000F5D8401446B0FBF1F0FEF76D
:1040D00039FF2046BDE81040FEF77ABFFEF7A2BFC9
:1040E0000846FEF7D3BF08B50846FEF7EBFF0030E1
:1040F00018BF012008BD08B50846FFF705F80030D5
:1041000018BF012008BDFFF7E9B8FFF721B9FFF795
:10411000F5B8FFF7C7B8FFF733B9FFF7CDB808B563
:104120000846FFF717F8012008BD08B50846FFF755
:1041300011F8012008BD10B5084614461146FFF7D6
:1041400053F8204610BD38B508460D4600F00CFD6A
:10415000044621462846FFF747F8204638BDFFFFB2
:10416000044B00221A714FF47A711A73024A996053
:104170001A6070479898FF1FB850000000F0F0B91F
:10418000F8B5164B164D1A6842F080721A60154B3E
:104190001A6842F001021A60134B2E681C688CB139
:1041A000237A6BB123682F681B68204698472A68DA
:1041B000E188D21B120993B28A42A38088BFE380B0
:1041C0006469ECE72968094B891B09098AB21A80DE
:1041D000074B1888814288BF1A80F8BDFCED00E0CB
:1041E000041000E0001000E0AC98FF1FB298FF1F21
:1041F000B098FF1F024B1A7802B91A70704700BFBF
:10420000B498FF1F08B50368C9B21B68984708BD7A
:1042100008B50368C9B21B68984708BD08B50368AC
:10422000C9B21B68984708BD08B50368C9B21B68C6
:10423000984708BD4B0803F1377000F5D840B0FB34
:10424000F1F0FFF705BA10B54B0803F1377000F530
:10425000D8401446B0FBF1F0FFF7FAF92046BDE86C
:104260001040FFF73BBAFFF763BA0846FFF78CBA76
:1042700008B50846FFF7A4FA003018BF012008BDB2
:1042800008B50846FFF7BAFA003018BF012008BD8C
:10429000FFF796BBFFF7BEBBFFF7A2BBFFF774BBF0
:1042A000FFF7D0BBFFF77ABB08B50846FFF7C4FAA3
:1042B000012008BD08B50846FFF7BEFA012008BD79
:1042C00010B5084614461146FFF700FB204610BD06
:1042D00038B508460D4600F047FC044621462846FE
:1042E000FFF7F4FA204638BD044B00221A714FF450
:1042F0007A711A73024A99601A607047B898FF1F62
:104300001051000008B50368C9B21B68984708BD82
:1043100008B50368C9B21B68984708BD08B50368AB
:10432000C9B21B68984708BD08B50368C9B21B68C5
:10433000984708BD4B0803F1377000F5D840B0FB33
:10434000F1F0FEF715B810B54B0803F1377000F522
:10435000D8401446B0FBF1F0FEF70AF82046BDE85D
:104360001040FEF747B8FEF76FB80846FEF798B85A
:1043700008B50846FEF7B0F8003018BF012008BDA8
:1043800008B50846FEF7C6F8003018BF012008BD82
:10439000FEF750B9FEF778B9FEF75CB9FEF72EB913
:1043A000FEF78AB9FEF734B908B50846FEF7D0F82B
:1043B000012008BD08B50846FEF7CAF8012008BD6F
:1043C00010B5084614461146FEF70CF9204610BDFC
:1043D00038B508460D4600F0C7FB0446214628467E
:1043E000FEF700F9204638BD044B00221A714FF445
:1043F0007A711A73024A99601A607047C898FF1F51
:1044000068510000094BDA68824210B50DD01A6875
:1044100012F4804F40F0804102D0D860196110BD85
:10442000034C1C60D86019611A6010BD00C00240C6
:1044300001401F00164B1A6842F480521A60154B57
:10444000154A1A60154ADA6002F180421A61144A6C
:104450001A60144B1B78DA0755BF134A134A4FF4FE
:1044600010714FF4007113F0020F11600CBF10496E
:1044700010495B074FF4007254BF0F4B0F4B0A609B
:1044800054BF4FF410724FF400721A60704700BFAF
:104490003C80044000C0024001401F000110003871
:1044A00000001F80A898FF1F18B0044008C00440F7
:1044B0001CB004400CC0044014B0044004C00440CC
:1044C000094B1A6842F480521A60084BDB6803F00B
:1044D000E0629B0105D520F4704300F4704043EA8C
:1044E00010101043FFF78EBF3C80044000C0024014
:1044F00003460846194600F001B800BF10B40C4648
:1045000013460146224602205DF8044B00F05CBBD6
:1045100070B50F4E0F4D761BB61007D0043D00242A
:10452000013455F8043F9847A642F9D10A4E0B4D85
:10453000761B00F08BFEB61008D0043D0024013439
:1045400055F8043F9847A642F9D170BD70BD00BF31
:1045500058520000585200007C520000585200008F
:10456000024B0146186800F003B800BF4091FF1FDE
:104570002DE9F04F01F10B05162D83B0064627D922
:1045800035F0070527D4A94225D8304600F0D6FAE1
:10459000B5F5FC7F26D2C14F4FEAD50C07EBCC0313
:1045A000DC689C4200F0D2816368E268A16823F075
:1045B0000303234430465D68CA6045F001059160FD
:1045C0005D6000F0BDFA0834204603B0BDE8F08F0E
:1045D0001025A942D9D900240C232046336003B00A
:1045E000BDE8F08F5FEA552C00F08A80BCF1040F23
:1045F00000F260814FEA951C0CF1380C4FEA4C0137
:10460000A64F07EB8101CC68A14205D10CE0002B3D
:104610007ADAE468A14207D0626822F00302531BF1
:104620000F2BF4DD0CF1FF3C0CF1010C9B4B3C69B2
:1046300003F1080E744500F07E81616821F00301EA
:104640004A1B0F2A00F36481002AC3F814E0C3F860
:1046500010E06ADAB1F5007F80F03A81C90803EB17
:10466000C1004FEAA1085A688168A1604FF00109B2
:1046700009FA08F848EA0202E0605A608460CC60F7
:104680004FEAAC030120984090425BD8024206D129
:104690002CF0030C400002420CF1040CFAD007EBA2
:1046A000CC084446E146E3689C4207D145E1002A34
:1046B00080F25681DB689C4200F03F81596821F00E
:1046C00003014A1B0F2AF2DD1C46D3F80CC054F834
:1046D000088F591945F0010942F00105C3F804900B
:1046E0003046C8F80CC0CCF8088079613961C1F84F
:1046F0000CE0C1F808E04D608A5000F021FA63E751
:104700007E214FF03F0C7BE72244E3685068A168AC
:1047100040F00105CB6030469960556000F010FA1A
:104720000834204603B0BDE8F08F214430464B6882
:1047300043F001034B6000F003FA0834204603B055
:10474000BDE8F08FBC68636823F00309A94504D372
:10475000C5EB09030F2B00F39180514B514A1968A7
:104760001368013305EB010A04EB090B00F06181CA
:104770000AF5805A0AF10F0A2AF47F6A2AF00F0A12
:1047800030465146019200F0DDF9B0F1FF3F80461E
:10479000019A00F00081834500F2FA80DFF810C131
:1047A000DCF80030C3455344CCF8003000F04A81B7
:1047B00012683C4901321BBFCBEB080B5B44C1F8CC
:1047C0000080CCF8003018F0070300F01381C3F12B
:1047D0000802C3F5805390440833C244CAF30B0A5D
:1047E000CAEB030A51463046CDF804C000F0AAF9DE
:1047F000431CDDF804C000F03581C8EB00025244D0
:1048000042F00102DCF80030C7F808805344BC4293
:10481000C8F80420CCF80030DFF894A015D0B9F126
:104820000F0F40F2EA806168A9F10C0222F0070242
:1048300001F0010EA118052042EA0E0E0F2AC4F85D
:1048400004E04860886000F21181174ABC68116872
:104850008B4288BF1360154A11688B4288BF136072
:10486000626822F003029542C5EB020301D80F2BC8
:1048700004DC304600F064F90024A5E6621943F038
:10488000010345F0010565603046BA60536000F0F1
:1048900057F90834204603B0BDE8F08F4491FF1F5C
:1048A000FC98FF1F5095FF1FF898FF1FF498FF1FFB
:1048B0000099FF1FBCF1140F61D9BCF1540F00F235
:1048C0008F804FEA153C0CF16E0C4FEA4C0197E6D5
:1048D0004B0A042B58D9142B00F2AE8003F15B0273
:1048E000500007EB8000DFF8BC818368834200F052
:1048F0008A805A6822F00302914202D29B68984251
:10490000F7D1D9687A68E160A3608C60DC60B7E6B3
:10491000611942F0010745F00105656030465961B3
:104920001961C1F80CE0C1F808E04F608A50083402
:1049300000F006F948E65A68A2E609F1010919F003
:10494000030F04F108047FF4AEAE2DE004F1080378
:104950006469A34208BF0CF1020C3FF467AE23E682
:1049600019441C464868DB6854F8082F40F00105DC
:104970004D603046D3609A6000F0E2F824E60CF116
:104980005B0C4FEA4C013BE68A0938325000A8E73D
:10499000BC423FF403AFBC68626822F0030262E7E6
:1049A000D8F8008098457BD11CF0030FA8F10803CC
:1049B0000CF1FF3CF4D17B6823EA00037B604000EC
:1049C00098423FF6BFAE00283FF4BCAE0342CC464F
:1049D0007FF465AE400003420CF1040CFAD05EE6B1
:1049E000BCF5AA7F1AD84FEAD53C0CF1770C4FEAF8
:1049F0004C0105E64FF48053EFE60123C8F804307C
:104A0000444600222FE791100120D8F8042000FA34
:104A100001F10A43C8F80420194674E740F25453E0
:104A20009C451BD84FEA954C0CF17C0C4FEA4C018D
:104A3000E6E50AF1100AA3E6542B1FD80A0B6E32E2
:104A400050004EE7CBF30B0100297FF4B1AE0AEB27
:104A50000901BA6841F001015160F6E6FC214FF00E
:104A60007E0CCDE501224FF0000ACBE604F10801EF
:104A7000304600F073F9DAF80030E6E6B3F5AA7FC5
:104A800003D8CA0B773250002BE740F254529342BE
:104A900003D88A0C7C32500023E7FC207E2220E7DA
:104AA0007B688CE74491FF1FF0B4840743D0541E09
:104AB000002A3ED0CDB2034603E0621E002C38D05F
:104AC000144603F8015B9A07F7D1032C2AD9CDB21B
:104AD00045EA05250F2C45EA054515D9A4F110072F
:104AE0003F0903F1100606EB07161A4615605560DC
:104AF0009560D5601032B242F8D104F00F0401374E
:104B0000032C03EB07130DD91E462246043A032A51
:104B100046F8045BFAD8221F22F003020432134441
:104B200004F003042CB1C9B21C4403F8011BA342D6
:104B3000FBD1F0BC704714460346C6E7704700BF80
:104B4000704700BF38B5074C002305460846236070
:104B5000FFF74AF9431C00D038BD2368002BFBD077
:104B60002B6038BD4C99FF1F20F0030110F00300AB
:104B7000C0F1000051F8043B00F1040C4FEACC0CEA
:104B80006FF000021CBF22FA0CF213434FF0010C2D
:104B90004CEA0C2C4CEA0C4CA3EB0C0222EA03026C
:104BA00012EACC1204BF51F8043B0430F4D013F0E5
:104BB000FF0F1FBF013013F47F4F013013F47F0F3D
:104BC00018BF0130704700BFF0B5274C2668D6F8F3
:104BD000484185B00746002C41D065681F2D1EDD79
:104BE000224818B94FF0FF3005B0F0BD4FF4C8703F
:104BF000039102920193FFF7B3FC0399029A019B80
:104C000004460028EED0D6F84851256000206060A8
:104C10000546C6F84841C4F88801C4F88C013FB97C
:104C2000AB1C00200135656044F8231005B0F0BDD1
:104C300004EB85004FF0010CC0F88820D4F888619F
:104C40000CFA05F21643022FC4F88861C0F8083147
:104C5000E6D1D4F88C311A43C4F88C21E0E706F58C
:104C6000A674C6F84841B8E7485200006145000004
:104C7000024B13B1024800F005B870470000000075
:104C8000914C00000146002002460346FFF79CBFFE
:104C900038B5094D094C641BA41018BF05EB8405F9
:104CA00005D0013C55F8043D9847002CF9D1BDE8EA
:104CB000384000F0E3BA00BF000000000000000030
:104CC000F8B5234D0F460446FFF738FFAB685E6822
:104CD00026F00306F11B01F6EF7121F47F6121F04C
:104CE0000F01A1F58057B7F5805F07DB2046002153
:104CF000FFF728FFAB683344984204D02046FFF703
:104D00001FFF0020F8BD20467942FFF71BFF01304E
:104D10000DD0104BAA681968F61B46F00106204614
:104D2000C91B56601960FFF70BFF0120F8BD204634
:104D30000021FFF707FFAB68C21A0F2ADEDD064D20
:104D400004492D6842F00102401B5A600860D5E713
:104D50004491FF1F0099FF1F5095FF1F2DE9F0415F
:104D60000D460646002955D0FFF7E8FE55F8041C0D
:104D7000DFF874C121F00103A5F10804E218DCF8A2
:104D800008005768904227F0030769D011F001012D
:104D9000576032D00021D0194068C00706D43B4488
:104DA000906800294ED0D268C260906043F0010242
:104DB0006260E350E1B9B3F5007F2DD35A0A042AAB
:104DC0006AD89809383041000CEB810C4649DCF870
:104DD0000820624566D0516821F003018B4202D25F
:104DE00092689445F7D1D368E360A2609C60D46078
:104DF0003046BDE8F041FFF7A3BE55F8085C641BE0
:104E00000CF10808A06840452B4443D0E568C56014
:104E1000A860C0E7BDE8F081DB080CEBC302012508
:104E2000DCF804009168A1609B1005FA03F31843B5
:104E3000E260CCF8040094603046CC60BDE8F041FC
:104E4000FFF77EBE294DA842ADD143F00102CCF858
:104E50001440CCF81040E060A0606260E350C7E707
:104E60001F44CB0707D455F8083CE41A1F44A26836
:104E7000E368D3609A601E4B1B6847F001029F42B3
:104E80006260CCF80840B3D31A4B30461968FFF77C
:104E900017FFADE701217EE7142A0CD802F15B0071
:104EA000410091E74B688010012505FA00F00343AB
:104EB0004B60134698E7542A03D8180B6E30410014
:104EC00082E7B2F5AA7F03D8D80B773041007BE7A1
:104ED00040F254518A4203D8980C7C30410073E769
:104EE000FC217E2070E700BF4491FF1F4C91FF1F03
:104EF0004C95FF1FFC98FF1F02FF00FFFFFF04FF00
:104F0000FFFFFFFFFFFF060006FF02FFFFFF04FF9A
:104F10004008FE4340A004404408FE4344A004402F
:104F20000018FE4300C004403000FE4330900440AF
:104F30003400FE43349004401C18FE431CC004405F
:104F40001018FE4310C004400818FE4308C0044077
:104F50000C18FE430CC004400C10FE430CB004407F
:104F60001010FE4310B004401810FE4318B0044067
:104F70001C10FE431CB004401410FE4314B0044047
:104F80000418FE4304C004400010FE4300B0044077
:104F90000008FE4300A004400408FE4304A00440AF
:104FA0000C08FE430CA004400808FE4308A004407F
:104FB0001418FE4314C004401818FE4318C00440DF
:104FC0000410FE4304B004400810FE4308B004403F
:104FD0001400FE43149004404C08FE434CA00440CF
:104FE0000420FE4304D004402410FE4324B00440B7
:104FF0002010FE4320B004402810FE4328B0044097
:105000002C10FE432CB004400020FE4300D004408E
:105010004808FE4348A004401000FE43109004409E
:105020001D15FFFF00010000D68BFF1F12000000BE
:1050300000020000188CFF1F290000000022000061
:10504000418CFF1F8F000000002100002A8CFF1FF1
:105050000900000000030000F08CFF1F00000000AA
:1050600001030904088CFF1F00000000020309046B
:10507000D08CFF1F0000000003030904F48CFF1F05
:105080000000000004030904E88BFF1F000000007B
:10509000000000000000000000000000FFFFFFFF14
:1050A0000000000000000000B53E0000000000000D
:1050B00000000000000000001F4100003741000018
:1050C000074100000F4100000B41000013410000A8
:1050D000AB400000BD400000DD400000E1400000AA
:1050E000E7400000F7400000174100001B410000AE
:1050F0007B40000087400000934000009F4000007C
:10510000474100002B4100000000000000000000AB
:10511000A9420000C14200009142000099420000F3
:10512000954200009D4200003542000047420000C9
:10513000674200006B4200007142000081420000A3
:10514000A1420000A54200000542000011420000FB
:105150001D42000029420000D1420000B54200007B
:105160000000000000000000A9430000C14300004F
:105170009143000099430000954300009D430000C7
:105180003543000047430000674300006B430000C5
:105190007143000081430000A1430000A5430000CB
:1051A00005430000114300001D4300002943000097
:1051B000D1430000B54300000200030004000500D5
:1051C000060008000A000C0010001400180020005F
:1051D00028003800400060008000C000000180010D
:1051E000000280020003FFFF000000800000018039
:1051F000000000000000028000000100011000001B
:105200000000020001100100032000000100020064
:1052100003200100043000000320020003200300EB
:105220000540000005400100065000000650010046
:1052300007600000076001000870000007600200BE
:105240000870010043000000188DFF1FF8B500BF73
:10525000F8BC08BC9E467047714C00003504000045
:10526000711E000001230000E13E0000013F00002C
:0C52700061410000E9420000E943000039
:04527C00F8B500BFC2
:1052800000000000FF005EBCE2613FDD83C29C7E47
:1052900020A3FD1F419DC3217FFCA2401E5F01E3AF
:1052A000BD3E6082DC237D9FC1421CFEA0E1BF5D4C
:1052B0000380DE3C62BEE0025CDF81633D7C22C095
:1052C0009E1D43A1FF4618FAA427799BC584DA38AE
:1052D00066E5BB5907DB856739BAE406581947A567
:1052E000FB7826C49A653BD987045AB8E6A7F91B10
:1052F00045C6987A24F8A6441A99C7257B3A64864D
:10530000D85B05E7B98CD2306EEDB3510F4E10F279
:10531000AC2F7193CD114FADF3702ECC92D38D6F16
:1053200031B2EC0E50AFF1134DCE90722C6D33D1E3
:105330008F0C52B0EE326C8ED0530DEFB1F0AE4CFC
:105340001291CF2D73CA947628ABF517490856B43D
:10535000EA6937D58B5709EBB536688AD495CB29DE
:1053600077F4AA4816E9B7550B88D6346A2B759797
:10537000C94A14F6A8742AC896154BA9F7B6E80AC4
:1053800054D7896B350604000205070103000000AD
:10539000050000000A041201000200000040B70EE0
:1053A0008E03070101020301200343006C00750016
:1053B0006200530070006F007200740020005700FC
:1053C0006800650065006C001003640061007200F5
:1053D0006B006E0061006F0009022900010100C02E
:1053E0003209040000020300000409211101000138
:1053F000228F000705810320000207050103080032
:105400001005010904A101050919012958150025F4
:1054100001750195588102050109300931093309E7
:1054200034150026FF00750895048102050109392D
:10543000150025073500463B01651475049501816B
:1054400042952175048101050A090115002501A174
:10545000020508094B750195019102C00902A102DC
:105460000508094B750195019102C00903A10205C8
:1054700008094B750195019102C00904A1020508B4
:10548000094B750195019102C0950D75049101C0FC
:10549000200343006C0075006200530070006F0031
:1054A00072007400200057006800650065006C0001
:1054B000040309040C0300000000000000000000C9
:1054C0000000000000000000000000005099FF1FD5
:1054D000FFFFFFFF00000000000000000490FF1F1E
:1054E0006C90FF1FD490FF1F000000000000000020
:1054F00000000000000000000000000000000000AC
:105500000000000000000000000000004452000005
:10551000000000000000000000000000000000008B
:10552000000000000000000000000000000000007B
:10553000000000000000000000000000000000006B
:10554000000000000000000000000000000000005B
:10555000000000000000000000000000000000004B
:10556000000000000000000000000000000000003B
:10557000000000000000000000000000000000002B
:1055800001000000000000000E33CDAB34126DE6C8
:10559000ECDE05000B000000000000000000000031
:1055A00000000000000000000000000000000000FB
:1055B00000000000000000000000000000000000EB
:1055C00000000000000000000000000000000000DB
:1055D00000000000000000000000000000000000CB
:10590000188DFF1F00000000000000004491FF1FE1
:105910004491FF1F4C91FF1F4C91FF1F5491FF1F9B
:105920005491FF1F5C91FF1F5C91FF1F6491FF1F4B
:105930006491FF1F6C91FF1F6C91FF1F7491FF1FFB
:105940007491FF1F7C91FF1F7C91FF1F8491FF1FAB
:105950008491FF1F8C91FF1F8C91FF1F9491FF1F5B
:105960009491FF1F9C91FF1F9C91FF1FA491FF1F0B
:10597000A491FF1FAC91FF1FAC91FF1FB491FF1FBB
:10598000B491FF1FBC91FF1FBC91FF1FC491FF1F6B
:10599000C491FF1FCC91FF1FCC91FF1FD491FF1F1B
:1059A000D491FF1FDC91FF1FDC91FF1FE491FF1FCB
:1059B000E491FF1FEC91FF1FEC91FF1FF491FF1F7B
:1059C000F491FF1FFC91FF1FFC91FF1F0492FF1F2A
:1059D0000492FF1F0C92FF1F0C92FF1F1492FF1FD7
:1059E0001492FF1F1C92FF1F1C92FF1F2492FF1F87
:1059F0002492FF1F2C92FF1F2C92FF1F3492FF1F37
:105A00003492FF1F3C92FF1F3C92FF1F4492FF1FE6
:105A10004492FF1F4C92FF1F4C92FF1F5492FF1F96
:105A20005492FF1F5C92FF1F5C92FF1F6492FF1F46
:105A30006492FF1F6C92FF1F6C92FF1F7492FF1FF6
:105A40007492FF1F7C92FF1F7C92FF1F8492FF1FA6
:105A50008492FF1F8C92FF1F8C92FF1F9492FF1F56
:105A60009492FF1F9C92FF1F9C92FF1FA492FF1F06
:105A7000A492FF1FAC92FF1FAC92FF1FB492FF1FB6
:105A8000B492FF1FBC92FF1FBC92FF1FC492FF1F66
:105A9000C492FF1FCC92FF1FCC92FF1FD492FF1F16
:105AA000D492FF1FDC92FF1FDC92FF1FE492FF1FC6
:105AB000E492FF1FEC92FF1FEC92FF1FF492FF1F76
:105AC000F492FF1FFC92FF1FFC92FF1F0493FF1F25
:105AD0000493FF1F0C93FF1F0C93FF1F1493FF1FD2
:105AE0001493FF1F1C93FF1F1C93FF1F2493FF1F82
:105AF0002493FF1F2C93FF1F2C93FF1F3493FF1F32
:105B00003493FF1F3C93FF1F3C93FF1F4493FF1FE1
:105B10004493FF1F4C93FF1F4C93FF1F5493FF1F91
:105B20005493FF1F5C93FF1F5C93FF1F6493FF1F41
:105B30006493FF1F6C93FF1F6C93FF1F7493FF1FF1
:105B40007493FF1F7C93FF1F7C93FF1F8493FF1FA1
:105B50008493FF1F8C93FF1F8C93FF1F9493FF1F51
:105B60009493FF1F9C93FF1F9C93FF1FA493FF1F01
:105B7000A493FF1FAC93FF1FAC93FF1FB493FF1FB1
:105B8000B493FF1FBC93FF1FBC93FF1FC493FF1F61
:105B9000C493FF1FCC93FF1FCC93FF1FD493FF1F11
:105BA000D493FF1FDC93FF1FDC93FF1FE493FF1FC1
:105BB000E493FF1FEC93FF1FEC93FF1FF493FF1F71
:105BC000F493FF1FFC93FF1FFC93FF1F0494FF1F20
:105BD0000494FF1F0C94FF1F0C94FF1F1494FF1FCD
:105BE0001494FF1F1C94FF1F1C94FF1F2494FF1F7D
:105BF0002494FF1F2C94FF1F2C94FF1F3494FF1F2D
:105C00003494FF1F3C94FF1F3C94FF1F4494FF1FDC
:105C10004494FF1F4C94FF1F4C94FF1F5494FF1F8C
:105C20005494FF1F5C94FF1F5C94FF1F6494FF1F3C
:105C30006494FF1F6C94FF1F6C94FF1F7494FF1FEC
:105C40007494FF1F7C94FF1F7C94FF1F8494FF1F9C
:105C50008494FF1F8C94FF1F8C94FF1F9494FF1F4C
:105C60009494FF1F9C94FF1F9C94FF1FA494FF1FFC
:105C7000A494FF1FAC94FF1FAC94FF1FB494FF1FAC
:105C8000B494FF1FBC94FF1FBC94FF1FC494FF1F5C
:105C9000C494FF1FCC94FF1FCC94FF1FD494FF1F0C
:105CA000D494FF1FDC94FF1FDC94FF1FE494FF1FBC
:105CB000E494FF1FEC94FF1FEC94FF1FF494FF1F6C
:105CC000F494FF1FFC94FF1FFC94FF1F0495FF1F1B
:105CD0000495FF1F0C95FF1F0C95FF1F1495FF1FC8
:105CE0001495FF1F1C95FF1F1C95FF1F2495FF1F78
:105CF0002495FF1F2C95FF1F2C95FF1F3495FF1F28
:105D00003495FF1F3C95FF1F3C95FF1F00000200CC
:045D1000FFFFFFFF93
:00000001FF
