:1000000000800020BD010000750D0000410D0000C2
:10001000410D0000410D0000410D0000410D0000A8
:10002000410D0000410D0000410D0000750D000064
:10003000750D0000410D0000750D0000310D000030
:10004000750D0000750D0000750D0000750D0000A8
:10005000750D0000750D0000750D0000750D000098
:10006000750D0000750D0000750D0000750D000088
:10007000750D0000750D0000750D0000750D000078
:10008000750D0000750D0000750D0000750D000068
:10009000750D0000750D0000750D0000750D000058
:1000A000750D0000750D0000750D0000750D000048
:1000B000750D0000750D0000750D0000750D000038
:1000C000750D0000750D0000750D0000750D000028
:1000D000750D0000750D0000750D0000750D000018
:1000E000750D0000750D0000750D0000750D000008
:1000F000750D00006D140000750D0000A5190000BD
:10010000750D0000E91D0000750D0000750D000063
:10011000750D0000750D0000750D0000750D0000D7
:10012000750D0000750D0000750D0000750D0000C7
:10013000750D0000750D0000750D0000750D0000B7
:10014000750D0000750D0000750D0000750D0000A7
:100150000D220000252200003D2200005522000053
:10016000750D0000750D0000750D0000750D000087
:10017000750D0000750D0000750D0000750D000077
:10018000750D0000750D0000750D0000750D000067
:10019000750D0000750D0000750D0000750D000057
:1001A000750D0000750D0000750D0000750D000047
:1001B000750D0000750D0000991E0000564B4CF2A5
:1001C000205210B51A804DF628121A8000BF00BFC9
:1001D00000F0D4FD514B4FF010621A60504A9A6003
:1001E000504ADA60A3F53043203B1A6812F480725B
:1001F00004D14D490A604FF4A8521A604B4B1A784B
:10020000110703D51A7842F008021A70484B2A22C7
:100210001A700023474A48499818884204D247492F
:10022000595899500433F5E7454A464B9A424FF0E6
:10023000000302D242F8043BF7E74349434A5958C6
:1002400099500433B3F5DE7FF7D1414B802103F899
:10025000011B40498B42F9D13F4B1A603F4B0A22A8
:100260001A70A3F5805324225A70A0221A709A792A
:100270009207FCD59A79D406FCD4394B9A7902F0CE
:100280000C02082AF9D103221A7140225A719A7974
:100290009006FCD5324B9A795106FBD5314A32494A
:1002A00011600221516020221A702D4B9B7903F0BE
:1002B0000C030C2BF9D12D4B2D4A1A602D4B45F612
:1002C000BF521A6000225A60072243F8042C2A4ABF
:1002D000C3F80C2D62B600F039FE134B1B68DA0729
:1002E00005D5264800F0A6FD254B264A1A60264B68
:1002F0001B785B0609D5224C224A2368934204D11D
:100300001E4800F097FD0023236003F02DF900F054
:100310003BFD00F0A9FCFEE70E20054030800440C4
:10032000823F04000100002B14D0034002D007409C
:1003300000E007400082FF1F588BFF1FE84C0000C1
:10034000588BFF1F048FFF1F000000000080FF1F5D
:1003500000E400E05FE400E008ED00E0005006404B
:100360000040064044800440000003330480044001
:10037000C010050014E000E000002020B150A1569C
:100380001CE00340A5C3945A00F00740FFFFFFFFA5
:10039000FFFFFFFFFFFFFFFFFFFFFFFFFFFFFFFF6D
:1003A000FFFFFFFFFFFFFFFFFFFFFFFFFFFFFFFF5D
:1003B000FFFFFFFFFFFFFFFFFFFFFFFFFFFFFFFF4D
:1003C000FFFFFFFFFFFFFFFFFFFFFFFFFFFFFFFF3D
:1003D000FFFFFFFFFFFFFFFFFFFFFFFFFFFFFFFF2D
:1003E000FFFFFFFFFFFFFFFFFFFFFFFFFFFFFFFF1D
:1003F000FFFFFFFFFFFFFFFFFFFFFFFFFFFFFFFF0D
:10040000FFFFFFFFFFFFFFFFFFFFFFFFFEFFFFFFFD
:1004100010B5054C237833B9044B13B10448AFF33E
:1004200000800123237010BD588BFF1F00000000C7
:10043000E84C000008B5064B1BB106480649AFF36F
:1004400000800648036813B1054B03B1984708BD07
:1004500000000000E84C00005C8BFF1F588BFF1F62
:10046000000000009378012B15D1D378022B07D11F
:10047000114B1179997051799279D9701A7116E0EE
:10048000032B14D10C4B5978042910D01179D97150
:1004900052791A720BE0082B09D1074B59780429BD
:1004A00005D0D178127942EA0122A3F80520034B46
:1004B0001A68034B1A607047A88BFF1FF48BFF1F4D
:1004C000A48BFF1F014B01221A707047A08BFF1FE6
:1004D000014B00221A707047A08BFF1F014B0022B6
:1004E0001A707047A08BFF1F014B01221A707047D2
:1004F000A08BFF1F2DE9F0418846044600F02EFF37
:100500000746122000F0C6FC0C4D064608B9A7426B
:100510000BDA01232B700A4B4FF403421A80094B6C
:100520001A6801321A603C4604E04046214600F059
:10053000ADFE2E702046BDE8F08100BF978BFF1FF7
:10054000988BFF1F0882FF1F38B500F067FB002162
:10055000122000F0ADFC40F2A11000F045FD00209B
:1005600000F088FD132000F0FFFD1B4B1B4A1A60B2
:100570001B4B1C4A1A601C4B1C4A1A601C4B1D4A20
:100580001A601D4B1D4A1A601D4B1E4A1A601E4BF5
:100590001E4D9F221A70A12121225A7099701C4B66
:1005A00000241C701B4B214628461C7003F0AAFB3C
:1005B000A5232B70184B19481C70194B1C70194B34
:1005C000197801F047FF00F08FFC174B1860174BAC
:1005D0001A68174B1A6038BD388EFF1FF5040000EB
:1005E000788EFF1F65040000648EFF1FC5040000A5
:1005F000088EFF1FD1040000608EFF1FE904000079
:10060000F88DFF1FDD040000748BFF1FA88BFF1FF8
:10061000C98BFF1F978BFF1F9A8BFF1F0C48000091
:10062000A08BFF1F0482FF1F9C8BFF1FF48BFF1FFB
:10063000A48BFF1F0138C0B2242810B54CD81F2846
:10064000264B0CD920380124DA7904FA00F009B1DC
:10065000104301E022EA0000D871DB7937E0172867
:100660000CD9012418389A7904FA00F009B1104322
:1006700001E022EA000098719B7928E00F280CD94C
:10068000012410385A7904FA00F009B1104301E04E
:1006900022EA000058715B7919E007280CD901247F
:1006A00008381A7904FA00F009B1104301E022EA8F
:1006B000000018711B790AE00124DA7804FA00F0CE
:1006C00009B1104301E022EA0000D870DB789342C0
:1006D00002D0034B01221A7010BD00BF748BFF1FA4
:1006E000C98BFF1F044B1A7AC0B28242187202D023
:1006F000024B01221A707047748BFF1FC98BFF1FBA
:10070000044B5A7AC0B28242587202D0024B012284
:100710001A707047748BFF1FC98BFF1F044B9A7AA6
:10072000C0B28242987202D0024B01221A70704706
:10073000748BFF1FC98BFF1F064BC0B25870064B4E
:1007400093F8202083F82000824202D0034B01223C
:100750001A707047A88BFF1F748BFF1FC98BFF1F78
:10076000012000F0DFBBFFFFAE4B1B7870B5002B04
:1007700000F04081AC4CAD482146212200F0F6F952
:100780002378A52B40F013816078FFF7D5FF94F90B
:100790000500C0F18000FFF7A5FF94F906007F3047
:1007A000FFF7AEFFA1780120C909FFF743FFA17849
:1007B0000220C1F38011FFF73DFFA1780320C1F3B0
:1007C0004011FFF737FFA1780420C1F30011FFF7B4
:1007D00031FFE1780520C909FFF72CFFE1780620F9
:1007E000C1F38011FFF726FFE1780720C1F3401124
:1007F000FFF720FFE1780820C1F30011FFF71AFF8F
:10080000E1780920C1F38001FFF714FFE1780A20A5
:10081000C1F34001FFF70EFF21790B20C1F3C001A6
:10082000FFF708FF21790C20C1F38001FFF702FFD9
:1008300021790D20C1F34001FFF7FCFE21790E2044
:10084000C1F34011FFF7F6FEE1780F20C1F3C001BC
:10085000FFF7F0FEE178102001F00101FFF7EAFE5A
:100860006378042B6FD1217A1320C1F3C001FFF705
:10087000E1FE217A1420C1F30011FFF7DBFE217A9B
:100880001520C1F34011FFF7D5FEA17A162001F023
:100890000101FFF7CFFEA17A1720C1F34001FFF756
:1008A000C9FEA17A1820C1F38001FFF7C3FEA17A27
:1008B0001920C1F3C001FFF7BDFEA17A1A20C1F3D0
:1008C0000011FFF7B7FEA17A1B20C1F34011FFF71B
:1008D000B1FEA17A1C20C1F38011FFF7ABFEA17A13
:1008E0001D20C909FFF7A6FEE17A1E2001F00101D3
:1008F000FFF7A0FEE17A1F20C1F34001FFF79AFE47
:10090000E17A2020C1F38001FFF794FEE17A2120F3
:10091000C1F3C001FFF78EFEE17A2220C1F300117E
:10092000FFF788FEE17A2320C1F34011FFF782FE32
:10093000E17A2420C1F38011FFF77CFEE17A2520C3
:10094000C909FFF777FE3A4B1A78511E312901D8B1
:10095000013202E0322A01D900221A701B78344E8B
:10096000CBB9E179334D297049B2B1F1FF33594226
:1009700059411120FFF75EFE95F900104A1E5142C1
:100980004FF012005141FFF755FE95F9003013B1B9
:10099000337801333370A37803F00F03013BDBB2EC
:1009A000072B96BF244AFF20D05CFFF7B7FE00F06C
:1009B0009BFA224B224D1A68224C801A224A126856
:1009C00090421E4605D82B788BB142F210739842A4
:1009D0000DD91E4B1E4A18781E4B23211B7801F09F
:1009E000A3FD00F081FA0023306023802B70238860
:1009F0000133238000F0D4FC83B2FF2B164B07D8C1
:100A00001A782AB9134BC0B2197801F07BFEF1E7CE
:100A10001B7813B1104B00221A70BDE87040FFF72D
:100A20009FBE00BFA08BFF1FCA8BFF1FA88BFF1F9D
:100A3000A28BFF1FA18BFF1F044800009C8BFF1F90
:100A4000C98BFF1F988BFF1F0882FF1F0C82FF1F9F
:100A5000748BFF1F0482FF1F9A8BFF1F002AF0B5C3
:100A60000CBF4FF064524FF0605200240F4E104FF5
:100A7000A65B104D97FBF6F6B14255F8145004D31F
:100A8000190706D542F0806203E002342E2CEDD126
:100A9000F6E75B0707D525F4704305F4704542F08F
:100AA000007243EA15152A430260F0BD1C4B00009A
:100AB00000366E014C4B000010B50446FFF7CEFF28
:100AC000204610BD10B5184B1A7802B372B61B78C9
:100AD000D90707D5154A1649146809682140154CED
:100AE000216011609A0707D5134A114914684968B3
:100AF0002140104C616011605B0707D50F4B0C4A19
:100B0000196892680A400B498A601A6062B60C4BF9
:100B1000DA68824207D00B4A1A60D8600A4A40F06D
:100B2000804018611A6010BDC88EFF1F80E100E090
:100B3000B08EFF1FBC8EFF1F84E100E088E100E063
:100B400000C0024001401F0000001F8010B50023BC
:100B5000FF22DCB2A14205D0C45C6240024C0133EA
:100B6000A25CF6E7104610BD0D82FF1FF8B5551EBA
:100B70000C46E9B217460646FFF7E8FF002186F863
:100B800020000A2000F066F91D4B1868FFF79AFF55
:100B90000023BB420DDA1B49F25C4FF00040C862F3
:100BA0004A63CA6A002AFCDA164A926BE25401339D
:100BB000EFE7154B1B788BB1D90703D5134A1168A2
:100BC000134A11609A0703D5104A5168114A1160FF
:100BD0005B0703D50D4B9A680F4B1A600A20012161
:100BE00000F038F923461A1BAA4207DA5A78197816
:100BF000D20942EA410203F8012BF4E7F8BD00BF35
:100C0000EC8BFF1F00C00240C88EFF1FBC8EFF1F71
:100C100000E100E004E100E008E100E007B50A209F
:100C2000012100F045F90A20012100F013F902F03A
:100C30002DFC06490122002301A8FFF73DFF019882
:100C400002F06AFC03B05DF804FB00BF00093D0040
:100C500008B50349034801220023FFF72DFF08BD13
:100C6000001BB700EC8BFF1F08B5FFF76DFCFFF70B
:100C70007BFD01F0C1FBFAE710B5204B204821496C
:100C800060221A70E1225A701F4B204A1C78204BB8
:100C9000082C01D1002402E00A2C03D1382404607E
:100CA000132005E00C2C0CBF34243C2404601220DB
:100CB000086014601860174B17491B78174A03B176
:100CC00001230B601360164B164A1978164B012945
:100CD00001D880210BE0042901D8842107E00829EC
:100CE00001D8852103E0102994BF86218721116056
:100CF00019600E4B01221A7010BD00BF0040074062
:100D000008B003400CB003400D83FF1F08B00B4038
:100D10000CB00B40F18BFF1F20B0034020B00B4004
:100D20000E83FF1F24B0034024B00B40F08BFF1F45
:100D3000024B1A6801321A60704700BFF48BFF1F24
:100D400008B50B4C2368580301D500F013F823684D
:100D5000590501D500F08AFB23681A0501D500F07A
:100D600021FE2368DB04ECD501F03EF8E9E700BF83
:100D70003480044008B5FFF7E3FFFFFF014B10226A
:100D80001A807047002005407047FFFF024A136831
:100D900018441060184670471083FF1FEFF3138349
:100DA0009BB9EFF3108098B9EFF3058323B10F2BB4
:100DB00004D9084A985C01E04FF48070EFF3118386
:100DC0003BB1834238BF184670474FF0FF30704741
:100DD00018467047F0E300E010B50023B0FBF2F4D2
:100DE00002FB1400092894BF30303730C0B2C85419
:100DF00020460CB10133F1E7CA18547022469A42DA
:100E000006DA885CCC5C8C54C8540132013BF6E7AE
:100E1000084610BD031E10B50C4603DBBDE81040AC
:100E2000FFF7DABF2D2001F8010B5842FFF7D4FF7E
:100E3000204610BD044B054900221A600A60044A8E
:100E4000106010221A60704714D0034004D0034091
:100E500000D00340212810B518D80D4A52F8303080
:100E600093F880423CB1012211B183F8802010BD7B
:100E700083F8002110BD02EBC00043681A6811B16D
:100E800042F0030201E022F002021A6010BD00BF2E
:100E900014480000212806D8044B53F8303093F84A
:100EA0000002C0B270470020704700BF1448000025
:100EB000212816D80B4A02EBC00301295B6852F8BF
:100EC000302004D182F880124FF4A27208E0002092
:100ED00082F8800211B94FF4807201E040F20312EF
:100EE0001A6070471448000072B60B4B0B491A6821
:100EF0000B4B1B68096862B6490102D5322A88BFCC
:100F00000133C2F5BB4218213F32B2FBF1F24FF47C
:100F10007A7000FB0320704718E000E004ED00E069
:100F2000F48BFF1F38B50446FFF7DEFF054664B1BA
:100F3000FFF7DAFF401BB0F57A7F03D3013C04D002
:100F400005F57A7501F058FAF2E738BD1F4B4FF4FA
:100F5000000210B51A604FF080721A604FF00072F4
:100F60001A604FF080621A604FF000621A60184BEE
:100F7000184A194C00204BF6FF711860596028235D
:100F800013609360136193611362936213639363BD
:100F90000822226004F58054043420606160A3605C
:100FA000236144F8042C04F5FE2420600B48016002
:100FB0000B490B608B600B4B1A60FFF75DFEFA204C
:100FC000FFF7B0FFBDE8104000F064BF08E100E0AB
:100FD000048003400C8003400080034008800B40E5
:100FE0000C800B4000800B40194B1A6842F4806261
:100FF0001A60184A00231370174A1370174A1370A7
:10100000174A1370174A1370174B40F213321A60C5
:101010004FF451725A60154BC0F344321A70C0F34A
:1010200047125A700221042200F01F0098729A7031
:10103000D9745A7588221A743C22DA700C4B4022FB
:101040006FF44A711A700B444FF400521A607047E3
:10105000348004407E8CFF1FFD8BFF1F848CFF1F9C
:101060007F8CFF1FFC8BFF1F40A0044000A00640A8
:101070002DE400E0134A937800F0030103F0EC0341
:101080000B43410748BF43F01003937000F00F0378
:10109000042B0C4903D18B7943F040038B715379B6
:1010A000C20603F0EF03074A48BF43F01003537131
:1010B0009379810603F0EF0348BF43F01003937167
:1010C000704700BF00A0064008B5114B1B685B05C8
:1010D00000D408BD0F4B1A7802F0FF0312B101F0E3
:1010E0008BF9F7E70C4A4FF4005111600B4A0C4999
:1010F000D37040F203120A604A600A4A13700A4A27
:1011000013700A4B1B680BB101221A7008BD00BF97
:1011100034800440FC8BFF1F84E100E000A0064007
:1011200040A004407E8CFF1FFD8BFF1FF88BFF1F2C
:1011300038B50446094B1B7803F0FF05002BF9D1A5
:1011400020460121FFF7B4FE20462946FFF782FE24
:10115000034B53F83420034B1A6038BDFC8BFF1F40
:1011600014480000808CFF1F0D4A38B5146814F431
:1011700080624FF0000410D021280A4D0AD80A4A94
:10118000012152F830302B60FFF792FE2B681C7063
:10119000012038BD2C60204638BD104638BD00BF48
:1011A00034800440F88BFF1F144800000E4B1B686E
:1011B00013F4806316D012280C4B03D140F2023195
:1011C0000B4A04E0142809D10A4A40F202311160A6
:1011D0005A7B42F001025A73012070475A7B02F099
:1011E000FE025A73002070473480044000A006407D
:1011F0000CA0044014C00440F8B51D4B1B685A05F0
:10120000064633D51B4B1B680BB101221A701A4BD3
:101210001C780134402C1F4628BF0024174D2B7822
:10122000A34218D1FFF7BAFD40280FDC144A137906
:101230001B06F3D52B7813490133402B28BF00231D
:10124000C95CDBB2C9B2D1712B70E7E7FF28E5DDDD
:1012500001F0D2F8E2E70B4BF6B21E550A4B012221
:101260001A70074BE4B2BC223C70DA70F8BD00BFC4
:1012700034800440808CFF1F848CFF1F7F8CFF1FF5
:1012800000A00640FE8BFF1FFC8BFF1F274B1B6837
:101290005A052DE9F04707468A4644D5244B1B687A
:1012A0000BB101221A703D4607EB0A039D4237D26B
:1012B000DFF890801F4E98F8004096F800900134B7
:1012C000402C28BF00245FFA89F9A1451DD11A4B93
:1012D000BC22DA70FFF762FD40280FDC164A137952
:1012E0001B060FD5337815490133402B28BF002347
:1012F000C95CDBB2C9B2D171337003E0FF2801DDF4
:1013000001F07AF833784B45E4D00C4B15F8012BFB
:101310001A550B4B0122E4B21A7088F80040C3E75B
:10132000054BBC22DA70BDE8F08700BF3480044072
:10133000808CFF1F7F8CFF1F00A00640FE8BFF1FCD
:10134000FC8BFF1F848CFF1F08B5034B1B7813B168
:1013500001F052F8F9E708BDFC8BFF1F064A074B66
:101360001B781078DBB2C0B283422CBF3F3000F153
:10137000FF30C01A704700BF7F8CFF1F848CFF1F97
:10138000054B1878054B1B78C0B2DBB2984238BFCA
:101390004030C01A704700BF7E8CFF1FFD8BFF1FBF
:1013A00010B5104B10491A780B78D2B2DBB29A42C2
:1013B00014D00133402B28BF00230C48DCB2C05CA2
:1013C0000C700B490968C0B251B19A4238BF403223
:1013D000D31A1A2B04DC00230B7010BD4FF0FF3022
:1013E00010BD00BF7E8CFF1FFD8BFF1F3E8CFF1FBB
:1013F000F88BFF1F084B1A78084B1B78DBB29A4218
:1014000007D00133402B28BF0023054AD05CC0B26F
:1014100070474FF0FF3070477E8CFF1FFD8BFF1F22
:101420003E8CFF1F0C4B1B685B0514D50B4BDA7809
:1014300002F0CB02DA7040225A74DA7842F03402B9
:10144000DA70074B1A78074BD2B21A70064B1B683A
:101450000BB100221A7070473480044000A006408F
:10146000FD8BFF1F7E8CFF1FF88BFF1F30B5374BA6
:101470001A7912F0300F31D072B69A7D02F0FF0067
:1014800022B9DA7940225A7462B627E062B6304A4D
:10149000304913780978DBB2C9B214462B4AD579A2
:1014A0005A1C402A28BF00228A42EDB202D02A4BA1
:1014B0009D541346421E12F0FF00EFD1DAB22270A3
:1014C000264A126852B18B4236BFC1F14001C1EBCE
:1014D00003035B18272BC4BF012313701B4BD97860
:1014E000C9B20C0620D51B7918061DD51C4B1D4A08
:1014F0001D781378EDB2DBB21046AB420CD0134A24
:101500000133402B1479184C28BF0023E45CE4B26B
:10151000D471127D072AF0D9DBB203700B4B1A7914
:10152000120644BF7C22DA704B060ED5074B1A799F
:1015300012F0400F194608D00C4B00221A700C4BC9
:101540001B6803B11A703C23CB7030BD00A006406D
:101550007E8CFF1FFD8BFF1F3E8CFF1FF88BFF1F34
:10156000848CFF1F7F8CFF1FFE8BFF1FFC8BFF1FD8
:10157000808CFF1F194B1A6842F400621A60184AE7
:1015800000231370174A1370174A1370174A137009
:10159000174A1370174B40F213321A604FF451720E
:1015A0005A60154BC0F344321A70C0F347125A7098
:1015B00000F01F000422022198729A70D9745A75A3
:1015C00088221A743C22DA700C4B40221A70A3F263
:1015D0002B334FF400421A60704700BF3480044040
:1015E000EF8CFF1F868CFF1FF88CFF1FF08CFF1FF6
:1015F000858CFF1F0CB0044000B006402FE400E0D3
:10160000134A937800F0030103F0EC030B43410706
:1016100048BF43F01003937000F00F03042B0C49F4
:1016200003D18B7943F040038B715379C20603F0E9
:10163000EF03074A48BF43F01003537193798106C3
:1016400003F0EF0348BF43F010039371704700BFEE
:1016500000B0064008B50E4B1B681B0500D408BD42
:101660000C4B1A7802F0FF0312B100F0C5FEF7E749
:10167000094A4FF400411160084A0949D37040F209
:1016800003120A604A60074A1370074A137008BDC4
:1016900034800440858CFF1F84E100E000B00640E8
:1016A0000CB00440EF8CFF1F868CFF1F38B504463A
:1016B000094B1B7803F0FF05002BF9D120460121CF
:1016C000FFF7F6FB20462946FFF7C4FB034B53F810
:1016D0003420034B1A6038BD858CFF1F144800006E
:1016E000F48CFF1F0B4B1B6813F4006310D01628FB
:1016F000094B09D1094A4FF4407111605A7B42F0FD
:1017000008025A73012070475A7B02F0F7025A739D
:10171000002070473480044000B0064004B004400C
:101720000B4B1B6813F4006310D01728094B09D129
:10173000094A4FF4407111605A7B42F001025A731A
:10174000012070475A7B02F0FE025A730020704756
:101750003480044000B0064008B00440F8B51D4B8A
:101760001B681A05064633D51B4B1B680BB10122BB
:101770001A701A4B1C780134282C1F4628BF0024ED
:10178000174D2B78A34218D1FFF708FB40280FDC38
:10179000144A13791B06F3D52B7813490133282BF0
:1017A00028BF0023C95CDBB2C9B2D1712B70E7E757
:1017B000FF28E5DD00F020FEE2E70B4BF6B21E55F8
:1017C0000A4B01221A70074BE4B2BC223C70DA705B
:1017D000F8BD00BF34800440F48CFF1FF88CFF1F5D
:1017E000F08CFF1F00B00640878CFF1F858CFF1F09
:1017F000274B1B681A052DE9F04707468A4644D552
:10180000244B1B680BB101221A703D4607EB0A03FB
:101810009D4237D2DFF890801F4E98F8004096F82E
:1018200000900134282C28BF00245FFA89F9A145D3
:101830001DD11A4BBC22DA70FFF7B0FA40280FDC3A
:10184000164A13791B060FD5337815490133282B17
:1018500028BF0023C95CDBB2C9B2D171337003E089
:10186000FF2801DD00F0C8FD33784B45E4D00C4B78
:1018700015F8012B1A550B4B0122E4B21A7088F8A7
:101880000040C3E7054BBC22DA70BDE8F08700BF1B
:1018900034800440F48CFF1FF08CFF1F00B0064022
:1018A000878CFF1F858CFF1FF88CFF1F08B5034B2B
:1018B0001B7813B100F0A0FDF9E708BD858CFF1F70
:1018C000064A074B1B781078DBB2C0B283422CBFAC
:1018D000273000F1FF30C01A704700BFF08CFF1FA7
:1018E000F88CFF1F054B1878054B1B78C0B2DBB294
:1018F000984238BF4030C01A704700BFEF8CFF1FBE
:10190000868CFF1F094B0A4A19781378DBB299427B
:1019100008D00133402B28BF00230649C85CDBB246
:10192000137070474FF0FF30704700BFEF8CFF1F00
:10193000868CFF1FAF8CFF1F084B1A78084B1B7853
:10194000DBB29A4207D00133402B28BF0023054A5F
:10195000D05CC0B270474FF0FF307047EF8CFF1F74
:10196000868CFF1FAF8CFF1F0A4B1B681B050FD512
:10197000094BDA7802F0CB02DA7040225A74DA7836
:1019800042F03402DA70054B1A78054BD2B21A7065
:10199000704700BF3480044000B00640868CFF1FB3
:1019A000EF8CFF1F30B5304B1A7912F0300F23D077
:1019B00072B69A7D02F0FF0122B9DA7940225A7498
:1019C00062B619E062B6294B29481A780478D2B277
:1019D000E4B21846244BDD79531C402B28BF00236A
:1019E000A342EDB202D0234AD5541A464B1E13F03F
:1019F000FF01EFD1D2B202701B4BD978C9B20C06ED
:101A000020D51B7918061DD51B4B1C4A1D78137851
:101A1000EDB2DBB21046AB420CD0134A0133282B97
:101A20001479174C28BF0023E45CE4B2D471127D12
:101A3000072AF0D9DBB203700B4B1A79120644BFA8
:101A40007C22DA704B060ED5074B1A7912F0400F44
:101A5000194608D00B4B00221A700B4B1B6803B1C0
:101A60001A703C23CB7030BD00B00640EF8CFF1FD6
:101A7000868CFF1FAF8CFF1FF88CFF1FF08CFF1FA1
:101A8000878CFF1F858CFF1FF48CFF1F174B1A6874
:101A900042F480521A60164A00231370154A1370DC
:101AA000154A1370154A1370154A1370154A40F2FF
:101AB000133111604FF451715160134AC0F3443136
:101AC0001170C0F3471100F01F00517090729370B5
:101AD00013742C23D3700D4B40226FF44B711A708A
:101AE0000B444FF400321A60704700BF348004404A
:101AF000638DFF1FFA8CFF1F6C8DFF1F648DFF1F0E
:101B0000F98CFF1F08C0044000C0064031E400E02B
:101B1000134A937800F0030103F0EC030B434107F1
:101B200048BF43F01003937000F00F03042B0C49DF
:101B300003D18B7943F040038B715379C20603F0D4
:101B4000EF03074A48BF43F01003537193798106AE
:101B500003F0EF0348BF43F010039371704700BFD9
:101B600000C0064008B50E4B1B68DB0400D408BD5E
:101B70000C4B1A7802F0FF0312B100F03DFCF7E7BE
:101B8000094A4FF400311160084A0949D37040F204
:101B900003120A604A60074A1370074A137008BDAF
:101BA00034800440F98CFF1F84E100E000C006404F
:101BB00008C00440638DFF1FFA8CFF1F38B5044630
:101BC000094B1B7803F0FF05002BF9D120460121BA
:101BD000FFF76EF920462946FFF73CF9034B53F80F
:101BE0003420034B1A6038BDF98CFF1F14480000E5
:101BF000688DFF1F0B4B1B6813F4805310D0022815
:101C0000094B09D1094A4FF4407111605A7B42F0E7
:101C100008025A73012070475A7B02F0F7025A7388
:101C2000002070473480044000C0064000C00440DB
:101C30000B4B1B6813F4805310D00E28094B09D1AD
:101C4000094A4FF4407111605A7B42F001025A7305
:101C5000012070475A7B02F0FE025A730020704741
:101C60003480044000C0064004C00440F8B51D4B59
:101C70001B68DA04064633D51B4B1B680BB10122E7
:101C80001A701A4B1C780134282C1F4628BF0024D8
:101C9000174D2B78A34218D1FFF780F840280FDCAE
:101CA000144A13791B06F3D52B7813490133282BDB
:101CB00028BF0023C95CDBB2C9B2D1712B70E7E742
:101CC000FF28E5DD00F098FBE2E70B4BF6B21E556E
:101CD0000A4B01221A70074BE4B2AC223C70DA7056
:101CE000F8BD00BF34800440688DFF1F6C8DFF1F5E
:101CF000648DFF1F00C00640FB8CFF1FF98CFF1F87
:101D000038B504464518AC4204D014F8010BFFF76F
:101D1000ADFFF8E738BDFFFF08B5034B1B7813B1E3
:101D200000F06AFBF9E708BDF98CFF1F064A074B74
:101D30001B781078DBB2C0B283422CBF273000F191
:101D4000FF30C01A704700BF648DFF1F6C8DFF1FEE
:101D5000054B1878054B1B78C0B2DBB2984238BFF0
:101D60004030C01A704700BF638DFF1FFA8CFF1F01
:101D7000094B0A4A19781378DBB2994208D001332B
:101D8000402B28BF00230649C85CDBB213707047A4
:101D90004FF0FF30704700BF638DFF1FFA8CFF1FAD
:101DA000238DFF1F084B1A78084B1B78DBB29A4231
:101DB00007D00133402B28BF0023054AD05CC0B2B6
:101DC00070474FF0FF307047638DFF1FFA8CFF1F85
:101DD000238DFF1F024B1A78024BD2B21A70704744
:101DE000FA8CFF1F638DFF1F10B5214B1A799206E5
:101DF0000FD5204AD87913781F490133402B097831
:101E000028BF00238B42C0B203D01C49C854DBB2A8
:101E10001370174AD178C9B20C0616D51379180673
:101E200013D5174B17481C780378DBB29C4202D1BC
:101E30006C23D37009E00133282B28BF0023124CF8
:101E4000E45CDBB2E4B2D47103704B060ED5084BF0
:101E50001A7912F0400F194608D00C4B00221A7064
:101E60000B4B1B6803B11A702C23CB7010BD00BF45
:101E700000C00640638DFF1FFA8CFF1F238DFF1FDC
:101E80006C8DFF1F648DFF1FFB8CFF1FF98CFF1FE4
:101E9000688DFF1F7047FFFFF8B5164B164D1A6887
:101EA00042F080721A60154B1A6842F001021A6003
:101EB000134B2E681C688CB1237A6BB123682F6892
:101EC0001B68204698472A68E188D21B120993B202
:101ED0008A42A38088BFE3806469ECE72968094BE4
:101EE000891B09098AB21A80074B1888814288BF6A
:101EF0001A80F8BDFCED00E0041000E0001000E0E6
:101F0000708DFF1F768DFF1F748DFF1F08B503684E
:101F1000C9B21B68984708BD08B50368C9B21B68F9
:101F2000984708BD08B50368C9B21B68984708BD43
:101F300008B50368C9B21B68984708BD4B0803F190
:101F4000377000F5D840B0FBF1F0FFF74DB810B591
:101F50004B0803F1377000F5D8401446B0FBF1F0A0
:101F6000FFF742F82046BDE81040FFF783B8FFF7BF
:101F7000ABB80846FFF7DCB808B50846FFF7F4F839
:101F8000003018BF012008BD08B50846FFF70EF95C
:101F9000003018BF012008BDFFF7F2B9FFF72ABAD9
:101FA000FFF7FEB9FFF7D0B9FFF73CBAFFF7D6B994
:101FB00008B50846FFF720F9012008BD08B5084616
:101FC000FFF71AF9012008BD10B50846144611465E
:101FD000FFF75CF9204610BD38B508460D4602F003
:101FE00059F9044621462846FFF750F9204638BDE6
:101FF000044B00221A714FF47A711A73024A9960E5
:102000001A6070477C8DFF1F3049000008B50368D7
:10201000C9B21B68984708BD08B50368C9B21B68F8
:10202000984708BD08B50368C9B21B68984708BD42
:1020300008B50368C9B21B68984708BD4B0803F18F
:10204000377000F5D840B0FBF1F0FFF793BA10B548
:102050004B0803F1377000F5D8401446B0FBF1F09F
:10206000FFF788FA2046BDE81040FFF7C9BAFFF72E
:10207000F1BA0846FFF71ABB08B50846FFF732FB6E
:10208000003018BF012008BD08B50846FFF748FB1F
:10209000003018BF012008BDFFF724BCFFF74CBC7F
:1020A000FFF730BCFFF702BCFFF75EBCFFF708BCD0
:1020B00008B50846FFF752FB012008BD08B50846E1
:1020C000FFF74CFB012008BD10B508461446114629
:1020D000FFF78EFB204610BD38B508460D4602F0CE
:1020E000D9F8044621462846FFF782FB204638BD32
:1020F000044B00221A714FF47A711A73024A9960E4
:102100001A6070478C8DFF1F8849000008B503686E
:10211000C9B21B68984708BD08B50368C9B21B68F7
:10212000984708BD08B50368C9B21B68984708BD41
:1021300008B50368C9B21B68984708BD4B0803F18E
:10214000377000F5D840B0FBF1F0FFF79FBC10B539
:102150004B0803F1377000F5D8401446B0FBF1F09E
:10216000FFF794FC2046BDE81040FFF7D1BCFFF715
:10217000F9BC0846FFF722BD08B50846FFF73AFD4F
:10218000003018BF012008BD08B50846FFF750FD14
:10219000003018BF012008BDFFF7DABDFFF702BE0F
:1021A000FFF7E6BDFFF7B8BDFFF714BEFFF7BEBDF2
:1021B00008B50846FFF75AFD012008BD08B50846D6
:1021C000FFF754FD012008BD10B50846144611461E
:1021D000FFF796FD204610BD38B508460D4602F0C3
:1021E00059F8044621462846FFF78AFD204638BDA7
:1021F000044B00221A714FF47A711A73024A9960E3
:102200001A6070479C8DFF1FE049000008B5034B22
:1022100001221A60024B1B68984708BD0C710340ED
:10222000B48DFF1F08B5034B01221A60024B5B6897
:10223000984708BD1C710340B48DFF1F08B5034BC0
:1022400001221A60024B9B68984708BD2C7103401D
:10225000B48DFF1F08B5034B01221A60024BDB68E7
:10226000984708BD3C710340B48DFF1F064B012207
:102270001A6003F588333C331A6822F400021A60AE
:10228000024B00221A70704700700340B08DFF1F90
:102290008268002310B51360027B0121541102F003
:1022A0001F0201FA02F2084941F82420074A417846
:1022B0005354D15C31B90133042BFAD1BDE810403D
:1022C000FFF7D4BF10BD00BF80E100E0AC8DFF1F61
:1022D000037810B504460BB1FFF7DAFF0023237033
:1022E00010BD70B506460D460024331928461979ED
:1022F0000A220023013400F015F8042C05D02B68C5
:1023000028461B682E219847EFE7204670BDFFFF47
:10231000024B034A1A6000225A607047C48DFF1FA7
:10232000384A000070B505468AB022B90368C9B2C0
:102330001B6898472CE0012A08BF0A2221B93022E5
:102340008DF82520212413E02124B1FBF2F002FBBB
:102350001011C9B209290AAE94BF30313731264471
:10236000C9B206F8241C014610B1013CE4B2ECE706
:1023700033B1013CE4B20AAB23442D2203F8242CF0
:102380002B6801A95B6828462144C4F122029847C2
:102390000AB070BD10B50446FFF79AFF204610BD85
:1023A00004480549054A002303708023437301F064
:1023B000CBB800BFCC8DFF1F952300000082FF1F0C
:1023C000002070474FF0FF3070474FF0FF307047EC
:1023D00070470120704710467047FFFF044B0022F2
:1023E0001A714FF47A711A73024A99601A60704731
:1023F000E08DFF1F484A0000024B1A7802B91A709C
:10240000704700BFF08DFF1F2DE9F84301F105086B
:1024100007464046089D0C4691461E4601F0CCF802
:10242000BF232860A6F80080477003702B68C4F3B0
:1024300001229A702B68DC702868224649460430D5
:1024400001F066FB2B681C44FF4327710020BDE8A8
:10245000F883FFFFF0B52B4D2B6885B004460F467F
:10246000002B49D0284B1B681BB1284A127802B9AF
:10247000984720462649052201F03CFF08B9254B24
:102480000AE0224B24491A7801321A7020460422AD
:1024900001F030FF18B9214B1A7801321A70204B25
:1024A0001E682EB1204601F0F5FE214680B2B047ED
:1024B000032F204615D101F0EDFE03AB81B200934E
:1024C0002246FF200DF10A03FFF79EFF0446A8B93C
:1024D0002B68BDF80A0003999847039801F074F837
:1024E0000CE001F0D7FE2B68214698472B680D4978
:1024F00002209847002002E0FF2000E0204605B0BF
:10250000F0BD00BF388EFF1F688EFF1F008EFF1FBB
:10251000604A0000508EFF1F664A00002C8EFF1F8D
:10252000948EFF1F6B4A00002DE9F043174D99462A
:102530002B6885B080460E46144603B3144B1F68C3
:1025400007B1B847B9F1030F13D103AB009322468B
:10255000404631460DF10A03FFF756FF044680B9A5
:102560002B68BDF80A0003999847039801F02CF8EE
:1025700007E02B68304621469847002002E0FF2004
:1025800000E0204605B0BDE8F08300BF388EFF1F95
:10259000888EFF1FF8B50428079C9DF8207027D966
:1025A0000D78BF2D24D108444D7810F8016C6FEAE6
:1025B000050C5FFA8CF086421CD115708A78921057
:1025C0001A708D78CB7805F0030543EA0525069B44
:1025D0000E1D1D8057B12DB2284600F0EDFF31468B
:1025E00020602A4601F094FA0020F8BD2660FBE73F
:1025F0000220F8BD0320F8BD2DE9F04100283CD0B1
:10260000002A39D006460025371A9F42B4462DDAF3
:1026100016F8014BA4F16108B8F1190F02D804F0C3
:10262000DF0401E03A2CEFD0A4F13008B8F1090F33
:102630000AD9A4F14108B8F1190F03D9C9B1C1F8F9
:1026400000C016E0073CE4B215F0010F4FEA550751
:1026500018BFBFB2A4F1300416BF12F807C024019E
:1026600044EA0C040135D455ADB2CDE7002BCFD0F0
:10267000E4E7F8B2BDE8F0811046BDE8F081FFFF65
:1026800007B500238DF80530044B8DF804001B6856
:1026900001A8984703B05DF804FB00BFF48DFF1F4D
:1026A00007B50A23021102F1300192FBF3F2C2EBEB
:1026B000C2020A4400F00F008DF8042000F130023D
:1026C00090FBF3F000238DF80630C0EBC000054B03
:1026D00010448DF805001B6801A8984703B05DF809
:1026E00004FB00BFF48DFF1F1FB50A2201A9FEF7EE
:1026F00091FB034B01A81B68984705B05DF804FBEC
:10270000F48DFF1F2DE9F04F99B0804A804B0646AB
:1027100010880C461988013088420AAF904616DBB3
:102720007C4D69B1103189B22868198001F038FBFD
:10273000794B186010B9012000F079BE286006E0DE
:102740004020188000F038FF28600028F3D0032CC8
:10275000724A06D1137823B9BF2E02D0002000F0B0
:1027600066BE6C4BB8F800001968684D00F1010CAA
:10277000A8F800C0032C0E544FF00101117008D1CD
:1027800028880428EAD91968CB7805339842E5D11E
:1027900011E00A2EE2D1624A298811801A685E4B44
:1027A0001A60604B00221A70012C5F4B0CBFFF2295
:1027B000FE221A7016E05A4BDFF86C81594E0093D6
:1027C0000024554B0193029442463346FFF7E2FE44
:1027D00040B1524B2C8088F8004034701C700220AD
:1027E00000F025BE514CDFF840812368002B3CD01F
:1027F0004F484B4E984798F80000FFF751FF236869
:102800004C4898473088FFF76FFF23684A4898473D
:102810000025B246BAF80030AEB2B34222D9DFF892
:10282000F890D9F80030985DA0F120035E2B02D813
:10283000FFF726FF14E00928236801D13F4802E092
:102840000A2802D13E4898470AE00D2801D13D48A8
:10285000F9E73D489847D9F80030985DFFF720FF29
:102860000135D7E723683948984798F80030FF2B9F
:1028700040F09E85364B284E1B681BB1284A3168B4
:1028800010889847346833492046032201F032FD0E
:10289000C8B9314B1A780AB1013A1A702F4A117827
:1028A00009B1013911701B782D4C23B92D4B1B68D0
:1028B0000BB1207898472C4B1B6803B19847002335
:1028C000237000F084BD20462849082201F012FD43
:1028D00090B9637C412B07D1254D2B68002B00F06C
:1028E000768504F11400A2E2224D2B68002B00F043
:1028F0006E8504F113009AE220461F49052201F07B
:10290000F9FC00283CD11D4D8CE200BF028EFF1F58
:10291000448EFF1F188EFF1F548EFF1F748EFF1FE3
:102920007C8EFF1F108EFF1F518EFF1FF48DFF1F27
:102930006E4A0000754A0000784A00007B4A000099
:102940007E4A0000814A0000844A00006B4A000071
:10295000288EFF1F874A0000008EFF1F2C8EFF1F4E
:102960008C8EFF1F308EFF1F348EFF1F8B4A00009E
:10297000588EFF1F248EFF1F944A0000708EFF1F89
:1029800020468A49042201F0B5FC8046002847D140
:10299000874E3368002B00F01A8507F1380504F1E3
:1029A000080045F8180D0A22294601F087FD3C6A07
:1029B000013420215FFA80F920463C6201F0F0FBEF
:1029C000386280F80080386A294601301022386267
:1029D00001F074FD774A3B6A126877491FFA80FA62
:1029E000581C121A11320988386292B2914210D9D9
:1029F000294607F128024346FFF7FEFD3B6A35688A
:102A000001333B6248462146524607F1280300F055
:102A100062BC3568484621465246434600F05BBCDE
:102A200020466649082201F065FC40BBDFF8AC8116
:102A3000D8F80030002B00F0CA8407F1380504F103
:102A4000080045F8100D1022294601F037FDC4B2E8
:102A5000E31D03F4FC73B86AE946ADEB030D0AAE5F
:102A6000630029460130324603F0FE03B862FFF7E7
:102A7000C3FDD8F8003020463146984752E0204642
:102A80004F49042201F036FC002855D123793F2B11
:102A900052D807F13805201D45F8100D0A222946A5
:102AA00001F00CFDBB6A5A1CBA625A784F2A5FFAD1
:102AB00080F83AD1434A11689246002900F0878491
:102AC00003F1080029461022B86201F0F7FCBB6A46
:102AD000C6B20133E946BB620EB9374B1E78F31D0F
:102AE00023F00703ADEB030D0DF1280B00240DE0DF
:102AF0000A2B11D0202B05D02946102201F0DEFC34
:102B00000BF80400BB6A0133BB620134B44203DA40
:102B1000B86A03780D2BEBD1DAF800304046E1B209
:102B20005A469847CD4600F052BC274B1B68002BF5
:102B300000F04D84404683E120462449042201F000
:102B4000D9FB804630B9224D2B68002B00F03F8422
:102B5000201D0DE020461F49072201F0CBFB8046D7
:102B600000283DD11C4D2B68002B00F03084E01D67
:102B700007F138010A2241F8100D01F09FFCBC6AF0
:102B80000134814620212046BC6201F009FB0A4B3A
:102B9000421CBA6231681B880B445FFA89F003F863
:102BA000028C2B68214600F040BC00BF9A4A00000E
:102BB000908EFF1F548EFF1F7C8EFF1F9F4A0000C8
:102BC000A84A0000788EFF1F088EFF1FAD4A000044
:102BD000048EFF1FB24A0000148EFF1F408EFF1F9D
:102BE00020469849062201F085FB0546002844D17D
:102BF000A379452B41D0DFF88092D9F80030002B23
:102C000000F0E583063420463A21BC6201F0C8FAA0
:102C1000B8620570B86A07F13806013046F8100D41
:102C20001022314601F04AFC8246B86A1022314631
:102C30000130B86201F042FCBE6A013683462021B1
:102C40003046BE6201F0ACFAB8620570BB6A03F1AF
:102C5000020840462221C7F8288001F0A1FAB86294
:102C60000570CDF80080D9F8005020461FFA8AF18F
:102C70001FFA8BF23346A847A9E32046724908227F
:102C800001F038FB054648B9DFF8F081D8F800308C
:102C9000002B00F09C8304F10C00FEE120466B4900
:102CA000082201F027FB8046002832D1684B1B88A0
:102CB0000C2B01D8674DB5E0674B1B68002B00F06B
:102CC000868307F1380504F1080045F8180D07F16F
:102CD000280229464346FFF78FFC386A102201304C
:102CE0002946386201F0EAFB0446386A0278202A55
:102CF00006D10A220130294601F0E0FBC2B200E011
:102D00004246564B07F128001B68214652B29847AD
:102D10005DE320465249092201F0ECFA054668BB02
:102D2000504E3368002B00F0528307F1380104F154
:102D3000100041F8180D07F128022B46FFF75CFC44
:102D4000434B386A1B880222273B93FBF2F307337D
:102D500023F00703E846ADEB030D0AAC0530294626
:102D600022462B463862FFF747FC3368C0F3470121
:102D7000224607F128009847C54628E320463A49ED
:102D8000092201F0B7FA804600283DD1374E33685A
:102D9000002B00F01C8307F1380504F1100045F802
:102DA000180D4346294607F12802FFF725FC386A2B
:102DB000294601301022386201F080FB3C6A631C16
:102DC0003B6261782229814616D1023420463C625A
:102DD00001F0E6F9386280F80080386A294601304F
:102DE0000A22386201F06AFB356843B2494607F1AE
:102DF00028002246A847EAE2346807F1280049463D
:102E000042464346A047E2E220461949052201F026
:102E100071FA0546002840F007810D4B1B88092BED
:102E20002ED8144D2B68002B00F0D182601D07F1C5
:102E300038010A2241F8100D01F040FB2B68C0B2A6
:102E40009847C4E2BA4A0000C14A0000CA4A0000DA
:102E50007C8EFF1FA88EFF1F608EFF1F208EFF1F1E
:102E6000D34A00004C8EFF1FDD4A0000A08EFF1FDA
:102E7000E74A0000988EFF1FAC8EFF1F0C8EFF1FCD
:102E80009E4B1B68002B00F0A282601D07F13804E6
:102E90000A2244F8180D214601F010FB3E6A0B3659
:102EA00020215FFA80FB30463E6201F079F93862FA
:102EB0000570386A214601300A22386201F0FEFAB4
:102EC0001FFA80FA386A214601300A22386201F07E
:102ED000F5FA386A214601300A22386201F0EEFA2A
:102EE000386A214601300A22386201F0E7FA814649
:102EF000386A214601301022386201F0DFFA80B2D0
:102F00007861386A214601301022386201F0D6FA21
:102F100080B23861386A2B460130214607F1280219
:102F20003862FFF769FB386A1022013021463862A7
:102F300001F0C4FA3B6A5A1C3A625A7880B24F2AAE
:102F4000F86004D10A333B624FF0010C06E0492AD5
:102F500003BF0A333B624FF0020CAC463B6A1A785F
:102F6000412A03D107333B62012511E0532A03D1E3
:102F700006333B6203250BE0482A03D105333B624D
:102F8000022505E0502A03BF05333B6204250025D6
:102F90003B6A1A784D2A03D107333B62012305E0CF
:102FA000532A05BF06333B62002302233A6A117895
:102FB000502904D106323A624FF0010807E0452952
:102FC00003BF0A323A624FF002084FF00008214670
:102FD000386A7B600A22C7F808C001F06FFA3A6AC3
:102FE000511C3962796900913969019107F1280111
:102FF0000291F9680391D7F808C0CDF810C0059583
:103000007B68069380B20890CDF81C805378B3F1AA
:103010004502534253410993384B58461C68314688
:1030200052464B46A047D2E120463549042201F0E2
:1030300061F9054600BBE3793A2B1DD1314E336867
:10304000002B00F0C48107F13801601D2B4607F109
:10305000280241F8180DFFF7CFFA3C6A02342046E7
:1030600022213C6201F09CF838620570336807F158
:10307000280021469847AAE120462349072201F06B
:1030800039F90546002845D1DFF88480D8F80030AA
:10309000002B00F09C8104F10B0007F13804102292
:1030A00044F8180D214601F009FA1FFA80F9386A30
:1030B0002146013007F128022B463862FFF79CFABF
:1030C000396A124B0131396232681B88511A033157
:1030D00089B2994209D21344484603F8025CD8F8F1
:1030E00000303A6A07F1280105E0D8F80030484678
:1030F00007F128012A46984769E100BF608EFF1F4B
:10310000ED4A00003C8EFF1FF24A00007C8EFF1F3C
:10311000808EFF1F20469149052201F0EBF8814681
:1031200040BBDFF88482D8F80030002B00F04F81DC
:1031300007F1380504F10B0045F8100D0A22294665
:1031400001F0BCF9BB6A04462946D81D1022B862BA
:1031500001F0B4F9BB6A32680133BB62804B1B8853
:10316000134481B203F8029CD8F80030BA6AE0B286
:1031700098472CE120467B49022201F0BBF808B9B0
:10318000794BD1E020467949042201F0B3F8034697
:10319000002845D1724A12881F2A19D8744D2A680E
:1031A000002A00F0148107F13801601D07F12802A0
:1031B00041F8180DFFF720FA3B6A5A1C3A62597819
:1031C0002B684F3907F1280018BF01219847FEE00E
:1031D000684E3268002A00F0FA8007F13805601D59
:1031E00045F81C0D07F120022946FFF705FAF8699A
:1031F000294601301022F86101F060F9FB690446AC
:103200002946581C07F128022023F861FFF7F4F93A
:10321000336807F12000E1B207F128029847D6E0B1
:1032200020465549052201F065F838B9534B1A7804
:1032300012B11870524B1870524B75E0204652492B
:10324000042201F057F80546002846D1DFF85C81DA
:10325000D8F80030002B00F0BA8007F13806601D66
:1032600046F8180D0A22314601F028F95FFA80F974
:10327000386A2B460130314607F128023862FFF7E1
:10328000BBF93B6A5C1C3C625B78532B20460DD13A
:10329000202100F085FF38620570D8F800604846AC
:1032A00007F128012A462346B04790E03146102214
:1032B00001F004F93C6A01340646202120463C62B4
:1032C00000F06EFF38620570D8F80050484607F1EC
:1032D0002801B2B22346A84779E020462B490422B0
:1032E00001F008F8B0B92A4B1A689946002A6ED046
:1032F0002379422B02D1E51D012684E0432B03D123
:1033000004F10C0502267EE0502B60D104F10C057F
:10331000032678E020461F49032200F0EBFF40B966
:103320001D4B01221A701D4B1B68002B4FD0984774
:103330004DE01B4B1B78002B49D01A4B1A68002A12
:1033400045D0074A11880C44002104F8021C10885B
:103350001B683168023880B2984738E0FA4A0000AA
:103360007C8EFF1F004B00005C8EFF1F034B000094
:10337000A48EFF1F9C8EFF1F084B0000508EFF1F66
:10338000008EFF1F488EFF1F0E4B0000134B0000E6
:103390006C8EFF1F184B00008C8EFF1FFC8DFF1FD3
:1033A0002C8EFF1F1C8EFF1FF88DFF1F648EFF1FCA
:1033B00021490B685BB1214A214B1488186800250C
:1033C00005550C681F49087811881A68A0471E4BDC
:1033D00000241C801B4B1C701C4B1C701C4B1C7055
:1033E0001C4B1A88402A7FF6B9A91B4D402128683A
:1033F000198000F0D5FC124B186000283FF49BA9FF
:103400002860FFF7ABB90D4B1B881C444FF0000838
:10341000202104F8028C284600F0C2FE024629460C
:1034200002F8018BD9F8003030469847CFE73C3797
:10343000BD46BDE8F08F00BF848EFF1F7C8EFF1F4E
:10344000548EFF1F518EFF1F028EFF1F108EFF1F15
:10345000748EFF1F448EFF1F188EFF1F094BDA6802
:10346000824210B50DD01A6812F4804F40F08041AE
:1034700002D0D860196110BD034C1C60D86019617E
:103480001A6010BD00C0024001401F00164B1A68B0
:1034900042F480521A60154B154A1A60154ADA60D8
:1034A00002F180421A61144A1A60144B1B78DA0741
:1034B00055BF134A134A4FF410714FF4007113F0C3
:1034C000020F11600CBF104910495B074FF40072E6
:1034D00054BF0F4B0F4B0A6054BF4FF410724FF4A0
:1034E00000721A60704700BF3C80044000C0024078
:1034F00001401F000110003800001F80788DFF1F61
:1035000018B0044008C004401CB004400CC0044083
:1035100014B0044004C00440094B1A6842F48052BD
:103520001A60084BDB6803F0E0629B0105D520F4CC
:10353000704300F4704043EA10101043FFF78EBF51
:103540003C80044000C0024003460846194600F093
:1035500001B800BF10B40C461346014622460220B3
:103560005DF8044B00F0B6BF70B50F4E0F4D761BE3
:10357000B61007D0043D0024013455F8043F9847A5
:10358000A642F9D10A4E0B4D761B01F093FBB61003
:1035900008D0043D0024013455F8043F9847A64262
:1035A000F9D170BD70BD00BFC04C0000C04C000020
:1035B000E44C0000C04C0000024B0146186800F0CB
:1035C0000BB800BF4087FF1F024B0146186801F08F
:1035D0004BB800BF4087FF1F2DE9F04F01F10B05ED
:1035E000162D83B0064627D935F0070527D4A94202
:1035F00025D8304600F0D0FBB5F5FC7F26D2C14F70
:103600004FEAD50C07EBCC03DC689C4200F0D2817A
:103610006368E268A16823F00303234430465D68D1
:10362000CA6045F0010591605D6000F0B7FB0834A9
:10363000204603B0BDE8F08F1025A942D9D9002457
:103640000C232046336003B0BDE8F08F5FEA552CB1
:1036500000F08A80BCF1040F00F260814FEA951CF3
:103660000CF1380C4FEA4C01A64F07EB8101CC68F6
:10367000A14205D10CE0002B7ADAE468A14207D020
:10368000626822F00302531B0F2BF4DD0CF1FF3CA8
:103690000CF1010C9B4B3C6903F1080E744500F0E2
:1036A0007E81616821F003014A1B0F2A00F36481C7
:1036B000002AC3F814E0C3F810E06ADAB1F5007F1D
:1036C00080F03A81C90803EBC1004FEAA1085A68AB
:1036D0008168A1604FF0010909FA08F848EA02027E
:1036E000E0605A608460CC604FEAAC0301209840EF
:1036F00090425BD8024206D12CF0030C40000242FB
:103700000CF1040CFAD007EBCC084446E146E36820
:103710009C4207D145E1002A80F25681DB689C4239
:1037200000F03F81596821F003014A1B0F2AF2DDA6
:103730001C46D3F80CC054F8088F591945F00109FC
:1037400042F00105C3F804903046C8F80CC0CCF82C
:10375000088079613961C1F80CE0C1F808E04D607A
:103760008A5000F01BFB63E77E214FF03F0C7BE7A4
:103770002244E3685068A16840F00105CB60304600
:103780009960556000F00AFB0834204603B0BDE89C
:10379000F08F214430464B6843F001034B6000F04A
:1037A000FDFA0834204603B0BDE8F08FBC686368BA
:1037B00023F00309A94504D3C5EB09030F2B00F33C
:1037C0009180514B514A19681368013305EB010A86
:1037D00004EB090B00F061810AF5805A0AF10F0A27
:1037E0002AF47F6A2AF00F0A30465146019200F00F
:1037F000C5FCB0F1FF3F8046019A00F0008183458F
:1038000000F2FA80DFF810C1DCF80030C345534401
:10381000CCF8003000F04A8112683C4901321BBFED
:10382000CBEB080B5B44C1F80080CCF8003018F0FB
:10383000070300F01381C3F10802C3F580539044DD
:103840000833C244CAF30B0ACAEB030A5146304696
:10385000CDF804C000F092FC431CDDF804C000F079
:103860003581C8EB0002524442F00102DCF800301E
:10387000C7F808805344BC42C8F80420CCF8003094
:10388000DFF894A015D0B9F10F0F40F2EA8061681B
:10389000A9F10C0222F0070201F0010EA118052087
:1038A00042EA0E0E0F2AC4F804E04860886000F275
:1038B0001181174ABC6811688B4288BF1360154A92
:1038C00011688B4288BF1360626822F00302954240
:1038D000C5EB020301D80F2B04DC304600F05EFA82
:1038E0000024A5E6621943F0010345F00105656077
:1038F0003046BA60536000F051FA0834204603B0F5
:10390000BDE8F08F4487FF1FD48EFF1F508BFF1F31
:10391000D08EFF1FCC8EFF1FD88EFF1FBCF1140F5F
:1039200061D9BCF1540F00F28F804FEA153C0CF1C5
:103930006E0C4FEA4C0197E64B0A042B58D9142B16
:1039400000F2AE8003F15B02500007EB8000DFF86D
:10395000BC818368834200F08A805A6822F00302A7
:10396000914202D29B689842F7D1D9687A68E160A7
:10397000A3608C60DC60B7E6611942F0010745F096
:1039800001056560304659611961C1F80CE0C1F864
:1039900008E04F608A50083400F000FA48E65A68A0
:1039A000A2E609F1010919F0030F04F108047FF4FC
:1039B000AEAE2DE004F108036469A34208BF0CF128
:1039C000020C3FF467AE23E619441C464868DB68E6
:1039D00054F8082F40F001054D603046D3609A60DE
:1039E00000F0DCF924E60CF15B0C4FEA4C013BE6FD
:1039F0008A0938325000A8E7BC423FF403AFBC68E4
:103A0000626822F0030262E7D8F8008098457BD113
:103A10001CF0030FA8F108030CF1FF3CF4D17B6804
:103A200023EA00037B60400098423FF6BFAE0028C7
:103A30003FF4BCAE0342CC467FF465AE4000034287
:103A40000CF1040CFAD05EE6BCF5AA7F1AD84FEA56
:103A5000D53C0CF1770C4FEA4C0105E64FF480534E
:103A6000EFE60123C8F80430444600222FE7911006
:103A70000120D8F8042000FA01F10A43C8F8042014
:103A8000194674E740F254539C451BD84FEA954CB5
:103A90000CF17C0C4FEA4C01E6E50AF1100AA3E6B2
:103AA000542B1FD80A0B6E3250004EE7CBF30B019C
:103AB00000297FF4B1AE0AEB0901BA6841F00101B7
:103AC0005160F6E6FC214FF07E0CCDE501224FF06F
:103AD000000ACBE604F10801304600F0C5FDDAF833
:103AE0000030E6E6B3F5AA7F03D8CA0B7732500060
:103AF0002BE740F25452934203D88A0C7C32500098
:103B000023E7FC207E2220E77B688CE74487FF1FA9
:103B1000844641EA000313F003036DD1403A41D3D8
:103B200051F8043B40F8043B51F8043B40F8043B97
:103B300051F8043B40F8043B51F8043B40F8043B87
:103B400051F8043B40F8043B51F8043B40F8043B77
:103B500051F8043B40F8043B51F8043B40F8043B67
:103B600051F8043B40F8043B51F8043B40F8043B57
:103B700051F8043B40F8043B51F8043B40F8043B47
:103B800051F8043B40F8043B51F8043B40F8043B37
:103B900051F8043B40F8043B51F8043B40F8043B27
:103BA000403ABDD2303211D351F8043B40F8043BC7
:103BB00051F8043B40F8043B51F8043B40F8043B07
:103BC00051F8043B40F8043B103AEDD20C3205D3D7
:103BD00051F8043B40F8043B043AF9D2043208D0CF
:103BE000D2071CBF11F8013B00F8013B01D30B8841
:103BF00003806046704700BF082A13D38B078DD01F
:103C000010F003038AD0C3F10403D21ADB071CBFF0
:103C100011F8013B00F8013B80D331F8023B20F85A
:103C2000023B7BE7043AD9D3013A11F8013B00F893
:103C3000013BF9D20B7803704B7843708B7883701B
:103C4000604670478842F0B410D98C18A0420DD25B
:103C50008518531E42B121462A4611F8014D02F83B
:103C6000014D013B5C1CF8D1F0BC70470F2A3FD9D5
:103C700040EA01039B073FD1A2F110073F0900EB87
:103C8000071610360C46034625681D6065685D60A2
:103C9000A5689D60E568DD601033B34204F110044F
:103CA000F2D17B1C02F00F0C1B01BCF1030F194475
:103CB000034423D90E461D466446043C56F8047B53
:103CC00045F8047B032CF8D8ACF1040424F0030479
:103CD000043402F0030223442144002AC4D01A44CD
:103CE00011F8014B03F8014B9342F9D1F0BC704736
:103CF0000346002AF3D1B7E70346F0E76246002AFD
:103D0000EDD1B1E7F0B4840743D0541E002A3ED071
:103D1000CDB2034603E0621E002C38D0144603F8EF
:103D2000015B9A07F7D1032C2AD9CDB245EA0525C4
:103D30000F2C45EA054515D9A4F110073F0903F1F9
:103D4000100606EB07161A46156055609560D5609B
:103D50001032B242F8D104F00F040137032C03EB08
:103D600007130DD91E462246043A032A46F8045B7F
:103D7000FAD8221F22F003020432134404F0030491
:103D80002CB1C9B21C4403F8011BA342FBD1F0BC07
:103D9000704714460346C6E7704700BF704700BF30
:103DA000024B0A460146186800F002B84087FF1F20
:103DB0002DE9F04F0C4683B090468146002900F073
:103DC000E280FFF7E9FF08F10B0654F8043C162ED9
:103DD00023F00305A4F108074BD810210E46B04587
:103DE0004CD88D4278DADFF890B3DBF808E0781928
:103DF000864500F0CE80426822F0010C8444DCF855
:103E000004C01CF0010F7AD000221046DB0700F13D
:103E1000928054F8083CC3EB070ADAF8043023F028
:103E200003032B4488B3704500F0ED8002EB030ED2
:103E30008E452ADBC36882685746D3609A6057F87C
:103E4000081FDAF80C30CB602A1F242A996000F290
:103E50002681132A40F2B3802368CAF808306368C9
:103E6000CAF80C301B2A00F2308108340AF1100322
:103E7000A6E026F00706002E3146B0DA0C2300201B
:103E8000C9F8003003B0BDE8F08F8B4253DB5746D2
:103E9000DAF80C1057F8080F2A1F242AC16088602E
:103EA00000F20981132A40F204812168CAF808103F
:103EB0006168CAF80C101B2A00F21C8108340AF150
:103EC00010022168116061685160A16891601D460F
:103ED000DAF804303C465746AA1B0F2A03F00103C8
:103EE00019D82B433D447B606B6843F001036B6042
:103EF0004846FFF753FF204603B0BDE8F08F22F09D
:103F0000030202EB050C8C4580DBC26881686546C4
:103F1000CA609160E0E7B91942F001001E430A440B
:103F20007E604860536843F001030831536048469F
:103F300000F09AFBDCE741464846FFF74DFB804620
:103F4000D0B154F8043C23F001023A44A0F1080136
:103F5000914200F09E802A1F242A50D8132A23D889
:103F600003462246116819605168596092689A6048
:103F70002146484600F078FB4846FFF70FFF4046D1
:103F800003B0BDE8F08F114603B0BDE8F04FFFF776
:103F900023BBDEF8042022F00302501906F1100CB6
:103FA000604519DA704631E723680360636843604F
:103FB0001B2A63D800F1080304F10802D2E73B464C
:103FC00022681A6062685A60A2689A603C46754628
:103FD000DAF8043057467FE73744831B43F0010388
:103FE000CBF808707B6054F8043C03F001031E43D7
:103FF000484644F8046CFFF7D1FE20467CE7214692
:10400000FFF720FEB4E702EB030C06F11002944523
:10401000FFF63BAF5746DAF80C3057F8081F2A1F57
:10402000242ACB60996000F28780132A78D923680C
:10403000CAF808306368CAF80C301B2A00F2858081
:1040400008340AF1100322681A6062685A60A26894
:104050009A600AEB0603C6EB0C0242F00102CBF8B1
:1040600008305A60DAF8043003F001031E43484672
:10407000CAF80460FFF792FE38463DE7A368836004
:10408000E368C360242A2CD000F1100304F110026D
:1040900068E750F8042C22F0030215441CE721467F
:1040A000384675463C46FFF7CDFD5746DAF80430F2
:1040B00012E73A4605E7214638461D463C46FFF7DB
:1040C000C1FD5746DAF8043006E7A368CAF8103095
:1040D000E368CAF81430242A18D010340AF11803FF
:1040E0006EE7236903616369436104F1180200F11B
:1040F000180337E7A168CAF81010E168CAF814106D
:10410000242A0FD010340AF11802DAE62369CAF81B
:1041100018306369CAF81C3018340AF120034FE7DD
:104120003B4690E72269CAF818206269CAF81C2049
:1041300018340AF12002C4E621463846CDF804C0FE
:10414000FFF780FDDDF804C083E7A368CAF81030EC
:10415000E368CAF81430242A03D010340AF1180393
:1041600071E72369CAF818306369CAF81C3018343B
:104170000AF1200367E700BF4487FF1F38B5074CEB
:104180000023054608462360FCF700FE431C00D0D0
:1041900038BD2368002BFBD02B6038BD008FFF1F7C
:1041A000C9B2F0B4002947D085070FD00278002AA1
:1041B0003FD091423ED0431C05E013F8012B002A6A
:1041C00037D0914236D09A071846F6D1036841EAB3
:1041D000012747EA074783EA0702A2F10135A3F165
:1041E000013425EA020224EA0303134313F0803F5B
:1041F00011D1021D104652F8043B83EA0704A4F1D2
:104200000136A3F1013526EA040425EA030323431A
:1042100013F0803FEED00378002B39D0994209D0BB
:10422000431C01E0914205D0184613F8012B002AE7
:10423000F8D11046F0BC704784070BD00378002BF0
:10424000F8D0431C03E002780133002AF2D099072A
:104250001846F8D10368A3F1013222EA030313F0F0
:10426000803F0AD1031D184653F8042BA2F10131F7
:1042700021EA020212F0803FF5D00378002BD9D05A
:10428000431C184601330278002AFAD1F0BC70476B
:104290001846CFE720F0030110F00300C0F1000042
:1042A00051F8043B00F1040C4FEACC0C6FF0000213
:1042B0001CBF22FA0CF213434FF0010C4CEA0C2CF9
:1042C0004CEA0C4CA3EB0C0222EA030212EACC12D9
:1042D00004BF51F8043B0430F4D013F0FF0F1FBFAC
:1042E000013013F47F4F013013F47F0F18BF0130FA
:1042F000704700BF30B4002A4AD040EA010313F0EF
:1043000003032DD1032A2BD904680D68AC4227D1B1
:10431000043A3DD0A4F1013525EA040414F0803FAD
:104320003CD10C4603460EE05B686468A3F101359E
:10433000A34225EA030513D1043A29D015F0803FA2
:1043400029D103460C46032A00F1040001F10401BF
:10435000EAD8551E2AB918792279801A30BC7047DC
:10436000551E03780A7893421AD1DDB1B3B16C1CA3
:104370000C448B1C014604E0A3420CD001330028FE
:10438000ECD011F8010F13F8012C9042F4D0E4E7BF
:10439000104630BC7047002030BC70471846DDE73F
:1043A0001846DAE72846D9E72DE9F00F424C82B0EB
:1043B000D4F800C001900E4600E02646344614F8BA
:1043C000015B0CEB0500407800F0080000F0FF0AEC
:1043D0000028F2D12D2D5BD02B2D04BF7578B41C95
:1043E00033F010003CD09946BAF1000F0CBF6FF0CB
:1043F000004B4FF0004BBBFBF9F8002709FB18BB43
:1044000038460CE0303DAB4219DD7E1C05D04045FE
:1044100023D820D009FB0050012714F8015B0CEBD6
:104420000506767816F0040FECD116F0030606D0D8
:10443000012E14BF57263726AD1BAB42E5DC7B1C93
:1044400015D0BAF1000F21D10AB1EFB9116002B055
:10445000BDE8F00F70475D45DCDD4FF0FF37DCE76E
:10446000302D1AD0002BBED10A239946BCE7019902
:10447000BAF1000F4FF022030CBF6FF000404FF075
:1044800000400B60002AE2D0611EDFE74042DBE71C
:10449000B41C75784FF0010AA2E7207800F0DF0025
:1044A000582803D0002B9ED108239CE71023657861
:1044B0009946023498E700BF548BFF1F30B4044C78
:1044C0000D46134601462A46206830BCFFF76CBFF4
:1044D0004087FF1FF0B5274C2668D6F8484185B0C5
:1044E0000746002C41D065681F2D1EDD224818B9F3
:1044F0004FF0FF3005B0F0BD4FF4C8700391029249
:104500000193FFF759F80399029A019B044600288A
:10451000EED0D6F848512560002060600546C6F808
:104520004841C4F88801C4F88C013FB9AB1C002095
:104530000135656044F8231005B0F0BD04EB85003B
:104540004FF0010CC0F88820D4F888610CFA05F20D
:104550001643022FC4F88861C0F80831E6D1D4F8B8
:104560008C311A43C4F88C21E0E706F5A674C6F82E
:104570004841B8E7AC4B0000B9350000024B13B11D
:10458000024800F005B87047000000009D4500009B
:104590000146002002460346FFF79CBF38B5094D8F
:1045A000094C641BA41018BF05EB840505D0013C21
:1045B00055F8043D9847002CF9D1BDE8384000F08B
:1045C00091BB00BF0000000000000000F8B5234DC3
:1045D0000F460446FFF7E0FBAB685E6826F0030673
:1045E000F11B01F6EF7121F47F6121F00F01A1F5BC
:1045F0008057B7F5805F07DB20460021FFF7BEFD3F
:10460000AB683344984204D02046FFF7C7FB002034
:10461000F8BD20467942FFF7B1FD01300DD0104BB7
:10462000AA681968F61B46F001062046C91B5660A9
:104630001960FFF7B3FB0120F8BD20460021FFF70A
:104640009DFDAB68C21A0F2ADEDD064D04492D68B8
:1046500042F00102401B5A600860D5E74487FF1F03
:10466000D88EFF1F508BFF1F2DE9F0410D460646E7
:10467000002955D0FFF790FB55F8041CDFF874C1F2
:1046800021F00103A5F10804E218DCF808005768DE
:10469000904227F0030769D011F00101576032D032
:1046A0000021D0194068C00706D43B449068002917
:1046B0004ED0D268C260906043F001026260E35065
:1046C000E1B9B3F5007F2DD35A0A042A6AD89809B4
:1046D000383041000CEB810C4649DCF8082062457B
:1046E00066D0516821F003018B4202D29268944552
:1046F000F7D1D368E360A2609C60D4603046BDE827
:10470000F041FFF74BBB55F8085C641B0CF108083F
:10471000A06840452B4443D0E568C560A860C0E769
:10472000BDE8F081DB080CEBC3020125DCF80400D6
:104730009168A1609B1005FA03F31843E260CCF87E
:10474000040094603046CC60BDE8F041FFF726BB22
:10475000294DA842ADD143F00102CCF81440CCF869
:104760001040E060A0606260E350C7E71F44CB07E1
:1047700007D455F8083CE41A1F44A268E368D360E4
:104780009A601E4B1B6847F001029F426260CCF8A2
:104790000840B3D31A4B30461968FFF717FFADE74F
:1047A00001217EE7142A0CD802F15B00410091E759
:1047B0004B688010012505FA00F003434B60134657
:1047C00098E7542A03D8180B6E30410082E7B2F5FF
:1047D000AA7F03D8D80B773041007BE740F25451D1
:1047E0008A4203D8980C7C30410073E7FC217E207C
:1047F00070E700BF4487FF1F4C87FF1F4C8BFF1FD4
:10480000D48EFF1F0006FF02FFFFFF044C495354E4
:1048100000FFFFFF4008FE4340A004404408FE4361
:1048200044A004400018FE4300C004403000FE4392
:10483000309004403400FE43349004401C18FE4382
:104840001CC004401018FE4310C004400818FE436A
:1048500008C004400C18FE430CC004400C10FE437A
:104860000CB004401010FE4310B004401810FE437A
:1048700018B004401C10FE431CB004401410FE434A
:1048800014B004400418FE4304C004400010FE436A
:1048900000B004400008FE4300A004400408FE43AA
:1048A00004A004400C08FE430CA004400808FE438A
:1048B00008A004401418FE4314C004401818FE4316
:1048C00018C004400410FE4304B004400810FE4326
:1048D00008B004401400FE43149004404C08FE430A
:1048E0004CA004400420FE4304D004402410FE43A6
:1048F00024B004402010FE4320B004402810FE43A2
:1049000028B004402C10FE432CB004400020FE438D
:1049100000D004404808FE4348A004401000FE4375
:1049200010900440FFFFFFFF0000000000000000A7
:10493000B11F0000C91F0000991F0000A11F000047
:104940009D1F0000A51F00003D1F00004F1F00001D
:104950006F1F0000731F0000791F0000891F0000F7
:10496000A91F0000AD1F00000D1F0000191F00004F
:10497000251F0000311F0000D91F0000BD1F0000CF
:104980000000000000000000B1200000C92000006D
:1049900099200000A12000009D200000A52000001B
:1049A0003D2000004F2000006F2000007320000019
:1049B0007920000089200000A9200000AD2000001F
:1049C0000D200000192000002520000031200000EB
:1049D000D9200000BD200000000000000000000001
:1049E000B1210000C921000099210000A12100008F
:1049F0009D210000A52100003D2100004F21000065
:104A00006F2100007321000079210000892100003E
:104A1000A9210000AD2100000D2100001921000096
:104A20002521000031210000D9210000BD21000016
:104A30000000000000000000E32200000000000071
:104A40000000000000000000D3230000D723000076
:104A5000C1230000C5230000CB230000D1230000A8
:104A6000524553455400494E464F000D0A003C3D07
:104A700020525820002C20003A09005C74005C6E23
:104A8000005C72005C78004F4B2E00413244502095
:104A90005354520043414C4C2000434F4E4E00486B
:104AA0004944204745542000484944200048465086
:104AB00020004846502D414720004944454E54208F
:104AC000004944454E5420455200494E51554952E3
:104AD000592000494E51554952595F4500494E51A0
:104AE000554952595F50004C49535420004E414D96
:104AF00045004E414D45204552004E4F2043410058
:104B00004F4B0050414952005245414459005249CF
:104B10004E4700534554200053594E0002000300F5
:104B200004000500060008000A000C001000140034
:104B30001800200028003800400060008000C000FD
:104B400000018001000280020003FFFF00000080DE
:104B50000000018000000000000002800000010051
:104B600001100000000002000110010003200000FD
:104B700001000200032001000430000003200200B5
:104B8000032003000540000005400100065000001E
:104B90000650010007600000076001000870000077
:104BA0000760020008700100430000001883FF1F27
:104BB00000202020202020202020282828282820ED
:104BC00020202020202020202020202020202020E5
:104BD000208810101010101010101010101010104D
:104BE000100404040404040404040410101010103D
:104BF0001010414141414141010101010101010107
:104C00000101010101010101010101011010101058
:104C100010104242424242420202020202020202D8
:104C2000020202020202020202020202101010102C
:104C30002000000000000000000000000000000054
:104C40000000000000000000000000000000000064
:104C50000000000000000000000000000000000054
:104C60000000000000000000000000000000000044
:104C70000000000000000000000000000000000034
:104C80000000000000000000000000000000000024
:104C90000000000000000000000000000000000014
:104CA0000000000000000000000000000000000004
:104CB00000000000F8B500BFF8BC08BC9E46704775
:104CC0007D45000035040000510C0000F11F00007C
:104CD000F1200000F121000011230000A1230000B9
:044CE000DD230000D0
:044CE400F8B500BF60
:104CE8000000000003000000F049020001005EBC63
:104CF800E2613FDD83C29C7E20A3FD1F419DC3214D
:104D08007FFCA2401E5F01E3BD3E6082DC237D9FE5
:104D1800C1421CFEA0E1BF5D0380DE3C62BEE00232
:104D28005CDF81633D7C22C09E1D43A1FF4618FACB
:104D3800A427799BC584DA3866E5BB5907DB856704
:104D480039BAE406581947A5FB7826C49A653BD9B1
:104D580087045AB8E6A7F91B45C6987A24F8A644EA
:104D68001A99C7257B3A6486D85B05E7B98CD23097
:104D78006EEDB3510F4E10F2AC2F7193CD114FADB4
:104D8800F3702ECC92D38D6F31B2EC0E50AFF1137D
:104D98004DCE90722C6D33D18F0C52B0EE326C8E9A
:104DA800D0530DEFB1F0AE4C1291CF2D73CA94765B
:104DB80028ABF517490856B4EA6937D58B5709EB7C
:104DC800B536688AD495CB2977F4AA4816E9B75539
:104DD8000B88D6346A2B7597C94A14F6A8742AC862
:104DE80096154BA9F7B6E80A54D7896B350A04001B
:104DF800048FFF1F00000000000000000486FF1F52
:104E08006C86FF1FD486FF1F000000000000000012
:104E1800000000000000000000000000000000008A
:104E2800000000000000000000000000A84B000087
:104E3800000000000000000000000000000000006A
:104E4800000000000000000000000000000000005A
:104E5800000000000000000000000000000000004A
:104E6800000000000000000000000000000000003A
:104E7800000000000000000000000000000000002A
:104E8800000000000000000000000000000000001A
:104E9800000000000000000000000000000000000A
:104EA80001000000000000000E33CDAB34126DE6A7
:104EB800ECDE05000B000000000000000000000010
:104EC80000000000000000000000000000000000DA
:104ED80000000000000000000000000000000000CA
:104EE80000000000000000000000000000000000BA
:104EF80000000000000000000000000000000000AA
:105228001883FF1F00000000000000004487FF1FD4
:105238004487FF1F4C87FF1F4C87FF1F5487FF1FA2
:105248005487FF1F5C87FF1F5C87FF1F6487FF1F52
:105258006487FF1F6C87FF1F6C87FF1F7487FF1F02
:105268007487FF1F7C87FF1F7C87FF1F8487FF1FB2
:105278008487FF1F8C87FF1F8C87FF1F9487FF1F62
:105288009487FF1F9C87FF1F9C87FF1FA487FF1F12
:10529800A487FF1FAC87FF1FAC87FF1FB487FF1FC2
:1052A800B487FF1FBC87FF1FBC87FF1FC487FF1F72
:1052B800C487FF1FCC87FF1FCC87FF1FD487FF1F22
:1052C800D487FF1FDC87FF1FDC87FF1FE487FF1FD2
:1052D800E487FF1FEC87FF1FEC87FF1FF487FF1F82
:1052E800F487FF1FFC87FF1FFC87FF1F0488FF1F31
:1052F8000488FF1F0C88FF1F0C88FF1F1488FF1FDE
:105308001488FF1F1C88FF1F1C88FF1F2488FF1F8D
:105318002488FF1F2C88FF1F2C88FF1F3488FF1F3D
:105328003488FF1F3C88FF1F3C88FF1F4488FF1FED
:105338004488FF1F4C88FF1F4C88FF1F5488FF1F9D
:105348005488FF1F5C88FF1F5C88FF1F6488FF1F4D
:105358006488FF1F6C88FF1F6C88FF1F7488FF1FFD
:105368007488FF1F7C88FF1F7C88FF1F8488FF1FAD
:105378008488FF1F8C88FF1F8C88FF1F9488FF1F5D
:105388009488FF1F9C88FF1F9C88FF1FA488FF1F0D
:10539800A488FF1FAC88FF1FAC88FF1FB488FF1FBD
:1053A800B488FF1FBC88FF1FBC88FF1FC488FF1F6D
:1053B800C488FF1FCC88FF1FCC88FF1FD488FF1F1D
:1053C800D488FF1FDC88FF1FDC88FF1FE488FF1FCD
:1053D800E488FF1FEC88FF1FEC88FF1FF488FF1F7D
:1053E800F488FF1FFC88FF1FFC88FF1F0489FF1F2C
:1053F8000489FF1F0C89FF1F0C89FF1F1489FF1FD9
:105408001489FF1F1C89FF1F1C89FF1F2489FF1F88
:105418002489FF1F2C89FF1F2C89FF1F3489FF1F38
:105428003489FF1F3C89FF1F3C89FF1F4489FF1FE8
:105438004489FF1F4C89FF1F4C89FF1F5489FF1F98
:105448005489FF1F5C89FF1F5C89FF1F6489FF1F48
:105458006489FF1F6C89FF1F6C89FF1F7489FF1FF8
:105468007489FF1F7C89FF1F7C89FF1F8489FF1FA8
:105478008489FF1F8C89FF1F8C89FF1F9489FF1F58
:105488009489FF1F9C89FF1F9C89FF1FA489FF1F08
:10549800A489FF1FAC89FF1FAC89FF1FB489FF1FB8
:1054A800B489FF1FBC89FF1FBC89FF1FC489FF1F68
:1054B800C489FF1FCC89FF1FCC89FF1FD489FF1F18
:1054C800D489FF1FDC89FF1FDC89FF1FE489FF1FC8
:1054D800E489FF1FEC89FF1FEC89FF1FF489FF1F78
:1054E800F489FF1FFC89FF1FFC89FF1F048AFF1F27
:1054F800048AFF1F0C8AFF1F0C8AFF1F148AFF1FD4
:10550800148AFF1F1C8AFF1F1C8AFF1F248AFF1F83
:10551800248AFF1F2C8AFF1F2C8AFF1F348AFF1F33
:10552800348AFF1F3C8AFF1F3C8AFF1F448AFF1FE3
:10553800448AFF1F4C8AFF1F4C8AFF1F548AFF1F93
:10554800548AFF1F5C8AFF1F5C8AFF1F648AFF1F43
:10555800648AFF1F6C8AFF1F6C8AFF1F748AFF1FF3
:10556800748AFF1F7C8AFF1F7C8AFF1F848AFF1FA3
:10557800848AFF1F8C8AFF1F8C8AFF1F948AFF1F53
:10558800948AFF1F9C8AFF1F9C8AFF1FA48AFF1F03
:10559800A48AFF1FAC8AFF1FAC8AFF1FB48AFF1FB3
:1055A800B48AFF1FBC8AFF1FBC8AFF1FC48AFF1F63
:1055B800C48AFF1FCC8AFF1FCC8AFF1FD48AFF1F13
:1055C800D48AFF1FDC8AFF1FDC8AFF1FE48AFF1FC3
:1055D800E48AFF1FEC8AFF1FEC8AFF1FF48AFF1F73
:1055E800F48AFF1FFC8AFF1FFC8AFF1F048BFF1F22
:1055F800048BFF1F0C8BFF1F0C8BFF1F148BFF1FCF
:10560800148BFF1F1C8BFF1F1C8BFF1F248BFF1F7E
:10561800248BFF1F2C8BFF1F2C8BFF1F348BFF1F2E
:10562800348BFF1F3C8BFF1F3C8BFF1F00000200C9
:08563800FFFFFFFFB04B000073
:00000001FF
