:1000000000800020BD010000E90F0000E90F0000A2
:10001000E90F0000E90F0000E90F0000B50F000034
:10002000B50F0000B50F0000B50F0000E90F00008C
:10003000E90F0000B50F0000E90F0000A50F000058
:10004000E90F0000E90F0000E90F0000E90F0000D0
:10005000E90F0000E90F0000E90F0000E90F0000C0
:10006000E90F0000E90F0000E90F0000E90F0000B0
:10007000E90F0000E90F0000E90F0000E90F0000A0
:10008000E90F0000E90F0000E90F0000E90F000090
:10009000E90F0000E90F0000E90F0000E90F000080
:1000A000E90F0000E90F0000E90F0000E90F000070
:1000B000E90F0000E90F0000E90F0000E90F000060
:1000C000E90F0000E90F0000E90F0000E90F000050
:1000D000E90F0000E90F0000E90F0000E90F000040
:1000E000E90F0000E90F0000E90F0000E90F000030
:1000F000E90F0000E90F0000E90F0000E90F000020
:10010000E90F0000E90F0000E90F0000E90F00000F
:10011000E90F0000E90F0000E90F0000E90F0000FF
:10012000E90F0000E90F0000E90F0000E90F0000EF
:10013000E90F0000E90F0000E90F0000E90F0000DF
:10014000E90F0000E90F0000E90F0000E90F0000CF
:10015000A1230000B9230000D1230000E9230000FF
:10016000E90F0000511C0000E90F0000E90F00003A
:10017000E90F0000E90F0000E90F0000E90F00009F
:10018000E90F0000E90F0000E90F0000E90F00008F
:10019000E90F0000E90F0000E90F0000E111000085
:1001A00031120000B912000075130000F9130000AD
:1001B000E90F0000E90F0000E90F000008B54B4B04
:1001C0004CF220521A804DF628121A8000BF00BF50
:1001D00000F00DFF464B4FF010621A60454A9A60DE
:1001E000454ADA60454B1A6812F4807204D14449DA
:1001F0000A604FF4A8521A60424B1A78110703D5CF
:100200001A7842F008021A703F4B2A221A70002313
:100210003E4A3F499818884204D23E49595899505D
:100220000433F5E73C4A3D4B9A424FF0000302D2BB
:1002300042F8043BF7E73A493A4A5958995004338F
:10024000B3F5DE7FF7D1384B802103F8011B374926
:100250008B42F9D1364B1A60364B0A221A70364B54
:1002600024221A70A02203F8012C344B1A7892072A
:10027000FBD51A78D006FCD41A7802F00C02082AB2
:10028000FAD12F4B03221A7040225A702B4B1A7846
:100290009106FBD51A785206FCD52A4B2A4A1A60D9
:1002A00002225A60294B20221A70244B1B7803F03B
:1002B0000C030C2BF9D1264A264B1A60264B45F627
:1002C000BF521A60072243F8042C62B601F020FBEB
:1002D0000B4B1B68DB0702D5204801F0ABF803F09D
:1002E00017F800F08BFE02F03FF9FEE70E20054004
:1002F00030800440823F04000100002B10D00340F6
:1003000014D0034002D0074000E00740C08AFF1F1E
:100310007C95FF1F887A00007C95FF1FF097FF1FD8
:10032000000000000082FF1F00E400E05FE400E046
:1003300008ED00E00050064001400640064006403F
:10034000044006404480044000000333004006405F
:10035000C01005000480044014E000E000DD685097
:10036000FFFFFFFFFFFFFFFFFFFFFFFFFFFFFFFF9D
:10037000FFFFFFFFFFFFFFFFFFFFFFFFFFFFFFFF8D
:10038000FFFFFFFFFFFFFFFFFFFFFFFFFFFFFFFF7D
:10039000FFFFFFFFFFFFFFFFFFFFFFFFFFFFFFFF6D
:1003A000FFFFFFFFFFFFFFFFFFFFFFFFFFFFFFFF5D
:1003B000FFFFFFFFFFFFFFFFFFFFFFFFFFFFFFFF4D
:1003C000FFFFFFFFFFFFFFFFFFFFFFFFFFFFFFFF3D
:1003D000FFFFFFFFFFFFFFFFFFFFFFFFFFFFFFFF2D
:1003E000FFFFFFFFFFFFFFFFFFFFFFFFFFFFFFFF1D
:1003F000FFFFFFFFFFFFFFFFFFFFFFFFFFFFFFFF0D
:10040000FFFFFFFFFFFFFFFFFFFFFFFFFEFFFFFFFD
:1004100008B549F27C50074BC1F6FF701B1A062B3A
:1004200000D808BD40F20003C0F20003002BF8D052
:100430009847F6E77F95FF1F08B549F27C5049F2CF
:100440007C53C1F6FF73C1F6FF701B1A9B1003EBC0
:10045000D373591000D108BD40F20002C0F200026F
:10046000002AF8D09047F6E710B549F27C54C1F65F
:10047000FF74237873B9FFF7CBFF40F20003C0F29B
:1004800000032BB147F68020C0F20000AFF30080DC
:100490000123237010BD00BF08B540F20003C0F275
:1004A00000034BB147F6802049F28051C0F20000B2
:1004B000C1F6FF71AFF3008049F27C50C1F6FF70C6
:1004C00003682BB140F20003C0F2000303B1984768
:1004D000BDE80840B0E700BF13B50A20012101F0D4
:1004E00077F80A20012101F045F802F063F80C4981
:1004F0000C4C0122002301A800F038FB019802F007
:10050000D7F9094B01221A7020460021212203F05D
:10051000E3FAA52323700323637002B010BD00BF6C
:1005200000093D009895FF1F9097FF1F7047FF231C
:1005300039B110F8012B5340034A0139D35CC9B2D9
:10054000F6E71846704700BFC08AFF1F2DE9F04745
:10055000D31D03F4FC73551E00AF8846ADEB030DAD
:10056000E9B282461446FFF7E2FF22468146514631
:10057000684603F0B5F90A2000210DF8059000F057
:10058000F9FF1A4B586A00F0F7FA6E460023A342AF
:100590000FDA174AF05C4FF000411160154908600E
:1005A00011680029FCDA144A126808F803200133A4
:1005B000EDE7124B1B788BB1DD0703D5104A1168AC
:1005C000104A11609C0703D50D4A51680E4A11600C
:1005D000580703D50A4B9A680C4B1A600A20012170
:1005E00000F0C8FFBD46BDE8F08700BF9895FF1F2B
:1005F0002CC0024034C0024038C002407097FF1F38
:100600008097FF1F00E100E004E100E008E100E066
:100610009B48F8B500F128012122FFF797FF994B7D
:10062000994AD3F80011002301398B4208DA9078F7
:100630005478C00940EA4400013302F8010FF4E79E
:100640008F4C631804F14A00002183F8281001F050
:100650002BFE00281ADD94F84C30012B0ED194F8B3
:100660004D30022B40F0018194F84E30A37094F885
:100670004F30E37094F85030237107E0082B05D118
:1006800094F84E30637194F84D30A37194F828308B
:10069000A52B40F0E6807A4B7C4F93F829307C4EB6
:1006A0007B7733780BB901F0C5FD94F92D30C3F198
:1006B0008003FB7033780BB901F0BCFD94F92E3048
:1006C0007F333B7133780BB901F0B4FD94F82A20E5
:1006D00070486B4D0121D20900F0E2F994F82A200C
:1006E0006C480221C2F3801200F0DAF994F82A2053
:1006F00068480321C2F3401200F0D2F994F82A208E
:1007000064480421C2F3001200F0CAF994F82B20C7
:1007100060480521D20900F0C3F994F82B205D4808
:100720000621C2F3801200F0BBF994F82B2059483F
:100730000721C2F3401200F0B3F994F82B2055487A
:100740000821C2F3001200F0ABF994F82B205148B5
:100750000921C2F3800200F0A3F994F82B204D4840
:100760000A21C2F3400200F09BF994F82C2049487A
:100770000B21C2F3C00200F093F994F82C204548F5
:100780000C21C2F3800200F08BF994F82C20414830
:100790000D21C2F3400200F083F994F82C203D486B
:1007A0000E21C2F3401200F07BF994F82B20394857
:1007B0000F21C2F3C00200F073F994F82B203548E2
:1007C00002F00102102100F06BF994F854305A1E27
:1007D000D2B2132A23D995F82F202E4885F8552018
:1007E000B2F1FF0EDEF100024FF0000352EB0E02F9
:1007F000112185F8543000F053F995F8552025481B
:10080000B2F1010CDCF100024FF0120152EB0C02CC
:1008100000F046F995F8553023B195F8543001337E
:1008200085F8543094F82A3003F00F03082B11D8C0
:10083000DFE803F0050709100B1010100D00FF236F
:1008400006E0002304E0062302E0022300E0042384
:10085000A4F85630B4F856307B7133780BB901F0F8
:10086000E9FCBDE8F84001F0E5BC032B7FF40EAFD6
:1008700094F84E30E37194F84F30237206E700BFCE
:100880009895FF1FC08AFF1FBF95FF1FCC97FF1FC2
:100890009097FF1F9197FF1F2DE9F047D31D561E1C
:1008A00003F4FC7300AF0C46ADEB030DF1B28246CE
:1008B0009046FFF73CFE514681464246684603F0AB
:1008C0000FF8734A734B74490DF806901A6091F84B
:1008D00000C09DF800206D464FEA0C40BCF1000FAF
:1008E00017D042F0004210435863DA6A02F47042B3
:1008F000B2F5405FF9D891F800C06A78654B4FEACD
:100900000C40BCF1000F29D042F000421043586364
:1009100010E0DFF888C1DCF800C08CF800004FF070
:100920008050D8625A63DA6A02F47042B2F5405FCE
:10093000F9D8E0E7DA6A02F47042B2F5405FF9D81C
:1009400091F800C0AA78534B4FEA0C40BCF1000F5D
:100950001CD042F000421043586310E0DFF83CC165
:10096000DCF800C08CF800004FF08050D8625A6369
:10097000DA6A02F47042B2F5405FF9D8E0E7DA6A69
:1009800002F47042B2F5405FF9D80FE0DFF80CC115
:10099000DCF800C08CF800004FF08050D8625A6339
:1009A000DA6A02F47042B2F5405FF9D8394BDA6A7C
:1009B00012F0F00FFAD09B6B0323B342E85C2FDAFE
:1009C00091F80080334A4FEA084CB8F1000F0BD081
:1009D0004CF0004C4CEA00005063D06A00F47040C8
:1009E000B0F5405FF9D810E0DFF8B080D8F80080AB
:1009F00088F800C04FF0805CC2F82CC05063D06A09
:100A000000F47040B0F5405FF9D8224AD06A10F087
:100A1000F00FFAD0906BE218013302F8030CCCE728
:100A200009781C4A0D0441B128435063D16A01F48E
:100A30007041B1F5405FF9D80FE018490E6840F0F9
:100A4000006035704FF08055D5625063114AD26A0C
:100A5000D200FBD50A6801211170591CE0180D4A1B
:100A6000D56A15F0F00FFAD0956B02330570D06A95
:100A700010F0F00FFBD0074A926B6254054AD16A1E
:100A800011F0F00FFAD0926BE254BD46BDE8F0874A
:100A9000000C1F8000C002405497FF1F5097FF1F9B
:100AA0000139C9B211292ED80F29174B0CD9103989
:100AB000012000FA01F112B19A78114302E09A780C
:100AC00022EA0101997019E007294FF001000BD9C2
:100AD000083900FA01F112B15A78114302E05A784C
:100AE00022EA0101597009E000FA01F112B11A7805
:100AF000114302E01A7822EA01011970034B1B78B6
:100B00000BB901F097BB7047CC97FF1F9097FF1F61
:100B1000F0B5002A0CBF4FF064524FF06052002431
:100B20000F4E104FA65B104D97FBF6F6B14255F8ED
:100B3000145004D3190706D542F0806203E0023452
:100B40002E2CEDD1F6E75B0707D525F4704305F4AD
:100B5000704542F0007243EA15152A430260F0BD69
:100B6000AC78000000366E015078000010B50446E5
:100B7000FFF7CEFF204610BD10B5174B1B78EBB129
:100B8000D90707D5154A1649146809682140154C3C
:100B9000216011609A0707D5134A11491468496802
:100BA0002140104C616011605C0707D50F4B0C4A67
:100BB000196892680A400B498A601A600C4A1368E7
:100BC000834208D00B4B0C491960106040F0804004
:100BD00050600A4A1A6010BD7097FF1F80E100E064
:100BE0007497FF1F8097FF1F84E100E088E100E019
:100BF0000CC0024000C0024001401F0000001F80E6
:100C000008B50349034801220023FFF7AFFF08BDE1
:100C100000366E01BC95FF1F70B5304B1B681A067D
:100C2000FBD42F4B1B681B06F7D472B62D4B1A78DA
:100C3000002A51D02C4A116856689568D46810690A
:100C40003144143229441268214401441144C1F34F
:100C50004E01264A41F400411160D16A166B556B72
:100C6000946BD06B314440322944126821440144D2
:100C70001144C1F34E011E4A41F40041116002F1DA
:100C80000812143252F8141C52F8106C52F80C5C12
:100C900052F8084C52F8040C12683144294421449B
:100CA00001441144C1F34E01124A41F40041116064
:100CB000D16A166B556B946BD06B3144403229442A
:100CC0001268214401441144C1F34E010A4A41F41F
:100CD0000041116000221A7062B670BD24B003405A
:100CE00024B00B40F095FF1F38B003402CB00340F8
:100CF00030B003402CB00B4030B00B4010B5214B4E
:100D0000214C60221A70E1225A7021781F4A204B30
:100D1000082901D1002102E00A2907D138211160F8
:100D200013221A601B4B19605A600AE00C290CBF91
:100D300034203C20106012221A601649164B0860BD
:100D40001A60164A164953781046164A03B1012311
:100D50000B6013606178144A144B012901D880217B
:100D60000BE0042901D8842107E0082901D8852156
:100D700003E0102994BF86218721116019600123A7
:100D8000037010BD00400740C48BFF1F08B0034034
:100D90000CB0034008B00B400CB00B40F095FF1FA7
:100DA00020B0034020B00B4024B0034024B00B40DF
:100DB0000D4B5A7858B1AAB9012159701B7823B14B
:100DC0000A4B1A6003F500231A60FFF797BF4AB178
:100DD00058701B78002BF8D0044B186003F50023E3
:100DE0001860F2E7704700BFF095FF1F24B0034082
:100DF0000C2810B504D9102828BF1020102307E0B4
:100E00000A2804D8082894BF08230A2300E00C23EA
:100E1000DCB2094A0949201A90700878834209D047
:100E200013780C7013B1064B00221A60BDE8104015
:100E3000FFF764BF10BD00BFF095FF1FC48BFF1FFD
:100E400024B0034010B5114B1B7804460BB1FFF7DB
:100E5000E3FE012C0E4A01D8002302E0042C02D844
:100E6000042313600EE0082C03D805231360082325
:100E700008E0102C03D806231360102302E0072398
:100E800013602023034A537010BD00BFF095FF1F6D
:100E900024B00340C48BFF1F0D2838B511D9172883
:100EA00001D80E380CE0A0F11A03DBB2052B01D8F3
:100EB000093805E0A0F12203DBB2062B48D8183828
:100EC000C0B2244B244C1D5C23780BB1FFF7A4FE69
:100ED0002B0616D472B6214B1D600123E37062B657
:100EE00072B61E4B1B68180604D51D4B18680023EC
:100EF000E37021E0E378002BEDD062B601F094FDC1
:100F0000EEE772B6174B1A6815F0400F14BF22F0C7
:100F1000100242F010021A60134B05F03F021A60F3
:100F20000123237162B672B60F4B1B68190608D5F0
:100F30000E4B18680023237162B6074B9B7818414B
:100F400038BD2379002BDDD062B601F06DFDEAE7F4
:100F5000002038BDA4760000F095FF1F00B00340CC
:100F600010B003400CB00B4000B00B4010B00B4071
:100F7000084B1A6842F480521A60074B5A78074BA4
:100F80000AB1802200E0C0221A70054B80F30C00E9
:100F9000188070472C800440F095FF1F21C00C4042
:100FA00000C00C40024B1A6801321A60704700BF43
:100FB0008096FF1F08B50B4C2368580301D500F03D
:100FC00047FE2368590501D500F00EF823681A057D
:100FD00001D500F009F8034B1B68DB04EBD500F0EA
:100FE00003F8E8E73480044008B5FFF7E3FF024B5D
:100FF00010221A80704700BF002005407047034A46
:101000001368184410601846704700BFC88BFF1F54
:10101000002070474FF0FF3070474FF400534B6093
:1010200000207047012070474FF0FF307047FEE707
:10103000FEE70078D0F1010038BF0020704701239F
:1010400003707047EFF31383ABB9EFF31083ABB9C1
:10105000EFF3058323B10F2B05D9094A985C03E010
:101060004FF4807000E00020EFF311833BB1834226
:1010700038BF184670474FF0FF3070470020704768
:10108000F0E300E00023C25C0AB10133FBE718463D
:10109000704710B50023B0FBF2F402FB14000928DE
:1010A00094BF30303730C0B2C85420460CB1013341
:1010B000F1E7CA18547022469A4206DA885CCC5C82
:1010C0008C54C8540132013BF6E7084610BD031E9C
:1010D00010B50C4603DBBDE81040FFF7DABF2D204A
:1010E00001F8010B5842FFF7D4FF204610BDF0B5C0
:1010F0000F4687B016461C463A4633460546084911
:1011000001A802F03BFF284601F0F4FD02460B4621
:10111000204601A902F032FF204607B0F0BD00BF13
:10112000BB760000084B4FF400021A604FF080724B
:101130001A604FF000721A604FF080621A604FF030
:1011400000621A60704700BF08E100E01030024BF7
:1011500043F82010704700BF0082FF1F212830B5E0
:1011600021D8042A1FD8DFE802F00709050B030085
:101170000B2306E00A2304E0082302E00C2300E02E
:101180000923094A02EBC002526872B61468074D7F
:1011900024F47024146044F0807444EA034345F856
:1011A0002010136062B630BDC4760000F895FF1FB2
:1011B000094B03EBC0035B6872B61A6822F08772B2
:1011C00022F4803242F080721A60044B002243F80D
:1011D000202062B6704700BFC4760000F895FF1F5C
:1011E000114B10B51C68E0041C6004D50F4BDA6885
:1011F0000AB1DB689847A10404D50C4B1A690AB1FF
:101200001B699847A20604D5084B1A6E0AB11B6EDB
:101210009847E30606D5054BD3F8842012B1D3F8DE
:101220008430984710BD00BFA0900440F895FF1F80
:101230001F4B10B51C68E1031C6004D51D4B1A68D8
:101240000AB11B689847A20304D51A4B5A680AB121
:101250005B689847E30704D5164B1A6C0AB11B6C00
:101260009847A00704D5134B5A6C0AB15B6C98479A
:10127000210704D50F4B9A6C0AB19B6C9847620703
:1012800004D50C4BDA6C0AB1DB6C9847230304D508
:10129000084B5A6E0AB15B6E9847640306D5054B3E
:1012A000D3F8802012B1D3F88030984710BD00BF2A
:1012B000A0A00440F895FF1F2C4B10B51C68210717
:1012C0001C6004D52A4B5A6A0AB15B6A9847E20649
:1012D00004D5274B9A6A0AB19B6A9847630604D5DE
:1012E000234BDA6A0AB1DB6A9847200604D5204B03
:1012F0001A6B0AB11B6B9847A10604D51C4B5A6B9D
:101300000AB15B6B9847E20704D5194BDA6B0AB157
:10131000DB6B9847A30704D5154B9A6D0AB19B6DFB
:101320009847600704D5124BDA6D0AB1DB6D984718
:10133000A10504D50E4BDA6E0AB1DB6E9847E205C3
:1013400004D50B4B1A6F0AB11B6F9847630504D580
:10135000074B5A6F0AB15B6F9847200504D5044BC1
:101360009A6F0AB19B6F984710BD00BFA0B00440B0
:10137000F895FF1F1E4B10B51C68E1071C6004D5D3
:101380001C4B9A680AB19B689847220604D5194BF2
:101390005A690AB15B699847E30604D5154B9A6907
:1013A0000AB19B699847600704D5124BDA690AB104
:1013B000DB699847210704D50E4B1A6A0AB11B6AEC
:1013C0009847A20704D50B4B9A6B0AB19B6B9847C1
:1013D000A30604D5074B1A6D0AB11B6D984760062A
:1013E00004D5044B5A6D0AB15B6D984710BD00BF20
:1013F000A0C00440F895FF1F094B10B51C681C6085
:10140000A30704D5074B9A6E0AB19B6E9847E00775
:1014100004D5044BDA6F0AB1DB6F984710BD00BFEB
:10142000A0D00440F895FF1F014B1868704700BF1B
:1014300000D00340044B054900221A600A60044AA8
:10144000106010221A60704714D0034004D003408B
:1014500000D0034000280EDB02024FF48073B2F587
:10146000004F06D3013B012BC0EB020101D00A461D
:10147000F5E7120A10E0404202024FF48073B2F521
:10148000014F06D3013B012BC0EB020101D00A46FC
:10149000F5E7120AC2F58072013B024942EA0322D3
:1014A0000A6070470CD0034018B1102828BF1020E4
:1014B00000E00120014B1870704700BFCC8BFF1F6C
:1014C00010B500234FF4B7721A41914202D801338C
:1014D000072BF7D11D4A1A4102EB5102B2FBF1F181
:1014E00001394FF6FF72914228BF1146C21ED2B297
:1014F000012A06D8164A174C0020106020601648B2
:101500001EE0421FD2B2012A09D9A0F10902D2B2CB
:10151000012A04D9A0F11402D2B2032A06D80F4A34
:101520000F4C0020106020600E4809E0192801D0FF
:10153000202809D10C4A0D4C0020106020600C4876
:1015400043F008030160136010BD00BF00366E0158
:101550000090034004900340089003400080034043
:10156000048003400880034000800B4004800B404F
:1015700008800B40212810B518D80D4A52F8303099
:1015800093F880423CB1012211B183F8802010BD54
:1015900083F8002110BD02EBC00043681A6811B146
:1015A00042F0030201E022F002021A6010BD00BF07
:1015B000C4760000212806D8044B53F8303093F845
:1015C0000002C0B270470020704700BFC476000020
:1015D000212816D80B4A02EBC00301295B6852F898
:1015E000302004D182F880124FF4A27208E000206B
:1015F00082F8800211B94FF4807201E040F20312C8
:101600001A607047C4760000282838B50A46044698
:101610004E4B11D11B780B2B04D8C3F10C0301FAEC
:1016200003F204E00C2B1CBF0C3B41FA03F2104602
:10163000BDE83840FFF79CBC19780125002A05FA5F
:1016400001F3D8BF002102DD9A4205D32946FFF7F6
:1016500091FF2046294675E00338C3B2012B01D81B
:101660003B4B06E0192C01D0202C01D1394B00E076
:10167000394B1B6801335343CB401D2859D8DFE851
:1016800000F00F151B215858272D585858585858F6
:1016900058585833393F4558515858585858584B4E
:1016A0002E4A13604FF451722D4B40E02D4A1360C7
:1016B0004FF451722C4B3AE02C4A136040F24442F2
:1016C0002B4B34E02B4A136040F244422A4B2EE06D
:1016D0002A4A136040F24442294B28E0294A136009
:1016E00040F24442284B22E0284A136040F2444230
:1016F000274B1CE0274A136040F24442264B16E079
:10170000264A136040F24442254B10E0254A1360FC
:1017100040F24442244B0AE0244A13604FF45172D1
:10172000234B04E0234A1360234B4FF451721A6099
:1017300038BD7F2A2046D4BF00210121FFF71AFFC0
:1017400020460121BDE83840FFF742BFCC8BFF1F88
:101750000890034008800B4008800340109003402D
:101760003090044018900340349004404880034077
:101770001CC004403080034010C00440208003405F
:101780000CB004402880034010B00440388003406F
:1017900014C004404080034018C00440108003403F
:1017A00004B004401880034008B0044010800B408F
:1017B00048A0044018800B404CA004402DE9F041A3
:1017C00007460E4690460824012505EA08013846DA
:1017D000FFF7D0FE30460121FFF7CCFE3046002156
:1017E000FFF7C8FE6D00013CEDB2EED1BDE8F0811F
:1017F0002DE9F04107460E4690460824802505EA6B
:1018000008013846FFF7B6FE30460121FFF7B2FE69
:1018100030460021FFF7AEFE013C4FEA5505EED100
:10182000BDE8F08112B91A46FFF7C8BF1A46FFF7A4
:10183000DFBF2DE9F04180460F4608240025012630
:1018400038460121FFF796FE4046FFF7B3FE00B190
:10185000354338460021FFF78DFE7600013CF6B295
:10186000EED12846BDE8F0812DE9F04180460F46D3
:1018700008240025802638460121FFF77BFE4046DC
:10188000FFF798FE00B1354338460021FFF772FE9E
:10189000013C4FEA5606EED12846BDE8F0810AB970
:1018A000FFF7C7BFFFF7E0BF72B60C4B0C491A68D1
:1018B0000C4BD3F88830096862B6490102D5322A48
:1018C00088BF0133C2F5BB4218213F32B2FBF1F2AF
:1018D0004FF47A7000FB0320704700BF18E000E06F
:1018E00004ED00E0F895FF1F38B50446FFF7DCFF74
:1018F000054664B1FFF7D8FF401BB0F57A7F03D3EC
:10190000013C04D005F57A7501F08EF8F2E738BD98
:1019100010B5FFF707FC164B164A174C00204BF684
:10192000FF711860596028231360936013619361FD
:101930001362936213639363082222600F4C20604A
:101940006160A360236144F8042C0D4C20600D48B5
:1019500001600D490B608B600C4B1A60FFF7CEF9EC
:101960000420FFF7C1FFBDE8104000F017BC00BF26
:10197000048003400C800340008003400490034037
:1019800004800B4008800B400C800B4000800B4013
:1019900070B505468C002B782BB1013CFBD10020A3
:1019A00070BD013CFBD02B78002BFAD0FFF77CFFF9
:1019B00006462B7813B1013CFBD1F0E7FFF774FF2B
:1019C000801B70BD70B505468C002B782BB9013C8F
:1019D000FBD1002070BD013CFBD02B78002BFAD14D
:1019E000FFF762FF06462B7813B9013CFBD1F0E705
:1019F000FFF75AFF801B70BD21280BD8064B53F808
:101A0000300000F5007011B11146FFF7C1BF11465B
:101A1000FFF7D8BF00207047C47600001FB572B62C
:101A2000154B70221A70154A412111700F2102F8CE
:101A3000011C80221A701A781206FCD5104B186807
:101A400062B6104B984298BF0A2301AC98BF584326
:101A500021460A22FFF71DFB0023E15C0A4A29B157
:101A600002EB430001330A2B4180F6D101335B00C6
:101A7000137004B010BD00BF000002400700024018
:101A8000080002407F969800CE8BFF1F70B50C4B6C
:101A90000C4C1A7842F0020504EBC50682F00102F4
:101AA000706058781A7000280CBF8826C82680F00D
:101AB000010046EA0141587044F8351070BD00BF7E
:101AC0008496FF1F0080FF1F431E012B10B510D806
:101AD00072B6094A02EB8302506840B14168516016
:101AE000064A018832F81340611A22F8131062B6D0
:101AF00010BD002010BD00BF8496FF1FC897FF1FB8
:101B0000013801280CD8074B03EB8000C36872B67C
:101B100000201BB11A885B681044FAE762B6704770
:101B2000002070478496FF1F013801280BD872B639
:101B3000064B03EB8000C368002013B101305B68E3
:101B4000FBE762B670470020704700BF8496FF1F16
:101B500010B572B61A4B1A7812F0080F1C46194BC2
:101B600004D0194A116A81B1926AC2B1627812072F
:101B700004D5154A116C51B1926C92B162B6002233
:101B80001A75BDE8104000F0E9BB042200E008220D
:101B90000D4901EBC204083060600C4808E00522E2
:101BA00000E00922084901EBC204083060600848DF
:101BB00041F832001A7D013A1A7562B610BD00BFB5
:101BC000D47700008496FF1F0080FF1F880040002C
:101BD000C8004000421E012A30B531D8194B4001DF
:101BE00040F01000184472B6174CA3185B7D032B0D
:101BF00009D8DFE803F0130215050830022310E0CE
:101C0000083004230DE09200A318D86808B9D96001
:101C100001E09B6959602244916110E0032300E0D8
:101C20000523224410F0080F537501F108030A88B8
:101C300043600CBF8823C82343EA0243036062B6B3
:101C400030BD00BF0080FF1F8496FF1F00BE70479D
:101C50002DE9F047AA4B1B78DBB25A0711D5A94AE8
:101C600092F8281051B192F8290000F0FF0128B134
:101C70000139C9B282F8291001B900BEA04A042175
:101C8000117003F0080101F0FF02002900F0318219
:101C90009D4B9E4D1A78D2B214094FEA920740F03C
:101CA000A08155F8372005EBC703C2F38302013A40
:101CB0005B680C2A00F29181DFE812F0690169018A
:101CC0008F018F018F018F018F018F016D018F01B6
:101CD0008F018F010D001A688A4C5B68E2622363F2
:101CE0008B4B92B245F8373001210023B2F5A06F3B
:101CF00063632B61AB616170274600F0FE8015D8ED
:101D0000822A00F0B48007D8802A40F0F28084F85C
:101D1000203084F8213011E1B2F5817F00F0B680E7
:101D200040F202339A4200F0BF80E2E0B2F5086F61
:101D300000F0978008D8A2F5D062012A00F2D9807D
:101D4000E28D218E734BC3E0B2F5106F40F0D1806D
:101D500094F82E306D4E84F8283006F14008336A2E
:101D60001B0603D5706A083800F0F8FA08364645B5
:101D7000F5D10026B046DFF8C09156F8090028B129
:101D8000D0F804A000F0EAFA5046F8E7624B49F8B0
:101D90000600A3F12C09F05056F8090028B1D0F83C
:101DA00004A000F0DBFA5046F8E75C4B49F8060067
:101DB000F0505B4B23F818005A4B18F80320023AF6
:101DC000032A08D8DFE802F002040204002200E03F
:101DD000012203F8082008F10108B8F1020F06F10A
:101DE0000406C8D10023237501264F4A4F4B3244C5
:101DF000334412F8012C9B0012F0080F1A704FEABE
:101E0000860821D000F08CFA38B105EB4613083073
:101E10005860474B45F8383004E03B7D45F83800C2
:101E200001333B7500F07CFA48F0010338B105EB53
:101E3000C30208305060364A45F8332004E045F8C4
:101E400033003B7D01333B7548F00202013648F018
:101E500003080023032E45F8323045F83830C4D14A
:101E60004BE094F8283084F820300B4667E0228E4F
:101E7000022A3ED884F8203084F8213092002D4B7D
:101E80009B5C9E075AD584F8201057E0228E02F002
:101E90007F03022B2DDCE38D5BBB9100254A0A44B6
:101EA000117821F002010CE0228E02F07F03022B58
:101EB0001FDCE38DEBB991001E4A0A44117841F012
:101EC0000201117019E033F80C6C964207D00C3304
:101ED00053F8085CA3F10C00002DF4D109E033F8AD
:101EE0000A6C8E42F3D1120A032A0CBF2B780389A5
:101EF00027E0104B0F221A7046E01D4621E000BF7C
:101F0000802007408496FF1F902007400080FF1F1D
:101F1000C8004000E4770000BC96FF1F9C96FF1F9E
:101F2000C897FF1F9996FF1FD477000030C8011093
:101F300088004000C02007408896FF1F022307F159
:101F40002005678EBB4238BF1F46402F34BF3E4638
:101F5000402628463146FFF799FDBF1B354403D183
:101F6000402E11D13E4603E0402F34BF3E4640266E
:101F700028463146FFF78AFDBF1B354401D1402E6C
:101F800002D16563A4F840700122784B24E0784BBD
:101F900045F8373021E0774C666B96B1B4F8407065
:101FA000402F34BF3D46402530462946FFF76EFDA1
:101FB0007B1B9BB2A4F840300BB9402D00D17319A4
:101FC0006363A28D6B4BB2F5A06F06D1002283F83C
:101FD0002D2093F82E20684B1A70644B01221A7042
:101FE00083E005EBC706013C736802F00802A3F129
:101FF0000800E4B202F0FF01002A41D000F0AEF97F
:102000005C4B03EB840003EB040CC2680AB3516819
:10201000C1609CF8151002F10800706003290FD808
:10202000DFE801F00205080B1C44032307E01C4411
:10203000022304E01C44052301E01C4404236375CF
:1020400016F0080F12880CBF8823C82343EA024306
:1020500049E09CF81520032A0AD8DFE802F046463A
:1020600002051C44002301E01C44012363753CE08D
:1020700016F0080F1C440CBF02220322627534E0E4
:1020800055F83720120C23F8082C32B3DFF8E4C0DF
:1020900023F8061C4FEA840E43F8041C0CEB0E03D5
:1020A000596801B19B6B58600CEB0E03DFF8C480DC
:1020B0009863324B33F814100A4423F8142000F0CC
:1020C0002FF910B10830706007E098F8143045F827
:1020D0003700013388F8143007E0254B284A16F002
:1020E000080F08BF134645F83730264B08221A70F0
:1020F000B0E5DD0721D51F4C1C48214D21460223A8
:10210000037001F8442B204B84341D6059601A6120
:102110009A619D60DC601D4B0D2119701C49FF23E5
:102120000B7001F8083C0A741A4A13701A4B9F226C
:102130001A7001230370BDE8F0871C0605D5134A09
:102140000D211170802102F8401C980706D5104A15
:102150001178C9B21170022102F8081CD90602D503
:10216000084B10221A70BDE8F08700BF942007408A
:10217000C80040008496FF1F98200740C897FF1FA3
:1021800088004000802007400080FF1FC0200740DB
:10219000882007408C2007408420074008B5FFF7BF
:1021A0003DFC00231C4A00219950D0180833482BCD
:1021B0004160F7D1194B196841F480211960184B1F
:1021C00080211970187816490006FBD4154BC2F30C
:1021D00007201870C2F30740120E18751A76124ABB
:1021E000FF231370137202F8703C0B7843F0400326
:1021F0000B7001230021137582F8801013710B4BB3
:1022000070226FF450711A700B444FF400721A6010
:10221000074B10221A7008BD0080FF1F3480044055
:102220000C2107409C2007408020074049E400E043
:102230000821074038B541F6B564184B1B7853B3F5
:102240000120FFF771FC0228154D02D9013C0DD188
:102250000EE000F065F801460028F7D000232B704F
:10226000104B00F1080203F1200007E02B7813B1B6
:1022700001232B700FE000F0D7FBDEE753F8044B8F
:10228000834242F8044BF9D120230B800120FFF751
:10229000A1FC002038BD4FF0FF3038BDAC96FF1FC9
:1022A0004897FF1FCC97FF1FF7B5154B1A68009290
:1022B000009E04460D461F46124B1B78CBB10120F1
:1022C000FFF702FC034648B93A680192019A921B53
:1022D000AA4211D88DB100F0A7FBEDE753F8082F03
:1022E00022609A88A2809B79A37100F037F80720BA
:1022F00004E04FF0FF3001E000E0284603B0F0BDFD
:102300008096FF1FAC96FF1F034B1B7803F0FF0066
:102310000BB1024B18887047AC96FF1FC897FF1F80
:1023200072B60C4A1168B1FA81F3172B02D962B662
:10233000002070474FF00040D84021EA00011160B2
:1023400062B6054948225343C8180022CA50426069
:10235000704700BF048DFF1F0084FF1F0C4B4822F5
:10236000C31AB3FBF2F3172B11D80A4A127822B121
:10237000094A12780AB1FFF7EBBB72B6074A4FF071
:10238000004121FA03F311681943116062B67047E6
:102390000084FF1F9896FF1FAC96FF1F048DFF1F40
:1023A00008B5034B01221A60024B1B68984708BD11
:1023B0000C7103405897FF1F08B5034B01221A60A8
:1023C000024B5B68984708BD1C7103405897FF1F7C
:1023D00008B5034B01221A60024B9B68984708BD61
:1023E0002C7103405897FF1F08B5034B01221A6058
:1023F000024BDB68984708BD3C7103405897FF1FAC
:10240000054B1A6842F400021A60044B00221A605D
:10241000034B01221A7470473C8004400070034053
:102420005897FF1F054B01221A60054B1A6822F4CA
:1024300000021A60034B00221A74704700700340B8
:102440003C8004405897FF1FF0B54478134D144F5B
:1024500023015A194260134A9E18866004F144060B
:102460000673066947F8246000249C5059510321E3
:102470009950037B427B03F1604303F564430121E0
:102480001A70037B5A11920002F1604202F5614218
:1024900003F01F0301FA03F31360F0BD0071034062
:1024A0005897FF1F08710340F8B50E4B1B7C06467A
:1024B0000F460BB9FFF7A4FF00240A4D05F11102E6
:1024C000E3B2A25C42B93046737039462C44FFF740
:1024D000BBFF01206074F8BD0134042CEDD1002055
:1024E000F8BD00BF5897FF1F037B0122591103F06D
:1024F0001F0302FA03F3094A42F8213082680849AF
:102500000023136042780A445374064A9A5C22B945
:102510000133042BF9D1FFF785BF704780E100E05C
:102520005897FF1F6997FF1F037870B504460D4643
:1025300016461BB1FFF7D8FF002323702561204604
:102540003146FFF7B1FF10B10123237000E0207086
:10255000207870BD037810B504460BB1FFF7C4FFB7
:102560000023237010BD00BF08B5FDF7B5FFFEF7CF
:102570004FF800F059FAFAE70A4A1368834270B537
:102580000FD0094B094C196811F4804F40F0804579
:1025900002D01060256070BD054E1E601060256081
:1025A000196070BD0CC0024000C0024010C0024063
:1025B00001401F00164B17491A6842F480521A60F6
:1025C000154B164A1A60164A116001F1804151609C
:1025D000144A1A60144B1B78DA0755BF134A144A81
:1025E0004FF410714FF4007113F0020F11600CBF23
:1025F000104911495B074FF4007254BF0F4B104B49
:102600000A6054BF4FF410724FF400721A607047A2
:102610003C8004400110003800C0024001401F000F
:102620000CC0024000001F805597FF1F18B00440E7
:1026300008C004401CB004400CC0044014B0044066
:1026400004C00440054A4FF4A2731360536042F87B
:10265000043C034A034B1A60704700BF18B00440A3
:1026600001401F0000C002405E2830B50FD8084B63
:1026700041091C78012202FA01F52C431C7003EB7E
:10268000810300F01F00596882401143596030BD3A
:102690007097FF1F5E2830B513D80A4B420903EB31
:1026A000820400F01F006568012101FA00F025EAAC
:1026B0000000606028B9187801FA02F220EA0202EC
:1026C0001A7030BD7097FF1F064B1A6842F4805293
:1026D0001A60054B1B6810B943F0807001E023F0CD
:1026E000807049E73C8004400CC002405E4A136899
:1026F00043F4805370B51360136843F48053136040
:102700005A4A1368126813F0807F02F00F020CBF60
:1027100000232023012A0AD9042A02D843F0010306
:1027200005E0062A94BF43F0020343F00303504A36
:1027300011684C0440F192801268002AC0F2918026
:102740001843494B1A68D10405D442F480521A60E8
:10275000484A464B1A6010F0400504D1444B1A68B1
:1027600042F480421A60444B444A10F0200F08BFE4
:102770001A46030748BF42F0806210F0040F00F0D1
:1027800003030CD00BB93E4B02E0012B02D13D4BB1
:1027900013431BE0022B0CBF3B4B3C4BF8E723B928
:1027A00042F4805343F0010310E0012B04D142F4C2
:1027B000804343F0040309E0022B0BBF42F4C04303
:1027C00042F4E04343F0060343F00703274A11684D
:1027D00001F000410B43116899420CD024490C6868
:1027E000660401D5136006E044F4804646F0010615
:1027F0000E6013600C60264A1D4B10F0100F08BFCE
:102800004FF4F812EDB11A60224B1B78D80755BF70
:10281000214A224A4FF410714FF4007113F0020F55
:1028200011600CBF1E491F494FF400720A6059071E
:1028300055BF1D4B1D4B4FF410724FF400721A60C0
:1028400070BD42F4804242F001021A60124A4FF415
:10285000A2731360536042F8043C70BD43F0400320
:102860006AE743F010036BE73C8004400CC0024071
:1028700000C0024001100138000001380000013999
:10288000010100020404000206060002070700021C
:1028900000001F805597FF1F18B0044008C0044077
:1028A0001CB004400CC0044014B0044004C00440F8
:1028B000094B1A6842F480521A60084B1B6803F0F7
:1028C000E0629B0105D520F4704300F4704043EAB8
:1028D0001010104350E600BF3C8004400CC0024082
:1028E000A0F10903DBB2012B0CD900F0FB03022B92
:1028F00008D00F2806D01438C0B203288CBF00209F
:10290000012070470120704738B505460C46FFF797
:10291000E7FF002834D02046FFF7E2FF00B938BDBA
:10292000022D03D10A2C08BF002038BD0A2D03D187
:10293000022C08BF002038BD062D03D1092C08BF8A
:10294000002038BD092D03D1062C08BF002038BD5A
:10295000142D03D1172C08BF002038BD172D03D12B
:10296000142C08BF002038BD152D03D1162C08BF2C
:10297000002038BD162D03D1152C08BF002038BD0E
:1029800038BD023815283AD8DFE800F00F39393958
:10299000193939150B3939393933393939391F2949
:1029A0002D234FF40072174B02E0174B4FF40072C7
:1029B0001A60012070474FF40072144B02E0144B70
:1029C0004FF400721A60022070474FF40072114BEE
:1029D00002E0114B4FF400721A60042070474FF46C
:1029E00000720E4B02E00E4B4FF400721A6008208A
:1029F00070470C4B4FF400721A6010207047002093
:102A0000704700BF10B0044000C004400CB0044048
:102A100010C0044014C0044008B0044018C0044072
:102A200004B0044000B004407047FFFF81F0004153
:102A300002E000BF83F0004330B54FEA41044FEAA3
:102A4000430594EA050F08BF90EA020F1FBF54EA3E
:102A5000000C55EA020C7FEA645C7FEA655C00F0DA
:102A6000E2804FEA5454D4EB5555B8BF6D420CDDAB
:102A70002C4480EA020281EA030382EA000083EA2E
:102A8000010180EA020281EA0303362D88BF30BDCE
:102A900011F0004F4FEA01314FF4801C4CEA113124
:102AA00002D0404261EB410113F0004F4FEA033383
:102AB0004CEA133302D0524263EB430394EA050F0E
:102AC00000F0A780A4F10104D5F1200E0DDB02FA7D
:102AD0000EFC22FA05F2801841F1000103FA0EF211
:102AE000801843FA05F359410EE0A5F120050EF1D7
:102AF000200E012A03FA0EFC28BF4CF0020C43FA08
:102B000005F3C01851EBE37101F0004507D54FF014
:102B1000000EDCF1000C7EEB00006EEB0101B1F564
:102B2000801F1BD3B1F5001F0CD349085FEA3000AA
:102B30004FEA3C0C04F101044FEA445212F5800FB5
:102B400080F09A80BCF1004F08BF5FEA500C50F152
:102B5000000041EB045141EA050130BD5FEA4C0C35
:102B6000404141EB010111F4801FA4F10104E9D1BE
:102B700091F0000F04BF01460020B1FA81F308BFB5
:102B80002033A3F10B03B3F120020CDA0C3208DD81
:102B900002F1140CC2F10C0201FA0CF021FA02F15C
:102BA0000CE002F11402D8BFC2F1200C01FA02F1CC
:102BB00020FA0CFCDCBF41EA0C019040E41AA2BFF1
:102BC00001EB0451294330BD6FEA04041F3C1CDAB9
:102BD0000C340EDC04F11404C4F1200220FA04F0D9
:102BE00001FA02F340EA030021FA04F345EA030183
:102BF00030BDC4F10C04C4F1200220FA02F001FA45
:102C000004F340EA0300294630BD21FA04F02946C6
:102C100030BD94F0000F83F4801306BF81F480115F
:102C20000134013D4EE77FEA645C18BF7FEA655CD2
:102C300029D094EA050F08BF90EA020F05D054EAA4
:102C4000000C04BF1946104630BD91EA030F1EBFA9
:102C50000021002030BD5FEA545C05D140004941AD
:102C600028BF41F0004130BD14F580043CBF01F5A0
:102C7000801130BD01F0004545F0FE4141F4700186
:102C80004FF0000030BD7FEA645C1ABF1946104661
:102C90007FEA655C1CBF0B46024650EA013406BF62
:102CA00052EA033591EA030F41F4002130BD00BF21
:102CB00090F0000F04BF0021704730B54FF48064DE
:102CC00004F132044FF000054FF0000150E700BF5F
:102CD00090F0000F04BF0021704730B54FF48064BE
:102CE00004F1320410F0004548BF40424FF00001AB
:102CF0003EE700BF42004FEAE2014FEA31014FEAEE
:102D000002701FBF12F07F4393F07F4F81F060513C
:102D1000704792F0000F14BF93F07F4F704730B5AB
:102D20004FF4607401F0004521F0004120E700BF3E
:102D300050EA010208BF704730B54FF000050AE0C5
:102D400050EA010208BF704730B511F0004502D5C6
:102D5000404261EB41014FF4806404F132045FEAC8
:102D6000915C3FF4DCAE4FF003025FEADC0C18BF6D
:102D700003325FEADC0C18BF033202EBDC02C2F163
:102D8000200300FA03FC20FA02F001FA03FE40EAF5
:102D90000E0021FA02F11444C1E600BF70B54FF0F5
:102DA000FF0C4CF4E06C1CEA11541DBF1CEA1355D7
:102DB00094EA0C0F95EA0C0F00F0DEF82C4481EA3F
:102DC000030621EA4C5123EA4C5350EA013518BF5F
:102DD00052EA033541F4801143F4801338D0A0FB4C
:102DE00002CE4FF00005E1FB02E506F00042E0FBF9
:102DF00003E54FF00006E1FB03569CF0000F18BFFF
:102E00004EF0010EA4F1FF04B6F5007F64F54074A6
:102E100004D25FEA4E0E6D4146EB060642EAC62139
:102E200041EA55514FEAC52040EA5E504FEACE2EA6
:102E3000B4F1FD0C88BFBCF5E06F1ED8BEF1004FA9
:102E400008BF5FEA500E50F1000041EB045170BD25
:102E500006F0004646EA010140EA020081EA030169
:102E6000B4EB5C04C2BFD4EB0C0541EA045170BD65
:102E700041F480114FF0000E013C00F3AB8014F1DF
:102E8000360FDEBF002001F0004170BDC4F1000428
:102E9000203C35DA0C341BDC04F11404C4F12005A9
:102EA00000FA05F320FA04F001FA05F240EA020004
:102EB00001F0004221F0004110EBD37021FA04F63A
:102EC00042EB06015EEA430E08BF20EAD37070BDF4
:102ED000C4F10C04C4F1200500FA04F320FA05F053
:102EE00001FA04F240EA020001F0004110EBD37055
:102EF00041F100015EEA430E08BF20EAD37070BDC5
:102F0000C4F1200500FA05F24EEA020E20FA04F39D
:102F100001FA05F243EA020321FA04F001F000414C
:102F200021FA04F220EA020000EBD3705EEA430EBD
:102F300008BF20EAD37070BD94F0000F0FD101F0EC
:102F40000046400041EB010111F4801F08BF013C25
:102F5000F7D041EA060195F0000F18BF704703F063
:102F60000046520043EB030313F4801F08BF013DEA
:102F7000F7D043EA0603704794EA0C0F0CEA1355A6
:102F800018BF95EA0C0F0CD050EA410618BF52EA60
:102F90004306D1D181EA030101F000414FF0000066
:102FA00070BD50EA410606BF1046194652EA430674
:102FB00019D094EA0C0F02D150EA013613D195EAE8
:102FC0000C0F05D152EA03361CBF104619460AD130
:102FD00081EA030101F0004141F0FE4141F470013A
:102FE0004FF0000070BD41F0FE4141F4780170BD2A
:102FF00070B54FF0FF0C4CF4E06C1CEA11541DBF8F
:103000001CEA135594EA0C0F95EA0C0F00F0A7F890
:10301000A4EB050481EA030E52EA03354FEA0131BD
:1030200000F088804FEA03334FF0805545EA1313D0
:1030300043EA12634FEA022245EA111545EA106598
:103040004FEA00260EF000419D4208BF964244F12F
:10305000FD0404F5407402D25B084FEA3202B61A4E
:1030600065EB03055B084FEA32024FF480104FF422
:10307000002CB6EB020E75EB030E22BFB61A754696
:1030800040EA0C005B084FEA3202B6EB020E75EB29
:10309000030E22BFB61A754640EA5C005B084FEA91
:1030A0003202B6EB020E75EB030E22BFB61A75465E
:1030B00040EA9C005B084FEA3202B6EB020E75EB69
:1030C000030E22BFB61A754640EADC0055EA060E2A
:1030D00018D04FEA051545EA16754FEA06164FEA6D
:1030E000C30343EA52734FEAC2025FEA1C1CC0D119
:1030F00011F4801F0BD141EA00014FF000004FF0A6
:10310000004CB6E711F4801F04BF01430020B4F166
:10311000FD0C88BFBCF5E06F3FF6AFAEB5EB030C1E
:1031200004BFB6EB020C5FEA500C50F1000041EB1B
:10313000045170BD0EF0004E4EEA113114EB5C04E8
:10314000C2BFD4EB0C0541EA045170BD41F48011BB
:103150004FF0000E013C90E645EA060E8DE60CEAC3
:10316000135594EA0C0F08BF95EA0C0F3FF43BAFE0
:1031700094EA0C0F0AD150EA01347FF434AF95EA97
:103180000C0F7FF425AF104619462CE795EA0C0F7B
:1031900006D152EA03353FF4FDAE1046194622E748
:1031A00050EA410618BF52EA43067FF4C5AE50EA22
:1031B00041047FF40DAF52EA43057FF4EBAE12E712
:1031C0004FF0FF3C06E000BF4FF0010C02E000BFF3
:1031D0004FF0010C4DF804CD4FEA410C7FEA6C5CD6
:1031E0004FEA430C18BF7FEA6C5C1BD001B050EA79
:1031F000410C0CBF52EA430C91EA030F02BF90EA64
:10320000020F0020704710F1000F91EA030F58BF22
:10321000994208BF90422CBFD8176FEAE37040F084
:10322000010070474FEA410C7FEA6C5C02D150EA22
:10323000013C07D14FEA430C7FEA6C5CD6D152EADD
:10324000033CD3D05DF8040B704700BF84461046A2
:1032500062468C461946634600E000BF01B5FFF7A1
:10326000B7FF002848BF10F1000F01BD4DF808ED71
:10327000FFF7F4FF0CBF012000205DF808FB00BF42
:103280004DF808EDFFF7EAFF34BF012000205DF89C
:1032900008FB00BF4DF808EDFFF7E0FF94BF0120E9
:1032A00000205DF808FB00BF4DF808EDFFF7CEFFEA
:1032B00094BF012000205DF808FB00BF4DF808ED29
:1032C000FFF7C4FF34BF012000205DF808FB00BFFA
:1032D000014600200246034602F0E4B838B540F249
:1032E000000440F20005C0F20005C0F20004641BB7
:1032F000A41018BF05EB840505D0013C55F8043D2A
:103300009847002CF9D1BDE8384004F0B7BB00BFA6
:1033100070B547F6702647F67025C0F20005C0F27A
:103320000006761BB6101CBF043D002405D00134F6
:1033300055F8043F9847A642F9D147F67C2647F650
:103340007025C0F20005C0F20006761B04F08AFB6F
:10335000B6101CBF043D002406D0013455F8043FCC
:103360009847A642F9D170BD70BD00BF49F2301335
:10337000C1F6FF730146186800F000B82DE9F04F60
:1033800001F10B05162D87BF25F00705EB0F002374
:1033900010258D422CBF194643F0010183B007462A
:1033A000002940F0B58000F0E1FBB5F5FC7F1FD2AD
:1033B00049F23416C1F6FF764FEAD50C06EBCC0382
:1033C000DC689C4200F0F4816368E268A16823F045
:1033D0000303234438465D68CA6045F001059160E7
:1033E0005D6000F0C5FB0834204603B0BDE8F08FF7
:1033F0005FEA552C04BF7E214FF03F0C40F08F80D8
:1034000049F23416C1F6FF7606EB8101CC68A14281
:1034100006D10DE0002B80F26381E468A14207D061
:10342000626822F00302531B0F2BF3DD0CF1FF3C0B
:103430000CF1010C49F23413C1F6FF73346903F146
:10344000080E744508BF5A6822D0616821F0030154
:103450004A1B0F2A00F39081002AC3F814E0C3F836
:1034600010E067DAB1F5007F80F05F81C90803EBF7
:10347000C1004FEAA1085A688168E0604FF0010975
:1034800009FA08F848EA0202A1605A608460CC6038
:103490004FEAAC0301209840904258D8024206D12E
:1034A0002CF0030C400002420CF1040CFAD006EBA5
:1034B000CC084446E146E3689C4207D16FE1002A0C
:1034C00080F28081DB689C4200F06981596821F0BC
:1034D00003014A1B0F2AF2DD1C46D3F80CC054F836
:1034E000088F591945F0010942F00105C3F804900D
:1034F0003846C8F80CC0CCF8088071613161C1F859
:103500000CE0C1F808E04D608A5000F031FB6BE739
:103510000C2300240360204603B0BDE8F08FBCF10B
:10352000040F00F2EE804FEA951C0CF1380C4FEAC4
:103530004C0165E7214438464B6843F001034B607A
:1035400000F016FB0834204603B0BDE8F08FB468E5
:10355000636823F003094D4504D8C5EB09030F2B1D
:1035600000F3AE8049F29C7349F2405AC1F6FF73F2
:10357000C1F6FF7A1B68DAF800102B4401311DBF39
:1035800003F580530F3323F47F6303F1100C18BF4E
:1035900023F00F0C04EB0902614638460192CDF886
:1035A00000C000F0D7FCB0F1FF3F8046019ADDF883
:1035B00000C000F01D81824200F2178149F2A07B19
:1035C000C1F6FF7B4245DBF800306344CBF80030A6
:1035D00000F05D81DAF8000049F24051013018BF77
:1035E000C2EB0802C1F6FF7116BF9B18C1F800803C
:1035F000CBF8003018F007031FBFC3F10802904456
:10360000C3F5805303F1080A08EB0C0308BF4FF41D
:10361000805AC3F30B03C3EB0A0A5146384600F045
:1036200099FC431C18BFC8EB0002DBF80030C6F859
:10363000088015BF52444FF0000A42F001020122F7
:103640005344B44249F2A07AC8F80420CBF80030C1
:10365000C1F6FF7A15D0B9F10F0F40F2F88061681A
:10366000A9F10C0222F0070201F0010EA1180520B9
:1036700042EA0E0E0F2AC4F804E04860886000F2A7
:10368000128149F29872C1F6FF72B46811688B42D8
:1036900088BF136049F29472C1F6FF7211688B42C1
:1036A00088BF1360626822F003029542C5EB0203F3
:1036B00001D80F2B04DC384600F05AFA002493E6B8
:1036C000621943F0010345F0010565603846B260B8
:1036D000536000F04DFA0834204603B0BDE8F08F87
:1036E0002244E3685068A16840F00105CB60384689
:1036F0009960556000F03CFA0834204603B0BDE8FC
:10370000F08FBCF1140F9CBF0CF15B0C4FEA4C0125
:103710007FF676AEBCF1540F00F28F804FEA153C75
:103720000CF16E0C4FEA4C016AE64B0A042B58D997
:10373000142B9CBF03F15B02500005D9542B00F2FF
:10374000BA800A0B6E32500006EB800049F2341842
:1037500083688342C1F6FF787FD05A6822F0030263
:10376000914202D29B689842F7D1D9687268E160B1
:10377000A3608C60DC608BE6611942F0010645F0C5
:1037800001056560384659611961C1F80CE0C1F85E
:1037900008E04E608A50083400F0EAF924E609F1A6
:1037A000010919F0030F04F108047FF484AE28E046
:1037B00004F108036469A34208BF0CF1020C3FF452
:1037C00039AE01E619441C464868DB6854F8082FF6
:1037D00040F001054D603846D3609A6000F0C8F9AA
:1037E00002E68A0938325000AEE7B4423FF4E6AE52
:1037F000B468626822F0030257E7D8F80080984561
:103800006BD11CF0030FA8F108030CF1FF3CF4D1BD
:10381000736823EA00037360400098423FF697AE56
:1038200000283FF494AE0342CC467FF440AE400003
:1038300003420CF1040CFAD039E6BCF5AA7F17D884
:103840004FEAD53C0CF1770C4FEA4C01D8E5012347
:10385000C8F804304446002227E791100120D8F828
:10386000042000FA01F10A43C8F8042019467EE753
:1038700040F254539C459DBF4FEA954C0CF17C0C93
:103880004FEA4C01FC2188BF4FF07E0CB8E5C2F333
:103890000B0100297FF49EAE0CEB0901B26841F0E8
:1038A00001015160EDE604F10801384602F0EEFE38
:1038B000DAF80030E5E6B3F5AA7F03D8CA0B773211
:1038C000500041E740F2545293429DBF8A0C7C3233
:1038D0005000FC2088BF7E2236E773689CE700BF5B
:1038E000844641EA000313F003036DD1403A41D30B
:1038F00051F8043B40F8043B51F8043B40F8043BCA
:1039000051F8043B40F8043B51F8043B40F8043BB9
:1039100051F8043B40F8043B51F8043B40F8043BA9
:1039200051F8043B40F8043B51F8043B40F8043B99
:1039300051F8043B40F8043B51F8043B40F8043B89
:1039400051F8043B40F8043B51F8043B40F8043B79
:1039500051F8043B40F8043B51F8043B40F8043B69
:1039600051F8043B40F8043B51F8043B40F8043B59
:10397000403ABDD2303211D351F8043B40F8043BF9
:1039800051F8043B40F8043B51F8043B40F8043B39
:1039900051F8043B40F8043B103AEDD20C3205D309
:1039A00051F8043B40F8043B043AF9D2043208D001
:1039B000D2071CBF11F8013B00F8013B01D30B8873
:1039C00003806046704700BF082A13D38B078DD051
:1039D00010F003038AD0C3F10403D21ADB071CBF23
:1039E00011F8013B00F8013B80D331F8023B20F88D
:1039F000023B7BE7043AD9D3013A11F8013B00F8C6
:103A0000013BF9D20B7803704B7843708B7883704D
:103A1000604670478842F0B410D98C18A0420DD28D
:103A20008518531E42B121462A4611F8014D013B2B
:103A300002F8014D5C1CF8D1F0BC70470F2A40D948
:103A400040EA01039B0740D1A2F110073F0900EBB8
:103A5000071610360C46034625681D6065685D60D4
:103A6000A5689D60E568103343F8045CB34204F137
:103A70001004F1D17B1C02F00F0C1B01BCF1030FF1
:103A80001944034423D90E461D46644656F8047B68
:103A9000043C032C45F8047BF8D8ACF1040424F072
:103AA0000304043402F0030223442144002AC3D057
:103AB0001A4411F8014B03F8014B9342F9D1F0BCC1
:103AC00070470346002AF3D1B6E70346F0E76246A3
:103AD000002AEDD1B0E700BFF0B4840743D0541EF4
:103AE000002A3ED0CDB2034603E0621E002C38D03F
:103AF000144603F8015B9A07F7D1032C2AD9CDB2FB
:103B000045EA05250F2C45EA054515D9A4F110070E
:103B10003F0903F1100606EB07161A4615605560BB
:103B20009560D5601032B242F8D104F00F0401372D
:103B3000032C03EB07130DD91E462246043A032A31
:103B400046F8045BFAD8221F22F003020432134421
:103B500004F003042CB1C9B21C4403F8011BA342B6
:103B6000FBD1F0BC704714460346C6E7704700BF60
:103B7000704700BF2DE9F04F0C4683B09046814658
:103B8000002900F02481FFF7F1FF08F10B06162E43
:103B90008CBF26F00706102254F804CC8DBFF30F1B
:103BA000164600233246464538BF43F001032CF049
:103BB0000305A4F10807002B40F00F81954215DBA7
:103BC0006046AB1B0F2B00F0010C00F2C6804CEAE4
:103BD00005033D447B606B6843F001036B6048461E
:103BE000FFF7C6FF204603B0BDE8F08F49F2341A54
:103BF000C1F6FF7A7919DAF80800884200F0F280FD
:103C0000D1F804E02EF0010B8B44DBF804B01BF07C
:103C1000010F1CBF9E46714654D01CF0010F40F0AE
:103C2000AD8054F8083CC3EB070BDBF8043023F0FD
:103C300003032B44002952D0814200F01F819E448F
:103C400096454CDBCB688A685F46D3609A6057F82C
:103C5000081FDBF80C302A1F242ACB60996000F281
:103C60006581132A98BF3B4620D92368CBF80830DA
:103C700063681B2ACBF80C309CBF08340BF110038F
:103C800014D9A368CBF81030E368242ACBF8143099
:103C900003BF2369CBF818306269103411BF0BF1F0
:103CA00018030BF12003CBF81C20183422681A608B
:103CB00062685A60A2689A603C467546DBF8040068
:103CC0005F467EE72EF0030E0EEB05039342A4DB66
:103CD000CA6889686046CA601D46916071E7934270
:103CE0004CDB5F46DBF80C1057F8080F2A1F242A1C
:103CF000C160886000F2B480132A98BF3A4620D988
:103D00002168CBF8081061681B2ACBF80C109CBF07
:103D100008340BF1100214D9A168CBF81010E16837
:103D2000242ACBF8141003BF2269CBF8182061694C
:103D3000103411BF0BF118020BF12002CBF81C104C
:103D400018342168116061685160A16891603C4637
:103D50001D46DBF804005F4633E7B91943F0010262
:103D60004CEA06060B447E604A605A6842F0010243
:103D700008315A60484602F089FC30E7414648461F
:103D8000FFF7FCFA8046D8B154F8043C23F0010256
:103D90003A44A0F10801914200F0C1802A1F242A70
:103DA00068D8132A9CBF034622463AD81168196086
:103DB0005168596092689A602146484602F066FC54
:103DC0004846FFF7D5FE404603B0BDE8F08F1146E8
:103DD00003B0BDE8F04FFFF7D1BA0C23C9F80030AB
:103DE000002000E7436823F0030E06F110010EEBFC
:103DF00005038B42B8BF0146FFF60FAF37449B1B4C
:103E000043F00103CAF808707B6054F8043C03F0E7
:103E100001031E43484644F8046CFFF7A9FE204600
:103E2000E1E62368036063681B2A43609CBF04F1DA
:103E3000080200F10803B9D9A3688360E368242A63
:103E4000C36003BF23690361626900F1100309BF06
:103E5000426104F1100200F1180304F11802A5E711
:103E6000214638461D463C46FFF7D4FD5F46DBF849
:103E70000400A6E62146FFF7CDFD9DE70EEB030CFF
:103E800006F110018C45FFF62AAF5F46DBF80C30D7
:103E900057F8081F2A1F242ACB60996050D8132A8C
:103EA00098BF3B4620D92368CBF8083063681B2AAB
:103EB000CBF80C309CBF08340BF1100314D9A36865
:103EC000CBF81030E368242ACBF8143003BF236901
:103ED000CBF818306269103411BF0BF118030BF1E5
:103EE0002003CBF81C20183422681A6062685A60DC
:103EF000A2689A600BEB0603C6EB0C0242F00102CB
:103F0000CAF808305A60DBF8043003F001031E439E
:103F10004846CBF80460FFF72BFE384663E650F8BE
:103F2000042C22F00302154418464AE6214638467E
:103F300075463C46FFF76EFD5F46DBF8040040E641
:103F400021463846CDF804C0FFF764FDDDF804C013
:103F5000D0E700BF38B549F2EC74C1F6FF74002316
:103F6000054608462360FDF74AF8431C00D038BDDB
:103F70002368002BFBD02B6038BD00BF0EB4F0B51A
:103F80009CB021AC49F2301154F8042BC1F6FF71FA
:103F9000064623464FF4027E6FF0004508680296FD
:103FA0004FF6FF7702A906960194ADF814E0049548
:103FB0000795ADF8167000F009F8029B00221A7000
:103FC0001CB0BDE8F04003B0704700BF2DE9F04FD2
:103FD000C7B093460A9113930F9002F025FC006836
:103FE0001990FDF74FF80A9C1C90A389190603D578
:103FF0002369002B01F07F800DF1D70436AD0794C3
:104000000895079DCDF82CB036A8441B47F6E40967
:104010001F9447F6341547F638140023C0F2000405
:10402000C0F20009C0F2000510932B932A931A9353
:104030001B9318931D93119329901594169506467A
:104040004F460B9C2378252B18BF002B00F0B38024
:10405000621C144601322378252B18BF002BF8D19F
:104060000B98251A0FD02A9B2B9A306001332A44D3
:10407000072B75602B922A93D8BF083600F38180F6
:104080001199294411912378002B00F0828000239C
:10409000651C94F801908DF887304FF0FF341A4674
:1040A000129309930B950C942B460133A9F120012F
:1040B000582900F20284DFE811F0E4030004000450
:1040C000EB03000400040004000400040004F203F5
:1040D000990300045D002D0200046C027302730258
:1040E0007302730273027302730273027302000499
:1040F00000040004000400040004000400040004A0
:1041000000044E028B0200048B0200040004000431
:104110000004840200040004C80200040004000437
:1041200000040004E30200040004FB020004000495
:10413000000400040004000400040004000400045F
:10414000220338038B028B028B02DD033803000449
:1041500000049D030004B1031C02C50350030004C6
:10416000570300048000000400047F03129C139195
:1041700064421294099D45F00405099593F8009056
:1041800093E70F980A9929AA02F0D8FE40B936AEF3
:1041900076E72B9B23B10F980A9929AA02F0CEFE4D
:1041A0000A9C1198A38913F0400F18BF4FF0FF30FD
:1041B00047B0BDE8F08F0B9C65E7099C0B93A30605
:1041C00040F16782139DEB1D23F0070303F1080400
:1041D0001394D3E9004501234FF0000A8DF887A01E
:1041E0000C9A002AA2BF099820F08000099054EA96
:1041F00005010C980CBF00220122002818BF42F0D4
:104200000102002A00F0DF83012B00F00C85022B55
:104210000DF1D70240F05181189804F00F012309E5
:10422000904643EA0573425C29091C460D4654EA50
:10423000050188F8002008F1FF32EED1089BC8EB99
:1042400003030E930C9C0E9DA542B8BF2546002487
:104250000D951794BAF1000F02D00D9C01340D9406
:10426000099D15F0020B18BF0D9C099D1CBF02345F
:104270000D9415F08405149540F03483129D0D982B
:104280002C1A002C40F32E83102C47F6381A40F3DA
:10429000D68730461E972B992A9A159E2746C0F23C
:1042A000000A10250F9C02E0103F102F17DD01328D
:1042B0001031072A066045602B912A92D8BF08303A
:1042C000F2DD20460A9929AA02F038FE00287FF480
:1042D00067AF103F102F2B992A9A36A8E7DC3C468F
:1042E0001E9F064601322144072A2B912A92C6F8C6
:1042F00000A0746000F3A5849DF887A008360C46E2
:10430000BAF1000F0ED02A9B013301340DF1870161
:104310000122072B86E806002B942A93D8BF083683
:1043200000F3E282BBF1000F0DD02A9B013302346F
:1043300022A90222072B86E806002B942A93D8BFD5
:10434000083600F30D84149B802B00F04F830C9DE6
:104350000E9BC3EB050ABAF1000F44DDBAF1100F52
:1043600047F6E405DCBFC0F200052A9B27DDC0F25A
:10437000000522462A9B54464FF0100BAA460F9D7B
:1043800002E0103C102C17DD01331032072B86E8B9
:1043900080082B922A93D8BF0836F2DD28460A9966
:1043A00029AA02F0CBFD00287FF4FAAE103C102CB5
:1043B0002B9A2A9B36AEE7DC5546A24614460133BB
:1043C0005444072B86E820042B942A93D8BF083640
:1043D00009DD0F980A9929AA02F0B0FD00287FF4A0
:1043E000DFAE2B9C36AE099DEA0500F188822A9B40
:1043F0000E9DC6F8008001332C44072B2B9475606A
:104400002A9300F393830836099D6B0746D51298CB
:104410000D99451A002D41DD102D47F6381ADCBFE5
:10442000C0F2000A2A9B27DD09972A9BDDF83C9001
:10443000DDF828B0159FC0F2000A4FF0100802E026
:10444000103D102D17DD01331034072B86E8800155
:104450002B942A93D8BF0836F2DD4846594629AA3C
:1044600002F06CFD00287FF49BAE103D102D2B9CBC
:104470002A9B36AEE7DC099F01332C44072B2B9493
:104480002A93C6F800A0756008DD0F980A9929AA3A
:1044900002F054FD00287FF483AE2B9C119D0D99F2
:1044A00012988142ACBF6D182D181195002C40F068
:1044B000488300232A9336AEC3E5E308904643EAD7
:1044C0004573EA0804F0070115461C4601F1300364
:1044D00054EA050188F8003008F1FF32EDD1099C5B
:1044E000E007414600F1FF84089DC8EB05050E95E5
:1044F000A8E6099D0B9315F0200300F0B080139CF3
:10450000E31D23F0070303F108051395D3E90045E4
:10451000002361E693F80090B9F12A0F03F101003E
:1045200000F0A287A9F13001092982BF00240346C7
:104530000C943FF6BBAD002310F8019B03EB830303
:1045400001EB4303A9F130010929F5D943EAE373EB
:104550000C930346AAE5099D8DF8872045F01005C8
:104560000995099C0B93A20640F1E680139DE91D75
:1045700021F00701D1E900230831139114461D46AB
:10458000002A73F10001C0F2CF839DF887A00123B8
:1045900026E6099C44F08004099493F8009084E591
:1045A0000025A9F130011295284613F8019B00EB74
:1045B000800001EB4000A9F130010929F5D91290E2
:1045C00074E5099C44F00804099493F800906CE5A4
:1045D000099C0B9324078DF8872040F1AE84139D2E
:1045E000EB1D23F0070303F108041D6813941A95CB
:1045F0005B681B931B991A9802F078FC01281B99A1
:104600001A9840F07C8400220023FEF739FE00282F
:1046100040F054869DF887A003250D95099D002440
:1046200025F0800547F6F80847F6F403C0F20008C5
:10463000C0F200030C94099503240025B9F1470F3B
:10464000D8BF98460E94179504E6099C0B9344F046
:1046500010040994099D15F020037FF450AF099CC4
:1046600014F0100240F04C83099C14F0400300F059
:104670004783139804880430134600251390ABE554
:10468000099D0B9345F010050995099CA3063FF57C
:1046900099AD099DED0600F12583099C640640F162
:1046A000218313980488043000250123139093E597
:1046B000099D0B9347F60414C0F20004A8068DF878
:1046C0008720189440F18480139CE31D23F0070396
:1046D00003F108051395D3E900450998C30740F194
:1046E0004B8254EA050100F04782302340F002007B
:1046F0008DF888308DF88990099002236CE50B9332
:10470000139B139C1B684FF0000A012504348DF89D
:1047100087A00D958DF8B0301394CDF830A0CDF86A
:104720005CA00E950DF1B0089AE5099C8DF88720E4
:10473000A2060B933FF51AAF099CE30600F1E7824E
:10474000099C650640F1E3821398B0F900400430FB
:10475000E51722462B46139012E7099C44F02004EB
:10476000099493F80090A0E4139C0B93D4F8008074
:1047700000258DF887500434B8F1000F00F07E85D5
:104780000C9800284046C0F24C8529460C9A02F04D
:1047900051F8002800F0A3850C991394C8EB000091
:1047A0008842B8BF014621EAE1740E910C950D9440
:1047B00017959DF887A04DE5099D0B9347F61814B2
:1047C000C0F20004A8068DF8872018943FF57CAF4E
:1047D000099CE10600F18E82099C620640F18A8202
:1047E0001398048804300025139076E793F800901E
:1047F0002B225AE493F80090B9F16C0F0CBF099C7E
:10480000099D194609BF44F0200445F01005013305
:1048100009940CBF91F80190099546E4099D0B930A
:10482000A9068DF8872040F19583139C2168119C7F
:10483000E5172B46139D224604351395C1E9002345
:10484000FFF7FFBB099D139A0B9345F0020547F64E
:10485000181030234FF078090995C0F20000151D9B
:104860008DF88830139514688DF88990002518907C
:104870000223B1E4099D45F04005099593F80090A5
:1048800013E493F80090002A7FF40FAC20220CE48C
:10489000099D45F00105099593F8009005E4139CE6
:1048A000139D2468002C129405F10401FFF65EAC00
:1048B000139193F80090FFF7F8BB0B938DF88720C6
:1048C000B9F1000F3FF465AC002301259A460D9520
:1048D0008DF8B0908DF887300C9317930E950DF1ED
:1048E000B008BDE42B9C0BE50F980A9929AA02F0A9
:1048F00025FB00287FF454AC2B9C36AE12E5B9F1B1
:10490000650F40F3C2801A981B9900220023FEF71E
:10491000ADFC002800F033812A9B169D0133013441
:104920000122072B356072602B942A93D8BF08367A
:1049300000F31C83239B109DAB4203DB099DEB0717
:104940007FF562AD199D2A9B35601C9D01332C4477
:10495000072B75602B942A93D8BF083600F3C083C9
:10496000109D05F1FF38B8F1000F7FF74DADB8F19C
:10497000100F47F6E40540F303852A9BDDF83CA0C1
:10498000DDF828B0C0F200054FF0100905E0A8F1ED
:104990001008B8F1100F40F3C08001331034072B1A
:1049A00086E880022B942A93D8BF0836EFDD504664
:1049B000594629AA02F0C2FA00287FF4F1AB2B9CD9
:1049C0002A9B36AEE3E7002B40F0C580099CE10747
:1049D0005CBF0E930DF1D8087FF534AC1F9D3023DA
:1049E0008DF8D7300E950DF1D7082BE4129D0D9858
:1049F000C0EB050ABAF1000F7FF7A9ACBAF1100FAE
:104A000047F6E405DCBFC0F200052A9B27DDC0F2B3
:104A1000000522462A9B54464FF0100BAA460F9DD4
:104A200002E0103C102C17DD01331032072B86E812
:104A300080082B922A93D8BF0836F2DD28460A99BF
:104A400029AA02F07BFA00287FF4AAAB103C102CB4
:104A50002B9A2A9B36AEE7DC5546A2461446013314
:104A60005444072B86E820042B942A93D8BF083699
:104A70007FF76DAC0F980A9929AA02F05FFA002817
:104A80007FF48EAB2B9C36AE61E4109D012D40F37C
:104A9000D8812A9BC6F800800133621C0121072BB4
:104AA00071602B922A93D8BF083600F3F5811C9CC5
:104AB000199D224435605C1C1C9D2B92072C2A9466
:104AC000756000F3DC81083691461A981B99002224
:104AD0000023FEF7CBFB109D002840F0C0806B1E2A
:104AE000013408F1010103EB0902072C31602A941B
:104AF0002B92736000F3B681083691461D9A631CB1
:104B00001D9C2A934A4425A9072B2B9286E8120064
:104B10000CDC0836144677E4144601334444072B72
:104B20002B942A9386E820017FF76DAC0F980A99A1
:104B300029AA02F003FA00287FF432AB2B9C36AE90
:104B400062E40F980A9929AA02F0F8F900283FF4C4
:104B5000B0ACFFF725BB0E920DF1D808FFF772BB82
:104B60000F980A9929AA02F0E9F900287FF418ABF6
:104B70002B9C36AEFFF7E7BB0223FFF72DBB239B31
:104B8000002B40F3FE81109D1798DDF840B0854260
:104B9000A8BF0546002DC3440CDD2A9BC6F8008043
:104BA00001332C44072B75602B942A93D8BF083609
:104BB00000F34B83179925EAE575C5EB0109B9F1B7
:104BC000000F40F3D180B9F1100F47F6E405DCBFC8
:104BD000C0F200052A9B40F3B380C0F200052246D4
:104BE0000C952A9B0F9C0A9D4FF0100A05E0A9F135
:104BF0001009B9F1100F40F3A18001331032072BD7
:104C000086E880042B922A93D8BF0836EFDD204631
:104C1000294629AA02F092F900287FF4C1AA2B9A0A
:104C20002A9B36AEE3E7002D08BF0A2C80F04081B6
:104C30001F9D30348DF8D7400E950DF1D708FFF742
:104C400001BB0F980A9929AA02F078F900287FF48D
:104C5000A7AA9DF887A02B9C36AEFFF751BB05F1A4
:104C6000FF38B8F1000F7FF749AF47F6E405B8F118
:104C7000100FC0F2000528DD4B464FF0100AA94680
:104C8000DDF83CB00A9D04E0A8F11008B8F1100F5F
:104C900019DD01341033072C86E880042B932A9405
:104CA000D8BF0836F0DD5846294629AA02F046F951
:104CB00000287FF475AAA8F11008B8F1100F2B9BFB
:104CC0002A9C36AEE5DC4D469946013408EB0903D3
:104CD000072C2B932A9486E8200100F3C380083622
:104CE00099460BE7139D2C68043513950123002585
:104CF000FFF772BA139D2C68043513950025ECE478
:104D0000139D2C68043513950025FFF765BA139D94
:104D100013982C68E51722462B460430002A73F1BD
:104D200000011390BFF631AC4FF02D0A644265EBE1
:104D300045058DF887A00123FFF752BA0C9D144654
:104D400001334C44072B86E820022B942A93D8BFCA
:104D5000083609DD0F980A9929AA02F0EFF8002811
:104D60007FF41EAA2B9C36AE179D239BA844109D52
:104D7000AB424DDB099DE9074AD41098C8EB0B05FF
:104D8000C31AAB42B8BF1D46002D0CDD2A9AC6F8E7
:104D9000008001322C44072A75602B942A92D8BFD8
:104DA000083600F35D8225EAE575C5EB0308B8F126
:104DB000000F7FF729ABB8F1100F47F6E40540F379
:104DC000DF822A9BDDF83CA0DDF828B0C0F20005A8
:104DD0004FF01009224605E0A8F11008B8F1100FB5
:104DE0007FF79AAE01331032072B86E880022B92B0
:104DF0002A93D8BF0836EFDD5046594629AA02F05B
:104E00009DF800287FF4CCA92B9A2A9B36AEE3E7C5
:104E1000199D2A9A35601C9D01322C44072A756021
:104E20002B942A92D8BF0836A7DD0F980A9929AA91
:104E300002F084F800287FF4B3A9239B2B9C36AEA4
:104E40009BE7099DEA073FF524AE2A9AC6F8008041
:104E5000631C541C072C4FF001022B932A947260A0
:104E60007FF73DAF0F980A9929AA02F067F800284A
:104E70007FF496A9DDF8AC902A9C36AE3EE60F98FA
:104E80000A9929AA02F05AF800287FF489A9DDF8C6
:104E9000AC902A9C36AE18E60F980A9929AA02F01F
:104EA0004DF800287FF47CA92B9A2A9B36AEFEE5AC
:104EB0000DF1D70B204629460A22002302F016F9ED
:104EC00030328BF80020204629460A22002302F0C7
:104ED0000DF904460D4654EA0500D8460BF1FF3B98
:104EE000E8D1FFF7ABB9302B3FF4A8A9089C3023D9
:104EF000A41A90460E9401F8013CFFF7A3B901F003
:104F0000F5FF002840F08D80099D0C9047F60018B1
:104F100047F6FC030324C0F20008C0F2000325F0AA
:104F200080050D940995B9F1470FD8BF98461790A1
:104F30000E949DF887A0FFF78DB9139CE31D23F015
:104F4000070303F108051C6813951A945B681B930B
:104F5000FFF750BB099CE20640F1B480139D119C01
:104F60002B68043513951C60FFF76BB80F980A99EE
:104F700029AA01F0E3FF00287FF412A92B9C36AE8A
:104F8000D8E42A9A169D013201340121072A35609E
:104F90002B942A92716000F313810836184628B9C1
:104FA000109D1DB9099DED077FF52EAA2A9B1C991E
:104FB000199D214401331C9C3560072B2B91746093
:104FC0002A93D8BF06F1080200F3BD814442002CA9
:104FD00040F3178147F6E405102CC0F2000540F3BA
:104FE000FB801026DDF83C90DDF828A003E0103CA3
:104FF000102C40F3F18001331031072B17605660FD
:105000002B912A93D8BF0832F1DD4846514629AA90
:1050100001F094FF00287FF4C3A82B992A9B36AA9D
:10502000E5E70C9C013408BF062429F0200508BFE1
:105030000C9406D0472D04D10C9C002C08BF0124F1
:105040000C941B9B099C002B44F480741494BDBFEA
:105050001C4604F1004A4FF02D0BDDF86CA0A8BFF0
:105060004FF0000BB5F14600D0F1000C5CEB000CEA
:10507000BCF1000F4DD0032123A80C9C009102909D
:1050800024A927A804901A9A0194534603910F98D3
:10509000CDF818C000F000FB472D8046DDF818C0A1
:1050A00003D1099CE10740F10F810C9C4444BCF101
:1050B000000F43D098F80030302B00F0A581239BDF
:1050C0001C443BE0139C099D236815F0400F119D83
:1050D00004F10404139414BF1D801D60FEF7B1BFDA
:1050E0000F980A9929AA01F029FF00287FF458A8EF
:1050F0002B9C36AE34E40F984021FEF73FF9206038
:105100002061002800F0C7810A9C40236361FEF7FC
:1051100073BF452D40F032810C981A9A441C23A984
:1051200002208DE81100029124A827A9039053467C
:1051300004910F9800F0B0FA8046044400231A98B6
:1051400051460022FEF792F8234648B9279B9C421D
:1051500006D930215A1C27921970279B9C42F9D8F6
:10516000C8EB0303472D109300F0B180B9F1650F30
:1051700040F38C81B9F1660F00F00781239D1795EC
:10518000179C109DAC42C0F2EB80099CE00749BF20
:10519000179B179D01330E935ABF25EAE5730E95B1
:1051A00023EAE3734FF06709BBF1000F7BD1149C36
:1051B0000D930994CDF830B09DF887A0FFF74AB859
:1051C0000F980A9929AA01F0B9FE00287EF4E8AFE9
:1051D00023982B9C36AEE2E601332144072B156061
:1051E00054602B912A93D8BF08320ADD0F980A9990
:1051F00029AA01F0A3FE00287EF4D2AF2B992A9BA6
:1052000036AA109DC2F8008001332944072B2B9148
:105210002A9355603FF78AAC02F108060C46FFF767
:10522000F3B80C95FBF72EFF13940C9C0E9020EA1C
:10523000E0750D9517949DF887A0FFF70BB8C0F2A5
:10524000000A2B992A9AFFF74DB80F980A9929AAB4
:1052500001F074FE00287EF4A3AF2B9C36AEA9E4C7
:105260000F980A9929AA01F069FE00287EF498AFE8
:10527000239B10992B9CCB1A36AE94E50C9D13946E
:10528000062D28BF0625C2460E9547F62C1825EA9E
:10529000E575CDF830A05446CDF85CA00D95C0F270
:1052A0000008FEF7D7BF149D0D934FF02D0A002480
:1052B00009958DF887A00C94FEF7CFBF4FF02D0A0B
:1052C0008DF887A0FFF7A8B9279B1B1A1093239B83
:1052D000DA1C11DB0C9C9C420EDB179350E70C9DF3
:1052E000139425EAE5750D950C9D17900E950C907D
:1052F0009DF887A0FEF7AEBFA9F10209013B002B84
:105300002393BABF5B422D222B22092B8DF8949058
:105310008DF8952048DC303330228DF897308DF8A9
:10532000962026AB25AA109C109D9A1A1444012D94
:105330001D920E947FDD0E9B002401330E93179473
:1053400023EAE37330E70F980A9929AA01F0F6FDE2
:1053500000287EF425AF23982B992A9B36AA35E6A0
:10536000179C109D002CD4BFC4F1020301231D44DF
:105370000E9525EAE5734FF0670915E702217BE6F4
:10538000C0F200052A9BFFF7C8BB239C002C179492
:105390005BDD0C9D002D46D1099CE50743D4179D8C
:1053A00025EAE5730E95FFE646F26760C6F2666091
:1053B0000DF1A20180FB0354DA17C2EBA40202EB49
:1053C00082040D46A3EB440303F13001092A29703E
:1053D000134605F1FF31EDDC02F130030DF1A300BE
:1053E000DAB2884205F8012C52D90DF195012B460D
:1053F00001E013F8012B834201F8012FF9D146A8EF
:10540000C5EB4003F63B8DE71A9851460022002376
:10541000FDF72CFF00287FF452AE0C98C0F1010379
:1054200023931C448AE60C9C179D631C1D440E9517
:1054300025EAE573B8E6099C14F001037FF47BAF1D
:105440000E9D179325EAE573AEE60C9C34B9099DD1
:10545000EC075CBF01230E937FF5A6AE0C9B0233D5
:105460000E9323EAE3739FE6139D139C2D6893F834
:1054700001900C95002D04F10401B8BF4FF0FF35E9
:1054800013910346B8BF0C95FEF70FBE239B35E77B
:105490000DF1960346E70F9D0C232B604FF0FF3074
:1054A000FEF786BEF0B547F6E004C0F2000485B012
:1054B0002668D6F848410746002C44D065681F2D61
:1054C00021DD43F26D34C0F200041CB94FF0FF300F
:1054D00005B0F0BD4FF4C870039102920193FDF73F
:1054E00045FF0399029A019B04460028EED0D6F8A6
:1054F00048510020256060600546C6F84841C4F860
:105500008801C4F88C013FB9AB1C002001356560EF
:1055100044F8231005B0F0BD04EB85004FF0010CFA
:10552000C0F88820D4F888610CFA05F21643022FDF
:10553000C4F88861C0F8083102BFD4F88C311A432E
:10554000C4F88C21E0E706F5A674C6F84841B5E733
:1055500040F20003C0F200032BB143F2DD20C0F2A1
:105560000000FDF7B5BE70472DE9F04F03690D69E6
:105570009D42834683B0C8BF002000F38880013D70
:1055800001F114040BF1140A54F825205AF82530BF
:105590000132B3FBF2F8AA00914600925244A144B2
:1055A0000192B8F1000F3DD04FF0000E7046224638
:1055B00053468C4652F8046B1968B7B2360C07FB99
:1055C00008EE06FB08F606EB1E461FFA8EF7C71B11
:1055D000B0B217FA81F7C0EB114000EB2740BFB221
:1055E00047EA0047914543F8047B4FEA20404FEAE1
:1055F000164EDFD2009A5AF80230614693B9019AEA
:10560000131F9A450CD252F8043C4BB9A2F108037F
:1056100002E01A68043B1AB99A4505F1FF35F8D340
:10562000CBF81050584601F077FB00282EDB08F12C
:1056300001085346002254F8046B1868B1B2521A9C
:10564000360C12FA80F1C6EB104202EB214289B20D
:1056500041EA0241A14543F8041B4FEA2242EAD243
:105660005AF825200AEB850382B91A1F92450BD2FE
:1056700053F8042C42B9083B02E01A68043B1AB9FB
:105680009A4505F1FF35F8D3CBF81050404603B0EA
:10569000BDE8F08FFFFFFFFF2DE9F04F016C9DB0DB
:1056A0000446299D92469B4641B1436C01229A4093
:1056B0004B608A6001F02CF900232364BBF1000FDA
:1056C000B5BF012300232B602B604FF00003B4BF54
:1056D0002BF00049D946C7F6F0734FF0000209EAF3
:1056E0000303C7F6F072B8BFCB46934214D05046BE
:1056F000594600220023FDF7B9FD804628B3289EB5
:105700002A9D01233360002D00F0DD80AA48286027
:1057100001381DB0BDE8F08F289D42F20F7347F6A7
:1057200054102B60C0F20000BAF1000F00F0AB8003
:105730002A9E002EEDD0C378002B40F0B380C31C0E
:105740002A9D2B601DB0BDE8F08F1BAA1AAB8DE817
:105750000C00204652465B4601F06AFB5FEA195591
:105760000D9040F0A2801A9F1B9D6FF482633D4410
:105770009D42C0F25E824FF60E43CFF6FF735B1B75
:1057800005F2124209FA03F32AFA02F243EA02008E
:10579000FDF78EFA0126013DB846A1F1F871179682
:1057A00000230022C3F6F873FDF744F97CA3D3E984
:1057B0000023FDF7F3FA7CA3D3E90023FDF73CF9BE
:1057C000064628460F46FDF783FA79A3D3E900235E
:1057D000FDF7E4FA02460B4630463946FDF72CF950
:1057E00006460F4601F05AFC394607900022304623
:1057F0000023FDF745FD002840F00482079E162E89
:1058000084BF0126169612D847F66813C0F200032B
:1058100003EBC603D3E9000152465B46FDF74EFD9C
:10582000002800F00E82013E079600261696C5EB72
:105830000805013D48BF00260A9548BF0A96079E05
:105840004BBF6D4200250C950C95002EC0F2E881EF
:105850000A9D1196354400260A950E96269D092D1F
:1058600036D8052DC4BF043D2695269EA6F1020319
:10587000CCBF00250125032B2CD8DFE813F046030D
:10588000120255036E0547F6481247F65413C9F342
:105890001300C0F20002C0F2000300280CBF104643
:1058A000184645E700F108034AE7CBF3130343F03A
:1058B0007F53CDF85C805046A5F2FF3543F440118C
:1058C000DDF868806CE747F63410C0F2000020E78E
:1058D00000262696002565642946204600F0F2FF42
:1058E0004FF0FF36279501250990109620640B96FE
:1058F0000F951B9B002BC0F2BE80079E0E2E00F35F
:10590000BA8047F66813C0F2000303EBC603DDF864
:105910009CE00B9DD3E900014FEADE72002DCCBF65
:10592000002202F00102CDE90401002A40F0518476
:10593000DDE9042350465946FDF75AFB01F0AEFB62
:105940008046FDF7C5F9DDE90423FDF727FA0B468C
:10595000024659465046FDF76DF8099D08F130039F
:105960002B700B9B012B06460F4605F1010555D008
:1059700000230022C4F22403FDF710FA00220023C2
:1059800006460F46FDF772FCDDF82490002840F033
:10599000FE840B9DA944099D05F1020A19E000BF90
:1059A00061436F63A787D23FB3C8608B288AC63F25
:1059B000FB799F501344D33F35790000FDF7EEF992
:1059C0000022002306460F46FDF750FC002840F059
:1059D000DC84DDE9042330463946FDF709FB01F09C
:1059E0005DFB8046FDF774F9DDE90423FDF7D6F988
:1059F00002460B4630463946FDF71CF808F13005E3
:105A00000023CA450AF8015C064655460F464FF08A
:105A10000002C4F224030AF1010ACFD132463B4608
:105A200030463946FDF708F806460F463246DDE9AE
:105A300004013B46FDF724FC002800F05F85DDF8FB
:105A40002490079E15F8018C189609952A4605E0C2
:105A5000994500F0CE8413F8018C1A46B8F1390F3D
:105A600002F1FF33F4D00992189E08F10102D2B27C
:105A700007961A70B0E00F9D002D40F0E4800E9E56
:105A80000C9DDDF83C800A980028C8BF002D09DD78
:105A900003460C99AB42A8BF2B46C91AC01A0C91F9
:105AA000ED1A0A900E9A002A1CDD0F9B002B00F0C5
:105AB0006484002E10DD41463246204601F07EF817
:105AC000804641460D9A204600F0CEFF0D990746CC
:105AD000204600F01DFF0D97DDF838E0BEEB060212
