:1000000000180020C1000000A10500006D050000DF
:100010006D0500006D0500006D0500006D05000018
:100020006D0500006D0500006D050000A1050000D4
:10003000A10500006D050000A10500005D050000A0
:10004000A1050000A1050000A1050000A105000018
:10005000A1050000A1050000A1050000A105000008
:10006000A1050000A1050000A1050000A1050000F8
:10007000510C0000A1050000A1050000A105000031
:10008000A1050000A1050000A1050000A1050000D8
:10009000A1050000A10500000D1C0000A105000045
:1000A000190F0000A1050000A1050000A105000036
:1000B000A1050000A1050000A1050000A1050000A8
:1000C00038B500F071FA464A464B1A60464A474B2B
:1000D0001A60474A474B1A60474B08221978114269
:1000E00002D019780A431A70444B2A221A7000234E
:1000F000434A44499A188A4204D24349C9580433AE
:100100001160F5E7414B42491A1F181D00238A422E
:1001100002D21360031CF6E73E493F4A5958101CAF
:1001200099500433C02BF7D100239A083B49920021
:10013000521803211940C9001568FF248C40A543BB
:100140002C1C80258D40291C214301331160202B5C
:10015000EBD1334B8A221860324B1A70324B242277
:100160005A70A0221A705A689103FCD55A68D502B9
:10017000FCD459680C20090C2B4A01400829F8D1FD
:1001800003211171402151715A689102FCD55A68BE
:100190005502FCD5254AC02189051160224A20213B
:1001A00011705A680C21120C0A408A42F9D1204A77
:1001B000204B1A60204A214B1A60214B00221A6002
:1001C000204B07221A60204A204B1A6062B600F0CA
:1001D000CDFA01F095FE00F0EDF901F037FDFEE7F4
:1001E000300004F034800440823F00003880044036
:1001F0000100000F3C80044002D0074000E00740AF
:10020000C0000020440B00206C2B0000480B002095
:10021000BC0D00200000000000F9FF1F00E400E01A
:1002200008ED00E0005006400040064044800440D5
:10023000C000050504800440BF5D000014E000E03C
:1002400018E000E010E000E00000202020ED00E0D9
:10025000FFFFFFFFFFFFFFFFFFFFFFFFFFFFFFFFAE
:10026000FFFFFFFFFFFFFFFFFFFFFFFFFFFFFFFF9E
:10027000FFFFFFFFFFFFFFFFFFFFFFFFFFFFFFFF8E
:10028000FFFFFFFFFFFFFFFFFFFFFFFFFFFFFFFF7E
:10029000FFFFFFFFFFFFFFFFFFFFFFFFFFFFFFFF6E
:1002A000FFFFFFFFFFFFFFFFFFFFFFFFFFFFFFFF5E
:1002B000FFFFFFFFFFFFFFFFFFFFFFFFFFFFFFFF4E
:1002C000FFFFFFFFFFFFFFFFFFFFFFFFFFFFFFFF3E
:1002D000FFFFFFFFFFFFFFFFFFFFFFFFFFFFFFFF2E
:1002E000FFFFFFFFFFFFFFFFFFFFFFFFFFFFFFFF1E
:1002F000FFFFFFFFFFFFFFFFFFFFFFFFFFFFFFFF0E
:10030000FFFFFFFFFFFFFFFFFFFFFFFFFFFFFFFFFD
:10031000FFFFFFFFFFFFFFFFFFFFFFFFFFFFFFFFED
:10032000FFFFFFFFFFFFFFFFFFFFFFFFFFFFFFFFDD
:10033000FFFFFFFFFFFFFFFFFFFFFFFFFFFFFFFFCD
:10034000FFFFFFFFFFFFFFFFFFFFFFFFFFFFFFFFBD
:10035000FFFFFFFFFFFFFFFFFFFFFFFFFFFFFFFFAD
:10036000FFFFFFFFFFFFFFFFFFFFFFFFFFFFFFFF9D
:10037000FFFFFFFFFFFFFFFFFFFFFFFFFFFFFFFF8D
:10038000FFFFFFFFFFFFFFFFFFFFFFFFFFFFFFFF7D
:10039000FFFFFFFFFFFFFFFFFFFFFFFFFFFFFFFF6D
:1003A000FFFFFFFFFFFFFFFFFFFFFFFFFFFFFFFF5D
:1003B000FFFFFFFFFFFFFFFFFFFFFFFFFFFFFFFF4D
:1003C000FFFFFFFFFFFFFFFFFFFFFFFFFFFFFFFF3D
:1003D000FFFFFFFFFFFFFFFFFFFFFFFFFFFFFFFF2D
:1003E000FFFFFFFFFFFFFFFFFFFFFFFFFFFFFFFF1D
:1003F000FFFFFFFFFFFFFFFFFFFFFFFFFFFFFFFF0D
:10040000FFFFFFFFFFFFFFFFFFFFFFFFFEFFFFFFFD
:1004100008B5064B064803331B1A062B00D808BD47
:10042000044B002BFBD09847F9E7C046440B002053
:10043000440B00200000000008B50748074B1B1ABA
:100440009B10DA0FD318591000D108BD044A002AB6
:10045000FBD09047F9E7C046440B0020440B002036
:100460000000000010B5074C2378002B09D1FFF7DE
:10047000CFFF054B002B02D0044800E000BF012352
:10048000237010BD440B0020000000006C2B000006
:1004900008B5094B002B03D00848094900E000BF0C
:1004A00008480368002B03D0074B002B00D0984767
:1004B000FFF7C2FF08BDC046000000006C2B000023
:1004C000480B0020440B0020000000001B4B1C4A7E
:1004D00019781C4B082901D1002102E00A2903D117
:1004E00038211160132206E00C2901D1342100E0EB
:1004F0003C21116012221A60134B1A78134B002A08
:1005000001D0002200E001221A60114B1A78114B31
:10051000012A01D880220CE0042A01D8842208E0B4
:10052000082A01D8852204E0102A01D8862200E09A
:1005300087221A60084B01221A707047C000002001
:1005400008B003400CB00340610B002020B0034012
:10055000C100002024B00340600B0020024B1A6849
:1005600001321A607047C046640B002010B50B4C76
:1005700023685A0301D500F0CFFC23685A0501D542
:1005800000F066FB23681A0501D500F009F823681E
:10059000DA04ECD500F004F8E9E7C0463480044002
:1005A00008B5FFF7E3FFFFFF014B00221A60704719
:1005B000008104407047FFFF024A1368181810605A
:1005C000181C7047C4000020EFF31383002B21D1C7
:1005D000EFF31083002083421ED1EFF30583002B3D
:1005E0000ED00F2B0ED91A1C103A92080B4903207B
:1005F00092000340521883401068D840C0B201E016
:1006000080204000EFF31182002A05D0824203D2FD
:10061000101C01E0012040427047C04600E400E0A9
:10062000F8B5061C0D1C171C0024301C391C01F0E9
:10063000BDFB092901D8303100E03731C9B2295555
:10064000301C391C01F06EFB061E01D00134ECE7B2
:100650002B1958702B1C5A1BA24206DA1A78295DF6
:1006600019702A550133013CF5E7281CF8BDFFFF3E
:1006700010B51A2818D80C2358430C4A8358101860
:100680001C7D027A224205D0002901D01A710BE0AC
:100690001A7209E043681A68002902D003210A434C
:1006A00001E002218A431A6010BDC046CC28000038
:1006B00010B51A2818D80C2358430C4A141863682C
:1006C0008258247A012904D1117D0C431475A22289
:1006D00005E0107DA0431075002902D18022520050
:1006E00001E00422FF321A6010BDC046CC28000091
:1006F00072B60C4B0C491A680C4B1B68096862B641
:10070000480104D532219142894149425B18FA20BF
:10071000800043430648821A06484243920D9818C7
:100720007047C04618E000E004ED00E0640B0020D4
:10073000BF5D0000ABAA020038B5041CFFF7D8FF6C
:10074000051C002C0ED0FFF7D3FF074B401B98422F
:1007500005D9013C002C05D0FA239B00ED1801F0CF
:10076000BBFAF0E738BDC046E70300001C4B80220F
:10077000D20510B51A60802212061A60194B0020AB
:1007800018601949194B1A4A196028231360194A2D
:10079000194C1360194A1360194A1360194A1360FF
:1007A000194A136009222260184C2060184C2160FD
:1007B000184C2360184C2360184C2260184C2060A1
:1007C0001848016018490B6018490B60184B1A60F3
:1007D000FFF77CFEFA20FFF7AFFF00F03DFE10BDF3
:1007E00000E100E004800340FFBF000008800340F8
:1007F0000C80034014800340008003401C800340B1
:10080000248003402C800340348003400490034044
:10081000089003400C900340149003400090034064
:1008200004A0034008A003400CA0034014A0034010
:1008300000A00340164B80221968D2000A431A60B8
:10084000144A00231370144A14491370144A137085
:10085000144A1370144A1370144A1160144AD121B7
:1008600089001160134AC104C90EC0B211705070E2
:1008700093702C23D370104BFF22196891430A1CEC
:1008800040210A431A600D4B802252011A607047C2
:1008900034800440F00B00206D0B00201303000097
:1008A000F80B0020F10B00206C0B002040A004404E
:1008B00044A0044000A006400CE400E000E100E099
:1008C00010B5164B132219680902090E9143032231
:1008D00002400A43410701D510210A439A700F22B2
:1008E0000E490240042A05D14A6840241202120E21
:1008F00022438A715A6810211204120E8A43084258
:1009000000D00A435A715A6810211202120E8A430B
:10091000840600D50A439A7110BDC04600A0064067
:1009200008B5124B1B685A051ED5114B1B78DBB25C
:10093000002B02D001F0D0F9F7E70E4A80214901DF
:1009400011600D4A0D49D3700422FF320A600C4930
:100950000A600C4A13700C4A13700C4B1B68002B76
:1009600002D00B4A12781A7108BDC0463480044088
:100970006C0B002080E100E000A0064040A0044095
:1009800044A00440F00B00206D0B0020680B0020F9
:10099000AE0B002038B5041C0B4B1D78EDB2002DBA
:1009A000FAD1201C0121FFF783FE291C201CFFF730
:1009B0005FFE0C225443054B054AE1581C19116097
:1009C000044B227A1A7038BD6C0B0020CC28000032
:1009D000F40B0020EF0B002038B50E4B1A680023F3
:1009E000510514D50C4C1A2810D80C2343430B4A3C
:1009F0000B4D9958D3181B7A216001212B70FFF7FA
:100A000057FE23682A781A72012300E02360181C1D
:100A100038BDC04634800440680B0020CC2800005C
:100A2000AE0B00200E4B021C1B680020590516D58A
:100A30000C4B122A02D10C490C4A03E0142A08D1AB
:100A400009490B4A1160DA6801201204120E0243B0
:100A500004E0DA6801211204120E8A435A737047C7
:100A60003480044000A00640020300000CA00440B3
:100A700014C00440F8B5204B071C1B6859053AD533
:100A80001E4B1B68002B02D01D4A12781A711D4E96
:100A9000002334783F220134A2425B415B421C4078
:100AA000194D2B78A3421BD1FFF78EFD402812DC95
:100AB000164A53681906F3D52B78002101333F20DD
:100AC0009842494149420B401149C95CDBB2C9B265
:100AD000D1712B70E4E7FF28E2DD01F0FDF8DFE7DC
:100AE0000B4BFFB21F550B4B01221A70074BE4B2A0
:100AF000AC223470DA70F8BD34800440F40B00206E
:100B0000EF0B0020F80B0020F10B002000A00640A6
:100B10006E0B00206C0B002038B5041C4518AC424D
:100B200004D02078FFF7A6FF0134F8E738BDFFFFB7
:100B300008B5044B1B78002B02D001F0CDF8F8E784
:100B400008BDC0466C0B0020064B074A1B78107886
:100B5000DBB2C0B2834201D33F3000E00138C01A9B
:100B60007047C046F80B0020F10B0020054B1878A9
:100B7000054BC0B21B78DBB2984200D24030C01A9D
:100B80007047C046F00B00206D0B002010B5124BD3
:100B900012491A780B78D2B2DBB29A4219D00133DB
:100BA0003F2400209C424041404203400C48DCB2BC
:100BB000C05C0C700B49C0B2096800290BD09A4286
:100BC00000D24032D31A1A2B05DC074B1B780B726C
:100BD00001E00120404210BDF00B00206D0B002011
:100BE000AF0B0020680B0020AE0B00200A4B1A78D8
:100BF0000A4B1B78DBB29A420AD0013300223F2114
:100C00009942524152421340054AD05CC0B201E0C1
:100C1000012040427047C046F00B00206D0B0020C1
:100C2000AF0B0020064B1A78064BD2B21A70064B57
:100C30001B68002B02D0054A12781A727047C04612
:100C40006D0B0020F00B0020680B0020AE0B002085
:100C500030B5254A5368990612D5244954680B7853
:100C6000002001333F259D4240414042034020483F
:100C7000240E0078834203D01E48C454DBB20B70AC
:100C8000136819481B0EDCB25BB2002B19DA4368FB
:100C9000190616D5184B19491D780B78DBB29D4201
:100CA00002D16C23C3700CE0013300203F259D422C
:100CB0004041404203401248C05CDBB2C0B2D07138
:100CC0000B7040231C420ED0516819420BD00D4BC3
:100CD000002119700C4B1B688B4202D00B4909781C
:100CE00019722C23D37030BD00A00640F00B0020F9
:100CF0006D0B0020AF0B0020F80B0020F10B002043
:100D00006E0B00206C0B0020F40B0020EF0B00207A
:100D10001FB572B6154B70221A70154A4121117019
:100D2000144A0F21117080221A701A7852B2002AC8
:100D3000FBDA114B186862B6104B984201D80A23AF
:100D4000584301AC211C0A22FFF76AFC0023E15C36
:100D50000B4A002905D058001018013341800A2B96
:100D6000F5D101335B0013701FBDC0460000024087
:100D70000700024006000240080002407F969800EB
:100D8000E8010020F0B50B4F02223B780A4E1A43CF
:100D9000D2000A4DB418606028788824002800D05A
:100DA000C82409040C43B450012250405340287019
:100DB0003B70F0BD540C002000F8FF1FBC0C00205D
:100DC000431E10B5012B0FD872B6084A99008858F7
:100DD000002807D044685B008C50054A01889C5A63
:100DE000611A995262B600E0002010BD4C0C002040
:100DF000940D0020431E0020012B09D872B6054A2D
:100E00009B009B58002B02D001305B68FAE762B66A
:100E10007047C046980C002010B572B61A4B1A786D
:100E2000191C1A4B140706D5194A146A002C13D042
:100E3000926A002A18D04A7808210A4206D0144A39
:100E4000146C002C09D0926C002A0FD062B60022DC
:100E50001A7000F0DBFB15E004210D4AC9000830D0
:100E6000541860600B4808E0052100E00921084A99
:100E7000C900083054186060074888501A78013A51
:100E80001A7062B610BDC046102A0000B20C0020D5
:100E900000F8FF1F88004000C8004000421E10B547
:100EA000012A30D8022380001843174BC0001B18BA
:100EB00072B6164CA05C032809D800F01FFF14027C
:100EC00016050833022011E0083304200EE0104814
:100ED000920014580F4B002C01D1115001E098588A
:100EE000416099500EE0032000E00520A0540A1C48
:100EF00008325A608822180700D5C82209880904D8
:100F00000A431A6062B610BD00F8FF1F080C0020EB
:100F1000980C0020A00C0020F7B5B8480378011CFD
:100F2000DBB25A0711D5B64A1278002A0AD0B54862
:100F30000278D2B2002A05D0013AD2B20270002A59
:100F400000D100BEAD4D04222A7008251A1C2A408B
:100F500000D11DE2AC4BAD4C1B78DBB29A081E09E8
:100F6000D200002E00D0A6E1A21817685168B8067A
:100F7000000F01380C2800D99AE100F0C9FE730176
:100F800073019901990199019901990199017601DA
:100F90009901990199010D000B689D4D49689D4883
:100FA00069609D499D4F1160012200262B600270EF
:100FB0009BB2A0203E602661A661C000834200D1A2
:100FC000F4E015D8822B00D1A9E007D8802B00D0FF
:100FD000E8E0934C267066700226E8E08122520019
:100FE000934200D1ABE08F4A934200D1B7E0D9E001
:100FF000882109018B4200D18BE009D88A481B184F
:10100000012B00D9CEE0824D884B6A88A988BBE0CD
:1010100090221201934200D0C4E07D4D784BAA7813
:101020001A70A3191F6A3F0603D5586A083800F0E2
:10103000EDFA0836402EF4D100252E1C7C4FE859DD
:10104000002805D04168019100F0E0FA0198F7E727
:101050007851784B784FE850E859002805D042681D
:10106000019200F0D3FA0198F7E7744B744AE85004
:101070007300D052734B7851F05C0238032807D8C4
:1010800000F03CFE02040204002200E001229A5516
:1010900001360435022ED1D16B4F00233B70012560
:1010A0006A4BEA186A4B9200EB18013B1B781370ED
:1010B000180720D500F08CFA6B01002805D0E21843
:1010C00008305060634AE25003E0E0503B7801335F
:1010D0003B7000F07DFA0122AB001343DB000028D7
:1010E00005D04D49E21808305060E15003E0E0506F
:1010F0003B7801333B70AB0002221A43D20000263A
:10110000A6500322134393400135E6509542C7D1C0
:101110004CE03B4B424C1B78161C237047E03C4D87
:10112000AB88022B3ED83E4C4B4F9B00267066701E
:10113000DB191B780226334239D0227037E0344D58
:101140007F23AA881340022B2CDC6E88002E29D125
:10115000414F9B00DB191A7802218A430EE02C4D87
:101160007F23AA881340022B1CDC6E88002E19D125
:10117000394F9B00DB191A7802210A431A7015E0D7
:101180001888904204D00C335C68002CF8D109E038
:1011900058888842F7D1120A032A01D1267806E03E
:1011A0001E8904E02C4B0F221A7024E0341C184FC7
:1011B000FB889E4200D91E1C371E402F00D94027B5
:1011C000201C391CF61BFFF7DDFDE419351E02D18A
:1011D000402F03D00FE0402E00D94025201C291CB1
:1011E000FFF7D0FD6419761B01D1402D03D10B4DC3
:1011F0001A4B2C601E800122194B58E080200740BA
:10120000BB0C0020550C00209020074000F8FF1F69
:10121000A80C0020BC0C0020C8004000FC0B0020E3
:10122000B30C00200203000080F9FFFF142A000025
:101230004C0C0020000C0020980C0020A00C00207A
:10124000940D0020080C0020B20C002030C80110C2
:10125000102A000088004000C0200740B00C002089
:1012600094200740664B136022E0664F3D68002DD6
:1012700013D065480688341E402C00D94024211C18
:10128000281CFFF77FFD361B5F49B6B20E80002E8B
:1012900001D1402C00D12E193E605C4BA022198850
:1012A000D200914204D100225A709A78584B1A7099
:1012B0000122584B60E0A4186068013E0838F6B27D
:1012C0002B4036D000F0A2F95349B0004258534B9E
:1012D000002A1BD055684550111C985D083161608B
:1012E00003280BD800F00AFD02040608032104E0DD
:1012F000022102E0052100E00421995588232707F7
:1013000000D5C8231288120413433CE0985D0328DB
:1013100008D800F0F3FC39390204002200E0012271
:101320009A5531E02C40624262410324A41A9C5534
:101330002AE062880280002A20D0394D4380436031
:10134000B3005F593749002F01D1585101E0CD5802
:101350006860C850344B7600F15A5218F25200F0CF
:1013600037F9002804D00830606020070AD507E06C
:101370002E4B20601A7801321A7005E02C4201D001
:101380001F4B00E02A4B23602A4908230B70C4E559
:10139000012423421ED01F4802230370264B244DF4
:1013A0001A70264B264E1D609D60264D1A61DD6029
:1013B0009A615E60244B0D251D70244DFF232B7018
:1013C0000B7013490A70224A1370224B9F221A7025
:1013D000047013E05AB2002A04DA1B4A0D20107080
:1013E00080220A700222134204D018480478E4B222
:1013F00004700A701022134200D00A70F7BDC04674
:10140000C8004000FC0B0020B00C0020A80C0020FD
:101410009820074094200740980C0020080C0020DA
:101420004C0C0020000C0020940D0020B20C002079
:101430008800400080200740540C002000F8FF1F67
:101440000C0C0020580C0020C020074088200740CA
:101450008C2007408420074010B5FFF759FC00227C
:101460001A4B0021D150981808324160482AF7D110
:10147000174A80201468C00220431060180A154AD9
:10148000C0B21070180C144AC0B21070134A1B0E70
:101490001370134AFF231370124A13481370134A30
:1014A0001370012202701248017012490A70124A28
:1014B000116899430B1C70210B4313600F4B802262
:1014C00052041A600E4B10221A7010BD00F8FF1F54
:1014D000348004409C200740B0200740B4200740DF
:1014E00080200740882007409420074010200740B4
:1014F000002107408420074018E400E000E100E0FC
:101500000821074070B5174E174B01201B78002BA0
:1015100025D0FFF76FFC154D022803D9013E002EA0
:1015200013D115E000F054F8041EF7D000262E70F9
:1015300020250F492A1C083000F096FF0120258045
:10154000211CFFF7ABFC301C0AE02B78002B03D0EA
:1015500001232B70181C02E000F0BEFBD4E74042D0
:1015600070BDC046B51E0000BB0C0020BD0C0020A5
:10157000980D0020F7B5144F061C3A680D1C019217
:10158000124B01201B78002B18D0FFF719FC041E0A
:1015900009D13B68019A9B1AAB4211D8002D10D09B
:1015A00000F09AFBECE7011C08310722301C00F028
:1015B0005BFF201C00F02AF8072003E0404201E016
:1015C00000E0281CFEBDC046640B0020BB0C0020C0
:1015D00038B572B60B4C2568281C00F053FC172850
:1015E00002D962B600200CE080231B06C3409D4355
:1015F000256062B648235843034B18180023036044
:10160000436038BD0002002000FAFF1F10B5041C23
:101610000E484821201A00F085FB172815D80C4BDE
:101620001B78002B07D00B4B1B78002B03D0201C02
:10163000FFF7F2FB09E072B68022074B1206C240A8
:10164000101C1A681043186062B610BD00FAFF1F24
:10165000B20C0020BB0C0020000200200139C9B2EE
:1016600008B5112930D8194B01200F290CD9103990
:101670008840011C002A03D09A78114399701DE01C
:101680009A7882439A7019E007290CD90839884062
:10169000011C002A03D05A78114359700EE05A7881
:1016A00082435A700AE08840011C002A03D01A784D
:1016B0001143197002E01A7882431A70044B1B78A8
:1016C000002B01D1FFF71EFF08BDC046980D00207A
:1016D0005C0D0020F7B50E1C051C5421580700D4E2
:1016E00050210820034200D00143002A01D10123E8
:1016F000194329700024124F12483A5D6300C15A01
:101700001148019200F05CFB0E4F864203D3019A10
:1017100000246A7006E001341E2CECD1F7E7013496
:101720001E2C09D0064B09481B5D01936300F95A32
:1017300000F046FB8642F2D30198A870F7BDC04680
:10174000242B0000E82A000000366E01006CDC0249
:1017500010B5041CFFF7BEFF201C10BD37B5154B9C
:101760000124211C0A201C7001ADFEF7A1FF211CE1
:101770000A20FEF77DFF00F071FA221C281C0E499A
:101780000023FFF7E5FF0D4C6A780D4B21255A70B9
:10179000201C2A1C002100F0A9FEA5232370094B60
:1017A0009F211970A1215D7003229970013362702D
:1017B000DA7737BD5C0D002000093D00EE0C0020FB
:1017C00000600740CA0C0020F8B5844E844C301CE1
:1017D000211C212200F024F9824D0021281CFFF752
:1017E000C9FE002816DDAB78012B0AD1EB78022B5D
:1017F00000D0EAE02B79B3706B79F370AB79337179
:1018000008E0082B06D1EB782A791B021343737189
:101810001B0AB3712378A52B00D0D3E06378724AFA
:101820005377724B1978002901D1FFF76BFE05231E
:10183000E3568022D31A6C4AD3706C4A1378002B7B
:1018400001D1FFF75FFE0623E356674A7F3313712A
:10185000664A1378002B01D1FFF754FE644DA2783D
:10186000281CD2090121FFF7F9FEA278012692096E
:101870003240281C0221FFF7F1FEA278281C5209F1
:1018800032400321FFF7EAFEA278281C12093240F9
:101890000421FFF7E3FEE278281CD2090521FFF7B7
:1018A000DDFEE278281C920932400621FFF7D6FEC1
:1018B000E278281C520932400721FFF7CFFEE27878
:1018C000281C120932400821FFF7C8FEE278281CC4
:1018D000920832400921FFF7C1FEE278281CF2404D
:1018E00032400A21FFF7BAFE2279281CD208324082
:1018F0000B21FFF7B3FE2279281C920832400C21FD
:10190000FFF7ACFE2279281CF24032400D21FFF790
:10191000A5FE2279281C520932400E21FFF79EFEB7
:10192000E278281CD20832400F21FFF797FEE278B8
:10193000281C32401021FFF791FE2E4E33785A1E9C
:10194000D2B2132A1CD92C4FE27900233A7052B23A
:101950000132337053425A41D2B2281C1121FFF791
:101960007DFE0022BA56281C013A53425A41D2B297
:101970001221FFF773FE0023FB56002B02D03378B1
:1019800001333370A0780F2318401C4B082810D85F
:1019900000F0B4F90507090F0B0F0F0F0D00FF2220
:1019A00006E0002204E0062202E0022200E0042217
:1019B0001A801B880C4A53710C4A1378002B01D1F2
:1019C000FFF7A0FDFFF79EFDF8BD032B00D021E738
:1019D0002B79F3716B7933721CE7C046EE0C002053
:1019E000120D0020BF0C0020980D00205C0D00207F
:1019F0005D0D0020ED0C0020C90C0020100D002012
:101A0000031CFF20002907D01A7801395040034AEF
:101A10000133105CC9B2F5E77047C04604020020EC
:101A2000F7B5561E0C1CF1B2171C051CFFF7E8FF9A
:101A30006B1CD87700210A20FEF71AFE1E4B18787F
:101A40005B78009001931D4B1A68002A08D072B68B
:101A50001B4A1868116801401A480160116062B69B
:101A6000009A1949CA70019800224870BA420ADAED
:101A7000A85C887108680006FCD513484068000C13
:101A8000A0540132F2E71B68002B03D00D4B1A68FB
:101A90000E4B1A600A200121FEF7EAFD231C1A1BD7
:101AA000B24207DA19785A784900D2090A431A7003
:101AB0000133F4E7F7BDC046340D0020540D00207B
:101AC00080E100E0580D00200060074000E100E0E8
:101AD000034B50221A7000225A709A707047C04609
:101AE000340D002008B50368C9B21B68984708BDCB
:101AF00008B50368C9B21B68984708BD08B50368F4
:101B0000C9B21B68984708BD08B50368C9B21B680D
:101B1000984708BD08B5044B4808C01800F002F902
:101B2000FEF788FE08BDC046C0C62D0010B5064BA6
:101B30004808C018141C00F0F5F8FEF77BFE201CC6
:101B4000FEF7BEFE10BDC046C0C62D0008B5FEF7AC
:101B5000E7FE08BD08B5081CFEF71CFF08BD08B568
:101B6000081CFEF739FF431E9841C0B208BD08B5F6
:101B7000081CFEF757FF431E9841C0B208BD08B5C8
:101B8000FEF7F4FF08BD08B5FFF730F808BD08B54B
:101B9000FEF7FCFF08BD08B5FEF7CAFF08BD08B593
:101BA000FFF740F808BD08B5FEF7CEFF08BD08B541
:101BB000081CFEF75FFF012008BD08B5081CFEF7F2
:101BC00059FF012008BD10B5081C141C111CFEF79C
:101BD000A3FF201C10BD38B5081C0D1C00F0EAFC4A
:101BE000041C211C281CFEF797FF201C38BD7047E1
:101BF000044B00221A711A73FA21034A8900996072
:101C00001A607047380D0020982A000008B50B4B69
:101C10001A68002A04D001221A60094B1B689847F1
:101C2000084B1B78002B08D0074B1A68002A04D0F9
:101C300001221A60024B5B68984708BD0C71034093
:101C40004C0D0020480D00201C71034008B5FFF723
:101C500085FDFFF7B9FD00F03FF8FAE7154B80224C
:101C60001968D2030A431A60134B5022DA7000221B
:101C70009A701B68114B1B78D90703D490218900F7
:101C80000F4A02E080210F4A8900116080229200F1
:101C9000990701D40C4900E00C490A605A0703D4A3
:101CA000902292000A4B02E080220A4B92001A60B6
:101CB0007047C0463480044000600740BE0C0020DE
:101CC00018B0044008C004401CB004400CC00440DC
:101CD00014B0044004C0044010B5074C2378002B16
:101CE00009D101232370FEF741FF002801D0FFF73F
:101CF0007EFF0023237010BD5E0D002002B47146EC
:101D000049084900095C49008E4402BC7047C0463E
:101D100003B47146490840004900095A49008E44FD
:101D200003BC7047002934D00123002210B488423C
:101D30002CD301242407A14204D2814202D20901FA
:101D40001B01F8E7E400A14204D2814202D249001B
:101D50005B00F8E7884201D3401A1A434C08A042BE
:101D600002D3001B5C0822438C08A04202D3001B54
:101D70009C082243CC08A04202D3001BDC0822436B
:101D8000002803D01B0901D00909E3E7101C10BC8F
:101D90007047002801D00020C04307B4024802A1C8
:101DA0004018029003BDC046D90000000029F0D0C1
:101DB00003B5FFF7B9FF0EBC4243891A1847C04666
:101DC000002941D010B4041C4C40A4460123002239
:101DD000002900D54942002800D5404288422CD332
:101DE00001242407A14204D2814202D209011B012D
:101DF000F8E7E400A14204D2814202D249005B002C
:101E0000F8E7884201D3401A1A434C08A04202D393
:101E1000001B5C0822438C08A04202D3001B9C08D4
:101E20002243CC08A04202D3001BDC082243002836
:101E300003D01B0901D00909E3E7101C6446002CFC
:101E400000D5404210BC7047002806D003DB0020BC
:101E5000C043400801E08020000607B4024802A108
:101E60004018029003BDC046190000000029EBD0C5
:101E700003B5FFF7A7FF0EBC4243891A1847C046B7
:101E80007047C0461C2101231B04984201D3000C5B
:101E900010391B0A984201D3000A08391B099842DD
:101EA00001D30009043902A2105C40187047C046F3
:101EB0000403020201010101000000000000000013
:101EC00008B5011C00220020002300F07BFB08BDA8
:101ED00038B5094B094DED1AAD1009D0013DAC00E4
:101EE000E41800E0013D23689847043C002DF9D137
:101EF00000F03AFE38BDC0460000000000000000BF
:101F000070B50D4E0D4D0024AD1BAD1005D0A300D6
:101F1000F35801349847A542F9D100F017FE084E56
:101F2000084D0024AD1BAD1005D0A300F3580134BB
:101F30009847A542F9D170BD582B0000582B0000DE
:101F4000582B0000682B000008B5034B011C1868D3
:101F500000F004F808BDC04630070020F0B5564632
:101F600044465F464D46F0B40C1C0B3483B0061C4F
:101F7000162C2BD907239C432BD4A14229D8301CE3
:101F800000F002FBF823FF339C4226D8E208CA4D3A
:101F9000D300EB18DF689F4200D1BBE178680323D0
:101FA000FA68B96898433B18CA6091605968012281
:101FB0000A43301C5A6000F0E9FA381C083003B0BC
:101FC0003CBC90469946A246AB46F0BD1024A142C7
:101FD000D5D90C2333600020F1E7630A00D18EE0ED
:101FE000042B00D93DE1A30938339C465900B24D7A
:101FF00089006918CF68B94215D07A6803239A43DB
:10200000101B0F2800DD8DE000287CDA032007E09C
:102010007A688243131B0F2B00DD83E0002B72DAFA
:10202000FF68B942F4D1012294442B1C2F69083374
:102030009F4200D163E1786803229043021C011B98
:102040000F2900DD4AE16B612B6100295FDA9B4BB0
:10205000984200D90FE1C3089A100121DB00EB1868
:10206000914068680A1C99680243FB60B9606A6025
:102070009F60CF6061468B1001219940914255D8F5
:1020800011420DD1032360469843031C04334900D9
:102090009C46114204D1042349009C441142FAD0C9
:1020A000032080466246D3005B199A46181CE1461D
:1020B000C768B84207D124E1002B00DB33E1FF6899
:1020C000B84200D11DE17A6843469A43131B0F2B97
:1020D000F2DD01213A190C437C60F868BC680835D0
:1020E000E06019438460EA60AA60301CD5609560A6
:1020F0005160D35000F04AFA381C08305FE73F22A5
:102100007E21944673E7FB68B968CB609960BA1882
:10211000516801230B43301C536000F037FA381C20
:1021200008304CE70120404284447CE7AF68032339
:10213000786898438146A04203D3031B0F2B00DD30
:1021400081E05F4A5F4B49461B681068791801912E
:10215000E3189346013000D147E15B495B181B0B44
:102160001B030093301C009900F012FA021C8046F9
:1021700001325DD0019B834200D9EBE053480099C6
:10218000026882468B1801990360414500D135E110
:102190005A461268013200D143E1019841460A1AB9
:1021A0009B1851460B6007234246134000D104E1BF
:1021B000D21A08329046464AD31A0098021C42446A
:1021C0001205120D9A1A111C301C934600F0E0F90A
:1021D000411C00D121E14246801A58440123184392
:1021E000524611680B1C5B444146A960136048606D
:1021F000AF4213D04A460F2A00D8E9E04A46786831
:1022000007210C3A8A4301210140114379600520DE
:10221000B918486088600F2A00D906E12D4A106875
:10222000834200D913602C4A11688B4200D9136095
:10223000AF6803237A689A43131B944200D9AEE037
:102240000F2B00DCABE00122211C11433C1913438E
:102250007960301CAC60636000F098F9381C08307D
:10226000ADE6142B6ED9542B00D99DE0230B6E33B1
:102270009C465900BBE6430A042B67D9142B00D9AE
:10228000B6E0191C5B314800800040198368814624
:10229000834200D194E00321884659684046814337
:1022A0008A4202D29B689945F7D1D9686A68F96079
:1022B000BB608F60DF60DDE634070020FF010000B7
:1022C000400B0020680D00200F1000006C0D002056
:1022D00008100000640D0020600D002001203A1954
:1022E000044308437C606A612A615060D360936054
:1022F000301C515000F04AF9381C08305FE66A681B
:10230000B8E60122914443464A460830134200D0C1
:10231000CEE62CE03B1C7F69023208339446BB4278
:1023200000D182E63AE6BA185068012303435360AD
:10233000FB68BA68301CD3609A6000F027F9381C3B
:1023400008303CE65B339C46590050E68109383141
:10235000480099E7AF4200D06AE70FE75346186894
:1023600001225242083B94448246984277D1434628
:1023700060460342F2D16B688B436B60490099421F
:1023800000D9D3E6002900D1D0E6CC46194200D0CE
:1023900088E60422490094441942FAD082E6301CAF
:1023A00000F0F4F800200AE6AA225200934214D862
:1023B000E30B77339C46590019E680235B01FCE66A
:1023C0008910686801228A4002436A60191C6EE71E
:1023D00001234B60474600222EE7224A934218D839
:1023E000A30C7C339C46590001E610330093B9E6F8
:1023F000542B22D8010B6E31480045E70A0500D066
:10240000C6E60099AA68081C4844012101435160AE
:1024100004E77E23FC219C46E9E5002301209B463E
:10242000DEE6434658460360BDE6391C0831301CE1
:1024300000F084F951460B68F0E6AA2149008B426E
:1024400003D8C10B773148001EE706498B4203D8F9
:10245000810C7C31480017E7FC207E2114E76B6873
:102460008CE7C04654050000F0B50F2A35D9031C8F
:102470000B439C0735D1161C103E36093501451912
:1024800010350C1C031C27681F6067685F60A76815
:102490009F60E7681034DF601033AB42F3D1731CE8
:1024A0001B01C518C9180F231340032B1BD91C1F70
:1024B000A4080134A4000023CE58EE500433A342F4
:1024C000FAD1ED18C91803231A4005D00023CC5CBB
:1024D000EC5401339342FAD1F0BD051C002AF5D12A
:1024E000FAE7051CF2E71A1CF8E7C046F0B58307C7
:1024F00046D0541E002A42D0CEB2031C032503E06E
:10250000621E002C3BD0141C01335A1E16702B4245
:10251000F6D1032C2BD9FF250D402A0215432A049E
:1025200015430F2C15D9271C103F3F091E1C3A01DB
:102530001036B6181A1C156055609560D5601032BB
:10254000B242F8D101373F010F22DB191440032CAE
:102550000DD9271FBF08BA001E1DB6181A1C20C2AD
:10256000B242FCD10137BF000322DB191440002C1A
:1025700005D01C19C9B219700133A342FBD1F0BDBB
:10258000141C031CC5E7C0467047C0467047C046D0
:1025900038B5074C0023051C081C2360FEF70CF817
:1025A000431C00D038BD2368002BFBD02B60F9E71B
:1025B000B80D00200023C25C0133002AFBD1581E55
:1025C0007047C046F0B54F464646C0B498462B4BC0
:1025D000A4251B686D005C5983B0061C0F1C914636
:1025E0000193002C44D065681F2D1ADD244B002B6D
:1025F00002D1012040421CE0C8204000FFF7A4FCAB
:10260000041EF6D000254560A42301985B00C05845
:1026100001992060CC50C4235B00E550C6235B00C9
:10262000E550002E0AD16B1C0235AD00636000201E
:102630002F5103B00CBC90469946F0BDAB00E31897
:10264000882248469850C420400022181068012172
:10265000A940084310608422520040469850022E40
:10266000E1D1C6225200A318186801431960DAE7C5
:102670001C1C4D34FF345C51B5E7C046482B0000AC
:10268000491F000008B5034B002B02D00248FFF79A
:1026900017FC08BD00000000D11E0000F8B50F1C9B
:1026A000041CFFF771FF204D204AAB685E680323CE
:1026B0009E43F71BBF183F0B1D4B013F3F039F423B
:1026C00007DD201C0021FFF763FFAA6893199842D9
:1026D00004D0201CFFF75AFF0020F8BD7942201CCF
:1026E000FFF756FF01300DD0AB68F61B01221643F1
:1026F0005E60104B201C1A68D71B1F60FFF746FF57
:102700000120EAE7201C0021FFF742FFAB68C21A54
:102710000F2ADEDD08490968401A064908600121D0
:102720000A435A60D5E7C04634070020EF0F000087
:10273000FF0F00006C0D0020400B0020F0B5474655
:1027400080B4051C0C1E55D0FFF71EFF211C083954
:1027500048680127031CBB43CA18546880460320FD
:102760008443201C534CA668964260D00026B44691
:102770004646506037420AD10E68271C891B9B19B8
:102780008E680837BE426BD0CF68F760BE601618FF
:10279000766801273E4207D11B18604600282CD0DE
:1027A0009068D268C26090600122181C104366468F
:1027B0004860CB50002E1AD13F48834229D95A0A8B
:1027C000042A50D89E09383670008000201882688C
:1027D00082424ED003265468B443A34202D2926888
:1027E0009042F8D1D368CB608A609960D160281C90
:1027F000FFF7CCFE04BC9046F0BD90682F4EB0426F
:10280000CFD11F43C1608160C86088604F60CB50EA
:10281000EDE7DB08981082406068DB0002436260ED
:10282000E418A368CC608B60A160D960DFE7C318AF
:102830004046074206D10A68891A88689B18CA6808
:10284000C260906001221A434A601D4AA16012686A
:102850009342CCD31B4B281C1968FFF71FFFC6E718
:102860000126B44693E7142A0CD8161C5B36700078
:10287000ABE7B6100123B3401E1C63681E436660BD
:10288000131CB0E7542A03D81E0B6E3670009CE769
:10289000AA204000824203D8DE0B7736700094E70E
:1028A0000948824203D89E0C7C3670008DE7FC20DC
:1028B0007E268AE734070020FF0100003C07002045
:1028C0003C0B0020680D002054050000420000F879
:1028D00040A0044001000000420000F844A0044071
:1028E00002000000C00000F800C004400100000029
:1028F000000000F80490044002000000000000F80E
:102900000890044004000000C00000F81CC004400F
:1029100080000000C00000F810C00440100000005B
:10292000C00000F808C0044004000000C00000F827
:102930000CC0044008000000800000F80CB0044007
:1029400008000000800000F810B0044010000000F3
:10295000800000F818B0044040000000800000F83B
:102960001CB0044080000000800000F814B0044057
:1029700020000000C00000F804C004400200000075
:10298000800000F800B0044001000000400000F8A2
:1029900000A0044001000000400000F804A0044032
:1029A00002000000400000F80CA0044008000000F5
:1029B000400000F808A0044004000000C00000F837
:1029C00014C0044020000000C00000F818C00440FB
:1029D00040000000800000F804B004400200000045
:1029E000800000F808B0044004000000020100F874
:1029F00050D0044010000000020100F854D0044000
:102A000020000000030100F878D0044040000000DE
:102A10001D19FFFF00010000C80000201200000087
:102A2000000200000A01002029000000002200002E
:102A30003301002091000000002100001C01002053
:102A40000900000000030000E40100200000000075
:102A500001030904FA000020000000000203090439
:102A6000C40100200000000003030904E801002065
:102A70000000000004030904DA0000200000000048
:102A8000000000000000000000000000FFFFFFFF4A
:102A90000000000000000000AF1B0000C71B00008A
:102AA0007F1B00008F1B0000871B0000971B00008E
:102AB000151B00002D1B00004D1B0000551B0000C6
:102AC0005F1B00006F1B00009F1B0000A71B000086
:102AD000E51A0000F11A0000FD1A0000091B0000B1
:102AE000D71B0000BB1B000002000400060008000A
:102AF0000A000C000E001000140018001C0020003A
:102B00002800300038004000500060007000800055
:102B1000A000C000E000000140018001C0010002EF
:102B200080020003001020304050607041516171FC
:102B300042526272435363734454647445556575DD
:102B40004656FFFF4300000008030020F8B5C046CA
:102B5000F8BC08BC9E467047852600009104000022
:082B6000D11A0000F11B000076
:042B6800F8B5C046B6
:102B6C000A040000BC0D002012010002000000400D
:102B7C00B70E8E03010201020301200343006C0017
:102B8C0075006200530070006F007200740020002A
:102B9C0057006800650065006C001003640061005C
:102BAC0072006B006E0061006F00090229000101C8
:102BBC0000C03209040000020300000409211101C5
:102BCC000001229100070581032000020705010383
:102BDC0007000205010904A10105091901291215B3
:102BEC00002501750195128102950175068101057B
:102BFC000109300931150026FF0075089502810284
:102C0C0005010939150025073500463B016514758A
:102C1C000495018142953575048101050A09011558
:102C2C00002501A1020508094B750195019102C00F
:102C3C000902A1020508094B750195019102C00911
:102C4C0003A1020508094B750195019102C0090405
:102C5C00A1020508094B750195019102C0950D75EE
:102C6C00049101C0200343006C0075006200530006
:102C7C0070006F007200740020005700680065003F
:102C8C0065006C00040309040C0300000000000044
:102C9C000000000000000000000000000000000028
:102CAC00FFFFFFFF005EBCE2613FDD83C29C7E2024
:102CBC00A3FD1F419DC3217FFCA2401E5F01E3BD0C
:102CCC003E6082DC237D9FC1421CFEA0E1BF5D0300
:102CDC0080DE3C62BEE0025CDF81633D7C22C09EF4
:102CEC001D43A1FF4618FAA427799BC584DA3866E0
:102CFC00E5BB5907DB856739BAE406581947A5FBCC
:102D0C007826C49A653BD987045AB8E6A7F91B45BF
:102D1C00C6987A24F8A6441A99C7257B3A6486D8B3
:102D2C005B05E7B98CD2306EEDB3510F4E10F2AC9F
:102D3C002F7193CD114FADF3702ECC92D38D6F318B
:102D4C00B2EC0E50AFF1134DCE90722C6D33D18F7F
:102D5C000C52B0EE326C8ED0530DEFB1F0AE4C1273
:102D6C0091CF2D73CA947628ABF517490856B4EA5F
:102D7C006937D58B5709EBB536688AD495CB29774B
:102D8C00F4AA4816E9B7550B88D6346A2B7597C93F
:102D9C004A14F6A8742AC896154BA9F7B6E80A5433
:102DAC00D7896B350000000000000000F4050020FE
:102DBC005C060020C406002000000000000000009B
:102DCC0000000000000000000000000000000000F7
:102DDC00000000000000000000000000442B000078
:102DEC0000000000000000000000000000000000D7
:102DFC0000000000000000000000000000000000C7
:102E0C0000000000000000000000000000000000B6
:102E1C0000000000000000000000000000000000A6
:102E2C000000000000000000000000000000000096
:102E3C000000000000000000000000000000000086
:102E4C000000000000000000000000000000000076
:102E5C0001000000000000000E33CDAB34126DE613
:102E6C00ECDE05000B00000000000000000000007C
:102E7C000000000000000000000000000000000046
:102E8C000000000000000000000000000000000036
:102E9C000000000000000000000000000000000026
:102EAC000000000000000000000000000000000016
:1031DC00080300200000000000000000340700205D
:1031EC00340700203C0700203C0700204407002047
:1031FC00440700204C0700204C07002054070020F7
:10320C00540700205C0700205C07002064070020A6
:10321C00640700206C0700206C0700207407002056
:10322C00740700207C0700207C0700208407002006
:10323C00840700208C0700208C07002094070020B6
:10324C00940700209C0700209C070020A407002066
:10325C00A4070020AC070020AC070020B407002016
:10326C00B4070020BC070020BC070020C4070020C6
:10327C00C4070020CC070020CC070020D407002076
:10328C00D4070020DC070020DC070020E407002026
:10329C00E4070020EC070020EC070020F4070020D6
:1032AC00F4070020FC070020FC0700200408002085
:1032BC00040800200C0800200C0800201408002032
:1032CC00140800201C0800201C08002024080020E2
:1032DC00240800202C0800202C0800203408002092
:1032EC00340800203C0800203C0800204408002042
:1032FC00440800204C0800204C08002054080020F2
:10330C00540800205C0800205C08002064080020A1
:10331C00640800206C0800206C0800207408002051
:10332C00740800207C0800207C0800208408002001
:10333C00840800208C0800208C08002094080020B1
:10334C00940800209C0800209C080020A408002061
:10335C00A4080020AC080020AC080020B408002011
:10336C00B4080020BC080020BC080020C4080020C1
:10337C00C4080020CC080020CC080020D408002071
:10338C00D4080020DC080020DC080020E408002021
:10339C00E4080020EC080020EC080020F4080020D1
:1033AC00F4080020FC080020FC0800200409002080
:1033BC00040900200C0900200C090020140900202D
:1033CC00140900201C0900201C09002024090020DD
:1033DC00240900202C0900202C090020340900208D
:1033EC00340900203C0900203C090020440900203D
:1033FC00440900204C0900204C09002054090020ED
:10340C00540900205C0900205C090020640900209C
:10341C00640900206C0900206C090020740900204C
:10342C00740900207C0900207C09002084090020FC
:10343C00840900208C0900208C09002094090020AC
:10344C00940900209C0900209C090020A40900205C
:10345C00A4090020AC090020AC090020B40900200C
:10346C00B4090020BC090020BC090020C4090020BC
:10347C00C4090020CC090020CC090020D40900206C
:10348C00D4090020DC090020DC090020E40900201C
:10349C00E4090020EC090020EC090020F4090020CC
:1034AC00F4090020FC090020FC090020040A00207B
:1034BC00040A00200C0A00200C0A0020140A002028
:1034CC00140A00201C0A00201C0A0020240A0020D8
:1034DC00240A00202C0A00202C0A0020340A002088
:1034EC00340A00203C0A00203C0A0020440A002038
:1034FC00440A00204C0A00204C0A0020540A0020E8
:10350C00540A00205C0A00205C0A0020640A002097
:10351C00640A00206C0A00206C0A0020740A002047
:10352C00740A00207C0A00207C0A0020840A0020F7
:10353C00840A00208C0A00208C0A0020940A0020A7
:10354C00940A00209C0A00209C0A0020A40A002057
:10355C00A40A0020AC0A0020AC0A0020B40A002007
:10356C00B40A0020BC0A0020BC0A0020C40A0020B7
:10357C00C40A0020CC0A0020CC0A0020D40A002067
:10358C00D40A0020DC0A0020DC0A0020E40A002017
:10359C00E40A0020EC0A0020EC0A0020F40A0020C7
:1035AC00F40A0020FC0A0020FC0A0020040B002076
:1035BC00040B00200C0B00200C0B0020140B002023
:1035CC00140B00201C0B00201C0B0020240B0020D3
:1035DC00240B00202C0B00202C0B002000000200E0
:0435EC00FFFFFFFFDF
:00000001FF
