:1000000000800020BD01000035090000010900004A
:1000100001090000010900000109000001090000B8
:100020000109000001090000010900003509000074
:10003000350900000109000035090000F108000041
:1000400035090000350900003509000035090000B8
:1000500035090000350900003509000035090000A8
:100060003509000035090000350900003509000098
:100070003509000035090000350900003509000088
:100080003509000035090000350900003509000078
:100090003509000035090000350900003509000068
:1000A0003509000035090000350900003509000058
:1000B0003509000035090000350900003509000048
:1000C0003509000035090000350900003509000038
:1000D0003509000035090000350900003509000028
:1000E0003509000035090000350900003509000018
:1000F0003509000035090000350900003509000008
:1001000035090000350900003509000035090000F7
:1001100035090000350900003509000035090000E7
:1001200035090000350900003509000035090000D7
:1001300035090000350900003509000035090000C7
:1001400035090000350900003509000035090000B7
:10015000DD150000F51500000D1600002516000045
:1001600035090000450D0000350900003509000083
:100170003509000035090000350900003509000087
:100180003509000035090000350900003509000077
:100190003509000035090000350900003509000067
:1001A0003509000035090000350900003509000057
:1001B000350900003509000035090000554B4CF2A7
:1001C000205210B51A804DF628121A8000BF00BFC9
:1001D00000F0B4FB504B4FF010621A604F4A9A6027
:1001E0004F4ADA604F4B1A6812F4807204D14E49BC
:1001F0000A604FF4A8521A604C4B1A78120703D5C4
:100200001A7842F008021A70494B2A221A70002309
:10021000484A49499818884204D24849595899503F
:100220000433F5E7464A474B9A424FF0000302D2A7
:1002300042F8043BF7E74449444A5958995004337B
:10024000B3F5DE7FF7D1424B802103F8011B414912
:100250008B42F9D1404B1A60404B0A221A70A3F529
:10026000805324225A70A0221A709A799407FCD5E0
:100270009A79D006FCD43A4B9A7902F00C02082AFB
:10028000F9D103221A7140225A719A799106FCD54C
:10029000334B9A795206FBD5324A33491160022119
:1002A000516020221A702E4B9B7903F00C030C2B0B
:1002B000F9D12E4A2E4B1A602E4B45F6BF521A60CA
:1002C00000225A60072243F8042C2B4AC3F80C2D55
:1002D00062B600F0DFFB144B1B68DB0705D527482F
:1002E00000F05AFB264A274B1A60274B1B785C0606
:1002F00009D5244C224A2368934204D11F4800F0B8
:100300004BFB0023236001F039FA00F01DFB01F0E4
:1003100095F9FEE70E20054030800440823F04003E
:100320000100002B10D0034014D0034002D007403E
:1003300000E00740C08AFF1F4495FF1F50230000C4
:100340004495FF1F0897FF1F000000000082FF1F59
:1003500000E400E05FE400E008ED00E0005006404B
:10036000004006404480044000000333C0100500F4
:100370000480044014E000E00000202000DD68500C
:10038000A5C3945A1CE0034000F00740FFFFFFFFA5
:10039000FFFFFFFFFFFFFFFFFFFFFFFFFFFFFFFF6D
:1003A000FFFFFFFFFFFFFFFFFFFFFFFFFFFFFFFF5D
:1003B000FFFFFFFFFFFFFFFFFFFFFFFFFFFFFFFF4D
:1003C000FFFFFFFFFFFFFFFFFFFFFFFFFFFFFFFF3D
:1003D000FFFFFFFFFFFFFFFFFFFFFFFFFFFFFFFF2D
:1003E000FFFFFFFFFFFFFFFFFFFFFFFFFFFFFFFF1D
:1003F000FFFFFFFFFFFFFFFFFFFFFFFFFFFFFFFF0D
:10040000FFFFFFFFFFFFFFFFFFFFFFFFFEFFFFFFFD
:1004100008B549F24450074BC1F6FF701B1A062B72
:1004200000D808BD40F20003C0F20003002BF8D052
:100430009847F6E74795FF1F08B549F2445049F23F
:100440004453C1F6FF73C1F6FF701B1A9B1003EBF8
:10045000D373591000D108BD40F20002C0F200026F
:10046000002AF8D09047F6E710B549F24454C1F697
:10047000FF74237873B9FFF7CBFF40F20003C0F29B
:1004800000032BB142F25030C0F20000AFF3008005
:100490000123237010BD00BF08B540F20003C0F275
:1004A00000034BB142F2503049F24851C0F2000013
:1004B000C1F6FF71AFF3008049F24450C1F6FF70FE
:1004C00003682BB140F20003C0F2000303B1984768
:1004D000BDE80840B0E700BF0139C9B211292ED8E4
:1004E0000F29174B0CD91039012000FA01F112B174
:1004F0009A78114302E09A7822EA0101997019E092
:1005000007294FF001000BD9083900FA01F112B1A7
:100510005A78114302E05A7822EA0101597009E041
:1005200000FA01F112B11A78114302E01A7822EAB6
:1005300001011970034B1B780BB900F0F9BE70472D
:10054000E496FF1FA996FF1FF0B5002A0CBF4FF0DD
:1005500064524FF0605200240F4E104FA65B104DB6
:1005600097FBF6F6B14255F8145004D3190706D597
:1005700042F0806203E002342E2CEDD1F6E75B07F7
:1005800007D525F4704305F4704542F0007243EA44
:1005900015152A430260F0BDA022000000366E014E
:1005A000D022000010B50446FFF7CEFF204610BD54
:1005B00013B50A20012100F01FFA0A20012100F0E2
:1005C000FBF901F05BF80C490C4C0122002301A857
:1005D000FFF7E8FF019801F097F8094B01221A7024
:1005E00020460021212201F0B1FBA5232370032323
:1005F000637002B010BD00BF00093D006C95FF1F85
:10060000A996FF1F2DE9F041814D824C8249284671
:10061000212200F083FF2046002100F0C3FE0028C5
:1006200015DDA378012B0AD1E378022B40F0E88096
:100630002379AB706379EB70A3792B7107E0082BFA
:1006400005D1E278237943EA0223A5F80530724CFC
:100650002378A52B40F0D0806378704F704E7B7765
:1006600033780BB900F064FE94F90530C3F18003D0
:10067000FB7033780BB900F05BFE94F906307F33E2
:100680003B7133780BB900F053FEA2786548664D94
:100690000121D209FFF720FFA27862480221C2F3AC
:1006A0008012FFF719FFA2785E480321C2F34012BF
:1006B000FFF712FFA2785B480421C2F30012FFF794
:1006C0000BFFE27857480521D209FFF705FFE278D2
:1006D00054480621C2F38012FFF7FEFEE27851482B
:1006E0000721C2F34012FFF7F7FEE2784D480821D8
:1006F000C2F30012FFF7F0FEE2784A480921C2F384
:100700008002FFF7E9FEE27846480A21C2F3400280
:10071000FFF7E2FE227943480B21C2F3C002FFF744
:10072000DBFE22793F480C21C2F38002FFF7D4FEA2
:1007300022793C480D21C2F34002FFF7CDFE227919
:1007400038480E21C2F34012FFF7C6FEE278354862
:100750000F21C2F3C002FFF7BFFEE278314802F07A
:1007600001021021FFF7B8FE2B785A1ED2B2132ACD
:1007700023D900232B70284BDFF8B480DA7929487D
:1007800088F8002052B2B2F1FF3EDEF1000252EBD7
:100790000E021121FFF7A0FE98F900202148B2F1C6
:1007A000010CDCF100024FF0120152EB0C02FFF7DA
:1007B00093FE98F9003013B12B7801332B70A27897
:1007C0001A4B02F00F02082A10D8DFE802F00507E2
:1007D000090F0B0F0F0F0D00FF2206E0002204E0AF
:1007E000062202E0022200E004221A801B887B71AC
:1007F00033780BB900F09CFDBDE8F04100F098BDE6
:10080000032B7FF424AF2379EB7163792B721EE7FE
:100810006C95FF1F6095FF1F9095FF1FE496FF1FCB
:10082000A996FF1FAA96FF1F6B95FF1F8E95FF1FAE
:100830006A95FF1F214B60221A70E1225A70204BEB
:10084000204A1978204B082901D1002102E00A2909
:1008500007D13821116013221A601C4B19605A60AD
:100860000AE00C290CBF34203C20106012221A60D0
:100870001649174B08601A60164B17491B78174A20
:1008800003B101230B601360154B164A1978164B00
:10089000012901D880210BE0042901D8842107E037
:1008A000082901D8852103E0102994BF86218721DA
:1008B000116019600D4B01221A707047004007400B
:1008C000C08AFF1F08B003400CB0034008B00B40C3
:1008D0000CB00B40B395FF1F20B0034020B00B407D
:1008E000C18AFF1F24B0034024B00B40B295FF1F04
:1008F000024B1A6801321A60704700BFB495FF1F9F
:1009000008B50B4C2368580301D500F01BFA236887
:10091000590501D500F00EF823681A0501D500F03D
:1009200009F8034B1B68DB04EBD500F003F8E8E79C
:100930003480044008B5FFF7E3FFFFFF014B1022AE
:100940001A807047002005407047FFFF024A136875
:100950001844106018467047C48AFF1F10B5002362
:10096000B0FBF2F402FB1400092894BF303037309A
:10097000C0B2C85420460CB10133F1E7CA18547014
:1009800022469A4206DA885CCC5C8C54C854013208
:10099000013BF6E7084610BD044B054900221A60EA
:1009A0000A60044A106010221A60704714D0034095
:1009B00004D0034000D00340212810B518D80D4AB8
:1009C00052F8303093F880423CB1012211B183F8E3
:1009D000802010BD83F8002110BD02EBC0004368E9
:1009E0001A6811B142F0030201E022F002021A601B
:1009F00010BD00BF14210000212816D80B4A02EBBD
:100A0000C00301295B6852F8302004D182F88012BB
:100A10004FF4A27208E0002082F8800211B94FF46E
:100A2000807201E040F203121A6070471421000046
:100A300072B60B4B0B491A680B4B1B68096862B600
:100A4000490102D5322A88BF0133C2F5BB421821C1
:100A50003F32B2FBF1F24FF47A7000FB0320704793
:100A600018E000E004ED00E0B495FF1F38B504463F
:100A7000FFF7DEFF054664B1FFF7DAFF401BB0F574
:100A80007A7F03D3013C04D005F57A7500F054FE5B
:100A9000F2E738BD1E4B4FF4000210B51A604FF05C
:100AA00080721A604FF000721A604FF080621A6014
:100AB0004FF000621A60174B174A184C00204BF693
:100AC000FF7118605960282313609360136193616C
:100AD000136293621363936308222260104C2060B8
:100AE0006160A360236144F8042C0E4C20600E4822
:100AF00001600E490B608B600D4B1A60FFF79AFE88
:100B0000FA20FFF7B3FFBDE8104000F0D1BB00BFF3
:100B100008E100E0048003400C80034000800340B3
:100B20000490034004800B4008800B400C800B4075
:100B300000800B401FB572B6154B70221A70154A13
:100B4000412111700F2102F8011C80221A701A78BD
:100B50001206FCD5104B186862B6104B984298BF2D
:100B60000A2301AC98BF584321460A22FFF7F6FE3C
:100B70000023E15C0A4A29B102EB430001330A2B4E
:100B80004180F6D101335B00137004B010BD00BF8B
:100B90000000024007000240080002407F969800D3
:100BA000E88BFF1FF0B50C4B0C4C1A7842F0020595
:100BB00004EBC50682F00102706009481A700678DD
:100BC000002E0CBF8827C82786F0010647EA01419E
:100BD000067044F83510F0BD1096FF1F0080FF1F0F
:100BE0007896FF1F431E012B10B510D872B6094A24
:100BF00052F8230048B1416842F82310064A0188A0
:100C000032F81340611A22F8131062B610BD0020AA
:100C100010BD00BF0896FF1FE096FF1F0138012896
:100C20000AD872B6054B53F82030002013B10130BA
:100C30005B68FBE762B67047002070475496FF1F61
:100C400010B572B61A4B1A7812F0080F1C46194BE1
:100C500004D0194A116A81B1926AC2B1627812074E
:100C600004D5154A116C51B1926C92B162B6002252
:100C70001A70BDE8104000F0DFBB042200E008223B
:100C80000D4901EBC204083060600C4808E0052201
:100C900000E00922084901EBC204083060600848FE
:100CA00041F832001A78013A1A7062B610BD00BFDE
:100CB000242200006E96FF1F0080FF1F8800400066
:100CC000C8004000431E012B30B532D8194A4001FC
:100CD00040F01000104472B6174CE25C032A09D8A9
:100CE000DFE802F0160218050830022213E008308F
:100CF000042210E01148124A50F8234014B940F879
:100D0000231002E052F82300416042F823100FE064
:100D1000032200E00522E25410F0080F01F108035D
:100D20000A8843600CBF8823C82343EA0243036058
:100D300062B630BD0080FF1FC495FF1F5496FF1F91
:100D40005C96FF1F2DE9F047A94B1B78DBB25A07D1
:100D50000FD5A84A12784AB1A749087800F0FF02D7
:100D600020B1013AD2B20A7002B900BEA04A0421F1
:100D7000117003F0080101F0FF02002900F0318238
:100D80009E4B9F4C1A78D2B215094FEA920740F059
:100D9000AD8154F8372004EBC703C2F38302013A54
:100DA0005B680C2A00F29F81DFE812F0770177017F
:100DB0009D019D019D019D019D019D017B019D0165
:100DC0009D019D010D001A688E4D5B682A606B6065
:100DD0008D4B8E4844F8373092B28D4F002301215D
:100DE000B2F5A06F3B602361A361017000F02C811C
:100DF00014D8822A00F0B88006D8802A40F0F48007
:100E0000844C2370637021E1B2F5817F00F0B980DA
:100E100040F202339A4200F0C280E5E0B2F5086F7A
:100E200000F09C8008D8A2F5D062012A00F2DC8094
:100E30006A88A988784BC6E0B2F5106F40F0D4807C
:100E4000AA786C4B6E4E1A7006F14008336A1B0686
:100E500003D5706A083800F0EFFA08364645F5D138
:100E60000026B046DFF8D89156F8090028B1D0F82E
:100E700004A000F0E1FA5046F8E749F80600674B95
:100E8000DFF8C091F05056F8090028B1D0F804A05E
:100E900000F0D2FA5046F8E7614B49F80600F050EE
:100EA000604B23F81800604B18F80320023A032A1D
:100EB00008D8DFE802F002040204002200E0012268
:100EC00003F8082008F10108B8F1020F06F1040642
:100ED000C8D1564B00221A7001269946544A554BE8
:100EE0003244334412F8012C9B0012F0080F1A70A0
:100EF0004FEA860825D000F081FA38B104EB46139A
:100F0000083058604C4B44F8383006E099F800300F
:100F100044F83800013389F8003000F06FFA48F0E7
:100F2000010338B104EBC30208305060364A44F87C
:100F3000332006E044F8330099F80030013389F893
:100F4000003048F00202013648F003080023032E67
:100F500044F8323044F83830C0D175E0254B2D4C80
:100F60001B7823700B4672E0AA88022A3CD8294CD1
:100F7000920023706370314B9B5C9E0766D5217095
:100F800064E0AA8802F07F02022A2DDC6B885BBB3A
:100F900091002A4A0A44117821F002010CE0AA8843
:100FA00002F07F02022A1FDC6B88EBB99100234A12
:100FB0000A44117841F00201117045E033F80C6CDD
:100FC000964207D00C3353F8084CA3F10C00002CC8
:100FD000F4D109E033F80A6C8E42F3D1120A032AE5
:100FE0000CBF2378038932E0144B0F221A7051E0B2
:100FF000802007407796FF1F1196FF1F9020074023
:101000000080FF1F6496FF1FC80040007896FF1FF6
:10101000B895FF1F6F96FF1F34220000BC95FF1F7D
:101020005C96FF1FE096FF1FC495FF1F6E96FF1F83
:101030002422000030C8011088004000C020074072
:101040000896FF1F5496FF1F1C4600E00223EE88FF
:10105000B34238BF1E46402E34BF35464025204699
:101060002946FFF79FFD761B2C4403D1402D11D15B
:10107000354603E0402E34BF3546402520462946FC
:10108000FFF790FD761B2C4401D1402D02D1724A0E
:101090003C6016800122714B24E0714B44F83730DC
:1010A00021E0704E3568A5B16B4FB7F80080B8F1FC
:1010B000400F34BF4446402428462146FFF772FDC6
:1010C000C4EB08039BB23B800BB9402C00D12B1919
:1010D0003360654B1A88B2F5A06F04D100225A70B4
:1010E0009A78624B1A7001225C4B6CE004EBC706E5
:1010F000013D736802F00802A3F10800EDB202F0AE
:10110000FF01002A36D000F097F95949594B51F8A0
:101110002520EAB1506841F8250002F1080171600C
:10112000595D03290BD8DFE801F00204060803210A
:1011300004E0022102E0052100E00421595516F0E7
:10114000080F12880CBF8823C82343EA024342E0F9
:101150005A5D032A07D8DFE802F04040020400226B
:1011600006E0012204E016F0080F0CBF0222032261
:101170005A5532E054F83720120C23F8082C22B3C9
:1011800023F8061C43F8041C3B49DFF820E151F822
:10119000253013B941F8250002E05EF825104860BB
:1011A000364B4EF8250033F815100A4423F8152065
:1011B00000F024F910B10830706006E0304B44F8BC
:1011C00037001A7801321A7007E0254B2D4A16F0C5
:1011D000080F08BF134644F837302B4B08221A700B
:1011E000B2E5DD0720D51D492648284C02230B70A7
:1011F000274B1A70274B1860986027481A61D860EF
:101200009A615C60254B0D2018702548FF23037000
:1012100000F8083C0274234A1370234B9F221A7073
:1012200001230B70BDE8F0871C0605D51B4A0D2174
:101230001170802102F8401C980706D5184A1178D1
:10124000C9B21170022102F8081CD90602D50E4B52
:1012500010221A70BDE8F0876C96FF1F942007409B
:10126000C8004000B895FF1F6496FF1F98200740F4
:101270005496FF1FC495FF1F0896FF1FE096FF1F9F
:101280006E96FF1F8800400080200740C895FF1F12
:101290001096FF1F0080FF1F1496FF1FC0200740FD
:1012A000882007408C20074084200740BC95FF1F02
:1012B00008B5FFF73FFC0022184B0021D1509818C9
:1012C0000832482A4160F7D1154A106840F480205E
:1012D0001060144AC3F307201070C3F307401B0EBD
:1012E00010751376FF2302F81C3C02F8143C02F838
:1012F0008C3C012302F8083C82F8641002F8183C88
:10130000094B70226FF450711A700B444FF4007245
:101310001A60064B10221A7008BD00BF0080FF1F24
:10132000348004409C20074049E400E00821074045
:1013300038B541F6B564184B1B7853B30120FFF75D
:101340006DFC0228154D02D9013C0DD10EE000F0D4
:1013500055F801460028F7D000232B70104B00F100
:10136000080203F1200007E02B7813B101232B7052
:101370000FE000F0E1F9DEE753F8044B834242F856
:10138000044BF9D120230B800120FFF79BFC0020A8
:1013900038BD4FF0FF3038BD7796FF1F7996FF1F9D
:1013A000E496FF1FF8B5134B1E6804460D461F4612
:1013B000114B1B78BBB10120FFF714FC034638B971
:1013C0003A68921BAA4211D88DB100F0B5F9EFE747
:1013D00053F8082F22609A88A2809B79A37100F0AD
:1013E0002BF80720F8BD4FF0FF30F8BDF8BD2846B8
:1013F000F8BD00BFB495FF1F7796FF1F72B60C4A69
:101400001168B1FA81F3172B02D962B60020704738
:101410004FF00040D84021EA0001116062B6054952
:1014200048225343C8180022CA504260704700BF88
:10143000008CFF1F0084FF1F0C4B4822C31AB3FB14
:10144000F2F3172B11D80A4A127822B1094A1278FE
:101450000AB1FFF7F5BB72B6074A4FF0004121FA17
:1014600003F311681943116062B670470084FF1FCF
:101470006E96FF1F7796FF1F008CFF1F10B5174B4E
:101480001B78EBB1D90707D5154A164914680968C6
:101490002140154C216011609A0707D5134A114964
:1014A000146849682140104C616011605B0707D5E2
:1014B0000F4B0C4A196892680A400B498A601A60FF
:1014C0000C4BDA68824207D00B4A1A600B4AD8608C
:1014D00040F0804018611A6010BD00BFA896FF1F41
:1014E00080E100E09096FF1F9C96FF1F84E100E0E2
:1014F00088E100E000C0024001401F0000001F80A2
:10150000FF2339B110F8012B5340034A0139D35C52
:10151000C9B2F6E718467047048CFF1FF8B5551E90
:101520000C46E9B217460646FFF7EAFF002186F8A7
:1015300020000A20FFF740FA1D4B1868FFF79EFFB6
:101540000023BB420DDAF25C1A494FF00040C8623A
:101550004A63CA6A002AFCDA164A926BE2540133E3
:10156000EFE7154B1B788BB1DF0703D5134A1168E2
:10157000134A11609E0703D5104A5168114A116041
:10158000580703D50D4B9A680F4B1A600A200121AA
:10159000FFF712FA23461A1BAA4207DA5A7819787B
:1015A000D20942EA410203F8012BF4E7F8BD00BF7B
:1015B0007C96FF1F00C00240A896FF1F9C96FF1F4D
:1015C00000E100E004E100E008E100E0024B4FF040
:1015D00038421A60704700BF7C96FF1F08B5034B66
:1015E00001221A60024B1B68984708BD0C7103402A
:1015F0008096FF1F08B5034B01221A60024B5B68FF
:10160000984708BD1C7103408096FF1F08B5034B27
:1016100001221A60024B9B68984708BD2C71034059
:101620008096FF1F08B5034B01221A60024BDB684E
:10163000984708BD3C7103408096FF1F08B5FEF730
:10164000B7FFFEF7DFFF00F077F8FAE7094BDA683B
:10165000824210B50DD01A6812F4804F40F08041DC
:1016600002D0D860196110BD034C1C60D8601961AC
:101670001A6010BD00C0024001401F00164B1A68DE
:1016800042F480521A60154B154A1A60154ADA6006
:1016900002F180421A61144A1A60144B1B78DA076F
:1016A00055BF134A134A4FF410714FF4007113F0F1
:1016B000020F11600CBF104910495B074FF4007214
:1016C00054BF0F4B0F4B0A6054BF4FF410724FF4CE
:1016D00000721A60704700BF3C80044000C00240A6
:1016E00001401F000110003800001F807A96FF1F84
:1016F00018B0044008C004401CB004400CC00440B2
:1017000014B0044004C00440094B1A6842F48052EB
:101710001A60084BDB6803F0E0629B0105D520F4FA
:10172000704300F4704043EA10101043FFF78EBF7F
:101730003C80044000C002407047FFFF014600208B
:101740000246034600F064BB38B540F2000440F2A4
:101750000005C0F20005C0F20004641BA41018BF0D
:1017600005EB840505D0013C55F8043D9847002C55
:10177000F9D1BDE8384000F0E9BD00BF70B542F2D4
:10178000403642F24035C0F20005C0F20006761B3A
:10179000B6101CBF043D002405D0013455F8043FA9
:1017A0009847A642F9D142F24C3642F24035C0F297
:1017B0000005C0F20006761B00F0BCFDB6101CBF91
:1017C000043D002406D0013455F8043F9847A64252
:1017D000F9D170BD70BD00BF49F23013C1F6FF737F
:1017E0000146186800F000B82DE9F04F01F10B0533
:1017F000162D87BF25F00705EB0F002310258D421E
:101800002CBF194643F0010183B00746002940F080
:10181000B58000F0E5FAB5F5FC7F1FD249F2341629
:10182000C1F6FF764FEAD50C06EBCC03DC689C4290
:1018300000F0F4816368E268A16823F003032344A5
:1018400038465D68CA6045F0010591605D6000F052
:10185000C9FA0834204603B0BDE8F08F5FEA552C82
:1018600004BF7E214FF03F0C40F08F8049F23416C8
:10187000C1F6FF7606EB8101CC68A14206D10DE0EE
:10188000002B80F26381E468A14207D0626822F0F5
:101890000302531B0F2BF3DD0CF1FF3C0CF1010C89
:1018A00049F23413C1F6FF73346903F1080E74452D
:1018B00008BF5A6822D0616821F003014A1B0F2A31
:1018C00000F39081002AC3F814E0C3F810E067DA4F
:1018D000B1F5007F80F05F81C90803EBC1004FEADA
:1018E000A1085A688168E0604FF0010909FA08F818
:1018F00048EA0202A1605A608460CC604FEAAC03FF
:1019000001209840904258D8024206D12CF0030C96
:10191000400002420CF1040CFAD006EBCC0844461D
:10192000E146E3689C4207D16FE1002A80F28081A2
:10193000DB689C4200F06981596821F003014A1B71
:101940000F2AF2DD1C46D3F80CC054F8088F591941
:1019500045F0010942F00105C3F804903846C8F883
:101960000CC0CCF8088071613161C1F80CE0C1F89D
:1019700008E04D608A5000F035FA6BE70C23002434
:101980000360204603B0BDE8F08FBCF1040F00F205
:10199000EE804FEA951C0CF1380C4FEA4C0165E7DC
:1019A000214438464B6843F001034B6000F01AFABB
:1019B0000834204603B0BDE8F08FB468636823F0B4
:1019C00003094D4504D8C5EB09030F2B00F3AE8086
:1019D00049F2B46349F2405AC1F6FF73C1F6FF7A87
:1019E0001B68DAF800102B4401311DBF03F580534A
:1019F0000F3323F47F6303F1100C18BF23F00F0C97
:101A000004EB0902614638460192CDF800C000F0AF
:101A1000EBF9B0F1FF3F8046019ADDF800C000F01D
:101A20001D81824200F2178149F2B86BC1F6FF7B3B
:101A30004245DBF800306344CBF8003000F05D81B4
:101A4000DAF8000049F24051013018BFC2EB080239
:101A5000C1F6FF7116BF9B18C1F80080CBF80030AB
:101A600018F007031FBFC3F108029044C3F5805369
:101A700003F1080A08EB0C0308BF4FF4805AC3F3C4
:101A80000B03C3EB0A0A5146384600F0ADF9431C7C
:101A900018BFC8EB0002DBF80030C6F8088015BF9D
:101AA00052444FF0000A42F0010201225344B44272
:101AB00049F2B86AC8F80420CBF80030C1F6FF7AC2
:101AC00015D0B9F10F0F40F2F8806168A9F10C024E
:101AD00022F0070201F0010EA118052042EA0E0EC5
:101AE0000F2AC4F804E04860886000F2128149F2CD
:101AF000B062C1F6FF72B46811688B4288BF136090
:101B000049F2AC62C1F6FF7211688B4288BF136064
:101B1000626822F003029542C5EB020301D80F2B45
:101B200004DC384600F05EF9002493E6621943F0C5
:101B3000010345F0010565603846B260536000F06E
:101B400051F90834204603B0BDE8F08F2244E36821
:101B50005068A16840F00105CB6038469960556037
:101B600000F040F90834204603B0BDE8F08FBCF126
:101B7000140F9CBF0CF15B0C4FEA4C017FF676AE64
:101B8000BCF1540F00F28F804FEA153C0CF16E0C43
:101B90004FEA4C016AE64B0A042B58D9142B9CBF20
:101BA00003F15B02500005D9542B00F2BA800A0BF6
:101BB0006E32500006EB800049F23418836883428D
:101BC000C1F6FF787FD05A6822F00302914202D218
:101BD0009B689842F7D1D9687268E160A3608C6015
:101BE000DC608BE6611942F0010645F00105656095
:101BF000384659611961C1F80CE0C1F808E04E603F
:101C00008A50083400F0EEF824E609F1010919F0D1
:101C1000030F04F108047FF484AE28E004F1080304
:101C20006469A34208BF0CF1020C3FF439AE01E62F
:101C300019441C464868DB6854F8082F40F0010539
:101C40004D603846D3609A6000F0CCF802E68A090D
:101C500038325000AEE7B4423FF4E6AEB468626892
:101C600022F0030257E7D8F8008098456BD11CF0AA
:101C7000030FA8F108030CF1FF3CF4D1736823EAC9
:101C800000037360400098423FF697AE00283FF48F
:101C900094AE0342CC467FF440AE400003420CF1C8
:101CA000040CFAD039E6BCF5AA7F17D84FEAD53C28
:101CB0000CF1770C4FEA4C01D8E50123C8F8043049
:101CC0004446002227E791100120D8F8042000FAAA
:101CD00001F10A43C8F8042019467EE740F2545344
:101CE0009C459DBF4FEA954C0CF17C0C4FEA4C0192
:101CF000FC2188BF4FF07E0CB8E5C2F30B01002930
:101D00007FF49EAE0CEB0901B26841F00101516015
:101D1000EDE604F10801384600F02EF9DAF800305B
:101D2000E5E6B3F5AA7F03D8CA0B7732500041E746
:101D300040F2545293429DBF8A0C7C325000FC20EA
:101D400088BF7E2236E773689CE700BFF0B4840743
:101D500043D0541E002A3ED0CDB2034603E0621E9B
:101D6000002C38D0144603F8015B9A07F7D1032CF6
:101D70002AD9CDB245EA05250F2C45EA054515D9E6
:101D8000A4F110073F0903F1100606EB07161A46E7
:101D9000156055609560D5601032B242F8D104F0FC
:101DA0000F040137032C03EB07130DD91E462246FF
:101DB000043A032A46F8045BFAD8221F22F00302F1
:101DC0000432134404F003042CB1C9B21C4403F8D8
:101DD000011BA342FBD1F0BC704714460346C6E783
:101DE000704700BF704700BF38B549F20474C1F6B0
:101DF000FF740023054608462360FEF7A7FD431C39
:101E000000D038BD2368002BFBD02B6038BD00BF4D
:101E1000F0B542F23034C0F2000485B02668D6F83E
:101E200048410746002C44D065681F2D21DD41F252
:101E3000D974C0F200041CB94FF0FF3005B0F0BDFA
:101E40004FF4C870039102920193FFF7C5FC039908
:101E5000029A019B04460028EED0D6F84851002093
:101E6000256060600546C6F84841C4F88801C4F89A
:101E70008C013FB9AB1C00200135656044F823108C
:101E800005B0F0BD04EB85004FF0010CC0F88820D0
:101E9000D4F888610CFA05F21643022FC4F8886161
:101EA000C0F8083102BFD4F88C311A43C4F88C2131
:101EB000E0E706F5A674C6F84841B5E740F200032E
:101EC000C0F200032BB141F24970C0F20000FFF7ED
:101ED00035BC7047F8B549F23414C1F6FF740F46AB
:101EE0000546FFF77DFFA3685E6826F00306F71B33
:101EF00007F6EF773F0B013F3F03B7F5805F07DB46
:101F000028460021FFF770FFA3683344984204D0AD
:101F10002846FFF767FF0020F8BD28467942FFF703
:101F200063FF013010D049F2B863C1F6FF73A168B6
:101F30001A68F61B46F001062846D71B4E601F6044
:101F4000FFF750FF0120F8BD28460021FFF74CFFA6
:101F5000A368C21A0F2ADBDD49F24054C1F6FF74B0
:101F600049F2B8612468C1F6FF7142F00102001B1A
:101F70005A600860CCE700BF2DE9F8430E46814661
:101F8000002960D0FFF72CFF56F8041CA6F10804C6
:101F900021F00103E21849F234155768C1F6FF75C4
:101FA00027F00300AF68974263D011F0010C506036
:101FB00018BF002111D156F8081C641A05F1080851
:101FC000A668464518BFD4F80C800B441DBFC6F860
:101FD0000C806146C8F80860012116187668F6077B
:101FE00008D40344906811B9494EB04260D0D26819
:101FF000C260906043F001026260E350F1B9B3F552
:10200000007F22D35A0A042A5BD89809383041004D
:1020100005EB810549F23411AA68AA42C1F6FF71A5
:102020005BD0516821F003018B4202D29268954245
:10203000F7D1D368E360A2609C60D4604846BDE8F5
:10204000F843FFF7CFBEBDE8F883DB0805EBC3021A
:1020500068689168E26001269B1006FA03F3184352
:10206000A160686094604846CC60BDE8F843FFF723
:10207000B9BECF07184407D456F8083CE41A1844F0
:10208000A268E368D3609A6049F23C52C1F6FF72DD
:1020900040F00101136861609842AC60CED349F210
:1020A000B463C1F6FF7348461968FFF713FFC5E72D
:1020B00043F001026C612C61E060A0606260E3505B
:1020C000BCE7142A9CBF02F15B004100A0D9542A4E
:1020D0000CD8180B6E3041009AE74B688010012530
:1020E00005FA00F003434B601346A3E7B2F5AA7F5D
:1020F00003D8D80B773041008AE740F254518A4226
:102100009DBF980C7C304100FC2188BF7E207FE77A
:102110003C91FF1F4008FE4340A004404408FE439A
:1021200044A004400018FE4300C004403000FE43B9
:10213000309004403400FE43349004401C18FE43A9
:102140001CC004401018FE4310C004400818FE4391
:1021500008C004400C18FE430CC004400C10FE43A1
:102160000CB004401010FE4310B004401810FE43A1
:1021700018B004401C10FE431CB004401410FE4371
:1021800014B004400418FE4304C004400010FE4391
:1021900000B004400008FE4300A004400408FE43D1
:1021A00004A004400C08FE430CA004400808FE43B1
:1021B00008A004401418FE4314C004401818FE433D
:1021C00018C004400410FE4304B004400810FE434D
:1021D00008B004401400FE43149004404C08FE4331
:1021E0004CA004400420FE4304D004402410FE43CD
:1021F00024B004402010FE4320B004402810FE43C9
:1022000028B004402C10FE432CB004400020FE43B4
:1022100000D004404808FE4348A004401000FE439C
:10222000109004401D19FFFF00010000C88AFF1F25
:1022300012000000000200000A8BFF1F29000000AE
:1022400000220000338BFF1F9100000000210000DE
:102250001C8BFF1F0900000000030000E48BFF1F20
:102260000000000001030904FA8AFF1F00000000BB
:1022700002030904C48BFF1F0000000003030904CC
:10228000E88BFF1F0000000004030904DA8AFF1F27
:10229000000000000000000000000000000000003E
:1022A0000200030004000500060008000A000C00FC
:1022B00010001400180020002800380040006000C2
:1022C0008000C00000018001000280020003FFFFC7
:1022D000000000800000018000000000000002807B
:1022E00000000100011000000000020001100100C8
:1022F0000320000001000200032001000430000060
:1023000003200200032003000540000005400100F7
:102310000650000006500100076000000760010041
:102320000870000007600200087001004300000010
:10233000088DFF1FF8B500BFF8BC08BC9E4670476B
:0C234000BD1E000099040000CD15000037
:04234C00F8B500BF21
:102350000A0400000897FF1F12010002000000405D
:10236000B70E8E03010201020301200343006C003B
:1023700075006200530070006F007200740020004E
:1023800057006800650065006C0010036400610080
:1023900072006B006E0061006F00090229000101EC
:1023A00000C03209040000020300000409211101E9
:1023B00000012291000705810320000207050103A7
:1023C00007000205010904A10105091901291215D7
:1023D000002501750195128102950175068101059F
:1023E0000109300931150026FF00750895028102A8
:1023F00005010939150025073500463B01651475AF
:102400000495018142953575048101050A0901157C
:10241000002501A1020508094B750195019102C033
:102420000902A1020508094B750195019102C00935
:1024300003A1020508094B750195019102C0090429
:10244000A1020508094B750195019102C0950D7512
:10245000049101C0200343006C007500620053002A
:1024600070006F0072007400200057006800650063
:1024700065006C00040309040C0300000000000068
:10248000000000000000000000000000000000004C
:10249000FFFFFFFF005EBCE2613FDD83C29C7E2048
:1024A000A3FD1F419DC3217FFCA2401E5F01E3BD30
:1024B0003E6082DC237D9FC1421CFEA0E1BF5D0324
:1024C00080DE3C62BEE0025CDF81633D7C22C09E18
:1024D0001D43A1FF4618FAA427799BC584DA386604
:1024E000E5BB5907DB856739BAE406581947A5FBF0
:1024F0007826C49A653BD987045AB8E6A7F91B45E4
:10250000C6987A24F8A6441A99C7257B3A6486D8D7
:102510005B05E7B98CD2306EEDB3510F4E10F2ACC3
:102520002F7193CD114FADF3702ECC92D38D6F31AF
:10253000B2EC0E50AFF1134DCE90722C6D33D18FA3
:102540000C52B0EE326C8ED0530DEFB1F0AE4C1297
:1025500091CF2D73CA947628ABF517490856B4EA83
:102560006937D58B5709EBB536688AD495CB29776F
:10257000F4AA4816E9B7550B88D6346A2B7597C963
:102580004A14F6A8742AC896154BA9F7B6E80A5457
:10259000D7896B350000000000000000F48FFF1F9A
:1025A0005C90FF1FC490FF1F0000000000000000AF
:1025B000000000000000000000000000000000001B
:1025C0000000000000000000000000002C230000BC
:1025D00000000000000000000000000000000000FB
:1025E00000000000000000000000000000000000EB
:1025F00000000000000000000000000000000000DB
:1026000000000000000000000000000000000000CA
:1026100000000000000000000000000000000000BA
:1026200000000000000000000000000000000000AA
:10263000000000000000000000000000000000009A
:1026400001000000000000000E33CDAB34126DE637
:10265000ECDE05000B0000000000000000000000A0
:10266000000000000000000000000000000000006A
:10267000000000000000000000000000000000005A
:10268000000000000000000000000000000000004A
:10269000000000000000000000000000000000003A
:1029C000088DFF1F00000000000000003491FF1F71
:1029D0003491FF1F3C91FF1F3C91FF1F4491FF1F4B
:1029E0004491FF1F4C91FF1F4C91FF1F5491FF1FFB
:1029F0005491FF1F5C91FF1F5C91FF1F6491FF1FAB
:102A00006491FF1F6C91FF1F6C91FF1F7491FF1F5A
:102A10007491FF1F7C91FF1F7C91FF1F8491FF1F0A
:102A20008491FF1F8C91FF1F8C91FF1F9491FF1FBA
:102A30009491FF1F9C91FF1F9C91FF1FA491FF1F6A
:102A4000A491FF1FAC91FF1FAC91FF1FB491FF1F1A
:102A5000B491FF1FBC91FF1FBC91FF1FC491FF1FCA
:102A6000C491FF1FCC91FF1FCC91FF1FD491FF1F7A
:102A7000D491FF1FDC91FF1FDC91FF1FE491FF1F2A
:102A8000E491FF1FEC91FF1FEC91FF1FF491FF1FDA
:102A9000F491FF1FFC91FF1FFC91FF1F0492FF1F89
:102AA0000492FF1F0C92FF1F0C92FF1F1492FF1F36
:102AB0001492FF1F1C92FF1F1C92FF1F2492FF1FE6
:102AC0002492FF1F2C92FF1F2C92FF1F3492FF1F96
:102AD0003492FF1F3C92FF1F3C92FF1F4492FF1F46
:102AE0004492FF1F4C92FF1F4C92FF1F5492FF1FF6
:102AF0005492FF1F5C92FF1F5C92FF1F6492FF1FA6
:102B00006492FF1F6C92FF1F6C92FF1F7492FF1F55
:102B10007492FF1F7C92FF1F7C92FF1F8492FF1F05
:102B20008492FF1F8C92FF1F8C92FF1F9492FF1FB5
:102B30009492FF1F9C92FF1F9C92FF1FA492FF1F65
:102B4000A492FF1FAC92FF1FAC92FF1FB492FF1F15
:102B5000B492FF1FBC92FF1FBC92FF1FC492FF1FC5
:102B6000C492FF1FCC92FF1FCC92FF1FD492FF1F75
:102B7000D492FF1FDC92FF1FDC92FF1FE492FF1F25
:102B8000E492FF1FEC92FF1FEC92FF1FF492FF1FD5
:102B9000F492FF1FFC92FF1FFC92FF1F0493FF1F84
:102BA0000493FF1F0C93FF1F0C93FF1F1493FF1F31
:102BB0001493FF1F1C93FF1F1C93FF1F2493FF1FE1
:102BC0002493FF1F2C93FF1F2C93FF1F3493FF1F91
:102BD0003493FF1F3C93FF1F3C93FF1F4493FF1F41
:102BE0004493FF1F4C93FF1F4C93FF1F5493FF1FF1
:102BF0005493FF1F5C93FF1F5C93FF1F6493FF1FA1
:102C00006493FF1F6C93FF1F6C93FF1F7493FF1F50
:102C10007493FF1F7C93FF1F7C93FF1F8493FF1F00
:102C20008493FF1F8C93FF1F8C93FF1F9493FF1FB0
:102C30009493FF1F9C93FF1F9C93FF1FA493FF1F60
:102C4000A493FF1FAC93FF1FAC93FF1FB493FF1F10
:102C5000B493FF1FBC93FF1FBC93FF1FC493FF1FC0
:102C6000C493FF1FCC93FF1FCC93FF1FD493FF1F70
:102C7000D493FF1FDC93FF1FDC93FF1FE493FF1F20
:102C8000E493FF1FEC93FF1FEC93FF1FF493FF1FD0
:102C9000F493FF1FFC93FF1FFC93FF1F0494FF1F7F
:102CA0000494FF1F0C94FF1F0C94FF1F1494FF1F2C
:102CB0001494FF1F1C94FF1F1C94FF1F2494FF1FDC
:102CC0002494FF1F2C94FF1F2C94FF1F3494FF1F8C
:102CD0003494FF1F3C94FF1F3C94FF1F4494FF1F3C
:102CE0004494FF1F4C94FF1F4C94FF1F5494FF1FEC
:102CF0005494FF1F5C94FF1F5C94FF1F6494FF1F9C
:102D00006494FF1F6C94FF1F6C94FF1F7494FF1F4B
:102D10007494FF1F7C94FF1F7C94FF1F8494FF1FFB
:102D20008494FF1F8C94FF1F8C94FF1F9494FF1FAB
:102D30009494FF1F9C94FF1F9C94FF1FA494FF1F5B
:102D4000A494FF1FAC94FF1FAC94FF1FB494FF1F0B
:102D5000B494FF1FBC94FF1FBC94FF1FC494FF1FBB
:102D6000C494FF1FCC94FF1FCC94FF1FD494FF1F6B
:102D7000D494FF1FDC94FF1FDC94FF1FE494FF1F1B
:102D8000E494FF1FEC94FF1FEC94FF1FF494FF1FCB
:102D9000F494FF1FFC94FF1FFC94FF1F0495FF1F7A
:102DA0000495FF1F0C95FF1F0C95FF1F1495FF1F27
:102DB0001495FF1F1C95FF1F1C95FF1F2495FF1FD7
:102DC0002495FF1F2C95FF1F2C95FF1F000002006C
:042DD000FFFFFFFF03
:00000001FF
