:1000000000180020C1000000151F0000E11E0000C4
:10001000E11E0000E11E0000E11E0000E11E0000E4
:10002000E11E0000E11E0000E11E0000151F00009F
:10003000151F0000E11E0000151F0000D11E00006A
:10004000151F0000151F0000151F0000151F0000E0
:10005000151F0000151F0000151F0000151F0000D0
:10006000151F0000151F0000151F0000151F0000C0
:10007000510C000095230000E9270000151F000027
:10008000151F0000151F0000151F0000151F0000A0
:10009000151F0000151F0000151F0000151F000090
:1000A000950E0000151F0000151F0000151F000011
:1000B000151F0000151F0000151F0000151F000070
:1000C00038B501F02BFF454A454B1A60454A464B6F
:1000D0001A60464A464B1A60464B0822197811426C
:1000E00002D019780A431A70434B2A221A7000234F
:1000F000424A43499A188A4204D24249C9580433B1
:100100001160F5E7404B41491A1F181D00238A4230
:1001100002D21360031CF6E73D493E4A5958101CB1
:1001200099500433C02BF7D100239A083A49920022
:10013000521803211940C9001568FF248C40A543BB
:100140002C1C80258D40291C214301331160202B5C
:10015000EBD1324B8A221860314B1A70314B24227A
:100160005A70A0221A709A799107FCD59A79D5060F
:10017000FCD498790C212B4A01400829F9D103219C
:100180001171402151719A799106FCD59A795506E1
:10019000FCD5254AC02189051160224A2021117011
:1001A00099790C220A400C2AFAD1204A204B1A6075
:1001B000204A214B1A60214B00221A60204B072253
:1001C0001A60204A204B1A6062B600F0D9FA02F099
:1001D0004FFD01F0A9FE01F0CEFDFEE7300004F076
:1001E00034800440823F0000388004400100000F4A
:1001F0003C80044002D0074000E00740700200202D
:10020000E80400204C330000EC0400204C080020DF
:100210000000000000F9FF1F00E400E008ED00E02E
:10022000005006400040064044800440C0000505E0
:1002300004800440BF5D000014E000E018E000E02E
:1002400010E000E00000202020ED00E0FFFFFFFFB5
:10025000FFFFFFFFFFFFFFFFFFFFFFFFFFFFFFFFAE
:10026000FFFFFFFFFFFFFFFFFFFFFFFFFFFFFFFF9E
:10027000FFFFFFFFFFFFFFFFFFFFFFFFFFFFFFFF8E
:10028000FFFFFFFFFFFFFFFFFFFFFFFFFFFFFFFF7E
:10029000FFFFFFFFFFFFFFFFFFFFFFFFFFFFFFFF6E
:1002A000FFFFFFFFFFFFFFFFFFFFFFFFFFFFFFFF5E
:1002B000FFFFFFFFFFFFFFFFFFFFFFFFFFFFFFFF4E
:1002C000FFFFFFFFFFFFFFFFFFFFFFFFFFFFFFFF3E
:1002D000FFFFFFFFFFFFFFFFFFFFFFFFFFFFFFFF2E
:1002E000FFFFFFFFFFFFFFFFFFFFFFFFFFFFFFFF1E
:1002F000FFFFFFFFFFFFFFFFFFFFFFFFFFFFFFFF0E
:10030000FFFFFFFFFFFFFFFFFFFFFFFFFFFFFFFFFD
:10031000FFFFFFFFFFFFFFFFFFFFFFFFFFFFFFFFED
:10032000FFFFFFFFFFFFFFFFFFFFFFFFFFFFFFFFDD
:10033000FFFFFFFFFFFFFFFFFFFFFFFFFFFFFFFFCD
:10034000FFFFFFFFFFFFFFFFFFFFFFFFFFFFFFFFBD
:10035000FFFFFFFFFFFFFFFFFFFFFFFFFFFFFFFFAD
:10036000FFFFFFFFFFFFFFFFFFFFFFFFFFFFFFFF9D
:10037000FFFFFFFFFFFFFFFFFFFFFFFFFFFFFFFF8D
:10038000FFFFFFFFFFFFFFFFFFFFFFFFFFFFFFFF7D
:10039000FFFFFFFFFFFFFFFFFFFFFFFFFFFFFFFF6D
:1003A000FFFFFFFFFFFFFFFFFFFFFFFFFFFFFFFF5D
:1003B000FFFFFFFFFFFFFFFFFFFFFFFFFFFFFFFF4D
:1003C000FFFFFFFFFFFFFFFFFFFFFFFFFFFFFFFF3D
:1003D000FFFFFFFFFFFFFFFFFFFFFFFFFFFFFFFF2D
:1003E000FFFFFFFFFFFFFFFFFFFFFFFFFFFFFFFF1D
:1003F000FFFFFFFFFFFFFFFFFFFFFFFFFFFFFFFF0D
:10040000FFFFFFFFFFFFFFFFFFFFFFFFFEFFFFFFFD
:1004100010B5064C2378002B07D1054B002B02D0DA
:10042000044800E000BF0123237010BDE804002051
:10043000000000004C33000008B5084B002B03D02F
:100440000748084900E000BF07480368002B03D0B5
:10045000064B002B00D0984708BDC04600000000A6
:100460004C330000EC040020E804002000000000F1
:1004700010B5041C081C211C00F04EFB201C10BDF4
:1004800038B5051C081C0C1C02F0EEFC2B68021C85
:100490005B68281C211C984738BD38B5041C01F046
:1004A0000EFB051C201C01F02BFB401938BDFFFF83
:1004B000F0B589B0041C0E1C68461949171C01F0E0
:1004C000C5FB694604A801F0DEFB211C04A801F06D
:1004D0002CFC144901F01BFC311C01F02CFC1249CE
:1004E00001F015FC114D011C281CFFF7D6FF04A8D4
:1004F00001F068FB684601F065FB3C1CE31BB3425E
:1005000009DA2178281C01F046FB281C0849FFF76E
:10051000B7FF0134F2E7281C01F0F2FA09B0F0BD90
:10052000FC2E00000D2F0000152F000010070020EA
:10053000132F000010B588B0041C0E49684601F066
:1005400085FB694604A801F09EFB211C04A801F06C
:10055000ECFB011C0848FFF7A0FF04A801F032FBE8
:10056000684601F02FFB002C02D0044B01221A70C8
:1005700008B010BD172F0000100700203305002021
:1005800038B5041CFFF77CFF051C201C01F0B8FAED
:10059000281838BD10B51F4800F0D8F81E4C1F4968
:1005A000201CFFF7EDFF1A2000F04EF9002000F0AC
:1005B00091F9132000F012FA011C481E8141201C01
:1005C00001F0E0FA201C01F09BFA1220002100F05B
:1005D00079F8134A134B201C1A60134A134B144921
:1005E0001A60144A144B1A60144B9F221A7021226D
:1005F0005A70A1229A70FF221A727F229A71DA71C0
:1006000001330322DA770E4B01221A70FFF7B8FF8D
:1006100010BDC046983A000010070020282F0000A7
:100620007104000004050020B10400000C05002046
:10063000302F0000350500000805002010050020BF
:100640003305002008B500F091FA002808D000F02A
:100650009DFA0A4BC1B21A68181C12689047F2E75B
:1006600001F0AEF8002807D001F062F8044BC1B2E7
:100670001A68181C1268904708BDC0461007002071
:10068000F806002010B51A2818D80C2358430C4A35
:10069000835810181C7D027A224205D0002901D00F
:1006A0001A710BE01A7209E043681A68002902D037
:1006B00003210A4301E002218A431A6010BDC046AB
:1006C000382F000010B51A2818D80C2358430C4AAC
:1006D000141863688258247A012904D1117D0C43CF
:1006E0001475A22205E0107DA0431075002902D1E7
:1006F0008022520001E00422FF321A6010BDC04681
:10070000382F000072B60C4B0C491A680C4B1B6852
:10071000096862B6480104D53221914289414942B3
:100720005B18FA20800043430648821A0648424379
:10073000920D98187047C04618E000E004ED00E004
:1007400034050020BF5D0000ABAA020038B5041CD0
:10075000FFF7D8FF051C002C0ED0FFF7D3FF074B87
:10076000401B984205D9013C002C05D0FA239B0080
:10077000ED1801F041FBF0E738BDC046E70300008B
:100780001C4B8022D20510B51A60802212061A6016
:10079000194B002018601949194B1A4A196028236F
:1007A0001360194A194C1360194A1360194A1360EF
:1007B000194A1360194A136009222260184C2060FC
:1007C000184C2160184C2360184C2360184C226090
:1007D000184C20601848016018490B6018490B60DC
:1007E000184B1A6001F02CFBFA20FFF7AFFF00F066
:1007F00053FE10BD00E100E004800340FFBF000095
:10080000088003400C8003401480034000800340B4
:100810001C800340248003402C800340348003402C
:1008200004900340089003400C9003401490034050
:100830000090034004A0034008A003400CA0034024
:1008400014A0034000A00340164B80221968D20078
:100850000A431A60144A00231370144A144913708F
:10086000144A1370144A1370144A1370144A116016
:10087000144AD12189001160134AC104C90EC0B2C3
:100880001170507093702C23D370104BFF22196895
:1008900091430A1C40210A431A600D4B80225201E9
:1008A0001A60704734800440C00500203D050020D8
:1008B00013030000C8050020C10500203C050020EE
:1008C00040A0044044A0044000A006400CE400E026
:1008D00000E100E010B5124B1322997891430322F6
:1008E00002400A43410701D510210A439A700F22A2
:1008F0000B490240042A03D18A79402422438A7199
:100900005A7910218A43084200D00A435A719A79D1
:1009100010218A43840600D50A439A7110BDC0464F
:1009200000A0064008B5124B1B685A051ED5114B96
:100930001B78DBB2002B02D001F05EFAF7E70E4A1B
:100940008021490111600D4A0D49D3700422FF3204
:100950000A600C490A600C4A13700C4A13700C4B65
:100960001B68002B02D00B4A12781A7108BDC046D2
:10097000348004403C05002080E100E000A00640F7
:1009800040A0044044A00440C00500203D050020D4
:10099000380500207E05002038B5041C0B4B1D785F
:1009A000EDB2002DFAD1201C0121FFF78BFE291C8E
:1009B000201CFFF767FE0C225443054B054AE15803
:1009C0001C191160044B227A1A7038BD3C050020B6
:1009D000382F0000C4050020BF05002038B50E4B9D
:1009E0001A680023510514D50C4C1A2810D80C2372
:1009F00043430B4A0B4D9958D3181B7A21600121B0
:100A00002B70FFF75FFE23682A781A72012300E03B
:100A10002360181C38BDC0463480044038050020CF
:100A2000382F00007E0500200C4B021C1B680020A4
:100A3000590512D50A4B122A02D10A490A4A03E083
:100A4000142A06D10749094A11605A7B0120024342
:100A500002E05A7B01218A435A7370473480044074
:100A600000A00640020300000CA0044014C0044093
:100A7000F8B5214B071C1B685A053BD51F4B1B685B
:100A8000002B02D01E4A12781A711E4E00233478B1
:100A90003F220134A2425B415B421C401A4D2B783D
:100AA000A3421CD101F04AFA402813DC174A1379FB
:100AB0005BB2002BF2DA2B78002101333F20984201
:100AC000494149420B401249C95CDBB2C9B2D171FC
:100AD0002B70E3E7FF28E1DD01F08EF9DEE70C4B38
:100AE000FFB21F550B4B01221A70084BE4B2AC2227
:100AF0003470DA70F8BDC04634800440C40500206C
:100B0000BF050020C8050020C105002000A0064048
:100B10003E0500203C05002038B5041C4518AC42B9
:100B200004D02078FFF7A4FF0134F8E738BDFFFFB9
:100B300008B5044B1B78002B02D001F05DF9F8E7F3
:100B400008BDC0463C050020064B074A1B781078BC
:100B5000DBB2C0B2834201D33F3000E00138C01A9B
:100B60007047C046C8050020C1050020054B187815
:100B7000054BC0B21B78DBB2984200D24030C01A9D
:100B80007047C046C00500203D05002010B5124B3F
:100B900012491A780B78D2B2DBB29A4219D00133DB
:100BA0003F2400209C424041404203400C48DCB2BC
:100BB000C05C0C700B49C0B2096800290BD09A4286
:100BC00000D24032D31A1A2B05DC074B1B780B726C
:100BD00001E00120404210BDC00500203D0500207D
:100BE0007F050020380500207E0500200A4B1A787A
:100BF0000A4B1B78DBB29A420AD0013300223F2114
:100C00009942524152421340054AD05CC0B201E0C1
:100C1000012040427047C046C00500203D0500202D
:100C20007F050020064B1A78064BD2B21A70064B8D
:100C30001B68002B02D0054A12781A727047C04612
:100C40003D050020C0050020380500207E0500205D
:100C500030B5254A1379990612D52449D4790B78F1
:100C6000002001333F259D4240414042034020483F
:100C7000E4B20078834203D01E48C454DBB20B7048
:100C8000D178194CC9B24BB2002B1ADA23795BB276
:100C9000002B16DA184B19481D780378DBB29D42F9
:100CA00002D16C23E3700CE0013300243F259D4208
:100CB000644164422340124CE45CDBB2E4B2D47180
:100CC0000370402319420ED0117919420BD00D4BFD
:100CD000002119700C4B1B688B4202D00B4909781C
:100CE00019722C23D37030BD00A00640C00500202F
:100CF0003D0500207F050020C8050020C10500201B
:100D00003E0500203C050020C4050020BF05002052
:100D1000F0B50B4F02223B780A4E1A43D2000A4D1F
:100D2000B418606028788824002800D0C8240904FA
:100D30000C43B45001225040534028703B70F0BD2A
:100D40004806002000F8FF1FD0060020431E10B503
:100D5000052B0FD872B6084A99008858002807D08A
:100D600044685B008C50054A01889C5A611A99526C
:100D700062B600E0002010BD3006002034080020DC
:100D8000431E0020052B09D872B6054A9B009B58CC
:100D9000002B02D001305B68FAE762B67047C046AC
:100DA0008C06002038B572B60123164A9A18013A0B
:100DB000127811071CD5144A5C01A5589900002D22
:100DC00005D1131908305860104BA3500AE00124D4
:100DD0002143C9008C58002C0AD1531808305860A0
:100DE0000B4B8B500B4B1A78013A1A7062B608E025
:100DF0000133072BD9D162B6064B00221A7000F0DE
:100E00006FFC38BD7031000000F8FF1F8800400003
:100E1000C8004000C6060020421E10B5052A30D882
:100E2000022380001843174BC0001B1872B6164CE3
:100E3000A05C032809D801F099FE140216050833B6
:100E4000022011E0083304200EE0104892001458EC
:100E50000F4B002C01D1115001E09858416099507E
:100E60000EE0032000E00520A0540A1C08325A605E
:100E70008822180700D5C822098809040A431A6085
:100E800062B610BD00F8FF1FE80500208C060020A8
:100E9000A4060020F7B5B7490C780E1CE4B262072F
:100EA0001DD5B54B1B78002B16D0B44A1378DBB296
:100EB000002B05D0013BDBB21370002B00D100BE2C
:100EC000AF4A1378DBB2002B06D0013BDBB21370C4
:100ED000002B01D100F02AFDA64D04232B7008251C
:100EE000221C2A4000D168E2A64BA74C1B78DBB23B
:100EF0009E081F09F600002F00D0F1E1A619316805
:100F000075688806000F01380C2800D9E5E101F06A
:100F100037FE98019801E401E401E401E401E401F1
:100F2000E401C101E401E401E4010D002B68974FE5
:100F30006D6897497D603160964D974897490026C6
:100F40003B6001229BB22E602661A66102708B423B
:100F50001BD8D021C9008B4200D3EDE08121914004
:100F60008B4200D1CAE006D8802B00D1B1E0822BA1
:100F700000D1B3E0F9E08A4A934200D1CDE0A0224B
:100F8000D200934200D133E1EFE086498B4200D199
:100F90002EE112D8902109018B421BD082498B424D
:100FA00000D14BE1882109018B4200D0DDE0724B7A
:100FB0007E4C1B78161C23701CE17D4A934200D1A5
:100FC000CFE07C4A934200D112E17B4A934200D0A9
:100FD000CBE033E1BA78684B1A70A319196A090695
:100FE00003D5586A083800F07BFB0836C02EF4D1D0
:100FF00000252E1C714AA858002805D0436801938B
:1010000000F06EFB0198F7E76C496D4B6D4A485153
:10101000E850A858002805D04368019300F060FB11
:101020000198F7E7684B694AE8507300D052654968
:10103000674B4851F05C0238032807D801F096FD51
:1010400002040204002200E001229A550136043510
:10105000062ECFD15F4A002313700125161C5E4B6C
:10106000EA185E4B9200EB18013B1B7813701907CE
:1010700020D500F017FB6B01002805D0E2180830DE
:101080005060574AE25003E0E05033780133337048
:1010900000F008FB0122AB001343DB00002805D061
:1010A000E218083050603A4AE25003E0E0503378EA
:1010B00001333370AB0002221A43D2000021A15049
:1010C0000322134393400135E150072DC7D10E1C75
:1010D0008FE0364C2670667002268BE0BB88062BAC
:1010E00043D8324C3F4D9B00267066705B191B78CD
:1010F0000226334200D17DE022707BE0BA887F2354
:101100001340062B31DC7E88002E2ED135499B0002
:101110005B181A7802218A4325E0BA887F2313409E
:10112000062B22DC7E88002E1FD12E4A9B009B18A6
:101130001A7802210A4316E07A88B9882A4B5C683B
:10114000002C12D01888904209D15888884206D1C4
:10115000120A032A01D126784CE01E894AE00C339A
:10116000EDE7BA78214B1A7043E01E4B0F221A703C
:1011700064E0C04680200740CF06002049060020DA
:10118000E40600209020074000F8FF1FBC06002066
:10119000C8004000CC050020D006002081060000D9
:1011A00002030000210A000021090000C7060020F8
:1011B0002122000021230000212000003006002011
:1011C000D00500208C060020A40600203408002052
:1011D000E8050020C606002030C80110703100006C
:1011E00088004000C020074078310000F40600204D
:1011F0000026341CFB889E4200D91E1C371E402F3F
:1012000000D94027201C391CFFF782FDE419F61B8A
:1012100003D1351C402F04D010E04025B54200D941
:10122000351C201C291CFFF773FD6419761B01D1A6
:10123000402D03D17C4D7D4B2C601E8001227C4BC8
:101240004AE07C4C7C4B22889A4211D10023E95C15
:101250007A4AD1540133072BF9D113680735862B0D
:1012600002D1774B0F221A700020011CFFF750FDAE
:10127000744B216899420AD16268734B9A4206D135
:101280002A78724B0020011C1A70FFF741FD704B49
:10129000336022E0644F3D68002D13D0634A168806
:1012A000341E402C00D94024281C211CFFF730FD9F
:1012B000361B5E4BB6B21E80002E01D1402C00D1F1
:1012C0002E193E605B4BA0221988D200914204D1B6
:1012D00000225A709A785F4B1A700122544B60E0DA
:1012E000A4196068013F0838FFB22B4036D000F0E7
:1012F000F7F95949B8004258584B002A1BD0556895
:101300004550111CD85D0831616003280BD801F0ED
:101310002DFC02040608032104E0022102E005215D
:1013200000E00421D9558823260700D5C823128858
:10133000120413433CE0D85D032808D801F016FCE2
:1013400039390204002200E00122DA5531E02C4054
:10135000624262410324A41ADC552AE062880280BA
:10136000002A20D03E4D43804360BB005E593D497A
:10137000002E01D1585101E0CD586860C8503A4B59
:101380007F00F95A5218FA5200F08CF9002804D064
:101390000830606021070AD507E0344B20601A78D6
:1013A00001321A7005E02C4201D0294B00E0304B8D
:1013B0002360304A082313706DE5012004421ED0DB
:1013C0001B4902230B702C4B294C1A702B4B2C4DB4
:1013D0001C609C602B4C1A61DC609A615D602A4B3A
:1013E0000D241C70294CFF2323701A4C337022707B
:1013F000274A1370274B9F221A70087013E063B2BC
:10140000002B04DA204B0D221A7080233370022344
:101410001C4204D01D4A1178C9B2117033701023D8
:101420001C4200D03370F7BDCC050020C40600205C
:1014300094200740BC060020212000004008002026
:10144000490600202109000202000100E3060020F5
:10145000C8004000982007408C060020E8050020C6
:1014600030060020D005002034080020C6060020E9
:1014700088004000802007404806002000F8FF1F39
:10148000F00500204C060020C020074088200740BF
:101490008C2007408420074010B501F005FA002297
:1014A0001A4B0021D150981808324160C82AF7D150
:1014B000174A80201468C00220431060180A154A99
:1014C000C0B21070180C144AC0B21070134A1B0E30
:1014D0001370134AFF231370124A13481370134AF0
:1014E0001370012202701248017012490A70124AE8
:1014F000116899430B1C70210B4313600F4B802222
:1015000052041A600E4B10221A7010BD00F8FF1F13
:10151000348004409C200740B0200740B42007409E
:101520008020074088200740942007401020074073
:10153000002107408420074018E400E000E100E0BB
:10154000082107401F2807D828230A280BD000238A
:101550000B2808D12B2306E000237F2803D8034B58
:10156000181820380378181C7047C0461031000046
:1015700038B5194D194B01201B78002B29D0FFF7E6
:10158000FFFB032804D9013D154B002D17D119E0AD
:1015900000F088F8041EF6D0124B13491B7806227F
:1015A0000372124B1B7843720A3001F091FB08233F
:1015B00001202380211CFFF72FFC00200AE01A786D
:1015C000002A03D001221A70101C02E000F014FC63
:1015D000D0E7404238BDC0462D330000CF06002082
:1015E000E2060020E0060020DA060020E1060020E6
:1015F00038B5094C094D0023297020706370A37021
:10160000E37023716371FFF7B3FF002803D12870E3
:101610002070FFF7ADFF38BDDA060020E00600209D
:1016200008B5FFF78FFF011E06D03F20084049068E
:10163000C90F4900FFF7DCFF08BDFFFF42B208B544
:10164000164B002A02DB00221A600BE0BF2813D8D9
:101650003F2210401A68012A07D100221A60104B5D
:101660001B881843FFF7DCFF17E0022A15D10C4A4C
:1016700080011188084305E0DF2806D81F221040AA
:10168000074A80011080012206E0FF22EF2803D8DC
:10169000034A0003108002221A6008BDD40600200D
:1016A000D806002038B572B60B4C2568281C01F00E
:1016B000C1FA1D2802D962B600200CE080231B0667
:1016C000C3409D43256062B648235843034B181816
:1016D00000230360436038BD7002002000FAFF1F42
:1016E00010B5041C0E484821201A01F053FA1D2899
:1016F00015D80C4B1B78002B07D00B4B1B78002BFD
:1017000003D0201CFFF74EFB09E072B68022074B86
:101710001206C240101C1A681043186062B610BD51
:1017200000FAFF1FC6060020CF060020700200202E
:1017300038B5114C2368002B0CD020684288531C0C
:101740008218157A0288934212D3FFF7C9FF00234B
:1017500023600EE0094B1B78002B02D10120404290
:1017600008E00320FFF7F2FA20600028E5D1F5E752
:101770004380281C38BDC046F0060020CF0600205C
:1017800010B50D4C2368002B03D02368002B0ED11D
:1017900003E00A4B1B78002B02D10120404209E0F4
:1017A0000320FFF7D3FA20600028EED1F5E75A882E
:1017B0009B18187A10BDC046F0060020CF06002006
:1017C000054B9888054B1B68002B03D01A885B8853
:1017D000D31AC0187047C04634080020F006002015
:1017E000F7B5304D0123071C0C1C2B70002C56D074
:1017F0002D4E3068002827D12C4A01922C4B1B78A3
:10180000DBB2002B03D12B700120404249E00420C1
:10181000FFF7B6FA072808D801232B70FFF742FF1D
:10182000214B186000280FD128700198214B0138F6
:101830000190002802D01A78002A02D001221A70E2
:10184000E2E700F0D9FAD9E71A4B002231681A70A2
:101850004B884020C01A0094844200D90090181C84
:10186000009A08309B1808184B800190A41A002396
:101870000098834204D0F85C019AD0540133F7E712
:10188000FF184B883F2B06D940230B800420FFF71D
:10189000C3FA00233360084B05221A70A6E72C70A8
:1018A000201CFEBDE5060020E8060020A54700003C
:1018B000CF060020EC060020E406002007B56B46AA
:1018C000D8710733181C0121FFF78AFF0EBDFFFFF7
:1018D000F8B5124B1B78002B1ED0114F114B3C68F2
:1018E00001261E70104D002C09D000262E70638832
:1018F00004202380211CFFF78FFA3E6009E0FFF7E8
:10190000D1FE011E04D004202C70FFF785FA00E000
:101910002E70044A00231370F8BDC046CF06002085
:10192000E8060020E5060020E406002038B50E4B4E
:101930001D78EDB2002D15D10C4C2168002906D080
:101940004B8804200B80FFF767FA25600AE0FFF759
:10195000A9FE011E03D00420FFF75EFA02E0044B4B
:1019600001221A7038BDC046E5060020E8060020B6
:10197000E406002008B50368C9B21B68984708BD93
:1019800008B50368C9B21B68984708BD08B5036865
:10199000C9B21B68984708BD08B50368C9B21B687F
:1019A000984708BD08B5044B4808C01801F0F2F884
:1019B000FEF74AFF08BDC046C0C62D0010B5064B55
:1019C0004808C018141C01F0E5F8FEF73DFF201C84
:1019D000FEF780FF10BDC046C0C62D0008B5FEF75B
:1019E000A1FF08BD08B5081CFEF7D6FF08BD08B565
:1019F000081CFEF7F3FF431E9841C0B208BD08B5AE
:101A0000081CFFF711F8431E9841C0B208BD08B585
:101A1000FFF7ACF808BD08B5FFF7E8F808BD08B552
:101A2000FFF7B4F808BD08B5FFF782F808BD08B5A0
:101A3000FFF7F8F808BD08B5FFF786F808BD08B548
:101A4000081CFFF715F8012008BD08B5081CFFF7B2
:101A50000FF8012008BD10B5081C141C111CFFF75D
:101A60005BF8201C10BD38B5081C0D1C01F0FCF9FA
:101A7000041C211C281CFFF74FF8201C38BD7047A0
:101A8000044B00221A711A73FA21034A89009960E3
:101A90001A607047F806002088300000F8B5061C70
:101AA0000C1C8F180025BC4207D0336821781B68B6
:101AB000301C984701342D18F5E7281CF8BDF0B507
:101AC00000258DB08C68061C0F1C0195002C14D0CD
:101AD0002122381C03A92B1C00F033F9221E202AD6
:101AE00000D920223368301C5B6803A9AD18A41A02
:101AF0009847019B1B180193E8E701980DB0F0BDD2
:101B000037B50224051C221C01A8054901F0E0F8A4
:101B10002B68281C5B6801A9221C98473EBDC04663
:101B2000D8300000F0B585B06B460E338EB2144C41
:101B30000D0C013666436C43A5B2370CAE19F6198D
:101B4000250C2C19360CA5196D080A266E43891B25
:101B500030311C1C1970013B002D01D0291CE5E718
:101B6000211C002A03D01C1C2D224B1E1A70036856
:101B700004A9E24352185B68211C984705B0F0BDE8
:101B800033330000002208B5914201DA49422D2288
:101B9000FFF7C8FF08BD37B56A460B1C07320F2494
:101BA0001C40251C111C3735092C00D8073D157029
:101BB0001B09013A002BF2D1036802AC621A5B6880
:101BC00098473EBD10B5041C006801F077F8201C52
:101BD00010BD38B5041C0D1C0068013101F01EF960
:101BE000002801D021C4012038BD436810B5041C71
:101BF0008B4208D2FFF7EDFF002805D0A368002B29
:101C000001D122681370012010BDF8B5041C0F1C0F
:101C1000151E05D10368002B00D01A7000230DE0BB
:101C2000111CFFF7E2FF061C2068002E08D10028D7
:101C300002D001F043F8266000236360A36003E054
:101C4000A560391C01F008F9201CF8BD38B5002347
:101C5000041C0D1C0360436083600373994207D02A
:101C6000081C01F001F9291C021C201CFFF7CDFF04
:101C7000201C38BD08B50B1C884203D009689A683F
:101C8000FFF7C3FF08BD10B50023041C03604360C9
:101C900083600373FFF7EEFF201C10BD70B5041CBA
:101CA0000E1C8568002A0CD05519291CFFF79DFFD2
:101CB000002806D02268A368311CD01801F0CCF8A7
:101CC000A560201C70BD1FB5041C0A22081C01A9B8
:101CD00000F087F901A801F0C7F801A9021C201C37
:101CE000FFF7DCFF201C04B010BD1FB5041C0A2246
:101CF000081C01A900F075F901A801F0B5F801A9C7
:101D0000021C201CFFF7CAFF201C04B010BD38B510
:101D1000051C0C1E07D0081C01F0A6F8211C021C93
:101D2000281CFFF7BBFF281C38BD10B5041CFFF7AB
:101D3000CAFF201C10BD10B5041CFFF7D6FF201CE5
:101D400010BD38B50D1C002A14D0002912D08168AE
:101D50008B4202D300232B700CE0541EC91A8C4214
:101D600000D90C1C0168221CC918281C01F083F83A
:101D700000232B5538BD08B5FEF70CFCFEF762FCBE
:101D800000F03AF8FAE708B5FFF71AFD08BD08B504
:101D9000FFF7CEFC08BD08B5FFF7F2FC08BD08B59B
:101DA000FFF796FD08BD08B5081CFFF787FD08BDC5
:101DB00008B5081C111CFFF713FD08BD08B5081C69
:101DC000FFF73CFC012008BD7047FFFF064BFA21DE
:101DD00089009960054900221A711A731960044B31
:101DE0001A71044A1A60704710070020E83000009A
:101DF000080700200831000010B5104C2378002B94
:101E00001BD101232370FFF7DBFC002801D0FFF773
:101E1000DBFFFEF7ABFE002801D0FFF730FE00F03D
:101E200067FA002801D000F0FEFD00F08BFC0028CE
:101E300001D000F08CFE0023237010BD200700208D
:101E40001B4B1C4A19781C4B082901D1002102E0C8
:101E50000A2903D138211160132206E00C2901D18F
:101E6000342100E03C21116012221A60134B1A78D1
:101E7000134B002A01D0002200E001221A60114B0E
:101E80001A78114B012A01D880220CE0042A01D8CB
:101E9000842208E0082A01D8852204E0102A01D80B
:101EA000862200E087221A60084B01221A707047D0
:101EB0007402002008B003400CB003402207002049
:101EC00020B003407502002024B003402107002009
:101ED000024B1A6801321A607047C0463405002070
:101EE00010B50B4C23685A0301D5FEF7D3FF2368C6
:101EF0005A0501D5FEF7ACFE23681A0501D500F09E
:101F000049FA2368DA04ECD500F06EFCE9E7C04634
:101F10003480044008B5FFF7E3FFFFFF014B0022C8
:101F20001A607047008104407047FFFF024A13683F
:101F300018181060181C704778020020EFF3138007
:101F4000002821D1EFF31082002A1FD1EFF305837F
:101F5000002B0FD0101C0F2B0ED91A1C103A920810
:101F60000B49032092000340521883401068D84068
:101F7000C0B201E080204000EFF31182002A05D0BA
:101F8000824203D2101C01E0012040427047C0464B
:101F900000E400E0F8B5061C0D1C171C0024301CE2
:101FA000391C00F03BFE092901D8303100E03731FF
:101FB000C9B22955301C391C00F0ECFD061E01D0B9
:101FC0000134ECE72B1958702B1C5A1BA24206DA7D
:101FD0001A78295D19702A550133013CF5E7281C50
:101FE000F8BD10B50C1C002802DBFFF7D3FF06E09C
:101FF0002D230B7040420131FFF7CCFF201C10BD98
:10200000164B8022196812010A431A60144A0023F1
:102010001370144A14491370144A1370144A13703D
:10202000144A1370144A1160144AD12189001160B6
:10203000134AC104C90EC0B21170507093702C23A2
:10204000D370104B104A19680A408021C9010A4315
:102050001A600E4B802292011A607047348004404F
:102060008E0700202407002013030000940700209F
:102070008F070020230700200CB0044010B004405C
:1020800000B006400CE400E0FF00FFFF00E100E0CC
:1020900010B5124B132299789143032202400A4350
:1020A000410701D510210A439A700F220B490240C3
:1020B000042A03D18A79402422438A715A79102153
:1020C0008A43084200D00A435A719A7910218A4300
:1020D000840600D50A439A7110BDC04600B0064080
:1020E00008B50E4B1B681A0517D50D4B1B78DBB2D4
:1020F000002B02D0FFF780FEF7E70A4A8021890112
:102100001160094A0949D3700422FF320A60084964
:102110000A60084A1370084A137008BD34800440EE
:102120002307002080E100E000B006400CB004402E
:1021300010B004408E0700202407002038B5041C8E
:102140000B4B1D78EDB2002DFAD1201C0121FEF7BA
:10215000B9FA291C201CFEF795FA0C225443054BB2
:10216000054AE1581C191160044B227A1A7038BDD7
:1021700023070020382F0000900700208D07002043
:102180000B4B00221B68190510D50A4B162809D1E4
:10219000094AC021890011605A7B08210A435A73F9
:1021A000012203E0597B082081435973101C7047BA
:1021B0003480044000B0064004B004400A4B021CC6
:1021C0001B68002019050ED5084B172A07D1084AAD
:1021D000C021890011605A7B0120024302E05A7B32
:1021E00001218A435A7370473480044000B006408E
:1021F00008B00440F8B5214B071C1B681A053BD5F5
:102200001F4B1B68002B02D01E4A12781A711E4EFB
:102210000023347827220134A2425B415B421C40F8
:102220001A4D2B78A3421CD1FFF788FE402813DCFF
:10223000174A13795BB2002BF2DA2B7800210133B5
:1022400027209842494149420B401249C95CDBB200
:10225000C9B2D1712B70E3E7FF28E1DDFFF7CCFDB8
:10226000DEE70C4BFFB21F550B4B01221A70084BD7
:10227000E4B2AC223470DA70F8BDC0463480044059
:10228000900700208D070020940700208F07002072
:1022900000B00640250700202307002038B5041CA5
:1022A0004518AC4204D02078FFF7A4FF0134F8E7CA
:1022B00038BDFFFF08B5044B1B78002B02D0FFF799
:1022C0009BFDF8E708BDC04623070020064B074AE0
:1022D0001B781078DBB2C0B2834201D3273000E014
:1022E0000138C01A7047C046940700208F070020AD
:1022F000054B1878054BC0B21B78DBB2984200D270
:102300004030C01A7047C0468E07002024070020C6
:102310000A4B0B4A19781378DBB299420BD0013380
:102320003F2000219842494149420B400549C85C81
:10233000DBB2137001E00120404270478E0700209D
:10234000240700204D0700200A4B1A780A4B1B78FF
:10235000DBB29A420AD0013300223F219942524116
:1023600052421340054AD05CC0B201E00120404215
:102370007047C0468E070020240700204D0700202C
:10238000024B1A78024BD2B21A7070472407002011
:102390008E07002030B5254A1379990612D52449B5
:1023A000D4790B78002001333F259D4240414042C3
:1023B00003402048E4B20078834203D01E48C4544E
:1023C000DBB20B70D178194CC9B24BB2002B1ADAC0
:1023D00023795BB2002B16DA184B19481D78037865
:1023E000DBB29D4202D16C23E3700CE00133002488
:1023F00027259D42644164422340124CE45CDBB2D9
:10240000E4B2D4710370402319420ED011791942FD
:102410000BD00D4B002119700C4B1B688B4202D066
:102420000B49097819722C23D37030BD00B00640D7
:102430008E070020240700204D070020940700206D
:102440008F07002025070020230700209007002089
:102450008D070020164B8022196852010A431A602A
:10246000144A00231370144A14491370144A137049
:10247000144A1370144A1370144A1160144AD1217B
:1024800089001160134AC104C90EC0B211705070A6
:1024900093702C23D370104B104A19680A40802186
:1024A000C9030A431A600E4B8022D2011A6070479A
:1024B0003480044000080020960700201303000029
:1024C00008080020010800209507002008C00440EB
:1024D0000CC0044000C006400CE400E0FFFF00FF19
:1024E00000E100E010B5124B1322997891430322CA
:1024F00002400A43410701D510210A439A700F2276
:102500000B490240042A03D18A79402422438A716C
:102510005A7910218A43084200D00A435A719A79A5
:1025200010218A43840600D50A439A7110BDC04623
:1025300000C0064008B50E4B1B68DA0417D50D4BDA
:102540001B78DBB2002B02D0FFF756FCF7E70A4AF4
:102550008021C9011160094A0949D3700422FF3260
:102560000A6008490A60084A1370084A137008BDD7
:10257000348004409507002080E100E000C0064060
:1025800008C004400CC0044000080020960700204A
:1025900038B5041C0B4B1D78EDB2002DFAD1201C70
:1025A0000121FEF78FF8291C201CFEF76BF80C2286
:1025B0005443054B054AE1581C191160044B227A1B
:1025C0001A7038BD95070020382F0000040800203D
:1025D000FF0700200B4B00221B68D90410D50A4BC3
:1025E000022809D1094AC021890011605A7B0821BB
:1025F0000A435A73012203E0597B0820814359732F
:10260000101C70473480044000C0064000C00440E5
:102610000A4B021C1B680020D9040ED5084B0E2A59
:1026200007D1084AC021890011605A7B012002436A
:1026300002E05A7B01218A435A7370473480044078
:1026400000C0064004C00440F8B5214B071C1B68BD
:10265000DA043BD51F4B1B68002B02D01E4A1278B0
:102660001A711E4E0023347827220134A2425B41A6
:102670005B421C401A4D2B78A3421CD1FFF75EFC35
:10268000402813DC174A13795BB2002BF2DA2B785F
:102690000021013327209842494149420B40124909
:1026A000C95CDBB2C9B2D1712B70E3E7FF28E1DD71
:1026B000FFF7A2FBDEE70C4BFFB21F550B4B0122CD
:1026C0001A70084BE4B2AC223470DA70F8BDC04620
:1026D0003480044004080020FF0700200808002080
:1026E0000108002000C00640970700209507002041
:1026F00038B5041C4518AC4204D02078FFF7A4FF7D
:102700000134F8E738BDFFFF08B5044B1B78002BF8
:1027100002D0FFF771FBF8E708BDC046950700201F
:10272000064B074A1B781078DBB2C0B2834201D354
:10273000273000E00138C01A7047C0460808002062
:1027400001080020054B1878054BC0B21B78DBB29E
:10275000984200D24030C01A7047C046000800209E
:10276000960700200A4B0B4A19781378DBB299427E
:102770000BD001333F2000219842494149420B4090
:102780000549C85CDBB2137001E00120404270478C
:102790000008002096070020BF0700200A4B1A7887
:1027A0000A4B1B78DBB29A420AD0013300223F2148
:1027B0009942524152421340054AD05CC0B201E0F6
:1027C000012040427047C0460008002096070020C4
:1027D000BF070020024B1A78024BD2B21A70704722
:1027E000960700200008002030B5254A1379990685
:1027F00012D52449D4790B78002001333F259D421E
:102800004041404203402048E4B20078834203D074
:102810001E48C454DBB20B70D178194CC9B24BB20C
:10282000002B1ADA23795BB2002B16DA184B194801
:102830001D780378DBB29D4202D16C23E3700CE07B
:102840000133002427259D42644164422340124CF9
:10285000E45CDBB2E4B2D4710370402319420ED0C1
:10286000117919420BD00D4B002119700C4B1B68CC
:102870008B4202D00B49097819722C23D37030BDDA
:1028800000C006400008002096070020BF07002077
:102890000808002001080020970700209507002065
:1028A00004080020FF0700201FB572B6154B7022E8
:1028B0001A70154A41211170144A0F21117080229B
:1028C0001A701A7852B2002AFBDA114B186862B6F5
:1028D000104B984201D80A23584301AC211C0A220C
:1028E000FFF758FB0023E15C0B4A002905D0580094
:1028F0001018013341800A2BF5D101335B001370AE
:102900001FBDC04600000240070002400600024012
:10291000080002407F9698006E04002008B5036806
:10292000C9B21B68984708BD08B50368C9B21B68DF
:10293000984708BD08B50368C9B21B68984708BD29
:1029400008B50368C9B21B68984708BD08B5044BB1
:102950004808C01800F01EF9FFF752FB08BDC0463A
:1029600060E3160010B5064B4808C018141C00F0B0
:1029700011F9FFF745FB201CFFF78AFB10BDC0468D
:10298000C0C62D0008B5FFF7ABFB08BD08B5081C95
:10299000FFF7D4FB08BD08B5081CFFF7F1FB431E89
:1029A0009841C0B208BD08B5081CFFF707FC431EDC
:1029B0009841C0B208BD08B5FFF79AFC08BD08B53C
:1029C000FFF7C2FC08BD08B5FFF7A2FC08BD08B5BB
:1029D000FFF770FC08BD08B5FFF7D2FC08BD08B5CD
:1029E000FFF774FC08BD08B5081CFFF703FC0120C5
:1029F00008BD08B5081CFFF7FDFB012008BD10B598
:102A0000081C141C111CFFF749FC201C10BD38B514
:102A1000081C0D1C00F028FA041C211C281CFFF7C0
:102A20003DFC201C38BD7047044B00221A711A73FC
:102A3000FA21034A890099601A6070470C08002047
:102A40002032000008B50368C9B21B68984708BD6A
:102A500008B50368C9B21B68984708BD08B5036884
:102A6000C9B21B68984708BD08B50368C9B21B689E
:102A7000984708BD08B5044B4808C01800F08AF80C
:102A8000FFF7E8FC08BDC04660E3160010B5064B32
:102A90004808C018141C00F07DF8FFF7DBFC201C70
:102AA000FFF720FD10BDC04660E3160008B5FFF734
:102AB00041FD08BD08B5081CFFF76AFD08BD08B553
:102AC000081CFFF787FD431E9841C0B208BD08B53A
:102AD000081CFFF79DFD431E9841C0B208BD08B514
:102AE000FFF730FE08BD08B5FFF758FE08BD08B572
:102AF000FFF738FE08BD08B5FFF706FE08BD08B5AC
:102B0000FFF768FE08BD08B5FFF70AFE08BD08B567
:102B1000081CFFF799FD012008BD08B5081CFFF748
:102B200093FD012008BD10B5081C141C111CFFF7F3
:102B3000DFFD201C10BD38B5081C0D1C00F094F9F9
:102B4000041C211C281CFFF7D3FD201C38BD704736
:102B5000044B00221A711A73FA21034A8900996002
:102B60001A6070471C0800207832000002B47146D9
:102B700049084900095C49008E4402BC7047C046C0
:102B800003B47146490840004900095A49008E447F
:102B900003BC7047002934D00123002210B48842BE
:102BA0002CD301242407A14204D2814202D209017C
:102BB0001B01F8E7E400A14204D2814202D249009D
:102BC0005B00F8E7884201D3401A1A434C08A04240
:102BD00002D3001B5C0822438C08A04202D3001BD6
:102BE0009C082243CC08A04202D3001BDC082243ED
:102BF000002803D01B0901D00909E3E7101C10BC11
:102C00007047002801D00020C04307B4024802A149
:102C10004018029003BDC046190000000029F0D002
:102C200003B5FFF7B9FF0EBC4243891A1847C046E7
:102C30007047C0461C2101231B04984201D3000C9D
:102C400010391B0A984201D3000A08391B0998421F
:102C500001D30009043902A2105C40187047C04635
:102C60000403020201010101000000000000000055
:102C700070B50E4B0E4D0024ED1AAD101E1CAC426B
:102C800004D0A300F35898470134F8E700F04EFB56
:102C9000084B094D0024ED1AAD101E1CAC4204D0A7
:102CA000A300F35898470134F8E770BD38330000AB
:102CB00038330000383300004C33000008B5034BB4
:102CC000011C186800F00EF808BDC046E40400209E
:102CD00010B50023934203D0CC5CC4540133F9E710
:102CE00010BDFFFF30B5002940D004390B68002B20
:102CF00000DAC9181E4A1368141C002B02D14B605D
:102D0000116033E099420FD208680A189A4205D13F
:102D100013685268C01808604A6000E04B60216088
:102D200024E08A4203D8131C5A68002AF9D11D688E
:102D30005C198C420BD109686918581819609042C7
:102D400014D114685268091919605A600EE08C4257
:102D500002D90C23036009E008680C18944203D1DF
:102D600014685268001908604A60596030BDC04656
:102D70003008002070B50323CD1C9D430835061C88
:102D80000C2D01D20C2501E0002D3FDB8D423DD3FF
:102D9000204B1C681A1C211C002913D00868431BF7
:102DA0000DD40B2B02D90B60CC181EE08C4202D143
:102DB000636813601AE0486860600C1C16E00C1C25
:102DC0004968E9E7144C2068002803D1301C00F062
:102DD00031F82060301C291C00F02CF8431C15D061
:102DE000C41C03239C4384420AD12560201C0B3061
:102DF0000722231D9043C31A0BD05A42E25008E029
:102E0000211A301C00F016F80130EED10C2333608B
:102E1000002070BD300800202C08002008B50A1CD6
:102E20000349031C0868191C00F039F808BDC046A6
:102E3000E404002038B5074C0023051C081C23605F
:102E4000FFF774F8431C03D12368002B00D02B60DC
:102E500038BDC04648080020031C0A7801311A70AA
:102E60000133002AF9D170470023C25C0133002AE4
:102E7000FBD1581E704730B5031C002A07D00C78D0
:102E800001335D1E013A2C700131002CF5D19A18E6
:102E9000934203D0002119700133F9E730BDF8B532
:102EA000061C0C1C151C002904D1111CFFF762FF25
:102EB000041C18E0002A03D1FFF714FF2C1C12E0B9
:102EC00000F013F8A8420ED2301C291CFFF752FF65
:102ED000071E07D0211C2A1CFFF7FAFE301C211CFC
:102EE000FFF700FF3C1C201CF8BD04390B68181FBD
:102EF000002B02DAC8581B18181F70474849442095
:102F00004F55545055542046524F4D2000202873A1
:102F1000697A653A002900436F6E6E656374696F64
:102F20006E2066726F6D2000626F6F74696E67004D
:102F3000626F6F74206F6B00420000F840A0044085
:102F400001000000420000F844A00440020000001C
:102F5000C00000F800C0044001000000000000F8BC
:102F60000490044002000000000000F808900440B3
:102F700004000000C00000F81CC0044080000000F5
:102F8000C00000F810C0044010000000C00000F8AD
:102F900008C0044004000000C00000F80CC0044059
:102FA00008000000800000F80CB004400800000099
:102FB000800000F810B0044010000000800000F80D
:102FC00018B0044040000000800000F81CB004402D
:102FD00080000000800000F814B0044020000000D1
:102FE000C00000F804C0044002000000800000F8A7
:102FF00000B0044001000000400000F800A00440C0
:1030000001000000400000F804A00440020000009D
:10301000400000F80CA0044008000000400000F848
:1030200008A0044004000000C00000F814C00440E0
:1030300020000000C00000F818C00440400000005C
:10304000800000F804B0044002000000800000F896
:1030500008B0044004000000020100F850D0044011
:1030600010000000020100F854D0044020000000CD
:10307000030100F878D0044040000000FFFFFFFF8C
:1030800000000000000000003F1A0000571A000076
:103090000F1A00001F1A0000171A0000271A00005C
:1030A000A5190000BD190000DD190000E519000098
:1030B000EF190000FF1900002F1A0000371A000056
:1030C00075190000811900008D1900009919000080
:1030D000671A00004B1A00000D0AFFFFFFFFFFFFF9
:1030E0000000000000000000A71D0000B11D00004E
:1030F000871D00008F1D0000971D00009F1D000010
:103100000000000000000000BD1D00009D1A00002E
:103110002C5E7460616264346667656E362D373884
:10312000271E1F202122232425267333762E77780D
:103130005F4445464748494A4B4C4D4E4F505152CB
:10314000535455565758595A5B5C5D2F3130636D57
:10315000350405060708090A0B0C0D0E0F10111295
:10316000131415161718191A1B1C1D6F7170752A68
:10317000151519151515FFFF00010000C1020020EB
:103180001200000000020000EC0200209600000087
:1031900000220200820300205500000000210200EE
:1031A0004003002009000000002203007C020020F0
:1031B0004500000000210300590300200900000021
:1031C00000220400D7030020550000000021040065
:1031D0007203002009000000000300006A040020C0
:1031E0000000000001030904D402002000000000D8
:1031F000020309042C04002000000000030309045A
:103200006E0400200000000000000000000000002C
:1032100000000000FFFFFFFF0000000000000000B2
:10322000E7290000FF290000B7290000C729000096
:10323000BF290000CF2900004D29000065290000AA
:10324000852900008D29000097290000A72900008A
:10325000D7290000DF2900001D29000029290000CE
:1032600035290000412900000F2A0000F329000041
:1032700000000000000000000F2B0000272B0000C2
:10328000DF2A0000EF2A0000E72A0000F72A0000EA
:10329000752A00008D2A0000AD2A0000B52A000022
:1032A000BF2A0000CF2A0000FF2A0000072B0000E1
:1032B000452A0000512A00005D2A0000692A00000A
:1032C000372B00001B2B00004300FFFF0000000015
:1032D00000000000000000000000000000000000EE
:1032E00000000000000000000000000000000000DE
:1032F00000000000000000000000000000000000CE
:1033000000000000000000000000000000000000BD
:1033100000000000000000000000000000000000AD
:10332000000000000000000000000000F8B5C046EA
:10333000F8BC08BC9E46704739040000811A0000A2
:0C334000CD1D0000292A0000512B0000C8
:10334C00FFFFFFFF0A0400004C08002005010902E2
:10335C00A101850105091901290815002501950808
:10336C007501810205010930093109381581257F64
:10337C00750895038106C005010902A101850205A6
:10338C000109300931150026FF7F75109502810265
:10339C00C012010002EF020140C0168704000101B7
:1033AC000203010018035400650065006E007300F1
:1033BC0079006400750069006E006F0009029600C8
:1033CC00050100C032080B000202020104090400CE
:1033DC000001020201000524001001052401010175
:1033EC000424020605240600010705820310004090
:1033FC0009040100020A0000000705030240000056
:10340C0007058402400000090402000103010100C9
:10341C000921110100012255000705810308000153
:10342C00090403000103000000092111010001221D
:10343C004500070585030800020904040001030088
:10344C000000092111010001225500070586031017
:10345C00000105010906A10175019508050719E090
:10346C0029E7150025018102950875011500250134
:10347C00050C09E909EA09E209CD09B509B609B74C
:10348C0009B88102950575010508190129059102F4
:10349C00950175039103950675081500257F0507A1
:1034AC001900297F8100C005010904A1011500251F
:1034BC0001750195200509190129208102150025A6
:1034CC00073500463B017504950165140501093962
:1034DC00814205010901A100150026FF03750A951B
:1034EC000409300931093209358102C0150026FF63
:1034FC0003750A9502093609368102C03E03530052
:10350C0065007200690061006C002F004B006500C3
:10351C00790062006F006100720064002F004D00A2
:10352C006F007500730065002F004A006F00790072
:10353C0073007400690063006B00040309040C033E
:10354C00000000000000000000000000000000006F
:10355C000000000000000000CC320000EC32000043
:10356C000C33000000000000000000000000000010
:10357C0000000000C8320000000000000000000045
:10358C00000000000000000000000000000000002F
:10359C00000000000000000000000000000000001F
:1035AC00000000000000000000000000000000000F
:0835BC0000000000840400205F
:00000001FF
