:1000000000180020C1000000351D0000011D000087
:10001000011D0000011D0000011D0000011D000068
:10002000011D0000011D0000011D0000351D000024
:10003000351D0000011D0000351D0000F11C0000F1
:10004000351D0000351D0000351D0000351D000068
:10005000351D0000351D0000351D0000351D000058
:10006000351D0000351D0000351D0000351D000048
:10007000510C0000B521000009260000351D0000CC
:10008000351D0000351D0000351D0000351D000028
:10009000351D0000351D0000351D0000351D000018
:1000A000950E0000351D0000351D0000351D0000B7
:1000B000351D0000351D0000351D0000351D0000F8
:1000C00038B501F03BFE454A454B1A60454A464B60
:1000D0001A60464A464B1A60464B0822197811426C
:1000E00002D019780A431A70434B2A221A7000234F
:1000F000424A43499A188A4204D24249C9580433B1
:100100001160F5E7404B41491A1F181D00238A4230
:1001100002D21360031CF6E73D493E4A5958101CB1
:1001200099500433C02BF7D100239A083A49920022
:10013000521803211940C9001568FF248C40A543BB
:100140002C1C80258D40291C214301331160202B5C
:10015000EBD1324B8A221860314B1A70314B24227A
:100160005A70A0221A709A799107FCD59A79D5060F
:10017000FCD498790C212B4A01400829F9D103219C
:100180001171402151719A799106FCD59A795506E1
:10019000FCD5254AC02189051160224A2021117011
:1001A00099790C220A400C2AFAD1204A204B1A6075
:1001B000204A214B1A60214B00221A60204B072253
:1001C0001A60204A204B1A6062B600F0D9FA02F099
:1001D0005FFC01F0B9FD01F0ECFCFEE7300004F03B
:1001E00034800440823F0000388004400100000F4A
:1001F0003C80044002D0074000E0074060FDFF1F44
:1002000070FEFF1FAC30000074FEFF1F9001002045
:100210000000000000F9FF1F00E400E008ED00E02E
:10022000005006400040064044800440C0000505E0
:1002300004800440BF5D000014E000E018E000E02E
:1002400010E000E00000202020ED00E0FFFFFFFFB5
:10025000FFFFFFFFFFFFFFFFFFFFFFFFFFFFFFFFAE
:10026000FFFFFFFFFFFFFFFFFFFFFFFFFFFFFFFF9E
:10027000FFFFFFFFFFFFFFFFFFFFFFFFFFFFFFFF8E
:10028000FFFFFFFFFFFFFFFFFFFFFFFFFFFFFFFF7E
:10029000FFFFFFFFFFFFFFFFFFFFFFFFFFFFFFFF6E
:1002A000FFFFFFFFFFFFFFFFFFFFFFFFFFFFFFFF5E
:1002B000FFFFFFFFFFFFFFFFFFFFFFFFFFFFFFFF4E
:1002C000FFFFFFFFFFFFFFFFFFFFFFFFFFFFFFFF3E
:1002D000FFFFFFFFFFFFFFFFFFFFFFFFFFFFFFFF2E
:1002E000FFFFFFFFFFFFFFFFFFFFFFFFFFFFFFFF1E
:1002F000FFFFFFFFFFFFFFFFFFFFFFFFFFFFFFFF0E
:10030000FFFFFFFFFFFFFFFFFFFFFFFFFFFFFFFFFD
:10031000FFFFFFFFFFFFFFFFFFFFFFFFFFFFFFFFED
:10032000FFFFFFFFFFFFFFFFFFFFFFFFFFFFFFFFDD
:10033000FFFFFFFFFFFFFFFFFFFFFFFFFFFFFFFFCD
:10034000FFFFFFFFFFFFFFFFFFFFFFFFFFFFFFFFBD
:10035000FFFFFFFFFFFFFFFFFFFFFFFFFFFFFFFFAD
:10036000FFFFFFFFFFFFFFFFFFFFFFFFFFFFFFFF9D
:10037000FFFFFFFFFFFFFFFFFFFFFFFFFFFFFFFF8D
:10038000FFFFFFFFFFFFFFFFFFFFFFFFFFFFFFFF7D
:10039000FFFFFFFFFFFFFFFFFFFFFFFFFFFFFFFF6D
:1003A000FFFFFFFFFFFFFFFFFFFFFFFFFFFFFFFF5D
:1003B000FFFFFFFFFFFFFFFFFFFFFFFFFFFFFFFF4D
:1003C000FFFFFFFFFFFFFFFFFFFFFFFFFFFFFFFF3D
:1003D000FFFFFFFFFFFFFFFFFFFFFFFFFFFFFFFF2D
:1003E000FFFFFFFFFFFFFFFFFFFFFFFFFFFFFFFF1D
:1003F000FFFFFFFFFFFFFFFFFFFFFFFFFFFFFFFF0D
:10040000FFFFFFFFFFFFFFFFFFFFFFFFFEFFFFFFFD
:1004100010B5064C2378002B07D1054B002B02D0DA
:10042000044800E000BF0123237010BD70FEFF1FD1
:1004300000000000AC30000008B5084B002B03D0D2
:100440000748084900E000BF07480368002B03D0B5
:10045000064B002B00D0984708BDC04600000000A6
:10046000AC30000074FEFF1F70FEFF1F0000000094
:1004700010B5041C081C211C00F04EFB201C10BDF4
:1004800038B5051C081C0C1C02F0FEFB2B68021C76
:100490005B68281C211C984738BD38B5041C01F046
:1004A0002BFA051C201C01F049FA401938BDFFFF4A
:1004B000F0B589B0041C0E1C68461949171C01F0E0
:1004C000E3FA694604A801F0FCFA211C04A801F033
:1004D0004AFB144901F039FB311C01F04AFB124977
:1004E00001F033FB114D011C281CFFF7D6FF04A8B7
:1004F00001F086FA684601F083FA3C1CE31BB34224
:1005000009DA2178281C01F064FA281C0849FFF751
:10051000B7FF0134F2E7281C01F010FA09B0F0BD72
:100520001C2D00002D2D0000352D0000580000204E
:10053000332D000010B588B0041C0E49684601F048
:10054000A3FA694604A801F0BCFA211C04A801F032
:100550000AFB011C0848FFF7A0FF04A801F050FAAD
:10056000684601F04DFA002C02D0044B01221A70AB
:1005700008B010BD372D000058000020BBFEFF1F43
:1005800038B5041CFFF77CFF051C201C01F0D6F9D0
:10059000281838BD10B51F4800F0D8F81E4C1F4968
:1005A000201CFFF7EDFF1A2000F04EF9002000F0AC
:1005B00091F9132000F012FA011C481E8141201C01
:1005C00001F0FEF9201C01F0B9F91220002100F021
:1005D00079F8134A134B201C1A60134A134B144921
:1005E0001A60144A144B1A60144B9F221A7021226D
:1005F0005A70A1229A70FF221A727F229A71DA71C0
:1006000001330322DA770E4B01221A70FFF7B8FF8D
:1006100010BDC046983A000058000020482D000048
:10062000710400008CFEFF1FB104000094FEFF1F48
:10063000502D00003505000090FEFF1F98FEFF1FA3
:10064000BBFEFF1F08B500F091FA002808D000F0AB
:100650009DFA0A4BC1B21A68181C12689047F2E75B
:1006600000F0DCFF002807D000F090FF044BC1B27F
:100670001A68181C1268904708BDC0465800002030
:100680004800002010B51A2818D80C2358430C4AEB
:10069000835810181C7D027A224205D0002901D00F
:1006A0001A710BE01A7209E043681A68002902D037
:1006B00003210A4301E002218A431A6010BDC046AB
:1006C000582D000010B51A2818D80C2358430C4A8E
:1006D000141863688258247A012904D1117D0C43CF
:1006E0001475A22205E0107DA0431075002902D1E7
:1006F0008022520001E00422FF321A6010BDC04681
:10070000582D000072B60C4B0C491A680C4B1B6834
:10071000096862B6480104D53221914289414942B3
:100720005B18FA20800043430648821A0648424379
:10073000920D98187047C04618E000E004ED00E004
:10074000BCFEFF1FBF5D0000ABAA020038B5041C51
:10075000FFF7D8FF051C002C0ED0FFF7D3FF074B87
:10076000401B984205D9013C002C05D0FA239B0080
:10077000ED1801F051FAF0E738BDC046E70300007C
:100780001C4B8022D20510B51A60802212061A6016
:10079000194B002018601949194B1A4A196028236F
:1007A0001360194A194C1360194A1360194A1360EF
:1007B000194A1360194A136009222260184C2060FC
:1007C000184C2160184C2360184C2360184C226090
:1007D000184C20601848016018490B6018490B60DC
:1007E000184B1A6001F03CFAFA20FFF7AFFF00F057
:1007F00031FE10BD00E100E004800340FFBF0000B7
:10080000088003400C8003401480034000800340B4
:100810001C800340248003402C800340348003402C
:1008200004900340089003400C9003401490034050
:100830000090034004A0034008A003400CA0034024
:1008400014A0034000A00340164B80221968D20078
:100850000A431A60144A00231370144A144913708F
:10086000144A1370144A1370144A1370144A116016
:10087000144AD12189001160134AC104C90EC0B2C3
:100880001170507093702C23D370104BFF22196895
:1008900091430A1C40210A431A600D4B80225201E9
:1008A0001A6070473480044048FFFF1FC5FEFF1FD9
:1008B0001303000050FFFF1F49FFFF1FC4FEFF1F6F
:1008C00040A0044044A0044000A006400CE400E026
:1008D00000E100E010B5124B1322997891430322F6
:1008E00002400A43410701D510210A439A700F22A2
:1008F0000B490240042A03D18A79402422438A7199
:100900005A7910218A43084200D00A435A719A79D1
:1009100010218A43840600D50A439A7110BDC0464F
:1009200000A0064008B5124B1B685A051ED5114B96
:100930001B78DBB2002B02D001F06EF9F7E70E4A0C
:100940008021490111600D4A0D49D3700422FF3204
:100950000A600C490A600C4A13700C4A13700C4B65
:100960001B68002B02D00B4A12781A7108BDC046D2
:1009700034800440C4FEFF1F80E100E000A0064078
:1009800040A0044044A0044048FFFF1FC5FEFF1FD5
:10099000C0FEFF1F06FFFF1F38B5041C0B4B1D7860
:1009A000EDB2002DFAD1201C0121FFF78BFE291C8E
:1009B000201CFFF767FE0C225443054B054AE15803
:1009C0001C191160044B227A1A7038BDC4FEFF1F37
:1009D000582D00004CFFFF1F47FFFF1F38B50E4B7F
:1009E0001A680023510514D50C4C1A2810D80C2372
:1009F00043430B4A0B4D9958D3181B7A21600121B0
:100A00002B70FFF75FFE23682A781A72012300E03B
:100A10002360181C38BDC04634800440C0FEFF1F50
:100A2000582D000006FFFF1F0C4B021C1B68002006
:100A3000590512D50A4B122A02D10A490A4A03E083
:100A4000142A06D10749094A11605A7B0120024342
:100A500002E05A7B01218A435A7370473480044074
:100A600000A00640020300000CA0044014C0044093
:100A7000F8B5214B071C1B685A053BD51F4B1B685B
:100A8000002B02D01E4A12781A711E4E00233478B1
:100A90003F220134A2425B415B421C401A4D2B783D
:100AA000A3421CD101F05AF9402813DC174A1379EC
:100AB0005BB2002BF2DA2B78002101333F20984201
:100AC000494149420B401249C95CDBB2C9B2D171FC
:100AD0002B70E3E7FF28E1DD01F09EF8DEE70C4B29
:100AE000FFB21F550B4B01221A70084BE4B2AC2227
:100AF0003470DA70F8BDC046348004404CFFFF1FEC
:100B000047FFFF1F50FFFF1F49FFFF1F00A00640C8
:100B1000C6FEFF1FC4FEFF1F38B5041C4518AC42BB
:100B200004D02078FFF7A4FF0134F8E738BDFFFFB9
:100B300008B5044B1B78002B02D001F06DF8F8E7E4
:100B400008BDC046C4FEFF1F064B074A1B7810783D
:100B5000DBB2C0B2834201D33F3000E00138C01A9B
:100B60007047C04650FFFF1F49FFFF1F054B187815
:100B7000054BC0B21B78DBB2984200D24030C01A9D
:100B80007047C04648FFFF1FC5FEFF1F10B5124B40
:100B900012491A780B78D2B2DBB29A4219D00133DB
:100BA0003F2400209C424041404203400C48DCB2BC
:100BB000C05C0C700B49C0B2096800290BD09A4286
:100BC00000D24032D31A1A2B05DC074B1B780B726C
:100BD00001E00120404210BD48FFFF1FC5FEFF1F7E
:100BE00007FFFF1FC0FEFF1F06FFFF1F0A4B1A78FB
:100BF0000A4B1B78DBB29A420AD0013300223F2114
:100C00009942524152421340054AD05CC0B201E0C1
:100C1000012040427047C04648FFFF1FC5FEFF1F2E
:100C200007FFFF1F064B1A78064BD2B21A70064B0D
:100C30001B68002B02D0054A12781A727047C04612
:100C4000C5FEFF1F48FFFF1FC0FEFF1F06FFFF1F5F
:100C500030B5254A1379990612D52449D4790B78F1
:100C6000002001333F259D4240414042034020483F
:100C7000E4B20078834203D01E48C454DBB20B7048
:100C8000D178194CC9B24BB2002B1ADA23795BB276
:100C9000002B16DA184B19481D780378DBB29D42F9
:100CA00002D16C23E3700CE0013300243F259D4208
:100CB000644164422340124CE45CDBB2E4B2D47180
:100CC0000370402319420ED0117919420BD00D4BFD
:100CD000002119700C4B1B688B4202D00B4909781C
:100CE00019722C23D37030BD00A0064048FFFF1FAF
:100CF000C5FEFF1F07FFFF1F50FFFF1F49FFFF1F1C
:100D0000C6FEFF1FC4FEFF1F4CFFFF1F47FFFF1F54
:100D1000F0B50B4F02223B780A4E1A43D2000A4D1F
:100D2000B418606028788824002800D0C8240904FA
:100D30000C43B45001225040534028703B70F0BD2A
:100D4000BCFFFF1F00F8FF1F34000020431E10B53A
:100D5000032B0FD872B6084A99008858002807D08C
:100D600044685B008C50054A01889C5A611A99526C
:100D700062B600E0002010BDACFFFF1F7C01002028
:100D8000431E0020032B09D872B6054A9B009B58CE
:100D9000002B02D001305B68FAE762B67047C046AC
:100DA0000000002038B572B60123164A9A18013A9D
:100DB000127811071CD5144A5C01A5589900002D22
:100DC00005D1131908305860104BA3500AE00124D4
:100DD0002143C9008C58002C0AD1531808305860A0
:100DE0000B4B8B500B4B1A78013A1A7062B608E025
:100DF0000133052BD9D162B6064B00221A7000F0E0
:100E00009DFB38BD202F000000F8FF1F8800400028
:100E1000C80040002A000020421E10B5032A30D826
:100E2000022380001843174BC0001B1872B6164CE3
:100E3000A05C032809D801F0A9FD140216050833A7
:100E4000022011E0083304200EE0104892001458EC
:100E50000F4B002C01D1115001E09858416099507E
:100E60000EE0032000E00520A0540A1C08325A605E
:100E70008822180700D5C822098809040A431A6085
:100E800062B610BD00F8FF1F68FFFF1F00000020C2
:100E900010000020F7B5B3490C780E1CE4B26207CD
:100EA0001DD5B14B1B78002B16D0B04A1378DBB29E
:100EB000002B05D0013BDBB21370002B00D100BE2C
:100EC000AB4A1378DBB2002B06D0013BDBB21370C8
:100ED000002B01D100F058FCA24D04232B700825F3
:100EE000221C2A4000D14CE2A24BA34C1B78DBB25F
:100EF0001E099A08002E00D0D5E1D50065192F688B
:100F00006A68B806000F01380C2800D9C8E101F062
:100F100047FD8B018B01C701C701C701C701C7018D
:100F2000C701A401C701C701C7010D009349136898
:100F3000934F526893482960934D944900263B6033
:100F40007A609BB201222E602661A66102708B42FC
:100F500018D8D021C9008B4200D3E5E0812191400F
:100F60008B4200D1C2E006D8802B00D1A9E0822BB1
:100F700000D1ABE0F1E0864A934200D1C5E0A02267
:100F8000D20017E083498B4200D14AE10DD8882175
:100F900009018B4200D18EE090221201934200D0D1
:100FA000DBE0BA78704B1A7009E07B4A934200D1BB
:100FB000CFE07A4A0026934200D10DE1CDE0A3199B
:100FC000196A090603D5586A083800F0B7FA0836D6
:100FD000802EF4D100252E1C714AA858002805D077
:100FE0004368019300F0AAFA0198F7E76C496D4B4A
:100FF0006D4A4851E850A858002805D0436801932D
:1010000000F09CFA0198F7E7684B694AE8507300D2
:10101000D0526549674B4851F05C0238032807D825
:1010200001F0B4FC02040204002200E001229A55FF
:1010300001360435042ECFD15F4A002313700125F9
:10104000161C5E4BEA185E4B9200EB18013B1B78B6
:101050001370190720D500F053FA6B01002805D052
:10106000E21808305060574AE25003E0E05033780D
:101070000133337000F044FA0122AB001343DB006C
:10108000002805D0E218083050603C4AE25003E0E6
:10109000E050337801333370AB0002221A43D200A0
:1010A0000021A1500322134393400135E150052D47
:1010B000C7D10E1C90E02C4B434C1B78161C2370A0
:1010C0008BE0414C26706670022686E0BB88042BBC
:1010D00043D83D4C3D4D9B00267066705B191B78D4
:1010E0000226334200D178E0227076E0BA887F236E
:1010F0001340042B31DC7E88002E2ED133499B0017
:101100005B181A7802218A4325E0BA887F231340AE
:10111000042B22DC7E88002E1FD12C4A9B009B18BA
:101120001A7802210A4316E07A88B988284B5C684D
:10113000002C12D01888904209D15888884206D1D4
:10114000120A032A01D1267847E01E8945E00C33B4
:10115000EDE7BA781F4B1A703EE01C4B0F221A7055
:101160005FE0C0468020074033000020BDFFFF1F26
:10117000350000209020074000F8FF1FC800400005
:10118000200000203400002054FFFF1F81060000D3
:101190000203000021200000212200002123000082
:1011A000ACFFFF1F58FFFF1F0000002010000020B1
:1011B0007C01002068FFFF1F2A00002030C80110BA
:1011C000202F0000880040002B000020C020074096
:1011D000242F000044000020341CFB889E4200D9CC
:1011E0001E1C371E402F00D94027201C391CFFF73A
:1011F0008FFDE419F61B03D1351C402F04D010E0FD
:101200004025B54200D9351C201C291CFFF780FD64
:101210006419761B01D1402D03D1754D754B2C609F
:101220001E800122744B3AE0744B1988744B99422A
:1012300010D10023D05C7349C8540133072BF9D176
:101240000B68862B02D1704B0F221A700020011CF4
:10125000FFF75EFD6D4B2B6022E0654F3D68002D72
:1012600013D064490E88341E402C00D94024281C19
:10127000211CFFF74DFD361B5E4AB6B21680002ECC
:1012800001D1402C00D12E193E605C4BA022198860
:10129000D200914204D100225A709A785C4B1A70A5
:1012A0000122554B61E0D200A4186068013E083865
:1012B000F6B22B4036D000F041F95649B000425802
:1012C000554B002A1BD055684550111C985D0831BC
:1012D000616003280BD801F059FB020406080321C2
:1012E00004E0022102E0052100E004219955882351
:1012F000270700D5C8231288120413433CE0985DE9
:10130000032808D801F042FB39390204002200E02A
:1013100001229A5531E02C40624262410324A41A12
:101320009C552AE062880280002A20D03B4D4380F1
:101330004360B3005F593A49002F01D1585101E091
:10134000CD586860C850374B7600F15A5218F252A7
:1013500000F0D6F8002804D00830606021070AD5D4
:1013600007E0314B20601A7801321A7005E02C42F8
:1013700001D0264B00E02D4B23602D4A082313702B
:1013800089E5012004421ED01B4902230B70294B22
:10139000264C1A70284B294D1C609C60284C1A6101
:1013A000DC609A615D60274B0D241C70264CFF2386
:1013B0002370174C33702270244A1370244B9F22E1
:1013C0001A70087013E063B2002B04DA1D4B0D2273
:1013D0001A708023337002231C4204D01A4A1178F9
:1013E000C9B21170337010231C4200D03370F7BDA6
:1013F00054FFFF1F280000209420074020000020F9
:101400002120000084010020BDFFFF1FC800400014
:10141000982007400000002068FFFF1FACFFFF1F5F
:1014200058FFFF1F7C0100202A0000208800400098
:1014300080200740BCFFFF1F00F8FF1F6CFFFF1F4D
:10144000C0FFFF1FC0200740882007408C200740B6
:101450008420074010B501F037F900221A4B002113
:10146000D150981808324160882AF7D1174A802055
:101470001468C00220431060180A154AC0B21070E8
:10148000180C144AC0B21070134A1B0E1370134A82
:10149000FF231370124A13481370134A137001226A
:1014A00002701248017012490A70124A1168994379
:1014B0000B1C70210B4313600F4B802252041A60E7
:1014C0000E4B10221A7010BD00F8FF1F348004402C
:1014D0009C200740B0200740B420074080200740F0
:1014E0008820074094200740102007400021074033
:1014F0008420074018E400E000E100E008210740F4
:1015000038B572B60B4C2568281C01F0A3FA0B28DD
:1015100002D962B600200CE080231B06C3409D4325
:10152000256062B648235843034B18180023036014
:10153000436038BD60FDFF1F00FAFF1F10B5041C9B
:101540000E484821201A01F035FA0B2815D80C4B0B
:101550001B78002B07D00B4B1B78002B03D0201CD3
:10156000FFF720FC09E072B68022074B1206C2404A
:10157000101C1A681043186062B610BD00FAFF1FF5
:101580002A0000203300002060FDFF1F38B5114CF9
:101590002368002B0CD020684288531C8218157ACF
:1015A0000288934212D3FFF7C9FF002323600EE0A5
:1015B000094B1B78002B02D10120404208E0032098
:1015C000FFF7C4FB20600028E5D1F5E74380281C25
:1015D00038BDC046400000203300002010B50D4C3F
:1015E0002368002B03D02368002B0ED103E00A4BA5
:1015F0001B78002B02D10120404209E00320FFF7B5
:10160000A5FB20600028EED1F5E75A889B18187AD0
:1016100010BDC0464000002033000020054B9888D4
:10162000054B1B68002B03D01A885B88D31AC0189F
:101630007047C0467C01002040000020F7B5304DC7
:101640000123071C0C1C2B70002C56D02D4E30682B
:10165000002827D12C4A01922C4B1B78DBB2002B9F
:1016600003D12B700120404249E00420FFF788FBA2
:10167000072808D801232B70FFF742FF214B186081
:1016800000280FD128700198214B013801900028C3
:1016900002D01A78002A02D001221A70E2E700F084
:1016A000BBFAD9E71A4B002231681A704B884020E8
:1016B000C01A0094844200D90090181C009A083087
:1016C0009B1808184B800190A41A002300988342AD
:1016D00004D0F85C019AD0540133F7E7FF184B8827
:1016E0003F2B06D940230B800420FFF795FB0023F6
:1016F0003360084B05221A70A6E72C70201CFEBD33
:101700003600002038000020A547000033000020EC
:101710003C0000203500002007B56B46D871073328
:10172000181C0121FFF78AFF0EBDFFFFF8B5124B11
:101730001B78002B1ED0114F114B3C6801261E70E8
:10174000104D002C09D000262E70638804202380C1
:10175000211CFFF761FB3E6009E0FFF7D1FE011E8F
:1017600004D004202C70FFF757FB00E02E70044AD1
:1017700000231370F8BDC04633000020380000205D
:10178000360000203500002038B50E4B1D78EDB234
:10179000002D15D10C4C2168002906D04B8804205F
:1017A0000B80FFF739FB25600AE0FFF7A9FE011E59
:1017B00003D00420FFF730FB02E0044B01221A7033
:1017C00038BDC0463600002038000020350000201B
:1017D00008B50368C9B21B68984708BD08B5036817
:1017E000C9B21B68984708BD08B50368C9B21B6831
:1017F000984708BD08B50368C9B21B68984708BD7B
:1018000008B5044B4808C01801F0D4F8FFF71CF8DD
:1018100008BDC046C0C62D0010B5064B4808C0180C
:10182000141C01F0C7F8FFF70FF8201CFFF752F85F
:1018300010BDC046C0C62D0008B5FFF773F808BD3F
:1018400008B5081CFFF7A8F808BD08B5081CFFF785
:10185000C5F8431E9841C0B208BD08B5081CFFF783
:10186000E3F8431E9841C0B208BD08B5FFF77EF902
:1018700008BD08B5FFF7BAF908BD08B5FFF786F946
:1018800008BD08B5FFF754F908BD08B5FFF7CAF958
:1018900008BD08B5FFF758F908BD08B5081CFFF7E3
:1018A000E7F8012008BD08B5081CFFF7E1F80120A2
:1018B00008BD10B5081C141C111CFFF72DF9201CC5
:1018C00010BD38B5081C0D1C01F0DEF9041C211CEC
:1018D000281CFFF721F9201C38BD7047044B00225B
:1018E0001A711A73FA21034A890099601A607047C5
:1018F00048000020A82E0000F0B500258DB08C68AF
:10190000061C0F1C0195002C14D02122381C03A9A1
:101910002B1C00F034F9221E202A00D92022336823
:10192000301C5B6803A9AD18A41A9847019B1B18CB
:101930000193E8E701980DB0F0BDFFFF37B5022431
:10194000051C221C01A8054901F0D2F82B68281CAF
:101950005B6801A9221C98473EBDC046F82E0000D6
:10196000F0B585B06B460E338EB2144C0D0C0136BB
:1019700066436C43A5B2370CAE19F619250C2C1929
:10198000360CA5196D080A266E43891B30311C1CC4
:101990001970013B002D01D0291CE5E7211C002A0C
:1019A00003D01C1C2D224B1E1A70036804A9E243AD
:1019B00052185B68211C984705B0F0BD3333000016
:1019C000002208B5914201DA49422D22FFF7C8FFF3
:1019D00008BD37B56A460B1C07320F241C40251C76
:1019E000111C3735092C00D8073D15701B09013A29
:1019F000002BF2D1036802AC621A5B6898473EBDC7
:101A000010B5041C006801F069F8201C10BD38B541
:101A1000041C0D1C0068013101F010F9002801D0F0
:101A200021C4012038BD436810B5041C8B4208D284
:101A3000FFF7EDFF002805D0A368002B01D1226835
:101A40001370012010BDF8B5041C0F1C151E05D124
:101A50000368002B00D01A7000230DE0111CFFF763
:101A6000E2FF061C2068002E08D1002802D001F0F9
:101A700035F8266000236360A36003E0A560391C8D
:101A800001F0FAF8201CF8BD38B50023041C0D1C29
:101A90000360436083600373994207D0081C01F020
:101AA000F3F8291C021C201CFFF7CDFF201C38BDB9
:101AB00008B50B1C884203D009689A68FFF7C3FF7A
:101AC00008BD10B50023041C0360436083600373EA
:101AD000FFF7EEFF201C10BD70B5041C0E1C8568BE
:101AE000002A0CD05519291CFFF79DFF002806D0AD
:101AF0002268A368311CD01801F0BEF8A560201C34
:101B000070BD1FB5041C0A22081C01A900F079F958
:101B100001A801F0B9F801A9021C201CFFF7DCFFA5
:101B2000201C04B010BD1FB5041C0A22081C01A90A
:101B300000F067F901A801F0A7F801A9021C201C18
:101B4000FFF7CAFF201C04B010BD38B5051C0C1EE1
:101B500007D0081C01F098F8211C021C281CFFF774
:101B6000BBFF281C38BD10B5041CFFF7CAFF201CA2
:101B700010BD10B5041CFFF7D6FF201C10BD38B5F2
:101B80000D1C002A14D0002912D081688B4202D388
:101B900000232B700CE0541EC91A8C4200D90C1C77
:101BA0000168221CC918281C01F075F800232B5568
:101BB00038BD08B5FEF7EEFCFEF744FD00F02CF84A
:101BC000FAE708B5FFF72AFD08BD08B5FFF7DEFC08
:101BD00008BD08B5FFF702FD08BD08B5FFF7A6FD73
:101BE00008BD08B5081CFFF797FD08BD08B5081C1F
:101BF000111CFFF723FD08BD7047FFFF044B0022B7
:101C00001A711A73FA21034A890099601A607047A1
:101C100058000020082F000010B5104C2378002B2E
:101C20001BD101232370FFF7F9FC002801D0FFF737
:101C3000E3FFFEF79BFF002801D0FFF74EFE00F008
:101C400067FA002801D000F0FEFD00F08BFC0028B0
:101C500001D000F08CFE0023237010BD680000202E
:101C60001B4B1C4A19781C4B082901D1002102E0AA
:101C70000A2903D138211160132206E00C2901D171
:101C8000342100E03C21116012221A60134B1A78B3
:101C9000134B002A01D0002200E001221A60114BF0
:101CA0001A78114B012A01D880220CE0042A01D8AD
:101CB000842208E0082A01D8852204E0102A01D8ED
:101CC000862200E087221A60084B01221A707047B2
:101CD00064FDFF1F08B003400CB003406A00002001
:101CE00020B0034065FDFF1F24B0034069000020C1
:101CF000024B1A6801321A607047C046BCFEFF1FD3
:101D000010B50B4C23685A0301D5FFF7C3F82368BD
:101D10005A0501D5FEF79CFF23681A0501D500F08E
:101D200049FA2368DA04ECD500F06EFCE9E7C04616
:101D30003480044008B5FFF7E3FFFFFF014B0022AA
:101D40001A607047008104407047FFFF024A136821
:101D500018181060181C704768FDFF1FEFF3138000
:101D6000002821D1EFF31082002A1FD1EFF3058361
:101D7000002B0FD0101C0F2B0ED91A1C103A9208F2
:101D80000B49032092000340521883401068D8404A
:101D9000C0B201E080204000EFF31182002A05D09C
:101DA000824203D2101C01E0012040427047C0462D
:101DB00000E400E0F8B5061C0D1C171C0024301CC4
:101DC000391C00F03BFE092901D8303100E03731E1
:101DD000C9B22955301C391C00F0ECFD061E01D09B
:101DE0000134ECE72B1958702B1C5A1BA24206DA5F
:101DF0001A78295D19702A550133013CF5E7281C32
:101E0000F8BD10B50C1C002802DBFFF7D3FF06E07D
:101E10002D230B7040420131FFF7CCFF201C10BD79
:101E2000164B8022196812010A431A60144A0023D3
:101E30001370144A14491370144A1370144A13701F
:101E4000144A1370144A1160144AD1218900116098
:101E5000134AC104C90EC0B21170507093702C2384
:101E6000D370104B104A19680A408021C9010A43F7
:101E70001A600E4B802292011A6070473480044031
:101E8000D60000206C00002013030000DC000020BE
:101E9000D70000206B0000200CB0044010B00440BC
:101EA00000B006400CE400E0FF00FFFF00E100E0AE
:101EB00010B5124B132299789143032202400A4332
:101EC000410701D510210A439A700F220B490240A5
:101ED000042A03D18A79402422438A715A79102135
:101EE0008A43084200D00A435A719A7910218A43E2
:101EF000840600D50A439A7110BDC04600B0064062
:101F000008B50E4B1B681A0517D50D4B1B78DBB2B5
:101F1000002B02D0FFF780FEF7E70A4A80218901F3
:101F20001160094A0949D3700422FF320A60084946
:101F30000A60084A1370084A137008BD34800440D0
:101F40006B00002080E100E000B006400CB00440CF
:101F500010B00440D60000206C00002038B5041CEE
:101F60000B4B1D78EDB2002DFAD1201C0121FEF79C
:101F7000A9FB291C201CFEF785FB0C225443054BB2
:101F8000054AE1581C191160044B227A1A7038BDB9
:101F90006B000020582D0000D8000020D500002044
:101FA0000B4B00221B68190510D50A4B162809D1C6
:101FB000094AC021890011605A7B08210A435A73DB
:101FC000012203E0597B082081435973101C70479C
:101FD0003480044000B0064004B004400A4B021CA8
:101FE0001B68002019050ED5084B172A07D1084A8F
:101FF000C021890011605A7B0120024302E05A7B14
:1020000001218A435A7370473480044000B006406F
:1020100008B00440F8B5214B071C1B681A053BD5D6
:102020001F4B1B68002B02D01E4A12781A711E4EDD
:102030000023347827220134A2425B415B421C40DA
:102040001A4D2B78A3421CD1FFF788FE402813DCE1
:10205000174A13795BB2002BF2DA2B780021013397
:1020600027209842494149420B401249C95CDBB2E2
:10207000C9B2D1712B70E3E7FF28E1DDFFF7CCFD9A
:10208000DEE70C4BFFB21F550B4B01221A70084BB9
:10209000E4B2AC223470DA70F8BDC046348004403B
:1020A000D8000020D5000020DC000020D700002050
:1020B00000B006406D0000206B00002038B5041C05
:1020C0004518AC4204D02078FFF7A4FF0134F8E7AC
:1020D00038BDFFFF08B5044B1B78002B02D0FFF77B
:1020E0009BFDF8E708BDC0466B000020064B074A81
:1020F0001B781078DBB2C0B2834201D3273000E0F6
:102100000138C01A7047C046DC000020D70000200C
:10211000054B1878054BC0B21B78DBB2984200D251
:102120004030C01A7047C046D60000206C00002026
:102130000A4B0B4A19781378DBB299420BD0013362
:102140003F2000219842494149420B400549C85C63
:10215000DBB2137001E0012040427047D60000203E
:102160006C000020950000200A4B1A780A4B1B785F
:10217000DBB29A420AD0013300223F2199425241F8
:1021800052421340054AD05CC0B201E001204042F7
:102190007047C046D60000206C000020950000204B
:1021A000024B1A78024BD2B21A7070476C000020B2
:1021B000D600002030B5254A1379990612D5244956
:1021C000D4790B78002001333F259D4240414042A5
:1021D00003402048E4B20078834203D01E48C45430
:1021E000DBB20B70D178194CC9B24BB2002B1ADAA2
:1021F00023795BB2002B16DA184B19481D78037847
:10220000DBB29D4202D16C23E3700CE00133002469
:1022100027259D42644164422340124CE45CDBB2BA
:10222000E4B2D4710370402319420ED011791942DF
:102230000BD00D4B002119700C4B1B688B4202D048
:102240000B49097819722C23D37030BD00B00640B9
:10225000D60000206C00002095000020DC0000204B
:10226000D70000206D0000206B000020D800002067
:10227000D5000020164B8022196852010A431A60CB
:10228000144A00231370144A14491370144A13702B
:10229000144A1370144A1370144A1160144AD1215D
:1022A00089001160134AC104C90EC0B21170507088
:1022B00093702C23D370104B104A19680A40802168
:1022C000C9030A431A600E4B8022D2011A6070477C
:1022D0003480044048010020DE0000201303000089
:1022E0005001002049010020DD00002008C004400A
:1022F0000CC0044000C006400CE400E0FFFF00FFFB
:1023000000E100E010B5124B1322997891430322AB
:1023100002400A43410701D510210A439A700F2257
:102320000B490240042A03D18A79402422438A714E
:102330005A7910218A43084200D00A435A719A7987
:1023400010218A43840600D50A439A7110BDC04605
:1023500000C0064008B50E4B1B68DA0417D50D4BBC
:102360001B78DBB2002B02D0FFF756FCF7E70A4AD6
:102370008021C9011160094A0949D3700422FF3242
:102380000A6008490A60084A1370084A137008BDB9
:1023900034800440DD00002080E100E000C0064001
:1023A00008C004400CC0044048010020DE000020AA
:1023B00038B5041C0B4B1D78EDB2002DFAD1201C52
:1023C0000121FEF77FF9291C201CFEF75BF90C2286
:1023D0005443054B054AE1581C191160044B227AFD
:1023E0001A7038BDDD000020582D00004C0100207F
:1023F000470100200B4B00221B68D90410D50A4B63
:10240000022809D1094AC021890011605A7B08219C
:102410000A435A73012203E0597B08208143597310
:10242000101C70473480044000C0064000C00440C7
:102430000A4B021C1B680020D9040ED5084B0E2A3B
:1024400007D1084AC021890011605A7B012002434C
:1024500002E05A7B01218A435A737047348004405A
:1024600000C0064004C00440F8B5214B071C1B689F
:10247000DA043BD51F4B1B68002B02D01E4A127892
:102480001A711E4E0023347827220134A2425B4188
:102490005B421C401A4D2B78A3421CD1FFF75EFC17
:1024A000402813DC174A13795BB2002BF2DA2B7841
:1024B0000021013327209842494149420B401249EB
:1024C000C95CDBB2C9B2D1712B70E3E7FF28E1DD53
:1024D000FFF7A2FBDEE70C4BFFB21F550B4B0122AF
:1024E0001A70084BE4B2AC223470DA70F8BDC04602
:1024F000348004404C01002047010020500100209E
:102500004901002000C00640DF000020DD0000205F
:1025100038B5041C4518AC4204D02078FFF7A4FF5E
:102520000134F8E738BDFFFF08B5044B1B78002BDA
:1025300002D0FFF771FBF8E708BDC046DD000020C0
:10254000064B074A1B781078DBB2C0B2834201D336
:10255000273000E00138C01A7047C0465001002003
:1025600049010020054B1878054BC0B21B78DBB23F
:10257000984200D24030C01A7047C046480100203F
:10258000DE0000200A4B0B4A19781378DBB299421F
:102590000BD001333F2000219842494149420B4072
:1025A0000549C85CDBB2137001E00120404270476E
:1025B00048010020DE000020070100200A4B1A78A5
:1025C0000A4B1B78DBB29A420AD0013300223F212A
:1025D0009942524152421340054AD05CC0B201E0D8
:1025E000012040427047C04648010020DE00002024
:1025F00007010020024B1A78024BD2B21A707047C2
:10260000DE0000204801002030B5254A13799906E4
:1026100012D52449D4790B78002001333F259D42FF
:102620004041404203402048E4B20078834203D056
:102630001E48C454DBB20B70D178194CC9B24BB2EE
:10264000002B1ADA23795BB2002B16DA184B1948E3
:102650001D780378DBB29D4202D16C23E3700CE05D
:102660000133002427259D42644164422340124CDB
:10267000E45CDBB2E4B2D4710370402319420ED0A3
:10268000117919420BD00D4B002119700C4B1B68AE
:102690008B4202D00B49097819722C23D37030BDBC
:1026A00000C0064048010020DE0000200701002095
:1026B0005001002049010020DF000020DD00002043
:1026C0004C010020470100201FB572B6154B702247
:1026D0001A70154A41211170144A0F21117080227D
:1026E0001A701A7852B2002AFBDA114B186862B6D7
:1026F000104B984201D80A23584301AC211C0A22EE
:10270000FFF758FB0023E15C0B4A002905D0580075
:102710001018013341800A2BF5D101335B0013708F
:102720001FBDC046000002400700024006000240F4
:10273000080002407F969800F4FDFF1F08B503686B
:10274000C9B21B68984708BD08B50368C9B21B68C1
:10275000984708BD08B50368C9B21B68984708BD0B
:1027600008B50368C9B21B68984708BD08B5044B93
:102770004808C01800F01EF9FFF752FB08BDC0461C
:1027800060E3160010B5064B4808C018141C00F092
:1027900011F9FFF745FB201CFFF78AFB10BDC0466F
:1027A000C0C62D0008B5FFF7ABFB08BD08B5081C77
:1027B000FFF7D4FB08BD08B5081CFFF7F1FB431E6B
:1027C0009841C0B208BD08B5081CFFF707FC431EBE
:1027D0009841C0B208BD08B5FFF79AFC08BD08B51E
:1027E000FFF7C2FC08BD08B5FFF7A2FC08BD08B59D
:1027F000FFF770FC08BD08B5FFF7D2FC08BD08B5AF
:10280000FFF774FC08BD08B5081CFFF703FC0120A6
:1028100008BD08B5081CFFF7FDFB012008BD10B579
:10282000081C141C111CFFF749FC201C10BD38B5F6
:10283000081C0D1C00F028FA041C211C281CFFF7A2
:102840003DFC201C38BD7047044B00221A711A73DE
:10285000FA21034A890099601A60704754010020E8
:10286000802F000008B50368C9B21B68984708BDEF
:1028700008B50368C9B21B68984708BD08B5036866
:10288000C9B21B68984708BD08B50368C9B21B6880
:10289000984708BD08B5044B4808C01800F08AF8EE
:1028A000FFF7E8FC08BDC04660E3160010B5064B14
:1028B0004808C018141C00F07DF8FFF7DBFC201C52
:1028C000FFF720FD10BDC04660E3160008B5FFF716
:1028D00041FD08BD08B5081CFFF76AFD08BD08B535
:1028E000081CFFF787FD431E9841C0B208BD08B51C
:1028F000081CFFF79DFD431E9841C0B208BD08B5F6
:10290000FFF730FE08BD08B5FFF758FE08BD08B553
:10291000FFF738FE08BD08B5FFF706FE08BD08B58D
:10292000FFF768FE08BD08B5FFF70AFE08BD08B549
:10293000081CFFF799FD012008BD08B5081CFFF72A
:1029400093FD012008BD10B5081C141C111CFFF7D5
:10295000DFFD201C10BD38B5081C0D1C00F094F9DB
:10296000041C211C281CFFF7D3FD201C38BD704718
:10297000044B00221A711A73FA21034A89009960E4
:102980001A60704764010020D82F000002B471461D
:1029900049084900095C49008E4402BC7047C046A2
:1029A00003B47146490840004900095A49008E4461
:1029B00003BC7047002934D00123002210B48842A0
:1029C0002CD301242407A14204D2814202D209015E
:1029D0001B01F8E7E400A14204D2814202D249007F
:1029E0005B00F8E7884201D3401A1A434C08A04222
:1029F00002D3001B5C0822438C08A04202D3001BB8
:102A00009C082243CC08A04202D3001BDC082243CE
:102A1000002803D01B0901D00909E3E7101C10BCF2
:102A20007047002801D00020C04307B4024802A12B
:102A30004018029003BDC046190000000029F0D0E4
:102A400003B5FFF7B9FF0EBC4243891A1847C046C9
:102A50007047C0461C2101231B04984201D3000C7F
:102A600010391B0A984201D3000A08391B09984201
:102A700001D30009043902A2105C40187047C04617
:102A80000403020201010101000000000000000037
:102A900070B50E4B0E4D0024ED1AAD101E1CAC424D
:102AA00004D0A300F35898470134F8E700F0EEFA99
:102AB000084B094D0024ED1AAD101E1CAC4204D089
:102AC000A300F35898470134F8E770BD9830000030
:102AD0009830000098300000AC30000008B5034B7F
:102AE000011C186800F00EF808BDC0466CFEFF1F00
:102AF00010B50023934203D0CC5CC4540133F9E7F2
:102B000010BDFFFF30B5002940D004390B68002B01
:102B100000DAC9181E4A1368141C002B02D14B603E
:102B2000116033E099420FD208680A189A4205D121
:102B300013685268C01808604A6000E04B6021606A
:102B400024E08A4203D8131C5A68002AF9D11D6870
:102B50005C198C420BD109686918581819609042A9
:102B600014D114685268091919605A600EE08C4239
:102B700002D90C23036009E008680C18944203D1C1
:102B800014685268001908604A60596030BDC04638
:102B90007801002070B50323CD1C9D430835061C29
:102BA0000C2D01D20C2501E0002D3FDB8D423DD3E1
:102BB000204B1C681A1C211C002913D00868431BD9
:102BC0000DD40B2B02D90B60CC181EE08C4202D125
:102BD000636813601AE0486860600C1C16E00C1C07
:102BE0004968E9E7144C2068002803D1301C00F044
:102BF00031F82060301C291C00F02CF8431C15D043
:102C0000C41C03239C4384420AD12560201C0B3042
:102C10000722231D9043C31A0BD05A42E25008E00A
:102C2000211A301C00F016F80130EED10C2333606D
:102C3000002070BD780100207401002008B50A1C36
:102C40000349031C0868191C00F039F808BDC04688
:102C50006CFEFF1F38B5074C0023051C081C2360C1
:102C6000FFF774F8431C03D12368002B00D02B60BE
:102C700038BDC0468C010020031C0A7801311A704F
:102C80000133002AF9D170470023C25C0133002AC6
:102C9000FBD1581E704730B5031C002A07D00C78B2
:102CA00001335D1E013A2C700131002CF5D19A18C8
:102CB000934203D0002119700133F9E730BDF8B514
:102CC000061C0C1C151C002904D1111CFFF762FF07
:102CD000041C18E0002A03D1FFF714FF2C1C12E09B
:102CE00000F013F8A8420ED2301C291CFFF752FF47
:102CF000071E07D0211C2A1CFFF7FAFE301C211CDE
:102D0000FFF700FF3C1C201CF8BD04390B68181F9E
:102D1000002B02DAC8581B18181F70474849442076
:102D20004F55545055542046524F4D200020287383
:102D3000697A653A002900436F6E6E656374696F46
:102D40006E2066726F6D2000626F6F74696E67002F
:102D5000626F6F74206F6B00420000F840A0044067
:102D600001000000420000F844A0044002000000FE
:102D7000C00000F800C0044001000000000000F89E
:102D80000490044002000000000000F80890044095
:102D900004000000C00000F81CC0044080000000D7
:102DA000C00000F810C0044010000000C00000F88F
:102DB00008C0044004000000C00000F80CC004403B
:102DC00008000000800000F80CB00440080000007B
:102DD000800000F810B0044010000000800000F8EF
:102DE00018B0044040000000800000F81CB004400F
:102DF00080000000800000F814B0044020000000B3
:102E0000C00000F804C0044002000000800000F888
:102E100000B0044001000000400000F800A00440A1
:102E200001000000400000F804A00440020000007F
:102E3000400000F80CA0044008000000400000F82A
:102E400008A0044004000000C00000F814C00440C2
:102E500020000000C00000F818C00440400000003E
:102E6000800000F804B0044002000000800000F878
:102E700008B0044004000000020100F850D00440F3
:102E800010000000020100F854D0044020000000AF
:102E9000030100F878D0044040000000FFFFFFFF6E
:102EA00000000000000000009B180000B3180000A4
:102EB0006B1800007B1800007318000083180000D6
:102EC000011800001918000039180000411800000E
:102ED0004B1800005B1800008B18000093180000CE
:102EE000D1170000DD170000E9170000F5170000FA
:102EF000C3180000A71800000D0AFFFFFFFFFFFF27
:102F00000000000000000000E31B0000ED1B0000BB
:102F1000C31B0000CB1B0000D31B0000DB1B000009
:102F200000151915000100006CFDFF1F12000000C4
:102F30000002000096FDFF1F430000000003000098
:102F4000F0FDFF1F00000000010309047EFDFF1FCC
:102F50000000000002030904DAFDFF1F000000006A
:102F600003030904F4FDFF1F00000000000000003F
:102F70000000000000000000000000000000000051
:102F8000072800001F280000D7270000E7270000BF
:102F9000DF270000EF2700006D27000085270000D5
:102FA000A5270000AD270000B7270000C7270000B5
:102FB000F7270000FF2700003D27000049270000F9
:102FC00055270000612700002F280000132800006B
:102FD00000000000000000002F2900004729000029
:102FE000FF2800000F290000072900001729000012
:102FF00095280000AD280000CD280000D52800004D
:10300000DF280000EF2800001F290000272900000A
:1030100065280000712800007D2800008928000034
:10302000572900003B2900004300FFFF000000007B
:103030000000000000000000000000000000000090
:103040000000000000000000000000000000000080
:103050000000000000000000000000000000000070
:103060000000000000000000000000000000000060
:103070000000000000000000000000000000000050
:10308000000000000000000000000000F8B5C0468D
:10309000F8BC08BC9E46704739040000DD180000EB
:0C30A000FD1B0000492800007129000001
:1030AC00FFFFFFFF0A040000900100201201000244
:1030BC0002000040C0168304000101020301180342
:1030CC005400650065006E007300790064007500A3
:1030DC0069006E006F0009024300020100C0320952
:1030EC000400000102020100052400100105240166
:1030FC0001010424020605240600010705820310C1
:10310C00004009040100020A000000070503024008
:10311C000000070584024000000016035500530010
:10312C0042002000530065007200690061006C00D1
:10313C00040309040C030000000000000000000060
:10314C000000000000000000000000000000000073
:10315C002C3000004C3000006C30000000000000EF
:10316C0000000000000000000000000028300000FB
:10317C000000000000000000000000000000000043
:10318C000000000000000000000000000000000033
:10319C000000000000000000000000000000000023
:1031AC000000000000000000000000000CFEFF1FEB
:00000001FF
