:1000000000800020BD010000851E0000511E000080
:10001000511E0000511E0000511E0000511E000024
:10002000511E0000511E0000511E0000851E0000E0
:10003000851E0000511E0000851E0000411E0000AC
:10004000851E0000851E0000851E0000851E000024
:10005000851E0000851E0000851E0000851E000014
:10006000851E0000851E0000851E0000851E000004
:10007000851E0000851E0000851E0000851E0000F4
:10008000851E0000851E0000851E0000851E0000E4
:10009000851E0000851E0000851E0000851E0000D4
:1000A000851E0000851E0000851E0000851E0000C4
:1000B000851E0000851E0000851E0000851E0000B4
:1000C000851E0000851E0000851E0000851E0000A4
:1000D000851E0000851E0000851E0000851E000094
:1000E000851E0000851E0000851E0000851E000084
:1000F000851E0000C50D0000851E00007523000050
:10010000851E0000B9270000851E0000851E000026
:10011000851E0000851E0000851E0000851E000053
:10012000851E0000851E0000851E0000851E000043
:10013000851E0000851E0000851E0000851E000033
:10014000851E0000851E0000851E0000851E000023
:10015000851E0000851E0000851E0000851E000013
:10016000851E000061100000851E0000851E000035
:10017000851E0000851E0000851E0000851E0000F3
:10018000851E0000851E0000851E0000851E0000E3
:10019000851E0000851E0000851E0000851E0000D3
:1001A000851E0000851E0000851E0000851E0000C3
:1001B000851E0000851E0000851E0000564B4CF277
:1001C000205210B51A804DF628121A8000BF00BFC9
:1001D00001F05CFE514B4FF010621A60504A9A6079
:1001E000504ADA60A3F53043203B1A6812F480725B
:1001F00004D14D490A604FF4A8521A604B4B1A784B
:10020000110703D51A7842F008021A70484B2A22C7
:100210001A700023474A48499818884204D247492F
:10022000595899500433F5E7454A464B9A424FF0E6
:10023000000302D242F8043BF7E74349434A5958C6
:1002400099500433B3F5DE7FF7D1414B802103F899
:10025000011B40498B42F9D13F4B1A603F4B0A22A8
:100260001A70A3F5805324225A70A0221A709A792A
:100270009207FCD59A79D406FCD4394B9A7902F0CE
:100280000C02082AF9D103221A7140225A719A7974
:100290009006FCD5324B9A795106FBD5314A32494A
:1002A00011600221516020221A702D4B9B7903F0BE
:1002B0000C030C2BF9D12D4B2D4A1A602D4B4BF60C
:1002C0007F321A6000225A60072243F8042C2A4A1F
:1002D000C3F80C2D62B600F0E5FA134B1B68DA0781
:1002E00005D5264800F060FA254B264A1A60264BB1
:1002F0001B785B0609D5224C224A2368934204D11D
:100300001E4800F051FA0023236002F0E7FB01F0E1
:10031000C3FD01F0F2FCFEE70E20054030800440F2
:10032000823F04000100002B14D0034002D007409C
:1003300000E007406087FF1F7088FF1F9C300000AF
:100340007088FF1F8C8BFF1F000000000082FF1FC2
:1003500000E400E05FE400E008ED00E0005006404B
:100360000040064044800440000003110480044023
:10037000C010050014E000E0000020205C5FA156E2
:100380001CE00340A5C3945A00F00740FFFFFFFFA5
:10039000FFFFFFFFFFFFFFFFFFFFFFFFFFFFFFFF6D
:1003A000FFFFFFFFFFFFFFFFFFFFFFFFFFFFFFFF5D
:1003B000FFFFFFFFFFFFFFFFFFFFFFFFFFFFFFFF4D
:1003C000FFFFFFFFFFFFFFFFFFFFFFFFFFFFFFFF3D
:1003D000FFFFFFFFFFFFFFFFFFFFFFFFFFFFFFFF2D
:1003E000FFFFFFFFFFFFFFFFFFFFFFFFFFFFFFFF1D
:1003F000FFFFFFFFFFFFFFFFFFFFFFFFFFFFFFFF0D
:10040000FFFFFFFFFFFFFFFFFFFFFFFFFEFFFFFFFD
:1004100010B5054C237833B9044B13B10448AFF33E
:1004200000800123237010BD7088FF1F00000000B2
:100430009C30000008B5064B1BB106480649AFF3D7
:1004400000800648036813B1054B03B1984708BD07
:10045000000000009C3000007488FF1F7088FF1FA0
:100460000000000010B504460846214600F0BAFB23
:10047000204610BD38B5044608460D4602F016FC6D
:10048000236802465B6820462946984738BD38B540
:10049000044601F0F3FA0546204601F00FFB28441C
:1004A00038BDFFFF70B588B004460D46684619494F
:1004B000164601F093FB694604A801F0AAFB214609
:1004C00004A801F0F6FB144901F0E5FB294601F010
:1004D000F6FB124901F0DFFB01461148FFF7D7FF99
:1004E00004A801F03BFB684601F038FB0024AC4255
:1004F0000B480ADA315D1022002301F0EFFA0848B8
:100500000849FFF7B7FF0134F1E701F0D7FA08B067
:1005100070BD00BF3E2D00004F2D0000572D000084
:10052000548AFF1F552D000010B588B004460E49AF
:10053000684601F053FB694604A801F06AFB2146B6
:1005400004A801F0B6FB01460848FFF7A0FF04A885
:1005500001F004FB684601F001FB14B1044B0122D9
:100560001A7008B010BD00BF592D0000548AFF1F3B
:10057000BB88FF1F38B50446FFF77CFF05462046C1
:1005800001F09CFA284438BD10B5204C43F6982061
:1005900000F074F91E492046FFF7ECFF40F24130AD
:1005A00000F0CEF9002000F011FA132000F088FAD4
:1005B000011C18BF0121204601F0C8FA204601F0B5
:1005C0007DFA1220002100F01FF9124B124A1A6026
:1005D000124B134A1A60134B134A1A60134B1449F7
:1005E0009F221A7021225A70A1229A70FF221A7239
:1005F0007F229A71DA71032283F820200D4B0122A9
:1006000020461A70FFF7B6FF10BD00BF548AFF1FC7
:100610006A2D00008C88FF1F650400009488FF1F6E
:10062000A50400009088FF1F290500009888FF1F7F
:10063000722D0000BB88FF1F08B500F04DFB40B1D4
:1006400000F05AFB094B1A68C1B21268184690476D
:10065000F3E701F0BDF838B101F078F8044B1A68FF
:10066000C1B212681846904708BD00BF548AFF1FE8
:10067000448AFF1F844641EA000313F003036DD14F
:10068000403A41D351F8043B40F8043B51F8043B55
:1006900040F8043B51F8043B40F8043B51F8043B5C
:1006A00040F8043B51F8043B40F8043B51F8043B4C
:1006B00040F8043B51F8043B40F8043B51F8043B3C
:1006C00040F8043B51F8043B40F8043B51F8043B2C
:1006D00040F8043B51F8043B40F8043B51F8043B1C
:1006E00040F8043B51F8043B40F8043B51F8043B0C
:1006F00040F8043B51F8043B40F8043B51F8043BFC
:1007000040F8043B403ABDD2303211D351F8043B9B
:1007100040F8043B51F8043B40F8043B51F8043BDB
:1007200040F8043B51F8043B40F8043B103AEDD24A
:100730000C3205D351F8043B40F8043B043AF9D29B
:10074000043208D0D2071CBF11F8013B00F8013B6E
:1007500001D30B8803806046704700BF082A13D37B
:100760008B078DD010F003038AD0C3F10403D21A93
:10077000DB071CBF11F8013B00F8013B80D331F8C7
:10078000023B20F8023B7BE7043AD9D3013A11F847
:10079000013B00F8013BF9D20B7803704B784370B2
:1007A0008B78837060467047044B054900221A60BD
:1007B0000A60044A106010221A60704714D0034087
:1007C00004D0034000D00340212810B518D80D4AAA
:1007D00052F8303093F880423CB1012211B183F8D5
:1007E000802010BD83F8002110BD02EBC0004368DB
:1007F0001A6811B142F0030201E022F002021A600D
:1008000010BD00BF7C2D0000212816D80B4A02EB3A
:10081000C00301295B6852F8302004D182F88012AD
:100820004FF4A27208E0002082F8800211B94FF460
:10083000807201E040F203121A6070477C2D0000C4
:1008400072B60B4B0B491A680B4B1B68096862B6F2
:10085000490102D5322A88BF0133C2F53B4230211B
:100860007F32B2FBF1F24FF47A7000FB0320704745
:1008700018E000E004ED00E0BC88FF1F38B5044636
:10088000FFF7DEFF054664B1FFF7DAFF401BB0F566
:100890007A7F03D3013C04D005F57A7501F054FA50
:1008A000F2E738BD1F4B4FF4000210B51A604FF04D
:1008B00080721A604FF000721A604FF080621A6006
:1008C0004FF000621A60184B184A194C00204BF682
:1008D000FF7118605960282313609360136193615E
:1008E00013629362136393630922226004F58054B8
:1008F000043420606160A360236144F8042C04F593
:10090000FE2420600B4801600B490B608B600B4B91
:100910001A6001F039FAFA20FFF7B0FFBDE8104085
:1009200000F094BE08E100E0048003400C80034026
:100930000080034008800B400C800B4000800B407F
:10094000194B1A6842F480621A60184A0023137027
:10095000174A1370174A1370174A1370174A137007
:10096000174B40F213321A604FF451725A60154B14
:10097000C0F344321A70C0F347125A7002210422A5
:1009800000F01F0098729A70D9745A7588221A74F0
:100990003C22DA700C4B40226FF44A711A700B44FF
:1009A0004FF400521A607047348004404689FF1F9C
:1009B000C588FF1F4C89FF1F4789FF1FC488FF1F81
:1009C00040A0044000A006402DE400E0134A9378C4
:1009D00000F0030103F0EC030B43410748BF43F071
:1009E0001003937000F00F03042B0C4903D18B7993
:1009F00043F040038B715379C20603F0EF03074ABB
:100A000048BF43F0100353719379810603F0EF035D
:100A100048BF43F010039371704700BF00A0064029
:100A200008B5114B1B685B0500D408BD0F4B1A7845
:100A300002F0FF0312B101F087F9F7E70C4A4FF417
:100A4000005111600B4A0C49D37040F203120A6046
:100A50004A600A4A13700A4A13700A4B1B680BB1AA
:100A600001221A7008BD00BF34800440C488FF1FF3
:100A700084E100E000A0064040A004404689FF1F3A
:100A8000C588FF1FC088FF1F38B50446094B1B7877
:100A900003F0FF05002BF9D120460121FFF7B4FE3A
:100AA00020462946FFF790FE034B53F83420034BB2
:100AB0001A6038BDC488FF1F7C2D00004889FF1FC5
:100AC0000D4A38B5146814F480624FF0000410D059
:100AD00021280A4D0AD80A4A012152F830302B60E9
:100AE000FFF792FE2B681C70012038BD2C60204659
:100AF00038BD104638BD00BF34800440C088FF1F99
:100B00007C2D00000E4B1B6813F4806316D0122856
:100B10000C4B03D140F202310B4A04E0142809D1F6
:100B20000A4A40F2023111605A7B42F001025A73C4
:100B3000012070475A7B02F0FE025A730020704772
:100B40003480044000A006400CA0044014C00440BF
:100B5000F8B51D4B1B685A05064633D51B4B1B6861
:100B60000BB101221A701A4B1C780134402C1F461D
:100B700028BF0024174D2B78A34218D101F096F915
:100B800040280FDC144A13791B06F3D52B78134940
:100B90000133402B28BF0023C95CDBB2C9B2D1713D
:100BA0002B70E7E7FF28E5DD01F0CEF8E2E70B4B1D
:100BB000F6B21E550A4B01221A70074BE4B2BC2252
:100BC0003C70DA70F8BD00BF348004404889FF1FD4
:100BD0004C89FF1F4789FF1F00A00640C688FF1FE2
:100BE000C488FF1F274B1B685A052DE9F0470746AD
:100BF0008A4644D5244B1B680BB101221A703D462E
:100C000007EB0A039D4237D2DFF890801F4E98F819
:100C1000004096F800900134402C28BF00245FFA71
:100C200089F9A1451DD11A4BBC22DA7001F03EF9B9
:100C300040280FDC164A13791B060FD53378154967
:100C40000133402B28BF0023C95CDBB2C9B2D1718C
:100C5000337003E0FF2801DD01F076F833784B456F
:100C6000E4D00C4B15F8012B1A550B4B0122E4B2C2
:100C70001A7088F80040C3E7054BBC22DA70BDE863
:100C8000F08700BF348004404889FF1F4789FF1F59
:100C900000A00640C688FF1FC488FF1F4C89FF1FA5
:100CA00008B5034B1B7813B101F04EF8F9E708BD06
:100CB000C488FF1F064A074B1B781078DBB2C0B20E
:100CC00083422CBF3F3000F1FF30C01A704700BF95
:100CD0004789FF1F4C89FF1F054B1878054B1B7870
:100CE000C0B2DBB2984238BF4030C01A704700BF74
:100CF0004689FF1FC588FF1F10B5104B10491A7891
:100D00000B78D2B2DBB29A4214D00133402B28BF09
:100D100000230C48DCB2C05C0C700B490968C0B2FF
:100D200051B19A4238BF4032D31A1A2B04DC002347
:100D30000B7010BD4FF0FF3010BD00BF4689FF1F84
:100D4000C588FF1F0689FF1FC088FF1F084B1A7840
:100D5000084B1B78DBB29A4207D00133402B28BFE7
:100D60000023054AD05CC0B270474FF0FF30704797
:100D70004689FF1FC588FF1F0689FF1F0C4B1B6894
:100D80005B0514D50B4BDA7802F0CB02DA70402207
:100D90005A74DA7842F03402DA70074B1A78074B4B
:100DA000D2B21A70064B1B680BB100221A70704742
:100DB0003480044000A00640C588FF1F4689FF1FFD
:100DC000C088FF1F30B5374B1A7912F0300F31D081
:100DD00072B69A7D02F0FF0022B9DA7940225A7485
:100DE00062B627E062B6304A304913780978DBB240
:100DF000C9B214462B4AD5795A1C402A28BF002272
:100E00008A42EDB202D02A4B9D541346421E12F084
:100E1000FF00EFD1DAB22270264A126852B18B423B
:100E200036BFC1F14001C1EB03035B18272BC4BFE0
:100E3000012313701B4BD978C9B20C0620D51B793E
:100E400018061DD51C4B1D4A1D781378EDB2DBB278
:100E50001046AB420CD0134A0133402B1479184C86
:100E600028BF0023E45CE4B2D471127D072AF0D9D4
:100E7000DBB203700B4B1A79120644BF7C22DA7086
:100E80004B060ED5074B1A7912F0400F194608D0C1
:100E90000C4B00221A700C4B1B6803B11A703C23D8
:100EA000CB7030BD00A006404689FF1FC588FF1FDC
:100EB0000689FF1FC088FF1F4C89FF1F4789FF1F3E
:100EC000C688FF1FC488FF1F4889FF1FF0B50C4B61
:100ED0000C4C1A7842F0020504EBC50682F00102C0
:100EE000706009481A700678002E0CBF8827C82742
:100EF00086F0010647EA0141067044F83510F0BD5E
:100F0000B889FF1F0080FF1F308AFF1F431E032B7D
:100F100010B510D872B6094A52F8230048B141689A
:100F200042F82310064A018832F81340611A22F869
:100F3000131062B610BD002010BD00BFA889FF1FAE
:100F4000788BFF1F013803280AD872B6054B53F877
:100F50002030002013B101305B68FBE762B67047B8
:100F600000207047FC89FF1F10B572B60123174A95
:100F70001A4412F8012C12071CD59900144A52F891
:100F800031402CB902EB431308305860114B09E093
:100F900041F0010152F8314064B902EBC10308305D
:100FA00058600D4B42F831300C4B1A78013A1A70E8
:100FB00062B610BD0133052BD9D162B6074B0022B2
:100FC0001A70BDE8104000F09FBB00BF102F00005A
:100FD0000080FF1F88004000C8004000268AFF1FD5
:100FE000431E032B30B532D8194A400140F010009F
:100FF000104472B6174CE25C032A09D8DFE802F00D
:10100000160218050830022213E00830042210E00E
:101010001148124A50F8234014B940F8231002E056
:1010200052F82300416042F823100FE0032200E051
:101030000522E25410F0080F01F108030A8843600A
:101040000CBF8823C82343EA0243036062B630BD65
:101050000080FF1F6489FF1FFC89FF1F0C8AFF1F90
:101060002DE9F84FAB4F3C78E4B214F0040F3D4645
:1010700019D0A94B1B78A3B1A84A117801F0FF033E
:1010800021B1013BDBB2137003B900BEA44A117851
:1010900001F0FF0329B1013BDBB213700BB900F083
:1010A00047FC04233B7004F0080303F0FF02002B0D
:1010B00000F063829B4B9C4C1A78D2B215094FEA20
:1010C000920840F0E08104EBC803596854F83830C6
:1010D000C3F38303013B0C2B00F2D281DFE813F052
:1010E00091019101D001D001D001D001D001D001F6
:1010F000AC01D001D001D0010D008C4D0A684B68C5
:101100008B486B6001218B4B44F838302A60DFF844
:101110005082017092B240F2816000238242C8F88E
:1011200000302361A36117D8B2F5D06F80F01E8123
:10113000B2F5817F00F0CF8006D8802A00F0BA8017
:10114000822A00F0BB802DE140F202339A4200F087
:10115000D180B2F5A06F1CE042F22100824200F083
:101160004D810ED8B2F5086F00F09E80B2F5106F79
:1011700040F01881684B6C4EAA781A7006F180090D
:101180000AE042F221218A4200F0088142F2213332
:101190009A4200F00B8105E1336A1B0603D5706AA1
:1011A000083800F0B1FA08364E45F5D10026B146B0
:1011B000DFF8B0A156F80A0028B1D0F804B000F06A
:1011C000A3FA5846F8E74AF806005B4BDFF898A107
:1011D000F05056F80A0028B1D0F804B000F094FAA4
:1011E0005846F8E7554B4AF80600F050544B23F8A0
:1011F0001900544B19F80320023A032A08D8DFE8F3
:1012000002F002040204002200E0012203F8092097
:1012100009F10109B9F1040F06F10406C8D14A4BDE
:1012200000221A7001269A46484A494B32443344F8
:1012300012F8012C9B0012F0080F1A704FEA860971
:1012400025D000F043FA38B104EB4613083058605B
:10125000404B44F8393006E09AF8003044F8390041
:1012600001338AF8003000F031FA49F0010338B157
:1012700004EBC302083050602E4A44F8332006E0E5
:1012800044F833009AF8003001338AF8003049F00E
:101290000202013649F003090023052E44F83230DA
:1012A00044F83930C0D182E01B4B2B4C1B782370A3
:1012B0000B467FE0284C237063707AE0AA88042AEA
:1012C00070D8254C920023706370244B9B5C9E0762
:1012D0006FD521706DE0AA8802F07F02042A61DCDC
:1012E0006B88002B5ED191001C4A0A44117821F0D2
:1012F000020155E0AA8802F07F02042A52DC6B88C2
:10130000002B4FD19100154A0A44117841F0020197
:1013100046E000BF802007402F8AFF1FB989FF1FCA
:10132000318AFF1F902007400080FF1F1C8AFF1F8B
:10133000308AFF1FC80040005489FF1F0C8AFF1F1E
:10134000788BFF1F6489FF1F268AFF1F102F000064
:1013500030C8011088004000278AFF1FC0200740C6
:101360005089FF1FA889FF1FFC89FF1F6A88A98871
:101370009D4B53F8084CA3F10C009CB133F80C6C56
:10138000964209D133F80A6C8E4205D1120A032A1B
:101390000CBF237803890DE00C33EAE7A978934A60
:1013A000117004E0924B0F221A7027E000231C46B4
:1013B00000E00223EE88B34238BF1E46402E34BF01
:1013C0003546402520462946FFF780FD761B2C44F4
:1013D00003D1402D12D1354603E0402E34BF3546AF
:1013E000402520462946FFF771FD761B2C4401D18C
:1013F000402D03D17F4AC8F80040168001227E4B61
:101400003DE07E4B1A8842F221039A4210D100231C
:101410007B4AC85C98540133072BF9D11368862B9B
:1014200002D1784B0F221A7000200146FFF74EFDC3
:10143000754B44F8383023E0744E3568B5B1DFF8A9
:10144000B481B8F80090B9F1400F34BF4C46402445
:1014500028462146FFF73AFDC4EB09039BB2A8F8E2
:1014600000300BB9402C00D12B193360634B1A8824
:10147000B2F5A06F04D100225A709A78644B1A70AA
:1014800001225D4B6CE004EBC806013D736802F07D
:101490000802A3F10800EDB202F0FF01002A36D0E5
:1014A00000F032F95B485C4B50F82520EAB15168F6
:1014B00040F8251002F108017160595D03290BD82D
:1014C000DFE801F002040608032104E0022102E043
:1014D000052100E00421595516F0080F12880CBFB1
:1014E0008823C82343EA024342E05A5D032A07D80F
:1014F000DFE802F040400204002206E0012204E09E
:1015000016F0080F0CBF022203225A5532E054F89D
:101510003820120C23F8082C22B3DFF82CE123F832
:10152000061C43F8041C5EF825303C4913B94EF8FC
:10153000250002E051F825305860394B41F825006C
:1015400033F815100A4423F8152000F0BFF810B145
:101550000830706006E0334B44F838001A780132E6
:101560001A7007E0284B304A16F0080F08BF1346E0
:1015700044F8383008233B7074E5E0071FD51E4956
:1015800029482A4C02230B70294B1A70294B1860EA
:1015900098602948D8601A619A615C60144B0D20EC
:1015A00018702648FF2303702B700274244A1370AE
:1015B000244B9F221A7001230B70BDE8F88F21067F
:1015C00004D50B4B0D221A7080232B70A20705D572
:1015D0001A4B1A78D2B21A7002232B70E30644BF5A
:1015E00010232B70BDE8F88F202F0000408AFF1FCA
:1015F000C0200740248AFF1F942007401C8AFF1F39
:10160000808BFF1FB989FF1FC80040005089FF1F52
:1016100098200740FC89FF1F6489FF1F5489FF1F22
:10162000788BFF1F268AFF1F880040006889FF1FF4
:10163000B889FF1F0080FF1FBC89FF1F882007405B
:101640008C20074084200740A889FF1F08B501F0BF
:1016500009F900221A4B0021D15098180832882A23
:101660004160F7D1174A106840F48020106002F5FD
:1016700028326832C3F307201070C3F307401B0EF3
:1016800010751376FF2302F81C3C02F8143C02F894
:101690008C3C012302F8083C82F8641002F8183CE4
:1016A000094B70226FF450711A700B444FF40072A2
:1016B0001A6003F1C04303F5C82310221A7008BD55
:1016C0000080FF1F3480044049E400E072B60C4AF9
:1016D0001168B1FA81F30B2B02D962B60020704772
:1016E0004FF00040D84021EA0001116062B6054980
:1016F00048225343C8180022CA504260704700BFB6
:101700006087FF1F0084FF1F0C4B4822C31AB3FBE6
:10171000F2F30B2B11D80A4A127822B1094A127837
:101720000AB1FFF721BC72B6074A4FF0004121FA17
:1017300003F311681943116062B670470084FF1FFC
:10174000268AFF1F2F8AFF1F6087FF1F10B5104CCE
:1017500023686BB120684288531C0244147A0288C3
:10176000934212D3FFF7D0FF094B00221A600DE01D
:10177000084B1B7813B94FF0FF3010BD0320FFF763
:10178000C5FB20600028E5D1F5E74380204610BD69
:101790003C8AFF1F2F8AFF1F10B50B4C236813B123
:1017A00023686BB902E0094B1B7813B94FF0FF3087
:1017B00010BD0320FFF7AAFB20600028F0D1F5E759
:1017C0005A881344187A10BD3C8AFF1F2F8AFF1FC6
:1017D000044B9888044B1B681BB11A885B88D31A8A
:1017E00018447047788BFF1F3C8AFF1F2DE9F84390
:1017F0002D4E012307460C463370002C4FD02B4D45
:101800002B68A9462BBB47F20958294B1B7803F0DC
:10181000FF020BB9327015E00420FFF793FB072895
:1018200008D801233370FFF751FFC9F8000080B9D1
:101830001D4B1870B8F101081E4B01D01A782AB15F
:1018400001221A704FF0FF30BDE8F88300F07CFAF7
:10185000DBE72968174A488800231370C0F140026B
:10186000944238BF224600F1080C10448C44488052
:10187000A41A934204D0F85C0CF803000133F8E793
:101880001F444B883F2B06D940230B800420FFF7D1
:10189000A7FB00232B60084B05221A70ADE73470BC
:1018A0002046BDE8F88300BF328AFF1F348AFF1F3D
:1018B0002F8AFF1F388AFF1F318AFF1F07B502AB2F
:1018C000012103F8010D1846FFF790FF03B05DF802
:1018D00004FBFFFF2DE9F041114B1B78F3B1114ED2
:1018E000114B3468114D01271F7098464CB10027E9
:1018F00063882F70042023802146FFF771FB376037
:1019000009E0FFF7E3FE014620B104202C70FFF749
:1019100067FB00E02F70002388F80030BDE8F081FD
:101920002F8AFF1F348AFF1F328AFF1F318AFF1F51
:1019300038B50E4B1B7803F0FF05ABB90C4C216892
:1019400031B14B880B800420FFF74AFB256038BD7E
:10195000FFF7BCFE014620B10420BDE83840FFF788
:101960003FBB044B01221A7038BD00BF328AFF1FF3
:10197000348AFF1F318AFF1F08B50368C9B21B688C
:10198000984708BD08B50368C9B21B68984708BDE9
:1019900008B50368C9B21B68984708BD08B5036855
:1019A000C9B21B68984708BD4B0803F1B76000F542
:1019B0005840B0FBF1F0FEF7C3BF10B54B0803F180
:1019C000B76000F558401446B0FBF1F0FEF7B8FFE1
:1019D0002046BDE81040FEF7F9BFFFF721B80846E2
:1019E000FFF752B808B50846FFF76AF8003018BF8D
:1019F000012008BD08B50846FFF784F8003018BF7D
:101A0000012008BDFFF768B9FFF7A0B9FFF774B967
:101A1000FFF746B9FFF7B2B9FFF74CB908B508466A
:101A2000FFF796F8012008BD08B50846FFF790F8C3
:101A3000012008BD10B5084614461146FFF7D2F83C
:101A4000204610BD38B508460D4601F02FF9044672
:101A500021462846FFF7C6F8204638BD7047FFFFED
:101A6000044B00221A714FF47A711A73024A99607A
:101A70001A607047448AFF1F982E00002DE9F0413C
:101A800000258C688AB0074688462E4694B12B46BE
:101A9000404601A9212200F018F93B68202C34BFF0
:101AA000224620225B68384601A91544A41A9847AB
:101AB0000644EBE730460AB0BDE8F08107B5064BB7
:101AC0001B88ADF80430036801A95B6802229847BF
:101AD00003B05DF804FB00BFE82E000070B50546BA
:101AE0008AB022B90368C9B21B6898472CE0012A62
:101AF00008BF0A2221B930228DF82520212413E0C5
:101B00002124B1FBF2F002FB1011C9B209290AAE7F
:101B100094BF303137312644C9B206F8241C01463F
:101B200010B1013CE4B2ECE733B1013CE4B20AABE2
:101B300023442D2203F8242C2B6801A95B68284636
:101B40002144C4F1220298470AB070BD0029BABFEF
:101B500049422D2300230A22FFF7C0BF10B50446D7
:101B6000006800F0E1FF204610BD38B504460D4680
:101B70000068013101F078F810B184E821000120FB
:101B800038BD43688B4210B5044606D2FFF7EDFF1F
:101B900020B1A3680BB922681370012010BDF8B5FD
:101BA00004460F46154622B9036803B11A70002394
:101BB0000BE01146FFF7E5FF064640B9206810B17B
:101BC00000F0B2FF266000236360A36004E0A5601C
:101BD0002068394601F062F82046F8BD38B5002388
:101BE000044603604360836003730D4639B10846C1
:101BF00001F05CF8294602462046FFF7D0FF204658
:101C000038BD81420B4603D009689A68FFF7C7BF09
:101C1000704710B50023044603604360836003737C
:101C2000FFF7EFFF204610BD70B504460E468568ED
:101C30005AB115442946FFF7A4FF30B12068A368C4
:101C40003146184401F02AF8A560204670BD1FB542
:101C500004460A22084601A900F064F901A801F02F
:101C600025F801A902462046FFF7DEFF204604B012
:101C700010BD1FB504460A22084601A900F052F91A
:101C800001A801F013F801A902462046FFF7CCFF96
:101C9000204604B010BD38B505460C4639B108469B
:101CA00001F004F8214602462846FFF7BDFF28460A
:101CB00038BD10B50446FFF7CAFF204610BD10B569
:101CC0000446FFF7D6FF204610BD38B50C469AB142
:101CD00091B181688B4202D30023237038BDC91AA9
:101CE000551E8D4228BF0D4601682A4619442046DC
:101CF00000F0E4FF0023635538BD08B5FEF744FC4F
:101D0000FEF79AFC00F020F8FAE7FFF761BDFFF755
:101D10001DBDFFF741BDFFF7DDBD0846FFF7CEBD96
:101D200008461146FFF762BD7047FFFF044B0022D3
:101D30001A714FF47A711A73024A99601A607047E7
:101D4000548AFF1FF82E000010B50E4C2378BBB943
:101D500001232370FFF73CFD08B1FFF7E5FFFEF715
:101D6000BBFF08B1FFF77AFE00F0A4FA08B100F05B
:101D700023FE00F0D5FC08B100F0A0FE0023237084
:101D800010BD00BF648AFF1F10B5204B20482149B9
:101D900060221A70E1225A701F4B204A1C78204B97
:101DA000082C01D1012402E00A2C03D1392404605B
:101DB000132005E00C2C0CBF35243D2404601220B8
:101DC000086014601860174B17491B78174A03B155
:101DD00001230B601360164B164A1978164B012924
:101DE00001D880210BE0042901D8842107E00829CB
:101DF00001D8852103E0102994BF86218721116035
:101E000019600E4B01221A7010BD00BF0040074040
:101E100008B003400CB003406487FF1F08B00B40BC
:101E20000CB00B40668AFF1F20B0034020B00B406F
:101E30006587FF1F24B0034024B00B40658AFF1F55
:101E4000024B1A6801321A60704700BFBC88FF1F3E
:101E500008B50B4C2368580301D5FFF701F9236837
:101E6000590501D5FEF7AEFF23681A0501D500F02C
:101E700081FA2368DB04ECD500F09EFCE9E700BFA3
:101E80003480044008B5FFF7E3FFFFFF014B102249
:101E90001A807047002005407047FFFF024A136810
:101EA00018441060184670476887FF1FEFF31383CC
:101EB0009BB9EFF3108098B9EFF3058323B10F2B93
:101EC00004D9084A985C01E04FF48070EFF3118365
:101ED0003BB1834238BF184670474FF0FF30704720
:101EE00018467047F0E300E010B50023B0FBF2F4B1
:101EF00002FB1400092894BF30303730C0B2C854F8
:101F000020460CB10133F1E7CA18547022469A42B8
:101F100006DA885CCC5C8C54C8540132013BF6E78D
:101F2000084610BD031E10B50C4603DBBDE810408B
:101F3000FFF7DABF2D2001F8010B5842FFF7D4FF5D
:101F4000204610BD194B1A6842F400621A60184A04
:101F500000231370174A1370174A1370174A13702F
:101F6000174A1370174B40F213321A604FF4517234
:101F70005A60154BC0F344321A70C0F347125A70BE
:101F800000F01F000422022198729A70D9745A75C9
:101F900088221A743C22DA700C4B40221A70A3F289
:101FA0002B334FF400421A60704700BF3480044066
:101FB000D18AFF1F688AFF1FD88AFF1FD28AFF1F9E
:101FC000678AFF1F0CB0044000B006402FE400E019
:101FD000134A937800F0030103F0EC030B4341072D
:101FE00048BF43F01003937000F00F03042B0C491B
:101FF00003D18B7943F040038B715379C20603F010
:10200000EF03074A48BF43F01003537193798106E9
:1020100003F0EF0348BF43F010039371704700BF14
:1020200000B0064008B50E4B1B681B0500D408BD68
:102030000C4B1A7802F0FF0312B1FFF785FEF7E7A9
:10204000094A4FF400411160084A0949D37040F22F
:1020500003120A604A60074A1370074A137008BDEA
:1020600034800440678AFF1F84E100E000B006402E
:102070000CB00440D18AFF1F688AFF1F38B50446A0
:10208000094B1B7803F0FF05002BF9D120460121F5
:10209000FEF7BAFB20462946FEF796FB034B53F8A2
:1020A0003420034B1A6038BD678AFF1F7C2D000067
:1020B000D48AFF1F0B4B1B6813F4006310D0162843
:1020C000094B09D1094A4FF4407111605A7B42F023
:1020D00008025A73012070475A7B02F0F7025A73C4
:1020E000002070473480044000B0064004B0044033
:1020F0000B4B1B6813F4006310D01728094B09D150
:10210000094A4FF4407111605A7B42F001025A7340
:10211000012070475A7B02F0FE025A73002070477C
:102120003480044000B0064008B00440F8B51D4BB0
:102130001B681A05064633D51B4B1B680BB10122E1
:102140001A701A4B1C780134282C1F4628BF002413
:10215000174D2B78A34218D1FFF7A8FE40280FDCBB
:10216000144A13791B06F3D52B7813490133282B16
:1021700028BF0023C95CDBB2C9B2D1712B70E7E77D
:10218000FF28E5DDFFF7E0FDE2E70B4BF6B21E5559
:102190000A4B01221A70074BE4B2BC223C70DA7081
:1021A000F8BD00BF34800440D48AFF1FD88AFF1FC7
:1021B000D28AFF1F00B00640698AFF1F678AFF1F8F
:1021C000274B1B681A052DE9F04707468A4644D578
:1021D000244B1B680BB101221A703D4607EB0A0322
:1021E0009D4237D2DFF890801F4E98F8004096F855
:1021F00000900134282C28BF00245FFA89F9A145FA
:102200001DD11A4BBC22DA70FFF750FE40280FDCBC
:10221000164A13791B060FD5337815490133282B3D
:1022200028BF0023C95CDBB2C9B2D171337003E0AF
:10223000FF2801DDFFF788FD33784B45E4D00C4BD8
:1022400015F8012B1A550B4B0122E4B21A7088F8CD
:102250000040C3E7054BBC22DA70BDE8F08700BF41
:1022600034800440D48AFF1FD28AFF1F00B006408A
:10227000698AFF1F678AFF1FD88AFF1F08B5034BB3
:102280001B7813B1FFF760FDF9E708BD678AFF1FF0
:10229000064A074B1B781078DBB2C0B283422CBFD2
:1022A000273000F1FF30C01A704700BFD28AFF1FED
:1022B000D88AFF1F054B1878054B1B78C0B2DBB2DC
:1022C000984238BF4030C01A704700BFD18AFF1F04
:1022D000688AFF1F094B0A4A19781378DBB29942C2
:1022E00008D00133402B28BF00230649C85CDBB26D
:1022F000137070474FF0FF30704700BFD18AFF1F47
:10230000688AFF1F918AFF1F084B1A78084B1B78B9
:10231000DBB29A4207D00133402B28BF0023054A85
:10232000D05CC0B270474FF0FF307047D18AFF1FBA
:10233000688AFF1F918AFF1F0A4B1B681B050FD578
:10234000094BDA7802F0CB02DA7040225A74DA785C
:1023500042F03402DA70054B1A78054BD2B21A708B
:10236000704700BF3480044000B00640688AFF1FF9
:10237000D18AFF1F30B5304B1A7912F0300F23D0BD
:1023800072B69A7D02F0FF0122B9DA7940225A74BE
:1023900062B619E062B6294B29481A780478D2B29D
:1023A000E4B21846244BDD79531C402B28BF002390
:1023B000A342EDB202D0234AD5541A464B1E13F065
:1023C000FF01EFD1D2B202701B4BD978C9B20C0613
:1023D00020D51B7918061DD51B4B1C4A1D78137878
:1023E000EDB2DBB21046AB420CD0134A0133282BBE
:1023F0001479174C28BF0023E45CE4B2D471127D39
:10240000072AF0D9DBB203700B4B1A79120644BFCE
:102410007C22DA704B060ED5074B1A7912F0400F6A
:10242000194608D00B4B00221A700B4B1B6803B1E6
:102430001A703C23CB7030BD00B00640D18AFF1F1C
:10244000688AFF1F918AFF1FD88AFF1FD28AFF1F49
:10245000698AFF1F678AFF1FD48AFF1F174B1A68FC
:1024600042F480521A60164A00231370154A137002
:10247000154A1370154A1370154A1370154A40F225
:10248000133111604FF451715160134AC0F344315C
:102490001170C0F3471100F01F00517090729370DB
:1024A00013742C23D3700D4B40226FF44B711A70B0
:1024B0000B444FF400321A60704700BF3480044070
:1024C000438BFF1FDA8AFF1F4C8BFF1F448BFF1FBC
:1024D000D98AFF1F08C0044000C0064031E400E074
:1024E000134A937800F0030103F0EC030B43410718
:1024F00048BF43F01003937000F00F03042B0C4906
:1025000003D18B7943F040038B715379C20603F0FA
:10251000EF03074A48BF43F01003537193798106D4
:1025200003F0EF0348BF43F010039371704700BFFF
:1025300000C0064008B50E4B1B68DB0400D408BD84
:102540000C4B1A7802F0FF0312B1FFF7FDFBF7E71F
:10255000094A4FF400311160084A0949D37040F22A
:1025600003120A604A60074A1370074A137008BDD5
:1025700034800440D98AFF1F84E100E000C0064097
:1025800008C00440438BFF1FDA8AFF1F38B504469A
:10259000094B1B7803F0FF05002BF9D120460121E0
:1025A000FEF732F920462946FEF70EF9034B53F8A1
:1025B0003420034B1A6038BDD98AFF1F7C2D0000E0
:1025C000488BFF1F0B4B1B6813F4805310D002285D
:1025D000094B09D1094A4FF4407111605A7B42F00E
:1025E00008025A73012070475A7B02F0F7025A73AF
:1025F000002070473480044000C0064000C0044002
:102600000B4B1B6813F4805310D00E28094B09D1D3
:10261000094A4FF4407111605A7B42F001025A732B
:10262000012070475A7B02F0FE025A730020704767
:102630003480044000C0064004C00440F8B51D4B7F
:102640001B68DA04064633D51B4B1B680BB101220D
:102650001A701A4B1C780134282C1F4628BF0024FE
:10266000174D2B78A34218D1FFF720FC40280FDC30
:10267000144A13791B06F3D52B7813490133282B01
:1026800028BF0023C95CDBB2C9B2D1712B70E7E768
:10269000FF28E5DDFFF758FBE2E70B4BF6B21E55CE
:1026A0000A4B01221A70074BE4B2AC223C70DA707C
:1026B000F8BD00BF34800440488BFF1F4C8BFF1FC8
:1026C000448BFF1F00C00640DB8AFF1FD98AFF1F13
:1026D00038B504464518AC4204D014F8010BFFF796
:1026E000ADFFF8E738BDFFFF08B5034B1B7813B10A
:1026F000FFF72AFBF9E708BDD98AFF1F064A074BF7
:102700001B781078DBB2C0B283422CBF273000F1B7
:10271000FF30C01A704700BF448BFF1F4C8BFF1F58
:10272000054B1878054B1B78C0B2DBB2984238BF16
:102730004030C01A704700BF438BFF1FDA8AFF1F6B
:10274000094B0A4A19781378DBB2994208D0013351
:10275000402B28BF00230649C85CDBB213707047CA
:102760004FF0FF30704700BF438BFF1FDA8AFF1F17
:10277000038BFF1F084B1A78084B1B78DBB29A4279
:1027800007D00133402B28BF0023054AD05CC0B2DC
:1027900070474FF0FF307047438BFF1FDA8AFF1FEF
:1027A000038BFF1F024B1A78024BD2B21A7070478C
:1027B000DA8AFF1F438BFF1F10B5214B1A7992064F
:1027C0000FD5204AD87913781F490133402B097857
:1027D00028BF00238B42C0B203D01C49C854DBB2CF
:1027E0001370174AD178C9B20C0616D5137918069A
:1027F00013D5174B17481C780378DBB29C4202D1E3
:102800006C23D37009E00133282B28BF0023124C1E
:10281000E45CDBB2E4B2D47103704B060ED5084B16
:102820001A7912F0400F194608D00C4B00221A708A
:102830000B4B1B6803B11A702C23CB7010BD00BF6B
:1028400000C00640438BFF1FDA8AFF1F038BFF1F68
:102850004C8BFF1F448BFF1FDB8AFF1FD98AFF1F92
:10286000488BFF1F1FB572B6154B70221A70154AA0
:10287000412111700F2102F8011C80221A701A7870
:102880001206FCD5104B186862B6104B984298BFE0
:102890000A2301AC98BF584321460A22FFF724FBC4
:1028A0000023E15C0A4A29B102EB430001330A2B01
:1028B0004180F6D101335B00137004B010BD00BF3E
:1028C0000000024007000240080002407F96980086
:1028D000F487FF1F08B50368C9B21B68984708BD95
:1028E00008B50368C9B21B68984708BD08B50368F6
:1028F000C9B21B68984708BD08B50368C9B21B6810
:10290000984708BD4B0803F1B76000F55840B0FB8D
:10291000F1F0FFF717BB10B54B0803F1B76000F5F6
:1029200058401446B0FBF1F0FFF70CFB2046BDE821
:102930001040FFF74DBBFFF775BB0846FFF79EBB86
:1029400008B50846FFF7B6FB003018BF012008BDE8
:1029500008B50846FFF7CCFB003018BF012008BDC2
:10296000FFF7A8BCFFF7D0BCFFF7B4BCFFF786BCED
:10297000FFF7E2BCFFF78CBC08B50846FFF7D6FBB3
:10298000012008BD08B50846FFF7D0FB012008BDAF
:1029900010B5084614461146FFF712FC204610BD3C
:1029A00038B508460D4600F081F904462146284610
:1029B000FFF706FC204638BD7047FFFF044B00229E
:1029C0001A714FF47A711A73024A99601A6070474B
:1029D000508BFF1F702F000008B50368C9B21B6839
:1029E000984708BD08B50368C9B21B68984708BD79
:1029F00008B50368C9B21B68984708BD08B50368E5
:102A0000C9B21B68984708BD4B0803F1B76000F5D1
:102A10005840B0FBF1F0FFF721BD10B54B0803F1B2
:102A2000B76000F558401446B0FBF1F0FFF716FD13
:102A30002046BDE81040FFF753BDFFF77BBD0846B9
:102A4000FFF7A4BD08B50846FFF7BCFD003018BF6E
:102A5000012008BD08B50846FFF7D2FD003018BFB9
:102A6000012008BDFFF75CBEFFF784BEFFF768BE1C
:102A7000FFF73ABEFFF796BEFFF740BE08B508461F
:102A8000FFF7DCFD012008BD08B50846FFF7D6FDBD
:102A9000012008BD10B5084614461146FFF718FE80
:102AA000204610BD38B508460D4600F0FFF8044634
:102AB00021462846FFF70CFE204638BD7047FFFF31
:102AC000044B00221A714FF47A711A73024A99600A
:102AD0001A607047608BFF1FC82F000070B50E4B47
:102AE0000E4DED1AAD1000241E46AC4204D056F82F
:102AF000242090470134F8E700F0C0FA084D094B54
:102B0000ED1AAD1000241E46AC4204D056F8242025
:102B100090470134F8E770BD88300000883000002D
:102B20009C30000088300000024B0146186800F01D
:102B300003B800BF6C88FF1F30B500293CD051F8A6
:102B4000042C0B1F1D49002AB8BF9B180A680C46AD
:102B500012B95A600B6030BD93420DD219685818F3
:102B6000904203D15A581144426819605A60236058
:102B700030BD994203D80A4651680029F9D114683A
:102B800015199D420AD11B682344D018884213604E
:102B900012D10868034413604B680CE002D90C237F
:102BA000036030BD18681C188C4203D10C6849685A
:102BB000204418605960536030BD00BF748BFF1F04
:102BC00070B5CD1C25F0030508350C2D38BF0C253C
:102BD000002D06463FDB8D423DD3214B1C68184635
:102BE0002146A1B10B685B1B0ED40B2B03D90B60E4
:102BF000CC18CD501FE08C4202D1626802601AE00E
:102C00004B6863600C4616E00C464968E9E7154CD2
:102C100023681BB9304600F031F820602946304661
:102C200000F02CF8431C014615D0C41C24F003040A
:102C300084420AD1256004F10B00231D20F0070017
:102C4000C31A0BD05A42E25070BD3046611A00F0F0
:102C500015F80130EED10C233360002070BD00BFA9
:102C6000748BFF1F708BFF1F0A46034903460868D9
:102C7000194600F035B800BF6C88FF1F38B5064C08
:102C80000023054608462360FFF708F9431C02D1DC
:102C9000236803B12B6038BD888BFF1F034611F8F2
:102CA000012B03F8012B002AF9D17047034613F8D2
:102CB000012B002AFBD1181A0138704710B50346C2
:102CC00032B111F8014B03F8014B013A002CF7D156
:102CD0001A44934203D0002103F8011BF9E710BD09
:102CE000F8B5064614460D4621B91146BDE8F84030
:102CF000FFF766BF1AB9FFF71FFF2046F8BD00F0C7
:102D000015F8A0420ED230462146FFF759FF07467C
:102D100050B129462246FDF7ADFC30462946FFF763
:102D20000BFF01E02846F8BD3846F8BD51F8040C09
:102D3000002802DA04390B5818440438704748490F
:102D400044204F55545055542046524F4D2000209A
:102D50002873697A653A002900436F6E6E65637463
:102D6000696F6E2066726F6D2000626F6F74696E9E
:102D70006700626F6F74206F6B00FFFF4008FE43B7
:102D800040A004404408FE4344A004400018FE4311
:102D900000C004403000FE43309004403400FE4345
:102DA000349004401C18FE431CC004401018FE431D
:102DB00010C004400818FE4308C004400C18FE432D
:102DC0000CC004400C10FE430CB004401010FE4335
:102DD00010B004401810FE4318B004401C10FE430D
:102DE0001CB004401410FE4314B004400418FE4309
:102DF00004C004400010FE4300B004400008FE433D
:102E000000A004400408FE4304A004400C08FE4354
:102E10000CA004400808FE4308A004401418FE4318
:102E200014C004401818FE4318C004400410FE43A8
:102E300004B004400810FE4308B004401400FE43F0
:102E4000149004404C08FE434CA004400420FE4370
:102E500004D004402410FE4324B004402010FE435C
:102E600020B004402810FE4328B004402C10FE433C
:102E70002CB004400020FE4300D004404808FE432C
:102E800048A004401000FE4310900440FFFFFFFFE5
:102E900000000000000000001D1A0000351A0000AC
:102EA000051A00000D1A0000091A0000111A00008E
:102EB000A9190000BB190000DB190000DF19000090
:102EC000E5190000F5190000151A0000191A000094
:102ED0007919000085190000911900009D19000062
:102EE000451A0000291A00000D0AFFFFFFFFFFFF2F
:102EF00000000000000000001B1D0000211D00005C
:102F00000B1D00000F1D0000131D0000171D000009
:102F100000151915000100006C87FF1F120000004A
:102F2000000200009687FF1F43000000000300001E
:102F3000F087FF1F00000000010309047E87FF1FC8
:102F40000000000002030904DA87FF1F00000000F0
:102F500003030904F487FF1F0000000000000000C5
:102F60000000000000000000000000000000000061
:102F700079290000912900006129000069290000D9
:102F8000652900006D2900000529000017290000AF
:102F9000372900003B290000412900005129000089
:102FA0007129000075290000D5280000E1280000E3
:102FB000ED280000F9280000A12900008529000063
:102FC00000000000000000007D2A0000952A00009B
:102FD000652A00006D2A0000692A0000712A00009D
:102FE000092A00001B2A00003B2A00003F2A00009B
:102FF000452A0000552A0000752A0000792A0000A1
:10300000D9290000E5290000F1290000FD29000070
:10301000A52A0000892A00004300FFFF00000000ED
:1030200000000000000000000000000000000000A0
:103030000000000000000000000000000000000090
:103040000000000000000000000000000000000080
:103050000000000000000000000000000000000070
:103060000000000000000000000000000000000060
:10307000000000000000000000000000F8B500BFE4
:10308000F8BC08BC9E46704735040000611A000079
:0C3090002D1D0000BD290000C12A000019
:10309C00FFFFFFFF0A0400008C8BFF1F12010002D0
:1030AC0002000040C0168304000101020301180352
:1030BC005400650065006E007300790064007500B3
:1030CC0069006E006F0009024300020100C0320962
:1030DC000400000102020100052400100105240176
:1030EC0001010424020605240600010705820310D1
:1030FC00004009040100020A000000070503024019
:10310C000000070584024000000016035500530020
:10311C0042002000530065007200690061006C00E1
:10312C00040309040C030000000000000000000070
:10313C000000000000000000000000000000000083
:10314C001C3000003C3000005C300000000000002F
:10315C00000000000000000000000000183000001B
:10316C000000000000000000000000000000000053
:10317C000000000000000000000000000000000043
:10318C000000000000000000000000000000000033
:10319C000000000000000000000000000C88FF1F71
:00000001FF
